{
	"Contracts/Payment.sol": {
		"Payment": {
			"abi": [
				{
					"inputs": [
						{
							"internalType": "address",
							"name": "_payer",
							"type": "address"
						},
						{
							"internalType": "address",
							"name": "_recipient",
							"type": "address"
						},
						{
							"internalType": "uint256",
							"name": "_amount",
							"type": "uint256"
						},
						{
							"internalType": "string",
							"name": "_payerCountry",
							"type": "string"
						},
						{
							"internalType": "string",
							"name": "_recipientCountry",
							"type": "string"
						},
						{
							"internalType": "address",
							"name": "_countriesContract",
							"type": "address"
						}
					],
					"stateMutability": "nonpayable",
					"type": "constructor"
				},
				{
					"inputs": [],
					"name": "amount",
					"outputs": [
						{
							"internalType": "uint256",
							"name": "",
							"type": "uint256"
						}
					],
					"stateMutability": "view",
					"type": "function"
				},
				{
					"inputs": [],
					"name": "countriesContract",
					"outputs": [
						{
							"internalType": "address",
							"name": "",
							"type": "address"
						}
					],
					"stateMutability": "view",
					"type": "function"
				},
				{
					"inputs": [],
					"name": "getAmount",
					"outputs": [
						{
							"internalType": "uint256",
							"name": "",
							"type": "uint256"
						}
					],
					"stateMutability": "view",
					"type": "function"
				},
				{
					"inputs": [],
					"name": "pay",
					"outputs": [],
					"stateMutability": "payable",
					"type": "function"
				},
				{
					"inputs": [],
					"name": "payer",
					"outputs": [
						{
							"internalType": "address",
							"name": "",
							"type": "address"
						}
					],
					"stateMutability": "view",
					"type": "function"
				},
				{
					"inputs": [],
					"name": "payerCountry",
					"outputs": [
						{
							"internalType": "string",
							"name": "",
							"type": "string"
						}
					],
					"stateMutability": "view",
					"type": "function"
				},
				{
					"inputs": [],
					"name": "recipient",
					"outputs": [
						{
							"internalType": "address",
							"name": "",
							"type": "address"
						}
					],
					"stateMutability": "view",
					"type": "function"
				},
				{
					"inputs": [],
					"name": "recipientCountry",
					"outputs": [
						{
							"internalType": "string",
							"name": "",
							"type": "string"
						}
					],
					"stateMutability": "view",
					"type": "function"
				}
			],
			"devdoc": {
				"kind": "dev",
				"methods": {},
				"version": 1
			},
			"evm": {
				"assembly": "    /* \"Contracts/Payment.sol\":202:1672  contract Payment {... */\n  mstore(0x40, 0x80)\n    /* \"Contracts/Payment.sol\":529:1302  constructor(address _payer, address _recipient, uint256 _amount, string memory _payerCountry, string memory _recipientCountry, address _countriesContract) {... */\n  callvalue\n  dup1\n  iszero\n  tag_1\n  jumpi\n  0x00\n  dup1\n  revert\ntag_1:\n  pop\n  mload(0x40)\n  sub(codesize, bytecodeSize)\n  dup1\n  bytecodeSize\n  dup4\n  codecopy\n  dup2\n  dup2\n  add\n  0x40\n  mstore\n  dup2\n  add\n  swap1\n  tag_2\n  swap2\n  swap1\n  tag_3\n  jump\t// in\ntag_2:\n    /* \"Contracts/Payment.sol\":732:733  0 */\n  0x00\n    /* \"Contracts/Payment.sol\":702:734  _countriesContract != address(0) */\n  0xffffffffffffffffffffffffffffffffffffffff\n  and\n    /* \"Contracts/Payment.sol\":702:720  _countriesContract */\n  dup2\n    /* \"Contracts/Payment.sol\":702:734  _countriesContract != address(0) */\n  0xffffffffffffffffffffffffffffffffffffffff\n  and\n  sub\n    /* \"Contracts/Payment.sol\":694:773  require(_countriesContract != address(0), \"Invalid Countries contract address\") */\n  tag_6\n  jumpi\n  mload(0x40)\n  0x08c379a000000000000000000000000000000000000000000000000000000000\n  dup2\n  mstore\n  0x04\n  add\n  tag_7\n  swap1\n  tag_8\n  jump\t// in\ntag_7:\n  mload(0x40)\n  dup1\n  swap2\n  sub\n  swap1\n  revert\ntag_6:\n    /* \"Contracts/Payment.sol\":803:821  _countriesContract */\n  dup1\n    /* \"Contracts/Payment.sol\":783:800  countriesContract */\n  0x05\n  0x00\n    /* \"Contracts/Payment.sol\":783:821  countriesContract = _countriesContract */\n  0x0100\n  exp\n  dup2\n  sload\n  dup2\n  0xffffffffffffffffffffffffffffffffffffffff\n  mul\n  not\n  and\n  swap1\n  dup4\n  0xffffffffffffffffffffffffffffffffffffffff\n  and\n  mul\n  or\n  swap1\n  sstore\n  pop\n    /* \"Contracts/Payment.sol\":884:904  ICountries countries */\n  0x00\n    /* \"Contracts/Payment.sol\":918:935  countriesContract */\n  0x05\n  0x00\n  swap1\n  sload\n  swap1\n  0x0100\n  exp\n  swap1\n  div\n  0xffffffffffffffffffffffffffffffffffffffff\n  and\n    /* \"Contracts/Payment.sol\":884:936  ICountries countries = ICountries(countriesContract) */\n  swap1\n  pop\n    /* \"Contracts/Payment.sol\":954:963  countries */\n  dup1\n    /* \"Contracts/Payment.sol\":954:978  countries.isValidISOCode */\n  0xffffffffffffffffffffffffffffffffffffffff\n  and\n  0x03649e43\n    /* \"Contracts/Payment.sol\":979:992  _payerCountry */\n  dup6\n    /* \"Contracts/Payment.sol\":954:993  countries.isValidISOCode(_payerCountry) */\n  mload(0x40)\n  dup3\n  0xffffffff\n  and\n  0xe0\n  shl\n  dup2\n  mstore\n  0x04\n  add\n  tag_9\n  swap2\n  swap1\n  tag_10\n  jump\t// in\ntag_9:\n  0x20\n  mload(0x40)\n  dup1\n  dup4\n  sub\n  dup2\n  dup7\n  gas\n  staticcall\n  iszero\n  dup1\n  iszero\n  tag_12\n  jumpi\n  returndatasize\n  0x00\n  dup1\n  returndatacopy\n  revert(0x00, returndatasize)\ntag_12:\n  pop\n  pop\n  pop\n  pop\n  mload(0x40)\n  returndatasize\n  not(0x1f)\n  0x1f\n  dup3\n  add\n  and\n  dup3\n  add\n  dup1\n  0x40\n  mstore\n  pop\n  dup2\n  add\n  swap1\n  tag_13\n  swap2\n  swap1\n  tag_14\n  jump\t// in\ntag_13:\n    /* \"Contracts/Payment.sol\":946:1028  require(countries.isValidISOCode(_payerCountry), \"Invalid payer country ISO code\") */\n  tag_15\n  jumpi\n  mload(0x40)\n  0x08c379a000000000000000000000000000000000000000000000000000000000\n  dup2\n  mstore\n  0x04\n  add\n  tag_16\n  swap1\n  tag_17\n  jump\t// in\ntag_16:\n  mload(0x40)\n  dup1\n  swap2\n  sub\n  swap1\n  revert\ntag_15:\n    /* \"Contracts/Payment.sol\":1046:1055  countries */\n  dup1\n    /* \"Contracts/Payment.sol\":1046:1070  countries.isValidISOCode */\n  0xffffffffffffffffffffffffffffffffffffffff\n  and\n  0x03649e43\n    /* \"Contracts/Payment.sol\":1071:1088  _recipientCountry */\n  dup5\n    /* \"Contracts/Payment.sol\":1046:1089  countries.isValidISOCode(_recipientCountry) */\n  mload(0x40)\n  dup3\n  0xffffffff\n  and\n  0xe0\n  shl\n  dup2\n  mstore\n  0x04\n  add\n  tag_18\n  swap2\n  swap1\n  tag_10\n  jump\t// in\ntag_18:\n  0x20\n  mload(0x40)\n  dup1\n  dup4\n  sub\n  dup2\n  dup7\n  gas\n  staticcall\n  iszero\n  dup1\n  iszero\n  tag_20\n  jumpi\n  returndatasize\n  0x00\n  dup1\n  returndatacopy\n  revert(0x00, returndatasize)\ntag_20:\n  pop\n  pop\n  pop\n  pop\n  mload(0x40)\n  returndatasize\n  not(0x1f)\n  0x1f\n  dup3\n  add\n  and\n  dup3\n  add\n  dup1\n  0x40\n  mstore\n  pop\n  dup2\n  add\n  swap1\n  tag_21\n  swap2\n  swap1\n  tag_14\n  jump\t// in\ntag_21:\n    /* \"Contracts/Payment.sol\":1038:1128  require(countries.isValidISOCode(_recipientCountry), \"Invalid recipient country ISO code\") */\n  tag_22\n  jumpi\n  mload(0x40)\n  0x08c379a000000000000000000000000000000000000000000000000000000000\n  dup2\n  mstore\n  0x04\n  add\n  tag_23\n  swap1\n  tag_24\n  jump\t// in\ntag_23:\n  mload(0x40)\n  dup1\n  swap2\n  sub\n  swap1\n  revert\ntag_22:\n    /* \"Contracts/Payment.sol\":1147:1153  _payer */\n  dup7\n    /* \"Contracts/Payment.sol\":1139:1144  payer */\n  0x00\n  dup1\n    /* \"Contracts/Payment.sol\":1139:1153  payer = _payer */\n  0x0100\n  exp\n  dup2\n  sload\n  dup2\n  0xffffffffffffffffffffffffffffffffffffffff\n  mul\n  not\n  and\n  swap1\n  dup4\n  0xffffffffffffffffffffffffffffffffffffffff\n  and\n  mul\n  or\n  swap1\n  sstore\n  pop\n    /* \"Contracts/Payment.sol\":1175:1185  _recipient */\n  dup6\n    /* \"Contracts/Payment.sol\":1163:1172  recipient */\n  0x01\n  0x00\n    /* \"Contracts/Payment.sol\":1163:1185  recipient = _recipient */\n  0x0100\n  exp\n  dup2\n  sload\n  dup2\n  0xffffffffffffffffffffffffffffffffffffffff\n  mul\n  not\n  and\n  swap1\n  dup4\n  0xffffffffffffffffffffffffffffffffffffffff\n  and\n  mul\n  or\n  swap1\n  sstore\n  pop\n    /* \"Contracts/Payment.sol\":1204:1211  _amount */\n  dup5\n    /* \"Contracts/Payment.sol\":1195:1201  amount */\n  0x02\n    /* \"Contracts/Payment.sol\":1195:1211  amount = _amount */\n  dup2\n  swap1\n  sstore\n  pop\n    /* \"Contracts/Payment.sol\":1236:1249  _payerCountry */\n  dup4\n    /* \"Contracts/Payment.sol\":1221:1233  payerCountry */\n  0x03\n    /* \"Contracts/Payment.sol\":1221:1249  payerCountry = _payerCountry */\n  swap1\n  dup2\n  tag_25\n  swap2\n  swap1\n  tag_26\n  jump\t// in\ntag_25:\n  pop\n    /* \"Contracts/Payment.sol\":1278:1295  _recipientCountry */\n  dup3\n    /* \"Contracts/Payment.sol\":1259:1275  recipientCountry */\n  0x04\n    /* \"Contracts/Payment.sol\":1259:1295  recipientCountry = _recipientCountry */\n  swap1\n  dup2\n  tag_27\n  swap2\n  swap1\n  tag_26\n  jump\t// in\ntag_27:\n  pop\n    /* \"Contracts/Payment.sol\":684:1302  {... */\n  pop\n    /* \"Contracts/Payment.sol\":529:1302  constructor(address _payer, address _recipient, uint256 _amount, string memory _payerCountry, string memory _recipientCountry, address _countriesContract) {... */\n  pop\n  pop\n  pop\n  pop\n  pop\n  pop\n    /* \"Contracts/Payment.sol\":202:1672  contract Payment {... */\n  jump(tag_28)\n    /* \"#utility.yul\":7:82   */\ntag_29:\n    /* \"#utility.yul\":40:46   */\n  0x00\n    /* \"#utility.yul\":73:75   */\n  0x40\n    /* \"#utility.yul\":67:76   */\n  mload\n    /* \"#utility.yul\":57:76   */\n  swap1\n  pop\n    /* \"#utility.yul\":7:82   */\n  swap1\n  jump\t// out\n    /* \"#utility.yul\":88:205   */\ntag_30:\n    /* \"#utility.yul\":197:198   */\n  0x00\n    /* \"#utility.yul\":194:195   */\n  dup1\n    /* \"#utility.yul\":187:199   */\n  revert\n    /* \"#utility.yul\":211:328   */\ntag_31:\n    /* \"#utility.yul\":320:321   */\n  0x00\n    /* \"#utility.yul\":317:318   */\n  dup1\n    /* \"#utility.yul\":310:322   */\n  revert\n    /* \"#utility.yul\":334:460   */\ntag_32:\n    /* \"#utility.yul\":371:378   */\n  0x00\n    /* \"#utility.yul\":411:453   */\n  0xffffffffffffffffffffffffffffffffffffffff\n    /* \"#utility.yul\":404:409   */\n  dup3\n    /* \"#utility.yul\":400:454   */\n  and\n    /* \"#utility.yul\":389:454   */\n  swap1\n  pop\n    /* \"#utility.yul\":334:460   */\n  swap2\n  swap1\n  pop\n  jump\t// out\n    /* \"#utility.yul\":466:562   */\ntag_33:\n    /* \"#utility.yul\":503:510   */\n  0x00\n    /* \"#utility.yul\":532:556   */\n  tag_84\n    /* \"#utility.yul\":550:555   */\n  dup3\n    /* \"#utility.yul\":532:556   */\n  tag_32\n  jump\t// in\ntag_84:\n    /* \"#utility.yul\":521:556   */\n  swap1\n  pop\n    /* \"#utility.yul\":466:562   */\n  swap2\n  swap1\n  pop\n  jump\t// out\n    /* \"#utility.yul\":568:690   */\ntag_34:\n    /* \"#utility.yul\":641:665   */\n  tag_86\n    /* \"#utility.yul\":659:664   */\n  dup2\n    /* \"#utility.yul\":641:665   */\n  tag_33\n  jump\t// in\ntag_86:\n    /* \"#utility.yul\":634:639   */\n  dup2\n    /* \"#utility.yul\":631:666   */\n  eq\n    /* \"#utility.yul\":621:684   */\n  tag_87\n  jumpi\n    /* \"#utility.yul\":680:681   */\n  0x00\n    /* \"#utility.yul\":677:678   */\n  dup1\n    /* \"#utility.yul\":670:682   */\n  revert\n    /* \"#utility.yul\":621:684   */\ntag_87:\n    /* \"#utility.yul\":568:690   */\n  pop\n  jump\t// out\n    /* \"#utility.yul\":696:839   */\ntag_35:\n    /* \"#utility.yul\":753:758   */\n  0x00\n    /* \"#utility.yul\":784:790   */\n  dup2\n    /* \"#utility.yul\":778:791   */\n  mload\n    /* \"#utility.yul\":769:791   */\n  swap1\n  pop\n    /* \"#utility.yul\":800:833   */\n  tag_89\n    /* \"#utility.yul\":827:832   */\n  dup2\n    /* \"#utility.yul\":800:833   */\n  tag_34\n  jump\t// in\ntag_89:\n    /* \"#utility.yul\":696:839   */\n  swap3\n  swap2\n  pop\n  pop\n  jump\t// out\n    /* \"#utility.yul\":845:922   */\ntag_36:\n    /* \"#utility.yul\":882:889   */\n  0x00\n    /* \"#utility.yul\":911:916   */\n  dup2\n    /* \"#utility.yul\":900:916   */\n  swap1\n  pop\n    /* \"#utility.yul\":845:922   */\n  swap2\n  swap1\n  pop\n  jump\t// out\n    /* \"#utility.yul\":928:1050   */\ntag_37:\n    /* \"#utility.yul\":1001:1025   */\n  tag_92\n    /* \"#utility.yul\":1019:1024   */\n  dup2\n    /* \"#utility.yul\":1001:1025   */\n  tag_36\n  jump\t// in\ntag_92:\n    /* \"#utility.yul\":994:999   */\n  dup2\n    /* \"#utility.yul\":991:1026   */\n  eq\n    /* \"#utility.yul\":981:1044   */\n  tag_93\n  jumpi\n    /* \"#utility.yul\":1040:1041   */\n  0x00\n    /* \"#utility.yul\":1037:1038   */\n  dup1\n    /* \"#utility.yul\":1030:1042   */\n  revert\n    /* \"#utility.yul\":981:1044   */\ntag_93:\n    /* \"#utility.yul\":928:1050   */\n  pop\n  jump\t// out\n    /* \"#utility.yul\":1056:1199   */\ntag_38:\n    /* \"#utility.yul\":1113:1118   */\n  0x00\n    /* \"#utility.yul\":1144:1150   */\n  dup2\n    /* \"#utility.yul\":1138:1151   */\n  mload\n    /* \"#utility.yul\":1129:1151   */\n  swap1\n  pop\n    /* \"#utility.yul\":1160:1193   */\n  tag_95\n    /* \"#utility.yul\":1187:1192   */\n  dup2\n    /* \"#utility.yul\":1160:1193   */\n  tag_37\n  jump\t// in\ntag_95:\n    /* \"#utility.yul\":1056:1199   */\n  swap3\n  swap2\n  pop\n  pop\n  jump\t// out\n    /* \"#utility.yul\":1205:1322   */\ntag_39:\n    /* \"#utility.yul\":1314:1315   */\n  0x00\n    /* \"#utility.yul\":1311:1312   */\n  dup1\n    /* \"#utility.yul\":1304:1316   */\n  revert\n    /* \"#utility.yul\":1328:1445   */\ntag_40:\n    /* \"#utility.yul\":1437:1438   */\n  0x00\n    /* \"#utility.yul\":1434:1435   */\n  dup1\n    /* \"#utility.yul\":1427:1439   */\n  revert\n    /* \"#utility.yul\":1451:1553   */\ntag_41:\n    /* \"#utility.yul\":1492:1498   */\n  0x00\n    /* \"#utility.yul\":1543:1545   */\n  0x1f\n    /* \"#utility.yul\":1539:1546   */\n  not\n    /* \"#utility.yul\":1534:1536   */\n  0x1f\n    /* \"#utility.yul\":1527:1532   */\n  dup4\n    /* \"#utility.yul\":1523:1537   */\n  add\n    /* \"#utility.yul\":1519:1547   */\n  and\n    /* \"#utility.yul\":1509:1547   */\n  swap1\n  pop\n    /* \"#utility.yul\":1451:1553   */\n  swap2\n  swap1\n  pop\n  jump\t// out\n    /* \"#utility.yul\":1559:1739   */\ntag_42:\n    /* \"#utility.yul\":1607:1684   */\n  0x4e487b7100000000000000000000000000000000000000000000000000000000\n    /* \"#utility.yul\":1604:1605   */\n  0x00\n    /* \"#utility.yul\":1597:1685   */\n  mstore\n    /* \"#utility.yul\":1704:1708   */\n  0x41\n    /* \"#utility.yul\":1701:1702   */\n  0x04\n    /* \"#utility.yul\":1694:1709   */\n  mstore\n    /* \"#utility.yul\":1728:1732   */\n  0x24\n    /* \"#utility.yul\":1725:1726   */\n  0x00\n    /* \"#utility.yul\":1718:1733   */\n  revert\n    /* \"#utility.yul\":1745:2026   */\ntag_43:\n    /* \"#utility.yul\":1828:1855   */\n  tag_101\n    /* \"#utility.yul\":1850:1854   */\n  dup3\n    /* \"#utility.yul\":1828:1855   */\n  tag_41\n  jump\t// in\ntag_101:\n    /* \"#utility.yul\":1820:1826   */\n  dup2\n    /* \"#utility.yul\":1816:1856   */\n  add\n    /* \"#utility.yul\":1958:1964   */\n  dup2\n    /* \"#utility.yul\":1946:1956   */\n  dup2\n    /* \"#utility.yul\":1943:1965   */\n  lt\n    /* \"#utility.yul\":1922:1940   */\n  0xffffffffffffffff\n    /* \"#utility.yul\":1910:1920   */\n  dup3\n    /* \"#utility.yul\":1907:1941   */\n  gt\n    /* \"#utility.yul\":1904:1966   */\n  or\n    /* \"#utility.yul\":1901:1989   */\n  iszero\n  tag_102\n  jumpi\n    /* \"#utility.yul\":1969:1987   */\n  tag_103\n  tag_42\n  jump\t// in\ntag_103:\n    /* \"#utility.yul\":1901:1989   */\ntag_102:\n    /* \"#utility.yul\":2009:2019   */\n  dup1\n    /* \"#utility.yul\":2005:2007   */\n  0x40\n    /* \"#utility.yul\":1998:2020   */\n  mstore\n    /* \"#utility.yul\":1788:2026   */\n  pop\n    /* \"#utility.yul\":1745:2026   */\n  pop\n  pop\n  jump\t// out\n    /* \"#utility.yul\":2032:2161   */\ntag_44:\n    /* \"#utility.yul\":2066:2072   */\n  0x00\n    /* \"#utility.yul\":2093:2113   */\n  tag_105\n  tag_29\n  jump\t// in\ntag_105:\n    /* \"#utility.yul\":2083:2113   */\n  swap1\n  pop\n    /* \"#utility.yul\":2122:2155   */\n  tag_106\n    /* \"#utility.yul\":2150:2154   */\n  dup3\n    /* \"#utility.yul\":2142:2148   */\n  dup3\n    /* \"#utility.yul\":2122:2155   */\n  tag_43\n  jump\t// in\ntag_106:\n    /* \"#utility.yul\":2032:2161   */\n  swap2\n  swap1\n  pop\n  jump\t// out\n    /* \"#utility.yul\":2167:2475   */\ntag_45:\n    /* \"#utility.yul\":2229:2233   */\n  0x00\n    /* \"#utility.yul\":2319:2337   */\n  0xffffffffffffffff\n    /* \"#utility.yul\":2311:2317   */\n  dup3\n    /* \"#utility.yul\":2308:2338   */\n  gt\n    /* \"#utility.yul\":2305:2361   */\n  iszero\n  tag_108\n  jumpi\n    /* \"#utility.yul\":2341:2359   */\n  tag_109\n  tag_42\n  jump\t// in\ntag_109:\n    /* \"#utility.yul\":2305:2361   */\ntag_108:\n    /* \"#utility.yul\":2379:2408   */\n  tag_110\n    /* \"#utility.yul\":2401:2407   */\n  dup3\n    /* \"#utility.yul\":2379:2408   */\n  tag_41\n  jump\t// in\ntag_110:\n    /* \"#utility.yul\":2371:2408   */\n  swap1\n  pop\n    /* \"#utility.yul\":2463:2467   */\n  0x20\n    /* \"#utility.yul\":2457:2461   */\n  dup2\n    /* \"#utility.yul\":2453:2468   */\n  add\n    /* \"#utility.yul\":2445:2468   */\n  swap1\n  pop\n    /* \"#utility.yul\":2167:2475   */\n  swap2\n  swap1\n  pop\n  jump\t// out\n    /* \"#utility.yul\":2481:2620   */\ntag_46:\n    /* \"#utility.yul\":2570:2576   */\n  dup3\n    /* \"#utility.yul\":2565:2568   */\n  dup2\n    /* \"#utility.yul\":2560:2563   */\n  dup4\n    /* \"#utility.yul\":2554:2577   */\n  mcopy\n    /* \"#utility.yul\":2611:2612   */\n  0x00\n    /* \"#utility.yul\":2602:2608   */\n  dup4\n    /* \"#utility.yul\":2597:2600   */\n  dup4\n    /* \"#utility.yul\":2593:2609   */\n  add\n    /* \"#utility.yul\":2586:2613   */\n  mstore\n    /* \"#utility.yul\":2481:2620   */\n  pop\n  pop\n  pop\n  jump\t// out\n    /* \"#utility.yul\":2626:3060   */\ntag_47:\n    /* \"#utility.yul\":2715:2720   */\n  0x00\n    /* \"#utility.yul\":2740:2806   */\n  tag_113\n    /* \"#utility.yul\":2756:2805   */\n  tag_114\n    /* \"#utility.yul\":2798:2804   */\n  dup5\n    /* \"#utility.yul\":2756:2805   */\n  tag_45\n  jump\t// in\ntag_114:\n    /* \"#utility.yul\":2740:2806   */\n  tag_44\n  jump\t// in\ntag_113:\n    /* \"#utility.yul\":2731:2806   */\n  swap1\n  pop\n    /* \"#utility.yul\":2829:2835   */\n  dup3\n    /* \"#utility.yul\":2822:2827   */\n  dup2\n    /* \"#utility.yul\":2815:2836   */\n  mstore\n    /* \"#utility.yul\":2867:2871   */\n  0x20\n    /* \"#utility.yul\":2860:2865   */\n  dup2\n    /* \"#utility.yul\":2856:2872   */\n  add\n    /* \"#utility.yul\":2905:2908   */\n  dup5\n    /* \"#utility.yul\":2896:2902   */\n  dup5\n    /* \"#utility.yul\":2891:2894   */\n  dup5\n    /* \"#utility.yul\":2887:2903   */\n  add\n    /* \"#utility.yul\":2884:2909   */\n  gt\n    /* \"#utility.yul\":2881:2993   */\n  iszero\n  tag_115\n  jumpi\n    /* \"#utility.yul\":2912:2991   */\n  tag_116\n  tag_40\n  jump\t// in\ntag_116:\n    /* \"#utility.yul\":2881:2993   */\ntag_115:\n    /* \"#utility.yul\":3002:3054   */\n  tag_117\n    /* \"#utility.yul\":3047:3053   */\n  dup5\n    /* \"#utility.yul\":3042:3045   */\n  dup3\n    /* \"#utility.yul\":3037:3040   */\n  dup6\n    /* \"#utility.yul\":3002:3054   */\n  tag_46\n  jump\t// in\ntag_117:\n    /* \"#utility.yul\":2721:3060   */\n  pop\n    /* \"#utility.yul\":2626:3060   */\n  swap4\n  swap3\n  pop\n  pop\n  pop\n  jump\t// out\n    /* \"#utility.yul\":3080:3435   */\ntag_48:\n    /* \"#utility.yul\":3147:3152   */\n  0x00\n    /* \"#utility.yul\":3196:3199   */\n  dup3\n    /* \"#utility.yul\":3189:3193   */\n  0x1f\n    /* \"#utility.yul\":3181:3187   */\n  dup4\n    /* \"#utility.yul\":3177:3194   */\n  add\n    /* \"#utility.yul\":3173:3200   */\n  slt\n    /* \"#utility.yul\":3163:3285   */\n  tag_119\n  jumpi\n    /* \"#utility.yul\":3204:3283   */\n  tag_120\n  tag_39\n  jump\t// in\ntag_120:\n    /* \"#utility.yul\":3163:3285   */\ntag_119:\n    /* \"#utility.yul\":3314:3320   */\n  dup2\n    /* \"#utility.yul\":3308:3321   */\n  mload\n    /* \"#utility.yul\":3339:3429   */\n  tag_121\n    /* \"#utility.yul\":3425:3428   */\n  dup5\n    /* \"#utility.yul\":3417:3423   */\n  dup3\n    /* \"#utility.yul\":3410:3414   */\n  0x20\n    /* \"#utility.yul\":3402:3408   */\n  dup7\n    /* \"#utility.yul\":3398:3415   */\n  add\n    /* \"#utility.yul\":3339:3429   */\n  tag_47\n  jump\t// in\ntag_121:\n    /* \"#utility.yul\":3330:3429   */\n  swap2\n  pop\n    /* \"#utility.yul\":3153:3435   */\n  pop\n    /* \"#utility.yul\":3080:3435   */\n  swap3\n  swap2\n  pop\n  pop\n  jump\t// out\n    /* \"#utility.yul\":3441:4921   */\ntag_3:\n    /* \"#utility.yul\":3576:3582   */\n  0x00\n    /* \"#utility.yul\":3584:3590   */\n  dup1\n    /* \"#utility.yul\":3592:3598   */\n  0x00\n    /* \"#utility.yul\":3600:3606   */\n  dup1\n    /* \"#utility.yul\":3608:3614   */\n  0x00\n    /* \"#utility.yul\":3616:3622   */\n  dup1\n    /* \"#utility.yul\":3665:3668   */\n  0xc0\n    /* \"#utility.yul\":3653:3662   */\n  dup8\n    /* \"#utility.yul\":3644:3651   */\n  dup10\n    /* \"#utility.yul\":3640:3663   */\n  sub\n    /* \"#utility.yul\":3636:3669   */\n  slt\n    /* \"#utility.yul\":3633:3753   */\n  iszero\n  tag_123\n  jumpi\n    /* \"#utility.yul\":3672:3751   */\n  tag_124\n  tag_30\n  jump\t// in\ntag_124:\n    /* \"#utility.yul\":3633:3753   */\ntag_123:\n    /* \"#utility.yul\":3792:3793   */\n  0x00\n    /* \"#utility.yul\":3817:3881   */\n  tag_125\n    /* \"#utility.yul\":3873:3880   */\n  dup10\n    /* \"#utility.yul\":3864:3870   */\n  dup3\n    /* \"#utility.yul\":3853:3862   */\n  dup11\n    /* \"#utility.yul\":3849:3871   */\n  add\n    /* \"#utility.yul\":3817:3881   */\n  tag_35\n  jump\t// in\ntag_125:\n    /* \"#utility.yul\":3807:3881   */\n  swap7\n  pop\n    /* \"#utility.yul\":3763:3891   */\n  pop\n    /* \"#utility.yul\":3930:3932   */\n  0x20\n    /* \"#utility.yul\":3956:4020   */\n  tag_126\n    /* \"#utility.yul\":4012:4019   */\n  dup10\n    /* \"#utility.yul\":4003:4009   */\n  dup3\n    /* \"#utility.yul\":3992:4001   */\n  dup11\n    /* \"#utility.yul\":3988:4010   */\n  add\n    /* \"#utility.yul\":3956:4020   */\n  tag_35\n  jump\t// in\ntag_126:\n    /* \"#utility.yul\":3946:4020   */\n  swap6\n  pop\n    /* \"#utility.yul\":3901:4030   */\n  pop\n    /* \"#utility.yul\":4069:4071   */\n  0x40\n    /* \"#utility.yul\":4095:4159   */\n  tag_127\n    /* \"#utility.yul\":4151:4158   */\n  dup10\n    /* \"#utility.yul\":4142:4148   */\n  dup3\n    /* \"#utility.yul\":4131:4140   */\n  dup11\n    /* \"#utility.yul\":4127:4149   */\n  add\n    /* \"#utility.yul\":4095:4159   */\n  tag_38\n  jump\t// in\ntag_127:\n    /* \"#utility.yul\":4085:4159   */\n  swap5\n  pop\n    /* \"#utility.yul\":4040:4169   */\n  pop\n    /* \"#utility.yul\":4229:4231   */\n  0x60\n    /* \"#utility.yul\":4218:4227   */\n  dup8\n    /* \"#utility.yul\":4214:4232   */\n  add\n    /* \"#utility.yul\":4208:4233   */\n  mload\n    /* \"#utility.yul\":4260:4278   */\n  0xffffffffffffffff\n    /* \"#utility.yul\":4252:4258   */\n  dup2\n    /* \"#utility.yul\":4249:4279   */\n  gt\n    /* \"#utility.yul\":4246:4363   */\n  iszero\n  tag_128\n  jumpi\n    /* \"#utility.yul\":4282:4361   */\n  tag_129\n  tag_31\n  jump\t// in\ntag_129:\n    /* \"#utility.yul\":4246:4363   */\ntag_128:\n    /* \"#utility.yul\":4387:4461   */\n  tag_130\n    /* \"#utility.yul\":4453:4460   */\n  dup10\n    /* \"#utility.yul\":4444:4450   */\n  dup3\n    /* \"#utility.yul\":4433:4442   */\n  dup11\n    /* \"#utility.yul\":4429:4451   */\n  add\n    /* \"#utility.yul\":4387:4461   */\n  tag_48\n  jump\t// in\ntag_130:\n    /* \"#utility.yul\":4377:4461   */\n  swap4\n  pop\n    /* \"#utility.yul\":4179:4471   */\n  pop\n    /* \"#utility.yul\":4531:4534   */\n  0x80\n    /* \"#utility.yul\":4520:4529   */\n  dup8\n    /* \"#utility.yul\":4516:4535   */\n  add\n    /* \"#utility.yul\":4510:4536   */\n  mload\n    /* \"#utility.yul\":4563:4581   */\n  0xffffffffffffffff\n    /* \"#utility.yul\":4555:4561   */\n  dup2\n    /* \"#utility.yul\":4552:4582   */\n  gt\n    /* \"#utility.yul\":4549:4666   */\n  iszero\n  tag_131\n  jumpi\n    /* \"#utility.yul\":4585:4664   */\n  tag_132\n  tag_31\n  jump\t// in\ntag_132:\n    /* \"#utility.yul\":4549:4666   */\ntag_131:\n    /* \"#utility.yul\":4690:4764   */\n  tag_133\n    /* \"#utility.yul\":4756:4763   */\n  dup10\n    /* \"#utility.yul\":4747:4753   */\n  dup3\n    /* \"#utility.yul\":4736:4745   */\n  dup11\n    /* \"#utility.yul\":4732:4754   */\n  add\n    /* \"#utility.yul\":4690:4764   */\n  tag_48\n  jump\t// in\ntag_133:\n    /* \"#utility.yul\":4680:4764   */\n  swap3\n  pop\n    /* \"#utility.yul\":4481:4774   */\n  pop\n    /* \"#utility.yul\":4813:4816   */\n  0xa0\n    /* \"#utility.yul\":4840:4904   */\n  tag_134\n    /* \"#utility.yul\":4896:4903   */\n  dup10\n    /* \"#utility.yul\":4887:4893   */\n  dup3\n    /* \"#utility.yul\":4876:4885   */\n  dup11\n    /* \"#utility.yul\":4872:4894   */\n  add\n    /* \"#utility.yul\":4840:4904   */\n  tag_35\n  jump\t// in\ntag_134:\n    /* \"#utility.yul\":4830:4904   */\n  swap2\n  pop\n    /* \"#utility.yul\":4784:4914   */\n  pop\n    /* \"#utility.yul\":3441:4921   */\n  swap3\n  swap6\n  pop\n  swap3\n  swap6\n  pop\n  swap3\n  swap6\n  jump\t// out\n    /* \"#utility.yul\":4927:5096   */\ntag_49:\n    /* \"#utility.yul\":5011:5022   */\n  0x00\n    /* \"#utility.yul\":5045:5051   */\n  dup3\n    /* \"#utility.yul\":5040:5043   */\n  dup3\n    /* \"#utility.yul\":5033:5052   */\n  mstore\n    /* \"#utility.yul\":5085:5089   */\n  0x20\n    /* \"#utility.yul\":5080:5083   */\n  dup3\n    /* \"#utility.yul\":5076:5090   */\n  add\n    /* \"#utility.yul\":5061:5090   */\n  swap1\n  pop\n    /* \"#utility.yul\":4927:5096   */\n  swap3\n  swap2\n  pop\n  pop\n  jump\t// out\n    /* \"#utility.yul\":5102:5323   */\ntag_50:\n    /* \"#utility.yul\":5242:5276   */\n  0x496e76616c696420436f756e747269657320636f6e7472616374206164647265\n    /* \"#utility.yul\":5238:5239   */\n  0x00\n    /* \"#utility.yul\":5230:5236   */\n  dup3\n    /* \"#utility.yul\":5226:5240   */\n  add\n    /* \"#utility.yul\":5219:5277   */\n  mstore\n    /* \"#utility.yul\":5311:5315   */\n  0x7373000000000000000000000000000000000000000000000000000000000000\n    /* \"#utility.yul\":5306:5308   */\n  0x20\n    /* \"#utility.yul\":5298:5304   */\n  dup3\n    /* \"#utility.yul\":5294:5309   */\n  add\n    /* \"#utility.yul\":5287:5316   */\n  mstore\n    /* \"#utility.yul\":5102:5323   */\n  pop\n  jump\t// out\n    /* \"#utility.yul\":5329:5695   */\ntag_51:\n    /* \"#utility.yul\":5471:5474   */\n  0x00\n    /* \"#utility.yul\":5492:5559   */\n  tag_138\n    /* \"#utility.yul\":5556:5558   */\n  0x22\n    /* \"#utility.yul\":5551:5554   */\n  dup4\n    /* \"#utility.yul\":5492:5559   */\n  tag_49\n  jump\t// in\ntag_138:\n    /* \"#utility.yul\":5485:5559   */\n  swap2\n  pop\n    /* \"#utility.yul\":5568:5661   */\n  tag_139\n    /* \"#utility.yul\":5657:5660   */\n  dup3\n    /* \"#utility.yul\":5568:5661   */\n  tag_50\n  jump\t// in\ntag_139:\n    /* \"#utility.yul\":5686:5688   */\n  0x40\n    /* \"#utility.yul\":5681:5684   */\n  dup3\n    /* \"#utility.yul\":5677:5689   */\n  add\n    /* \"#utility.yul\":5670:5689   */\n  swap1\n  pop\n    /* \"#utility.yul\":5329:5695   */\n  swap2\n  swap1\n  pop\n  jump\t// out\n    /* \"#utility.yul\":5701:6120   */\ntag_8:\n    /* \"#utility.yul\":5867:5871   */\n  0x00\n    /* \"#utility.yul\":5905:5907   */\n  0x20\n    /* \"#utility.yul\":5894:5903   */\n  dup3\n    /* \"#utility.yul\":5890:5908   */\n  add\n    /* \"#utility.yul\":5882:5908   */\n  swap1\n  pop\n    /* \"#utility.yul\":5954:5963   */\n  dup2\n    /* \"#utility.yul\":5948:5952   */\n  dup2\n    /* \"#utility.yul\":5944:5964   */\n  sub\n    /* \"#utility.yul\":5940:5941   */\n  0x00\n    /* \"#utility.yul\":5929:5938   */\n  dup4\n    /* \"#utility.yul\":5925:5942   */\n  add\n    /* \"#utility.yul\":5918:5965   */\n  mstore\n    /* \"#utility.yul\":5982:6113   */\n  tag_141\n    /* \"#utility.yul\":6108:6112   */\n  dup2\n    /* \"#utility.yul\":5982:6113   */\n  tag_51\n  jump\t// in\ntag_141:\n    /* \"#utility.yul\":5974:6113   */\n  swap1\n  pop\n    /* \"#utility.yul\":5701:6120   */\n  swap2\n  swap1\n  pop\n  jump\t// out\n    /* \"#utility.yul\":6126:6225   */\ntag_52:\n    /* \"#utility.yul\":6178:6184   */\n  0x00\n    /* \"#utility.yul\":6212:6217   */\n  dup2\n    /* \"#utility.yul\":6206:6218   */\n  mload\n    /* \"#utility.yul\":6196:6218   */\n  swap1\n  pop\n    /* \"#utility.yul\":6126:6225   */\n  swap2\n  swap1\n  pop\n  jump\t// out\n    /* \"#utility.yul\":6231:6608   */\ntag_53:\n    /* \"#utility.yul\":6319:6322   */\n  0x00\n    /* \"#utility.yul\":6347:6386   */\n  tag_144\n    /* \"#utility.yul\":6380:6385   */\n  dup3\n    /* \"#utility.yul\":6347:6386   */\n  tag_52\n  jump\t// in\ntag_144:\n    /* \"#utility.yul\":6402:6473   */\n  tag_145\n    /* \"#utility.yul\":6466:6472   */\n  dup2\n    /* \"#utility.yul\":6461:6464   */\n  dup6\n    /* \"#utility.yul\":6402:6473   */\n  tag_49\n  jump\t// in\ntag_145:\n    /* \"#utility.yul\":6395:6473   */\n  swap4\n  pop\n    /* \"#utility.yul\":6482:6547   */\n  tag_146\n    /* \"#utility.yul\":6540:6546   */\n  dup2\n    /* \"#utility.yul\":6535:6538   */\n  dup6\n    /* \"#utility.yul\":6528:6532   */\n  0x20\n    /* \"#utility.yul\":6521:6526   */\n  dup7\n    /* \"#utility.yul\":6517:6533   */\n  add\n    /* \"#utility.yul\":6482:6547   */\n  tag_46\n  jump\t// in\ntag_146:\n    /* \"#utility.yul\":6572:6601   */\n  tag_147\n    /* \"#utility.yul\":6594:6600   */\n  dup2\n    /* \"#utility.yul\":6572:6601   */\n  tag_41\n  jump\t// in\ntag_147:\n    /* \"#utility.yul\":6567:6570   */\n  dup5\n    /* \"#utility.yul\":6563:6602   */\n  add\n    /* \"#utility.yul\":6556:6602   */\n  swap2\n  pop\n    /* \"#utility.yul\":6323:6608   */\n  pop\n    /* \"#utility.yul\":6231:6608   */\n  swap3\n  swap2\n  pop\n  pop\n  jump\t// out\n    /* \"#utility.yul\":6614:6927   */\ntag_10:\n    /* \"#utility.yul\":6727:6731   */\n  0x00\n    /* \"#utility.yul\":6765:6767   */\n  0x20\n    /* \"#utility.yul\":6754:6763   */\n  dup3\n    /* \"#utility.yul\":6750:6768   */\n  add\n    /* \"#utility.yul\":6742:6768   */\n  swap1\n  pop\n    /* \"#utility.yul\":6814:6823   */\n  dup2\n    /* \"#utility.yul\":6808:6812   */\n  dup2\n    /* \"#utility.yul\":6804:6824   */\n  sub\n    /* \"#utility.yul\":6800:6801   */\n  0x00\n    /* \"#utility.yul\":6789:6798   */\n  dup4\n    /* \"#utility.yul\":6785:6802   */\n  add\n    /* \"#utility.yul\":6778:6825   */\n  mstore\n    /* \"#utility.yul\":6842:6920   */\n  tag_149\n    /* \"#utility.yul\":6915:6919   */\n  dup2\n    /* \"#utility.yul\":6906:6912   */\n  dup5\n    /* \"#utility.yul\":6842:6920   */\n  tag_53\n  jump\t// in\ntag_149:\n    /* \"#utility.yul\":6834:6920   */\n  swap1\n  pop\n    /* \"#utility.yul\":6614:6927   */\n  swap3\n  swap2\n  pop\n  pop\n  jump\t// out\n    /* \"#utility.yul\":6933:7023   */\ntag_54:\n    /* \"#utility.yul\":6967:6974   */\n  0x00\n    /* \"#utility.yul\":7010:7015   */\n  dup2\n    /* \"#utility.yul\":7003:7016   */\n  iszero\n    /* \"#utility.yul\":6996:7017   */\n  iszero\n    /* \"#utility.yul\":6985:7017   */\n  swap1\n  pop\n    /* \"#utility.yul\":6933:7023   */\n  swap2\n  swap1\n  pop\n  jump\t// out\n    /* \"#utility.yul\":7029:7145   */\ntag_55:\n    /* \"#utility.yul\":7099:7120   */\n  tag_152\n    /* \"#utility.yul\":7114:7119   */\n  dup2\n    /* \"#utility.yul\":7099:7120   */\n  tag_54\n  jump\t// in\ntag_152:\n    /* \"#utility.yul\":7092:7097   */\n  dup2\n    /* \"#utility.yul\":7089:7121   */\n  eq\n    /* \"#utility.yul\":7079:7139   */\n  tag_153\n  jumpi\n    /* \"#utility.yul\":7135:7136   */\n  0x00\n    /* \"#utility.yul\":7132:7133   */\n  dup1\n    /* \"#utility.yul\":7125:7137   */\n  revert\n    /* \"#utility.yul\":7079:7139   */\ntag_153:\n    /* \"#utility.yul\":7029:7145   */\n  pop\n  jump\t// out\n    /* \"#utility.yul\":7151:7288   */\ntag_56:\n    /* \"#utility.yul\":7205:7210   */\n  0x00\n    /* \"#utility.yul\":7236:7242   */\n  dup2\n    /* \"#utility.yul\":7230:7243   */\n  mload\n    /* \"#utility.yul\":7221:7243   */\n  swap1\n  pop\n    /* \"#utility.yul\":7252:7282   */\n  tag_155\n    /* \"#utility.yul\":7276:7281   */\n  dup2\n    /* \"#utility.yul\":7252:7282   */\n  tag_55\n  jump\t// in\ntag_155:\n    /* \"#utility.yul\":7151:7288   */\n  swap3\n  swap2\n  pop\n  pop\n  jump\t// out\n    /* \"#utility.yul\":7294:7639   */\ntag_14:\n    /* \"#utility.yul\":7361:7367   */\n  0x00\n    /* \"#utility.yul\":7410:7412   */\n  0x20\n    /* \"#utility.yul\":7398:7407   */\n  dup3\n    /* \"#utility.yul\":7389:7396   */\n  dup5\n    /* \"#utility.yul\":7385:7408   */\n  sub\n    /* \"#utility.yul\":7381:7413   */\n  slt\n    /* \"#utility.yul\":7378:7497   */\n  iszero\n  tag_157\n  jumpi\n    /* \"#utility.yul\":7416:7495   */\n  tag_158\n  tag_30\n  jump\t// in\ntag_158:\n    /* \"#utility.yul\":7378:7497   */\ntag_157:\n    /* \"#utility.yul\":7536:7537   */\n  0x00\n    /* \"#utility.yul\":7561:7622   */\n  tag_159\n    /* \"#utility.yul\":7614:7621   */\n  dup5\n    /* \"#utility.yul\":7605:7611   */\n  dup3\n    /* \"#utility.yul\":7594:7603   */\n  dup6\n    /* \"#utility.yul\":7590:7612   */\n  add\n    /* \"#utility.yul\":7561:7622   */\n  tag_56\n  jump\t// in\ntag_159:\n    /* \"#utility.yul\":7551:7622   */\n  swap2\n  pop\n    /* \"#utility.yul\":7507:7632   */\n  pop\n    /* \"#utility.yul\":7294:7639   */\n  swap3\n  swap2\n  pop\n  pop\n  jump\t// out\n    /* \"#utility.yul\":7645:7825   */\ntag_57:\n    /* \"#utility.yul\":7785:7817   */\n  0x496e76616c696420706179657220636f756e7472792049534f20636f64650000\n    /* \"#utility.yul\":7781:7782   */\n  0x00\n    /* \"#utility.yul\":7773:7779   */\n  dup3\n    /* \"#utility.yul\":7769:7783   */\n  add\n    /* \"#utility.yul\":7762:7818   */\n  mstore\n    /* \"#utility.yul\":7645:7825   */\n  pop\n  jump\t// out\n    /* \"#utility.yul\":7831:8197   */\ntag_58:\n    /* \"#utility.yul\":7973:7976   */\n  0x00\n    /* \"#utility.yul\":7994:8061   */\n  tag_162\n    /* \"#utility.yul\":8058:8060   */\n  0x1e\n    /* \"#utility.yul\":8053:8056   */\n  dup4\n    /* \"#utility.yul\":7994:8061   */\n  tag_49\n  jump\t// in\ntag_162:\n    /* \"#utility.yul\":7987:8061   */\n  swap2\n  pop\n    /* \"#utility.yul\":8070:8163   */\n  tag_163\n    /* \"#utility.yul\":8159:8162   */\n  dup3\n    /* \"#utility.yul\":8070:8163   */\n  tag_57\n  jump\t// in\ntag_163:\n    /* \"#utility.yul\":8188:8190   */\n  0x20\n    /* \"#utility.yul\":8183:8186   */\n  dup3\n    /* \"#utility.yul\":8179:8191   */\n  add\n    /* \"#utility.yul\":8172:8191   */\n  swap1\n  pop\n    /* \"#utility.yul\":7831:8197   */\n  swap2\n  swap1\n  pop\n  jump\t// out\n    /* \"#utility.yul\":8203:8622   */\ntag_17:\n    /* \"#utility.yul\":8369:8373   */\n  0x00\n    /* \"#utility.yul\":8407:8409   */\n  0x20\n    /* \"#utility.yul\":8396:8405   */\n  dup3\n    /* \"#utility.yul\":8392:8410   */\n  add\n    /* \"#utility.yul\":8384:8410   */\n  swap1\n  pop\n    /* \"#utility.yul\":8456:8465   */\n  dup2\n    /* \"#utility.yul\":8450:8454   */\n  dup2\n    /* \"#utility.yul\":8446:8466   */\n  sub\n    /* \"#utility.yul\":8442:8443   */\n  0x00\n    /* \"#utility.yul\":8431:8440   */\n  dup4\n    /* \"#utility.yul\":8427:8444   */\n  add\n    /* \"#utility.yul\":8420:8467   */\n  mstore\n    /* \"#utility.yul\":8484:8615   */\n  tag_165\n    /* \"#utility.yul\":8610:8614   */\n  dup2\n    /* \"#utility.yul\":8484:8615   */\n  tag_58\n  jump\t// in\ntag_165:\n    /* \"#utility.yul\":8476:8615   */\n  swap1\n  pop\n    /* \"#utility.yul\":8203:8622   */\n  swap2\n  swap1\n  pop\n  jump\t// out\n    /* \"#utility.yul\":8628:8849   */\ntag_59:\n    /* \"#utility.yul\":8768:8802   */\n  0x496e76616c696420726563697069656e7420636f756e7472792049534f20636f\n    /* \"#utility.yul\":8764:8765   */\n  0x00\n    /* \"#utility.yul\":8756:8762   */\n  dup3\n    /* \"#utility.yul\":8752:8766   */\n  add\n    /* \"#utility.yul\":8745:8803   */\n  mstore\n    /* \"#utility.yul\":8837:8841   */\n  0x6465000000000000000000000000000000000000000000000000000000000000\n    /* \"#utility.yul\":8832:8834   */\n  0x20\n    /* \"#utility.yul\":8824:8830   */\n  dup3\n    /* \"#utility.yul\":8820:8835   */\n  add\n    /* \"#utility.yul\":8813:8842   */\n  mstore\n    /* \"#utility.yul\":8628:8849   */\n  pop\n  jump\t// out\n    /* \"#utility.yul\":8855:9221   */\ntag_60:\n    /* \"#utility.yul\":8997:9000   */\n  0x00\n    /* \"#utility.yul\":9018:9085   */\n  tag_168\n    /* \"#utility.yul\":9082:9084   */\n  0x22\n    /* \"#utility.yul\":9077:9080   */\n  dup4\n    /* \"#utility.yul\":9018:9085   */\n  tag_49\n  jump\t// in\ntag_168:\n    /* \"#utility.yul\":9011:9085   */\n  swap2\n  pop\n    /* \"#utility.yul\":9094:9187   */\n  tag_169\n    /* \"#utility.yul\":9183:9186   */\n  dup3\n    /* \"#utility.yul\":9094:9187   */\n  tag_59\n  jump\t// in\ntag_169:\n    /* \"#utility.yul\":9212:9214   */\n  0x40\n    /* \"#utility.yul\":9207:9210   */\n  dup3\n    /* \"#utility.yul\":9203:9215   */\n  add\n    /* \"#utility.yul\":9196:9215   */\n  swap1\n  pop\n    /* \"#utility.yul\":8855:9221   */\n  swap2\n  swap1\n  pop\n  jump\t// out\n    /* \"#utility.yul\":9227:9646   */\ntag_24:\n    /* \"#utility.yul\":9393:9397   */\n  0x00\n    /* \"#utility.yul\":9431:9433   */\n  0x20\n    /* \"#utility.yul\":9420:9429   */\n  dup3\n    /* \"#utility.yul\":9416:9434   */\n  add\n    /* \"#utility.yul\":9408:9434   */\n  swap1\n  pop\n    /* \"#utility.yul\":9480:9489   */\n  dup2\n    /* \"#utility.yul\":9474:9478   */\n  dup2\n    /* \"#utility.yul\":9470:9490   */\n  sub\n    /* \"#utility.yul\":9466:9467   */\n  0x00\n    /* \"#utility.yul\":9455:9464   */\n  dup4\n    /* \"#utility.yul\":9451:9468   */\n  add\n    /* \"#utility.yul\":9444:9491   */\n  mstore\n    /* \"#utility.yul\":9508:9639   */\n  tag_171\n    /* \"#utility.yul\":9634:9638   */\n  dup2\n    /* \"#utility.yul\":9508:9639   */\n  tag_60\n  jump\t// in\ntag_171:\n    /* \"#utility.yul\":9500:9639   */\n  swap1\n  pop\n    /* \"#utility.yul\":9227:9646   */\n  swap2\n  swap1\n  pop\n  jump\t// out\n    /* \"#utility.yul\":9652:9832   */\ntag_61:\n    /* \"#utility.yul\":9700:9777   */\n  0x4e487b7100000000000000000000000000000000000000000000000000000000\n    /* \"#utility.yul\":9697:9698   */\n  0x00\n    /* \"#utility.yul\":9690:9778   */\n  mstore\n    /* \"#utility.yul\":9797:9801   */\n  0x22\n    /* \"#utility.yul\":9794:9795   */\n  0x04\n    /* \"#utility.yul\":9787:9802   */\n  mstore\n    /* \"#utility.yul\":9821:9825   */\n  0x24\n    /* \"#utility.yul\":9818:9819   */\n  0x00\n    /* \"#utility.yul\":9811:9826   */\n  revert\n    /* \"#utility.yul\":9838:10158   */\ntag_62:\n    /* \"#utility.yul\":9882:9888   */\n  0x00\n    /* \"#utility.yul\":9919:9920   */\n  0x02\n    /* \"#utility.yul\":9913:9917   */\n  dup3\n    /* \"#utility.yul\":9909:9921   */\n  div\n    /* \"#utility.yul\":9899:9921   */\n  swap1\n  pop\n    /* \"#utility.yul\":9966:9967   */\n  0x01\n    /* \"#utility.yul\":9960:9964   */\n  dup3\n    /* \"#utility.yul\":9956:9968   */\n  and\n    /* \"#utility.yul\":9987:10005   */\n  dup1\n    /* \"#utility.yul\":9977:10058   */\n  tag_174\n  jumpi\n    /* \"#utility.yul\":10043:10047   */\n  0x7f\n    /* \"#utility.yul\":10035:10041   */\n  dup3\n    /* \"#utility.yul\":10031:10048   */\n  and\n    /* \"#utility.yul\":10021:10048   */\n  swap2\n  pop\n    /* \"#utility.yul\":9977:10058   */\ntag_174:\n    /* \"#utility.yul\":10105:10107   */\n  0x20\n    /* \"#utility.yul\":10097:10103   */\n  dup3\n    /* \"#utility.yul\":10094:10108   */\n  lt\n    /* \"#utility.yul\":10074:10092   */\n  dup2\n    /* \"#utility.yul\":10071:10109   */\n  sub\n    /* \"#utility.yul\":10068:10152   */\n  tag_175\n  jumpi\n    /* \"#utility.yul\":10124:10142   */\n  tag_176\n  tag_61\n  jump\t// in\ntag_176:\n    /* \"#utility.yul\":10068:10152   */\ntag_175:\n    /* \"#utility.yul\":9889:10158   */\n  pop\n    /* \"#utility.yul\":9838:10158   */\n  swap2\n  swap1\n  pop\n  jump\t// out\n    /* \"#utility.yul\":10164:10305   */\ntag_63:\n    /* \"#utility.yul\":10213:10217   */\n  0x00\n    /* \"#utility.yul\":10236:10239   */\n  dup2\n    /* \"#utility.yul\":10228:10239   */\n  swap1\n  pop\n    /* \"#utility.yul\":10259:10262   */\n  dup2\n    /* \"#utility.yul\":10256:10257   */\n  0x00\n    /* \"#utility.yul\":10249:10263   */\n  mstore\n    /* \"#utility.yul\":10293:10297   */\n  0x20\n    /* \"#utility.yul\":10290:10291   */\n  0x00\n    /* \"#utility.yul\":10280:10298   */\n  keccak256\n    /* \"#utility.yul\":10272:10298   */\n  swap1\n  pop\n    /* \"#utility.yul\":10164:10305   */\n  swap2\n  swap1\n  pop\n  jump\t// out\n    /* \"#utility.yul\":10311:10404   */\ntag_64:\n    /* \"#utility.yul\":10348:10354   */\n  0x00\n    /* \"#utility.yul\":10395:10397   */\n  0x20\n    /* \"#utility.yul\":10390:10392   */\n  0x1f\n    /* \"#utility.yul\":10383:10388   */\n  dup4\n    /* \"#utility.yul\":10379:10393   */\n  add\n    /* \"#utility.yul\":10375:10398   */\n  div\n    /* \"#utility.yul\":10365:10398   */\n  swap1\n  pop\n    /* \"#utility.yul\":10311:10404   */\n  swap2\n  swap1\n  pop\n  jump\t// out\n    /* \"#utility.yul\":10410:10517   */\ntag_65:\n    /* \"#utility.yul\":10454:10462   */\n  0x00\n    /* \"#utility.yul\":10504:10509   */\n  dup3\n    /* \"#utility.yul\":10498:10502   */\n  dup3\n    /* \"#utility.yul\":10494:10510   */\n  shl\n    /* \"#utility.yul\":10473:10510   */\n  swap1\n  pop\n    /* \"#utility.yul\":10410:10517   */\n  swap3\n  swap2\n  pop\n  pop\n  jump\t// out\n    /* \"#utility.yul\":10523:10916   */\ntag_66:\n    /* \"#utility.yul\":10592:10598   */\n  0x00\n    /* \"#utility.yul\":10642:10643   */\n  0x08\n    /* \"#utility.yul\":10630:10640   */\n  dup4\n    /* \"#utility.yul\":10626:10644   */\n  mul\n    /* \"#utility.yul\":10665:10762   */\n  tag_181\n    /* \"#utility.yul\":10695:10761   */\n  0xffffffffffffffffffffffffffffffffffffffffffffffffffffffffffffffff\n    /* \"#utility.yul\":10684:10693   */\n  dup3\n    /* \"#utility.yul\":10665:10762   */\n  tag_65\n  jump\t// in\ntag_181:\n    /* \"#utility.yul\":10783:10822   */\n  tag_182\n    /* \"#utility.yul\":10813:10821   */\n  dup7\n    /* \"#utility.yul\":10802:10811   */\n  dup4\n    /* \"#utility.yul\":10783:10822   */\n  tag_65\n  jump\t// in\ntag_182:\n    /* \"#utility.yul\":10771:10822   */\n  swap6\n  pop\n    /* \"#utility.yul\":10855:10859   */\n  dup1\n    /* \"#utility.yul\":10851:10860   */\n  not\n    /* \"#utility.yul\":10844:10849   */\n  dup5\n    /* \"#utility.yul\":10840:10861   */\n  and\n    /* \"#utility.yul\":10831:10861   */\n  swap4\n  pop\n    /* \"#utility.yul\":10904:10908   */\n  dup1\n    /* \"#utility.yul\":10894:10902   */\n  dup7\n    /* \"#utility.yul\":10890:10909   */\n  and\n    /* \"#utility.yul\":10883:10888   */\n  dup5\n    /* \"#utility.yul\":10880:10910   */\n  or\n    /* \"#utility.yul\":10870:10910   */\n  swap3\n  pop\n    /* \"#utility.yul\":10599:10916   */\n  pop\n  pop\n    /* \"#utility.yul\":10523:10916   */\n  swap4\n  swap3\n  pop\n  pop\n  pop\n  jump\t// out\n    /* \"#utility.yul\":10922:10982   */\ntag_67:\n    /* \"#utility.yul\":10950:10953   */\n  0x00\n    /* \"#utility.yul\":10971:10976   */\n  dup2\n    /* \"#utility.yul\":10964:10976   */\n  swap1\n  pop\n    /* \"#utility.yul\":10922:10982   */\n  swap2\n  swap1\n  pop\n  jump\t// out\n    /* \"#utility.yul\":10988:11130   */\ntag_68:\n    /* \"#utility.yul\":11038:11047   */\n  0x00\n    /* \"#utility.yul\":11071:11124   */\n  tag_185\n    /* \"#utility.yul\":11089:11123   */\n  tag_186\n    /* \"#utility.yul\":11098:11122   */\n  tag_187\n    /* \"#utility.yul\":11116:11121   */\n  dup5\n    /* \"#utility.yul\":11098:11122   */\n  tag_36\n  jump\t// in\ntag_187:\n    /* \"#utility.yul\":11089:11123   */\n  tag_67\n  jump\t// in\ntag_186:\n    /* \"#utility.yul\":11071:11124   */\n  tag_36\n  jump\t// in\ntag_185:\n    /* \"#utility.yul\":11058:11124   */\n  swap1\n  pop\n    /* \"#utility.yul\":10988:11130   */\n  swap2\n  swap1\n  pop\n  jump\t// out\n    /* \"#utility.yul\":11136:11211   */\ntag_69:\n    /* \"#utility.yul\":11179:11182   */\n  0x00\n    /* \"#utility.yul\":11200:11205   */\n  dup2\n    /* \"#utility.yul\":11193:11205   */\n  swap1\n  pop\n    /* \"#utility.yul\":11136:11211   */\n  swap2\n  swap1\n  pop\n  jump\t// out\n    /* \"#utility.yul\":11217:11486   */\ntag_70:\n    /* \"#utility.yul\":11327:11366   */\n  tag_190\n    /* \"#utility.yul\":11358:11365   */\n  dup4\n    /* \"#utility.yul\":11327:11366   */\n  tag_68\n  jump\t// in\ntag_190:\n    /* \"#utility.yul\":11388:11479   */\n  tag_191\n    /* \"#utility.yul\":11437:11478   */\n  tag_192\n    /* \"#utility.yul\":11461:11477   */\n  dup3\n    /* \"#utility.yul\":11437:11478   */\n  tag_69\n  jump\t// in\ntag_192:\n    /* \"#utility.yul\":11429:11435   */\n  dup5\n    /* \"#utility.yul\":11422:11426   */\n  dup5\n    /* \"#utility.yul\":11416:11427   */\n  sload\n    /* \"#utility.yul\":11388:11479   */\n  tag_66\n  jump\t// in\ntag_191:\n    /* \"#utility.yul\":11382:11386   */\n  dup3\n    /* \"#utility.yul\":11375:11480   */\n  sstore\n    /* \"#utility.yul\":11293:11486   */\n  pop\n    /* \"#utility.yul\":11217:11486   */\n  pop\n  pop\n  pop\n  jump\t// out\n    /* \"#utility.yul\":11492:11565   */\ntag_71:\n    /* \"#utility.yul\":11537:11540   */\n  0x00\n    /* \"#utility.yul\":11492:11565   */\n  swap1\n  jump\t// out\n    /* \"#utility.yul\":11571:11760   */\ntag_72:\n    /* \"#utility.yul\":11648:11680   */\n  tag_195\n  tag_71\n  jump\t// in\ntag_195:\n    /* \"#utility.yul\":11689:11754   */\n  tag_196\n    /* \"#utility.yul\":11747:11753   */\n  dup2\n    /* \"#utility.yul\":11739:11745   */\n  dup5\n    /* \"#utility.yul\":11733:11737   */\n  dup5\n    /* \"#utility.yul\":11689:11754   */\n  tag_70\n  jump\t// in\ntag_196:\n    /* \"#utility.yul\":11624:11760   */\n  pop\n    /* \"#utility.yul\":11571:11760   */\n  pop\n  pop\n  jump\t// out\n    /* \"#utility.yul\":11766:11952   */\ntag_73:\n    /* \"#utility.yul\":11826:11946   */\ntag_198:\n    /* \"#utility.yul\":11843:11846   */\n  dup2\n    /* \"#utility.yul\":11836:11841   */\n  dup2\n    /* \"#utility.yul\":11833:11847   */\n  lt\n    /* \"#utility.yul\":11826:11946   */\n  iszero\n  tag_200\n  jumpi\n    /* \"#utility.yul\":11897:11936   */\n  tag_201\n    /* \"#utility.yul\":11934:11935   */\n  0x00\n    /* \"#utility.yul\":11927:11932   */\n  dup3\n    /* \"#utility.yul\":11897:11936   */\n  tag_72\n  jump\t// in\ntag_201:\n    /* \"#utility.yul\":11870:11871   */\n  0x01\n    /* \"#utility.yul\":11863:11868   */\n  dup2\n    /* \"#utility.yul\":11859:11872   */\n  add\n    /* \"#utility.yul\":11850:11872   */\n  swap1\n  pop\n    /* \"#utility.yul\":11826:11946   */\n  jump(tag_198)\ntag_200:\n    /* \"#utility.yul\":11766:11952   */\n  pop\n  pop\n  jump\t// out\n    /* \"#utility.yul\":11958:12501   */\ntag_74:\n    /* \"#utility.yul\":12059:12061   */\n  0x1f\n    /* \"#utility.yul\":12054:12057   */\n  dup3\n    /* \"#utility.yul\":12051:12062   */\n  gt\n    /* \"#utility.yul\":12048:12494   */\n  iszero\n  tag_203\n  jumpi\n    /* \"#utility.yul\":12093:12131   */\n  tag_204\n    /* \"#utility.yul\":12125:12130   */\n  dup2\n    /* \"#utility.yul\":12093:12131   */\n  tag_63\n  jump\t// in\ntag_204:\n    /* \"#utility.yul\":12177:12206   */\n  tag_205\n    /* \"#utility.yul\":12195:12205   */\n  dup5\n    /* \"#utility.yul\":12177:12206   */\n  tag_64\n  jump\t// in\ntag_205:\n    /* \"#utility.yul\":12167:12175   */\n  dup2\n    /* \"#utility.yul\":12163:12207   */\n  add\n    /* \"#utility.yul\":12360:12362   */\n  0x20\n    /* \"#utility.yul\":12348:12358   */\n  dup6\n    /* \"#utility.yul\":12345:12363   */\n  lt\n    /* \"#utility.yul\":12342:12391   */\n  iszero\n  tag_206\n  jumpi\n    /* \"#utility.yul\":12381:12389   */\n  dup2\n    /* \"#utility.yul\":12366:12389   */\n  swap1\n  pop\n    /* \"#utility.yul\":12342:12391   */\ntag_206:\n    /* \"#utility.yul\":12404:12484   */\n  tag_207\n    /* \"#utility.yul\":12460:12482   */\n  tag_208\n    /* \"#utility.yul\":12478:12481   */\n  dup6\n    /* \"#utility.yul\":12460:12482   */\n  tag_64\n  jump\t// in\ntag_208:\n    /* \"#utility.yul\":12450:12458   */\n  dup4\n    /* \"#utility.yul\":12446:12483   */\n  add\n    /* \"#utility.yul\":12433:12444   */\n  dup3\n    /* \"#utility.yul\":12404:12484   */\n  tag_73\n  jump\t// in\ntag_207:\n    /* \"#utility.yul\":12063:12494   */\n  pop\n  pop\n    /* \"#utility.yul\":12048:12494   */\ntag_203:\n    /* \"#utility.yul\":11958:12501   */\n  pop\n  pop\n  pop\n  jump\t// out\n    /* \"#utility.yul\":12507:12624   */\ntag_75:\n    /* \"#utility.yul\":12561:12569   */\n  0x00\n    /* \"#utility.yul\":12611:12616   */\n  dup3\n    /* \"#utility.yul\":12605:12609   */\n  dup3\n    /* \"#utility.yul\":12601:12617   */\n  shr\n    /* \"#utility.yul\":12580:12617   */\n  swap1\n  pop\n    /* \"#utility.yul\":12507:12624   */\n  swap3\n  swap2\n  pop\n  pop\n  jump\t// out\n    /* \"#utility.yul\":12630:12799   */\ntag_76:\n    /* \"#utility.yul\":12674:12680   */\n  0x00\n    /* \"#utility.yul\":12707:12758   */\n  tag_211\n    /* \"#utility.yul\":12755:12756   */\n  0x00\n    /* \"#utility.yul\":12751:12757   */\n  not\n    /* \"#utility.yul\":12743:12748   */\n  dup5\n    /* \"#utility.yul\":12740:12741   */\n  0x08\n    /* \"#utility.yul\":12736:12749   */\n  mul\n    /* \"#utility.yul\":12707:12758   */\n  tag_75\n  jump\t// in\ntag_211:\n    /* \"#utility.yul\":12703:12759   */\n  not\n    /* \"#utility.yul\":12788:12792   */\n  dup1\n    /* \"#utility.yul\":12782:12786   */\n  dup4\n    /* \"#utility.yul\":12778:12793   */\n  and\n    /* \"#utility.yul\":12768:12793   */\n  swap2\n  pop\n    /* \"#utility.yul\":12681:12799   */\n  pop\n    /* \"#utility.yul\":12630:12799   */\n  swap3\n  swap2\n  pop\n  pop\n  jump\t// out\n    /* \"#utility.yul\":12804:13099   */\ntag_77:\n    /* \"#utility.yul\":12880:12884   */\n  0x00\n    /* \"#utility.yul\":13026:13055   */\n  tag_213\n    /* \"#utility.yul\":13051:13054   */\n  dup4\n    /* \"#utility.yul\":13045:13049   */\n  dup4\n    /* \"#utility.yul\":13026:13055   */\n  tag_76\n  jump\t// in\ntag_213:\n    /* \"#utility.yul\":13018:13055   */\n  swap2\n  pop\n    /* \"#utility.yul\":13088:13091   */\n  dup3\n    /* \"#utility.yul\":13085:13086   */\n  0x02\n    /* \"#utility.yul\":13081:13092   */\n  mul\n    /* \"#utility.yul\":13075:13079   */\n  dup3\n    /* \"#utility.yul\":13072:13093   */\n  or\n    /* \"#utility.yul\":13064:13093   */\n  swap1\n  pop\n    /* \"#utility.yul\":12804:13099   */\n  swap3\n  swap2\n  pop\n  pop\n  jump\t// out\n    /* \"#utility.yul\":13104:14499   */\ntag_26:\n    /* \"#utility.yul\":13221:13258   */\n  tag_215\n    /* \"#utility.yul\":13254:13257   */\n  dup3\n    /* \"#utility.yul\":13221:13258   */\n  tag_52\n  jump\t// in\ntag_215:\n    /* \"#utility.yul\":13323:13341   */\n  0xffffffffffffffff\n    /* \"#utility.yul\":13315:13321   */\n  dup2\n    /* \"#utility.yul\":13312:13342   */\n  gt\n    /* \"#utility.yul\":13309:13365   */\n  iszero\n  tag_216\n  jumpi\n    /* \"#utility.yul\":13345:13363   */\n  tag_217\n  tag_42\n  jump\t// in\ntag_217:\n    /* \"#utility.yul\":13309:13365   */\ntag_216:\n    /* \"#utility.yul\":13389:13427   */\n  tag_218\n    /* \"#utility.yul\":13421:13425   */\n  dup3\n    /* \"#utility.yul\":13415:13426   */\n  sload\n    /* \"#utility.yul\":13389:13427   */\n  tag_62\n  jump\t// in\ntag_218:\n    /* \"#utility.yul\":13474:13541   */\n  tag_219\n    /* \"#utility.yul\":13534:13540   */\n  dup3\n    /* \"#utility.yul\":13526:13532   */\n  dup3\n    /* \"#utility.yul\":13520:13524   */\n  dup6\n    /* \"#utility.yul\":13474:13541   */\n  tag_74\n  jump\t// in\ntag_219:\n    /* \"#utility.yul\":13568:13569   */\n  0x00\n    /* \"#utility.yul\":13592:13596   */\n  0x20\n    /* \"#utility.yul\":13579:13596   */\n  swap1\n  pop\n    /* \"#utility.yul\":13624:13626   */\n  0x1f\n    /* \"#utility.yul\":13616:13622   */\n  dup4\n    /* \"#utility.yul\":13613:13627   */\n  gt\n    /* \"#utility.yul\":13641:13642   */\n  0x01\n    /* \"#utility.yul\":13636:14254   */\n  dup2\n  eq\n  tag_221\n  jumpi\n    /* \"#utility.yul\":14298:14299   */\n  0x00\n    /* \"#utility.yul\":14315:14321   */\n  dup5\n    /* \"#utility.yul\":14312:14389   */\n  iszero\n  tag_222\n  jumpi\n    /* \"#utility.yul\":14364:14373   */\n  dup3\n    /* \"#utility.yul\":14359:14362   */\n  dup8\n    /* \"#utility.yul\":14355:14374   */\n  add\n    /* \"#utility.yul\":14349:14375   */\n  mload\n    /* \"#utility.yul\":14340:14375   */\n  swap1\n  pop\n    /* \"#utility.yul\":14312:14389   */\ntag_222:\n    /* \"#utility.yul\":14415:14482   */\n  tag_223\n    /* \"#utility.yul\":14475:14481   */\n  dup6\n    /* \"#utility.yul\":14468:14473   */\n  dup3\n    /* \"#utility.yul\":14415:14482   */\n  tag_77\n  jump\t// in\ntag_223:\n    /* \"#utility.yul\":14409:14413   */\n  dup7\n    /* \"#utility.yul\":14402:14483   */\n  sstore\n    /* \"#utility.yul\":14271:14493   */\n  pop\n    /* \"#utility.yul\":13606:14493   */\n  jump(tag_220)\n    /* \"#utility.yul\":13636:14254   */\ntag_221:\n    /* \"#utility.yul\":13688:13692   */\n  0x1f\n    /* \"#utility.yul\":13684:13693   */\n  not\n    /* \"#utility.yul\":13676:13682   */\n  dup5\n    /* \"#utility.yul\":13672:13694   */\n  and\n    /* \"#utility.yul\":13722:13759   */\n  tag_224\n    /* \"#utility.yul\":13754:13758   */\n  dup7\n    /* \"#utility.yul\":13722:13759   */\n  tag_63\n  jump\t// in\ntag_224:\n    /* \"#utility.yul\":13781:13782   */\n  0x00\n    /* \"#utility.yul\":13795:14003   */\ntag_225:\n    /* \"#utility.yul\":13809:13816   */\n  dup3\n    /* \"#utility.yul\":13806:13807   */\n  dup2\n    /* \"#utility.yul\":13803:13817   */\n  lt\n    /* \"#utility.yul\":13795:14003   */\n  iszero\n  tag_227\n  jumpi\n    /* \"#utility.yul\":13888:13897   */\n  dup5\n    /* \"#utility.yul\":13883:13886   */\n  dup10\n    /* \"#utility.yul\":13879:13898   */\n  add\n    /* \"#utility.yul\":13873:13899   */\n  mload\n    /* \"#utility.yul\":13865:13871   */\n  dup3\n    /* \"#utility.yul\":13858:13900   */\n  sstore\n    /* \"#utility.yul\":13939:13940   */\n  0x01\n    /* \"#utility.yul\":13931:13937   */\n  dup3\n    /* \"#utility.yul\":13927:13941   */\n  add\n    /* \"#utility.yul\":13917:13941   */\n  swap2\n  pop\n    /* \"#utility.yul\":13986:13988   */\n  0x20\n    /* \"#utility.yul\":13975:13984   */\n  dup6\n    /* \"#utility.yul\":13971:13989   */\n  add\n    /* \"#utility.yul\":13958:13989   */\n  swap5\n  pop\n    /* \"#utility.yul\":13832:13836   */\n  0x20\n    /* \"#utility.yul\":13829:13830   */\n  dup2\n    /* \"#utility.yul\":13825:13837   */\n  add\n    /* \"#utility.yul\":13820:13837   */\n  swap1\n  pop\n    /* \"#utility.yul\":13795:14003   */\n  jump(tag_225)\ntag_227:\n    /* \"#utility.yul\":14031:14037   */\n  dup7\n    /* \"#utility.yul\":14022:14029   */\n  dup4\n    /* \"#utility.yul\":14019:14038   */\n  lt\n    /* \"#utility.yul\":14016:14195   */\n  iszero\n  tag_228\n  jumpi\n    /* \"#utility.yul\":14089:14098   */\n  dup5\n    /* \"#utility.yul\":14084:14087   */\n  dup10\n    /* \"#utility.yul\":14080:14099   */\n  add\n    /* \"#utility.yul\":14074:14100   */\n  mload\n    /* \"#utility.yul\":14132:14180   */\n  tag_229\n    /* \"#utility.yul\":14174:14178   */\n  0x1f\n    /* \"#utility.yul\":14166:14172   */\n  dup10\n    /* \"#utility.yul\":14162:14179   */\n  and\n    /* \"#utility.yul\":14151:14160   */\n  dup3\n    /* \"#utility.yul\":14132:14180   */\n  tag_76\n  jump\t// in\ntag_229:\n    /* \"#utility.yul\":14124:14130   */\n  dup4\n    /* \"#utility.yul\":14117:14181   */\n  sstore\n    /* \"#utility.yul\":14039:14195   */\n  pop\n    /* \"#utility.yul\":14016:14195   */\ntag_228:\n    /* \"#utility.yul\":14241:14242   */\n  0x01\n    /* \"#utility.yul\":14237:14238   */\n  0x02\n    /* \"#utility.yul\":14229:14235   */\n  dup9\n    /* \"#utility.yul\":14225:14239   */\n  mul\n    /* \"#utility.yul\":14221:14243   */\n  add\n    /* \"#utility.yul\":14215:14219   */\n  dup9\n    /* \"#utility.yul\":14208:14244   */\n  sstore\n    /* \"#utility.yul\":13643:14254   */\n  pop\n  pop\n  pop\n    /* \"#utility.yul\":13606:14493   */\ntag_220:\n  pop\n    /* \"#utility.yul\":13196:14499   */\n  pop\n  pop\n  pop\n    /* \"#utility.yul\":13104:14499   */\n  pop\n  pop\n  jump\t// out\n    /* \"Contracts/Payment.sol\":202:1672  contract Payment {... */\ntag_28:\n  dataSize(sub_0)\n  dup1\n  dataOffset(sub_0)\n  0x00\n  codecopy\n  0x00\n  return\nstop\n\nsub_0: assembly {\n        /* \"Contracts/Payment.sol\":202:1672  contract Payment {... */\n      mstore(0x40, 0x80)\n      jumpi(tag_1, lt(calldatasize, 0x04))\n      shr(0xe0, calldataload(0x00))\n      dup1\n      0xaa8c217c\n      gt\n      tag_10\n      jumpi\n      dup1\n      0xaa8c217c\n      eq\n      tag_6\n      jumpi\n      dup1\n      0xb220ff91\n      eq\n      tag_7\n      jumpi\n      dup1\n      0xd321fe29\n      eq\n      tag_8\n      jumpi\n      dup1\n      0xe76800e5\n      eq\n      tag_9\n      jumpi\n      jump(tag_1)\n    tag_10:\n      dup1\n      0x123119cd\n      eq\n      tag_2\n      jumpi\n      dup1\n      0x1b9265b8\n      eq\n      tag_3\n      jumpi\n      dup1\n      0x214ad5f1\n      eq\n      tag_4\n      jumpi\n      dup1\n      0x66d003ac\n      eq\n      tag_5\n      jumpi\n    tag_1:\n      0x00\n      dup1\n      revert\n        /* \"Contracts/Payment.sol\":260:280  address public payer */\n    tag_2:\n      callvalue\n      dup1\n      iszero\n      tag_11\n      jumpi\n      0x00\n      dup1\n      revert\n    tag_11:\n      pop\n      tag_12\n      tag_13\n      jump\t// in\n    tag_12:\n      mload(0x40)\n      tag_14\n      swap2\n      swap1\n      tag_15\n      jump\t// in\n    tag_14:\n      mload(0x40)\n      dup1\n      swap2\n      sub\n      swap1\n      return\n        /* \"Contracts/Payment.sol\":1308:1583  function pay() external payable {... */\n    tag_3:\n      tag_16\n      tag_17\n      jump\t// in\n    tag_16:\n      stop\n        /* \"Contracts/Payment.sol\":412:442  string public recipientCountry */\n    tag_4:\n      callvalue\n      dup1\n      iszero\n      tag_18\n      jumpi\n      0x00\n      dup1\n      revert\n    tag_18:\n      pop\n      tag_19\n      tag_20\n      jump\t// in\n    tag_19:\n      mload(0x40)\n      tag_21\n      swap2\n      swap1\n      tag_22\n      jump\t// in\n    tag_21:\n      mload(0x40)\n      dup1\n      swap2\n      sub\n      swap1\n      return\n        /* \"Contracts/Payment.sol\":286:310  address public recipient */\n    tag_5:\n      callvalue\n      dup1\n      iszero\n      tag_23\n      jumpi\n      0x00\n      dup1\n      revert\n    tag_23:\n      pop\n      tag_24\n      tag_25\n      jump\t// in\n    tag_24:\n      mload(0x40)\n      tag_26\n      swap2\n      swap1\n      tag_15\n      jump\t// in\n    tag_26:\n      mload(0x40)\n      dup1\n      swap2\n      sub\n      swap1\n      return\n        /* \"Contracts/Payment.sol\":316:337  uint256 public amount */\n    tag_6:\n      callvalue\n      dup1\n      iszero\n      tag_27\n      jumpi\n      0x00\n      dup1\n      revert\n    tag_27:\n      pop\n      tag_28\n      tag_29\n      jump\t// in\n    tag_28:\n      mload(0x40)\n      tag_30\n      swap2\n      swap1\n      tag_31\n      jump\t// in\n    tag_30:\n      mload(0x40)\n      dup1\n      swap2\n      sub\n      swap1\n      return\n        /* \"Contracts/Payment.sol\":490:522  address public countriesContract */\n    tag_7:\n      callvalue\n      dup1\n      iszero\n      tag_32\n      jumpi\n      0x00\n      dup1\n      revert\n    tag_32:\n      pop\n      tag_33\n      tag_34\n      jump\t// in\n    tag_33:\n      mload(0x40)\n      tag_35\n      swap2\n      swap1\n      tag_15\n      jump\t// in\n    tag_35:\n      mload(0x40)\n      dup1\n      swap2\n      sub\n      swap1\n      return\n        /* \"Contracts/Payment.sol\":1589:1669  function getAmount() public view returns(uint256) {... */\n    tag_8:\n      callvalue\n      dup1\n      iszero\n      tag_36\n      jumpi\n      0x00\n      dup1\n      revert\n    tag_36:\n      pop\n      tag_37\n      tag_38\n      jump\t// in\n    tag_37:\n      mload(0x40)\n      tag_39\n      swap2\n      swap1\n      tag_31\n      jump\t// in\n    tag_39:\n      mload(0x40)\n      dup1\n      swap2\n      sub\n      swap1\n      return\n        /* \"Contracts/Payment.sol\":380:406  string public payerCountry */\n    tag_9:\n      callvalue\n      dup1\n      iszero\n      tag_40\n      jumpi\n      0x00\n      dup1\n      revert\n    tag_40:\n      pop\n      tag_41\n      tag_42\n      jump\t// in\n    tag_41:\n      mload(0x40)\n      tag_43\n      swap2\n      swap1\n      tag_22\n      jump\t// in\n    tag_43:\n      mload(0x40)\n      dup1\n      swap2\n      sub\n      swap1\n      return\n        /* \"Contracts/Payment.sol\":260:280  address public payer */\n    tag_13:\n      0x00\n      dup1\n      sload\n      swap1\n      0x0100\n      exp\n      swap1\n      div\n      0xffffffffffffffffffffffffffffffffffffffff\n      and\n      dup2\n      jump\t// out\n        /* \"Contracts/Payment.sol\":1308:1583  function pay() external payable {... */\n    tag_17:\n        /* \"Contracts/Payment.sol\":1371:1377  amount */\n      sload(0x02)\n        /* \"Contracts/Payment.sol\":1358:1367  msg.value */\n      callvalue\n        /* \"Contracts/Payment.sol\":1358:1377  msg.value == amount */\n      eq\n        /* \"Contracts/Payment.sol\":1350:1406  require(msg.value == amount, \"Incorrect payment amount\") */\n      tag_45\n      jumpi\n      mload(0x40)\n      0x08c379a000000000000000000000000000000000000000000000000000000000\n      dup2\n      mstore\n      0x04\n      add\n      tag_46\n      swap1\n      tag_47\n      jump\t// in\n    tag_46:\n      mload(0x40)\n      dup1\n      swap2\n      sub\n      swap1\n      revert\n    tag_45:\n        /* \"Contracts/Payment.sol\":1445:1446  0 */\n      0x00\n        /* \"Contracts/Payment.sol\":1424:1447  recipient != address(0) */\n      0xffffffffffffffffffffffffffffffffffffffff\n      and\n        /* \"Contracts/Payment.sol\":1424:1433  recipient */\n      0x01\n      0x00\n      swap1\n      sload\n      swap1\n      0x0100\n      exp\n      swap1\n      div\n      0xffffffffffffffffffffffffffffffffffffffff\n      and\n        /* \"Contracts/Payment.sol\":1424:1447  recipient != address(0) */\n      0xffffffffffffffffffffffffffffffffffffffff\n      and\n      sub\n        /* \"Contracts/Payment.sol\":1416:1477  require(recipient != address(0), \"Invalid recipient address\") */\n      tag_48\n      jumpi\n      mload(0x40)\n      0x08c379a000000000000000000000000000000000000000000000000000000000\n      dup2\n      mstore\n      0x04\n      add\n      tag_49\n      swap1\n      tag_50\n      jump\t// in\n    tag_49:\n      mload(0x40)\n      dup1\n      swap2\n      sub\n      swap1\n      revert\n    tag_48:\n        /* \"Contracts/Payment.sol\":1546:1555  recipient */\n      0x01\n      0x00\n      swap1\n      sload\n      swap1\n      0x0100\n      exp\n      swap1\n      div\n      0xffffffffffffffffffffffffffffffffffffffff\n      and\n        /* \"Contracts/Payment.sol\":1538:1565  payable(recipient).transfer */\n      0xffffffffffffffffffffffffffffffffffffffff\n      and\n        /* \"Contracts/Payment.sol\":1538:1576  payable(recipient).transfer(msg.value) */\n      0x08fc\n        /* \"Contracts/Payment.sol\":1566:1575  msg.value */\n      callvalue\n        /* \"Contracts/Payment.sol\":1538:1576  payable(recipient).transfer(msg.value) */\n      swap1\n      dup2\n      iszero\n      mul\n      swap1\n      mload(0x40)\n      0x00\n      mload(0x40)\n      dup1\n      dup4\n      sub\n      dup2\n      dup6\n      dup9\n      dup9\n      call\n      swap4\n      pop\n      pop\n      pop\n      pop\n      iszero\n      dup1\n      iszero\n      tag_52\n      jumpi\n      returndatasize\n      0x00\n      dup1\n      returndatacopy\n      revert(0x00, returndatasize)\n    tag_52:\n      pop\n        /* \"Contracts/Payment.sol\":1308:1583  function pay() external payable {... */\n      jump\t// out\n        /* \"Contracts/Payment.sol\":412:442  string public recipientCountry */\n    tag_20:\n      0x04\n      dup1\n      sload\n      tag_53\n      swap1\n      tag_54\n      jump\t// in\n    tag_53:\n      dup1\n      0x1f\n      add\n      0x20\n      dup1\n      swap2\n      div\n      mul\n      0x20\n      add\n      mload(0x40)\n      swap1\n      dup2\n      add\n      0x40\n      mstore\n      dup1\n      swap3\n      swap2\n      swap1\n      dup2\n      dup2\n      mstore\n      0x20\n      add\n      dup3\n      dup1\n      sload\n      tag_55\n      swap1\n      tag_54\n      jump\t// in\n    tag_55:\n      dup1\n      iszero\n      tag_56\n      jumpi\n      dup1\n      0x1f\n      lt\n      tag_57\n      jumpi\n      0x0100\n      dup1\n      dup4\n      sload\n      div\n      mul\n      dup4\n      mstore\n      swap2\n      0x20\n      add\n      swap2\n      jump(tag_56)\n    tag_57:\n      dup3\n      add\n      swap2\n      swap1\n      0x00\n      mstore\n      keccak256(0x00, 0x20)\n      swap1\n    tag_58:\n      dup2\n      sload\n      dup2\n      mstore\n      swap1\n      0x01\n      add\n      swap1\n      0x20\n      add\n      dup1\n      dup4\n      gt\n      tag_58\n      jumpi\n      dup3\n      swap1\n      sub\n      0x1f\n      and\n      dup3\n      add\n      swap2\n    tag_56:\n      pop\n      pop\n      pop\n      pop\n      pop\n      dup2\n      jump\t// out\n        /* \"Contracts/Payment.sol\":286:310  address public recipient */\n    tag_25:\n      0x01\n      0x00\n      swap1\n      sload\n      swap1\n      0x0100\n      exp\n      swap1\n      div\n      0xffffffffffffffffffffffffffffffffffffffff\n      and\n      dup2\n      jump\t// out\n        /* \"Contracts/Payment.sol\":316:337  uint256 public amount */\n    tag_29:\n      sload(0x02)\n      dup2\n      jump\t// out\n        /* \"Contracts/Payment.sol\":490:522  address public countriesContract */\n    tag_34:\n      0x05\n      0x00\n      swap1\n      sload\n      swap1\n      0x0100\n      exp\n      swap1\n      div\n      0xffffffffffffffffffffffffffffffffffffffff\n      and\n      dup2\n      jump\t// out\n        /* \"Contracts/Payment.sol\":1589:1669  function getAmount() public view returns(uint256) {... */\n    tag_38:\n        /* \"Contracts/Payment.sol\":1630:1637  uint256 */\n      0x00\n        /* \"Contracts/Payment.sol\":1656:1662  amount */\n      sload(0x02)\n        /* \"Contracts/Payment.sol\":1649:1662  return amount */\n      swap1\n      pop\n        /* \"Contracts/Payment.sol\":1589:1669  function getAmount() public view returns(uint256) {... */\n      swap1\n      jump\t// out\n        /* \"Contracts/Payment.sol\":380:406  string public payerCountry */\n    tag_42:\n      0x03\n      dup1\n      sload\n      tag_60\n      swap1\n      tag_54\n      jump\t// in\n    tag_60:\n      dup1\n      0x1f\n      add\n      0x20\n      dup1\n      swap2\n      div\n      mul\n      0x20\n      add\n      mload(0x40)\n      swap1\n      dup2\n      add\n      0x40\n      mstore\n      dup1\n      swap3\n      swap2\n      swap1\n      dup2\n      dup2\n      mstore\n      0x20\n      add\n      dup3\n      dup1\n      sload\n      tag_61\n      swap1\n      tag_54\n      jump\t// in\n    tag_61:\n      dup1\n      iszero\n      tag_62\n      jumpi\n      dup1\n      0x1f\n      lt\n      tag_63\n      jumpi\n      0x0100\n      dup1\n      dup4\n      sload\n      div\n      mul\n      dup4\n      mstore\n      swap2\n      0x20\n      add\n      swap2\n      jump(tag_62)\n    tag_63:\n      dup3\n      add\n      swap2\n      swap1\n      0x00\n      mstore\n      keccak256(0x00, 0x20)\n      swap1\n    tag_64:\n      dup2\n      sload\n      dup2\n      mstore\n      swap1\n      0x01\n      add\n      swap1\n      0x20\n      add\n      dup1\n      dup4\n      gt\n      tag_64\n      jumpi\n      dup3\n      swap1\n      sub\n      0x1f\n      and\n      dup3\n      add\n      swap2\n    tag_62:\n      pop\n      pop\n      pop\n      pop\n      pop\n      dup2\n      jump\t// out\n        /* \"#utility.yul\":7:133   */\n    tag_65:\n        /* \"#utility.yul\":44:51   */\n      0x00\n        /* \"#utility.yul\":84:126   */\n      0xffffffffffffffffffffffffffffffffffffffff\n        /* \"#utility.yul\":77:82   */\n      dup3\n        /* \"#utility.yul\":73:127   */\n      and\n        /* \"#utility.yul\":62:127   */\n      swap1\n      pop\n        /* \"#utility.yul\":7:133   */\n      swap2\n      swap1\n      pop\n      jump\t// out\n        /* \"#utility.yul\":139:235   */\n    tag_66:\n        /* \"#utility.yul\":176:183   */\n      0x00\n        /* \"#utility.yul\":205:229   */\n      tag_83\n        /* \"#utility.yul\":223:228   */\n      dup3\n        /* \"#utility.yul\":205:229   */\n      tag_65\n      jump\t// in\n    tag_83:\n        /* \"#utility.yul\":194:229   */\n      swap1\n      pop\n        /* \"#utility.yul\":139:235   */\n      swap2\n      swap1\n      pop\n      jump\t// out\n        /* \"#utility.yul\":241:359   */\n    tag_67:\n        /* \"#utility.yul\":328:352   */\n      tag_85\n        /* \"#utility.yul\":346:351   */\n      dup2\n        /* \"#utility.yul\":328:352   */\n      tag_66\n      jump\t// in\n    tag_85:\n        /* \"#utility.yul\":323:326   */\n      dup3\n        /* \"#utility.yul\":316:353   */\n      mstore\n        /* \"#utility.yul\":241:359   */\n      pop\n      pop\n      jump\t// out\n        /* \"#utility.yul\":365:587   */\n    tag_15:\n        /* \"#utility.yul\":458:462   */\n      0x00\n        /* \"#utility.yul\":496:498   */\n      0x20\n        /* \"#utility.yul\":485:494   */\n      dup3\n        /* \"#utility.yul\":481:499   */\n      add\n        /* \"#utility.yul\":473:499   */\n      swap1\n      pop\n        /* \"#utility.yul\":509:580   */\n      tag_87\n        /* \"#utility.yul\":577:578   */\n      0x00\n        /* \"#utility.yul\":566:575   */\n      dup4\n        /* \"#utility.yul\":562:579   */\n      add\n        /* \"#utility.yul\":553:559   */\n      dup5\n        /* \"#utility.yul\":509:580   */\n      tag_67\n      jump\t// in\n    tag_87:\n        /* \"#utility.yul\":365:587   */\n      swap3\n      swap2\n      pop\n      pop\n      jump\t// out\n        /* \"#utility.yul\":593:692   */\n    tag_68:\n        /* \"#utility.yul\":645:651   */\n      0x00\n        /* \"#utility.yul\":679:684   */\n      dup2\n        /* \"#utility.yul\":673:685   */\n      mload\n        /* \"#utility.yul\":663:685   */\n      swap1\n      pop\n        /* \"#utility.yul\":593:692   */\n      swap2\n      swap1\n      pop\n      jump\t// out\n        /* \"#utility.yul\":698:867   */\n    tag_69:\n        /* \"#utility.yul\":782:793   */\n      0x00\n        /* \"#utility.yul\":816:822   */\n      dup3\n        /* \"#utility.yul\":811:814   */\n      dup3\n        /* \"#utility.yul\":804:823   */\n      mstore\n        /* \"#utility.yul\":856:860   */\n      0x20\n        /* \"#utility.yul\":851:854   */\n      dup3\n        /* \"#utility.yul\":847:861   */\n      add\n        /* \"#utility.yul\":832:861   */\n      swap1\n      pop\n        /* \"#utility.yul\":698:867   */\n      swap3\n      swap2\n      pop\n      pop\n      jump\t// out\n        /* \"#utility.yul\":873:1012   */\n    tag_70:\n        /* \"#utility.yul\":962:968   */\n      dup3\n        /* \"#utility.yul\":957:960   */\n      dup2\n        /* \"#utility.yul\":952:955   */\n      dup4\n        /* \"#utility.yul\":946:969   */\n      mcopy\n        /* \"#utility.yul\":1003:1004   */\n      0x00\n        /* \"#utility.yul\":994:1000   */\n      dup4\n        /* \"#utility.yul\":989:992   */\n      dup4\n        /* \"#utility.yul\":985:1001   */\n      add\n        /* \"#utility.yul\":978:1005   */\n      mstore\n        /* \"#utility.yul\":873:1012   */\n      pop\n      pop\n      pop\n      jump\t// out\n        /* \"#utility.yul\":1018:1120   */\n    tag_71:\n        /* \"#utility.yul\":1059:1065   */\n      0x00\n        /* \"#utility.yul\":1110:1112   */\n      0x1f\n        /* \"#utility.yul\":1106:1113   */\n      not\n        /* \"#utility.yul\":1101:1103   */\n      0x1f\n        /* \"#utility.yul\":1094:1099   */\n      dup4\n        /* \"#utility.yul\":1090:1104   */\n      add\n        /* \"#utility.yul\":1086:1114   */\n      and\n        /* \"#utility.yul\":1076:1114   */\n      swap1\n      pop\n        /* \"#utility.yul\":1018:1120   */\n      swap2\n      swap1\n      pop\n      jump\t// out\n        /* \"#utility.yul\":1126:1503   */\n    tag_72:\n        /* \"#utility.yul\":1214:1217   */\n      0x00\n        /* \"#utility.yul\":1242:1281   */\n      tag_93\n        /* \"#utility.yul\":1275:1280   */\n      dup3\n        /* \"#utility.yul\":1242:1281   */\n      tag_68\n      jump\t// in\n    tag_93:\n        /* \"#utility.yul\":1297:1368   */\n      tag_94\n        /* \"#utility.yul\":1361:1367   */\n      dup2\n        /* \"#utility.yul\":1356:1359   */\n      dup6\n        /* \"#utility.yul\":1297:1368   */\n      tag_69\n      jump\t// in\n    tag_94:\n        /* \"#utility.yul\":1290:1368   */\n      swap4\n      pop\n        /* \"#utility.yul\":1377:1442   */\n      tag_95\n        /* \"#utility.yul\":1435:1441   */\n      dup2\n        /* \"#utility.yul\":1430:1433   */\n      dup6\n        /* \"#utility.yul\":1423:1427   */\n      0x20\n        /* \"#utility.yul\":1416:1421   */\n      dup7\n        /* \"#utility.yul\":1412:1428   */\n      add\n        /* \"#utility.yul\":1377:1442   */\n      tag_70\n      jump\t// in\n    tag_95:\n        /* \"#utility.yul\":1467:1496   */\n      tag_96\n        /* \"#utility.yul\":1489:1495   */\n      dup2\n        /* \"#utility.yul\":1467:1496   */\n      tag_71\n      jump\t// in\n    tag_96:\n        /* \"#utility.yul\":1462:1465   */\n      dup5\n        /* \"#utility.yul\":1458:1497   */\n      add\n        /* \"#utility.yul\":1451:1497   */\n      swap2\n      pop\n        /* \"#utility.yul\":1218:1503   */\n      pop\n        /* \"#utility.yul\":1126:1503   */\n      swap3\n      swap2\n      pop\n      pop\n      jump\t// out\n        /* \"#utility.yul\":1509:1822   */\n    tag_22:\n        /* \"#utility.yul\":1622:1626   */\n      0x00\n        /* \"#utility.yul\":1660:1662   */\n      0x20\n        /* \"#utility.yul\":1649:1658   */\n      dup3\n        /* \"#utility.yul\":1645:1663   */\n      add\n        /* \"#utility.yul\":1637:1663   */\n      swap1\n      pop\n        /* \"#utility.yul\":1709:1718   */\n      dup2\n        /* \"#utility.yul\":1703:1707   */\n      dup2\n        /* \"#utility.yul\":1699:1719   */\n      sub\n        /* \"#utility.yul\":1695:1696   */\n      0x00\n        /* \"#utility.yul\":1684:1693   */\n      dup4\n        /* \"#utility.yul\":1680:1697   */\n      add\n        /* \"#utility.yul\":1673:1720   */\n      mstore\n        /* \"#utility.yul\":1737:1815   */\n      tag_98\n        /* \"#utility.yul\":1810:1814   */\n      dup2\n        /* \"#utility.yul\":1801:1807   */\n      dup5\n        /* \"#utility.yul\":1737:1815   */\n      tag_72\n      jump\t// in\n    tag_98:\n        /* \"#utility.yul\":1729:1815   */\n      swap1\n      pop\n        /* \"#utility.yul\":1509:1822   */\n      swap3\n      swap2\n      pop\n      pop\n      jump\t// out\n        /* \"#utility.yul\":1828:1905   */\n    tag_73:\n        /* \"#utility.yul\":1865:1872   */\n      0x00\n        /* \"#utility.yul\":1894:1899   */\n      dup2\n        /* \"#utility.yul\":1883:1899   */\n      swap1\n      pop\n        /* \"#utility.yul\":1828:1905   */\n      swap2\n      swap1\n      pop\n      jump\t// out\n        /* \"#utility.yul\":1911:2029   */\n    tag_74:\n        /* \"#utility.yul\":1998:2022   */\n      tag_101\n        /* \"#utility.yul\":2016:2021   */\n      dup2\n        /* \"#utility.yul\":1998:2022   */\n      tag_73\n      jump\t// in\n    tag_101:\n        /* \"#utility.yul\":1993:1996   */\n      dup3\n        /* \"#utility.yul\":1986:2023   */\n      mstore\n        /* \"#utility.yul\":1911:2029   */\n      pop\n      pop\n      jump\t// out\n        /* \"#utility.yul\":2035:2257   */\n    tag_31:\n        /* \"#utility.yul\":2128:2132   */\n      0x00\n        /* \"#utility.yul\":2166:2168   */\n      0x20\n        /* \"#utility.yul\":2155:2164   */\n      dup3\n        /* \"#utility.yul\":2151:2169   */\n      add\n        /* \"#utility.yul\":2143:2169   */\n      swap1\n      pop\n        /* \"#utility.yul\":2179:2250   */\n      tag_103\n        /* \"#utility.yul\":2247:2248   */\n      0x00\n        /* \"#utility.yul\":2236:2245   */\n      dup4\n        /* \"#utility.yul\":2232:2249   */\n      add\n        /* \"#utility.yul\":2223:2229   */\n      dup5\n        /* \"#utility.yul\":2179:2250   */\n      tag_74\n      jump\t// in\n    tag_103:\n        /* \"#utility.yul\":2035:2257   */\n      swap3\n      swap2\n      pop\n      pop\n      jump\t// out\n        /* \"#utility.yul\":2263:2437   */\n    tag_75:\n        /* \"#utility.yul\":2403:2429   */\n      0x496e636f7272656374207061796d656e7420616d6f756e740000000000000000\n        /* \"#utility.yul\":2399:2400   */\n      0x00\n        /* \"#utility.yul\":2391:2397   */\n      dup3\n        /* \"#utility.yul\":2387:2401   */\n      add\n        /* \"#utility.yul\":2380:2430   */\n      mstore\n        /* \"#utility.yul\":2263:2437   */\n      pop\n      jump\t// out\n        /* \"#utility.yul\":2443:2809   */\n    tag_76:\n        /* \"#utility.yul\":2585:2588   */\n      0x00\n        /* \"#utility.yul\":2606:2673   */\n      tag_106\n        /* \"#utility.yul\":2670:2672   */\n      0x18\n        /* \"#utility.yul\":2665:2668   */\n      dup4\n        /* \"#utility.yul\":2606:2673   */\n      tag_69\n      jump\t// in\n    tag_106:\n        /* \"#utility.yul\":2599:2673   */\n      swap2\n      pop\n        /* \"#utility.yul\":2682:2775   */\n      tag_107\n        /* \"#utility.yul\":2771:2774   */\n      dup3\n        /* \"#utility.yul\":2682:2775   */\n      tag_75\n      jump\t// in\n    tag_107:\n        /* \"#utility.yul\":2800:2802   */\n      0x20\n        /* \"#utility.yul\":2795:2798   */\n      dup3\n        /* \"#utility.yul\":2791:2803   */\n      add\n        /* \"#utility.yul\":2784:2803   */\n      swap1\n      pop\n        /* \"#utility.yul\":2443:2809   */\n      swap2\n      swap1\n      pop\n      jump\t// out\n        /* \"#utility.yul\":2815:3234   */\n    tag_47:\n        /* \"#utility.yul\":2981:2985   */\n      0x00\n        /* \"#utility.yul\":3019:3021   */\n      0x20\n        /* \"#utility.yul\":3008:3017   */\n      dup3\n        /* \"#utility.yul\":3004:3022   */\n      add\n        /* \"#utility.yul\":2996:3022   */\n      swap1\n      pop\n        /* \"#utility.yul\":3068:3077   */\n      dup2\n        /* \"#utility.yul\":3062:3066   */\n      dup2\n        /* \"#utility.yul\":3058:3078   */\n      sub\n        /* \"#utility.yul\":3054:3055   */\n      0x00\n        /* \"#utility.yul\":3043:3052   */\n      dup4\n        /* \"#utility.yul\":3039:3056   */\n      add\n        /* \"#utility.yul\":3032:3079   */\n      mstore\n        /* \"#utility.yul\":3096:3227   */\n      tag_109\n        /* \"#utility.yul\":3222:3226   */\n      dup2\n        /* \"#utility.yul\":3096:3227   */\n      tag_76\n      jump\t// in\n    tag_109:\n        /* \"#utility.yul\":3088:3227   */\n      swap1\n      pop\n        /* \"#utility.yul\":2815:3234   */\n      swap2\n      swap1\n      pop\n      jump\t// out\n        /* \"#utility.yul\":3240:3415   */\n    tag_77:\n        /* \"#utility.yul\":3380:3407   */\n      0x496e76616c696420726563697069656e74206164647265737300000000000000\n        /* \"#utility.yul\":3376:3377   */\n      0x00\n        /* \"#utility.yul\":3368:3374   */\n      dup3\n        /* \"#utility.yul\":3364:3378   */\n      add\n        /* \"#utility.yul\":3357:3408   */\n      mstore\n        /* \"#utility.yul\":3240:3415   */\n      pop\n      jump\t// out\n        /* \"#utility.yul\":3421:3787   */\n    tag_78:\n        /* \"#utility.yul\":3563:3566   */\n      0x00\n        /* \"#utility.yul\":3584:3651   */\n      tag_112\n        /* \"#utility.yul\":3648:3650   */\n      0x19\n        /* \"#utility.yul\":3643:3646   */\n      dup4\n        /* \"#utility.yul\":3584:3651   */\n      tag_69\n      jump\t// in\n    tag_112:\n        /* \"#utility.yul\":3577:3651   */\n      swap2\n      pop\n        /* \"#utility.yul\":3660:3753   */\n      tag_113\n        /* \"#utility.yul\":3749:3752   */\n      dup3\n        /* \"#utility.yul\":3660:3753   */\n      tag_77\n      jump\t// in\n    tag_113:\n        /* \"#utility.yul\":3778:3780   */\n      0x20\n        /* \"#utility.yul\":3773:3776   */\n      dup3\n        /* \"#utility.yul\":3769:3781   */\n      add\n        /* \"#utility.yul\":3762:3781   */\n      swap1\n      pop\n        /* \"#utility.yul\":3421:3787   */\n      swap2\n      swap1\n      pop\n      jump\t// out\n        /* \"#utility.yul\":3793:4212   */\n    tag_50:\n        /* \"#utility.yul\":3959:3963   */\n      0x00\n        /* \"#utility.yul\":3997:3999   */\n      0x20\n        /* \"#utility.yul\":3986:3995   */\n      dup3\n        /* \"#utility.yul\":3982:4000   */\n      add\n        /* \"#utility.yul\":3974:4000   */\n      swap1\n      pop\n        /* \"#utility.yul\":4046:4055   */\n      dup2\n        /* \"#utility.yul\":4040:4044   */\n      dup2\n        /* \"#utility.yul\":4036:4056   */\n      sub\n        /* \"#utility.yul\":4032:4033   */\n      0x00\n        /* \"#utility.yul\":4021:4030   */\n      dup4\n        /* \"#utility.yul\":4017:4034   */\n      add\n        /* \"#utility.yul\":4010:4057   */\n      mstore\n        /* \"#utility.yul\":4074:4205   */\n      tag_115\n        /* \"#utility.yul\":4200:4204   */\n      dup2\n        /* \"#utility.yul\":4074:4205   */\n      tag_78\n      jump\t// in\n    tag_115:\n        /* \"#utility.yul\":4066:4205   */\n      swap1\n      pop\n        /* \"#utility.yul\":3793:4212   */\n      swap2\n      swap1\n      pop\n      jump\t// out\n        /* \"#utility.yul\":4218:4398   */\n    tag_79:\n        /* \"#utility.yul\":4266:4343   */\n      0x4e487b7100000000000000000000000000000000000000000000000000000000\n        /* \"#utility.yul\":4263:4264   */\n      0x00\n        /* \"#utility.yul\":4256:4344   */\n      mstore\n        /* \"#utility.yul\":4363:4367   */\n      0x22\n        /* \"#utility.yul\":4360:4361   */\n      0x04\n        /* \"#utility.yul\":4353:4368   */\n      mstore\n        /* \"#utility.yul\":4387:4391   */\n      0x24\n        /* \"#utility.yul\":4384:4385   */\n      0x00\n        /* \"#utility.yul\":4377:4392   */\n      revert\n        /* \"#utility.yul\":4404:4724   */\n    tag_54:\n        /* \"#utility.yul\":4448:4454   */\n      0x00\n        /* \"#utility.yul\":4485:4486   */\n      0x02\n        /* \"#utility.yul\":4479:4483   */\n      dup3\n        /* \"#utility.yul\":4475:4487   */\n      div\n        /* \"#utility.yul\":4465:4487   */\n      swap1\n      pop\n        /* \"#utility.yul\":4532:4533   */\n      0x01\n        /* \"#utility.yul\":4526:4530   */\n      dup3\n        /* \"#utility.yul\":4522:4534   */\n      and\n        /* \"#utility.yul\":4553:4571   */\n      dup1\n        /* \"#utility.yul\":4543:4624   */\n      tag_118\n      jumpi\n        /* \"#utility.yul\":4609:4613   */\n      0x7f\n        /* \"#utility.yul\":4601:4607   */\n      dup3\n        /* \"#utility.yul\":4597:4614   */\n      and\n        /* \"#utility.yul\":4587:4614   */\n      swap2\n      pop\n        /* \"#utility.yul\":4543:4624   */\n    tag_118:\n        /* \"#utility.yul\":4671:4673   */\n      0x20\n        /* \"#utility.yul\":4663:4669   */\n      dup3\n        /* \"#utility.yul\":4660:4674   */\n      lt\n        /* \"#utility.yul\":4640:4658   */\n      dup2\n        /* \"#utility.yul\":4637:4675   */\n      sub\n        /* \"#utility.yul\":4634:4718   */\n      tag_119\n      jumpi\n        /* \"#utility.yul\":4690:4708   */\n      tag_120\n      tag_79\n      jump\t// in\n    tag_120:\n        /* \"#utility.yul\":4634:4718   */\n    tag_119:\n        /* \"#utility.yul\":4455:4724   */\n      pop\n        /* \"#utility.yul\":4404:4724   */\n      swap2\n      swap1\n      pop\n      jump\t// out\n\n    auxdata: 0xa264697066735822122070e27e8f6c2cd478a40ee3c995e38e0fa03252afdbea474d1bc7d0e9a2bfd1a064736f6c634300081a0033\n}\n",
				"bytecode": {
					"linkReferences": {},
					"object": "608060405234801561000f575f80fd5b506040516111e33803806111e3833981810160405281019061003191906104fe565b5f73ffffffffffffffffffffffffffffffffffffffff168173ffffffffffffffffffffffffffffffffffffffff160361009f576040517f08c379a00000000000000000000000000000000000000000000000000000000081526004016100969061063f565b60405180910390fd5b8060055f6101000a81548173ffffffffffffffffffffffffffffffffffffffff021916908373ffffffffffffffffffffffffffffffffffffffff1602179055505f60055f9054906101000a900473ffffffffffffffffffffffffffffffffffffffff1690508073ffffffffffffffffffffffffffffffffffffffff166303649e43856040518263ffffffff1660e01b815260040161013d919061069f565b602060405180830381865afa158015610158573d5f803e3d5ffd5b505050506040513d601f19601f8201168201806040525081019061017c91906106f4565b6101bb576040517f08c379a00000000000000000000000000000000000000000000000000000000081526004016101b290610769565b60405180910390fd5b8073ffffffffffffffffffffffffffffffffffffffff166303649e43846040518263ffffffff1660e01b81526004016101f4919061069f565b602060405180830381865afa15801561020f573d5f803e3d5ffd5b505050506040513d601f19601f8201168201806040525081019061023391906106f4565b610272576040517f08c379a0000000000000000000000000000000000000000000000000000000008152600401610269906107f7565b60405180910390fd5b865f806101000a81548173ffffffffffffffffffffffffffffffffffffffff021916908373ffffffffffffffffffffffffffffffffffffffff1602179055508560015f6101000a81548173ffffffffffffffffffffffffffffffffffffffff021916908373ffffffffffffffffffffffffffffffffffffffff1602179055508460028190555083600390816103079190610a0f565b5082600490816103179190610a0f565b5050505050505050610ade565b5f604051905090565b5f80fd5b5f80fd5b5f73ffffffffffffffffffffffffffffffffffffffff82169050919050565b5f61035e82610335565b9050919050565b61036e81610354565b8114610378575f80fd5b50565b5f8151905061038981610365565b92915050565b5f819050919050565b6103a18161038f565b81146103ab575f80fd5b50565b5f815190506103bc81610398565b92915050565b5f80fd5b5f80fd5b5f601f19601f8301169050919050565b7f4e487b71000000000000000000000000000000000000000000000000000000005f52604160045260245ffd5b610410826103ca565b810181811067ffffffffffffffff8211171561042f5761042e6103da565b5b80604052505050565b5f610441610324565b905061044d8282610407565b919050565b5f67ffffffffffffffff82111561046c5761046b6103da565b5b610475826103ca565b9050602081019050919050565b8281835e5f83830152505050565b5f6104a261049d84610452565b610438565b9050828152602081018484840111156104be576104bd6103c6565b5b6104c9848285610482565b509392505050565b5f82601f8301126104e5576104e46103c2565b5b81516104f5848260208601610490565b91505092915050565b5f805f805f8060c087890312156105185761051761032d565b5b5f61052589828a0161037b565b965050602061053689828a0161037b565b955050604061054789828a016103ae565b945050606087015167ffffffffffffffff81111561056857610567610331565b5b61057489828a016104d1565b935050608087015167ffffffffffffffff81111561059557610594610331565b5b6105a189828a016104d1565b92505060a06105b289828a0161037b565b9150509295509295509295565b5f82825260208201905092915050565b7f496e76616c696420436f756e747269657320636f6e74726163742061646472655f8201527f7373000000000000000000000000000000000000000000000000000000000000602082015250565b5f6106296022836105bf565b9150610634826105cf565b604082019050919050565b5f6020820190508181035f8301526106568161061d565b9050919050565b5f81519050919050565b5f6106718261065d565b61067b81856105bf565b935061068b818560208601610482565b610694816103ca565b840191505092915050565b5f6020820190508181035f8301526106b78184610667565b905092915050565b5f8115159050919050565b6106d3816106bf565b81146106dd575f80fd5b50565b5f815190506106ee816106ca565b92915050565b5f602082840312156107095761070861032d565b5b5f610716848285016106e0565b91505092915050565b7f496e76616c696420706179657220636f756e7472792049534f20636f646500005f82015250565b5f610753601e836105bf565b915061075e8261071f565b602082019050919050565b5f6020820190508181035f83015261078081610747565b9050919050565b7f496e76616c696420726563697069656e7420636f756e7472792049534f20636f5f8201527f6465000000000000000000000000000000000000000000000000000000000000602082015250565b5f6107e16022836105bf565b91506107ec82610787565b604082019050919050565b5f6020820190508181035f83015261080e816107d5565b9050919050565b7f4e487b71000000000000000000000000000000000000000000000000000000005f52602260045260245ffd5b5f600282049050600182168061085957607f821691505b60208210810361086c5761086b610815565b5b50919050565b5f819050815f5260205f209050919050565b5f6020601f8301049050919050565b5f82821b905092915050565b5f600883026108ce7fffffffffffffffffffffffffffffffffffffffffffffffffffffffffffffffff82610893565b6108d88683610893565b95508019841693508086168417925050509392505050565b5f819050919050565b5f61091361090e6109098461038f565b6108f0565b61038f565b9050919050565b5f819050919050565b61092c836108f9565b6109406109388261091a565b84845461089f565b825550505050565b5f90565b610954610948565b61095f818484610923565b505050565b5b81811015610982576109775f8261094c565b600181019050610965565b5050565b601f8211156109c75761099881610872565b6109a184610884565b810160208510156109b0578190505b6109c46109bc85610884565b830182610964565b50505b505050565b5f82821c905092915050565b5f6109e75f19846008026109cc565b1980831691505092915050565b5f6109ff83836109d8565b9150826002028217905092915050565b610a188261065d565b67ffffffffffffffff811115610a3157610a306103da565b5b610a3b8254610842565b610a46828285610986565b5f60209050601f831160018114610a77575f8415610a65578287015190505b610a6f85826109f4565b865550610ad6565b601f198416610a8586610872565b5f5b82811015610aac57848901518255600182019150602085019450602081019050610a87565b86831015610ac95784890151610ac5601f8916826109d8565b8355505b6001600288020188555050505b505050505050565b6106f880610aeb5f395ff3fe60806040526004361061007a575f3560e01c8063aa8c217c1161004d578063aa8c217c14610106578063b220ff9114610130578063d321fe291461015a578063e76800e5146101845761007a565b8063123119cd1461007e5780631b9265b8146100a8578063214ad5f1146100b257806366d003ac146100dc575b5f80fd5b348015610089575f80fd5b506100926101ae565b60405161009f91906104bb565b60405180910390f35b6100b06101d1565b005b3480156100bd575f80fd5b506100c661030b565b6040516100d39190610544565b60405180910390f35b3480156100e7575f80fd5b506100f0610397565b6040516100fd91906104bb565b60405180910390f35b348015610111575f80fd5b5061011a6103bc565b604051610127919061057c565b60405180910390f35b34801561013b575f80fd5b506101446103c2565b60405161015191906104bb565b60405180910390f35b348015610165575f80fd5b5061016e6103e7565b60405161017b919061057c565b60405180910390f35b34801561018f575f80fd5b506101986103f0565b6040516101a59190610544565b60405180910390f35b5f8054906101000a900473ffffffffffffffffffffffffffffffffffffffff1681565b6002543414610215576040517f08c379a000000000000000000000000000000000000000000000000000000000815260040161020c906105df565b60405180910390fd5b5f73ffffffffffffffffffffffffffffffffffffffff1660015f9054906101000a900473ffffffffffffffffffffffffffffffffffffffff1673ffffffffffffffffffffffffffffffffffffffff16036102a4576040517f08c379a000000000000000000000000000000000000000000000000000000000815260040161029b90610647565b60405180910390fd5b60015f9054906101000a900473ffffffffffffffffffffffffffffffffffffffff1673ffffffffffffffffffffffffffffffffffffffff166108fc3490811502906040515f60405180830381858888f19350505050158015610308573d5f803e3d5ffd5b50565b6004805461031890610692565b80601f016020809104026020016040519081016040528092919081815260200182805461034490610692565b801561038f5780601f106103665761010080835404028352916020019161038f565b820191905f5260205f20905b81548152906001019060200180831161037257829003601f168201915b505050505081565b60015f9054906101000a900473ffffffffffffffffffffffffffffffffffffffff1681565b60025481565b60055f9054906101000a900473ffffffffffffffffffffffffffffffffffffffff1681565b5f600254905090565b600380546103fd90610692565b80601f016020809104026020016040519081016040528092919081815260200182805461042990610692565b80156104745780601f1061044b57610100808354040283529160200191610474565b820191905f5260205f20905b81548152906001019060200180831161045757829003601f168201915b505050505081565b5f73ffffffffffffffffffffffffffffffffffffffff82169050919050565b5f6104a58261047c565b9050919050565b6104b58161049b565b82525050565b5f6020820190506104ce5f8301846104ac565b92915050565b5f81519050919050565b5f82825260208201905092915050565b8281835e5f83830152505050565b5f601f19601f8301169050919050565b5f610516826104d4565b61052081856104de565b93506105308185602086016104ee565b610539816104fc565b840191505092915050565b5f6020820190508181035f83015261055c818461050c565b905092915050565b5f819050919050565b61057681610564565b82525050565b5f60208201905061058f5f83018461056d565b92915050565b7f496e636f7272656374207061796d656e7420616d6f756e7400000000000000005f82015250565b5f6105c96018836104de565b91506105d482610595565b602082019050919050565b5f6020820190508181035f8301526105f6816105bd565b9050919050565b7f496e76616c696420726563697069656e742061646472657373000000000000005f82015250565b5f6106316019836104de565b915061063c826105fd565b602082019050919050565b5f6020820190508181035f83015261065e81610625565b9050919050565b7f4e487b71000000000000000000000000000000000000000000000000000000005f52602260045260245ffd5b5f60028204905060018216806106a957607f821691505b6020821081036106bc576106bb610665565b5b5091905056fea264697066735822122070e27e8f6c2cd478a40ee3c995e38e0fa03252afdbea474d1bc7d0e9a2bfd1a064736f6c634300081a0033",
					"opcodes": "PUSH1 0x80 PUSH1 0x40 MSTORE CALLVALUE DUP1 ISZERO PUSH2 0xF JUMPI PUSH0 DUP1 REVERT JUMPDEST POP PUSH1 0x40 MLOAD PUSH2 0x11E3 CODESIZE SUB DUP1 PUSH2 0x11E3 DUP4 CODECOPY DUP2 DUP2 ADD PUSH1 0x40 MSTORE DUP2 ADD SWAP1 PUSH2 0x31 SWAP2 SWAP1 PUSH2 0x4FE JUMP JUMPDEST PUSH0 PUSH20 0xFFFFFFFFFFFFFFFFFFFFFFFFFFFFFFFFFFFFFFFF AND DUP2 PUSH20 0xFFFFFFFFFFFFFFFFFFFFFFFFFFFFFFFFFFFFFFFF AND SUB PUSH2 0x9F JUMPI PUSH1 0x40 MLOAD PUSH32 0x8C379A000000000000000000000000000000000000000000000000000000000 DUP2 MSTORE PUSH1 0x4 ADD PUSH2 0x96 SWAP1 PUSH2 0x63F JUMP JUMPDEST PUSH1 0x40 MLOAD DUP1 SWAP2 SUB SWAP1 REVERT JUMPDEST DUP1 PUSH1 0x5 PUSH0 PUSH2 0x100 EXP DUP2 SLOAD DUP2 PUSH20 0xFFFFFFFFFFFFFFFFFFFFFFFFFFFFFFFFFFFFFFFF MUL NOT AND SWAP1 DUP4 PUSH20 0xFFFFFFFFFFFFFFFFFFFFFFFFFFFFFFFFFFFFFFFF AND MUL OR SWAP1 SSTORE POP PUSH0 PUSH1 0x5 PUSH0 SWAP1 SLOAD SWAP1 PUSH2 0x100 EXP SWAP1 DIV PUSH20 0xFFFFFFFFFFFFFFFFFFFFFFFFFFFFFFFFFFFFFFFF AND SWAP1 POP DUP1 PUSH20 0xFFFFFFFFFFFFFFFFFFFFFFFFFFFFFFFFFFFFFFFF AND PUSH4 0x3649E43 DUP6 PUSH1 0x40 MLOAD DUP3 PUSH4 0xFFFFFFFF AND PUSH1 0xE0 SHL DUP2 MSTORE PUSH1 0x4 ADD PUSH2 0x13D SWAP2 SWAP1 PUSH2 0x69F JUMP JUMPDEST PUSH1 0x20 PUSH1 0x40 MLOAD DUP1 DUP4 SUB DUP2 DUP7 GAS STATICCALL ISZERO DUP1 ISZERO PUSH2 0x158 JUMPI RETURNDATASIZE PUSH0 DUP1 RETURNDATACOPY RETURNDATASIZE PUSH0 REVERT JUMPDEST POP POP POP POP PUSH1 0x40 MLOAD RETURNDATASIZE PUSH1 0x1F NOT PUSH1 0x1F DUP3 ADD AND DUP3 ADD DUP1 PUSH1 0x40 MSTORE POP DUP2 ADD SWAP1 PUSH2 0x17C SWAP2 SWAP1 PUSH2 0x6F4 JUMP JUMPDEST PUSH2 0x1BB JUMPI PUSH1 0x40 MLOAD PUSH32 0x8C379A000000000000000000000000000000000000000000000000000000000 DUP2 MSTORE PUSH1 0x4 ADD PUSH2 0x1B2 SWAP1 PUSH2 0x769 JUMP JUMPDEST PUSH1 0x40 MLOAD DUP1 SWAP2 SUB SWAP1 REVERT JUMPDEST DUP1 PUSH20 0xFFFFFFFFFFFFFFFFFFFFFFFFFFFFFFFFFFFFFFFF AND PUSH4 0x3649E43 DUP5 PUSH1 0x40 MLOAD DUP3 PUSH4 0xFFFFFFFF AND PUSH1 0xE0 SHL DUP2 MSTORE PUSH1 0x4 ADD PUSH2 0x1F4 SWAP2 SWAP1 PUSH2 0x69F JUMP JUMPDEST PUSH1 0x20 PUSH1 0x40 MLOAD DUP1 DUP4 SUB DUP2 DUP7 GAS STATICCALL ISZERO DUP1 ISZERO PUSH2 0x20F JUMPI RETURNDATASIZE PUSH0 DUP1 RETURNDATACOPY RETURNDATASIZE PUSH0 REVERT JUMPDEST POP POP POP POP PUSH1 0x40 MLOAD RETURNDATASIZE PUSH1 0x1F NOT PUSH1 0x1F DUP3 ADD AND DUP3 ADD DUP1 PUSH1 0x40 MSTORE POP DUP2 ADD SWAP1 PUSH2 0x233 SWAP2 SWAP1 PUSH2 0x6F4 JUMP JUMPDEST PUSH2 0x272 JUMPI PUSH1 0x40 MLOAD PUSH32 0x8C379A000000000000000000000000000000000000000000000000000000000 DUP2 MSTORE PUSH1 0x4 ADD PUSH2 0x269 SWAP1 PUSH2 0x7F7 JUMP JUMPDEST PUSH1 0x40 MLOAD DUP1 SWAP2 SUB SWAP1 REVERT JUMPDEST DUP7 PUSH0 DUP1 PUSH2 0x100 EXP DUP2 SLOAD DUP2 PUSH20 0xFFFFFFFFFFFFFFFFFFFFFFFFFFFFFFFFFFFFFFFF MUL NOT AND SWAP1 DUP4 PUSH20 0xFFFFFFFFFFFFFFFFFFFFFFFFFFFFFFFFFFFFFFFF AND MUL OR SWAP1 SSTORE POP DUP6 PUSH1 0x1 PUSH0 PUSH2 0x100 EXP DUP2 SLOAD DUP2 PUSH20 0xFFFFFFFFFFFFFFFFFFFFFFFFFFFFFFFFFFFFFFFF MUL NOT AND SWAP1 DUP4 PUSH20 0xFFFFFFFFFFFFFFFFFFFFFFFFFFFFFFFFFFFFFFFF AND MUL OR SWAP1 SSTORE POP DUP5 PUSH1 0x2 DUP2 SWAP1 SSTORE POP DUP4 PUSH1 0x3 SWAP1 DUP2 PUSH2 0x307 SWAP2 SWAP1 PUSH2 0xA0F JUMP JUMPDEST POP DUP3 PUSH1 0x4 SWAP1 DUP2 PUSH2 0x317 SWAP2 SWAP1 PUSH2 0xA0F JUMP JUMPDEST POP POP POP POP POP POP POP POP PUSH2 0xADE JUMP JUMPDEST PUSH0 PUSH1 0x40 MLOAD SWAP1 POP SWAP1 JUMP JUMPDEST PUSH0 DUP1 REVERT JUMPDEST PUSH0 DUP1 REVERT JUMPDEST PUSH0 PUSH20 0xFFFFFFFFFFFFFFFFFFFFFFFFFFFFFFFFFFFFFFFF DUP3 AND SWAP1 POP SWAP2 SWAP1 POP JUMP JUMPDEST PUSH0 PUSH2 0x35E DUP3 PUSH2 0x335 JUMP JUMPDEST SWAP1 POP SWAP2 SWAP1 POP JUMP JUMPDEST PUSH2 0x36E DUP2 PUSH2 0x354 JUMP JUMPDEST DUP2 EQ PUSH2 0x378 JUMPI PUSH0 DUP1 REVERT JUMPDEST POP JUMP JUMPDEST PUSH0 DUP2 MLOAD SWAP1 POP PUSH2 0x389 DUP2 PUSH2 0x365 JUMP JUMPDEST SWAP3 SWAP2 POP POP JUMP JUMPDEST PUSH0 DUP2 SWAP1 POP SWAP2 SWAP1 POP JUMP JUMPDEST PUSH2 0x3A1 DUP2 PUSH2 0x38F JUMP JUMPDEST DUP2 EQ PUSH2 0x3AB JUMPI PUSH0 DUP1 REVERT JUMPDEST POP JUMP JUMPDEST PUSH0 DUP2 MLOAD SWAP1 POP PUSH2 0x3BC DUP2 PUSH2 0x398 JUMP JUMPDEST SWAP3 SWAP2 POP POP JUMP JUMPDEST PUSH0 DUP1 REVERT JUMPDEST PUSH0 DUP1 REVERT JUMPDEST PUSH0 PUSH1 0x1F NOT PUSH1 0x1F DUP4 ADD AND SWAP1 POP SWAP2 SWAP1 POP JUMP JUMPDEST PUSH32 0x4E487B7100000000000000000000000000000000000000000000000000000000 PUSH0 MSTORE PUSH1 0x41 PUSH1 0x4 MSTORE PUSH1 0x24 PUSH0 REVERT JUMPDEST PUSH2 0x410 DUP3 PUSH2 0x3CA JUMP JUMPDEST DUP2 ADD DUP2 DUP2 LT PUSH8 0xFFFFFFFFFFFFFFFF DUP3 GT OR ISZERO PUSH2 0x42F JUMPI PUSH2 0x42E PUSH2 0x3DA JUMP JUMPDEST JUMPDEST DUP1 PUSH1 0x40 MSTORE POP POP POP JUMP JUMPDEST PUSH0 PUSH2 0x441 PUSH2 0x324 JUMP JUMPDEST SWAP1 POP PUSH2 0x44D DUP3 DUP3 PUSH2 0x407 JUMP JUMPDEST SWAP2 SWAP1 POP JUMP JUMPDEST PUSH0 PUSH8 0xFFFFFFFFFFFFFFFF DUP3 GT ISZERO PUSH2 0x46C JUMPI PUSH2 0x46B PUSH2 0x3DA JUMP JUMPDEST JUMPDEST PUSH2 0x475 DUP3 PUSH2 0x3CA JUMP JUMPDEST SWAP1 POP PUSH1 0x20 DUP2 ADD SWAP1 POP SWAP2 SWAP1 POP JUMP JUMPDEST DUP3 DUP2 DUP4 MCOPY PUSH0 DUP4 DUP4 ADD MSTORE POP POP POP JUMP JUMPDEST PUSH0 PUSH2 0x4A2 PUSH2 0x49D DUP5 PUSH2 0x452 JUMP JUMPDEST PUSH2 0x438 JUMP JUMPDEST SWAP1 POP DUP3 DUP2 MSTORE PUSH1 0x20 DUP2 ADD DUP5 DUP5 DUP5 ADD GT ISZERO PUSH2 0x4BE JUMPI PUSH2 0x4BD PUSH2 0x3C6 JUMP JUMPDEST JUMPDEST PUSH2 0x4C9 DUP5 DUP3 DUP6 PUSH2 0x482 JUMP JUMPDEST POP SWAP4 SWAP3 POP POP POP JUMP JUMPDEST PUSH0 DUP3 PUSH1 0x1F DUP4 ADD SLT PUSH2 0x4E5 JUMPI PUSH2 0x4E4 PUSH2 0x3C2 JUMP JUMPDEST JUMPDEST DUP2 MLOAD PUSH2 0x4F5 DUP5 DUP3 PUSH1 0x20 DUP7 ADD PUSH2 0x490 JUMP JUMPDEST SWAP2 POP POP SWAP3 SWAP2 POP POP JUMP JUMPDEST PUSH0 DUP1 PUSH0 DUP1 PUSH0 DUP1 PUSH1 0xC0 DUP8 DUP10 SUB SLT ISZERO PUSH2 0x518 JUMPI PUSH2 0x517 PUSH2 0x32D JUMP JUMPDEST JUMPDEST PUSH0 PUSH2 0x525 DUP10 DUP3 DUP11 ADD PUSH2 0x37B JUMP JUMPDEST SWAP7 POP POP PUSH1 0x20 PUSH2 0x536 DUP10 DUP3 DUP11 ADD PUSH2 0x37B JUMP JUMPDEST SWAP6 POP POP PUSH1 0x40 PUSH2 0x547 DUP10 DUP3 DUP11 ADD PUSH2 0x3AE JUMP JUMPDEST SWAP5 POP POP PUSH1 0x60 DUP8 ADD MLOAD PUSH8 0xFFFFFFFFFFFFFFFF DUP2 GT ISZERO PUSH2 0x568 JUMPI PUSH2 0x567 PUSH2 0x331 JUMP JUMPDEST JUMPDEST PUSH2 0x574 DUP10 DUP3 DUP11 ADD PUSH2 0x4D1 JUMP JUMPDEST SWAP4 POP POP PUSH1 0x80 DUP8 ADD MLOAD PUSH8 0xFFFFFFFFFFFFFFFF DUP2 GT ISZERO PUSH2 0x595 JUMPI PUSH2 0x594 PUSH2 0x331 JUMP JUMPDEST JUMPDEST PUSH2 0x5A1 DUP10 DUP3 DUP11 ADD PUSH2 0x4D1 JUMP JUMPDEST SWAP3 POP POP PUSH1 0xA0 PUSH2 0x5B2 DUP10 DUP3 DUP11 ADD PUSH2 0x37B JUMP JUMPDEST SWAP2 POP POP SWAP3 SWAP6 POP SWAP3 SWAP6 POP SWAP3 SWAP6 JUMP JUMPDEST PUSH0 DUP3 DUP3 MSTORE PUSH1 0x20 DUP3 ADD SWAP1 POP SWAP3 SWAP2 POP POP JUMP JUMPDEST PUSH32 0x496E76616C696420436F756E747269657320636F6E7472616374206164647265 PUSH0 DUP3 ADD MSTORE PUSH32 0x7373000000000000000000000000000000000000000000000000000000000000 PUSH1 0x20 DUP3 ADD MSTORE POP JUMP JUMPDEST PUSH0 PUSH2 0x629 PUSH1 0x22 DUP4 PUSH2 0x5BF JUMP JUMPDEST SWAP2 POP PUSH2 0x634 DUP3 PUSH2 0x5CF JUMP JUMPDEST PUSH1 0x40 DUP3 ADD SWAP1 POP SWAP2 SWAP1 POP JUMP JUMPDEST PUSH0 PUSH1 0x20 DUP3 ADD SWAP1 POP DUP2 DUP2 SUB PUSH0 DUP4 ADD MSTORE PUSH2 0x656 DUP2 PUSH2 0x61D JUMP JUMPDEST SWAP1 POP SWAP2 SWAP1 POP JUMP JUMPDEST PUSH0 DUP2 MLOAD SWAP1 POP SWAP2 SWAP1 POP JUMP JUMPDEST PUSH0 PUSH2 0x671 DUP3 PUSH2 0x65D JUMP JUMPDEST PUSH2 0x67B DUP2 DUP6 PUSH2 0x5BF JUMP JUMPDEST SWAP4 POP PUSH2 0x68B DUP2 DUP6 PUSH1 0x20 DUP7 ADD PUSH2 0x482 JUMP JUMPDEST PUSH2 0x694 DUP2 PUSH2 0x3CA JUMP JUMPDEST DUP5 ADD SWAP2 POP POP SWAP3 SWAP2 POP POP JUMP JUMPDEST PUSH0 PUSH1 0x20 DUP3 ADD SWAP1 POP DUP2 DUP2 SUB PUSH0 DUP4 ADD MSTORE PUSH2 0x6B7 DUP2 DUP5 PUSH2 0x667 JUMP JUMPDEST SWAP1 POP SWAP3 SWAP2 POP POP JUMP JUMPDEST PUSH0 DUP2 ISZERO ISZERO SWAP1 POP SWAP2 SWAP1 POP JUMP JUMPDEST PUSH2 0x6D3 DUP2 PUSH2 0x6BF JUMP JUMPDEST DUP2 EQ PUSH2 0x6DD JUMPI PUSH0 DUP1 REVERT JUMPDEST POP JUMP JUMPDEST PUSH0 DUP2 MLOAD SWAP1 POP PUSH2 0x6EE DUP2 PUSH2 0x6CA JUMP JUMPDEST SWAP3 SWAP2 POP POP JUMP JUMPDEST PUSH0 PUSH1 0x20 DUP3 DUP5 SUB SLT ISZERO PUSH2 0x709 JUMPI PUSH2 0x708 PUSH2 0x32D JUMP JUMPDEST JUMPDEST PUSH0 PUSH2 0x716 DUP5 DUP3 DUP6 ADD PUSH2 0x6E0 JUMP JUMPDEST SWAP2 POP POP SWAP3 SWAP2 POP POP JUMP JUMPDEST PUSH32 0x496E76616C696420706179657220636F756E7472792049534F20636F64650000 PUSH0 DUP3 ADD MSTORE POP JUMP JUMPDEST PUSH0 PUSH2 0x753 PUSH1 0x1E DUP4 PUSH2 0x5BF JUMP JUMPDEST SWAP2 POP PUSH2 0x75E DUP3 PUSH2 0x71F JUMP JUMPDEST PUSH1 0x20 DUP3 ADD SWAP1 POP SWAP2 SWAP1 POP JUMP JUMPDEST PUSH0 PUSH1 0x20 DUP3 ADD SWAP1 POP DUP2 DUP2 SUB PUSH0 DUP4 ADD MSTORE PUSH2 0x780 DUP2 PUSH2 0x747 JUMP JUMPDEST SWAP1 POP SWAP2 SWAP1 POP JUMP JUMPDEST PUSH32 0x496E76616C696420726563697069656E7420636F756E7472792049534F20636F PUSH0 DUP3 ADD MSTORE PUSH32 0x6465000000000000000000000000000000000000000000000000000000000000 PUSH1 0x20 DUP3 ADD MSTORE POP JUMP JUMPDEST PUSH0 PUSH2 0x7E1 PUSH1 0x22 DUP4 PUSH2 0x5BF JUMP JUMPDEST SWAP2 POP PUSH2 0x7EC DUP3 PUSH2 0x787 JUMP JUMPDEST PUSH1 0x40 DUP3 ADD SWAP1 POP SWAP2 SWAP1 POP JUMP JUMPDEST PUSH0 PUSH1 0x20 DUP3 ADD SWAP1 POP DUP2 DUP2 SUB PUSH0 DUP4 ADD MSTORE PUSH2 0x80E DUP2 PUSH2 0x7D5 JUMP JUMPDEST SWAP1 POP SWAP2 SWAP1 POP JUMP JUMPDEST PUSH32 0x4E487B7100000000000000000000000000000000000000000000000000000000 PUSH0 MSTORE PUSH1 0x22 PUSH1 0x4 MSTORE PUSH1 0x24 PUSH0 REVERT JUMPDEST PUSH0 PUSH1 0x2 DUP3 DIV SWAP1 POP PUSH1 0x1 DUP3 AND DUP1 PUSH2 0x859 JUMPI PUSH1 0x7F DUP3 AND SWAP2 POP JUMPDEST PUSH1 0x20 DUP3 LT DUP2 SUB PUSH2 0x86C JUMPI PUSH2 0x86B PUSH2 0x815 JUMP JUMPDEST JUMPDEST POP SWAP2 SWAP1 POP JUMP JUMPDEST PUSH0 DUP2 SWAP1 POP DUP2 PUSH0 MSTORE PUSH1 0x20 PUSH0 KECCAK256 SWAP1 POP SWAP2 SWAP1 POP JUMP JUMPDEST PUSH0 PUSH1 0x20 PUSH1 0x1F DUP4 ADD DIV SWAP1 POP SWAP2 SWAP1 POP JUMP JUMPDEST PUSH0 DUP3 DUP3 SHL SWAP1 POP SWAP3 SWAP2 POP POP JUMP JUMPDEST PUSH0 PUSH1 0x8 DUP4 MUL PUSH2 0x8CE PUSH32 0xFFFFFFFFFFFFFFFFFFFFFFFFFFFFFFFFFFFFFFFFFFFFFFFFFFFFFFFFFFFFFFFF DUP3 PUSH2 0x893 JUMP JUMPDEST PUSH2 0x8D8 DUP7 DUP4 PUSH2 0x893 JUMP JUMPDEST SWAP6 POP DUP1 NOT DUP5 AND SWAP4 POP DUP1 DUP7 AND DUP5 OR SWAP3 POP POP POP SWAP4 SWAP3 POP POP POP JUMP JUMPDEST PUSH0 DUP2 SWAP1 POP SWAP2 SWAP1 POP JUMP JUMPDEST PUSH0 PUSH2 0x913 PUSH2 0x90E PUSH2 0x909 DUP5 PUSH2 0x38F JUMP JUMPDEST PUSH2 0x8F0 JUMP JUMPDEST PUSH2 0x38F JUMP JUMPDEST SWAP1 POP SWAP2 SWAP1 POP JUMP JUMPDEST PUSH0 DUP2 SWAP1 POP SWAP2 SWAP1 POP JUMP JUMPDEST PUSH2 0x92C DUP4 PUSH2 0x8F9 JUMP JUMPDEST PUSH2 0x940 PUSH2 0x938 DUP3 PUSH2 0x91A JUMP JUMPDEST DUP5 DUP5 SLOAD PUSH2 0x89F JUMP JUMPDEST DUP3 SSTORE POP POP POP POP JUMP JUMPDEST PUSH0 SWAP1 JUMP JUMPDEST PUSH2 0x954 PUSH2 0x948 JUMP JUMPDEST PUSH2 0x95F DUP2 DUP5 DUP5 PUSH2 0x923 JUMP JUMPDEST POP POP POP JUMP JUMPDEST JUMPDEST DUP2 DUP2 LT ISZERO PUSH2 0x982 JUMPI PUSH2 0x977 PUSH0 DUP3 PUSH2 0x94C JUMP JUMPDEST PUSH1 0x1 DUP2 ADD SWAP1 POP PUSH2 0x965 JUMP JUMPDEST POP POP JUMP JUMPDEST PUSH1 0x1F DUP3 GT ISZERO PUSH2 0x9C7 JUMPI PUSH2 0x998 DUP2 PUSH2 0x872 JUMP JUMPDEST PUSH2 0x9A1 DUP5 PUSH2 0x884 JUMP JUMPDEST DUP2 ADD PUSH1 0x20 DUP6 LT ISZERO PUSH2 0x9B0 JUMPI DUP2 SWAP1 POP JUMPDEST PUSH2 0x9C4 PUSH2 0x9BC DUP6 PUSH2 0x884 JUMP JUMPDEST DUP4 ADD DUP3 PUSH2 0x964 JUMP JUMPDEST POP POP JUMPDEST POP POP POP JUMP JUMPDEST PUSH0 DUP3 DUP3 SHR SWAP1 POP SWAP3 SWAP2 POP POP JUMP JUMPDEST PUSH0 PUSH2 0x9E7 PUSH0 NOT DUP5 PUSH1 0x8 MUL PUSH2 0x9CC JUMP JUMPDEST NOT DUP1 DUP4 AND SWAP2 POP POP SWAP3 SWAP2 POP POP JUMP JUMPDEST PUSH0 PUSH2 0x9FF DUP4 DUP4 PUSH2 0x9D8 JUMP JUMPDEST SWAP2 POP DUP3 PUSH1 0x2 MUL DUP3 OR SWAP1 POP SWAP3 SWAP2 POP POP JUMP JUMPDEST PUSH2 0xA18 DUP3 PUSH2 0x65D JUMP JUMPDEST PUSH8 0xFFFFFFFFFFFFFFFF DUP2 GT ISZERO PUSH2 0xA31 JUMPI PUSH2 0xA30 PUSH2 0x3DA JUMP JUMPDEST JUMPDEST PUSH2 0xA3B DUP3 SLOAD PUSH2 0x842 JUMP JUMPDEST PUSH2 0xA46 DUP3 DUP3 DUP6 PUSH2 0x986 JUMP JUMPDEST PUSH0 PUSH1 0x20 SWAP1 POP PUSH1 0x1F DUP4 GT PUSH1 0x1 DUP2 EQ PUSH2 0xA77 JUMPI PUSH0 DUP5 ISZERO PUSH2 0xA65 JUMPI DUP3 DUP8 ADD MLOAD SWAP1 POP JUMPDEST PUSH2 0xA6F DUP6 DUP3 PUSH2 0x9F4 JUMP JUMPDEST DUP7 SSTORE POP PUSH2 0xAD6 JUMP JUMPDEST PUSH1 0x1F NOT DUP5 AND PUSH2 0xA85 DUP7 PUSH2 0x872 JUMP JUMPDEST PUSH0 JUMPDEST DUP3 DUP2 LT ISZERO PUSH2 0xAAC JUMPI DUP5 DUP10 ADD MLOAD DUP3 SSTORE PUSH1 0x1 DUP3 ADD SWAP2 POP PUSH1 0x20 DUP6 ADD SWAP5 POP PUSH1 0x20 DUP2 ADD SWAP1 POP PUSH2 0xA87 JUMP JUMPDEST DUP7 DUP4 LT ISZERO PUSH2 0xAC9 JUMPI DUP5 DUP10 ADD MLOAD PUSH2 0xAC5 PUSH1 0x1F DUP10 AND DUP3 PUSH2 0x9D8 JUMP JUMPDEST DUP4 SSTORE POP JUMPDEST PUSH1 0x1 PUSH1 0x2 DUP9 MUL ADD DUP9 SSTORE POP POP POP JUMPDEST POP POP POP POP POP POP JUMP JUMPDEST PUSH2 0x6F8 DUP1 PUSH2 0xAEB PUSH0 CODECOPY PUSH0 RETURN INVALID PUSH1 0x80 PUSH1 0x40 MSTORE PUSH1 0x4 CALLDATASIZE LT PUSH2 0x7A JUMPI PUSH0 CALLDATALOAD PUSH1 0xE0 SHR DUP1 PUSH4 0xAA8C217C GT PUSH2 0x4D JUMPI DUP1 PUSH4 0xAA8C217C EQ PUSH2 0x106 JUMPI DUP1 PUSH4 0xB220FF91 EQ PUSH2 0x130 JUMPI DUP1 PUSH4 0xD321FE29 EQ PUSH2 0x15A JUMPI DUP1 PUSH4 0xE76800E5 EQ PUSH2 0x184 JUMPI PUSH2 0x7A JUMP JUMPDEST DUP1 PUSH4 0x123119CD EQ PUSH2 0x7E JUMPI DUP1 PUSH4 0x1B9265B8 EQ PUSH2 0xA8 JUMPI DUP1 PUSH4 0x214AD5F1 EQ PUSH2 0xB2 JUMPI DUP1 PUSH4 0x66D003AC EQ PUSH2 0xDC JUMPI JUMPDEST PUSH0 DUP1 REVERT JUMPDEST CALLVALUE DUP1 ISZERO PUSH2 0x89 JUMPI PUSH0 DUP1 REVERT JUMPDEST POP PUSH2 0x92 PUSH2 0x1AE JUMP JUMPDEST PUSH1 0x40 MLOAD PUSH2 0x9F SWAP2 SWAP1 PUSH2 0x4BB JUMP JUMPDEST PUSH1 0x40 MLOAD DUP1 SWAP2 SUB SWAP1 RETURN JUMPDEST PUSH2 0xB0 PUSH2 0x1D1 JUMP JUMPDEST STOP JUMPDEST CALLVALUE DUP1 ISZERO PUSH2 0xBD JUMPI PUSH0 DUP1 REVERT JUMPDEST POP PUSH2 0xC6 PUSH2 0x30B JUMP JUMPDEST PUSH1 0x40 MLOAD PUSH2 0xD3 SWAP2 SWAP1 PUSH2 0x544 JUMP JUMPDEST PUSH1 0x40 MLOAD DUP1 SWAP2 SUB SWAP1 RETURN JUMPDEST CALLVALUE DUP1 ISZERO PUSH2 0xE7 JUMPI PUSH0 DUP1 REVERT JUMPDEST POP PUSH2 0xF0 PUSH2 0x397 JUMP JUMPDEST PUSH1 0x40 MLOAD PUSH2 0xFD SWAP2 SWAP1 PUSH2 0x4BB JUMP JUMPDEST PUSH1 0x40 MLOAD DUP1 SWAP2 SUB SWAP1 RETURN JUMPDEST CALLVALUE DUP1 ISZERO PUSH2 0x111 JUMPI PUSH0 DUP1 REVERT JUMPDEST POP PUSH2 0x11A PUSH2 0x3BC JUMP JUMPDEST PUSH1 0x40 MLOAD PUSH2 0x127 SWAP2 SWAP1 PUSH2 0x57C JUMP JUMPDEST PUSH1 0x40 MLOAD DUP1 SWAP2 SUB SWAP1 RETURN JUMPDEST CALLVALUE DUP1 ISZERO PUSH2 0x13B JUMPI PUSH0 DUP1 REVERT JUMPDEST POP PUSH2 0x144 PUSH2 0x3C2 JUMP JUMPDEST PUSH1 0x40 MLOAD PUSH2 0x151 SWAP2 SWAP1 PUSH2 0x4BB JUMP JUMPDEST PUSH1 0x40 MLOAD DUP1 SWAP2 SUB SWAP1 RETURN JUMPDEST CALLVALUE DUP1 ISZERO PUSH2 0x165 JUMPI PUSH0 DUP1 REVERT JUMPDEST POP PUSH2 0x16E PUSH2 0x3E7 JUMP JUMPDEST PUSH1 0x40 MLOAD PUSH2 0x17B SWAP2 SWAP1 PUSH2 0x57C JUMP JUMPDEST PUSH1 0x40 MLOAD DUP1 SWAP2 SUB SWAP1 RETURN JUMPDEST CALLVALUE DUP1 ISZERO PUSH2 0x18F JUMPI PUSH0 DUP1 REVERT JUMPDEST POP PUSH2 0x198 PUSH2 0x3F0 JUMP JUMPDEST PUSH1 0x40 MLOAD PUSH2 0x1A5 SWAP2 SWAP1 PUSH2 0x544 JUMP JUMPDEST PUSH1 0x40 MLOAD DUP1 SWAP2 SUB SWAP1 RETURN JUMPDEST PUSH0 DUP1 SLOAD SWAP1 PUSH2 0x100 EXP SWAP1 DIV PUSH20 0xFFFFFFFFFFFFFFFFFFFFFFFFFFFFFFFFFFFFFFFF AND DUP2 JUMP JUMPDEST PUSH1 0x2 SLOAD CALLVALUE EQ PUSH2 0x215 JUMPI PUSH1 0x40 MLOAD PUSH32 0x8C379A000000000000000000000000000000000000000000000000000000000 DUP2 MSTORE PUSH1 0x4 ADD PUSH2 0x20C SWAP1 PUSH2 0x5DF JUMP JUMPDEST PUSH1 0x40 MLOAD DUP1 SWAP2 SUB SWAP1 REVERT JUMPDEST PUSH0 PUSH20 0xFFFFFFFFFFFFFFFFFFFFFFFFFFFFFFFFFFFFFFFF AND PUSH1 0x1 PUSH0 SWAP1 SLOAD SWAP1 PUSH2 0x100 EXP SWAP1 DIV PUSH20 0xFFFFFFFFFFFFFFFFFFFFFFFFFFFFFFFFFFFFFFFF AND PUSH20 0xFFFFFFFFFFFFFFFFFFFFFFFFFFFFFFFFFFFFFFFF AND SUB PUSH2 0x2A4 JUMPI PUSH1 0x40 MLOAD PUSH32 0x8C379A000000000000000000000000000000000000000000000000000000000 DUP2 MSTORE PUSH1 0x4 ADD PUSH2 0x29B SWAP1 PUSH2 0x647 JUMP JUMPDEST PUSH1 0x40 MLOAD DUP1 SWAP2 SUB SWAP1 REVERT JUMPDEST PUSH1 0x1 PUSH0 SWAP1 SLOAD SWAP1 PUSH2 0x100 EXP SWAP1 DIV PUSH20 0xFFFFFFFFFFFFFFFFFFFFFFFFFFFFFFFFFFFFFFFF AND PUSH20 0xFFFFFFFFFFFFFFFFFFFFFFFFFFFFFFFFFFFFFFFF AND PUSH2 0x8FC CALLVALUE SWAP1 DUP2 ISZERO MUL SWAP1 PUSH1 0x40 MLOAD PUSH0 PUSH1 0x40 MLOAD DUP1 DUP4 SUB DUP2 DUP6 DUP9 DUP9 CALL SWAP4 POP POP POP POP ISZERO DUP1 ISZERO PUSH2 0x308 JUMPI RETURNDATASIZE PUSH0 DUP1 RETURNDATACOPY RETURNDATASIZE PUSH0 REVERT JUMPDEST POP JUMP JUMPDEST PUSH1 0x4 DUP1 SLOAD PUSH2 0x318 SWAP1 PUSH2 0x692 JUMP JUMPDEST DUP1 PUSH1 0x1F ADD PUSH1 0x20 DUP1 SWAP2 DIV MUL PUSH1 0x20 ADD PUSH1 0x40 MLOAD SWAP1 DUP2 ADD PUSH1 0x40 MSTORE DUP1 SWAP3 SWAP2 SWAP1 DUP2 DUP2 MSTORE PUSH1 0x20 ADD DUP3 DUP1 SLOAD PUSH2 0x344 SWAP1 PUSH2 0x692 JUMP JUMPDEST DUP1 ISZERO PUSH2 0x38F JUMPI DUP1 PUSH1 0x1F LT PUSH2 0x366 JUMPI PUSH2 0x100 DUP1 DUP4 SLOAD DIV MUL DUP4 MSTORE SWAP2 PUSH1 0x20 ADD SWAP2 PUSH2 0x38F JUMP JUMPDEST DUP3 ADD SWAP2 SWAP1 PUSH0 MSTORE PUSH1 0x20 PUSH0 KECCAK256 SWAP1 JUMPDEST DUP2 SLOAD DUP2 MSTORE SWAP1 PUSH1 0x1 ADD SWAP1 PUSH1 0x20 ADD DUP1 DUP4 GT PUSH2 0x372 JUMPI DUP3 SWAP1 SUB PUSH1 0x1F AND DUP3 ADD SWAP2 JUMPDEST POP POP POP POP POP DUP2 JUMP JUMPDEST PUSH1 0x1 PUSH0 SWAP1 SLOAD SWAP1 PUSH2 0x100 EXP SWAP1 DIV PUSH20 0xFFFFFFFFFFFFFFFFFFFFFFFFFFFFFFFFFFFFFFFF AND DUP2 JUMP JUMPDEST PUSH1 0x2 SLOAD DUP2 JUMP JUMPDEST PUSH1 0x5 PUSH0 SWAP1 SLOAD SWAP1 PUSH2 0x100 EXP SWAP1 DIV PUSH20 0xFFFFFFFFFFFFFFFFFFFFFFFFFFFFFFFFFFFFFFFF AND DUP2 JUMP JUMPDEST PUSH0 PUSH1 0x2 SLOAD SWAP1 POP SWAP1 JUMP JUMPDEST PUSH1 0x3 DUP1 SLOAD PUSH2 0x3FD SWAP1 PUSH2 0x692 JUMP JUMPDEST DUP1 PUSH1 0x1F ADD PUSH1 0x20 DUP1 SWAP2 DIV MUL PUSH1 0x20 ADD PUSH1 0x40 MLOAD SWAP1 DUP2 ADD PUSH1 0x40 MSTORE DUP1 SWAP3 SWAP2 SWAP1 DUP2 DUP2 MSTORE PUSH1 0x20 ADD DUP3 DUP1 SLOAD PUSH2 0x429 SWAP1 PUSH2 0x692 JUMP JUMPDEST DUP1 ISZERO PUSH2 0x474 JUMPI DUP1 PUSH1 0x1F LT PUSH2 0x44B JUMPI PUSH2 0x100 DUP1 DUP4 SLOAD DIV MUL DUP4 MSTORE SWAP2 PUSH1 0x20 ADD SWAP2 PUSH2 0x474 JUMP JUMPDEST DUP3 ADD SWAP2 SWAP1 PUSH0 MSTORE PUSH1 0x20 PUSH0 KECCAK256 SWAP1 JUMPDEST DUP2 SLOAD DUP2 MSTORE SWAP1 PUSH1 0x1 ADD SWAP1 PUSH1 0x20 ADD DUP1 DUP4 GT PUSH2 0x457 JUMPI DUP3 SWAP1 SUB PUSH1 0x1F AND DUP3 ADD SWAP2 JUMPDEST POP POP POP POP POP DUP2 JUMP JUMPDEST PUSH0 PUSH20 0xFFFFFFFFFFFFFFFFFFFFFFFFFFFFFFFFFFFFFFFF DUP3 AND SWAP1 POP SWAP2 SWAP1 POP JUMP JUMPDEST PUSH0 PUSH2 0x4A5 DUP3 PUSH2 0x47C JUMP JUMPDEST SWAP1 POP SWAP2 SWAP1 POP JUMP JUMPDEST PUSH2 0x4B5 DUP2 PUSH2 0x49B JUMP JUMPDEST DUP3 MSTORE POP POP JUMP JUMPDEST PUSH0 PUSH1 0x20 DUP3 ADD SWAP1 POP PUSH2 0x4CE PUSH0 DUP4 ADD DUP5 PUSH2 0x4AC JUMP JUMPDEST SWAP3 SWAP2 POP POP JUMP JUMPDEST PUSH0 DUP2 MLOAD SWAP1 POP SWAP2 SWAP1 POP JUMP JUMPDEST PUSH0 DUP3 DUP3 MSTORE PUSH1 0x20 DUP3 ADD SWAP1 POP SWAP3 SWAP2 POP POP JUMP JUMPDEST DUP3 DUP2 DUP4 MCOPY PUSH0 DUP4 DUP4 ADD MSTORE POP POP POP JUMP JUMPDEST PUSH0 PUSH1 0x1F NOT PUSH1 0x1F DUP4 ADD AND SWAP1 POP SWAP2 SWAP1 POP JUMP JUMPDEST PUSH0 PUSH2 0x516 DUP3 PUSH2 0x4D4 JUMP JUMPDEST PUSH2 0x520 DUP2 DUP6 PUSH2 0x4DE JUMP JUMPDEST SWAP4 POP PUSH2 0x530 DUP2 DUP6 PUSH1 0x20 DUP7 ADD PUSH2 0x4EE JUMP JUMPDEST PUSH2 0x539 DUP2 PUSH2 0x4FC JUMP JUMPDEST DUP5 ADD SWAP2 POP POP SWAP3 SWAP2 POP POP JUMP JUMPDEST PUSH0 PUSH1 0x20 DUP3 ADD SWAP1 POP DUP2 DUP2 SUB PUSH0 DUP4 ADD MSTORE PUSH2 0x55C DUP2 DUP5 PUSH2 0x50C JUMP JUMPDEST SWAP1 POP SWAP3 SWAP2 POP POP JUMP JUMPDEST PUSH0 DUP2 SWAP1 POP SWAP2 SWAP1 POP JUMP JUMPDEST PUSH2 0x576 DUP2 PUSH2 0x564 JUMP JUMPDEST DUP3 MSTORE POP POP JUMP JUMPDEST PUSH0 PUSH1 0x20 DUP3 ADD SWAP1 POP PUSH2 0x58F PUSH0 DUP4 ADD DUP5 PUSH2 0x56D JUMP JUMPDEST SWAP3 SWAP2 POP POP JUMP JUMPDEST PUSH32 0x496E636F7272656374207061796D656E7420616D6F756E740000000000000000 PUSH0 DUP3 ADD MSTORE POP JUMP JUMPDEST PUSH0 PUSH2 0x5C9 PUSH1 0x18 DUP4 PUSH2 0x4DE JUMP JUMPDEST SWAP2 POP PUSH2 0x5D4 DUP3 PUSH2 0x595 JUMP JUMPDEST PUSH1 0x20 DUP3 ADD SWAP1 POP SWAP2 SWAP1 POP JUMP JUMPDEST PUSH0 PUSH1 0x20 DUP3 ADD SWAP1 POP DUP2 DUP2 SUB PUSH0 DUP4 ADD MSTORE PUSH2 0x5F6 DUP2 PUSH2 0x5BD JUMP JUMPDEST SWAP1 POP SWAP2 SWAP1 POP JUMP JUMPDEST PUSH32 0x496E76616C696420726563697069656E74206164647265737300000000000000 PUSH0 DUP3 ADD MSTORE POP JUMP JUMPDEST PUSH0 PUSH2 0x631 PUSH1 0x19 DUP4 PUSH2 0x4DE JUMP JUMPDEST SWAP2 POP PUSH2 0x63C DUP3 PUSH2 0x5FD JUMP JUMPDEST PUSH1 0x20 DUP3 ADD SWAP1 POP SWAP2 SWAP1 POP JUMP JUMPDEST PUSH0 PUSH1 0x20 DUP3 ADD SWAP1 POP DUP2 DUP2 SUB PUSH0 DUP4 ADD MSTORE PUSH2 0x65E DUP2 PUSH2 0x625 JUMP JUMPDEST SWAP1 POP SWAP2 SWAP1 POP JUMP JUMPDEST PUSH32 0x4E487B7100000000000000000000000000000000000000000000000000000000 PUSH0 MSTORE PUSH1 0x22 PUSH1 0x4 MSTORE PUSH1 0x24 PUSH0 REVERT JUMPDEST PUSH0 PUSH1 0x2 DUP3 DIV SWAP1 POP PUSH1 0x1 DUP3 AND DUP1 PUSH2 0x6A9 JUMPI PUSH1 0x7F DUP3 AND SWAP2 POP JUMPDEST PUSH1 0x20 DUP3 LT DUP2 SUB PUSH2 0x6BC JUMPI PUSH2 0x6BB PUSH2 0x665 JUMP JUMPDEST JUMPDEST POP SWAP2 SWAP1 POP JUMP INVALID LOG2 PUSH5 0x6970667358 0x22 SLT KECCAK256 PUSH17 0xE27E8F6C2CD478A40EE3C995E38E0FA032 MSTORE 0xAF 0xDB 0xEA SELFBALANCE 0x4D SHL 0xC7 0xD0 0xE9 LOG2 0xBF 0xD1 LOG0 PUSH5 0x736F6C6343 STOP ADDMOD BYTE STOP CALLER "
				},
				"gasEstimates": {
					"creation": {
						"codeDepositCost": "356800",
						"executionCost": "infinite",
						"totalCost": "infinite"
					},
					"external": {
						"amount()": "2425",
						"countriesContract()": "2530",
						"getAmount()": "2476",
						"pay()": "infinite",
						"payer()": "2506",
						"payerCountry()": "infinite",
						"recipient()": "2575",
						"recipientCountry()": "infinite"
					}
				},
				"methodIdentifiers": {
					"amount()": "aa8c217c",
					"countriesContract()": "b220ff91",
					"getAmount()": "d321fe29",
					"pay()": "1b9265b8",
					"payer()": "123119cd",
					"payerCountry()": "e76800e5",
					"recipient()": "66d003ac",
					"recipientCountry()": "214ad5f1"
				}
			},
			"storageLayout": {
				"storage": [
					{
						"astId": 919,
						"contract": "Contracts/Payment.sol:Payment",
						"label": "payer",
						"offset": 0,
						"slot": "0",
						"type": "t_address"
					},
					{
						"astId": 921,
						"contract": "Contracts/Payment.sol:Payment",
						"label": "recipient",
						"offset": 0,
						"slot": "1",
						"type": "t_address"
					},
					{
						"astId": 923,
						"contract": "Contracts/Payment.sol:Payment",
						"label": "amount",
						"offset": 0,
						"slot": "2",
						"type": "t_uint256"
					},
					{
						"astId": 925,
						"contract": "Contracts/Payment.sol:Payment",
						"label": "payerCountry",
						"offset": 0,
						"slot": "3",
						"type": "t_string_storage"
					},
					{
						"astId": 927,
						"contract": "Contracts/Payment.sol:Payment",
						"label": "recipientCountry",
						"offset": 0,
						"slot": "4",
						"type": "t_string_storage"
					},
					{
						"astId": 929,
						"contract": "Contracts/Payment.sol:Payment",
						"label": "countriesContract",
						"offset": 0,
						"slot": "5",
						"type": "t_address"
					}
				],
				"types": {
					"t_address": {
						"encoding": "inplace",
						"label": "address",
						"numberOfBytes": "20"
					},
					"t_string_storage": {
						"encoding": "bytes",
						"label": "string",
						"numberOfBytes": "32"
					},
					"t_uint256": {
						"encoding": "inplace",
						"label": "uint256",
						"numberOfBytes": "32"
					}
				}
			},
			"userdoc": {
				"kind": "user",
				"methods": {},
				"version": 1
			}
		}
	}
}