{
	"Contracts/Countries.sol": {
		"Countries": {
			"abi": [
				{
					"inputs": [],
					"stateMutability": "nonpayable",
					"type": "constructor"
				},
				{
					"inputs": [
						{
							"internalType": "uint256",
							"name": "",
							"type": "uint256"
						}
					],
					"name": "countryISOCodes",
					"outputs": [
						{
							"internalType": "string",
							"name": "",
							"type": "string"
						}
					],
					"stateMutability": "view",
					"type": "function"
				},
				{
					"inputs": [
						{
							"internalType": "string",
							"name": "",
							"type": "string"
						}
					],
					"name": "countryToISO",
					"outputs": [
						{
							"internalType": "string",
							"name": "",
							"type": "string"
						}
					],
					"stateMutability": "view",
					"type": "function"
				},
				{
					"inputs": [
						{
							"internalType": "string",
							"name": "countryName",
							"type": "string"
						}
					],
					"name": "getISOCode",
					"outputs": [
						{
							"internalType": "string",
							"name": "",
							"type": "string"
						}
					],
					"stateMutability": "view",
					"type": "function"
				},
				{
					"inputs": [
						{
							"internalType": "string",
							"name": "countryISOCode",
							"type": "string"
						}
					],
					"name": "isValidISOCode",
					"outputs": [
						{
							"internalType": "bool",
							"name": "",
							"type": "bool"
						}
					],
					"stateMutability": "view",
					"type": "function"
				}
			],
			"devdoc": {
				"kind": "dev",
				"methods": {
					"getISOCode(string)": {
						"details": "Retrieve the ISO code for a given country name.",
						"params": {
							"countryName": "The name of the country."
						},
						"returns": {
							"_0": "The ISO code of the country."
						}
					}
				},
				"version": 1
			},
			"evm": {
				"assembly": "    /* \"Contracts/Countries.sol\":57:8900  contract Countries {... */\n  mstore(0x40, 0x80)\n    /* \"Contracts/Countries.sol\":330:8245  constructor() {... */\n  callvalue\n  dup1\n  iszero\n  tag_1\n  jumpi\n  0x00\n  dup1\n  revert\ntag_1:\n  pop\n    /* \"Contracts/Countries.sol\":354:383  Country[194] memory countries */\n  0x00\n    /* \"Contracts/Countries.sol\":354:8053  Country[194] memory countries = [... */\n  mload(0x40)\n  dup1\n  0x1840\n  add\n  0x40\n  mstore\n  dup1\n    /* \"Contracts/Countries.sol\":400:428  Country(\"Afghanistan\", \"AF\") */\n  mload(0x40)\n  dup1\n  0x40\n  add\n  0x40\n  mstore\n  dup1\n  mload(0x40)\n  dup1\n  0x40\n  add\n  0x40\n  mstore\n  dup1\n  0x0b\n  dup2\n  mstore\n  0x20\n  add\n  0x41666768616e697374616e000000000000000000000000000000000000000000\n  dup2\n  mstore\n  pop\n  dup2\n  mstore\n  0x20\n  add\n  mload(0x40)\n  dup1\n  0x40\n  add\n  0x40\n  mstore\n  dup1\n  0x02\n  dup2\n  mstore\n  0x20\n  add\n  0x4146000000000000000000000000000000000000000000000000000000000000\n  dup2\n  mstore\n  pop\n  dup2\n  mstore\n  pop\n    /* \"Contracts/Countries.sol\":354:8053  Country[194] memory countries = [... */\n  dup2\n  mstore\n  0x20\n  add\n    /* \"Contracts/Countries.sol\":442:466  Country(\"Albania\", \"AL\") */\n  mload(0x40)\n  dup1\n  0x40\n  add\n  0x40\n  mstore\n  dup1\n  mload(0x40)\n  dup1\n  0x40\n  add\n  0x40\n  mstore\n  dup1\n  0x07\n  dup2\n  mstore\n  0x20\n  add\n  0x416c62616e696100000000000000000000000000000000000000000000000000\n  dup2\n  mstore\n  pop\n  dup2\n  mstore\n  0x20\n  add\n  mload(0x40)\n  dup1\n  0x40\n  add\n  0x40\n  mstore\n  dup1\n  0x02\n  dup2\n  mstore\n  0x20\n  add\n  0x414c000000000000000000000000000000000000000000000000000000000000\n  dup2\n  mstore\n  pop\n  dup2\n  mstore\n  pop\n    /* \"Contracts/Countries.sol\":354:8053  Country[194] memory countries = [... */\n  dup2\n  mstore\n  0x20\n  add\n    /* \"Contracts/Countries.sol\":480:504  Country(\"Algeria\", \"DZ\") */\n  mload(0x40)\n  dup1\n  0x40\n  add\n  0x40\n  mstore\n  dup1\n  mload(0x40)\n  dup1\n  0x40\n  add\n  0x40\n  mstore\n  dup1\n  0x07\n  dup2\n  mstore\n  0x20\n  add\n  0x416c676572696100000000000000000000000000000000000000000000000000\n  dup2\n  mstore\n  pop\n  dup2\n  mstore\n  0x20\n  add\n  mload(0x40)\n  dup1\n  0x40\n  add\n  0x40\n  mstore\n  dup1\n  0x02\n  dup2\n  mstore\n  0x20\n  add\n  0x445a000000000000000000000000000000000000000000000000000000000000\n  dup2\n  mstore\n  pop\n  dup2\n  mstore\n  pop\n    /* \"Contracts/Countries.sol\":354:8053  Country[194] memory countries = [... */\n  dup2\n  mstore\n  0x20\n  add\n    /* \"Contracts/Countries.sol\":518:542  Country(\"Andorra\", \"AD\") */\n  mload(0x40)\n  dup1\n  0x40\n  add\n  0x40\n  mstore\n  dup1\n  mload(0x40)\n  dup1\n  0x40\n  add\n  0x40\n  mstore\n  dup1\n  0x07\n  dup2\n  mstore\n  0x20\n  add\n  0x416e646f72726100000000000000000000000000000000000000000000000000\n  dup2\n  mstore\n  pop\n  dup2\n  mstore\n  0x20\n  add\n  mload(0x40)\n  dup1\n  0x40\n  add\n  0x40\n  mstore\n  dup1\n  0x02\n  dup2\n  mstore\n  0x20\n  add\n  0x4144000000000000000000000000000000000000000000000000000000000000\n  dup2\n  mstore\n  pop\n  dup2\n  mstore\n  pop\n    /* \"Contracts/Countries.sol\":354:8053  Country[194] memory countries = [... */\n  dup2\n  mstore\n  0x20\n  add\n    /* \"Contracts/Countries.sol\":556:579  Country(\"Angola\", \"AO\") */\n  mload(0x40)\n  dup1\n  0x40\n  add\n  0x40\n  mstore\n  dup1\n  mload(0x40)\n  dup1\n  0x40\n  add\n  0x40\n  mstore\n  dup1\n  0x06\n  dup2\n  mstore\n  0x20\n  add\n  0x416e676f6c610000000000000000000000000000000000000000000000000000\n  dup2\n  mstore\n  pop\n  dup2\n  mstore\n  0x20\n  add\n  mload(0x40)\n  dup1\n  0x40\n  add\n  0x40\n  mstore\n  dup1\n  0x02\n  dup2\n  mstore\n  0x20\n  add\n  0x414f000000000000000000000000000000000000000000000000000000000000\n  dup2\n  mstore\n  pop\n  dup2\n  mstore\n  pop\n    /* \"Contracts/Countries.sol\":354:8053  Country[194] memory countries = [... */\n  dup2\n  mstore\n  0x20\n  add\n    /* \"Contracts/Countries.sol\":593:629  Country(\"Antigua and Barbuda\", \"AG\") */\n  mload(0x40)\n  dup1\n  0x40\n  add\n  0x40\n  mstore\n  dup1\n  mload(0x40)\n  dup1\n  0x40\n  add\n  0x40\n  mstore\n  dup1\n  0x13\n  dup2\n  mstore\n  0x20\n  add\n  0x416e746967756120616e64204261726275646100000000000000000000000000\n  dup2\n  mstore\n  pop\n  dup2\n  mstore\n  0x20\n  add\n  mload(0x40)\n  dup1\n  0x40\n  add\n  0x40\n  mstore\n  dup1\n  0x02\n  dup2\n  mstore\n  0x20\n  add\n  0x4147000000000000000000000000000000000000000000000000000000000000\n  dup2\n  mstore\n  pop\n  dup2\n  mstore\n  pop\n    /* \"Contracts/Countries.sol\":354:8053  Country[194] memory countries = [... */\n  dup2\n  mstore\n  0x20\n  add\n    /* \"Contracts/Countries.sol\":643:669  Country(\"Argentina\", \"AR\") */\n  mload(0x40)\n  dup1\n  0x40\n  add\n  0x40\n  mstore\n  dup1\n  mload(0x40)\n  dup1\n  0x40\n  add\n  0x40\n  mstore\n  dup1\n  0x09\n  dup2\n  mstore\n  0x20\n  add\n  0x417267656e74696e610000000000000000000000000000000000000000000000\n  dup2\n  mstore\n  pop\n  dup2\n  mstore\n  0x20\n  add\n  mload(0x40)\n  dup1\n  0x40\n  add\n  0x40\n  mstore\n  dup1\n  0x02\n  dup2\n  mstore\n  0x20\n  add\n  0x4152000000000000000000000000000000000000000000000000000000000000\n  dup2\n  mstore\n  pop\n  dup2\n  mstore\n  pop\n    /* \"Contracts/Countries.sol\":354:8053  Country[194] memory countries = [... */\n  dup2\n  mstore\n  0x20\n  add\n    /* \"Contracts/Countries.sol\":683:707  Country(\"Armenia\", \"AM\") */\n  mload(0x40)\n  dup1\n  0x40\n  add\n  0x40\n  mstore\n  dup1\n  mload(0x40)\n  dup1\n  0x40\n  add\n  0x40\n  mstore\n  dup1\n  0x07\n  dup2\n  mstore\n  0x20\n  add\n  0x41726d656e696100000000000000000000000000000000000000000000000000\n  dup2\n  mstore\n  pop\n  dup2\n  mstore\n  0x20\n  add\n  mload(0x40)\n  dup1\n  0x40\n  add\n  0x40\n  mstore\n  dup1\n  0x02\n  dup2\n  mstore\n  0x20\n  add\n  0x414d000000000000000000000000000000000000000000000000000000000000\n  dup2\n  mstore\n  pop\n  dup2\n  mstore\n  pop\n    /* \"Contracts/Countries.sol\":354:8053  Country[194] memory countries = [... */\n  dup2\n  mstore\n  0x20\n  add\n    /* \"Contracts/Countries.sol\":721:747  Country(\"Australia\", \"AU\") */\n  mload(0x40)\n  dup1\n  0x40\n  add\n  0x40\n  mstore\n  dup1\n  mload(0x40)\n  dup1\n  0x40\n  add\n  0x40\n  mstore\n  dup1\n  0x09\n  dup2\n  mstore\n  0x20\n  add\n  0x4175737472616c69610000000000000000000000000000000000000000000000\n  dup2\n  mstore\n  pop\n  dup2\n  mstore\n  0x20\n  add\n  mload(0x40)\n  dup1\n  0x40\n  add\n  0x40\n  mstore\n  dup1\n  0x02\n  dup2\n  mstore\n  0x20\n  add\n  0x4155000000000000000000000000000000000000000000000000000000000000\n  dup2\n  mstore\n  pop\n  dup2\n  mstore\n  pop\n    /* \"Contracts/Countries.sol\":354:8053  Country[194] memory countries = [... */\n  dup2\n  mstore\n  0x20\n  add\n    /* \"Contracts/Countries.sol\":761:785  Country(\"Austria\", \"AT\") */\n  mload(0x40)\n  dup1\n  0x40\n  add\n  0x40\n  mstore\n  dup1\n  mload(0x40)\n  dup1\n  0x40\n  add\n  0x40\n  mstore\n  dup1\n  0x07\n  dup2\n  mstore\n  0x20\n  add\n  0x4175737472696100000000000000000000000000000000000000000000000000\n  dup2\n  mstore\n  pop\n  dup2\n  mstore\n  0x20\n  add\n  mload(0x40)\n  dup1\n  0x40\n  add\n  0x40\n  mstore\n  dup1\n  0x02\n  dup2\n  mstore\n  0x20\n  add\n  0x4154000000000000000000000000000000000000000000000000000000000000\n  dup2\n  mstore\n  pop\n  dup2\n  mstore\n  pop\n    /* \"Contracts/Countries.sol\":354:8053  Country[194] memory countries = [... */\n  dup2\n  mstore\n  0x20\n  add\n    /* \"Contracts/Countries.sol\":799:826  Country(\"Azerbaijan\", \"AZ\") */\n  mload(0x40)\n  dup1\n  0x40\n  add\n  0x40\n  mstore\n  dup1\n  mload(0x40)\n  dup1\n  0x40\n  add\n  0x40\n  mstore\n  dup1\n  0x0a\n  dup2\n  mstore\n  0x20\n  add\n  0x417a65726261696a616e00000000000000000000000000000000000000000000\n  dup2\n  mstore\n  pop\n  dup2\n  mstore\n  0x20\n  add\n  mload(0x40)\n  dup1\n  0x40\n  add\n  0x40\n  mstore\n  dup1\n  0x02\n  dup2\n  mstore\n  0x20\n  add\n  0x415a000000000000000000000000000000000000000000000000000000000000\n  dup2\n  mstore\n  pop\n  dup2\n  mstore\n  pop\n    /* \"Contracts/Countries.sol\":354:8053  Country[194] memory countries = [... */\n  dup2\n  mstore\n  0x20\n  add\n    /* \"Contracts/Countries.sol\":840:864  Country(\"Bahamas\", \"BS\") */\n  mload(0x40)\n  dup1\n  0x40\n  add\n  0x40\n  mstore\n  dup1\n  mload(0x40)\n  dup1\n  0x40\n  add\n  0x40\n  mstore\n  dup1\n  0x07\n  dup2\n  mstore\n  0x20\n  add\n  0x426168616d617300000000000000000000000000000000000000000000000000\n  dup2\n  mstore\n  pop\n  dup2\n  mstore\n  0x20\n  add\n  mload(0x40)\n  dup1\n  0x40\n  add\n  0x40\n  mstore\n  dup1\n  0x02\n  dup2\n  mstore\n  0x20\n  add\n  0x4253000000000000000000000000000000000000000000000000000000000000\n  dup2\n  mstore\n  pop\n  dup2\n  mstore\n  pop\n    /* \"Contracts/Countries.sol\":354:8053  Country[194] memory countries = [... */\n  dup2\n  mstore\n  0x20\n  add\n    /* \"Contracts/Countries.sol\":878:902  Country(\"Bahrain\", \"BH\") */\n  mload(0x40)\n  dup1\n  0x40\n  add\n  0x40\n  mstore\n  dup1\n  mload(0x40)\n  dup1\n  0x40\n  add\n  0x40\n  mstore\n  dup1\n  0x07\n  dup2\n  mstore\n  0x20\n  add\n  0x4261687261696e00000000000000000000000000000000000000000000000000\n  dup2\n  mstore\n  pop\n  dup2\n  mstore\n  0x20\n  add\n  mload(0x40)\n  dup1\n  0x40\n  add\n  0x40\n  mstore\n  dup1\n  0x02\n  dup2\n  mstore\n  0x20\n  add\n  0x4248000000000000000000000000000000000000000000000000000000000000\n  dup2\n  mstore\n  pop\n  dup2\n  mstore\n  pop\n    /* \"Contracts/Countries.sol\":354:8053  Country[194] memory countries = [... */\n  dup2\n  mstore\n  0x20\n  add\n    /* \"Contracts/Countries.sol\":916:943  Country(\"Bangladesh\", \"BD\") */\n  mload(0x40)\n  dup1\n  0x40\n  add\n  0x40\n  mstore\n  dup1\n  mload(0x40)\n  dup1\n  0x40\n  add\n  0x40\n  mstore\n  dup1\n  0x0a\n  dup2\n  mstore\n  0x20\n  add\n  0x42616e676c616465736800000000000000000000000000000000000000000000\n  dup2\n  mstore\n  pop\n  dup2\n  mstore\n  0x20\n  add\n  mload(0x40)\n  dup1\n  0x40\n  add\n  0x40\n  mstore\n  dup1\n  0x02\n  dup2\n  mstore\n  0x20\n  add\n  0x4244000000000000000000000000000000000000000000000000000000000000\n  dup2\n  mstore\n  pop\n  dup2\n  mstore\n  pop\n    /* \"Contracts/Countries.sol\":354:8053  Country[194] memory countries = [... */\n  dup2\n  mstore\n  0x20\n  add\n    /* \"Contracts/Countries.sol\":957:982  Country(\"Barbados\", \"BB\") */\n  mload(0x40)\n  dup1\n  0x40\n  add\n  0x40\n  mstore\n  dup1\n  mload(0x40)\n  dup1\n  0x40\n  add\n  0x40\n  mstore\n  dup1\n  0x08\n  dup2\n  mstore\n  0x20\n  add\n  0x4261726261646f73000000000000000000000000000000000000000000000000\n  dup2\n  mstore\n  pop\n  dup2\n  mstore\n  0x20\n  add\n  mload(0x40)\n  dup1\n  0x40\n  add\n  0x40\n  mstore\n  dup1\n  0x02\n  dup2\n  mstore\n  0x20\n  add\n  0x4242000000000000000000000000000000000000000000000000000000000000\n  dup2\n  mstore\n  pop\n  dup2\n  mstore\n  pop\n    /* \"Contracts/Countries.sol\":354:8053  Country[194] memory countries = [... */\n  dup2\n  mstore\n  0x20\n  add\n    /* \"Contracts/Countries.sol\":996:1020  Country(\"Belarus\", \"BY\") */\n  mload(0x40)\n  dup1\n  0x40\n  add\n  0x40\n  mstore\n  dup1\n  mload(0x40)\n  dup1\n  0x40\n  add\n  0x40\n  mstore\n  dup1\n  0x07\n  dup2\n  mstore\n  0x20\n  add\n  0x42656c6172757300000000000000000000000000000000000000000000000000\n  dup2\n  mstore\n  pop\n  dup2\n  mstore\n  0x20\n  add\n  mload(0x40)\n  dup1\n  0x40\n  add\n  0x40\n  mstore\n  dup1\n  0x02\n  dup2\n  mstore\n  0x20\n  add\n  0x4259000000000000000000000000000000000000000000000000000000000000\n  dup2\n  mstore\n  pop\n  dup2\n  mstore\n  pop\n    /* \"Contracts/Countries.sol\":354:8053  Country[194] memory countries = [... */\n  dup2\n  mstore\n  0x20\n  add\n    /* \"Contracts/Countries.sol\":1034:1058  Country(\"Belgium\", \"BE\") */\n  mload(0x40)\n  dup1\n  0x40\n  add\n  0x40\n  mstore\n  dup1\n  mload(0x40)\n  dup1\n  0x40\n  add\n  0x40\n  mstore\n  dup1\n  0x07\n  dup2\n  mstore\n  0x20\n  add\n  0x42656c6769756d00000000000000000000000000000000000000000000000000\n  dup2\n  mstore\n  pop\n  dup2\n  mstore\n  0x20\n  add\n  mload(0x40)\n  dup1\n  0x40\n  add\n  0x40\n  mstore\n  dup1\n  0x02\n  dup2\n  mstore\n  0x20\n  add\n  0x4245000000000000000000000000000000000000000000000000000000000000\n  dup2\n  mstore\n  pop\n  dup2\n  mstore\n  pop\n    /* \"Contracts/Countries.sol\":354:8053  Country[194] memory countries = [... */\n  dup2\n  mstore\n  0x20\n  add\n    /* \"Contracts/Countries.sol\":1072:1095  Country(\"Belize\", \"BZ\") */\n  mload(0x40)\n  dup1\n  0x40\n  add\n  0x40\n  mstore\n  dup1\n  mload(0x40)\n  dup1\n  0x40\n  add\n  0x40\n  mstore\n  dup1\n  0x06\n  dup2\n  mstore\n  0x20\n  add\n  0x42656c697a650000000000000000000000000000000000000000000000000000\n  dup2\n  mstore\n  pop\n  dup2\n  mstore\n  0x20\n  add\n  mload(0x40)\n  dup1\n  0x40\n  add\n  0x40\n  mstore\n  dup1\n  0x02\n  dup2\n  mstore\n  0x20\n  add\n  0x425a000000000000000000000000000000000000000000000000000000000000\n  dup2\n  mstore\n  pop\n  dup2\n  mstore\n  pop\n    /* \"Contracts/Countries.sol\":354:8053  Country[194] memory countries = [... */\n  dup2\n  mstore\n  0x20\n  add\n    /* \"Contracts/Countries.sol\":1109:1131  Country(\"Benin\", \"BJ\") */\n  mload(0x40)\n  dup1\n  0x40\n  add\n  0x40\n  mstore\n  dup1\n  mload(0x40)\n  dup1\n  0x40\n  add\n  0x40\n  mstore\n  dup1\n  0x05\n  dup2\n  mstore\n  0x20\n  add\n  0x42656e696e000000000000000000000000000000000000000000000000000000\n  dup2\n  mstore\n  pop\n  dup2\n  mstore\n  0x20\n  add\n  mload(0x40)\n  dup1\n  0x40\n  add\n  0x40\n  mstore\n  dup1\n  0x02\n  dup2\n  mstore\n  0x20\n  add\n  0x424a000000000000000000000000000000000000000000000000000000000000\n  dup2\n  mstore\n  pop\n  dup2\n  mstore\n  pop\n    /* \"Contracts/Countries.sol\":354:8053  Country[194] memory countries = [... */\n  dup2\n  mstore\n  0x20\n  add\n    /* \"Contracts/Countries.sol\":1145:1168  Country(\"Bhutan\", \"BT\") */\n  mload(0x40)\n  dup1\n  0x40\n  add\n  0x40\n  mstore\n  dup1\n  mload(0x40)\n  dup1\n  0x40\n  add\n  0x40\n  mstore\n  dup1\n  0x06\n  dup2\n  mstore\n  0x20\n  add\n  0x42687574616e0000000000000000000000000000000000000000000000000000\n  dup2\n  mstore\n  pop\n  dup2\n  mstore\n  0x20\n  add\n  mload(0x40)\n  dup1\n  0x40\n  add\n  0x40\n  mstore\n  dup1\n  0x02\n  dup2\n  mstore\n  0x20\n  add\n  0x4254000000000000000000000000000000000000000000000000000000000000\n  dup2\n  mstore\n  pop\n  dup2\n  mstore\n  pop\n    /* \"Contracts/Countries.sol\":354:8053  Country[194] memory countries = [... */\n  dup2\n  mstore\n  0x20\n  add\n    /* \"Contracts/Countries.sol\":1182:1206  Country(\"Bolivia\", \"BO\") */\n  mload(0x40)\n  dup1\n  0x40\n  add\n  0x40\n  mstore\n  dup1\n  mload(0x40)\n  dup1\n  0x40\n  add\n  0x40\n  mstore\n  dup1\n  0x07\n  dup2\n  mstore\n  0x20\n  add\n  0x426f6c6976696100000000000000000000000000000000000000000000000000\n  dup2\n  mstore\n  pop\n  dup2\n  mstore\n  0x20\n  add\n  mload(0x40)\n  dup1\n  0x40\n  add\n  0x40\n  mstore\n  dup1\n  0x02\n  dup2\n  mstore\n  0x20\n  add\n  0x424f000000000000000000000000000000000000000000000000000000000000\n  dup2\n  mstore\n  pop\n  dup2\n  mstore\n  pop\n    /* \"Contracts/Countries.sol\":354:8053  Country[194] memory countries = [... */\n  dup2\n  mstore\n  0x20\n  add\n    /* \"Contracts/Countries.sol\":1220:1259  Country(\"Bosnia and Herzegovina\", \"BA\") */\n  mload(0x40)\n  dup1\n  0x40\n  add\n  0x40\n  mstore\n  dup1\n  mload(0x40)\n  dup1\n  0x40\n  add\n  0x40\n  mstore\n  dup1\n  0x16\n  dup2\n  mstore\n  0x20\n  add\n  0x426f736e696120616e64204865727a65676f76696e6100000000000000000000\n  dup2\n  mstore\n  pop\n  dup2\n  mstore\n  0x20\n  add\n  mload(0x40)\n  dup1\n  0x40\n  add\n  0x40\n  mstore\n  dup1\n  0x02\n  dup2\n  mstore\n  0x20\n  add\n  0x4241000000000000000000000000000000000000000000000000000000000000\n  dup2\n  mstore\n  pop\n  dup2\n  mstore\n  pop\n    /* \"Contracts/Countries.sol\":354:8053  Country[194] memory countries = [... */\n  dup2\n  mstore\n  0x20\n  add\n    /* \"Contracts/Countries.sol\":1273:1298  Country(\"Botswana\", \"BW\") */\n  mload(0x40)\n  dup1\n  0x40\n  add\n  0x40\n  mstore\n  dup1\n  mload(0x40)\n  dup1\n  0x40\n  add\n  0x40\n  mstore\n  dup1\n  0x08\n  dup2\n  mstore\n  0x20\n  add\n  0x426f747377616e61000000000000000000000000000000000000000000000000\n  dup2\n  mstore\n  pop\n  dup2\n  mstore\n  0x20\n  add\n  mload(0x40)\n  dup1\n  0x40\n  add\n  0x40\n  mstore\n  dup1\n  0x02\n  dup2\n  mstore\n  0x20\n  add\n  0x4257000000000000000000000000000000000000000000000000000000000000\n  dup2\n  mstore\n  pop\n  dup2\n  mstore\n  pop\n    /* \"Contracts/Countries.sol\":354:8053  Country[194] memory countries = [... */\n  dup2\n  mstore\n  0x20\n  add\n    /* \"Contracts/Countries.sol\":1312:1335  Country(\"Brazil\", \"BR\") */\n  mload(0x40)\n  dup1\n  0x40\n  add\n  0x40\n  mstore\n  dup1\n  mload(0x40)\n  dup1\n  0x40\n  add\n  0x40\n  mstore\n  dup1\n  0x06\n  dup2\n  mstore\n  0x20\n  add\n  0x4272617a696c0000000000000000000000000000000000000000000000000000\n  dup2\n  mstore\n  pop\n  dup2\n  mstore\n  0x20\n  add\n  mload(0x40)\n  dup1\n  0x40\n  add\n  0x40\n  mstore\n  dup1\n  0x02\n  dup2\n  mstore\n  0x20\n  add\n  0x4252000000000000000000000000000000000000000000000000000000000000\n  dup2\n  mstore\n  pop\n  dup2\n  mstore\n  pop\n    /* \"Contracts/Countries.sol\":354:8053  Country[194] memory countries = [... */\n  dup2\n  mstore\n  0x20\n  add\n    /* \"Contracts/Countries.sol\":1349:1372  Country(\"Brunei\", \"BN\") */\n  mload(0x40)\n  dup1\n  0x40\n  add\n  0x40\n  mstore\n  dup1\n  mload(0x40)\n  dup1\n  0x40\n  add\n  0x40\n  mstore\n  dup1\n  0x06\n  dup2\n  mstore\n  0x20\n  add\n  0x4272756e65690000000000000000000000000000000000000000000000000000\n  dup2\n  mstore\n  pop\n  dup2\n  mstore\n  0x20\n  add\n  mload(0x40)\n  dup1\n  0x40\n  add\n  0x40\n  mstore\n  dup1\n  0x02\n  dup2\n  mstore\n  0x20\n  add\n  0x424e000000000000000000000000000000000000000000000000000000000000\n  dup2\n  mstore\n  pop\n  dup2\n  mstore\n  pop\n    /* \"Contracts/Countries.sol\":354:8053  Country[194] memory countries = [... */\n  dup2\n  mstore\n  0x20\n  add\n    /* \"Contracts/Countries.sol\":1386:1411  Country(\"Bulgaria\", \"BG\") */\n  mload(0x40)\n  dup1\n  0x40\n  add\n  0x40\n  mstore\n  dup1\n  mload(0x40)\n  dup1\n  0x40\n  add\n  0x40\n  mstore\n  dup1\n  0x08\n  dup2\n  mstore\n  0x20\n  add\n  0x42756c6761726961000000000000000000000000000000000000000000000000\n  dup2\n  mstore\n  pop\n  dup2\n  mstore\n  0x20\n  add\n  mload(0x40)\n  dup1\n  0x40\n  add\n  0x40\n  mstore\n  dup1\n  0x02\n  dup2\n  mstore\n  0x20\n  add\n  0x4247000000000000000000000000000000000000000000000000000000000000\n  dup2\n  mstore\n  pop\n  dup2\n  mstore\n  pop\n    /* \"Contracts/Countries.sol\":354:8053  Country[194] memory countries = [... */\n  dup2\n  mstore\n  0x20\n  add\n    /* \"Contracts/Countries.sol\":1425:1454  Country(\"Burkina Faso\", \"BF\") */\n  mload(0x40)\n  dup1\n  0x40\n  add\n  0x40\n  mstore\n  dup1\n  mload(0x40)\n  dup1\n  0x40\n  add\n  0x40\n  mstore\n  dup1\n  0x0c\n  dup2\n  mstore\n  0x20\n  add\n  0x4275726b696e61204661736f0000000000000000000000000000000000000000\n  dup2\n  mstore\n  pop\n  dup2\n  mstore\n  0x20\n  add\n  mload(0x40)\n  dup1\n  0x40\n  add\n  0x40\n  mstore\n  dup1\n  0x02\n  dup2\n  mstore\n  0x20\n  add\n  0x4246000000000000000000000000000000000000000000000000000000000000\n  dup2\n  mstore\n  pop\n  dup2\n  mstore\n  pop\n    /* \"Contracts/Countries.sol\":354:8053  Country[194] memory countries = [... */\n  dup2\n  mstore\n  0x20\n  add\n    /* \"Contracts/Countries.sol\":1468:1492  Country(\"Burundi\", \"BI\") */\n  mload(0x40)\n  dup1\n  0x40\n  add\n  0x40\n  mstore\n  dup1\n  mload(0x40)\n  dup1\n  0x40\n  add\n  0x40\n  mstore\n  dup1\n  0x07\n  dup2\n  mstore\n  0x20\n  add\n  0x427572756e646900000000000000000000000000000000000000000000000000\n  dup2\n  mstore\n  pop\n  dup2\n  mstore\n  0x20\n  add\n  mload(0x40)\n  dup1\n  0x40\n  add\n  0x40\n  mstore\n  dup1\n  0x02\n  dup2\n  mstore\n  0x20\n  add\n  0x4249000000000000000000000000000000000000000000000000000000000000\n  dup2\n  mstore\n  pop\n  dup2\n  mstore\n  pop\n    /* \"Contracts/Countries.sol\":354:8053  Country[194] memory countries = [... */\n  dup2\n  mstore\n  0x20\n  add\n    /* \"Contracts/Countries.sol\":1506:1533  Country(\"Cabo Verde\", \"CV\") */\n  mload(0x40)\n  dup1\n  0x40\n  add\n  0x40\n  mstore\n  dup1\n  mload(0x40)\n  dup1\n  0x40\n  add\n  0x40\n  mstore\n  dup1\n  0x0a\n  dup2\n  mstore\n  0x20\n  add\n  0x4361626f20566572646500000000000000000000000000000000000000000000\n  dup2\n  mstore\n  pop\n  dup2\n  mstore\n  0x20\n  add\n  mload(0x40)\n  dup1\n  0x40\n  add\n  0x40\n  mstore\n  dup1\n  0x02\n  dup2\n  mstore\n  0x20\n  add\n  0x4356000000000000000000000000000000000000000000000000000000000000\n  dup2\n  mstore\n  pop\n  dup2\n  mstore\n  pop\n    /* \"Contracts/Countries.sol\":354:8053  Country[194] memory countries = [... */\n  dup2\n  mstore\n  0x20\n  add\n    /* \"Contracts/Countries.sol\":1547:1572  Country(\"Cambodia\", \"KH\") */\n  mload(0x40)\n  dup1\n  0x40\n  add\n  0x40\n  mstore\n  dup1\n  mload(0x40)\n  dup1\n  0x40\n  add\n  0x40\n  mstore\n  dup1\n  0x08\n  dup2\n  mstore\n  0x20\n  add\n  0x43616d626f646961000000000000000000000000000000000000000000000000\n  dup2\n  mstore\n  pop\n  dup2\n  mstore\n  0x20\n  add\n  mload(0x40)\n  dup1\n  0x40\n  add\n  0x40\n  mstore\n  dup1\n  0x02\n  dup2\n  mstore\n  0x20\n  add\n  0x4b48000000000000000000000000000000000000000000000000000000000000\n  dup2\n  mstore\n  pop\n  dup2\n  mstore\n  pop\n    /* \"Contracts/Countries.sol\":354:8053  Country[194] memory countries = [... */\n  dup2\n  mstore\n  0x20\n  add\n    /* \"Contracts/Countries.sol\":1586:1611  Country(\"Cameroon\", \"CM\") */\n  mload(0x40)\n  dup1\n  0x40\n  add\n  0x40\n  mstore\n  dup1\n  mload(0x40)\n  dup1\n  0x40\n  add\n  0x40\n  mstore\n  dup1\n  0x08\n  dup2\n  mstore\n  0x20\n  add\n  0x43616d65726f6f6e000000000000000000000000000000000000000000000000\n  dup2\n  mstore\n  pop\n  dup2\n  mstore\n  0x20\n  add\n  mload(0x40)\n  dup1\n  0x40\n  add\n  0x40\n  mstore\n  dup1\n  0x02\n  dup2\n  mstore\n  0x20\n  add\n  0x434d000000000000000000000000000000000000000000000000000000000000\n  dup2\n  mstore\n  pop\n  dup2\n  mstore\n  pop\n    /* \"Contracts/Countries.sol\":354:8053  Country[194] memory countries = [... */\n  dup2\n  mstore\n  0x20\n  add\n    /* \"Contracts/Countries.sol\":1625:1648  Country(\"Canada\", \"CA\") */\n  mload(0x40)\n  dup1\n  0x40\n  add\n  0x40\n  mstore\n  dup1\n  mload(0x40)\n  dup1\n  0x40\n  add\n  0x40\n  mstore\n  dup1\n  0x06\n  dup2\n  mstore\n  0x20\n  add\n  0x43616e6164610000000000000000000000000000000000000000000000000000\n  dup2\n  mstore\n  pop\n  dup2\n  mstore\n  0x20\n  add\n  mload(0x40)\n  dup1\n  0x40\n  add\n  0x40\n  mstore\n  dup1\n  0x02\n  dup2\n  mstore\n  0x20\n  add\n  0x4341000000000000000000000000000000000000000000000000000000000000\n  dup2\n  mstore\n  pop\n  dup2\n  mstore\n  pop\n    /* \"Contracts/Countries.sol\":354:8053  Country[194] memory countries = [... */\n  dup2\n  mstore\n  0x20\n  add\n    /* \"Contracts/Countries.sol\":1662:1703  Country(\"Central African Republic\", \"CF\") */\n  mload(0x40)\n  dup1\n  0x40\n  add\n  0x40\n  mstore\n  dup1\n  mload(0x40)\n  dup1\n  0x40\n  add\n  0x40\n  mstore\n  dup1\n  0x18\n  dup2\n  mstore\n  0x20\n  add\n  0x43656e7472616c204166726963616e2052657075626c69630000000000000000\n  dup2\n  mstore\n  pop\n  dup2\n  mstore\n  0x20\n  add\n  mload(0x40)\n  dup1\n  0x40\n  add\n  0x40\n  mstore\n  dup1\n  0x02\n  dup2\n  mstore\n  0x20\n  add\n  0x4346000000000000000000000000000000000000000000000000000000000000\n  dup2\n  mstore\n  pop\n  dup2\n  mstore\n  pop\n    /* \"Contracts/Countries.sol\":354:8053  Country[194] memory countries = [... */\n  dup2\n  mstore\n  0x20\n  add\n    /* \"Contracts/Countries.sol\":1717:1738  Country(\"Chad\", \"TD\") */\n  mload(0x40)\n  dup1\n  0x40\n  add\n  0x40\n  mstore\n  dup1\n  mload(0x40)\n  dup1\n  0x40\n  add\n  0x40\n  mstore\n  dup1\n  0x04\n  dup2\n  mstore\n  0x20\n  add\n  0x4368616400000000000000000000000000000000000000000000000000000000\n  dup2\n  mstore\n  pop\n  dup2\n  mstore\n  0x20\n  add\n  mload(0x40)\n  dup1\n  0x40\n  add\n  0x40\n  mstore\n  dup1\n  0x02\n  dup2\n  mstore\n  0x20\n  add\n  0x5444000000000000000000000000000000000000000000000000000000000000\n  dup2\n  mstore\n  pop\n  dup2\n  mstore\n  pop\n    /* \"Contracts/Countries.sol\":354:8053  Country[194] memory countries = [... */\n  dup2\n  mstore\n  0x20\n  add\n    /* \"Contracts/Countries.sol\":1752:1774  Country(\"Chile\", \"CL\") */\n  mload(0x40)\n  dup1\n  0x40\n  add\n  0x40\n  mstore\n  dup1\n  mload(0x40)\n  dup1\n  0x40\n  add\n  0x40\n  mstore\n  dup1\n  0x05\n  dup2\n  mstore\n  0x20\n  add\n  0x4368696c65000000000000000000000000000000000000000000000000000000\n  dup2\n  mstore\n  pop\n  dup2\n  mstore\n  0x20\n  add\n  mload(0x40)\n  dup1\n  0x40\n  add\n  0x40\n  mstore\n  dup1\n  0x02\n  dup2\n  mstore\n  0x20\n  add\n  0x434c000000000000000000000000000000000000000000000000000000000000\n  dup2\n  mstore\n  pop\n  dup2\n  mstore\n  pop\n    /* \"Contracts/Countries.sol\":354:8053  Country[194] memory countries = [... */\n  dup2\n  mstore\n  0x20\n  add\n    /* \"Contracts/Countries.sol\":1788:1810  Country(\"China\", \"CN\") */\n  mload(0x40)\n  dup1\n  0x40\n  add\n  0x40\n  mstore\n  dup1\n  mload(0x40)\n  dup1\n  0x40\n  add\n  0x40\n  mstore\n  dup1\n  0x05\n  dup2\n  mstore\n  0x20\n  add\n  0x4368696e61000000000000000000000000000000000000000000000000000000\n  dup2\n  mstore\n  pop\n  dup2\n  mstore\n  0x20\n  add\n  mload(0x40)\n  dup1\n  0x40\n  add\n  0x40\n  mstore\n  dup1\n  0x02\n  dup2\n  mstore\n  0x20\n  add\n  0x434e000000000000000000000000000000000000000000000000000000000000\n  dup2\n  mstore\n  pop\n  dup2\n  mstore\n  pop\n    /* \"Contracts/Countries.sol\":354:8053  Country[194] memory countries = [... */\n  dup2\n  mstore\n  0x20\n  add\n    /* \"Contracts/Countries.sol\":1824:1849  Country(\"Colombia\", \"CO\") */\n  mload(0x40)\n  dup1\n  0x40\n  add\n  0x40\n  mstore\n  dup1\n  mload(0x40)\n  dup1\n  0x40\n  add\n  0x40\n  mstore\n  dup1\n  0x08\n  dup2\n  mstore\n  0x20\n  add\n  0x436f6c6f6d626961000000000000000000000000000000000000000000000000\n  dup2\n  mstore\n  pop\n  dup2\n  mstore\n  0x20\n  add\n  mload(0x40)\n  dup1\n  0x40\n  add\n  0x40\n  mstore\n  dup1\n  0x02\n  dup2\n  mstore\n  0x20\n  add\n  0x434f000000000000000000000000000000000000000000000000000000000000\n  dup2\n  mstore\n  pop\n  dup2\n  mstore\n  pop\n    /* \"Contracts/Countries.sol\":354:8053  Country[194] memory countries = [... */\n  dup2\n  mstore\n  0x20\n  add\n    /* \"Contracts/Countries.sol\":1863:1887  Country(\"Comoros\", \"KM\") */\n  mload(0x40)\n  dup1\n  0x40\n  add\n  0x40\n  mstore\n  dup1\n  mload(0x40)\n  dup1\n  0x40\n  add\n  0x40\n  mstore\n  dup1\n  0x07\n  dup2\n  mstore\n  0x20\n  add\n  0x436f6d6f726f7300000000000000000000000000000000000000000000000000\n  dup2\n  mstore\n  pop\n  dup2\n  mstore\n  0x20\n  add\n  mload(0x40)\n  dup1\n  0x40\n  add\n  0x40\n  mstore\n  dup1\n  0x02\n  dup2\n  mstore\n  0x20\n  add\n  0x4b4d000000000000000000000000000000000000000000000000000000000000\n  dup2\n  mstore\n  pop\n  dup2\n  mstore\n  pop\n    /* \"Contracts/Countries.sol\":354:8053  Country[194] memory countries = [... */\n  dup2\n  mstore\n  0x20\n  add\n    /* \"Contracts/Countries.sol\":1901:1943  Country(\"Congo (Congo-Brazzaville)\", \"CG\") */\n  mload(0x40)\n  dup1\n  0x40\n  add\n  0x40\n  mstore\n  dup1\n  mload(0x40)\n  dup1\n  0x40\n  add\n  0x40\n  mstore\n  dup1\n  0x19\n  dup2\n  mstore\n  0x20\n  add\n  0x436f6e676f2028436f6e676f2d4272617a7a6176696c6c652900000000000000\n  dup2\n  mstore\n  pop\n  dup2\n  mstore\n  0x20\n  add\n  mload(0x40)\n  dup1\n  0x40\n  add\n  0x40\n  mstore\n  dup1\n  0x02\n  dup2\n  mstore\n  0x20\n  add\n  0x4347000000000000000000000000000000000000000000000000000000000000\n  dup2\n  mstore\n  pop\n  dup2\n  mstore\n  pop\n    /* \"Contracts/Countries.sol\":354:8053  Country[194] memory countries = [... */\n  dup2\n  mstore\n  0x20\n  add\n    /* \"Contracts/Countries.sol\":1957:1985  Country(\"Congo (DRC)\", \"CD\") */\n  mload(0x40)\n  dup1\n  0x40\n  add\n  0x40\n  mstore\n  dup1\n  mload(0x40)\n  dup1\n  0x40\n  add\n  0x40\n  mstore\n  dup1\n  0x0b\n  dup2\n  mstore\n  0x20\n  add\n  0x436f6e676f202844524329000000000000000000000000000000000000000000\n  dup2\n  mstore\n  pop\n  dup2\n  mstore\n  0x20\n  add\n  mload(0x40)\n  dup1\n  0x40\n  add\n  0x40\n  mstore\n  dup1\n  0x02\n  dup2\n  mstore\n  0x20\n  add\n  0x4344000000000000000000000000000000000000000000000000000000000000\n  dup2\n  mstore\n  pop\n  dup2\n  mstore\n  pop\n    /* \"Contracts/Countries.sol\":354:8053  Country[194] memory countries = [... */\n  dup2\n  mstore\n  0x20\n  add\n    /* \"Contracts/Countries.sol\":1999:2026  Country(\"Costa Rica\", \"CR\") */\n  mload(0x40)\n  dup1\n  0x40\n  add\n  0x40\n  mstore\n  dup1\n  mload(0x40)\n  dup1\n  0x40\n  add\n  0x40\n  mstore\n  dup1\n  0x0a\n  dup2\n  mstore\n  0x20\n  add\n  0x436f737461205269636100000000000000000000000000000000000000000000\n  dup2\n  mstore\n  pop\n  dup2\n  mstore\n  0x20\n  add\n  mload(0x40)\n  dup1\n  0x40\n  add\n  0x40\n  mstore\n  dup1\n  0x02\n  dup2\n  mstore\n  0x20\n  add\n  0x4352000000000000000000000000000000000000000000000000000000000000\n  dup2\n  mstore\n  pop\n  dup2\n  mstore\n  pop\n    /* \"Contracts/Countries.sol\":354:8053  Country[194] memory countries = [... */\n  dup2\n  mstore\n  0x20\n  add\n    /* \"Contracts/Countries.sol\":2040:2064  Country(\"Croatia\", \"HR\") */\n  mload(0x40)\n  dup1\n  0x40\n  add\n  0x40\n  mstore\n  dup1\n  mload(0x40)\n  dup1\n  0x40\n  add\n  0x40\n  mstore\n  dup1\n  0x07\n  dup2\n  mstore\n  0x20\n  add\n  0x43726f6174696100000000000000000000000000000000000000000000000000\n  dup2\n  mstore\n  pop\n  dup2\n  mstore\n  0x20\n  add\n  mload(0x40)\n  dup1\n  0x40\n  add\n  0x40\n  mstore\n  dup1\n  0x02\n  dup2\n  mstore\n  0x20\n  add\n  0x4852000000000000000000000000000000000000000000000000000000000000\n  dup2\n  mstore\n  pop\n  dup2\n  mstore\n  pop\n    /* \"Contracts/Countries.sol\":354:8053  Country[194] memory countries = [... */\n  dup2\n  mstore\n  0x20\n  add\n    /* \"Contracts/Countries.sol\":2078:2099  Country(\"Cuba\", \"CU\") */\n  mload(0x40)\n  dup1\n  0x40\n  add\n  0x40\n  mstore\n  dup1\n  mload(0x40)\n  dup1\n  0x40\n  add\n  0x40\n  mstore\n  dup1\n  0x04\n  dup2\n  mstore\n  0x20\n  add\n  0x4375626100000000000000000000000000000000000000000000000000000000\n  dup2\n  mstore\n  pop\n  dup2\n  mstore\n  0x20\n  add\n  mload(0x40)\n  dup1\n  0x40\n  add\n  0x40\n  mstore\n  dup1\n  0x02\n  dup2\n  mstore\n  0x20\n  add\n  0x4355000000000000000000000000000000000000000000000000000000000000\n  dup2\n  mstore\n  pop\n  dup2\n  mstore\n  pop\n    /* \"Contracts/Countries.sol\":354:8053  Country[194] memory countries = [... */\n  dup2\n  mstore\n  0x20\n  add\n    /* \"Contracts/Countries.sol\":2113:2136  Country(\"Cyprus\", \"CY\") */\n  mload(0x40)\n  dup1\n  0x40\n  add\n  0x40\n  mstore\n  dup1\n  mload(0x40)\n  dup1\n  0x40\n  add\n  0x40\n  mstore\n  dup1\n  0x06\n  dup2\n  mstore\n  0x20\n  add\n  0x4379707275730000000000000000000000000000000000000000000000000000\n  dup2\n  mstore\n  pop\n  dup2\n  mstore\n  0x20\n  add\n  mload(0x40)\n  dup1\n  0x40\n  add\n  0x40\n  mstore\n  dup1\n  0x02\n  dup2\n  mstore\n  0x20\n  add\n  0x4359000000000000000000000000000000000000000000000000000000000000\n  dup2\n  mstore\n  pop\n  dup2\n  mstore\n  pop\n    /* \"Contracts/Countries.sol\":354:8053  Country[194] memory countries = [... */\n  dup2\n  mstore\n  0x20\n  add\n    /* \"Contracts/Countries.sol\":2150:2174  Country(\"Czechia\", \"CZ\") */\n  mload(0x40)\n  dup1\n  0x40\n  add\n  0x40\n  mstore\n  dup1\n  mload(0x40)\n  dup1\n  0x40\n  add\n  0x40\n  mstore\n  dup1\n  0x07\n  dup2\n  mstore\n  0x20\n  add\n  0x437a656368696100000000000000000000000000000000000000000000000000\n  dup2\n  mstore\n  pop\n  dup2\n  mstore\n  0x20\n  add\n  mload(0x40)\n  dup1\n  0x40\n  add\n  0x40\n  mstore\n  dup1\n  0x02\n  dup2\n  mstore\n  0x20\n  add\n  0x435a000000000000000000000000000000000000000000000000000000000000\n  dup2\n  mstore\n  pop\n  dup2\n  mstore\n  pop\n    /* \"Contracts/Countries.sol\":354:8053  Country[194] memory countries = [... */\n  dup2\n  mstore\n  0x20\n  add\n    /* \"Contracts/Countries.sol\":2188:2212  Country(\"Denmark\", \"DK\") */\n  mload(0x40)\n  dup1\n  0x40\n  add\n  0x40\n  mstore\n  dup1\n  mload(0x40)\n  dup1\n  0x40\n  add\n  0x40\n  mstore\n  dup1\n  0x07\n  dup2\n  mstore\n  0x20\n  add\n  0x44656e6d61726b00000000000000000000000000000000000000000000000000\n  dup2\n  mstore\n  pop\n  dup2\n  mstore\n  0x20\n  add\n  mload(0x40)\n  dup1\n  0x40\n  add\n  0x40\n  mstore\n  dup1\n  0x02\n  dup2\n  mstore\n  0x20\n  add\n  0x444b000000000000000000000000000000000000000000000000000000000000\n  dup2\n  mstore\n  pop\n  dup2\n  mstore\n  pop\n    /* \"Contracts/Countries.sol\":354:8053  Country[194] memory countries = [... */\n  dup2\n  mstore\n  0x20\n  add\n    /* \"Contracts/Countries.sol\":2226:2251  Country(\"Djibouti\", \"DJ\") */\n  mload(0x40)\n  dup1\n  0x40\n  add\n  0x40\n  mstore\n  dup1\n  mload(0x40)\n  dup1\n  0x40\n  add\n  0x40\n  mstore\n  dup1\n  0x08\n  dup2\n  mstore\n  0x20\n  add\n  0x446a69626f757469000000000000000000000000000000000000000000000000\n  dup2\n  mstore\n  pop\n  dup2\n  mstore\n  0x20\n  add\n  mload(0x40)\n  dup1\n  0x40\n  add\n  0x40\n  mstore\n  dup1\n  0x02\n  dup2\n  mstore\n  0x20\n  add\n  0x444a000000000000000000000000000000000000000000000000000000000000\n  dup2\n  mstore\n  pop\n  dup2\n  mstore\n  pop\n    /* \"Contracts/Countries.sol\":354:8053  Country[194] memory countries = [... */\n  dup2\n  mstore\n  0x20\n  add\n    /* \"Contracts/Countries.sol\":2265:2290  Country(\"Dominica\", \"DM\") */\n  mload(0x40)\n  dup1\n  0x40\n  add\n  0x40\n  mstore\n  dup1\n  mload(0x40)\n  dup1\n  0x40\n  add\n  0x40\n  mstore\n  dup1\n  0x08\n  dup2\n  mstore\n  0x20\n  add\n  0x446f6d696e696361000000000000000000000000000000000000000000000000\n  dup2\n  mstore\n  pop\n  dup2\n  mstore\n  0x20\n  add\n  mload(0x40)\n  dup1\n  0x40\n  add\n  0x40\n  mstore\n  dup1\n  0x02\n  dup2\n  mstore\n  0x20\n  add\n  0x444d000000000000000000000000000000000000000000000000000000000000\n  dup2\n  mstore\n  pop\n  dup2\n  mstore\n  pop\n    /* \"Contracts/Countries.sol\":354:8053  Country[194] memory countries = [... */\n  dup2\n  mstore\n  0x20\n  add\n    /* \"Contracts/Countries.sol\":2304:2339  Country(\"Dominican Republic\", \"DO\") */\n  mload(0x40)\n  dup1\n  0x40\n  add\n  0x40\n  mstore\n  dup1\n  mload(0x40)\n  dup1\n  0x40\n  add\n  0x40\n  mstore\n  dup1\n  0x12\n  dup2\n  mstore\n  0x20\n  add\n  0x446f6d696e6963616e2052657075626c69630000000000000000000000000000\n  dup2\n  mstore\n  pop\n  dup2\n  mstore\n  0x20\n  add\n  mload(0x40)\n  dup1\n  0x40\n  add\n  0x40\n  mstore\n  dup1\n  0x02\n  dup2\n  mstore\n  0x20\n  add\n  0x444f000000000000000000000000000000000000000000000000000000000000\n  dup2\n  mstore\n  pop\n  dup2\n  mstore\n  pop\n    /* \"Contracts/Countries.sol\":354:8053  Country[194] memory countries = [... */\n  dup2\n  mstore\n  0x20\n  add\n    /* \"Contracts/Countries.sol\":2353:2377  Country(\"Ecuador\", \"EC\") */\n  mload(0x40)\n  dup1\n  0x40\n  add\n  0x40\n  mstore\n  dup1\n  mload(0x40)\n  dup1\n  0x40\n  add\n  0x40\n  mstore\n  dup1\n  0x07\n  dup2\n  mstore\n  0x20\n  add\n  0x45637561646f7200000000000000000000000000000000000000000000000000\n  dup2\n  mstore\n  pop\n  dup2\n  mstore\n  0x20\n  add\n  mload(0x40)\n  dup1\n  0x40\n  add\n  0x40\n  mstore\n  dup1\n  0x02\n  dup2\n  mstore\n  0x20\n  add\n  0x4543000000000000000000000000000000000000000000000000000000000000\n  dup2\n  mstore\n  pop\n  dup2\n  mstore\n  pop\n    /* \"Contracts/Countries.sol\":354:8053  Country[194] memory countries = [... */\n  dup2\n  mstore\n  0x20\n  add\n    /* \"Contracts/Countries.sol\":2391:2413  Country(\"Egypt\", \"EG\") */\n  mload(0x40)\n  dup1\n  0x40\n  add\n  0x40\n  mstore\n  dup1\n  mload(0x40)\n  dup1\n  0x40\n  add\n  0x40\n  mstore\n  dup1\n  0x05\n  dup2\n  mstore\n  0x20\n  add\n  0x4567797074000000000000000000000000000000000000000000000000000000\n  dup2\n  mstore\n  pop\n  dup2\n  mstore\n  0x20\n  add\n  mload(0x40)\n  dup1\n  0x40\n  add\n  0x40\n  mstore\n  dup1\n  0x02\n  dup2\n  mstore\n  0x20\n  add\n  0x4547000000000000000000000000000000000000000000000000000000000000\n  dup2\n  mstore\n  pop\n  dup2\n  mstore\n  pop\n    /* \"Contracts/Countries.sol\":354:8053  Country[194] memory countries = [... */\n  dup2\n  mstore\n  0x20\n  add\n    /* \"Contracts/Countries.sol\":2427:2455  Country(\"El Salvador\", \"SV\") */\n  mload(0x40)\n  dup1\n  0x40\n  add\n  0x40\n  mstore\n  dup1\n  mload(0x40)\n  dup1\n  0x40\n  add\n  0x40\n  mstore\n  dup1\n  0x0b\n  dup2\n  mstore\n  0x20\n  add\n  0x456c2053616c7661646f72000000000000000000000000000000000000000000\n  dup2\n  mstore\n  pop\n  dup2\n  mstore\n  0x20\n  add\n  mload(0x40)\n  dup1\n  0x40\n  add\n  0x40\n  mstore\n  dup1\n  0x02\n  dup2\n  mstore\n  0x20\n  add\n  0x5356000000000000000000000000000000000000000000000000000000000000\n  dup2\n  mstore\n  pop\n  dup2\n  mstore\n  pop\n    /* \"Contracts/Countries.sol\":354:8053  Country[194] memory countries = [... */\n  dup2\n  mstore\n  0x20\n  add\n    /* \"Contracts/Countries.sol\":2469:2503  Country(\"Equatorial Guinea\", \"GQ\") */\n  mload(0x40)\n  dup1\n  0x40\n  add\n  0x40\n  mstore\n  dup1\n  mload(0x40)\n  dup1\n  0x40\n  add\n  0x40\n  mstore\n  dup1\n  0x11\n  dup2\n  mstore\n  0x20\n  add\n  0x45717561746f7269616c204775696e6561000000000000000000000000000000\n  dup2\n  mstore\n  pop\n  dup2\n  mstore\n  0x20\n  add\n  mload(0x40)\n  dup1\n  0x40\n  add\n  0x40\n  mstore\n  dup1\n  0x02\n  dup2\n  mstore\n  0x20\n  add\n  0x4751000000000000000000000000000000000000000000000000000000000000\n  dup2\n  mstore\n  pop\n  dup2\n  mstore\n  pop\n    /* \"Contracts/Countries.sol\":354:8053  Country[194] memory countries = [... */\n  dup2\n  mstore\n  0x20\n  add\n    /* \"Contracts/Countries.sol\":2517:2541  Country(\"Eritrea\", \"ER\") */\n  mload(0x40)\n  dup1\n  0x40\n  add\n  0x40\n  mstore\n  dup1\n  mload(0x40)\n  dup1\n  0x40\n  add\n  0x40\n  mstore\n  dup1\n  0x07\n  dup2\n  mstore\n  0x20\n  add\n  0x4572697472656100000000000000000000000000000000000000000000000000\n  dup2\n  mstore\n  pop\n  dup2\n  mstore\n  0x20\n  add\n  mload(0x40)\n  dup1\n  0x40\n  add\n  0x40\n  mstore\n  dup1\n  0x02\n  dup2\n  mstore\n  0x20\n  add\n  0x4552000000000000000000000000000000000000000000000000000000000000\n  dup2\n  mstore\n  pop\n  dup2\n  mstore\n  pop\n    /* \"Contracts/Countries.sol\":354:8053  Country[194] memory countries = [... */\n  dup2\n  mstore\n  0x20\n  add\n    /* \"Contracts/Countries.sol\":2555:2579  Country(\"Estonia\", \"EE\") */\n  mload(0x40)\n  dup1\n  0x40\n  add\n  0x40\n  mstore\n  dup1\n  mload(0x40)\n  dup1\n  0x40\n  add\n  0x40\n  mstore\n  dup1\n  0x07\n  dup2\n  mstore\n  0x20\n  add\n  0x4573746f6e696100000000000000000000000000000000000000000000000000\n  dup2\n  mstore\n  pop\n  dup2\n  mstore\n  0x20\n  add\n  mload(0x40)\n  dup1\n  0x40\n  add\n  0x40\n  mstore\n  dup1\n  0x02\n  dup2\n  mstore\n  0x20\n  add\n  0x4545000000000000000000000000000000000000000000000000000000000000\n  dup2\n  mstore\n  pop\n  dup2\n  mstore\n  pop\n    /* \"Contracts/Countries.sol\":354:8053  Country[194] memory countries = [... */\n  dup2\n  mstore\n  0x20\n  add\n    /* \"Contracts/Countries.sol\":2593:2618  Country(\"Eswatini\", \"SZ\") */\n  mload(0x40)\n  dup1\n  0x40\n  add\n  0x40\n  mstore\n  dup1\n  mload(0x40)\n  dup1\n  0x40\n  add\n  0x40\n  mstore\n  dup1\n  0x08\n  dup2\n  mstore\n  0x20\n  add\n  0x4573776174696e69000000000000000000000000000000000000000000000000\n  dup2\n  mstore\n  pop\n  dup2\n  mstore\n  0x20\n  add\n  mload(0x40)\n  dup1\n  0x40\n  add\n  0x40\n  mstore\n  dup1\n  0x02\n  dup2\n  mstore\n  0x20\n  add\n  0x535a000000000000000000000000000000000000000000000000000000000000\n  dup2\n  mstore\n  pop\n  dup2\n  mstore\n  pop\n    /* \"Contracts/Countries.sol\":354:8053  Country[194] memory countries = [... */\n  dup2\n  mstore\n  0x20\n  add\n    /* \"Contracts/Countries.sol\":2632:2657  Country(\"Ethiopia\", \"ET\") */\n  mload(0x40)\n  dup1\n  0x40\n  add\n  0x40\n  mstore\n  dup1\n  mload(0x40)\n  dup1\n  0x40\n  add\n  0x40\n  mstore\n  dup1\n  0x08\n  dup2\n  mstore\n  0x20\n  add\n  0x457468696f706961000000000000000000000000000000000000000000000000\n  dup2\n  mstore\n  pop\n  dup2\n  mstore\n  0x20\n  add\n  mload(0x40)\n  dup1\n  0x40\n  add\n  0x40\n  mstore\n  dup1\n  0x02\n  dup2\n  mstore\n  0x20\n  add\n  0x4554000000000000000000000000000000000000000000000000000000000000\n  dup2\n  mstore\n  pop\n  dup2\n  mstore\n  pop\n    /* \"Contracts/Countries.sol\":354:8053  Country[194] memory countries = [... */\n  dup2\n  mstore\n  0x20\n  add\n    /* \"Contracts/Countries.sol\":2671:2692  Country(\"Fiji\", \"FJ\") */\n  mload(0x40)\n  dup1\n  0x40\n  add\n  0x40\n  mstore\n  dup1\n  mload(0x40)\n  dup1\n  0x40\n  add\n  0x40\n  mstore\n  dup1\n  0x04\n  dup2\n  mstore\n  0x20\n  add\n  0x46696a6900000000000000000000000000000000000000000000000000000000\n  dup2\n  mstore\n  pop\n  dup2\n  mstore\n  0x20\n  add\n  mload(0x40)\n  dup1\n  0x40\n  add\n  0x40\n  mstore\n  dup1\n  0x02\n  dup2\n  mstore\n  0x20\n  add\n  0x464a000000000000000000000000000000000000000000000000000000000000\n  dup2\n  mstore\n  pop\n  dup2\n  mstore\n  pop\n    /* \"Contracts/Countries.sol\":354:8053  Country[194] memory countries = [... */\n  dup2\n  mstore\n  0x20\n  add\n    /* \"Contracts/Countries.sol\":2706:2730  Country(\"Finland\", \"FI\") */\n  mload(0x40)\n  dup1\n  0x40\n  add\n  0x40\n  mstore\n  dup1\n  mload(0x40)\n  dup1\n  0x40\n  add\n  0x40\n  mstore\n  dup1\n  0x07\n  dup2\n  mstore\n  0x20\n  add\n  0x46696e6c616e6400000000000000000000000000000000000000000000000000\n  dup2\n  mstore\n  pop\n  dup2\n  mstore\n  0x20\n  add\n  mload(0x40)\n  dup1\n  0x40\n  add\n  0x40\n  mstore\n  dup1\n  0x02\n  dup2\n  mstore\n  0x20\n  add\n  0x4649000000000000000000000000000000000000000000000000000000000000\n  dup2\n  mstore\n  pop\n  dup2\n  mstore\n  pop\n    /* \"Contracts/Countries.sol\":354:8053  Country[194] memory countries = [... */\n  dup2\n  mstore\n  0x20\n  add\n    /* \"Contracts/Countries.sol\":2744:2767  Country(\"France\", \"FR\") */\n  mload(0x40)\n  dup1\n  0x40\n  add\n  0x40\n  mstore\n  dup1\n  mload(0x40)\n  dup1\n  0x40\n  add\n  0x40\n  mstore\n  dup1\n  0x06\n  dup2\n  mstore\n  0x20\n  add\n  0x4672616e63650000000000000000000000000000000000000000000000000000\n  dup2\n  mstore\n  pop\n  dup2\n  mstore\n  0x20\n  add\n  mload(0x40)\n  dup1\n  0x40\n  add\n  0x40\n  mstore\n  dup1\n  0x02\n  dup2\n  mstore\n  0x20\n  add\n  0x4652000000000000000000000000000000000000000000000000000000000000\n  dup2\n  mstore\n  pop\n  dup2\n  mstore\n  pop\n    /* \"Contracts/Countries.sol\":354:8053  Country[194] memory countries = [... */\n  dup2\n  mstore\n  0x20\n  add\n    /* \"Contracts/Countries.sol\":2781:2803  Country(\"Gabon\", \"GA\") */\n  mload(0x40)\n  dup1\n  0x40\n  add\n  0x40\n  mstore\n  dup1\n  mload(0x40)\n  dup1\n  0x40\n  add\n  0x40\n  mstore\n  dup1\n  0x05\n  dup2\n  mstore\n  0x20\n  add\n  0x4761626f6e000000000000000000000000000000000000000000000000000000\n  dup2\n  mstore\n  pop\n  dup2\n  mstore\n  0x20\n  add\n  mload(0x40)\n  dup1\n  0x40\n  add\n  0x40\n  mstore\n  dup1\n  0x02\n  dup2\n  mstore\n  0x20\n  add\n  0x4741000000000000000000000000000000000000000000000000000000000000\n  dup2\n  mstore\n  pop\n  dup2\n  mstore\n  pop\n    /* \"Contracts/Countries.sol\":354:8053  Country[194] memory countries = [... */\n  dup2\n  mstore\n  0x20\n  add\n    /* \"Contracts/Countries.sol\":2817:2840  Country(\"Gambia\", \"GM\") */\n  mload(0x40)\n  dup1\n  0x40\n  add\n  0x40\n  mstore\n  dup1\n  mload(0x40)\n  dup1\n  0x40\n  add\n  0x40\n  mstore\n  dup1\n  0x06\n  dup2\n  mstore\n  0x20\n  add\n  0x47616d6269610000000000000000000000000000000000000000000000000000\n  dup2\n  mstore\n  pop\n  dup2\n  mstore\n  0x20\n  add\n  mload(0x40)\n  dup1\n  0x40\n  add\n  0x40\n  mstore\n  dup1\n  0x02\n  dup2\n  mstore\n  0x20\n  add\n  0x474d000000000000000000000000000000000000000000000000000000000000\n  dup2\n  mstore\n  pop\n  dup2\n  mstore\n  pop\n    /* \"Contracts/Countries.sol\":354:8053  Country[194] memory countries = [... */\n  dup2\n  mstore\n  0x20\n  add\n    /* \"Contracts/Countries.sol\":2854:2878  Country(\"Georgia\", \"GE\") */\n  mload(0x40)\n  dup1\n  0x40\n  add\n  0x40\n  mstore\n  dup1\n  mload(0x40)\n  dup1\n  0x40\n  add\n  0x40\n  mstore\n  dup1\n  0x07\n  dup2\n  mstore\n  0x20\n  add\n  0x47656f7267696100000000000000000000000000000000000000000000000000\n  dup2\n  mstore\n  pop\n  dup2\n  mstore\n  0x20\n  add\n  mload(0x40)\n  dup1\n  0x40\n  add\n  0x40\n  mstore\n  dup1\n  0x02\n  dup2\n  mstore\n  0x20\n  add\n  0x4745000000000000000000000000000000000000000000000000000000000000\n  dup2\n  mstore\n  pop\n  dup2\n  mstore\n  pop\n    /* \"Contracts/Countries.sol\":354:8053  Country[194] memory countries = [... */\n  dup2\n  mstore\n  0x20\n  add\n    /* \"Contracts/Countries.sol\":2892:2916  Country(\"Germany\", \"DE\") */\n  mload(0x40)\n  dup1\n  0x40\n  add\n  0x40\n  mstore\n  dup1\n  mload(0x40)\n  dup1\n  0x40\n  add\n  0x40\n  mstore\n  dup1\n  0x07\n  dup2\n  mstore\n  0x20\n  add\n  0x4765726d616e7900000000000000000000000000000000000000000000000000\n  dup2\n  mstore\n  pop\n  dup2\n  mstore\n  0x20\n  add\n  mload(0x40)\n  dup1\n  0x40\n  add\n  0x40\n  mstore\n  dup1\n  0x02\n  dup2\n  mstore\n  0x20\n  add\n  0x4445000000000000000000000000000000000000000000000000000000000000\n  dup2\n  mstore\n  pop\n  dup2\n  mstore\n  pop\n    /* \"Contracts/Countries.sol\":354:8053  Country[194] memory countries = [... */\n  dup2\n  mstore\n  0x20\n  add\n    /* \"Contracts/Countries.sol\":2930:2952  Country(\"Ghana\", \"GH\") */\n  mload(0x40)\n  dup1\n  0x40\n  add\n  0x40\n  mstore\n  dup1\n  mload(0x40)\n  dup1\n  0x40\n  add\n  0x40\n  mstore\n  dup1\n  0x05\n  dup2\n  mstore\n  0x20\n  add\n  0x4768616e61000000000000000000000000000000000000000000000000000000\n  dup2\n  mstore\n  pop\n  dup2\n  mstore\n  0x20\n  add\n  mload(0x40)\n  dup1\n  0x40\n  add\n  0x40\n  mstore\n  dup1\n  0x02\n  dup2\n  mstore\n  0x20\n  add\n  0x4748000000000000000000000000000000000000000000000000000000000000\n  dup2\n  mstore\n  pop\n  dup2\n  mstore\n  pop\n    /* \"Contracts/Countries.sol\":354:8053  Country[194] memory countries = [... */\n  dup2\n  mstore\n  0x20\n  add\n    /* \"Contracts/Countries.sol\":2966:2989  Country(\"Greece\", \"GR\") */\n  mload(0x40)\n  dup1\n  0x40\n  add\n  0x40\n  mstore\n  dup1\n  mload(0x40)\n  dup1\n  0x40\n  add\n  0x40\n  mstore\n  dup1\n  0x06\n  dup2\n  mstore\n  0x20\n  add\n  0x4772656563650000000000000000000000000000000000000000000000000000\n  dup2\n  mstore\n  pop\n  dup2\n  mstore\n  0x20\n  add\n  mload(0x40)\n  dup1\n  0x40\n  add\n  0x40\n  mstore\n  dup1\n  0x02\n  dup2\n  mstore\n  0x20\n  add\n  0x4752000000000000000000000000000000000000000000000000000000000000\n  dup2\n  mstore\n  pop\n  dup2\n  mstore\n  pop\n    /* \"Contracts/Countries.sol\":354:8053  Country[194] memory countries = [... */\n  dup2\n  mstore\n  0x20\n  add\n    /* \"Contracts/Countries.sol\":3003:3027  Country(\"Grenada\", \"GD\") */\n  mload(0x40)\n  dup1\n  0x40\n  add\n  0x40\n  mstore\n  dup1\n  mload(0x40)\n  dup1\n  0x40\n  add\n  0x40\n  mstore\n  dup1\n  0x07\n  dup2\n  mstore\n  0x20\n  add\n  0x4772656e61646100000000000000000000000000000000000000000000000000\n  dup2\n  mstore\n  pop\n  dup2\n  mstore\n  0x20\n  add\n  mload(0x40)\n  dup1\n  0x40\n  add\n  0x40\n  mstore\n  dup1\n  0x02\n  dup2\n  mstore\n  0x20\n  add\n  0x4744000000000000000000000000000000000000000000000000000000000000\n  dup2\n  mstore\n  pop\n  dup2\n  mstore\n  pop\n    /* \"Contracts/Countries.sol\":354:8053  Country[194] memory countries = [... */\n  dup2\n  mstore\n  0x20\n  add\n    /* \"Contracts/Countries.sol\":3041:3067  Country(\"Guatemala\", \"GT\") */\n  mload(0x40)\n  dup1\n  0x40\n  add\n  0x40\n  mstore\n  dup1\n  mload(0x40)\n  dup1\n  0x40\n  add\n  0x40\n  mstore\n  dup1\n  0x09\n  dup2\n  mstore\n  0x20\n  add\n  0x47756174656d616c610000000000000000000000000000000000000000000000\n  dup2\n  mstore\n  pop\n  dup2\n  mstore\n  0x20\n  add\n  mload(0x40)\n  dup1\n  0x40\n  add\n  0x40\n  mstore\n  dup1\n  0x02\n  dup2\n  mstore\n  0x20\n  add\n  0x4754000000000000000000000000000000000000000000000000000000000000\n  dup2\n  mstore\n  pop\n  dup2\n  mstore\n  pop\n    /* \"Contracts/Countries.sol\":354:8053  Country[194] memory countries = [... */\n  dup2\n  mstore\n  0x20\n  add\n    /* \"Contracts/Countries.sol\":3081:3104  Country(\"Guinea\", \"GN\") */\n  mload(0x40)\n  dup1\n  0x40\n  add\n  0x40\n  mstore\n  dup1\n  mload(0x40)\n  dup1\n  0x40\n  add\n  0x40\n  mstore\n  dup1\n  0x06\n  dup2\n  mstore\n  0x20\n  add\n  0x4775696e65610000000000000000000000000000000000000000000000000000\n  dup2\n  mstore\n  pop\n  dup2\n  mstore\n  0x20\n  add\n  mload(0x40)\n  dup1\n  0x40\n  add\n  0x40\n  mstore\n  dup1\n  0x02\n  dup2\n  mstore\n  0x20\n  add\n  0x474e000000000000000000000000000000000000000000000000000000000000\n  dup2\n  mstore\n  pop\n  dup2\n  mstore\n  pop\n    /* \"Contracts/Countries.sol\":354:8053  Country[194] memory countries = [... */\n  dup2\n  mstore\n  0x20\n  add\n    /* \"Contracts/Countries.sol\":3118:3148  Country(\"Guinea-Bissau\", \"GW\") */\n  mload(0x40)\n  dup1\n  0x40\n  add\n  0x40\n  mstore\n  dup1\n  mload(0x40)\n  dup1\n  0x40\n  add\n  0x40\n  mstore\n  dup1\n  0x0d\n  dup2\n  mstore\n  0x20\n  add\n  0x4775696e65612d42697373617500000000000000000000000000000000000000\n  dup2\n  mstore\n  pop\n  dup2\n  mstore\n  0x20\n  add\n  mload(0x40)\n  dup1\n  0x40\n  add\n  0x40\n  mstore\n  dup1\n  0x02\n  dup2\n  mstore\n  0x20\n  add\n  0x4757000000000000000000000000000000000000000000000000000000000000\n  dup2\n  mstore\n  pop\n  dup2\n  mstore\n  pop\n    /* \"Contracts/Countries.sol\":354:8053  Country[194] memory countries = [... */\n  dup2\n  mstore\n  0x20\n  add\n    /* \"Contracts/Countries.sol\":3162:3185  Country(\"Guyana\", \"GY\") */\n  mload(0x40)\n  dup1\n  0x40\n  add\n  0x40\n  mstore\n  dup1\n  mload(0x40)\n  dup1\n  0x40\n  add\n  0x40\n  mstore\n  dup1\n  0x06\n  dup2\n  mstore\n  0x20\n  add\n  0x477579616e610000000000000000000000000000000000000000000000000000\n  dup2\n  mstore\n  pop\n  dup2\n  mstore\n  0x20\n  add\n  mload(0x40)\n  dup1\n  0x40\n  add\n  0x40\n  mstore\n  dup1\n  0x02\n  dup2\n  mstore\n  0x20\n  add\n  0x4759000000000000000000000000000000000000000000000000000000000000\n  dup2\n  mstore\n  pop\n  dup2\n  mstore\n  pop\n    /* \"Contracts/Countries.sol\":354:8053  Country[194] memory countries = [... */\n  dup2\n  mstore\n  0x20\n  add\n    /* \"Contracts/Countries.sol\":3199:3221  Country(\"Haiti\", \"HT\") */\n  mload(0x40)\n  dup1\n  0x40\n  add\n  0x40\n  mstore\n  dup1\n  mload(0x40)\n  dup1\n  0x40\n  add\n  0x40\n  mstore\n  dup1\n  0x05\n  dup2\n  mstore\n  0x20\n  add\n  0x4861697469000000000000000000000000000000000000000000000000000000\n  dup2\n  mstore\n  pop\n  dup2\n  mstore\n  0x20\n  add\n  mload(0x40)\n  dup1\n  0x40\n  add\n  0x40\n  mstore\n  dup1\n  0x02\n  dup2\n  mstore\n  0x20\n  add\n  0x4854000000000000000000000000000000000000000000000000000000000000\n  dup2\n  mstore\n  pop\n  dup2\n  mstore\n  pop\n    /* \"Contracts/Countries.sol\":354:8053  Country[194] memory countries = [... */\n  dup2\n  mstore\n  0x20\n  add\n    /* \"Contracts/Countries.sol\":3235:3260  Country(\"Honduras\", \"HN\") */\n  mload(0x40)\n  dup1\n  0x40\n  add\n  0x40\n  mstore\n  dup1\n  mload(0x40)\n  dup1\n  0x40\n  add\n  0x40\n  mstore\n  dup1\n  0x08\n  dup2\n  mstore\n  0x20\n  add\n  0x486f6e6475726173000000000000000000000000000000000000000000000000\n  dup2\n  mstore\n  pop\n  dup2\n  mstore\n  0x20\n  add\n  mload(0x40)\n  dup1\n  0x40\n  add\n  0x40\n  mstore\n  dup1\n  0x02\n  dup2\n  mstore\n  0x20\n  add\n  0x484e000000000000000000000000000000000000000000000000000000000000\n  dup2\n  mstore\n  pop\n  dup2\n  mstore\n  pop\n    /* \"Contracts/Countries.sol\":354:8053  Country[194] memory countries = [... */\n  dup2\n  mstore\n  0x20\n  add\n    /* \"Contracts/Countries.sol\":3274:3298  Country(\"Hungary\", \"HU\") */\n  mload(0x40)\n  dup1\n  0x40\n  add\n  0x40\n  mstore\n  dup1\n  mload(0x40)\n  dup1\n  0x40\n  add\n  0x40\n  mstore\n  dup1\n  0x07\n  dup2\n  mstore\n  0x20\n  add\n  0x48756e6761727900000000000000000000000000000000000000000000000000\n  dup2\n  mstore\n  pop\n  dup2\n  mstore\n  0x20\n  add\n  mload(0x40)\n  dup1\n  0x40\n  add\n  0x40\n  mstore\n  dup1\n  0x02\n  dup2\n  mstore\n  0x20\n  add\n  0x4855000000000000000000000000000000000000000000000000000000000000\n  dup2\n  mstore\n  pop\n  dup2\n  mstore\n  pop\n    /* \"Contracts/Countries.sol\":354:8053  Country[194] memory countries = [... */\n  dup2\n  mstore\n  0x20\n  add\n    /* \"Contracts/Countries.sol\":3312:3336  Country(\"Iceland\", \"IS\") */\n  mload(0x40)\n  dup1\n  0x40\n  add\n  0x40\n  mstore\n  dup1\n  mload(0x40)\n  dup1\n  0x40\n  add\n  0x40\n  mstore\n  dup1\n  0x07\n  dup2\n  mstore\n  0x20\n  add\n  0x4963656c616e6400000000000000000000000000000000000000000000000000\n  dup2\n  mstore\n  pop\n  dup2\n  mstore\n  0x20\n  add\n  mload(0x40)\n  dup1\n  0x40\n  add\n  0x40\n  mstore\n  dup1\n  0x02\n  dup2\n  mstore\n  0x20\n  add\n  0x4953000000000000000000000000000000000000000000000000000000000000\n  dup2\n  mstore\n  pop\n  dup2\n  mstore\n  pop\n    /* \"Contracts/Countries.sol\":354:8053  Country[194] memory countries = [... */\n  dup2\n  mstore\n  0x20\n  add\n    /* \"Contracts/Countries.sol\":3350:3372  Country(\"India\", \"IN\") */\n  mload(0x40)\n  dup1\n  0x40\n  add\n  0x40\n  mstore\n  dup1\n  mload(0x40)\n  dup1\n  0x40\n  add\n  0x40\n  mstore\n  dup1\n  0x05\n  dup2\n  mstore\n  0x20\n  add\n  0x496e646961000000000000000000000000000000000000000000000000000000\n  dup2\n  mstore\n  pop\n  dup2\n  mstore\n  0x20\n  add\n  mload(0x40)\n  dup1\n  0x40\n  add\n  0x40\n  mstore\n  dup1\n  0x02\n  dup2\n  mstore\n  0x20\n  add\n  0x494e000000000000000000000000000000000000000000000000000000000000\n  dup2\n  mstore\n  pop\n  dup2\n  mstore\n  pop\n    /* \"Contracts/Countries.sol\":354:8053  Country[194] memory countries = [... */\n  dup2\n  mstore\n  0x20\n  add\n    /* \"Contracts/Countries.sol\":3386:3412  Country(\"Indonesia\", \"ID\") */\n  mload(0x40)\n  dup1\n  0x40\n  add\n  0x40\n  mstore\n  dup1\n  mload(0x40)\n  dup1\n  0x40\n  add\n  0x40\n  mstore\n  dup1\n  0x09\n  dup2\n  mstore\n  0x20\n  add\n  0x496e646f6e657369610000000000000000000000000000000000000000000000\n  dup2\n  mstore\n  pop\n  dup2\n  mstore\n  0x20\n  add\n  mload(0x40)\n  dup1\n  0x40\n  add\n  0x40\n  mstore\n  dup1\n  0x02\n  dup2\n  mstore\n  0x20\n  add\n  0x4944000000000000000000000000000000000000000000000000000000000000\n  dup2\n  mstore\n  pop\n  dup2\n  mstore\n  pop\n    /* \"Contracts/Countries.sol\":354:8053  Country[194] memory countries = [... */\n  dup2\n  mstore\n  0x20\n  add\n    /* \"Contracts/Countries.sol\":3426:3447  Country(\"Iran\", \"IR\") */\n  mload(0x40)\n  dup1\n  0x40\n  add\n  0x40\n  mstore\n  dup1\n  mload(0x40)\n  dup1\n  0x40\n  add\n  0x40\n  mstore\n  dup1\n  0x04\n  dup2\n  mstore\n  0x20\n  add\n  0x4972616e00000000000000000000000000000000000000000000000000000000\n  dup2\n  mstore\n  pop\n  dup2\n  mstore\n  0x20\n  add\n  mload(0x40)\n  dup1\n  0x40\n  add\n  0x40\n  mstore\n  dup1\n  0x02\n  dup2\n  mstore\n  0x20\n  add\n  0x4952000000000000000000000000000000000000000000000000000000000000\n  dup2\n  mstore\n  pop\n  dup2\n  mstore\n  pop\n    /* \"Contracts/Countries.sol\":354:8053  Country[194] memory countries = [... */\n  dup2\n  mstore\n  0x20\n  add\n    /* \"Contracts/Countries.sol\":3461:3482  Country(\"Iraq\", \"IQ\") */\n  mload(0x40)\n  dup1\n  0x40\n  add\n  0x40\n  mstore\n  dup1\n  mload(0x40)\n  dup1\n  0x40\n  add\n  0x40\n  mstore\n  dup1\n  0x04\n  dup2\n  mstore\n  0x20\n  add\n  0x4972617100000000000000000000000000000000000000000000000000000000\n  dup2\n  mstore\n  pop\n  dup2\n  mstore\n  0x20\n  add\n  mload(0x40)\n  dup1\n  0x40\n  add\n  0x40\n  mstore\n  dup1\n  0x02\n  dup2\n  mstore\n  0x20\n  add\n  0x4951000000000000000000000000000000000000000000000000000000000000\n  dup2\n  mstore\n  pop\n  dup2\n  mstore\n  pop\n    /* \"Contracts/Countries.sol\":354:8053  Country[194] memory countries = [... */\n  dup2\n  mstore\n  0x20\n  add\n    /* \"Contracts/Countries.sol\":3496:3520  Country(\"Ireland\", \"IE\") */\n  mload(0x40)\n  dup1\n  0x40\n  add\n  0x40\n  mstore\n  dup1\n  mload(0x40)\n  dup1\n  0x40\n  add\n  0x40\n  mstore\n  dup1\n  0x07\n  dup2\n  mstore\n  0x20\n  add\n  0x4972656c616e6400000000000000000000000000000000000000000000000000\n  dup2\n  mstore\n  pop\n  dup2\n  mstore\n  0x20\n  add\n  mload(0x40)\n  dup1\n  0x40\n  add\n  0x40\n  mstore\n  dup1\n  0x02\n  dup2\n  mstore\n  0x20\n  add\n  0x4945000000000000000000000000000000000000000000000000000000000000\n  dup2\n  mstore\n  pop\n  dup2\n  mstore\n  pop\n    /* \"Contracts/Countries.sol\":354:8053  Country[194] memory countries = [... */\n  dup2\n  mstore\n  0x20\n  add\n    /* \"Contracts/Countries.sol\":3534:3557  Country(\"Israel\", \"IL\") */\n  mload(0x40)\n  dup1\n  0x40\n  add\n  0x40\n  mstore\n  dup1\n  mload(0x40)\n  dup1\n  0x40\n  add\n  0x40\n  mstore\n  dup1\n  0x06\n  dup2\n  mstore\n  0x20\n  add\n  0x49737261656c0000000000000000000000000000000000000000000000000000\n  dup2\n  mstore\n  pop\n  dup2\n  mstore\n  0x20\n  add\n  mload(0x40)\n  dup1\n  0x40\n  add\n  0x40\n  mstore\n  dup1\n  0x02\n  dup2\n  mstore\n  0x20\n  add\n  0x494c000000000000000000000000000000000000000000000000000000000000\n  dup2\n  mstore\n  pop\n  dup2\n  mstore\n  pop\n    /* \"Contracts/Countries.sol\":354:8053  Country[194] memory countries = [... */\n  dup2\n  mstore\n  0x20\n  add\n    /* \"Contracts/Countries.sol\":3571:3593  Country(\"Italy\", \"IT\") */\n  mload(0x40)\n  dup1\n  0x40\n  add\n  0x40\n  mstore\n  dup1\n  mload(0x40)\n  dup1\n  0x40\n  add\n  0x40\n  mstore\n  dup1\n  0x05\n  dup2\n  mstore\n  0x20\n  add\n  0x4974616c79000000000000000000000000000000000000000000000000000000\n  dup2\n  mstore\n  pop\n  dup2\n  mstore\n  0x20\n  add\n  mload(0x40)\n  dup1\n  0x40\n  add\n  0x40\n  mstore\n  dup1\n  0x02\n  dup2\n  mstore\n  0x20\n  add\n  0x4954000000000000000000000000000000000000000000000000000000000000\n  dup2\n  mstore\n  pop\n  dup2\n  mstore\n  pop\n    /* \"Contracts/Countries.sol\":354:8053  Country[194] memory countries = [... */\n  dup2\n  mstore\n  0x20\n  add\n    /* \"Contracts/Countries.sol\":3607:3631  Country(\"Jamaica\", \"JM\") */\n  mload(0x40)\n  dup1\n  0x40\n  add\n  0x40\n  mstore\n  dup1\n  mload(0x40)\n  dup1\n  0x40\n  add\n  0x40\n  mstore\n  dup1\n  0x07\n  dup2\n  mstore\n  0x20\n  add\n  0x4a616d6169636100000000000000000000000000000000000000000000000000\n  dup2\n  mstore\n  pop\n  dup2\n  mstore\n  0x20\n  add\n  mload(0x40)\n  dup1\n  0x40\n  add\n  0x40\n  mstore\n  dup1\n  0x02\n  dup2\n  mstore\n  0x20\n  add\n  0x4a4d000000000000000000000000000000000000000000000000000000000000\n  dup2\n  mstore\n  pop\n  dup2\n  mstore\n  pop\n    /* \"Contracts/Countries.sol\":354:8053  Country[194] memory countries = [... */\n  dup2\n  mstore\n  0x20\n  add\n    /* \"Contracts/Countries.sol\":3645:3667  Country(\"Japan\", \"JP\") */\n  mload(0x40)\n  dup1\n  0x40\n  add\n  0x40\n  mstore\n  dup1\n  mload(0x40)\n  dup1\n  0x40\n  add\n  0x40\n  mstore\n  dup1\n  0x05\n  dup2\n  mstore\n  0x20\n  add\n  0x4a6170616e000000000000000000000000000000000000000000000000000000\n  dup2\n  mstore\n  pop\n  dup2\n  mstore\n  0x20\n  add\n  mload(0x40)\n  dup1\n  0x40\n  add\n  0x40\n  mstore\n  dup1\n  0x02\n  dup2\n  mstore\n  0x20\n  add\n  0x4a50000000000000000000000000000000000000000000000000000000000000\n  dup2\n  mstore\n  pop\n  dup2\n  mstore\n  pop\n    /* \"Contracts/Countries.sol\":354:8053  Country[194] memory countries = [... */\n  dup2\n  mstore\n  0x20\n  add\n    /* \"Contracts/Countries.sol\":3681:3704  Country(\"Jordan\", \"JO\") */\n  mload(0x40)\n  dup1\n  0x40\n  add\n  0x40\n  mstore\n  dup1\n  mload(0x40)\n  dup1\n  0x40\n  add\n  0x40\n  mstore\n  dup1\n  0x06\n  dup2\n  mstore\n  0x20\n  add\n  0x4a6f7264616e0000000000000000000000000000000000000000000000000000\n  dup2\n  mstore\n  pop\n  dup2\n  mstore\n  0x20\n  add\n  mload(0x40)\n  dup1\n  0x40\n  add\n  0x40\n  mstore\n  dup1\n  0x02\n  dup2\n  mstore\n  0x20\n  add\n  0x4a4f000000000000000000000000000000000000000000000000000000000000\n  dup2\n  mstore\n  pop\n  dup2\n  mstore\n  pop\n    /* \"Contracts/Countries.sol\":354:8053  Country[194] memory countries = [... */\n  dup2\n  mstore\n  0x20\n  add\n    /* \"Contracts/Countries.sol\":3718:3745  Country(\"Kazakhstan\", \"KZ\") */\n  mload(0x40)\n  dup1\n  0x40\n  add\n  0x40\n  mstore\n  dup1\n  mload(0x40)\n  dup1\n  0x40\n  add\n  0x40\n  mstore\n  dup1\n  0x0a\n  dup2\n  mstore\n  0x20\n  add\n  0x4b617a616b687374616e00000000000000000000000000000000000000000000\n  dup2\n  mstore\n  pop\n  dup2\n  mstore\n  0x20\n  add\n  mload(0x40)\n  dup1\n  0x40\n  add\n  0x40\n  mstore\n  dup1\n  0x02\n  dup2\n  mstore\n  0x20\n  add\n  0x4b5a000000000000000000000000000000000000000000000000000000000000\n  dup2\n  mstore\n  pop\n  dup2\n  mstore\n  pop\n    /* \"Contracts/Countries.sol\":354:8053  Country[194] memory countries = [... */\n  dup2\n  mstore\n  0x20\n  add\n    /* \"Contracts/Countries.sol\":3759:3781  Country(\"Kenya\", \"KE\") */\n  mload(0x40)\n  dup1\n  0x40\n  add\n  0x40\n  mstore\n  dup1\n  mload(0x40)\n  dup1\n  0x40\n  add\n  0x40\n  mstore\n  dup1\n  0x05\n  dup2\n  mstore\n  0x20\n  add\n  0x4b656e7961000000000000000000000000000000000000000000000000000000\n  dup2\n  mstore\n  pop\n  dup2\n  mstore\n  0x20\n  add\n  mload(0x40)\n  dup1\n  0x40\n  add\n  0x40\n  mstore\n  dup1\n  0x02\n  dup2\n  mstore\n  0x20\n  add\n  0x4b45000000000000000000000000000000000000000000000000000000000000\n  dup2\n  mstore\n  pop\n  dup2\n  mstore\n  pop\n    /* \"Contracts/Countries.sol\":354:8053  Country[194] memory countries = [... */\n  dup2\n  mstore\n  0x20\n  add\n    /* \"Contracts/Countries.sol\":3795:3820  Country(\"Kiribati\", \"KI\") */\n  mload(0x40)\n  dup1\n  0x40\n  add\n  0x40\n  mstore\n  dup1\n  mload(0x40)\n  dup1\n  0x40\n  add\n  0x40\n  mstore\n  dup1\n  0x08\n  dup2\n  mstore\n  0x20\n  add\n  0x4b69726962617469000000000000000000000000000000000000000000000000\n  dup2\n  mstore\n  pop\n  dup2\n  mstore\n  0x20\n  add\n  mload(0x40)\n  dup1\n  0x40\n  add\n  0x40\n  mstore\n  dup1\n  0x02\n  dup2\n  mstore\n  0x20\n  add\n  0x4b49000000000000000000000000000000000000000000000000000000000000\n  dup2\n  mstore\n  pop\n  dup2\n  mstore\n  pop\n    /* \"Contracts/Countries.sol\":354:8053  Country[194] memory countries = [... */\n  dup2\n  mstore\n  0x20\n  add\n    /* \"Contracts/Countries.sol\":3834:3857  Country(\"Kuwait\", \"KW\") */\n  mload(0x40)\n  dup1\n  0x40\n  add\n  0x40\n  mstore\n  dup1\n  mload(0x40)\n  dup1\n  0x40\n  add\n  0x40\n  mstore\n  dup1\n  0x06\n  dup2\n  mstore\n  0x20\n  add\n  0x4b75776169740000000000000000000000000000000000000000000000000000\n  dup2\n  mstore\n  pop\n  dup2\n  mstore\n  0x20\n  add\n  mload(0x40)\n  dup1\n  0x40\n  add\n  0x40\n  mstore\n  dup1\n  0x02\n  dup2\n  mstore\n  0x20\n  add\n  0x4b57000000000000000000000000000000000000000000000000000000000000\n  dup2\n  mstore\n  pop\n  dup2\n  mstore\n  pop\n    /* \"Contracts/Countries.sol\":354:8053  Country[194] memory countries = [... */\n  dup2\n  mstore\n  0x20\n  add\n    /* \"Contracts/Countries.sol\":3871:3898  Country(\"Kyrgyzstan\", \"KG\") */\n  mload(0x40)\n  dup1\n  0x40\n  add\n  0x40\n  mstore\n  dup1\n  mload(0x40)\n  dup1\n  0x40\n  add\n  0x40\n  mstore\n  dup1\n  0x0a\n  dup2\n  mstore\n  0x20\n  add\n  0x4b797267797a7374616e00000000000000000000000000000000000000000000\n  dup2\n  mstore\n  pop\n  dup2\n  mstore\n  0x20\n  add\n  mload(0x40)\n  dup1\n  0x40\n  add\n  0x40\n  mstore\n  dup1\n  0x02\n  dup2\n  mstore\n  0x20\n  add\n  0x4b47000000000000000000000000000000000000000000000000000000000000\n  dup2\n  mstore\n  pop\n  dup2\n  mstore\n  pop\n    /* \"Contracts/Countries.sol\":354:8053  Country[194] memory countries = [... */\n  dup2\n  mstore\n  0x20\n  add\n    /* \"Contracts/Countries.sol\":3912:3933  Country(\"Laos\", \"LA\") */\n  mload(0x40)\n  dup1\n  0x40\n  add\n  0x40\n  mstore\n  dup1\n  mload(0x40)\n  dup1\n  0x40\n  add\n  0x40\n  mstore\n  dup1\n  0x04\n  dup2\n  mstore\n  0x20\n  add\n  0x4c616f7300000000000000000000000000000000000000000000000000000000\n  dup2\n  mstore\n  pop\n  dup2\n  mstore\n  0x20\n  add\n  mload(0x40)\n  dup1\n  0x40\n  add\n  0x40\n  mstore\n  dup1\n  0x02\n  dup2\n  mstore\n  0x20\n  add\n  0x4c41000000000000000000000000000000000000000000000000000000000000\n  dup2\n  mstore\n  pop\n  dup2\n  mstore\n  pop\n    /* \"Contracts/Countries.sol\":354:8053  Country[194] memory countries = [... */\n  dup2\n  mstore\n  0x20\n  add\n    /* \"Contracts/Countries.sol\":3947:3970  Country(\"Latvia\", \"LV\") */\n  mload(0x40)\n  dup1\n  0x40\n  add\n  0x40\n  mstore\n  dup1\n  mload(0x40)\n  dup1\n  0x40\n  add\n  0x40\n  mstore\n  dup1\n  0x06\n  dup2\n  mstore\n  0x20\n  add\n  0x4c61747669610000000000000000000000000000000000000000000000000000\n  dup2\n  mstore\n  pop\n  dup2\n  mstore\n  0x20\n  add\n  mload(0x40)\n  dup1\n  0x40\n  add\n  0x40\n  mstore\n  dup1\n  0x02\n  dup2\n  mstore\n  0x20\n  add\n  0x4c56000000000000000000000000000000000000000000000000000000000000\n  dup2\n  mstore\n  pop\n  dup2\n  mstore\n  pop\n    /* \"Contracts/Countries.sol\":354:8053  Country[194] memory countries = [... */\n  dup2\n  mstore\n  0x20\n  add\n    /* \"Contracts/Countries.sol\":3984:4008  Country(\"Lebanon\", \"LB\") */\n  mload(0x40)\n  dup1\n  0x40\n  add\n  0x40\n  mstore\n  dup1\n  mload(0x40)\n  dup1\n  0x40\n  add\n  0x40\n  mstore\n  dup1\n  0x07\n  dup2\n  mstore\n  0x20\n  add\n  0x4c6562616e6f6e00000000000000000000000000000000000000000000000000\n  dup2\n  mstore\n  pop\n  dup2\n  mstore\n  0x20\n  add\n  mload(0x40)\n  dup1\n  0x40\n  add\n  0x40\n  mstore\n  dup1\n  0x02\n  dup2\n  mstore\n  0x20\n  add\n  0x4c42000000000000000000000000000000000000000000000000000000000000\n  dup2\n  mstore\n  pop\n  dup2\n  mstore\n  pop\n    /* \"Contracts/Countries.sol\":354:8053  Country[194] memory countries = [... */\n  dup2\n  mstore\n  0x20\n  add\n    /* \"Contracts/Countries.sol\":4022:4046  Country(\"Lesotho\", \"LS\") */\n  mload(0x40)\n  dup1\n  0x40\n  add\n  0x40\n  mstore\n  dup1\n  mload(0x40)\n  dup1\n  0x40\n  add\n  0x40\n  mstore\n  dup1\n  0x07\n  dup2\n  mstore\n  0x20\n  add\n  0x4c65736f74686f00000000000000000000000000000000000000000000000000\n  dup2\n  mstore\n  pop\n  dup2\n  mstore\n  0x20\n  add\n  mload(0x40)\n  dup1\n  0x40\n  add\n  0x40\n  mstore\n  dup1\n  0x02\n  dup2\n  mstore\n  0x20\n  add\n  0x4c53000000000000000000000000000000000000000000000000000000000000\n  dup2\n  mstore\n  pop\n  dup2\n  mstore\n  pop\n    /* \"Contracts/Countries.sol\":354:8053  Country[194] memory countries = [... */\n  dup2\n  mstore\n  0x20\n  add\n    /* \"Contracts/Countries.sol\":4060:4084  Country(\"Liberia\", \"LR\") */\n  mload(0x40)\n  dup1\n  0x40\n  add\n  0x40\n  mstore\n  dup1\n  mload(0x40)\n  dup1\n  0x40\n  add\n  0x40\n  mstore\n  dup1\n  0x07\n  dup2\n  mstore\n  0x20\n  add\n  0x4c69626572696100000000000000000000000000000000000000000000000000\n  dup2\n  mstore\n  pop\n  dup2\n  mstore\n  0x20\n  add\n  mload(0x40)\n  dup1\n  0x40\n  add\n  0x40\n  mstore\n  dup1\n  0x02\n  dup2\n  mstore\n  0x20\n  add\n  0x4c52000000000000000000000000000000000000000000000000000000000000\n  dup2\n  mstore\n  pop\n  dup2\n  mstore\n  pop\n    /* \"Contracts/Countries.sol\":354:8053  Country[194] memory countries = [... */\n  dup2\n  mstore\n  0x20\n  add\n    /* \"Contracts/Countries.sol\":4098:4120  Country(\"Libya\", \"LY\") */\n  mload(0x40)\n  dup1\n  0x40\n  add\n  0x40\n  mstore\n  dup1\n  mload(0x40)\n  dup1\n  0x40\n  add\n  0x40\n  mstore\n  dup1\n  0x05\n  dup2\n  mstore\n  0x20\n  add\n  0x4c69627961000000000000000000000000000000000000000000000000000000\n  dup2\n  mstore\n  pop\n  dup2\n  mstore\n  0x20\n  add\n  mload(0x40)\n  dup1\n  0x40\n  add\n  0x40\n  mstore\n  dup1\n  0x02\n  dup2\n  mstore\n  0x20\n  add\n  0x4c59000000000000000000000000000000000000000000000000000000000000\n  dup2\n  mstore\n  pop\n  dup2\n  mstore\n  pop\n    /* \"Contracts/Countries.sol\":354:8053  Country[194] memory countries = [... */\n  dup2\n  mstore\n  0x20\n  add\n    /* \"Contracts/Countries.sol\":4134:4164  Country(\"Liechtenstein\", \"LI\") */\n  mload(0x40)\n  dup1\n  0x40\n  add\n  0x40\n  mstore\n  dup1\n  mload(0x40)\n  dup1\n  0x40\n  add\n  0x40\n  mstore\n  dup1\n  0x0d\n  dup2\n  mstore\n  0x20\n  add\n  0x4c6965636874656e737465696e00000000000000000000000000000000000000\n  dup2\n  mstore\n  pop\n  dup2\n  mstore\n  0x20\n  add\n  mload(0x40)\n  dup1\n  0x40\n  add\n  0x40\n  mstore\n  dup1\n  0x02\n  dup2\n  mstore\n  0x20\n  add\n  0x4c49000000000000000000000000000000000000000000000000000000000000\n  dup2\n  mstore\n  pop\n  dup2\n  mstore\n  pop\n    /* \"Contracts/Countries.sol\":354:8053  Country[194] memory countries = [... */\n  dup2\n  mstore\n  0x20\n  add\n    /* \"Contracts/Countries.sol\":4178:4204  Country(\"Lithuania\", \"LT\") */\n  mload(0x40)\n  dup1\n  0x40\n  add\n  0x40\n  mstore\n  dup1\n  mload(0x40)\n  dup1\n  0x40\n  add\n  0x40\n  mstore\n  dup1\n  0x09\n  dup2\n  mstore\n  0x20\n  add\n  0x4c69746875616e69610000000000000000000000000000000000000000000000\n  dup2\n  mstore\n  pop\n  dup2\n  mstore\n  0x20\n  add\n  mload(0x40)\n  dup1\n  0x40\n  add\n  0x40\n  mstore\n  dup1\n  0x02\n  dup2\n  mstore\n  0x20\n  add\n  0x4c54000000000000000000000000000000000000000000000000000000000000\n  dup2\n  mstore\n  pop\n  dup2\n  mstore\n  pop\n    /* \"Contracts/Countries.sol\":354:8053  Country[194] memory countries = [... */\n  dup2\n  mstore\n  0x20\n  add\n    /* \"Contracts/Countries.sol\":4218:4245  Country(\"Luxembourg\", \"LU\") */\n  mload(0x40)\n  dup1\n  0x40\n  add\n  0x40\n  mstore\n  dup1\n  mload(0x40)\n  dup1\n  0x40\n  add\n  0x40\n  mstore\n  dup1\n  0x0a\n  dup2\n  mstore\n  0x20\n  add\n  0x4c7578656d626f75726700000000000000000000000000000000000000000000\n  dup2\n  mstore\n  pop\n  dup2\n  mstore\n  0x20\n  add\n  mload(0x40)\n  dup1\n  0x40\n  add\n  0x40\n  mstore\n  dup1\n  0x02\n  dup2\n  mstore\n  0x20\n  add\n  0x4c55000000000000000000000000000000000000000000000000000000000000\n  dup2\n  mstore\n  pop\n  dup2\n  mstore\n  pop\n    /* \"Contracts/Countries.sol\":354:8053  Country[194] memory countries = [... */\n  dup2\n  mstore\n  0x20\n  add\n    /* \"Contracts/Countries.sol\":4259:4286  Country(\"Madagascar\", \"MG\") */\n  mload(0x40)\n  dup1\n  0x40\n  add\n  0x40\n  mstore\n  dup1\n  mload(0x40)\n  dup1\n  0x40\n  add\n  0x40\n  mstore\n  dup1\n  0x0a\n  dup2\n  mstore\n  0x20\n  add\n  0x4d61646167617363617200000000000000000000000000000000000000000000\n  dup2\n  mstore\n  pop\n  dup2\n  mstore\n  0x20\n  add\n  mload(0x40)\n  dup1\n  0x40\n  add\n  0x40\n  mstore\n  dup1\n  0x02\n  dup2\n  mstore\n  0x20\n  add\n  0x4d47000000000000000000000000000000000000000000000000000000000000\n  dup2\n  mstore\n  pop\n  dup2\n  mstore\n  pop\n    /* \"Contracts/Countries.sol\":354:8053  Country[194] memory countries = [... */\n  dup2\n  mstore\n  0x20\n  add\n    /* \"Contracts/Countries.sol\":4300:4323  Country(\"Malawi\", \"MW\") */\n  mload(0x40)\n  dup1\n  0x40\n  add\n  0x40\n  mstore\n  dup1\n  mload(0x40)\n  dup1\n  0x40\n  add\n  0x40\n  mstore\n  dup1\n  0x06\n  dup2\n  mstore\n  0x20\n  add\n  0x4d616c6177690000000000000000000000000000000000000000000000000000\n  dup2\n  mstore\n  pop\n  dup2\n  mstore\n  0x20\n  add\n  mload(0x40)\n  dup1\n  0x40\n  add\n  0x40\n  mstore\n  dup1\n  0x02\n  dup2\n  mstore\n  0x20\n  add\n  0x4d57000000000000000000000000000000000000000000000000000000000000\n  dup2\n  mstore\n  pop\n  dup2\n  mstore\n  pop\n    /* \"Contracts/Countries.sol\":354:8053  Country[194] memory countries = [... */\n  dup2\n  mstore\n  0x20\n  add\n    /* \"Contracts/Countries.sol\":4337:4362  Country(\"Malaysia\", \"MY\") */\n  mload(0x40)\n  dup1\n  0x40\n  add\n  0x40\n  mstore\n  dup1\n  mload(0x40)\n  dup1\n  0x40\n  add\n  0x40\n  mstore\n  dup1\n  0x08\n  dup2\n  mstore\n  0x20\n  add\n  0x4d616c6179736961000000000000000000000000000000000000000000000000\n  dup2\n  mstore\n  pop\n  dup2\n  mstore\n  0x20\n  add\n  mload(0x40)\n  dup1\n  0x40\n  add\n  0x40\n  mstore\n  dup1\n  0x02\n  dup2\n  mstore\n  0x20\n  add\n  0x4d59000000000000000000000000000000000000000000000000000000000000\n  dup2\n  mstore\n  pop\n  dup2\n  mstore\n  pop\n    /* \"Contracts/Countries.sol\":354:8053  Country[194] memory countries = [... */\n  dup2\n  mstore\n  0x20\n  add\n    /* \"Contracts/Countries.sol\":4376:4401  Country(\"Maldives\", \"MV\") */\n  mload(0x40)\n  dup1\n  0x40\n  add\n  0x40\n  mstore\n  dup1\n  mload(0x40)\n  dup1\n  0x40\n  add\n  0x40\n  mstore\n  dup1\n  0x08\n  dup2\n  mstore\n  0x20\n  add\n  0x4d616c6469766573000000000000000000000000000000000000000000000000\n  dup2\n  mstore\n  pop\n  dup2\n  mstore\n  0x20\n  add\n  mload(0x40)\n  dup1\n  0x40\n  add\n  0x40\n  mstore\n  dup1\n  0x02\n  dup2\n  mstore\n  0x20\n  add\n  0x4d56000000000000000000000000000000000000000000000000000000000000\n  dup2\n  mstore\n  pop\n  dup2\n  mstore\n  pop\n    /* \"Contracts/Countries.sol\":354:8053  Country[194] memory countries = [... */\n  dup2\n  mstore\n  0x20\n  add\n    /* \"Contracts/Countries.sol\":4415:4436  Country(\"Mali\", \"ML\") */\n  mload(0x40)\n  dup1\n  0x40\n  add\n  0x40\n  mstore\n  dup1\n  mload(0x40)\n  dup1\n  0x40\n  add\n  0x40\n  mstore\n  dup1\n  0x04\n  dup2\n  mstore\n  0x20\n  add\n  0x4d616c6900000000000000000000000000000000000000000000000000000000\n  dup2\n  mstore\n  pop\n  dup2\n  mstore\n  0x20\n  add\n  mload(0x40)\n  dup1\n  0x40\n  add\n  0x40\n  mstore\n  dup1\n  0x02\n  dup2\n  mstore\n  0x20\n  add\n  0x4d4c000000000000000000000000000000000000000000000000000000000000\n  dup2\n  mstore\n  pop\n  dup2\n  mstore\n  pop\n    /* \"Contracts/Countries.sol\":354:8053  Country[194] memory countries = [... */\n  dup2\n  mstore\n  0x20\n  add\n    /* \"Contracts/Countries.sol\":4450:4472  Country(\"Malta\", \"MT\") */\n  mload(0x40)\n  dup1\n  0x40\n  add\n  0x40\n  mstore\n  dup1\n  mload(0x40)\n  dup1\n  0x40\n  add\n  0x40\n  mstore\n  dup1\n  0x05\n  dup2\n  mstore\n  0x20\n  add\n  0x4d616c7461000000000000000000000000000000000000000000000000000000\n  dup2\n  mstore\n  pop\n  dup2\n  mstore\n  0x20\n  add\n  mload(0x40)\n  dup1\n  0x40\n  add\n  0x40\n  mstore\n  dup1\n  0x02\n  dup2\n  mstore\n  0x20\n  add\n  0x4d54000000000000000000000000000000000000000000000000000000000000\n  dup2\n  mstore\n  pop\n  dup2\n  mstore\n  pop\n    /* \"Contracts/Countries.sol\":354:8053  Country[194] memory countries = [... */\n  dup2\n  mstore\n  0x20\n  add\n    /* \"Contracts/Countries.sol\":4486:4519  Country(\"Marshall Islands\", \"MH\") */\n  mload(0x40)\n  dup1\n  0x40\n  add\n  0x40\n  mstore\n  dup1\n  mload(0x40)\n  dup1\n  0x40\n  add\n  0x40\n  mstore\n  dup1\n  0x10\n  dup2\n  mstore\n  0x20\n  add\n  0x4d61727368616c6c2049736c616e647300000000000000000000000000000000\n  dup2\n  mstore\n  pop\n  dup2\n  mstore\n  0x20\n  add\n  mload(0x40)\n  dup1\n  0x40\n  add\n  0x40\n  mstore\n  dup1\n  0x02\n  dup2\n  mstore\n  0x20\n  add\n  0x4d48000000000000000000000000000000000000000000000000000000000000\n  dup2\n  mstore\n  pop\n  dup2\n  mstore\n  pop\n    /* \"Contracts/Countries.sol\":354:8053  Country[194] memory countries = [... */\n  dup2\n  mstore\n  0x20\n  add\n    /* \"Contracts/Countries.sol\":4533:4560  Country(\"Mauritania\", \"MR\") */\n  mload(0x40)\n  dup1\n  0x40\n  add\n  0x40\n  mstore\n  dup1\n  mload(0x40)\n  dup1\n  0x40\n  add\n  0x40\n  mstore\n  dup1\n  0x0a\n  dup2\n  mstore\n  0x20\n  add\n  0x4d6175726974616e696100000000000000000000000000000000000000000000\n  dup2\n  mstore\n  pop\n  dup2\n  mstore\n  0x20\n  add\n  mload(0x40)\n  dup1\n  0x40\n  add\n  0x40\n  mstore\n  dup1\n  0x02\n  dup2\n  mstore\n  0x20\n  add\n  0x4d52000000000000000000000000000000000000000000000000000000000000\n  dup2\n  mstore\n  pop\n  dup2\n  mstore\n  pop\n    /* \"Contracts/Countries.sol\":354:8053  Country[194] memory countries = [... */\n  dup2\n  mstore\n  0x20\n  add\n    /* \"Contracts/Countries.sol\":4574:4600  Country(\"Mauritius\", \"MU\") */\n  mload(0x40)\n  dup1\n  0x40\n  add\n  0x40\n  mstore\n  dup1\n  mload(0x40)\n  dup1\n  0x40\n  add\n  0x40\n  mstore\n  dup1\n  0x09\n  dup2\n  mstore\n  0x20\n  add\n  0x4d61757269746975730000000000000000000000000000000000000000000000\n  dup2\n  mstore\n  pop\n  dup2\n  mstore\n  0x20\n  add\n  mload(0x40)\n  dup1\n  0x40\n  add\n  0x40\n  mstore\n  dup1\n  0x02\n  dup2\n  mstore\n  0x20\n  add\n  0x4d55000000000000000000000000000000000000000000000000000000000000\n  dup2\n  mstore\n  pop\n  dup2\n  mstore\n  pop\n    /* \"Contracts/Countries.sol\":354:8053  Country[194] memory countries = [... */\n  dup2\n  mstore\n  0x20\n  add\n    /* \"Contracts/Countries.sol\":4614:4637  Country(\"Mexico\", \"MX\") */\n  mload(0x40)\n  dup1\n  0x40\n  add\n  0x40\n  mstore\n  dup1\n  mload(0x40)\n  dup1\n  0x40\n  add\n  0x40\n  mstore\n  dup1\n  0x06\n  dup2\n  mstore\n  0x20\n  add\n  0x4d657869636f0000000000000000000000000000000000000000000000000000\n  dup2\n  mstore\n  pop\n  dup2\n  mstore\n  0x20\n  add\n  mload(0x40)\n  dup1\n  0x40\n  add\n  0x40\n  mstore\n  dup1\n  0x02\n  dup2\n  mstore\n  0x20\n  add\n  0x4d58000000000000000000000000000000000000000000000000000000000000\n  dup2\n  mstore\n  pop\n  dup2\n  mstore\n  pop\n    /* \"Contracts/Countries.sol\":354:8053  Country[194] memory countries = [... */\n  dup2\n  mstore\n  0x20\n  add\n    /* \"Contracts/Countries.sol\":4651:4678  Country(\"Micronesia\", \"FM\") */\n  mload(0x40)\n  dup1\n  0x40\n  add\n  0x40\n  mstore\n  dup1\n  mload(0x40)\n  dup1\n  0x40\n  add\n  0x40\n  mstore\n  dup1\n  0x0a\n  dup2\n  mstore\n  0x20\n  add\n  0x4d6963726f6e6573696100000000000000000000000000000000000000000000\n  dup2\n  mstore\n  pop\n  dup2\n  mstore\n  0x20\n  add\n  mload(0x40)\n  dup1\n  0x40\n  add\n  0x40\n  mstore\n  dup1\n  0x02\n  dup2\n  mstore\n  0x20\n  add\n  0x464d000000000000000000000000000000000000000000000000000000000000\n  dup2\n  mstore\n  pop\n  dup2\n  mstore\n  pop\n    /* \"Contracts/Countries.sol\":354:8053  Country[194] memory countries = [... */\n  dup2\n  mstore\n  0x20\n  add\n    /* \"Contracts/Countries.sol\":4692:4716  Country(\"Moldova\", \"MD\") */\n  mload(0x40)\n  dup1\n  0x40\n  add\n  0x40\n  mstore\n  dup1\n  mload(0x40)\n  dup1\n  0x40\n  add\n  0x40\n  mstore\n  dup1\n  0x07\n  dup2\n  mstore\n  0x20\n  add\n  0x4d6f6c646f766100000000000000000000000000000000000000000000000000\n  dup2\n  mstore\n  pop\n  dup2\n  mstore\n  0x20\n  add\n  mload(0x40)\n  dup1\n  0x40\n  add\n  0x40\n  mstore\n  dup1\n  0x02\n  dup2\n  mstore\n  0x20\n  add\n  0x4d44000000000000000000000000000000000000000000000000000000000000\n  dup2\n  mstore\n  pop\n  dup2\n  mstore\n  pop\n    /* \"Contracts/Countries.sol\":354:8053  Country[194] memory countries = [... */\n  dup2\n  mstore\n  0x20\n  add\n    /* \"Contracts/Countries.sol\":4730:4753  Country(\"Monaco\", \"MC\") */\n  mload(0x40)\n  dup1\n  0x40\n  add\n  0x40\n  mstore\n  dup1\n  mload(0x40)\n  dup1\n  0x40\n  add\n  0x40\n  mstore\n  dup1\n  0x06\n  dup2\n  mstore\n  0x20\n  add\n  0x4d6f6e61636f0000000000000000000000000000000000000000000000000000\n  dup2\n  mstore\n  pop\n  dup2\n  mstore\n  0x20\n  add\n  mload(0x40)\n  dup1\n  0x40\n  add\n  0x40\n  mstore\n  dup1\n  0x02\n  dup2\n  mstore\n  0x20\n  add\n  0x4d43000000000000000000000000000000000000000000000000000000000000\n  dup2\n  mstore\n  pop\n  dup2\n  mstore\n  pop\n    /* \"Contracts/Countries.sol\":354:8053  Country[194] memory countries = [... */\n  dup2\n  mstore\n  0x20\n  add\n    /* \"Contracts/Countries.sol\":4767:4792  Country(\"Mongolia\", \"MN\") */\n  mload(0x40)\n  dup1\n  0x40\n  add\n  0x40\n  mstore\n  dup1\n  mload(0x40)\n  dup1\n  0x40\n  add\n  0x40\n  mstore\n  dup1\n  0x08\n  dup2\n  mstore\n  0x20\n  add\n  0x4d6f6e676f6c6961000000000000000000000000000000000000000000000000\n  dup2\n  mstore\n  pop\n  dup2\n  mstore\n  0x20\n  add\n  mload(0x40)\n  dup1\n  0x40\n  add\n  0x40\n  mstore\n  dup1\n  0x02\n  dup2\n  mstore\n  0x20\n  add\n  0x4d4e000000000000000000000000000000000000000000000000000000000000\n  dup2\n  mstore\n  pop\n  dup2\n  mstore\n  pop\n    /* \"Contracts/Countries.sol\":354:8053  Country[194] memory countries = [... */\n  dup2\n  mstore\n  0x20\n  add\n    /* \"Contracts/Countries.sol\":4806:4833  Country(\"Montenegro\", \"ME\") */\n  mload(0x40)\n  dup1\n  0x40\n  add\n  0x40\n  mstore\n  dup1\n  mload(0x40)\n  dup1\n  0x40\n  add\n  0x40\n  mstore\n  dup1\n  0x0a\n  dup2\n  mstore\n  0x20\n  add\n  0x4d6f6e74656e6567726f00000000000000000000000000000000000000000000\n  dup2\n  mstore\n  pop\n  dup2\n  mstore\n  0x20\n  add\n  mload(0x40)\n  dup1\n  0x40\n  add\n  0x40\n  mstore\n  dup1\n  0x02\n  dup2\n  mstore\n  0x20\n  add\n  0x4d45000000000000000000000000000000000000000000000000000000000000\n  dup2\n  mstore\n  pop\n  dup2\n  mstore\n  pop\n    /* \"Contracts/Countries.sol\":354:8053  Country[194] memory countries = [... */\n  dup2\n  mstore\n  0x20\n  add\n    /* \"Contracts/Countries.sol\":4847:4871  Country(\"Morocco\", \"MA\") */\n  mload(0x40)\n  dup1\n  0x40\n  add\n  0x40\n  mstore\n  dup1\n  mload(0x40)\n  dup1\n  0x40\n  add\n  0x40\n  mstore\n  dup1\n  0x07\n  dup2\n  mstore\n  0x20\n  add\n  0x4d6f726f63636f00000000000000000000000000000000000000000000000000\n  dup2\n  mstore\n  pop\n  dup2\n  mstore\n  0x20\n  add\n  mload(0x40)\n  dup1\n  0x40\n  add\n  0x40\n  mstore\n  dup1\n  0x02\n  dup2\n  mstore\n  0x20\n  add\n  0x4d41000000000000000000000000000000000000000000000000000000000000\n  dup2\n  mstore\n  pop\n  dup2\n  mstore\n  pop\n    /* \"Contracts/Countries.sol\":354:8053  Country[194] memory countries = [... */\n  dup2\n  mstore\n  0x20\n  add\n    /* \"Contracts/Countries.sol\":4885:4912  Country(\"Mozambique\", \"MZ\") */\n  mload(0x40)\n  dup1\n  0x40\n  add\n  0x40\n  mstore\n  dup1\n  mload(0x40)\n  dup1\n  0x40\n  add\n  0x40\n  mstore\n  dup1\n  0x0a\n  dup2\n  mstore\n  0x20\n  add\n  0x4d6f7a616d626971756500000000000000000000000000000000000000000000\n  dup2\n  mstore\n  pop\n  dup2\n  mstore\n  0x20\n  add\n  mload(0x40)\n  dup1\n  0x40\n  add\n  0x40\n  mstore\n  dup1\n  0x02\n  dup2\n  mstore\n  0x20\n  add\n  0x4d5a000000000000000000000000000000000000000000000000000000000000\n  dup2\n  mstore\n  pop\n  dup2\n  mstore\n  pop\n    /* \"Contracts/Countries.sol\":354:8053  Country[194] memory countries = [... */\n  dup2\n  mstore\n  0x20\n  add\n    /* \"Contracts/Countries.sol\":4926:4950  Country(\"Myanmar\", \"MM\") */\n  mload(0x40)\n  dup1\n  0x40\n  add\n  0x40\n  mstore\n  dup1\n  mload(0x40)\n  dup1\n  0x40\n  add\n  0x40\n  mstore\n  dup1\n  0x07\n  dup2\n  mstore\n  0x20\n  add\n  0x4d79616e6d617200000000000000000000000000000000000000000000000000\n  dup2\n  mstore\n  pop\n  dup2\n  mstore\n  0x20\n  add\n  mload(0x40)\n  dup1\n  0x40\n  add\n  0x40\n  mstore\n  dup1\n  0x02\n  dup2\n  mstore\n  0x20\n  add\n  0x4d4d000000000000000000000000000000000000000000000000000000000000\n  dup2\n  mstore\n  pop\n  dup2\n  mstore\n  pop\n    /* \"Contracts/Countries.sol\":354:8053  Country[194] memory countries = [... */\n  dup2\n  mstore\n  0x20\n  add\n    /* \"Contracts/Countries.sol\":4964:4988  Country(\"Namibia\", \"NA\") */\n  mload(0x40)\n  dup1\n  0x40\n  add\n  0x40\n  mstore\n  dup1\n  mload(0x40)\n  dup1\n  0x40\n  add\n  0x40\n  mstore\n  dup1\n  0x07\n  dup2\n  mstore\n  0x20\n  add\n  0x4e616d6962696100000000000000000000000000000000000000000000000000\n  dup2\n  mstore\n  pop\n  dup2\n  mstore\n  0x20\n  add\n  mload(0x40)\n  dup1\n  0x40\n  add\n  0x40\n  mstore\n  dup1\n  0x02\n  dup2\n  mstore\n  0x20\n  add\n  0x4e41000000000000000000000000000000000000000000000000000000000000\n  dup2\n  mstore\n  pop\n  dup2\n  mstore\n  pop\n    /* \"Contracts/Countries.sol\":354:8053  Country[194] memory countries = [... */\n  dup2\n  mstore\n  0x20\n  add\n    /* \"Contracts/Countries.sol\":5002:5024  Country(\"Nauru\", \"NR\") */\n  mload(0x40)\n  dup1\n  0x40\n  add\n  0x40\n  mstore\n  dup1\n  mload(0x40)\n  dup1\n  0x40\n  add\n  0x40\n  mstore\n  dup1\n  0x05\n  dup2\n  mstore\n  0x20\n  add\n  0x4e61757275000000000000000000000000000000000000000000000000000000\n  dup2\n  mstore\n  pop\n  dup2\n  mstore\n  0x20\n  add\n  mload(0x40)\n  dup1\n  0x40\n  add\n  0x40\n  mstore\n  dup1\n  0x02\n  dup2\n  mstore\n  0x20\n  add\n  0x4e52000000000000000000000000000000000000000000000000000000000000\n  dup2\n  mstore\n  pop\n  dup2\n  mstore\n  pop\n    /* \"Contracts/Countries.sol\":354:8053  Country[194] memory countries = [... */\n  dup2\n  mstore\n  0x20\n  add\n    /* \"Contracts/Countries.sol\":5038:5060  Country(\"Nepal\", \"NP\") */\n  mload(0x40)\n  dup1\n  0x40\n  add\n  0x40\n  mstore\n  dup1\n  mload(0x40)\n  dup1\n  0x40\n  add\n  0x40\n  mstore\n  dup1\n  0x05\n  dup2\n  mstore\n  0x20\n  add\n  0x4e6570616c000000000000000000000000000000000000000000000000000000\n  dup2\n  mstore\n  pop\n  dup2\n  mstore\n  0x20\n  add\n  mload(0x40)\n  dup1\n  0x40\n  add\n  0x40\n  mstore\n  dup1\n  0x02\n  dup2\n  mstore\n  0x20\n  add\n  0x4e50000000000000000000000000000000000000000000000000000000000000\n  dup2\n  mstore\n  pop\n  dup2\n  mstore\n  pop\n    /* \"Contracts/Countries.sol\":354:8053  Country[194] memory countries = [... */\n  dup2\n  mstore\n  0x20\n  add\n    /* \"Contracts/Countries.sol\":5074:5102  Country(\"Netherlands\", \"NL\") */\n  mload(0x40)\n  dup1\n  0x40\n  add\n  0x40\n  mstore\n  dup1\n  mload(0x40)\n  dup1\n  0x40\n  add\n  0x40\n  mstore\n  dup1\n  0x0b\n  dup2\n  mstore\n  0x20\n  add\n  0x4e65746865726c616e6473000000000000000000000000000000000000000000\n  dup2\n  mstore\n  pop\n  dup2\n  mstore\n  0x20\n  add\n  mload(0x40)\n  dup1\n  0x40\n  add\n  0x40\n  mstore\n  dup1\n  0x02\n  dup2\n  mstore\n  0x20\n  add\n  0x4e4c000000000000000000000000000000000000000000000000000000000000\n  dup2\n  mstore\n  pop\n  dup2\n  mstore\n  pop\n    /* \"Contracts/Countries.sol\":354:8053  Country[194] memory countries = [... */\n  dup2\n  mstore\n  0x20\n  add\n    /* \"Contracts/Countries.sol\":5116:5144  Country(\"New Zealand\", \"NZ\") */\n  mload(0x40)\n  dup1\n  0x40\n  add\n  0x40\n  mstore\n  dup1\n  mload(0x40)\n  dup1\n  0x40\n  add\n  0x40\n  mstore\n  dup1\n  0x0b\n  dup2\n  mstore\n  0x20\n  add\n  0x4e6577205a65616c616e64000000000000000000000000000000000000000000\n  dup2\n  mstore\n  pop\n  dup2\n  mstore\n  0x20\n  add\n  mload(0x40)\n  dup1\n  0x40\n  add\n  0x40\n  mstore\n  dup1\n  0x02\n  dup2\n  mstore\n  0x20\n  add\n  0x4e5a000000000000000000000000000000000000000000000000000000000000\n  dup2\n  mstore\n  pop\n  dup2\n  mstore\n  pop\n    /* \"Contracts/Countries.sol\":354:8053  Country[194] memory countries = [... */\n  dup2\n  mstore\n  0x20\n  add\n    /* \"Contracts/Countries.sol\":5158:5184  Country(\"Nicaragua\", \"NI\") */\n  mload(0x40)\n  dup1\n  0x40\n  add\n  0x40\n  mstore\n  dup1\n  mload(0x40)\n  dup1\n  0x40\n  add\n  0x40\n  mstore\n  dup1\n  0x09\n  dup2\n  mstore\n  0x20\n  add\n  0x4e69636172616775610000000000000000000000000000000000000000000000\n  dup2\n  mstore\n  pop\n  dup2\n  mstore\n  0x20\n  add\n  mload(0x40)\n  dup1\n  0x40\n  add\n  0x40\n  mstore\n  dup1\n  0x02\n  dup2\n  mstore\n  0x20\n  add\n  0x4e49000000000000000000000000000000000000000000000000000000000000\n  dup2\n  mstore\n  pop\n  dup2\n  mstore\n  pop\n    /* \"Contracts/Countries.sol\":354:8053  Country[194] memory countries = [... */\n  dup2\n  mstore\n  0x20\n  add\n    /* \"Contracts/Countries.sol\":5198:5220  Country(\"Niger\", \"NE\") */\n  mload(0x40)\n  dup1\n  0x40\n  add\n  0x40\n  mstore\n  dup1\n  mload(0x40)\n  dup1\n  0x40\n  add\n  0x40\n  mstore\n  dup1\n  0x05\n  dup2\n  mstore\n  0x20\n  add\n  0x4e69676572000000000000000000000000000000000000000000000000000000\n  dup2\n  mstore\n  pop\n  dup2\n  mstore\n  0x20\n  add\n  mload(0x40)\n  dup1\n  0x40\n  add\n  0x40\n  mstore\n  dup1\n  0x02\n  dup2\n  mstore\n  0x20\n  add\n  0x4e45000000000000000000000000000000000000000000000000000000000000\n  dup2\n  mstore\n  pop\n  dup2\n  mstore\n  pop\n    /* \"Contracts/Countries.sol\":354:8053  Country[194] memory countries = [... */\n  dup2\n  mstore\n  0x20\n  add\n    /* \"Contracts/Countries.sol\":5234:5258  Country(\"Nigeria\", \"NG\") */\n  mload(0x40)\n  dup1\n  0x40\n  add\n  0x40\n  mstore\n  dup1\n  mload(0x40)\n  dup1\n  0x40\n  add\n  0x40\n  mstore\n  dup1\n  0x07\n  dup2\n  mstore\n  0x20\n  add\n  0x4e69676572696100000000000000000000000000000000000000000000000000\n  dup2\n  mstore\n  pop\n  dup2\n  mstore\n  0x20\n  add\n  mload(0x40)\n  dup1\n  0x40\n  add\n  0x40\n  mstore\n  dup1\n  0x02\n  dup2\n  mstore\n  0x20\n  add\n  0x4e47000000000000000000000000000000000000000000000000000000000000\n  dup2\n  mstore\n  pop\n  dup2\n  mstore\n  pop\n    /* \"Contracts/Countries.sol\":354:8053  Country[194] memory countries = [... */\n  dup2\n  mstore\n  0x20\n  add\n    /* \"Contracts/Countries.sol\":5272:5300  Country(\"North Korea\", \"KP\") */\n  mload(0x40)\n  dup1\n  0x40\n  add\n  0x40\n  mstore\n  dup1\n  mload(0x40)\n  dup1\n  0x40\n  add\n  0x40\n  mstore\n  dup1\n  0x0b\n  dup2\n  mstore\n  0x20\n  add\n  0x4e6f727468204b6f726561000000000000000000000000000000000000000000\n  dup2\n  mstore\n  pop\n  dup2\n  mstore\n  0x20\n  add\n  mload(0x40)\n  dup1\n  0x40\n  add\n  0x40\n  mstore\n  dup1\n  0x02\n  dup2\n  mstore\n  0x20\n  add\n  0x4b50000000000000000000000000000000000000000000000000000000000000\n  dup2\n  mstore\n  pop\n  dup2\n  mstore\n  pop\n    /* \"Contracts/Countries.sol\":354:8053  Country[194] memory countries = [... */\n  dup2\n  mstore\n  0x20\n  add\n    /* \"Contracts/Countries.sol\":5314:5346  Country(\"North Macedonia\", \"MK\") */\n  mload(0x40)\n  dup1\n  0x40\n  add\n  0x40\n  mstore\n  dup1\n  mload(0x40)\n  dup1\n  0x40\n  add\n  0x40\n  mstore\n  dup1\n  0x0f\n  dup2\n  mstore\n  0x20\n  add\n  0x4e6f727468204d616365646f6e69610000000000000000000000000000000000\n  dup2\n  mstore\n  pop\n  dup2\n  mstore\n  0x20\n  add\n  mload(0x40)\n  dup1\n  0x40\n  add\n  0x40\n  mstore\n  dup1\n  0x02\n  dup2\n  mstore\n  0x20\n  add\n  0x4d4b000000000000000000000000000000000000000000000000000000000000\n  dup2\n  mstore\n  pop\n  dup2\n  mstore\n  pop\n    /* \"Contracts/Countries.sol\":354:8053  Country[194] memory countries = [... */\n  dup2\n  mstore\n  0x20\n  add\n    /* \"Contracts/Countries.sol\":5360:5383  Country(\"Norway\", \"NO\") */\n  mload(0x40)\n  dup1\n  0x40\n  add\n  0x40\n  mstore\n  dup1\n  mload(0x40)\n  dup1\n  0x40\n  add\n  0x40\n  mstore\n  dup1\n  0x06\n  dup2\n  mstore\n  0x20\n  add\n  0x4e6f727761790000000000000000000000000000000000000000000000000000\n  dup2\n  mstore\n  pop\n  dup2\n  mstore\n  0x20\n  add\n  mload(0x40)\n  dup1\n  0x40\n  add\n  0x40\n  mstore\n  dup1\n  0x02\n  dup2\n  mstore\n  0x20\n  add\n  0x4e4f000000000000000000000000000000000000000000000000000000000000\n  dup2\n  mstore\n  pop\n  dup2\n  mstore\n  pop\n    /* \"Contracts/Countries.sol\":354:8053  Country[194] memory countries = [... */\n  dup2\n  mstore\n  0x20\n  add\n    /* \"Contracts/Countries.sol\":5397:5418  Country(\"Oman\", \"OM\") */\n  mload(0x40)\n  dup1\n  0x40\n  add\n  0x40\n  mstore\n  dup1\n  mload(0x40)\n  dup1\n  0x40\n  add\n  0x40\n  mstore\n  dup1\n  0x04\n  dup2\n  mstore\n  0x20\n  add\n  0x4f6d616e00000000000000000000000000000000000000000000000000000000\n  dup2\n  mstore\n  pop\n  dup2\n  mstore\n  0x20\n  add\n  mload(0x40)\n  dup1\n  0x40\n  add\n  0x40\n  mstore\n  dup1\n  0x02\n  dup2\n  mstore\n  0x20\n  add\n  0x4f4d000000000000000000000000000000000000000000000000000000000000\n  dup2\n  mstore\n  pop\n  dup2\n  mstore\n  pop\n    /* \"Contracts/Countries.sol\":354:8053  Country[194] memory countries = [... */\n  dup2\n  mstore\n  0x20\n  add\n    /* \"Contracts/Countries.sol\":5432:5457  Country(\"Pakistan\", \"PK\") */\n  mload(0x40)\n  dup1\n  0x40\n  add\n  0x40\n  mstore\n  dup1\n  mload(0x40)\n  dup1\n  0x40\n  add\n  0x40\n  mstore\n  dup1\n  0x08\n  dup2\n  mstore\n  0x20\n  add\n  0x50616b697374616e000000000000000000000000000000000000000000000000\n  dup2\n  mstore\n  pop\n  dup2\n  mstore\n  0x20\n  add\n  mload(0x40)\n  dup1\n  0x40\n  add\n  0x40\n  mstore\n  dup1\n  0x02\n  dup2\n  mstore\n  0x20\n  add\n  0x504b000000000000000000000000000000000000000000000000000000000000\n  dup2\n  mstore\n  pop\n  dup2\n  mstore\n  pop\n    /* \"Contracts/Countries.sol\":354:8053  Country[194] memory countries = [... */\n  dup2\n  mstore\n  0x20\n  add\n    /* \"Contracts/Countries.sol\":5471:5493  Country(\"Palau\", \"PW\") */\n  mload(0x40)\n  dup1\n  0x40\n  add\n  0x40\n  mstore\n  dup1\n  mload(0x40)\n  dup1\n  0x40\n  add\n  0x40\n  mstore\n  dup1\n  0x05\n  dup2\n  mstore\n  0x20\n  add\n  0x50616c6175000000000000000000000000000000000000000000000000000000\n  dup2\n  mstore\n  pop\n  dup2\n  mstore\n  0x20\n  add\n  mload(0x40)\n  dup1\n  0x40\n  add\n  0x40\n  mstore\n  dup1\n  0x02\n  dup2\n  mstore\n  0x20\n  add\n  0x5057000000000000000000000000000000000000000000000000000000000000\n  dup2\n  mstore\n  pop\n  dup2\n  mstore\n  pop\n    /* \"Contracts/Countries.sol\":354:8053  Country[194] memory countries = [... */\n  dup2\n  mstore\n  0x20\n  add\n    /* \"Contracts/Countries.sol\":5507:5533  Country(\"Palestine\", \"PS\") */\n  mload(0x40)\n  dup1\n  0x40\n  add\n  0x40\n  mstore\n  dup1\n  mload(0x40)\n  dup1\n  0x40\n  add\n  0x40\n  mstore\n  dup1\n  0x09\n  dup2\n  mstore\n  0x20\n  add\n  0x50616c657374696e650000000000000000000000000000000000000000000000\n  dup2\n  mstore\n  pop\n  dup2\n  mstore\n  0x20\n  add\n  mload(0x40)\n  dup1\n  0x40\n  add\n  0x40\n  mstore\n  dup1\n  0x02\n  dup2\n  mstore\n  0x20\n  add\n  0x5053000000000000000000000000000000000000000000000000000000000000\n  dup2\n  mstore\n  pop\n  dup2\n  mstore\n  pop\n    /* \"Contracts/Countries.sol\":354:8053  Country[194] memory countries = [... */\n  dup2\n  mstore\n  0x20\n  add\n    /* \"Contracts/Countries.sol\":5547:5570  Country(\"Panama\", \"PA\") */\n  mload(0x40)\n  dup1\n  0x40\n  add\n  0x40\n  mstore\n  dup1\n  mload(0x40)\n  dup1\n  0x40\n  add\n  0x40\n  mstore\n  dup1\n  0x06\n  dup2\n  mstore\n  0x20\n  add\n  0x50616e616d610000000000000000000000000000000000000000000000000000\n  dup2\n  mstore\n  pop\n  dup2\n  mstore\n  0x20\n  add\n  mload(0x40)\n  dup1\n  0x40\n  add\n  0x40\n  mstore\n  dup1\n  0x02\n  dup2\n  mstore\n  0x20\n  add\n  0x5041000000000000000000000000000000000000000000000000000000000000\n  dup2\n  mstore\n  pop\n  dup2\n  mstore\n  pop\n    /* \"Contracts/Countries.sol\":354:8053  Country[194] memory countries = [... */\n  dup2\n  mstore\n  0x20\n  add\n    /* \"Contracts/Countries.sol\":5584:5617  Country(\"Papua New Guinea\", \"PG\") */\n  mload(0x40)\n  dup1\n  0x40\n  add\n  0x40\n  mstore\n  dup1\n  mload(0x40)\n  dup1\n  0x40\n  add\n  0x40\n  mstore\n  dup1\n  0x10\n  dup2\n  mstore\n  0x20\n  add\n  0x5061707561204e6577204775696e656100000000000000000000000000000000\n  dup2\n  mstore\n  pop\n  dup2\n  mstore\n  0x20\n  add\n  mload(0x40)\n  dup1\n  0x40\n  add\n  0x40\n  mstore\n  dup1\n  0x02\n  dup2\n  mstore\n  0x20\n  add\n  0x5047000000000000000000000000000000000000000000000000000000000000\n  dup2\n  mstore\n  pop\n  dup2\n  mstore\n  pop\n    /* \"Contracts/Countries.sol\":354:8053  Country[194] memory countries = [... */\n  dup2\n  mstore\n  0x20\n  add\n    /* \"Contracts/Countries.sol\":5631:5656  Country(\"Paraguay\", \"PY\") */\n  mload(0x40)\n  dup1\n  0x40\n  add\n  0x40\n  mstore\n  dup1\n  mload(0x40)\n  dup1\n  0x40\n  add\n  0x40\n  mstore\n  dup1\n  0x08\n  dup2\n  mstore\n  0x20\n  add\n  0x5061726167756179000000000000000000000000000000000000000000000000\n  dup2\n  mstore\n  pop\n  dup2\n  mstore\n  0x20\n  add\n  mload(0x40)\n  dup1\n  0x40\n  add\n  0x40\n  mstore\n  dup1\n  0x02\n  dup2\n  mstore\n  0x20\n  add\n  0x5059000000000000000000000000000000000000000000000000000000000000\n  dup2\n  mstore\n  pop\n  dup2\n  mstore\n  pop\n    /* \"Contracts/Countries.sol\":354:8053  Country[194] memory countries = [... */\n  dup2\n  mstore\n  0x20\n  add\n    /* \"Contracts/Countries.sol\":5670:5691  Country(\"Peru\", \"PE\") */\n  mload(0x40)\n  dup1\n  0x40\n  add\n  0x40\n  mstore\n  dup1\n  mload(0x40)\n  dup1\n  0x40\n  add\n  0x40\n  mstore\n  dup1\n  0x04\n  dup2\n  mstore\n  0x20\n  add\n  0x5065727500000000000000000000000000000000000000000000000000000000\n  dup2\n  mstore\n  pop\n  dup2\n  mstore\n  0x20\n  add\n  mload(0x40)\n  dup1\n  0x40\n  add\n  0x40\n  mstore\n  dup1\n  0x02\n  dup2\n  mstore\n  0x20\n  add\n  0x5045000000000000000000000000000000000000000000000000000000000000\n  dup2\n  mstore\n  pop\n  dup2\n  mstore\n  pop\n    /* \"Contracts/Countries.sol\":354:8053  Country[194] memory countries = [... */\n  dup2\n  mstore\n  0x20\n  add\n    /* \"Contracts/Countries.sol\":5705:5733  Country(\"Philippines\", \"PH\") */\n  mload(0x40)\n  dup1\n  0x40\n  add\n  0x40\n  mstore\n  dup1\n  mload(0x40)\n  dup1\n  0x40\n  add\n  0x40\n  mstore\n  dup1\n  0x0b\n  dup2\n  mstore\n  0x20\n  add\n  0x5068696c697070696e6573000000000000000000000000000000000000000000\n  dup2\n  mstore\n  pop\n  dup2\n  mstore\n  0x20\n  add\n  mload(0x40)\n  dup1\n  0x40\n  add\n  0x40\n  mstore\n  dup1\n  0x02\n  dup2\n  mstore\n  0x20\n  add\n  0x5048000000000000000000000000000000000000000000000000000000000000\n  dup2\n  mstore\n  pop\n  dup2\n  mstore\n  pop\n    /* \"Contracts/Countries.sol\":354:8053  Country[194] memory countries = [... */\n  dup2\n  mstore\n  0x20\n  add\n    /* \"Contracts/Countries.sol\":5747:5770  Country(\"Poland\", \"PL\") */\n  mload(0x40)\n  dup1\n  0x40\n  add\n  0x40\n  mstore\n  dup1\n  mload(0x40)\n  dup1\n  0x40\n  add\n  0x40\n  mstore\n  dup1\n  0x06\n  dup2\n  mstore\n  0x20\n  add\n  0x506f6c616e640000000000000000000000000000000000000000000000000000\n  dup2\n  mstore\n  pop\n  dup2\n  mstore\n  0x20\n  add\n  mload(0x40)\n  dup1\n  0x40\n  add\n  0x40\n  mstore\n  dup1\n  0x02\n  dup2\n  mstore\n  0x20\n  add\n  0x504c000000000000000000000000000000000000000000000000000000000000\n  dup2\n  mstore\n  pop\n  dup2\n  mstore\n  pop\n    /* \"Contracts/Countries.sol\":354:8053  Country[194] memory countries = [... */\n  dup2\n  mstore\n  0x20\n  add\n    /* \"Contracts/Countries.sol\":5784:5809  Country(\"Portugal\", \"PT\") */\n  mload(0x40)\n  dup1\n  0x40\n  add\n  0x40\n  mstore\n  dup1\n  mload(0x40)\n  dup1\n  0x40\n  add\n  0x40\n  mstore\n  dup1\n  0x08\n  dup2\n  mstore\n  0x20\n  add\n  0x506f72747567616c000000000000000000000000000000000000000000000000\n  dup2\n  mstore\n  pop\n  dup2\n  mstore\n  0x20\n  add\n  mload(0x40)\n  dup1\n  0x40\n  add\n  0x40\n  mstore\n  dup1\n  0x02\n  dup2\n  mstore\n  0x20\n  add\n  0x5054000000000000000000000000000000000000000000000000000000000000\n  dup2\n  mstore\n  pop\n  dup2\n  mstore\n  pop\n    /* \"Contracts/Countries.sol\":354:8053  Country[194] memory countries = [... */\n  dup2\n  mstore\n  0x20\n  add\n    /* \"Contracts/Countries.sol\":5823:5845  Country(\"Qatar\", \"QA\") */\n  mload(0x40)\n  dup1\n  0x40\n  add\n  0x40\n  mstore\n  dup1\n  mload(0x40)\n  dup1\n  0x40\n  add\n  0x40\n  mstore\n  dup1\n  0x05\n  dup2\n  mstore\n  0x20\n  add\n  0x5161746172000000000000000000000000000000000000000000000000000000\n  dup2\n  mstore\n  pop\n  dup2\n  mstore\n  0x20\n  add\n  mload(0x40)\n  dup1\n  0x40\n  add\n  0x40\n  mstore\n  dup1\n  0x02\n  dup2\n  mstore\n  0x20\n  add\n  0x5141000000000000000000000000000000000000000000000000000000000000\n  dup2\n  mstore\n  pop\n  dup2\n  mstore\n  pop\n    /* \"Contracts/Countries.sol\":354:8053  Country[194] memory countries = [... */\n  dup2\n  mstore\n  0x20\n  add\n    /* \"Contracts/Countries.sol\":5859:5883  Country(\"Romania\", \"RO\") */\n  mload(0x40)\n  dup1\n  0x40\n  add\n  0x40\n  mstore\n  dup1\n  mload(0x40)\n  dup1\n  0x40\n  add\n  0x40\n  mstore\n  dup1\n  0x07\n  dup2\n  mstore\n  0x20\n  add\n  0x526f6d616e696100000000000000000000000000000000000000000000000000\n  dup2\n  mstore\n  pop\n  dup2\n  mstore\n  0x20\n  add\n  mload(0x40)\n  dup1\n  0x40\n  add\n  0x40\n  mstore\n  dup1\n  0x02\n  dup2\n  mstore\n  0x20\n  add\n  0x524f000000000000000000000000000000000000000000000000000000000000\n  dup2\n  mstore\n  pop\n  dup2\n  mstore\n  pop\n    /* \"Contracts/Countries.sol\":354:8053  Country[194] memory countries = [... */\n  dup2\n  mstore\n  0x20\n  add\n    /* \"Contracts/Countries.sol\":5897:5920  Country(\"Russia\", \"RU\") */\n  mload(0x40)\n  dup1\n  0x40\n  add\n  0x40\n  mstore\n  dup1\n  mload(0x40)\n  dup1\n  0x40\n  add\n  0x40\n  mstore\n  dup1\n  0x06\n  dup2\n  mstore\n  0x20\n  add\n  0x5275737369610000000000000000000000000000000000000000000000000000\n  dup2\n  mstore\n  pop\n  dup2\n  mstore\n  0x20\n  add\n  mload(0x40)\n  dup1\n  0x40\n  add\n  0x40\n  mstore\n  dup1\n  0x02\n  dup2\n  mstore\n  0x20\n  add\n  0x5255000000000000000000000000000000000000000000000000000000000000\n  dup2\n  mstore\n  pop\n  dup2\n  mstore\n  pop\n    /* \"Contracts/Countries.sol\":354:8053  Country[194] memory countries = [... */\n  dup2\n  mstore\n  0x20\n  add\n    /* \"Contracts/Countries.sol\":5934:5957  Country(\"Rwanda\", \"RW\") */\n  mload(0x40)\n  dup1\n  0x40\n  add\n  0x40\n  mstore\n  dup1\n  mload(0x40)\n  dup1\n  0x40\n  add\n  0x40\n  mstore\n  dup1\n  0x06\n  dup2\n  mstore\n  0x20\n  add\n  0x5277616e64610000000000000000000000000000000000000000000000000000\n  dup2\n  mstore\n  pop\n  dup2\n  mstore\n  0x20\n  add\n  mload(0x40)\n  dup1\n  0x40\n  add\n  0x40\n  mstore\n  dup1\n  0x02\n  dup2\n  mstore\n  0x20\n  add\n  0x5257000000000000000000000000000000000000000000000000000000000000\n  dup2\n  mstore\n  pop\n  dup2\n  mstore\n  pop\n    /* \"Contracts/Countries.sol\":354:8053  Country[194] memory countries = [... */\n  dup2\n  mstore\n  0x20\n  add\n    /* \"Contracts/Countries.sol\":5971:6009  Country(\"Saint Kitts and Nevis\", \"KN\") */\n  mload(0x40)\n  dup1\n  0x40\n  add\n  0x40\n  mstore\n  dup1\n  mload(0x40)\n  dup1\n  0x40\n  add\n  0x40\n  mstore\n  dup1\n  0x15\n  dup2\n  mstore\n  0x20\n  add\n  0x5361696e74204b6974747320616e64204e657669730000000000000000000000\n  dup2\n  mstore\n  pop\n  dup2\n  mstore\n  0x20\n  add\n  mload(0x40)\n  dup1\n  0x40\n  add\n  0x40\n  mstore\n  dup1\n  0x02\n  dup2\n  mstore\n  0x20\n  add\n  0x4b4e000000000000000000000000000000000000000000000000000000000000\n  dup2\n  mstore\n  pop\n  dup2\n  mstore\n  pop\n    /* \"Contracts/Countries.sol\":354:8053  Country[194] memory countries = [... */\n  dup2\n  mstore\n  0x20\n  add\n    /* \"Contracts/Countries.sol\":6023:6051  Country(\"Saint Lucia\", \"LC\") */\n  mload(0x40)\n  dup1\n  0x40\n  add\n  0x40\n  mstore\n  dup1\n  mload(0x40)\n  dup1\n  0x40\n  add\n  0x40\n  mstore\n  dup1\n  0x0b\n  dup2\n  mstore\n  0x20\n  add\n  0x5361696e74204c75636961000000000000000000000000000000000000000000\n  dup2\n  mstore\n  pop\n  dup2\n  mstore\n  0x20\n  add\n  mload(0x40)\n  dup1\n  0x40\n  add\n  0x40\n  mstore\n  dup1\n  0x02\n  dup2\n  mstore\n  0x20\n  add\n  0x4c43000000000000000000000000000000000000000000000000000000000000\n  dup2\n  mstore\n  pop\n  dup2\n  mstore\n  pop\n    /* \"Contracts/Countries.sol\":354:8053  Country[194] memory countries = [... */\n  dup2\n  mstore\n  0x20\n  add\n    /* \"Contracts/Countries.sol\":6065:6114  Country(\"Saint Vincent and the Grenadines\", \"VC\") */\n  mload(0x40)\n  dup1\n  0x40\n  add\n  0x40\n  mstore\n  dup1\n  mload(0x40)\n  dup1\n  0x40\n  add\n  0x40\n  mstore\n  dup1\n  0x20\n  dup2\n  mstore\n  0x20\n  add\n  0x5361696e742056696e63656e7420616e6420746865204772656e6164696e6573\n  dup2\n  mstore\n  pop\n  dup2\n  mstore\n  0x20\n  add\n  mload(0x40)\n  dup1\n  0x40\n  add\n  0x40\n  mstore\n  dup1\n  0x02\n  dup2\n  mstore\n  0x20\n  add\n  0x5643000000000000000000000000000000000000000000000000000000000000\n  dup2\n  mstore\n  pop\n  dup2\n  mstore\n  pop\n    /* \"Contracts/Countries.sol\":354:8053  Country[194] memory countries = [... */\n  dup2\n  mstore\n  0x20\n  add\n    /* \"Contracts/Countries.sol\":6128:6150  Country(\"Samoa\", \"WS\") */\n  mload(0x40)\n  dup1\n  0x40\n  add\n  0x40\n  mstore\n  dup1\n  mload(0x40)\n  dup1\n  0x40\n  add\n  0x40\n  mstore\n  dup1\n  0x05\n  dup2\n  mstore\n  0x20\n  add\n  0x53616d6f61000000000000000000000000000000000000000000000000000000\n  dup2\n  mstore\n  pop\n  dup2\n  mstore\n  0x20\n  add\n  mload(0x40)\n  dup1\n  0x40\n  add\n  0x40\n  mstore\n  dup1\n  0x02\n  dup2\n  mstore\n  0x20\n  add\n  0x5753000000000000000000000000000000000000000000000000000000000000\n  dup2\n  mstore\n  pop\n  dup2\n  mstore\n  pop\n    /* \"Contracts/Countries.sol\":354:8053  Country[194] memory countries = [... */\n  dup2\n  mstore\n  0x20\n  add\n    /* \"Contracts/Countries.sol\":6164:6191  Country(\"San Marino\", \"SM\") */\n  mload(0x40)\n  dup1\n  0x40\n  add\n  0x40\n  mstore\n  dup1\n  mload(0x40)\n  dup1\n  0x40\n  add\n  0x40\n  mstore\n  dup1\n  0x0a\n  dup2\n  mstore\n  0x20\n  add\n  0x53616e204d6172696e6f00000000000000000000000000000000000000000000\n  dup2\n  mstore\n  pop\n  dup2\n  mstore\n  0x20\n  add\n  mload(0x40)\n  dup1\n  0x40\n  add\n  0x40\n  mstore\n  dup1\n  0x02\n  dup2\n  mstore\n  0x20\n  add\n  0x534d000000000000000000000000000000000000000000000000000000000000\n  dup2\n  mstore\n  pop\n  dup2\n  mstore\n  pop\n    /* \"Contracts/Countries.sol\":354:8053  Country[194] memory countries = [... */\n  dup2\n  mstore\n  0x20\n  add\n    /* \"Contracts/Countries.sol\":6205:6243  Country(\"Sao Tome and Principe\", \"ST\") */\n  mload(0x40)\n  dup1\n  0x40\n  add\n  0x40\n  mstore\n  dup1\n  mload(0x40)\n  dup1\n  0x40\n  add\n  0x40\n  mstore\n  dup1\n  0x15\n  dup2\n  mstore\n  0x20\n  add\n  0x53616f20546f6d6520616e64205072696e636970650000000000000000000000\n  dup2\n  mstore\n  pop\n  dup2\n  mstore\n  0x20\n  add\n  mload(0x40)\n  dup1\n  0x40\n  add\n  0x40\n  mstore\n  dup1\n  0x02\n  dup2\n  mstore\n  0x20\n  add\n  0x5354000000000000000000000000000000000000000000000000000000000000\n  dup2\n  mstore\n  pop\n  dup2\n  mstore\n  pop\n    /* \"Contracts/Countries.sol\":354:8053  Country[194] memory countries = [... */\n  dup2\n  mstore\n  0x20\n  add\n    /* \"Contracts/Countries.sol\":6257:6286  Country(\"Saudi Arabia\", \"SA\") */\n  mload(0x40)\n  dup1\n  0x40\n  add\n  0x40\n  mstore\n  dup1\n  mload(0x40)\n  dup1\n  0x40\n  add\n  0x40\n  mstore\n  dup1\n  0x0c\n  dup2\n  mstore\n  0x20\n  add\n  0x5361756469204172616269610000000000000000000000000000000000000000\n  dup2\n  mstore\n  pop\n  dup2\n  mstore\n  0x20\n  add\n  mload(0x40)\n  dup1\n  0x40\n  add\n  0x40\n  mstore\n  dup1\n  0x02\n  dup2\n  mstore\n  0x20\n  add\n  0x5341000000000000000000000000000000000000000000000000000000000000\n  dup2\n  mstore\n  pop\n  dup2\n  mstore\n  pop\n    /* \"Contracts/Countries.sol\":354:8053  Country[194] memory countries = [... */\n  dup2\n  mstore\n  0x20\n  add\n    /* \"Contracts/Countries.sol\":6300:6324  Country(\"Senegal\", \"SN\") */\n  mload(0x40)\n  dup1\n  0x40\n  add\n  0x40\n  mstore\n  dup1\n  mload(0x40)\n  dup1\n  0x40\n  add\n  0x40\n  mstore\n  dup1\n  0x07\n  dup2\n  mstore\n  0x20\n  add\n  0x53656e6567616c00000000000000000000000000000000000000000000000000\n  dup2\n  mstore\n  pop\n  dup2\n  mstore\n  0x20\n  add\n  mload(0x40)\n  dup1\n  0x40\n  add\n  0x40\n  mstore\n  dup1\n  0x02\n  dup2\n  mstore\n  0x20\n  add\n  0x534e000000000000000000000000000000000000000000000000000000000000\n  dup2\n  mstore\n  pop\n  dup2\n  mstore\n  pop\n    /* \"Contracts/Countries.sol\":354:8053  Country[194] memory countries = [... */\n  dup2\n  mstore\n  0x20\n  add\n    /* \"Contracts/Countries.sol\":6338:6361  Country(\"Serbia\", \"RS\") */\n  mload(0x40)\n  dup1\n  0x40\n  add\n  0x40\n  mstore\n  dup1\n  mload(0x40)\n  dup1\n  0x40\n  add\n  0x40\n  mstore\n  dup1\n  0x06\n  dup2\n  mstore\n  0x20\n  add\n  0x5365726269610000000000000000000000000000000000000000000000000000\n  dup2\n  mstore\n  pop\n  dup2\n  mstore\n  0x20\n  add\n  mload(0x40)\n  dup1\n  0x40\n  add\n  0x40\n  mstore\n  dup1\n  0x02\n  dup2\n  mstore\n  0x20\n  add\n  0x5253000000000000000000000000000000000000000000000000000000000000\n  dup2\n  mstore\n  pop\n  dup2\n  mstore\n  pop\n    /* \"Contracts/Countries.sol\":354:8053  Country[194] memory countries = [... */\n  dup2\n  mstore\n  0x20\n  add\n    /* \"Contracts/Countries.sol\":6375:6402  Country(\"Seychelles\", \"SC\") */\n  mload(0x40)\n  dup1\n  0x40\n  add\n  0x40\n  mstore\n  dup1\n  mload(0x40)\n  dup1\n  0x40\n  add\n  0x40\n  mstore\n  dup1\n  0x0a\n  dup2\n  mstore\n  0x20\n  add\n  0x5365796368656c6c657300000000000000000000000000000000000000000000\n  dup2\n  mstore\n  pop\n  dup2\n  mstore\n  0x20\n  add\n  mload(0x40)\n  dup1\n  0x40\n  add\n  0x40\n  mstore\n  dup1\n  0x02\n  dup2\n  mstore\n  0x20\n  add\n  0x5343000000000000000000000000000000000000000000000000000000000000\n  dup2\n  mstore\n  pop\n  dup2\n  mstore\n  pop\n    /* \"Contracts/Countries.sol\":354:8053  Country[194] memory countries = [... */\n  dup2\n  mstore\n  0x20\n  add\n    /* \"Contracts/Countries.sol\":6416:6445  Country(\"Sierra Leone\", \"SL\") */\n  mload(0x40)\n  dup1\n  0x40\n  add\n  0x40\n  mstore\n  dup1\n  mload(0x40)\n  dup1\n  0x40\n  add\n  0x40\n  mstore\n  dup1\n  0x0c\n  dup2\n  mstore\n  0x20\n  add\n  0x536965727261204c656f6e650000000000000000000000000000000000000000\n  dup2\n  mstore\n  pop\n  dup2\n  mstore\n  0x20\n  add\n  mload(0x40)\n  dup1\n  0x40\n  add\n  0x40\n  mstore\n  dup1\n  0x02\n  dup2\n  mstore\n  0x20\n  add\n  0x534c000000000000000000000000000000000000000000000000000000000000\n  dup2\n  mstore\n  pop\n  dup2\n  mstore\n  pop\n    /* \"Contracts/Countries.sol\":354:8053  Country[194] memory countries = [... */\n  dup2\n  mstore\n  0x20\n  add\n    /* \"Contracts/Countries.sol\":6459:6485  Country(\"Singapore\", \"SG\") */\n  mload(0x40)\n  dup1\n  0x40\n  add\n  0x40\n  mstore\n  dup1\n  mload(0x40)\n  dup1\n  0x40\n  add\n  0x40\n  mstore\n  dup1\n  0x09\n  dup2\n  mstore\n  0x20\n  add\n  0x53696e6761706f72650000000000000000000000000000000000000000000000\n  dup2\n  mstore\n  pop\n  dup2\n  mstore\n  0x20\n  add\n  mload(0x40)\n  dup1\n  0x40\n  add\n  0x40\n  mstore\n  dup1\n  0x02\n  dup2\n  mstore\n  0x20\n  add\n  0x5347000000000000000000000000000000000000000000000000000000000000\n  dup2\n  mstore\n  pop\n  dup2\n  mstore\n  pop\n    /* \"Contracts/Countries.sol\":354:8053  Country[194] memory countries = [... */\n  dup2\n  mstore\n  0x20\n  add\n    /* \"Contracts/Countries.sol\":6499:6524  Country(\"Slovakia\", \"SK\") */\n  mload(0x40)\n  dup1\n  0x40\n  add\n  0x40\n  mstore\n  dup1\n  mload(0x40)\n  dup1\n  0x40\n  add\n  0x40\n  mstore\n  dup1\n  0x08\n  dup2\n  mstore\n  0x20\n  add\n  0x536c6f76616b6961000000000000000000000000000000000000000000000000\n  dup2\n  mstore\n  pop\n  dup2\n  mstore\n  0x20\n  add\n  mload(0x40)\n  dup1\n  0x40\n  add\n  0x40\n  mstore\n  dup1\n  0x02\n  dup2\n  mstore\n  0x20\n  add\n  0x534b000000000000000000000000000000000000000000000000000000000000\n  dup2\n  mstore\n  pop\n  dup2\n  mstore\n  pop\n    /* \"Contracts/Countries.sol\":354:8053  Country[194] memory countries = [... */\n  dup2\n  mstore\n  0x20\n  add\n    /* \"Contracts/Countries.sol\":6538:6563  Country(\"Slovenia\", \"SI\") */\n  mload(0x40)\n  dup1\n  0x40\n  add\n  0x40\n  mstore\n  dup1\n  mload(0x40)\n  dup1\n  0x40\n  add\n  0x40\n  mstore\n  dup1\n  0x08\n  dup2\n  mstore\n  0x20\n  add\n  0x536c6f76656e6961000000000000000000000000000000000000000000000000\n  dup2\n  mstore\n  pop\n  dup2\n  mstore\n  0x20\n  add\n  mload(0x40)\n  dup1\n  0x40\n  add\n  0x40\n  mstore\n  dup1\n  0x02\n  dup2\n  mstore\n  0x20\n  add\n  0x5349000000000000000000000000000000000000000000000000000000000000\n  dup2\n  mstore\n  pop\n  dup2\n  mstore\n  pop\n    /* \"Contracts/Countries.sol\":354:8053  Country[194] memory countries = [... */\n  dup2\n  mstore\n  0x20\n  add\n    /* \"Contracts/Countries.sol\":6577:6609  Country(\"Solomon Islands\", \"SB\") */\n  mload(0x40)\n  dup1\n  0x40\n  add\n  0x40\n  mstore\n  dup1\n  mload(0x40)\n  dup1\n  0x40\n  add\n  0x40\n  mstore\n  dup1\n  0x0f\n  dup2\n  mstore\n  0x20\n  add\n  0x536f6c6f6d6f6e2049736c616e64730000000000000000000000000000000000\n  dup2\n  mstore\n  pop\n  dup2\n  mstore\n  0x20\n  add\n  mload(0x40)\n  dup1\n  0x40\n  add\n  0x40\n  mstore\n  dup1\n  0x02\n  dup2\n  mstore\n  0x20\n  add\n  0x5342000000000000000000000000000000000000000000000000000000000000\n  dup2\n  mstore\n  pop\n  dup2\n  mstore\n  pop\n    /* \"Contracts/Countries.sol\":354:8053  Country[194] memory countries = [... */\n  dup2\n  mstore\n  0x20\n  add\n    /* \"Contracts/Countries.sol\":6623:6647  Country(\"Somalia\", \"SO\") */\n  mload(0x40)\n  dup1\n  0x40\n  add\n  0x40\n  mstore\n  dup1\n  mload(0x40)\n  dup1\n  0x40\n  add\n  0x40\n  mstore\n  dup1\n  0x07\n  dup2\n  mstore\n  0x20\n  add\n  0x536f6d616c696100000000000000000000000000000000000000000000000000\n  dup2\n  mstore\n  pop\n  dup2\n  mstore\n  0x20\n  add\n  mload(0x40)\n  dup1\n  0x40\n  add\n  0x40\n  mstore\n  dup1\n  0x02\n  dup2\n  mstore\n  0x20\n  add\n  0x534f000000000000000000000000000000000000000000000000000000000000\n  dup2\n  mstore\n  pop\n  dup2\n  mstore\n  pop\n    /* \"Contracts/Countries.sol\":354:8053  Country[194] memory countries = [... */\n  dup2\n  mstore\n  0x20\n  add\n    /* \"Contracts/Countries.sol\":6661:6690  Country(\"South Africa\", \"ZA\") */\n  mload(0x40)\n  dup1\n  0x40\n  add\n  0x40\n  mstore\n  dup1\n  mload(0x40)\n  dup1\n  0x40\n  add\n  0x40\n  mstore\n  dup1\n  0x0c\n  dup2\n  mstore\n  0x20\n  add\n  0x536f757468204166726963610000000000000000000000000000000000000000\n  dup2\n  mstore\n  pop\n  dup2\n  mstore\n  0x20\n  add\n  mload(0x40)\n  dup1\n  0x40\n  add\n  0x40\n  mstore\n  dup1\n  0x02\n  dup2\n  mstore\n  0x20\n  add\n  0x5a41000000000000000000000000000000000000000000000000000000000000\n  dup2\n  mstore\n  pop\n  dup2\n  mstore\n  pop\n    /* \"Contracts/Countries.sol\":354:8053  Country[194] memory countries = [... */\n  dup2\n  mstore\n  0x20\n  add\n    /* \"Contracts/Countries.sol\":6704:6732  Country(\"South Korea\", \"KR\") */\n  mload(0x40)\n  dup1\n  0x40\n  add\n  0x40\n  mstore\n  dup1\n  mload(0x40)\n  dup1\n  0x40\n  add\n  0x40\n  mstore\n  dup1\n  0x0b\n  dup2\n  mstore\n  0x20\n  add\n  0x536f757468204b6f726561000000000000000000000000000000000000000000\n  dup2\n  mstore\n  pop\n  dup2\n  mstore\n  0x20\n  add\n  mload(0x40)\n  dup1\n  0x40\n  add\n  0x40\n  mstore\n  dup1\n  0x02\n  dup2\n  mstore\n  0x20\n  add\n  0x4b52000000000000000000000000000000000000000000000000000000000000\n  dup2\n  mstore\n  pop\n  dup2\n  mstore\n  pop\n    /* \"Contracts/Countries.sol\":354:8053  Country[194] memory countries = [... */\n  dup2\n  mstore\n  0x20\n  add\n    /* \"Contracts/Countries.sol\":6746:6774  Country(\"South Sudan\", \"SS\") */\n  mload(0x40)\n  dup1\n  0x40\n  add\n  0x40\n  mstore\n  dup1\n  mload(0x40)\n  dup1\n  0x40\n  add\n  0x40\n  mstore\n  dup1\n  0x0b\n  dup2\n  mstore\n  0x20\n  add\n  0x536f75746820537564616e000000000000000000000000000000000000000000\n  dup2\n  mstore\n  pop\n  dup2\n  mstore\n  0x20\n  add\n  mload(0x40)\n  dup1\n  0x40\n  add\n  0x40\n  mstore\n  dup1\n  0x02\n  dup2\n  mstore\n  0x20\n  add\n  0x5353000000000000000000000000000000000000000000000000000000000000\n  dup2\n  mstore\n  pop\n  dup2\n  mstore\n  pop\n    /* \"Contracts/Countries.sol\":354:8053  Country[194] memory countries = [... */\n  dup2\n  mstore\n  0x20\n  add\n    /* \"Contracts/Countries.sol\":6788:6810  Country(\"Spain\", \"ES\") */\n  mload(0x40)\n  dup1\n  0x40\n  add\n  0x40\n  mstore\n  dup1\n  mload(0x40)\n  dup1\n  0x40\n  add\n  0x40\n  mstore\n  dup1\n  0x05\n  dup2\n  mstore\n  0x20\n  add\n  0x537061696e000000000000000000000000000000000000000000000000000000\n  dup2\n  mstore\n  pop\n  dup2\n  mstore\n  0x20\n  add\n  mload(0x40)\n  dup1\n  0x40\n  add\n  0x40\n  mstore\n  dup1\n  0x02\n  dup2\n  mstore\n  0x20\n  add\n  0x4553000000000000000000000000000000000000000000000000000000000000\n  dup2\n  mstore\n  pop\n  dup2\n  mstore\n  pop\n    /* \"Contracts/Countries.sol\":354:8053  Country[194] memory countries = [... */\n  dup2\n  mstore\n  0x20\n  add\n    /* \"Contracts/Countries.sol\":6824:6850  Country(\"Sri Lanka\", \"LK\") */\n  mload(0x40)\n  dup1\n  0x40\n  add\n  0x40\n  mstore\n  dup1\n  mload(0x40)\n  dup1\n  0x40\n  add\n  0x40\n  mstore\n  dup1\n  0x09\n  dup2\n  mstore\n  0x20\n  add\n  0x537269204c616e6b610000000000000000000000000000000000000000000000\n  dup2\n  mstore\n  pop\n  dup2\n  mstore\n  0x20\n  add\n  mload(0x40)\n  dup1\n  0x40\n  add\n  0x40\n  mstore\n  dup1\n  0x02\n  dup2\n  mstore\n  0x20\n  add\n  0x4c4b000000000000000000000000000000000000000000000000000000000000\n  dup2\n  mstore\n  pop\n  dup2\n  mstore\n  pop\n    /* \"Contracts/Countries.sol\":354:8053  Country[194] memory countries = [... */\n  dup2\n  mstore\n  0x20\n  add\n    /* \"Contracts/Countries.sol\":6864:6886  Country(\"Sudan\", \"SD\") */\n  mload(0x40)\n  dup1\n  0x40\n  add\n  0x40\n  mstore\n  dup1\n  mload(0x40)\n  dup1\n  0x40\n  add\n  0x40\n  mstore\n  dup1\n  0x05\n  dup2\n  mstore\n  0x20\n  add\n  0x537564616e000000000000000000000000000000000000000000000000000000\n  dup2\n  mstore\n  pop\n  dup2\n  mstore\n  0x20\n  add\n  mload(0x40)\n  dup1\n  0x40\n  add\n  0x40\n  mstore\n  dup1\n  0x02\n  dup2\n  mstore\n  0x20\n  add\n  0x5344000000000000000000000000000000000000000000000000000000000000\n  dup2\n  mstore\n  pop\n  dup2\n  mstore\n  pop\n    /* \"Contracts/Countries.sol\":354:8053  Country[194] memory countries = [... */\n  dup2\n  mstore\n  0x20\n  add\n    /* \"Contracts/Countries.sol\":6900:6925  Country(\"Suriname\", \"SR\") */\n  mload(0x40)\n  dup1\n  0x40\n  add\n  0x40\n  mstore\n  dup1\n  mload(0x40)\n  dup1\n  0x40\n  add\n  0x40\n  mstore\n  dup1\n  0x08\n  dup2\n  mstore\n  0x20\n  add\n  0x537572696e616d65000000000000000000000000000000000000000000000000\n  dup2\n  mstore\n  pop\n  dup2\n  mstore\n  0x20\n  add\n  mload(0x40)\n  dup1\n  0x40\n  add\n  0x40\n  mstore\n  dup1\n  0x02\n  dup2\n  mstore\n  0x20\n  add\n  0x5352000000000000000000000000000000000000000000000000000000000000\n  dup2\n  mstore\n  pop\n  dup2\n  mstore\n  pop\n    /* \"Contracts/Countries.sol\":354:8053  Country[194] memory countries = [... */\n  dup2\n  mstore\n  0x20\n  add\n    /* \"Contracts/Countries.sol\":6939:6962  Country(\"Sweden\", \"SE\") */\n  mload(0x40)\n  dup1\n  0x40\n  add\n  0x40\n  mstore\n  dup1\n  mload(0x40)\n  dup1\n  0x40\n  add\n  0x40\n  mstore\n  dup1\n  0x06\n  dup2\n  mstore\n  0x20\n  add\n  0x53776564656e0000000000000000000000000000000000000000000000000000\n  dup2\n  mstore\n  pop\n  dup2\n  mstore\n  0x20\n  add\n  mload(0x40)\n  dup1\n  0x40\n  add\n  0x40\n  mstore\n  dup1\n  0x02\n  dup2\n  mstore\n  0x20\n  add\n  0x5345000000000000000000000000000000000000000000000000000000000000\n  dup2\n  mstore\n  pop\n  dup2\n  mstore\n  pop\n    /* \"Contracts/Countries.sol\":354:8053  Country[194] memory countries = [... */\n  dup2\n  mstore\n  0x20\n  add\n    /* \"Contracts/Countries.sol\":6976:7004  Country(\"Switzerland\", \"CH\") */\n  mload(0x40)\n  dup1\n  0x40\n  add\n  0x40\n  mstore\n  dup1\n  mload(0x40)\n  dup1\n  0x40\n  add\n  0x40\n  mstore\n  dup1\n  0x0b\n  dup2\n  mstore\n  0x20\n  add\n  0x537769747a65726c616e64000000000000000000000000000000000000000000\n  dup2\n  mstore\n  pop\n  dup2\n  mstore\n  0x20\n  add\n  mload(0x40)\n  dup1\n  0x40\n  add\n  0x40\n  mstore\n  dup1\n  0x02\n  dup2\n  mstore\n  0x20\n  add\n  0x4348000000000000000000000000000000000000000000000000000000000000\n  dup2\n  mstore\n  pop\n  dup2\n  mstore\n  pop\n    /* \"Contracts/Countries.sol\":354:8053  Country[194] memory countries = [... */\n  dup2\n  mstore\n  0x20\n  add\n    /* \"Contracts/Countries.sol\":7018:7040  Country(\"Syria\", \"SY\") */\n  mload(0x40)\n  dup1\n  0x40\n  add\n  0x40\n  mstore\n  dup1\n  mload(0x40)\n  dup1\n  0x40\n  add\n  0x40\n  mstore\n  dup1\n  0x05\n  dup2\n  mstore\n  0x20\n  add\n  0x5379726961000000000000000000000000000000000000000000000000000000\n  dup2\n  mstore\n  pop\n  dup2\n  mstore\n  0x20\n  add\n  mload(0x40)\n  dup1\n  0x40\n  add\n  0x40\n  mstore\n  dup1\n  0x02\n  dup2\n  mstore\n  0x20\n  add\n  0x5359000000000000000000000000000000000000000000000000000000000000\n  dup2\n  mstore\n  pop\n  dup2\n  mstore\n  pop\n    /* \"Contracts/Countries.sol\":354:8053  Country[194] memory countries = [... */\n  dup2\n  mstore\n  0x20\n  add\n    /* \"Contracts/Countries.sol\":7054:7077  Country(\"Taiwan\", \"TW\") */\n  mload(0x40)\n  dup1\n  0x40\n  add\n  0x40\n  mstore\n  dup1\n  mload(0x40)\n  dup1\n  0x40\n  add\n  0x40\n  mstore\n  dup1\n  0x06\n  dup2\n  mstore\n  0x20\n  add\n  0x54616977616e0000000000000000000000000000000000000000000000000000\n  dup2\n  mstore\n  pop\n  dup2\n  mstore\n  0x20\n  add\n  mload(0x40)\n  dup1\n  0x40\n  add\n  0x40\n  mstore\n  dup1\n  0x02\n  dup2\n  mstore\n  0x20\n  add\n  0x5457000000000000000000000000000000000000000000000000000000000000\n  dup2\n  mstore\n  pop\n  dup2\n  mstore\n  pop\n    /* \"Contracts/Countries.sol\":354:8053  Country[194] memory countries = [... */\n  dup2\n  mstore\n  0x20\n  add\n    /* \"Contracts/Countries.sol\":7091:7118  Country(\"Tajikistan\", \"TJ\") */\n  mload(0x40)\n  dup1\n  0x40\n  add\n  0x40\n  mstore\n  dup1\n  mload(0x40)\n  dup1\n  0x40\n  add\n  0x40\n  mstore\n  dup1\n  0x0a\n  dup2\n  mstore\n  0x20\n  add\n  0x54616a696b697374616e00000000000000000000000000000000000000000000\n  dup2\n  mstore\n  pop\n  dup2\n  mstore\n  0x20\n  add\n  mload(0x40)\n  dup1\n  0x40\n  add\n  0x40\n  mstore\n  dup1\n  0x02\n  dup2\n  mstore\n  0x20\n  add\n  0x544a000000000000000000000000000000000000000000000000000000000000\n  dup2\n  mstore\n  pop\n  dup2\n  mstore\n  pop\n    /* \"Contracts/Countries.sol\":354:8053  Country[194] memory countries = [... */\n  dup2\n  mstore\n  0x20\n  add\n    /* \"Contracts/Countries.sol\":7132:7157  Country(\"Tanzania\", \"TZ\") */\n  mload(0x40)\n  dup1\n  0x40\n  add\n  0x40\n  mstore\n  dup1\n  mload(0x40)\n  dup1\n  0x40\n  add\n  0x40\n  mstore\n  dup1\n  0x08\n  dup2\n  mstore\n  0x20\n  add\n  0x54616e7a616e6961000000000000000000000000000000000000000000000000\n  dup2\n  mstore\n  pop\n  dup2\n  mstore\n  0x20\n  add\n  mload(0x40)\n  dup1\n  0x40\n  add\n  0x40\n  mstore\n  dup1\n  0x02\n  dup2\n  mstore\n  0x20\n  add\n  0x545a000000000000000000000000000000000000000000000000000000000000\n  dup2\n  mstore\n  pop\n  dup2\n  mstore\n  pop\n    /* \"Contracts/Countries.sol\":354:8053  Country[194] memory countries = [... */\n  dup2\n  mstore\n  0x20\n  add\n    /* \"Contracts/Countries.sol\":7171:7196  Country(\"Thailand\", \"TH\") */\n  mload(0x40)\n  dup1\n  0x40\n  add\n  0x40\n  mstore\n  dup1\n  mload(0x40)\n  dup1\n  0x40\n  add\n  0x40\n  mstore\n  dup1\n  0x08\n  dup2\n  mstore\n  0x20\n  add\n  0x546861696c616e64000000000000000000000000000000000000000000000000\n  dup2\n  mstore\n  pop\n  dup2\n  mstore\n  0x20\n  add\n  mload(0x40)\n  dup1\n  0x40\n  add\n  0x40\n  mstore\n  dup1\n  0x02\n  dup2\n  mstore\n  0x20\n  add\n  0x5448000000000000000000000000000000000000000000000000000000000000\n  dup2\n  mstore\n  pop\n  dup2\n  mstore\n  pop\n    /* \"Contracts/Countries.sol\":354:8053  Country[194] memory countries = [... */\n  dup2\n  mstore\n  0x20\n  add\n    /* \"Contracts/Countries.sol\":7210:7238  Country(\"Timor-Leste\", \"TL\") */\n  mload(0x40)\n  dup1\n  0x40\n  add\n  0x40\n  mstore\n  dup1\n  mload(0x40)\n  dup1\n  0x40\n  add\n  0x40\n  mstore\n  dup1\n  0x0b\n  dup2\n  mstore\n  0x20\n  add\n  0x54696d6f722d4c65737465000000000000000000000000000000000000000000\n  dup2\n  mstore\n  pop\n  dup2\n  mstore\n  0x20\n  add\n  mload(0x40)\n  dup1\n  0x40\n  add\n  0x40\n  mstore\n  dup1\n  0x02\n  dup2\n  mstore\n  0x20\n  add\n  0x544c000000000000000000000000000000000000000000000000000000000000\n  dup2\n  mstore\n  pop\n  dup2\n  mstore\n  pop\n    /* \"Contracts/Countries.sol\":354:8053  Country[194] memory countries = [... */\n  dup2\n  mstore\n  0x20\n  add\n    /* \"Contracts/Countries.sol\":7252:7273  Country(\"Togo\", \"TG\") */\n  mload(0x40)\n  dup1\n  0x40\n  add\n  0x40\n  mstore\n  dup1\n  mload(0x40)\n  dup1\n  0x40\n  add\n  0x40\n  mstore\n  dup1\n  0x04\n  dup2\n  mstore\n  0x20\n  add\n  0x546f676f00000000000000000000000000000000000000000000000000000000\n  dup2\n  mstore\n  pop\n  dup2\n  mstore\n  0x20\n  add\n  mload(0x40)\n  dup1\n  0x40\n  add\n  0x40\n  mstore\n  dup1\n  0x02\n  dup2\n  mstore\n  0x20\n  add\n  0x5447000000000000000000000000000000000000000000000000000000000000\n  dup2\n  mstore\n  pop\n  dup2\n  mstore\n  pop\n    /* \"Contracts/Countries.sol\":354:8053  Country[194] memory countries = [... */\n  dup2\n  mstore\n  0x20\n  add\n    /* \"Contracts/Countries.sol\":7287:7323  Country(\"Trinidad and Tobago\", \"TT\") */\n  mload(0x40)\n  dup1\n  0x40\n  add\n  0x40\n  mstore\n  dup1\n  mload(0x40)\n  dup1\n  0x40\n  add\n  0x40\n  mstore\n  dup1\n  0x13\n  dup2\n  mstore\n  0x20\n  add\n  0x5472696e6964616420616e6420546f6261676f00000000000000000000000000\n  dup2\n  mstore\n  pop\n  dup2\n  mstore\n  0x20\n  add\n  mload(0x40)\n  dup1\n  0x40\n  add\n  0x40\n  mstore\n  dup1\n  0x02\n  dup2\n  mstore\n  0x20\n  add\n  0x5454000000000000000000000000000000000000000000000000000000000000\n  dup2\n  mstore\n  pop\n  dup2\n  mstore\n  pop\n    /* \"Contracts/Countries.sol\":354:8053  Country[194] memory countries = [... */\n  dup2\n  mstore\n  0x20\n  add\n    /* \"Contracts/Countries.sol\":7337:7361  Country(\"Tunisia\", \"TN\") */\n  mload(0x40)\n  dup1\n  0x40\n  add\n  0x40\n  mstore\n  dup1\n  mload(0x40)\n  dup1\n  0x40\n  add\n  0x40\n  mstore\n  dup1\n  0x07\n  dup2\n  mstore\n  0x20\n  add\n  0x54756e6973696100000000000000000000000000000000000000000000000000\n  dup2\n  mstore\n  pop\n  dup2\n  mstore\n  0x20\n  add\n  mload(0x40)\n  dup1\n  0x40\n  add\n  0x40\n  mstore\n  dup1\n  0x02\n  dup2\n  mstore\n  0x20\n  add\n  0x544e000000000000000000000000000000000000000000000000000000000000\n  dup2\n  mstore\n  pop\n  dup2\n  mstore\n  pop\n    /* \"Contracts/Countries.sol\":354:8053  Country[194] memory countries = [... */\n  dup2\n  mstore\n  0x20\n  add\n    /* \"Contracts/Countries.sol\":7375:7398  Country(\"Turkey\", \"TR\") */\n  mload(0x40)\n  dup1\n  0x40\n  add\n  0x40\n  mstore\n  dup1\n  mload(0x40)\n  dup1\n  0x40\n  add\n  0x40\n  mstore\n  dup1\n  0x06\n  dup2\n  mstore\n  0x20\n  add\n  0x5475726b65790000000000000000000000000000000000000000000000000000\n  dup2\n  mstore\n  pop\n  dup2\n  mstore\n  0x20\n  add\n  mload(0x40)\n  dup1\n  0x40\n  add\n  0x40\n  mstore\n  dup1\n  0x02\n  dup2\n  mstore\n  0x20\n  add\n  0x5452000000000000000000000000000000000000000000000000000000000000\n  dup2\n  mstore\n  pop\n  dup2\n  mstore\n  pop\n    /* \"Contracts/Countries.sol\":354:8053  Country[194] memory countries = [... */\n  dup2\n  mstore\n  0x20\n  add\n    /* \"Contracts/Countries.sol\":7412:7441  Country(\"Turkmenistan\", \"TM\") */\n  mload(0x40)\n  dup1\n  0x40\n  add\n  0x40\n  mstore\n  dup1\n  mload(0x40)\n  dup1\n  0x40\n  add\n  0x40\n  mstore\n  dup1\n  0x0c\n  dup2\n  mstore\n  0x20\n  add\n  0x5475726b6d656e697374616e0000000000000000000000000000000000000000\n  dup2\n  mstore\n  pop\n  dup2\n  mstore\n  0x20\n  add\n  mload(0x40)\n  dup1\n  0x40\n  add\n  0x40\n  mstore\n  dup1\n  0x02\n  dup2\n  mstore\n  0x20\n  add\n  0x544d000000000000000000000000000000000000000000000000000000000000\n  dup2\n  mstore\n  pop\n  dup2\n  mstore\n  pop\n    /* \"Contracts/Countries.sol\":354:8053  Country[194] memory countries = [... */\n  dup2\n  mstore\n  0x20\n  add\n    /* \"Contracts/Countries.sol\":7455:7478  Country(\"Tuvalu\", \"TV\") */\n  mload(0x40)\n  dup1\n  0x40\n  add\n  0x40\n  mstore\n  dup1\n  mload(0x40)\n  dup1\n  0x40\n  add\n  0x40\n  mstore\n  dup1\n  0x06\n  dup2\n  mstore\n  0x20\n  add\n  0x547576616c750000000000000000000000000000000000000000000000000000\n  dup2\n  mstore\n  pop\n  dup2\n  mstore\n  0x20\n  add\n  mload(0x40)\n  dup1\n  0x40\n  add\n  0x40\n  mstore\n  dup1\n  0x02\n  dup2\n  mstore\n  0x20\n  add\n  0x5456000000000000000000000000000000000000000000000000000000000000\n  dup2\n  mstore\n  pop\n  dup2\n  mstore\n  pop\n    /* \"Contracts/Countries.sol\":354:8053  Country[194] memory countries = [... */\n  dup2\n  mstore\n  0x20\n  add\n    /* \"Contracts/Countries.sol\":7492:7515  Country(\"Uganda\", \"UG\") */\n  mload(0x40)\n  dup1\n  0x40\n  add\n  0x40\n  mstore\n  dup1\n  mload(0x40)\n  dup1\n  0x40\n  add\n  0x40\n  mstore\n  dup1\n  0x06\n  dup2\n  mstore\n  0x20\n  add\n  0x5567616e64610000000000000000000000000000000000000000000000000000\n  dup2\n  mstore\n  pop\n  dup2\n  mstore\n  0x20\n  add\n  mload(0x40)\n  dup1\n  0x40\n  add\n  0x40\n  mstore\n  dup1\n  0x02\n  dup2\n  mstore\n  0x20\n  add\n  0x5547000000000000000000000000000000000000000000000000000000000000\n  dup2\n  mstore\n  pop\n  dup2\n  mstore\n  pop\n    /* \"Contracts/Countries.sol\":354:8053  Country[194] memory countries = [... */\n  dup2\n  mstore\n  0x20\n  add\n    /* \"Contracts/Countries.sol\":7529:7553  Country(\"Ukraine\", \"UA\") */\n  mload(0x40)\n  dup1\n  0x40\n  add\n  0x40\n  mstore\n  dup1\n  mload(0x40)\n  dup1\n  0x40\n  add\n  0x40\n  mstore\n  dup1\n  0x07\n  dup2\n  mstore\n  0x20\n  add\n  0x556b7261696e6500000000000000000000000000000000000000000000000000\n  dup2\n  mstore\n  pop\n  dup2\n  mstore\n  0x20\n  add\n  mload(0x40)\n  dup1\n  0x40\n  add\n  0x40\n  mstore\n  dup1\n  0x02\n  dup2\n  mstore\n  0x20\n  add\n  0x5541000000000000000000000000000000000000000000000000000000000000\n  dup2\n  mstore\n  pop\n  dup2\n  mstore\n  pop\n    /* \"Contracts/Countries.sol\":354:8053  Country[194] memory countries = [... */\n  dup2\n  mstore\n  0x20\n  add\n    /* \"Contracts/Countries.sol\":7567:7604  Country(\"United Arab Emirates\", \"AE\") */\n  mload(0x40)\n  dup1\n  0x40\n  add\n  0x40\n  mstore\n  dup1\n  mload(0x40)\n  dup1\n  0x40\n  add\n  0x40\n  mstore\n  dup1\n  0x14\n  dup2\n  mstore\n  0x20\n  add\n  0x556e69746564204172616220456d697261746573000000000000000000000000\n  dup2\n  mstore\n  pop\n  dup2\n  mstore\n  0x20\n  add\n  mload(0x40)\n  dup1\n  0x40\n  add\n  0x40\n  mstore\n  dup1\n  0x02\n  dup2\n  mstore\n  0x20\n  add\n  0x4145000000000000000000000000000000000000000000000000000000000000\n  dup2\n  mstore\n  pop\n  dup2\n  mstore\n  pop\n    /* \"Contracts/Countries.sol\":354:8053  Country[194] memory countries = [... */\n  dup2\n  mstore\n  0x20\n  add\n    /* \"Contracts/Countries.sol\":7618:7649  Country(\"United Kingdom\", \"GB\") */\n  mload(0x40)\n  dup1\n  0x40\n  add\n  0x40\n  mstore\n  dup1\n  mload(0x40)\n  dup1\n  0x40\n  add\n  0x40\n  mstore\n  dup1\n  0x0e\n  dup2\n  mstore\n  0x20\n  add\n  0x556e69746564204b696e67646f6d000000000000000000000000000000000000\n  dup2\n  mstore\n  pop\n  dup2\n  mstore\n  0x20\n  add\n  mload(0x40)\n  dup1\n  0x40\n  add\n  0x40\n  mstore\n  dup1\n  0x02\n  dup2\n  mstore\n  0x20\n  add\n  0x4742000000000000000000000000000000000000000000000000000000000000\n  dup2\n  mstore\n  pop\n  dup2\n  mstore\n  pop\n    /* \"Contracts/Countries.sol\":354:8053  Country[194] memory countries = [... */\n  dup2\n  mstore\n  0x20\n  add\n    /* \"Contracts/Countries.sol\":7663:7693  Country(\"United States\", \"US\") */\n  mload(0x40)\n  dup1\n  0x40\n  add\n  0x40\n  mstore\n  dup1\n  mload(0x40)\n  dup1\n  0x40\n  add\n  0x40\n  mstore\n  dup1\n  0x0d\n  dup2\n  mstore\n  0x20\n  add\n  0x556e697465642053746174657300000000000000000000000000000000000000\n  dup2\n  mstore\n  pop\n  dup2\n  mstore\n  0x20\n  add\n  mload(0x40)\n  dup1\n  0x40\n  add\n  0x40\n  mstore\n  dup1\n  0x02\n  dup2\n  mstore\n  0x20\n  add\n  0x5553000000000000000000000000000000000000000000000000000000000000\n  dup2\n  mstore\n  pop\n  dup2\n  mstore\n  pop\n    /* \"Contracts/Countries.sol\":354:8053  Country[194] memory countries = [... */\n  dup2\n  mstore\n  0x20\n  add\n    /* \"Contracts/Countries.sol\":7707:7731  Country(\"Uruguay\", \"UY\") */\n  mload(0x40)\n  dup1\n  0x40\n  add\n  0x40\n  mstore\n  dup1\n  mload(0x40)\n  dup1\n  0x40\n  add\n  0x40\n  mstore\n  dup1\n  0x07\n  dup2\n  mstore\n  0x20\n  add\n  0x5572756775617900000000000000000000000000000000000000000000000000\n  dup2\n  mstore\n  pop\n  dup2\n  mstore\n  0x20\n  add\n  mload(0x40)\n  dup1\n  0x40\n  add\n  0x40\n  mstore\n  dup1\n  0x02\n  dup2\n  mstore\n  0x20\n  add\n  0x5559000000000000000000000000000000000000000000000000000000000000\n  dup2\n  mstore\n  pop\n  dup2\n  mstore\n  pop\n    /* \"Contracts/Countries.sol\":354:8053  Country[194] memory countries = [... */\n  dup2\n  mstore\n  0x20\n  add\n    /* \"Contracts/Countries.sol\":7745:7772  Country(\"Uzbekistan\", \"UZ\") */\n  mload(0x40)\n  dup1\n  0x40\n  add\n  0x40\n  mstore\n  dup1\n  mload(0x40)\n  dup1\n  0x40\n  add\n  0x40\n  mstore\n  dup1\n  0x0a\n  dup2\n  mstore\n  0x20\n  add\n  0x557a62656b697374616e00000000000000000000000000000000000000000000\n  dup2\n  mstore\n  pop\n  dup2\n  mstore\n  0x20\n  add\n  mload(0x40)\n  dup1\n  0x40\n  add\n  0x40\n  mstore\n  dup1\n  0x02\n  dup2\n  mstore\n  0x20\n  add\n  0x555a000000000000000000000000000000000000000000000000000000000000\n  dup2\n  mstore\n  pop\n  dup2\n  mstore\n  pop\n    /* \"Contracts/Countries.sol\":354:8053  Country[194] memory countries = [... */\n  dup2\n  mstore\n  0x20\n  add\n    /* \"Contracts/Countries.sol\":7786:7810  Country(\"Vanuatu\", \"VU\") */\n  mload(0x40)\n  dup1\n  0x40\n  add\n  0x40\n  mstore\n  dup1\n  mload(0x40)\n  dup1\n  0x40\n  add\n  0x40\n  mstore\n  dup1\n  0x07\n  dup2\n  mstore\n  0x20\n  add\n  0x56616e7561747500000000000000000000000000000000000000000000000000\n  dup2\n  mstore\n  pop\n  dup2\n  mstore\n  0x20\n  add\n  mload(0x40)\n  dup1\n  0x40\n  add\n  0x40\n  mstore\n  dup1\n  0x02\n  dup2\n  mstore\n  0x20\n  add\n  0x5655000000000000000000000000000000000000000000000000000000000000\n  dup2\n  mstore\n  pop\n  dup2\n  mstore\n  pop\n    /* \"Contracts/Countries.sol\":354:8053  Country[194] memory countries = [... */\n  dup2\n  mstore\n  0x20\n  add\n    /* \"Contracts/Countries.sol\":7824:7853  Country(\"Vatican City\", \"VA\") */\n  mload(0x40)\n  dup1\n  0x40\n  add\n  0x40\n  mstore\n  dup1\n  mload(0x40)\n  dup1\n  0x40\n  add\n  0x40\n  mstore\n  dup1\n  0x0c\n  dup2\n  mstore\n  0x20\n  add\n  0x5661746963616e20436974790000000000000000000000000000000000000000\n  dup2\n  mstore\n  pop\n  dup2\n  mstore\n  0x20\n  add\n  mload(0x40)\n  dup1\n  0x40\n  add\n  0x40\n  mstore\n  dup1\n  0x02\n  dup2\n  mstore\n  0x20\n  add\n  0x5641000000000000000000000000000000000000000000000000000000000000\n  dup2\n  mstore\n  pop\n  dup2\n  mstore\n  pop\n    /* \"Contracts/Countries.sol\":354:8053  Country[194] memory countries = [... */\n  dup2\n  mstore\n  0x20\n  add\n    /* \"Contracts/Countries.sol\":7867:7893  Country(\"Venezuela\", \"VE\") */\n  mload(0x40)\n  dup1\n  0x40\n  add\n  0x40\n  mstore\n  dup1\n  mload(0x40)\n  dup1\n  0x40\n  add\n  0x40\n  mstore\n  dup1\n  0x09\n  dup2\n  mstore\n  0x20\n  add\n  0x56656e657a75656c610000000000000000000000000000000000000000000000\n  dup2\n  mstore\n  pop\n  dup2\n  mstore\n  0x20\n  add\n  mload(0x40)\n  dup1\n  0x40\n  add\n  0x40\n  mstore\n  dup1\n  0x02\n  dup2\n  mstore\n  0x20\n  add\n  0x5645000000000000000000000000000000000000000000000000000000000000\n  dup2\n  mstore\n  pop\n  dup2\n  mstore\n  pop\n    /* \"Contracts/Countries.sol\":354:8053  Country[194] memory countries = [... */\n  dup2\n  mstore\n  0x20\n  add\n    /* \"Contracts/Countries.sol\":7907:7931  Country(\"Vietnam\", \"VN\") */\n  mload(0x40)\n  dup1\n  0x40\n  add\n  0x40\n  mstore\n  dup1\n  mload(0x40)\n  dup1\n  0x40\n  add\n  0x40\n  mstore\n  dup1\n  0x07\n  dup2\n  mstore\n  0x20\n  add\n  0x566965746e616d00000000000000000000000000000000000000000000000000\n  dup2\n  mstore\n  pop\n  dup2\n  mstore\n  0x20\n  add\n  mload(0x40)\n  dup1\n  0x40\n  add\n  0x40\n  mstore\n  dup1\n  0x02\n  dup2\n  mstore\n  0x20\n  add\n  0x564e000000000000000000000000000000000000000000000000000000000000\n  dup2\n  mstore\n  pop\n  dup2\n  mstore\n  pop\n    /* \"Contracts/Countries.sol\":354:8053  Country[194] memory countries = [... */\n  dup2\n  mstore\n  0x20\n  add\n    /* \"Contracts/Countries.sol\":7945:7967  Country(\"Yemen\", \"YE\") */\n  mload(0x40)\n  dup1\n  0x40\n  add\n  0x40\n  mstore\n  dup1\n  mload(0x40)\n  dup1\n  0x40\n  add\n  0x40\n  mstore\n  dup1\n  0x05\n  dup2\n  mstore\n  0x20\n  add\n  0x59656d656e000000000000000000000000000000000000000000000000000000\n  dup2\n  mstore\n  pop\n  dup2\n  mstore\n  0x20\n  add\n  mload(0x40)\n  dup1\n  0x40\n  add\n  0x40\n  mstore\n  dup1\n  0x02\n  dup2\n  mstore\n  0x20\n  add\n  0x5945000000000000000000000000000000000000000000000000000000000000\n  dup2\n  mstore\n  pop\n  dup2\n  mstore\n  pop\n    /* \"Contracts/Countries.sol\":354:8053  Country[194] memory countries = [... */\n  dup2\n  mstore\n  0x20\n  add\n    /* \"Contracts/Countries.sol\":7981:8004  Country(\"Zambia\", \"ZM\") */\n  mload(0x40)\n  dup1\n  0x40\n  add\n  0x40\n  mstore\n  dup1\n  mload(0x40)\n  dup1\n  0x40\n  add\n  0x40\n  mstore\n  dup1\n  0x06\n  dup2\n  mstore\n  0x20\n  add\n  0x5a616d6269610000000000000000000000000000000000000000000000000000\n  dup2\n  mstore\n  pop\n  dup2\n  mstore\n  0x20\n  add\n  mload(0x40)\n  dup1\n  0x40\n  add\n  0x40\n  mstore\n  dup1\n  0x02\n  dup2\n  mstore\n  0x20\n  add\n  0x5a4d000000000000000000000000000000000000000000000000000000000000\n  dup2\n  mstore\n  pop\n  dup2\n  mstore\n  pop\n    /* \"Contracts/Countries.sol\":354:8053  Country[194] memory countries = [... */\n  dup2\n  mstore\n  0x20\n  add\n    /* \"Contracts/Countries.sol\":8018:8043  Country(\"Zimbabwe\", \"ZW\") */\n  mload(0x40)\n  dup1\n  0x40\n  add\n  0x40\n  mstore\n  dup1\n  mload(0x40)\n  dup1\n  0x40\n  add\n  0x40\n  mstore\n  dup1\n  0x08\n  dup2\n  mstore\n  0x20\n  add\n  0x5a696d6261627765000000000000000000000000000000000000000000000000\n  dup2\n  mstore\n  pop\n  dup2\n  mstore\n  0x20\n  add\n  mload(0x40)\n  dup1\n  0x40\n  add\n  0x40\n  mstore\n  dup1\n  0x02\n  dup2\n  mstore\n  0x20\n  add\n  0x5a57000000000000000000000000000000000000000000000000000000000000\n  dup2\n  mstore\n  pop\n  dup2\n  mstore\n  pop\n    /* \"Contracts/Countries.sol\":354:8053  Country[194] memory countries = [... */\n  dup2\n  mstore\n  pop\n  swap1\n  pop\n    /* \"Contracts/Countries.sol\":8069:8075  uint i */\n  0x00\n    /* \"Contracts/Countries.sol\":8064:8230  for (uint i = 0; i < 188; i++) {... */\ntag_4:\n    /* \"Contracts/Countries.sol\":8085:8088  188 */\n  0xbc\n    /* \"Contracts/Countries.sol\":8081:8082  i */\n  dup2\n    /* \"Contracts/Countries.sol\":8081:8088  i < 188 */\n  lt\n    /* \"Contracts/Countries.sol\":8064:8230  for (uint i = 0; i < 188; i++) {... */\n  iszero\n  tag_5\n  jumpi\n    /* \"Contracts/Countries.sol\":8143:8152  countries */\n  dup2\n    /* \"Contracts/Countries.sol\":8153:8154  i */\n  dup2\n    /* \"Contracts/Countries.sol\":8143:8155  countries[i] */\n  0xc2\n  dup2\n  lt\n  tag_7\n  jumpi\n  tag_8\n  tag_9\n  jump\t// in\ntag_8:\ntag_7:\n  0x20\n  mul\n  add\n  mload\n    /* \"Contracts/Countries.sol\":8143:8163  countries[i].isoCode */\n  0x20\n  add\n  mload\n    /* \"Contracts/Countries.sol\":8109:8121  countryToISO */\n  0x00\n    /* \"Contracts/Countries.sol\":8122:8131  countries */\n  dup4\n    /* \"Contracts/Countries.sol\":8132:8133  i */\n  dup4\n    /* \"Contracts/Countries.sol\":8122:8134  countries[i] */\n  0xc2\n  dup2\n  lt\n  tag_10\n  jumpi\n  tag_11\n  tag_9\n  jump\t// in\ntag_11:\ntag_10:\n  0x20\n  mul\n  add\n  mload\n    /* \"Contracts/Countries.sol\":8122:8139  countries[i].name */\n  0x00\n  add\n  mload\n    /* \"Contracts/Countries.sol\":8109:8140  countryToISO[countries[i].name] */\n  mload(0x40)\n  tag_12\n  swap2\n  swap1\n  tag_13\n  jump\t// in\ntag_12:\n  swap1\n  dup2\n  mstore\n  0x20\n  add\n  mload(0x40)\n  dup1\n  swap2\n  sub\n  swap1\n  keccak256\n    /* \"Contracts/Countries.sol\":8109:8163  countryToISO[countries[i].name] = countries[i].isoCode */\n  swap1\n  dup2\n  tag_14\n  swap2\n  swap1\n  tag_15\n  jump\t// in\ntag_14:\n  pop\n    /* \"Contracts/Countries.sol\":8177:8192  countryISOCodes */\n  0x01\n    /* \"Contracts/Countries.sol\":8198:8207  countries */\n  dup3\n    /* \"Contracts/Countries.sol\":8208:8209  i */\n  dup3\n    /* \"Contracts/Countries.sol\":8198:8210  countries[i] */\n  0xc2\n  dup2\n  lt\n  tag_16\n  jumpi\n  tag_17\n  tag_9\n  jump\t// in\ntag_17:\ntag_16:\n  0x20\n  mul\n  add\n  mload\n    /* \"Contracts/Countries.sol\":8198:8218  countries[i].isoCode */\n  0x20\n  add\n  mload\n    /* \"Contracts/Countries.sol\":8177:8219  countryISOCodes.push(countries[i].isoCode) */\n  swap1\n  dup1\n  0x01\n  dup2\n  sload\n  add\n  dup1\n  dup3\n  sstore\n  dup1\n  swap2\n  pop\n  pop\n  0x01\n  swap1\n  sub\n  swap1\n  0x00\n  mstore\n  keccak256(0x00, 0x20)\n  add\n  0x00\n  swap1\n  swap2\n  swap1\n  swap2\n  swap1\n  swap2\n  pop\n  swap1\n  dup2\n  tag_19\n  swap2\n  swap1\n  tag_15\n  jump\t// in\ntag_19:\n  pop\n    /* \"Contracts/Countries.sol\":8090:8093  i++ */\n  dup1\n  dup1\n  0x01\n  add\n  swap2\n  pop\n  pop\n    /* \"Contracts/Countries.sol\":8064:8230  for (uint i = 0; i < 188; i++) {... */\n  jump(tag_4)\ntag_5:\n  pop\n    /* \"Contracts/Countries.sol\":344:8245  {... */\n  pop\n    /* \"Contracts/Countries.sol\":57:8900  contract Countries {... */\n  jump(tag_20)\n    /* \"#utility.yul\":7:187   */\ntag_9:\n    /* \"#utility.yul\":55:132   */\n  0x4e487b7100000000000000000000000000000000000000000000000000000000\n    /* \"#utility.yul\":52:53   */\n  0x00\n    /* \"#utility.yul\":45:133   */\n  mstore\n    /* \"#utility.yul\":152:156   */\n  0x32\n    /* \"#utility.yul\":149:150   */\n  0x04\n    /* \"#utility.yul\":142:157   */\n  mstore\n    /* \"#utility.yul\":176:180   */\n  0x24\n    /* \"#utility.yul\":173:174   */\n  0x00\n    /* \"#utility.yul\":166:181   */\n  revert\n    /* \"#utility.yul\":193:292   */\ntag_21:\n    /* \"#utility.yul\":245:251   */\n  0x00\n    /* \"#utility.yul\":279:284   */\n  dup2\n    /* \"#utility.yul\":273:285   */\n  mload\n    /* \"#utility.yul\":263:285   */\n  swap1\n  pop\n    /* \"#utility.yul\":193:292   */\n  swap2\n  swap1\n  pop\n  jump\t// out\n    /* \"#utility.yul\":298:446   */\ntag_22:\n    /* \"#utility.yul\":400:411   */\n  0x00\n    /* \"#utility.yul\":437:440   */\n  dup2\n    /* \"#utility.yul\":422:440   */\n  swap1\n  pop\n    /* \"#utility.yul\":298:446   */\n  swap3\n  swap2\n  pop\n  pop\n  jump\t// out\n    /* \"#utility.yul\":452:591   */\ntag_23:\n    /* \"#utility.yul\":541:547   */\n  dup3\n    /* \"#utility.yul\":536:539   */\n  dup2\n    /* \"#utility.yul\":531:534   */\n  dup4\n    /* \"#utility.yul\":525:548   */\n  mcopy\n    /* \"#utility.yul\":582:583   */\n  0x00\n    /* \"#utility.yul\":573:579   */\n  dup4\n    /* \"#utility.yul\":568:571   */\n  dup4\n    /* \"#utility.yul\":564:580   */\n  add\n    /* \"#utility.yul\":557:584   */\n  mstore\n    /* \"#utility.yul\":452:591   */\n  pop\n  pop\n  pop\n  jump\t// out\n    /* \"#utility.yul\":597:987   */\ntag_24:\n    /* \"#utility.yul\":703:706   */\n  0x00\n    /* \"#utility.yul\":731:770   */\n  tag_50\n    /* \"#utility.yul\":764:769   */\n  dup3\n    /* \"#utility.yul\":731:770   */\n  tag_21\n  jump\t// in\ntag_50:\n    /* \"#utility.yul\":786:875   */\n  tag_51\n    /* \"#utility.yul\":868:874   */\n  dup2\n    /* \"#utility.yul\":863:866   */\n  dup6\n    /* \"#utility.yul\":786:875   */\n  tag_22\n  jump\t// in\ntag_51:\n    /* \"#utility.yul\":779:875   */\n  swap4\n  pop\n    /* \"#utility.yul\":884:949   */\n  tag_52\n    /* \"#utility.yul\":942:948   */\n  dup2\n    /* \"#utility.yul\":937:940   */\n  dup6\n    /* \"#utility.yul\":930:934   */\n  0x20\n    /* \"#utility.yul\":923:928   */\n  dup7\n    /* \"#utility.yul\":919:935   */\n  add\n    /* \"#utility.yul\":884:949   */\n  tag_23\n  jump\t// in\ntag_52:\n    /* \"#utility.yul\":974:980   */\n  dup1\n    /* \"#utility.yul\":969:972   */\n  dup5\n    /* \"#utility.yul\":965:981   */\n  add\n    /* \"#utility.yul\":958:981   */\n  swap2\n  pop\n    /* \"#utility.yul\":707:987   */\n  pop\n    /* \"#utility.yul\":597:987   */\n  swap3\n  swap2\n  pop\n  pop\n  jump\t// out\n    /* \"#utility.yul\":993:1268   */\ntag_13:\n    /* \"#utility.yul\":1125:1128   */\n  0x00\n    /* \"#utility.yul\":1147:1242   */\n  tag_54\n    /* \"#utility.yul\":1238:1241   */\n  dup3\n    /* \"#utility.yul\":1229:1235   */\n  dup5\n    /* \"#utility.yul\":1147:1242   */\n  tag_24\n  jump\t// in\ntag_54:\n    /* \"#utility.yul\":1140:1242   */\n  swap2\n  pop\n    /* \"#utility.yul\":1259:1262   */\n  dup2\n    /* \"#utility.yul\":1252:1262   */\n  swap1\n  pop\n    /* \"#utility.yul\":993:1268   */\n  swap3\n  swap2\n  pop\n  pop\n  jump\t// out\n    /* \"#utility.yul\":1274:1454   */\ntag_25:\n    /* \"#utility.yul\":1322:1399   */\n  0x4e487b7100000000000000000000000000000000000000000000000000000000\n    /* \"#utility.yul\":1319:1320   */\n  0x00\n    /* \"#utility.yul\":1312:1400   */\n  mstore\n    /* \"#utility.yul\":1419:1423   */\n  0x41\n    /* \"#utility.yul\":1416:1417   */\n  0x04\n    /* \"#utility.yul\":1409:1424   */\n  mstore\n    /* \"#utility.yul\":1443:1447   */\n  0x24\n    /* \"#utility.yul\":1440:1441   */\n  0x00\n    /* \"#utility.yul\":1433:1448   */\n  revert\n    /* \"#utility.yul\":1460:1640   */\ntag_26:\n    /* \"#utility.yul\":1508:1585   */\n  0x4e487b7100000000000000000000000000000000000000000000000000000000\n    /* \"#utility.yul\":1505:1506   */\n  0x00\n    /* \"#utility.yul\":1498:1586   */\n  mstore\n    /* \"#utility.yul\":1605:1609   */\n  0x22\n    /* \"#utility.yul\":1602:1603   */\n  0x04\n    /* \"#utility.yul\":1595:1610   */\n  mstore\n    /* \"#utility.yul\":1629:1633   */\n  0x24\n    /* \"#utility.yul\":1626:1627   */\n  0x00\n    /* \"#utility.yul\":1619:1634   */\n  revert\n    /* \"#utility.yul\":1646:1966   */\ntag_27:\n    /* \"#utility.yul\":1690:1696   */\n  0x00\n    /* \"#utility.yul\":1727:1728   */\n  0x02\n    /* \"#utility.yul\":1721:1725   */\n  dup3\n    /* \"#utility.yul\":1717:1729   */\n  div\n    /* \"#utility.yul\":1707:1729   */\n  swap1\n  pop\n    /* \"#utility.yul\":1774:1775   */\n  0x01\n    /* \"#utility.yul\":1768:1772   */\n  dup3\n    /* \"#utility.yul\":1764:1776   */\n  and\n    /* \"#utility.yul\":1795:1813   */\n  dup1\n    /* \"#utility.yul\":1785:1866   */\n  tag_58\n  jumpi\n    /* \"#utility.yul\":1851:1855   */\n  0x7f\n    /* \"#utility.yul\":1843:1849   */\n  dup3\n    /* \"#utility.yul\":1839:1856   */\n  and\n    /* \"#utility.yul\":1829:1856   */\n  swap2\n  pop\n    /* \"#utility.yul\":1785:1866   */\ntag_58:\n    /* \"#utility.yul\":1913:1915   */\n  0x20\n    /* \"#utility.yul\":1905:1911   */\n  dup3\n    /* \"#utility.yul\":1902:1916   */\n  lt\n    /* \"#utility.yul\":1882:1900   */\n  dup2\n    /* \"#utility.yul\":1879:1917   */\n  sub\n    /* \"#utility.yul\":1876:1960   */\n  tag_59\n  jumpi\n    /* \"#utility.yul\":1932:1950   */\n  tag_60\n  tag_26\n  jump\t// in\ntag_60:\n    /* \"#utility.yul\":1876:1960   */\ntag_59:\n    /* \"#utility.yul\":1697:1966   */\n  pop\n    /* \"#utility.yul\":1646:1966   */\n  swap2\n  swap1\n  pop\n  jump\t// out\n    /* \"#utility.yul\":1972:2113   */\ntag_28:\n    /* \"#utility.yul\":2021:2025   */\n  0x00\n    /* \"#utility.yul\":2044:2047   */\n  dup2\n    /* \"#utility.yul\":2036:2047   */\n  swap1\n  pop\n    /* \"#utility.yul\":2067:2070   */\n  dup2\n    /* \"#utility.yul\":2064:2065   */\n  0x00\n    /* \"#utility.yul\":2057:2071   */\n  mstore\n    /* \"#utility.yul\":2101:2105   */\n  0x20\n    /* \"#utility.yul\":2098:2099   */\n  0x00\n    /* \"#utility.yul\":2088:2106   */\n  keccak256\n    /* \"#utility.yul\":2080:2106   */\n  swap1\n  pop\n    /* \"#utility.yul\":1972:2113   */\n  swap2\n  swap1\n  pop\n  jump\t// out\n    /* \"#utility.yul\":2119:2212   */\ntag_29:\n    /* \"#utility.yul\":2156:2162   */\n  0x00\n    /* \"#utility.yul\":2203:2205   */\n  0x20\n    /* \"#utility.yul\":2198:2200   */\n  0x1f\n    /* \"#utility.yul\":2191:2196   */\n  dup4\n    /* \"#utility.yul\":2187:2201   */\n  add\n    /* \"#utility.yul\":2183:2206   */\n  div\n    /* \"#utility.yul\":2173:2206   */\n  swap1\n  pop\n    /* \"#utility.yul\":2119:2212   */\n  swap2\n  swap1\n  pop\n  jump\t// out\n    /* \"#utility.yul\":2218:2325   */\ntag_30:\n    /* \"#utility.yul\":2262:2270   */\n  0x00\n    /* \"#utility.yul\":2312:2317   */\n  dup3\n    /* \"#utility.yul\":2306:2310   */\n  dup3\n    /* \"#utility.yul\":2302:2318   */\n  shl\n    /* \"#utility.yul\":2281:2318   */\n  swap1\n  pop\n    /* \"#utility.yul\":2218:2325   */\n  swap3\n  swap2\n  pop\n  pop\n  jump\t// out\n    /* \"#utility.yul\":2331:2724   */\ntag_31:\n    /* \"#utility.yul\":2400:2406   */\n  0x00\n    /* \"#utility.yul\":2450:2451   */\n  0x08\n    /* \"#utility.yul\":2438:2448   */\n  dup4\n    /* \"#utility.yul\":2434:2452   */\n  mul\n    /* \"#utility.yul\":2473:2570   */\n  tag_65\n    /* \"#utility.yul\":2503:2569   */\n  0xffffffffffffffffffffffffffffffffffffffffffffffffffffffffffffffff\n    /* \"#utility.yul\":2492:2501   */\n  dup3\n    /* \"#utility.yul\":2473:2570   */\n  tag_30\n  jump\t// in\ntag_65:\n    /* \"#utility.yul\":2591:2630   */\n  tag_66\n    /* \"#utility.yul\":2621:2629   */\n  dup7\n    /* \"#utility.yul\":2610:2619   */\n  dup4\n    /* \"#utility.yul\":2591:2630   */\n  tag_30\n  jump\t// in\ntag_66:\n    /* \"#utility.yul\":2579:2630   */\n  swap6\n  pop\n    /* \"#utility.yul\":2663:2667   */\n  dup1\n    /* \"#utility.yul\":2659:2668   */\n  not\n    /* \"#utility.yul\":2652:2657   */\n  dup5\n    /* \"#utility.yul\":2648:2669   */\n  and\n    /* \"#utility.yul\":2639:2669   */\n  swap4\n  pop\n    /* \"#utility.yul\":2712:2716   */\n  dup1\n    /* \"#utility.yul\":2702:2710   */\n  dup7\n    /* \"#utility.yul\":2698:2717   */\n  and\n    /* \"#utility.yul\":2691:2696   */\n  dup5\n    /* \"#utility.yul\":2688:2718   */\n  or\n    /* \"#utility.yul\":2678:2718   */\n  swap3\n  pop\n    /* \"#utility.yul\":2407:2724   */\n  pop\n  pop\n    /* \"#utility.yul\":2331:2724   */\n  swap4\n  swap3\n  pop\n  pop\n  pop\n  jump\t// out\n    /* \"#utility.yul\":2730:2807   */\ntag_32:\n    /* \"#utility.yul\":2767:2774   */\n  0x00\n    /* \"#utility.yul\":2796:2801   */\n  dup2\n    /* \"#utility.yul\":2785:2801   */\n  swap1\n  pop\n    /* \"#utility.yul\":2730:2807   */\n  swap2\n  swap1\n  pop\n  jump\t// out\n    /* \"#utility.yul\":2813:2873   */\ntag_33:\n    /* \"#utility.yul\":2841:2844   */\n  0x00\n    /* \"#utility.yul\":2862:2867   */\n  dup2\n    /* \"#utility.yul\":2855:2867   */\n  swap1\n  pop\n    /* \"#utility.yul\":2813:2873   */\n  swap2\n  swap1\n  pop\n  jump\t// out\n    /* \"#utility.yul\":2879:3021   */\ntag_34:\n    /* \"#utility.yul\":2929:2938   */\n  0x00\n    /* \"#utility.yul\":2962:3015   */\n  tag_70\n    /* \"#utility.yul\":2980:3014   */\n  tag_71\n    /* \"#utility.yul\":2989:3013   */\n  tag_72\n    /* \"#utility.yul\":3007:3012   */\n  dup5\n    /* \"#utility.yul\":2989:3013   */\n  tag_32\n  jump\t// in\ntag_72:\n    /* \"#utility.yul\":2980:3014   */\n  tag_33\n  jump\t// in\ntag_71:\n    /* \"#utility.yul\":2962:3015   */\n  tag_32\n  jump\t// in\ntag_70:\n    /* \"#utility.yul\":2949:3015   */\n  swap1\n  pop\n    /* \"#utility.yul\":2879:3021   */\n  swap2\n  swap1\n  pop\n  jump\t// out\n    /* \"#utility.yul\":3027:3102   */\ntag_35:\n    /* \"#utility.yul\":3070:3073   */\n  0x00\n    /* \"#utility.yul\":3091:3096   */\n  dup2\n    /* \"#utility.yul\":3084:3096   */\n  swap1\n  pop\n    /* \"#utility.yul\":3027:3102   */\n  swap2\n  swap1\n  pop\n  jump\t// out\n    /* \"#utility.yul\":3108:3377   */\ntag_36:\n    /* \"#utility.yul\":3218:3257   */\n  tag_75\n    /* \"#utility.yul\":3249:3256   */\n  dup4\n    /* \"#utility.yul\":3218:3257   */\n  tag_34\n  jump\t// in\ntag_75:\n    /* \"#utility.yul\":3279:3370   */\n  tag_76\n    /* \"#utility.yul\":3328:3369   */\n  tag_77\n    /* \"#utility.yul\":3352:3368   */\n  dup3\n    /* \"#utility.yul\":3328:3369   */\n  tag_35\n  jump\t// in\ntag_77:\n    /* \"#utility.yul\":3320:3326   */\n  dup5\n    /* \"#utility.yul\":3313:3317   */\n  dup5\n    /* \"#utility.yul\":3307:3318   */\n  sload\n    /* \"#utility.yul\":3279:3370   */\n  tag_31\n  jump\t// in\ntag_76:\n    /* \"#utility.yul\":3273:3277   */\n  dup3\n    /* \"#utility.yul\":3266:3371   */\n  sstore\n    /* \"#utility.yul\":3184:3377   */\n  pop\n    /* \"#utility.yul\":3108:3377   */\n  pop\n  pop\n  pop\n  jump\t// out\n    /* \"#utility.yul\":3383:3456   */\ntag_37:\n    /* \"#utility.yul\":3428:3431   */\n  0x00\n    /* \"#utility.yul\":3383:3456   */\n  swap1\n  jump\t// out\n    /* \"#utility.yul\":3462:3651   */\ntag_38:\n    /* \"#utility.yul\":3539:3571   */\n  tag_80\n  tag_37\n  jump\t// in\ntag_80:\n    /* \"#utility.yul\":3580:3645   */\n  tag_81\n    /* \"#utility.yul\":3638:3644   */\n  dup2\n    /* \"#utility.yul\":3630:3636   */\n  dup5\n    /* \"#utility.yul\":3624:3628   */\n  dup5\n    /* \"#utility.yul\":3580:3645   */\n  tag_36\n  jump\t// in\ntag_81:\n    /* \"#utility.yul\":3515:3651   */\n  pop\n    /* \"#utility.yul\":3462:3651   */\n  pop\n  pop\n  jump\t// out\n    /* \"#utility.yul\":3657:3843   */\ntag_39:\n    /* \"#utility.yul\":3717:3837   */\ntag_83:\n    /* \"#utility.yul\":3734:3737   */\n  dup2\n    /* \"#utility.yul\":3727:3732   */\n  dup2\n    /* \"#utility.yul\":3724:3738   */\n  lt\n    /* \"#utility.yul\":3717:3837   */\n  iszero\n  tag_85\n  jumpi\n    /* \"#utility.yul\":3788:3827   */\n  tag_86\n    /* \"#utility.yul\":3825:3826   */\n  0x00\n    /* \"#utility.yul\":3818:3823   */\n  dup3\n    /* \"#utility.yul\":3788:3827   */\n  tag_38\n  jump\t// in\ntag_86:\n    /* \"#utility.yul\":3761:3762   */\n  0x01\n    /* \"#utility.yul\":3754:3759   */\n  dup2\n    /* \"#utility.yul\":3750:3763   */\n  add\n    /* \"#utility.yul\":3741:3763   */\n  swap1\n  pop\n    /* \"#utility.yul\":3717:3837   */\n  jump(tag_83)\ntag_85:\n    /* \"#utility.yul\":3657:3843   */\n  pop\n  pop\n  jump\t// out\n    /* \"#utility.yul\":3849:4392   */\ntag_40:\n    /* \"#utility.yul\":3950:3952   */\n  0x1f\n    /* \"#utility.yul\":3945:3948   */\n  dup3\n    /* \"#utility.yul\":3942:3953   */\n  gt\n    /* \"#utility.yul\":3939:4385   */\n  iszero\n  tag_88\n  jumpi\n    /* \"#utility.yul\":3984:4022   */\n  tag_89\n    /* \"#utility.yul\":4016:4021   */\n  dup2\n    /* \"#utility.yul\":3984:4022   */\n  tag_28\n  jump\t// in\ntag_89:\n    /* \"#utility.yul\":4068:4097   */\n  tag_90\n    /* \"#utility.yul\":4086:4096   */\n  dup5\n    /* \"#utility.yul\":4068:4097   */\n  tag_29\n  jump\t// in\ntag_90:\n    /* \"#utility.yul\":4058:4066   */\n  dup2\n    /* \"#utility.yul\":4054:4098   */\n  add\n    /* \"#utility.yul\":4251:4253   */\n  0x20\n    /* \"#utility.yul\":4239:4249   */\n  dup6\n    /* \"#utility.yul\":4236:4254   */\n  lt\n    /* \"#utility.yul\":4233:4282   */\n  iszero\n  tag_91\n  jumpi\n    /* \"#utility.yul\":4272:4280   */\n  dup2\n    /* \"#utility.yul\":4257:4280   */\n  swap1\n  pop\n    /* \"#utility.yul\":4233:4282   */\ntag_91:\n    /* \"#utility.yul\":4295:4375   */\n  tag_92\n    /* \"#utility.yul\":4351:4373   */\n  tag_93\n    /* \"#utility.yul\":4369:4372   */\n  dup6\n    /* \"#utility.yul\":4351:4373   */\n  tag_29\n  jump\t// in\ntag_93:\n    /* \"#utility.yul\":4341:4349   */\n  dup4\n    /* \"#utility.yul\":4337:4374   */\n  add\n    /* \"#utility.yul\":4324:4335   */\n  dup3\n    /* \"#utility.yul\":4295:4375   */\n  tag_39\n  jump\t// in\ntag_92:\n    /* \"#utility.yul\":3954:4385   */\n  pop\n  pop\n    /* \"#utility.yul\":3939:4385   */\ntag_88:\n    /* \"#utility.yul\":3849:4392   */\n  pop\n  pop\n  pop\n  jump\t// out\n    /* \"#utility.yul\":4398:4515   */\ntag_41:\n    /* \"#utility.yul\":4452:4460   */\n  0x00\n    /* \"#utility.yul\":4502:4507   */\n  dup3\n    /* \"#utility.yul\":4496:4500   */\n  dup3\n    /* \"#utility.yul\":4492:4508   */\n  shr\n    /* \"#utility.yul\":4471:4508   */\n  swap1\n  pop\n    /* \"#utility.yul\":4398:4515   */\n  swap3\n  swap2\n  pop\n  pop\n  jump\t// out\n    /* \"#utility.yul\":4521:4690   */\ntag_42:\n    /* \"#utility.yul\":4565:4571   */\n  0x00\n    /* \"#utility.yul\":4598:4649   */\n  tag_96\n    /* \"#utility.yul\":4646:4647   */\n  0x00\n    /* \"#utility.yul\":4642:4648   */\n  not\n    /* \"#utility.yul\":4634:4639   */\n  dup5\n    /* \"#utility.yul\":4631:4632   */\n  0x08\n    /* \"#utility.yul\":4627:4640   */\n  mul\n    /* \"#utility.yul\":4598:4649   */\n  tag_41\n  jump\t// in\ntag_96:\n    /* \"#utility.yul\":4594:4650   */\n  not\n    /* \"#utility.yul\":4679:4683   */\n  dup1\n    /* \"#utility.yul\":4673:4677   */\n  dup4\n    /* \"#utility.yul\":4669:4684   */\n  and\n    /* \"#utility.yul\":4659:4684   */\n  swap2\n  pop\n    /* \"#utility.yul\":4572:4690   */\n  pop\n    /* \"#utility.yul\":4521:4690   */\n  swap3\n  swap2\n  pop\n  pop\n  jump\t// out\n    /* \"#utility.yul\":4695:4990   */\ntag_43:\n    /* \"#utility.yul\":4771:4775   */\n  0x00\n    /* \"#utility.yul\":4917:4946   */\n  tag_98\n    /* \"#utility.yul\":4942:4945   */\n  dup4\n    /* \"#utility.yul\":4936:4940   */\n  dup4\n    /* \"#utility.yul\":4917:4946   */\n  tag_42\n  jump\t// in\ntag_98:\n    /* \"#utility.yul\":4909:4946   */\n  swap2\n  pop\n    /* \"#utility.yul\":4979:4982   */\n  dup3\n    /* \"#utility.yul\":4976:4977   */\n  0x02\n    /* \"#utility.yul\":4972:4983   */\n  mul\n    /* \"#utility.yul\":4966:4970   */\n  dup3\n    /* \"#utility.yul\":4963:4984   */\n  or\n    /* \"#utility.yul\":4955:4984   */\n  swap1\n  pop\n    /* \"#utility.yul\":4695:4990   */\n  swap3\n  swap2\n  pop\n  pop\n  jump\t// out\n    /* \"#utility.yul\":4995:6390   */\ntag_15:\n    /* \"#utility.yul\":5112:5149   */\n  tag_100\n    /* \"#utility.yul\":5145:5148   */\n  dup3\n    /* \"#utility.yul\":5112:5149   */\n  tag_21\n  jump\t// in\ntag_100:\n    /* \"#utility.yul\":5214:5232   */\n  0xffffffffffffffff\n    /* \"#utility.yul\":5206:5212   */\n  dup2\n    /* \"#utility.yul\":5203:5233   */\n  gt\n    /* \"#utility.yul\":5200:5256   */\n  iszero\n  tag_101\n  jumpi\n    /* \"#utility.yul\":5236:5254   */\n  tag_102\n  tag_25\n  jump\t// in\ntag_102:\n    /* \"#utility.yul\":5200:5256   */\ntag_101:\n    /* \"#utility.yul\":5280:5318   */\n  tag_103\n    /* \"#utility.yul\":5312:5316   */\n  dup3\n    /* \"#utility.yul\":5306:5317   */\n  sload\n    /* \"#utility.yul\":5280:5318   */\n  tag_27\n  jump\t// in\ntag_103:\n    /* \"#utility.yul\":5365:5432   */\n  tag_104\n    /* \"#utility.yul\":5425:5431   */\n  dup3\n    /* \"#utility.yul\":5417:5423   */\n  dup3\n    /* \"#utility.yul\":5411:5415   */\n  dup6\n    /* \"#utility.yul\":5365:5432   */\n  tag_40\n  jump\t// in\ntag_104:\n    /* \"#utility.yul\":5459:5460   */\n  0x00\n    /* \"#utility.yul\":5483:5487   */\n  0x20\n    /* \"#utility.yul\":5470:5487   */\n  swap1\n  pop\n    /* \"#utility.yul\":5515:5517   */\n  0x1f\n    /* \"#utility.yul\":5507:5513   */\n  dup4\n    /* \"#utility.yul\":5504:5518   */\n  gt\n    /* \"#utility.yul\":5532:5533   */\n  0x01\n    /* \"#utility.yul\":5527:6145   */\n  dup2\n  eq\n  tag_106\n  jumpi\n    /* \"#utility.yul\":6189:6190   */\n  0x00\n    /* \"#utility.yul\":6206:6212   */\n  dup5\n    /* \"#utility.yul\":6203:6280   */\n  iszero\n  tag_107\n  jumpi\n    /* \"#utility.yul\":6255:6264   */\n  dup3\n    /* \"#utility.yul\":6250:6253   */\n  dup8\n    /* \"#utility.yul\":6246:6265   */\n  add\n    /* \"#utility.yul\":6240:6266   */\n  mload\n    /* \"#utility.yul\":6231:6266   */\n  swap1\n  pop\n    /* \"#utility.yul\":6203:6280   */\ntag_107:\n    /* \"#utility.yul\":6306:6373   */\n  tag_108\n    /* \"#utility.yul\":6366:6372   */\n  dup6\n    /* \"#utility.yul\":6359:6364   */\n  dup3\n    /* \"#utility.yul\":6306:6373   */\n  tag_43\n  jump\t// in\ntag_108:\n    /* \"#utility.yul\":6300:6304   */\n  dup7\n    /* \"#utility.yul\":6293:6374   */\n  sstore\n    /* \"#utility.yul\":6162:6384   */\n  pop\n    /* \"#utility.yul\":5497:6384   */\n  jump(tag_105)\n    /* \"#utility.yul\":5527:6145   */\ntag_106:\n    /* \"#utility.yul\":5579:5583   */\n  0x1f\n    /* \"#utility.yul\":5575:5584   */\n  not\n    /* \"#utility.yul\":5567:5573   */\n  dup5\n    /* \"#utility.yul\":5563:5585   */\n  and\n    /* \"#utility.yul\":5613:5650   */\n  tag_109\n    /* \"#utility.yul\":5645:5649   */\n  dup7\n    /* \"#utility.yul\":5613:5650   */\n  tag_28\n  jump\t// in\ntag_109:\n    /* \"#utility.yul\":5672:5673   */\n  0x00\n    /* \"#utility.yul\":5686:5894   */\ntag_110:\n    /* \"#utility.yul\":5700:5707   */\n  dup3\n    /* \"#utility.yul\":5697:5698   */\n  dup2\n    /* \"#utility.yul\":5694:5708   */\n  lt\n    /* \"#utility.yul\":5686:5894   */\n  iszero\n  tag_112\n  jumpi\n    /* \"#utility.yul\":5779:5788   */\n  dup5\n    /* \"#utility.yul\":5774:5777   */\n  dup10\n    /* \"#utility.yul\":5770:5789   */\n  add\n    /* \"#utility.yul\":5764:5790   */\n  mload\n    /* \"#utility.yul\":5756:5762   */\n  dup3\n    /* \"#utility.yul\":5749:5791   */\n  sstore\n    /* \"#utility.yul\":5830:5831   */\n  0x01\n    /* \"#utility.yul\":5822:5828   */\n  dup3\n    /* \"#utility.yul\":5818:5832   */\n  add\n    /* \"#utility.yul\":5808:5832   */\n  swap2\n  pop\n    /* \"#utility.yul\":5877:5879   */\n  0x20\n    /* \"#utility.yul\":5866:5875   */\n  dup6\n    /* \"#utility.yul\":5862:5880   */\n  add\n    /* \"#utility.yul\":5849:5880   */\n  swap5\n  pop\n    /* \"#utility.yul\":5723:5727   */\n  0x20\n    /* \"#utility.yul\":5720:5721   */\n  dup2\n    /* \"#utility.yul\":5716:5728   */\n  add\n    /* \"#utility.yul\":5711:5728   */\n  swap1\n  pop\n    /* \"#utility.yul\":5686:5894   */\n  jump(tag_110)\ntag_112:\n    /* \"#utility.yul\":5922:5928   */\n  dup7\n    /* \"#utility.yul\":5913:5920   */\n  dup4\n    /* \"#utility.yul\":5910:5929   */\n  lt\n    /* \"#utility.yul\":5907:6086   */\n  iszero\n  tag_113\n  jumpi\n    /* \"#utility.yul\":5980:5989   */\n  dup5\n    /* \"#utility.yul\":5975:5978   */\n  dup10\n    /* \"#utility.yul\":5971:5990   */\n  add\n    /* \"#utility.yul\":5965:5991   */\n  mload\n    /* \"#utility.yul\":6023:6071   */\n  tag_114\n    /* \"#utility.yul\":6065:6069   */\n  0x1f\n    /* \"#utility.yul\":6057:6063   */\n  dup10\n    /* \"#utility.yul\":6053:6070   */\n  and\n    /* \"#utility.yul\":6042:6051   */\n  dup3\n    /* \"#utility.yul\":6023:6071   */\n  tag_42\n  jump\t// in\ntag_114:\n    /* \"#utility.yul\":6015:6021   */\n  dup4\n    /* \"#utility.yul\":6008:6072   */\n  sstore\n    /* \"#utility.yul\":5930:6086   */\n  pop\n    /* \"#utility.yul\":5907:6086   */\ntag_113:\n    /* \"#utility.yul\":6132:6133   */\n  0x01\n    /* \"#utility.yul\":6128:6129   */\n  0x02\n    /* \"#utility.yul\":6120:6126   */\n  dup9\n    /* \"#utility.yul\":6116:6130   */\n  mul\n    /* \"#utility.yul\":6112:6134   */\n  add\n    /* \"#utility.yul\":6106:6110   */\n  dup9\n    /* \"#utility.yul\":6099:6135   */\n  sstore\n    /* \"#utility.yul\":5534:6145   */\n  pop\n  pop\n  pop\n    /* \"#utility.yul\":5497:6384   */\ntag_105:\n  pop\n    /* \"#utility.yul\":5087:6390   */\n  pop\n  pop\n  pop\n    /* \"#utility.yul\":4995:6390   */\n  pop\n  pop\n  jump\t// out\n    /* \"Contracts/Countries.sol\":57:8900  contract Countries {... */\ntag_20:\n  dataSize(sub_0)\n  dup1\n  dataOffset(sub_0)\n  0x00\n  codecopy\n  0x00\n  return\nstop\n\nsub_0: assembly {\n        /* \"Contracts/Countries.sol\":57:8900  contract Countries {... */\n      mstore(0x40, 0x80)\n      callvalue\n      dup1\n      iszero\n      tag_1\n      jumpi\n      0x00\n      dup1\n      revert\n    tag_1:\n      pop\n      jumpi(tag_2, lt(calldatasize, 0x04))\n      shr(0xe0, calldataload(0x00))\n      dup1\n      0x03649e43\n      eq\n      tag_3\n      jumpi\n      dup1\n      0x45d94c5d\n      eq\n      tag_4\n      jumpi\n      dup1\n      0x83b156c4\n      eq\n      tag_5\n      jumpi\n      dup1\n      0xc58b98fc\n      eq\n      tag_6\n      jumpi\n    tag_2:\n      0x00\n      dup1\n      revert\n        /* \"Contracts/Countries.sol\":8560:8898  function isValidISOCode(string memory countryISOCode) public view returns (bool) {... */\n    tag_3:\n      tag_7\n      0x04\n      dup1\n      calldatasize\n      sub\n      dup2\n      add\n      swap1\n      tag_8\n      swap2\n      swap1\n      tag_9\n      jump\t// in\n    tag_8:\n      tag_10\n      jump\t// in\n    tag_7:\n      mload(0x40)\n      tag_11\n      swap2\n      swap1\n      tag_12\n      jump\t// in\n    tag_11:\n      mload(0x40)\n      dup1\n      swap2\n      sub\n      swap1\n      return\n        /* \"Contracts/Countries.sol\":201:246  mapping(string => string) public countryToISO */\n    tag_4:\n      tag_13\n      0x04\n      dup1\n      calldatasize\n      sub\n      dup2\n      add\n      swap1\n      tag_14\n      swap2\n      swap1\n      tag_9\n      jump\t// in\n    tag_14:\n      tag_15\n      jump\t// in\n    tag_13:\n      mload(0x40)\n      tag_16\n      swap2\n      swap1\n      tag_17\n      jump\t// in\n    tag_16:\n      mload(0x40)\n      dup1\n      swap2\n      sub\n      swap1\n      return\n        /* \"Contracts/Countries.sol\":8422:8554  function getISOCode(string memory countryName) public view returns (string memory) {... */\n    tag_5:\n      tag_18\n      0x04\n      dup1\n      calldatasize\n      sub\n      dup2\n      add\n      swap1\n      tag_19\n      swap2\n      swap1\n      tag_9\n      jump\t// in\n    tag_19:\n      tag_20\n      jump\t// in\n    tag_18:\n      mload(0x40)\n      tag_21\n      swap2\n      swap1\n      tag_17\n      jump\t// in\n    tag_21:\n      mload(0x40)\n      dup1\n      swap2\n      sub\n      swap1\n      return\n        /* \"Contracts/Countries.sol\":292:323  string[] public countryISOCodes */\n    tag_6:\n      tag_22\n      0x04\n      dup1\n      calldatasize\n      sub\n      dup2\n      add\n      swap1\n      tag_23\n      swap2\n      swap1\n      tag_24\n      jump\t// in\n    tag_23:\n      tag_25\n      jump\t// in\n    tag_22:\n      mload(0x40)\n      tag_26\n      swap2\n      swap1\n      tag_17\n      jump\t// in\n    tag_26:\n      mload(0x40)\n      dup1\n      swap2\n      sub\n      swap1\n      return\n        /* \"Contracts/Countries.sol\":8560:8898  function isValidISOCode(string memory countryISOCode) public view returns (bool) {... */\n    tag_10:\n        /* \"Contracts/Countries.sol\":8635:8639  bool */\n      0x00\n        /* \"Contracts/Countries.sol\":8656:8662  uint i */\n      dup1\n        /* \"Contracts/Countries.sol\":8665:8666  0 */\n      0x00\n        /* \"Contracts/Countries.sol\":8656:8666  uint i = 0 */\n      swap1\n      pop\n        /* \"Contracts/Countries.sol\":8651:8869  for (uint i = 0; i < countryISOCodes.length; i++) {... */\n    tag_28:\n        /* \"Contracts/Countries.sol\":8672:8687  countryISOCodes */\n      0x01\n        /* \"Contracts/Countries.sol\":8672:8694  countryISOCodes.length */\n      dup1\n      sload\n      swap1\n      pop\n        /* \"Contracts/Countries.sol\":8668:8669  i */\n      dup2\n        /* \"Contracts/Countries.sol\":8668:8694  i < countryISOCodes.length */\n      lt\n        /* \"Contracts/Countries.sol\":8651:8869  for (uint i = 0; i < countryISOCodes.length; i++) {... */\n      iszero\n      tag_29\n      jumpi\n        /* \"Contracts/Countries.sol\":8797:8811  countryISOCode */\n      dup3\n        /* \"Contracts/Countries.sol\":8780:8812  abi.encodePacked(countryISOCode) */\n      add(0x20, mload(0x40))\n      tag_31\n      swap2\n      swap1\n      tag_32\n      jump\t// in\n    tag_31:\n      mload(0x40)\n      0x20\n      dup2\n      dup4\n      sub\n      sub\n      dup2\n      mstore\n      swap1\n      0x40\n      mstore\n        /* \"Contracts/Countries.sol\":8770:8813  keccak256(abi.encodePacked(countryISOCode)) */\n      dup1\n      mload\n      swap1\n      0x20\n      add\n      keccak256\n        /* \"Contracts/Countries.sol\":8746:8761  countryISOCodes */\n      0x01\n        /* \"Contracts/Countries.sol\":8762:8763  i */\n      dup3\n        /* \"Contracts/Countries.sol\":8746:8764  countryISOCodes[i] */\n      dup2\n      sload\n      dup2\n      lt\n      tag_33\n      jumpi\n      tag_34\n      tag_35\n      jump\t// in\n    tag_34:\n    tag_33:\n      swap1\n      0x00\n      mstore\n      keccak256(0x00, 0x20)\n      add\n        /* \"Contracts/Countries.sol\":8729:8765  abi.encodePacked(countryISOCodes[i]) */\n      add(0x20, mload(0x40))\n      tag_37\n      swap2\n      swap1\n      tag_38\n      jump\t// in\n    tag_37:\n      mload(0x40)\n      0x20\n      dup2\n      dup4\n      sub\n      sub\n      dup2\n      mstore\n      swap1\n      0x40\n      mstore\n        /* \"Contracts/Countries.sol\":8719:8766  keccak256(abi.encodePacked(countryISOCodes[i])) */\n      dup1\n      mload\n      swap1\n      0x20\n      add\n      keccak256\n        /* \"Contracts/Countries.sol\":8719:8813  keccak256(abi.encodePacked(countryISOCodes[i])) == keccak256(abi.encodePacked(countryISOCode)) */\n      sub\n        /* \"Contracts/Countries.sol\":8715:8859  if (keccak256(abi.encodePacked(countryISOCodes[i])) == keccak256(abi.encodePacked(countryISOCode))) {... */\n      tag_39\n      jumpi\n        /* \"Contracts/Countries.sol\":8840:8844  true */\n      0x01\n        /* \"Contracts/Countries.sol\":8833:8844  return true */\n      swap2\n      pop\n      pop\n      jump(tag_27)\n        /* \"Contracts/Countries.sol\":8715:8859  if (keccak256(abi.encodePacked(countryISOCodes[i])) == keccak256(abi.encodePacked(countryISOCode))) {... */\n    tag_39:\n        /* \"Contracts/Countries.sol\":8696:8699  i++ */\n      dup1\n      dup1\n      0x01\n      add\n      swap2\n      pop\n      pop\n        /* \"Contracts/Countries.sol\":8651:8869  for (uint i = 0; i < countryISOCodes.length; i++) {... */\n      jump(tag_28)\n    tag_29:\n      pop\n        /* \"Contracts/Countries.sol\":8886:8891  false */\n      0x00\n        /* \"Contracts/Countries.sol\":8879:8891  return false */\n      swap1\n      pop\n        /* \"Contracts/Countries.sol\":8560:8898  function isValidISOCode(string memory countryISOCode) public view returns (bool) {... */\n    tag_27:\n      swap2\n      swap1\n      pop\n      jump\t// out\n        /* \"Contracts/Countries.sol\":201:246  mapping(string => string) public countryToISO */\n    tag_15:\n      0x00\n      dup2\n      dup1\n      mload\n      0x20\n      dup2\n      add\n      dup3\n      add\n      dup1\n      mload\n      dup5\n      dup3\n      mstore\n      0x20\n      dup4\n      add\n      0x20\n      dup6\n      add\n      keccak256\n      dup2\n      dup4\n      mstore\n      dup1\n      swap6\n      pop\n      pop\n      pop\n      pop\n      pop\n      pop\n      0x00\n      swap2\n      pop\n      swap1\n      pop\n      dup1\n      sload\n      tag_40\n      swap1\n      tag_41\n      jump\t// in\n    tag_40:\n      dup1\n      0x1f\n      add\n      0x20\n      dup1\n      swap2\n      div\n      mul\n      0x20\n      add\n      mload(0x40)\n      swap1\n      dup2\n      add\n      0x40\n      mstore\n      dup1\n      swap3\n      swap2\n      swap1\n      dup2\n      dup2\n      mstore\n      0x20\n      add\n      dup3\n      dup1\n      sload\n      tag_42\n      swap1\n      tag_41\n      jump\t// in\n    tag_42:\n      dup1\n      iszero\n      tag_43\n      jumpi\n      dup1\n      0x1f\n      lt\n      tag_44\n      jumpi\n      0x0100\n      dup1\n      dup4\n      sload\n      div\n      mul\n      dup4\n      mstore\n      swap2\n      0x20\n      add\n      swap2\n      jump(tag_43)\n    tag_44:\n      dup3\n      add\n      swap2\n      swap1\n      0x00\n      mstore\n      keccak256(0x00, 0x20)\n      swap1\n    tag_45:\n      dup2\n      sload\n      dup2\n      mstore\n      swap1\n      0x01\n      add\n      swap1\n      0x20\n      add\n      dup1\n      dup4\n      gt\n      tag_45\n      jumpi\n      dup3\n      swap1\n      sub\n      0x1f\n      and\n      dup3\n      add\n      swap2\n    tag_43:\n      pop\n      pop\n      pop\n      pop\n      pop\n      dup2\n      jump\t// out\n        /* \"Contracts/Countries.sol\":8422:8554  function getISOCode(string memory countryName) public view returns (string memory) {... */\n    tag_20:\n        /* \"Contracts/Countries.sol\":8490:8503  string memory */\n      0x60\n        /* \"Contracts/Countries.sol\":8522:8534  countryToISO */\n      0x00\n        /* \"Contracts/Countries.sol\":8535:8546  countryName */\n      dup3\n        /* \"Contracts/Countries.sol\":8522:8547  countryToISO[countryName] */\n      mload(0x40)\n      tag_47\n      swap2\n      swap1\n      tag_32\n      jump\t// in\n    tag_47:\n      swap1\n      dup2\n      mstore\n      0x20\n      add\n      mload(0x40)\n      dup1\n      swap2\n      sub\n      swap1\n      keccak256\n        /* \"Contracts/Countries.sol\":8515:8547  return countryToISO[countryName] */\n      dup1\n      sload\n      tag_48\n      swap1\n      tag_41\n      jump\t// in\n    tag_48:\n      dup1\n      0x1f\n      add\n      0x20\n      dup1\n      swap2\n      div\n      mul\n      0x20\n      add\n      mload(0x40)\n      swap1\n      dup2\n      add\n      0x40\n      mstore\n      dup1\n      swap3\n      swap2\n      swap1\n      dup2\n      dup2\n      mstore\n      0x20\n      add\n      dup3\n      dup1\n      sload\n      tag_49\n      swap1\n      tag_41\n      jump\t// in\n    tag_49:\n      dup1\n      iszero\n      tag_50\n      jumpi\n      dup1\n      0x1f\n      lt\n      tag_51\n      jumpi\n      0x0100\n      dup1\n      dup4\n      sload\n      div\n      mul\n      dup4\n      mstore\n      swap2\n      0x20\n      add\n      swap2\n      jump(tag_50)\n    tag_51:\n      dup3\n      add\n      swap2\n      swap1\n      0x00\n      mstore\n      keccak256(0x00, 0x20)\n      swap1\n    tag_52:\n      dup2\n      sload\n      dup2\n      mstore\n      swap1\n      0x01\n      add\n      swap1\n      0x20\n      add\n      dup1\n      dup4\n      gt\n      tag_52\n      jumpi\n      dup3\n      swap1\n      sub\n      0x1f\n      and\n      dup3\n      add\n      swap2\n    tag_50:\n      pop\n      pop\n      pop\n      pop\n      pop\n      swap1\n      pop\n        /* \"Contracts/Countries.sol\":8422:8554  function getISOCode(string memory countryName) public view returns (string memory) {... */\n      swap2\n      swap1\n      pop\n      jump\t// out\n        /* \"Contracts/Countries.sol\":292:323  string[] public countryISOCodes */\n    tag_25:\n      0x01\n      dup2\n      dup2\n      sload\n      dup2\n      lt\n      tag_53\n      jumpi\n      0x00\n      dup1\n      revert\n    tag_53:\n      swap1\n      0x00\n      mstore\n      keccak256(0x00, 0x20)\n      add\n      0x00\n      swap2\n      pop\n      swap1\n      pop\n      dup1\n      sload\n      tag_55\n      swap1\n      tag_41\n      jump\t// in\n    tag_55:\n      dup1\n      0x1f\n      add\n      0x20\n      dup1\n      swap2\n      div\n      mul\n      0x20\n      add\n      mload(0x40)\n      swap1\n      dup2\n      add\n      0x40\n      mstore\n      dup1\n      swap3\n      swap2\n      swap1\n      dup2\n      dup2\n      mstore\n      0x20\n      add\n      dup3\n      dup1\n      sload\n      tag_56\n      swap1\n      tag_41\n      jump\t// in\n    tag_56:\n      dup1\n      iszero\n      tag_57\n      jumpi\n      dup1\n      0x1f\n      lt\n      tag_58\n      jumpi\n      0x0100\n      dup1\n      dup4\n      sload\n      div\n      mul\n      dup4\n      mstore\n      swap2\n      0x20\n      add\n      swap2\n      jump(tag_57)\n    tag_58:\n      dup3\n      add\n      swap2\n      swap1\n      0x00\n      mstore\n      keccak256(0x00, 0x20)\n      swap1\n    tag_59:\n      dup2\n      sload\n      dup2\n      mstore\n      swap1\n      0x01\n      add\n      swap1\n      0x20\n      add\n      dup1\n      dup4\n      gt\n      tag_59\n      jumpi\n      dup3\n      swap1\n      sub\n      0x1f\n      and\n      dup3\n      add\n      swap2\n    tag_57:\n      pop\n      pop\n      pop\n      pop\n      pop\n      dup2\n      jump\t// out\n        /* \"#utility.yul\":7:82   */\n    tag_60:\n        /* \"#utility.yul\":40:46   */\n      0x00\n        /* \"#utility.yul\":73:75   */\n      0x40\n        /* \"#utility.yul\":67:76   */\n      mload\n        /* \"#utility.yul\":57:76   */\n      swap1\n      pop\n        /* \"#utility.yul\":7:82   */\n      swap1\n      jump\t// out\n        /* \"#utility.yul\":88:205   */\n    tag_61:\n        /* \"#utility.yul\":197:198   */\n      0x00\n        /* \"#utility.yul\":194:195   */\n      dup1\n        /* \"#utility.yul\":187:199   */\n      revert\n        /* \"#utility.yul\":211:328   */\n    tag_62:\n        /* \"#utility.yul\":320:321   */\n      0x00\n        /* \"#utility.yul\":317:318   */\n      dup1\n        /* \"#utility.yul\":310:322   */\n      revert\n        /* \"#utility.yul\":334:451   */\n    tag_63:\n        /* \"#utility.yul\":443:444   */\n      0x00\n        /* \"#utility.yul\":440:441   */\n      dup1\n        /* \"#utility.yul\":433:445   */\n      revert\n        /* \"#utility.yul\":457:574   */\n    tag_64:\n        /* \"#utility.yul\":566:567   */\n      0x00\n        /* \"#utility.yul\":563:564   */\n      dup1\n        /* \"#utility.yul\":556:568   */\n      revert\n        /* \"#utility.yul\":580:682   */\n    tag_65:\n        /* \"#utility.yul\":621:627   */\n      0x00\n        /* \"#utility.yul\":672:674   */\n      0x1f\n        /* \"#utility.yul\":668:675   */\n      not\n        /* \"#utility.yul\":663:665   */\n      0x1f\n        /* \"#utility.yul\":656:661   */\n      dup4\n        /* \"#utility.yul\":652:666   */\n      add\n        /* \"#utility.yul\":648:676   */\n      and\n        /* \"#utility.yul\":638:676   */\n      swap1\n      pop\n        /* \"#utility.yul\":580:682   */\n      swap2\n      swap1\n      pop\n      jump\t// out\n        /* \"#utility.yul\":688:868   */\n    tag_66:\n        /* \"#utility.yul\":736:813   */\n      0x4e487b7100000000000000000000000000000000000000000000000000000000\n        /* \"#utility.yul\":733:734   */\n      0x00\n        /* \"#utility.yul\":726:814   */\n      mstore\n        /* \"#utility.yul\":833:837   */\n      0x41\n        /* \"#utility.yul\":830:831   */\n      0x04\n        /* \"#utility.yul\":823:838   */\n      mstore\n        /* \"#utility.yul\":857:861   */\n      0x24\n        /* \"#utility.yul\":854:855   */\n      0x00\n        /* \"#utility.yul\":847:862   */\n      revert\n        /* \"#utility.yul\":874:1155   */\n    tag_67:\n        /* \"#utility.yul\":957:984   */\n      tag_96\n        /* \"#utility.yul\":979:983   */\n      dup3\n        /* \"#utility.yul\":957:984   */\n      tag_65\n      jump\t// in\n    tag_96:\n        /* \"#utility.yul\":949:955   */\n      dup2\n        /* \"#utility.yul\":945:985   */\n      add\n        /* \"#utility.yul\":1087:1093   */\n      dup2\n        /* \"#utility.yul\":1075:1085   */\n      dup2\n        /* \"#utility.yul\":1072:1094   */\n      lt\n        /* \"#utility.yul\":1051:1069   */\n      0xffffffffffffffff\n        /* \"#utility.yul\":1039:1049   */\n      dup3\n        /* \"#utility.yul\":1036:1070   */\n      gt\n        /* \"#utility.yul\":1033:1095   */\n      or\n        /* \"#utility.yul\":1030:1118   */\n      iszero\n      tag_97\n      jumpi\n        /* \"#utility.yul\":1098:1116   */\n      tag_98\n      tag_66\n      jump\t// in\n    tag_98:\n        /* \"#utility.yul\":1030:1118   */\n    tag_97:\n        /* \"#utility.yul\":1138:1148   */\n      dup1\n        /* \"#utility.yul\":1134:1136   */\n      0x40\n        /* \"#utility.yul\":1127:1149   */\n      mstore\n        /* \"#utility.yul\":917:1155   */\n      pop\n        /* \"#utility.yul\":874:1155   */\n      pop\n      pop\n      jump\t// out\n        /* \"#utility.yul\":1161:1290   */\n    tag_68:\n        /* \"#utility.yul\":1195:1201   */\n      0x00\n        /* \"#utility.yul\":1222:1242   */\n      tag_100\n      tag_60\n      jump\t// in\n    tag_100:\n        /* \"#utility.yul\":1212:1242   */\n      swap1\n      pop\n        /* \"#utility.yul\":1251:1284   */\n      tag_101\n        /* \"#utility.yul\":1279:1283   */\n      dup3\n        /* \"#utility.yul\":1271:1277   */\n      dup3\n        /* \"#utility.yul\":1251:1284   */\n      tag_67\n      jump\t// in\n    tag_101:\n        /* \"#utility.yul\":1161:1290   */\n      swap2\n      swap1\n      pop\n      jump\t// out\n        /* \"#utility.yul\":1296:1604   */\n    tag_69:\n        /* \"#utility.yul\":1358:1362   */\n      0x00\n        /* \"#utility.yul\":1448:1466   */\n      0xffffffffffffffff\n        /* \"#utility.yul\":1440:1446   */\n      dup3\n        /* \"#utility.yul\":1437:1467   */\n      gt\n        /* \"#utility.yul\":1434:1490   */\n      iszero\n      tag_103\n      jumpi\n        /* \"#utility.yul\":1470:1488   */\n      tag_104\n      tag_66\n      jump\t// in\n    tag_104:\n        /* \"#utility.yul\":1434:1490   */\n    tag_103:\n        /* \"#utility.yul\":1508:1537   */\n      tag_105\n        /* \"#utility.yul\":1530:1536   */\n      dup3\n        /* \"#utility.yul\":1508:1537   */\n      tag_65\n      jump\t// in\n    tag_105:\n        /* \"#utility.yul\":1500:1537   */\n      swap1\n      pop\n        /* \"#utility.yul\":1592:1596   */\n      0x20\n        /* \"#utility.yul\":1586:1590   */\n      dup2\n        /* \"#utility.yul\":1582:1597   */\n      add\n        /* \"#utility.yul\":1574:1597   */\n      swap1\n      pop\n        /* \"#utility.yul\":1296:1604   */\n      swap2\n      swap1\n      pop\n      jump\t// out\n        /* \"#utility.yul\":1610:1758   */\n    tag_70:\n        /* \"#utility.yul\":1708:1714   */\n      dup3\n        /* \"#utility.yul\":1703:1706   */\n      dup2\n        /* \"#utility.yul\":1698:1701   */\n      dup4\n        /* \"#utility.yul\":1685:1715   */\n      calldatacopy\n        /* \"#utility.yul\":1749:1750   */\n      0x00\n        /* \"#utility.yul\":1740:1746   */\n      dup4\n        /* \"#utility.yul\":1735:1738   */\n      dup4\n        /* \"#utility.yul\":1731:1747   */\n      add\n        /* \"#utility.yul\":1724:1751   */\n      mstore\n        /* \"#utility.yul\":1610:1758   */\n      pop\n      pop\n      pop\n      jump\t// out\n        /* \"#utility.yul\":1764:2189   */\n    tag_71:\n        /* \"#utility.yul\":1842:1847   */\n      0x00\n        /* \"#utility.yul\":1867:1933   */\n      tag_108\n        /* \"#utility.yul\":1883:1932   */\n      tag_109\n        /* \"#utility.yul\":1925:1931   */\n      dup5\n        /* \"#utility.yul\":1883:1932   */\n      tag_69\n      jump\t// in\n    tag_109:\n        /* \"#utility.yul\":1867:1933   */\n      tag_68\n      jump\t// in\n    tag_108:\n        /* \"#utility.yul\":1858:1933   */\n      swap1\n      pop\n        /* \"#utility.yul\":1956:1962   */\n      dup3\n        /* \"#utility.yul\":1949:1954   */\n      dup2\n        /* \"#utility.yul\":1942:1963   */\n      mstore\n        /* \"#utility.yul\":1994:1998   */\n      0x20\n        /* \"#utility.yul\":1987:1992   */\n      dup2\n        /* \"#utility.yul\":1983:1999   */\n      add\n        /* \"#utility.yul\":2032:2035   */\n      dup5\n        /* \"#utility.yul\":2023:2029   */\n      dup5\n        /* \"#utility.yul\":2018:2021   */\n      dup5\n        /* \"#utility.yul\":2014:2030   */\n      add\n        /* \"#utility.yul\":2011:2036   */\n      gt\n        /* \"#utility.yul\":2008:2120   */\n      iszero\n      tag_110\n      jumpi\n        /* \"#utility.yul\":2039:2118   */\n      tag_111\n      tag_64\n      jump\t// in\n    tag_111:\n        /* \"#utility.yul\":2008:2120   */\n    tag_110:\n        /* \"#utility.yul\":2129:2183   */\n      tag_112\n        /* \"#utility.yul\":2176:2182   */\n      dup5\n        /* \"#utility.yul\":2171:2174   */\n      dup3\n        /* \"#utility.yul\":2166:2169   */\n      dup6\n        /* \"#utility.yul\":2129:2183   */\n      tag_70\n      jump\t// in\n    tag_112:\n        /* \"#utility.yul\":1848:2189   */\n      pop\n        /* \"#utility.yul\":1764:2189   */\n      swap4\n      swap3\n      pop\n      pop\n      pop\n      jump\t// out\n        /* \"#utility.yul\":2209:2549   */\n    tag_72:\n        /* \"#utility.yul\":2265:2270   */\n      0x00\n        /* \"#utility.yul\":2314:2317   */\n      dup3\n        /* \"#utility.yul\":2307:2311   */\n      0x1f\n        /* \"#utility.yul\":2299:2305   */\n      dup4\n        /* \"#utility.yul\":2295:2312   */\n      add\n        /* \"#utility.yul\":2291:2318   */\n      slt\n        /* \"#utility.yul\":2281:2403   */\n      tag_114\n      jumpi\n        /* \"#utility.yul\":2322:2401   */\n      tag_115\n      tag_63\n      jump\t// in\n    tag_115:\n        /* \"#utility.yul\":2281:2403   */\n    tag_114:\n        /* \"#utility.yul\":2439:2445   */\n      dup2\n        /* \"#utility.yul\":2426:2446   */\n      calldataload\n        /* \"#utility.yul\":2464:2543   */\n      tag_116\n        /* \"#utility.yul\":2539:2542   */\n      dup5\n        /* \"#utility.yul\":2531:2537   */\n      dup3\n        /* \"#utility.yul\":2524:2528   */\n      0x20\n        /* \"#utility.yul\":2516:2522   */\n      dup7\n        /* \"#utility.yul\":2512:2529   */\n      add\n        /* \"#utility.yul\":2464:2543   */\n      tag_71\n      jump\t// in\n    tag_116:\n        /* \"#utility.yul\":2455:2543   */\n      swap2\n      pop\n        /* \"#utility.yul\":2271:2549   */\n      pop\n        /* \"#utility.yul\":2209:2549   */\n      swap3\n      swap2\n      pop\n      pop\n      jump\t// out\n        /* \"#utility.yul\":2555:3064   */\n    tag_9:\n        /* \"#utility.yul\":2624:2630   */\n      0x00\n        /* \"#utility.yul\":2673:2675   */\n      0x20\n        /* \"#utility.yul\":2661:2670   */\n      dup3\n        /* \"#utility.yul\":2652:2659   */\n      dup5\n        /* \"#utility.yul\":2648:2671   */\n      sub\n        /* \"#utility.yul\":2644:2676   */\n      slt\n        /* \"#utility.yul\":2641:2760   */\n      iszero\n      tag_118\n      jumpi\n        /* \"#utility.yul\":2679:2758   */\n      tag_119\n      tag_61\n      jump\t// in\n    tag_119:\n        /* \"#utility.yul\":2641:2760   */\n    tag_118:\n        /* \"#utility.yul\":2827:2828   */\n      0x00\n        /* \"#utility.yul\":2816:2825   */\n      dup3\n        /* \"#utility.yul\":2812:2829   */\n      add\n        /* \"#utility.yul\":2799:2830   */\n      calldataload\n        /* \"#utility.yul\":2857:2875   */\n      0xffffffffffffffff\n        /* \"#utility.yul\":2849:2855   */\n      dup2\n        /* \"#utility.yul\":2846:2876   */\n      gt\n        /* \"#utility.yul\":2843:2960   */\n      iszero\n      tag_120\n      jumpi\n        /* \"#utility.yul\":2879:2958   */\n      tag_121\n      tag_62\n      jump\t// in\n    tag_121:\n        /* \"#utility.yul\":2843:2960   */\n    tag_120:\n        /* \"#utility.yul\":2984:3047   */\n      tag_122\n        /* \"#utility.yul\":3039:3046   */\n      dup5\n        /* \"#utility.yul\":3030:3036   */\n      dup3\n        /* \"#utility.yul\":3019:3028   */\n      dup6\n        /* \"#utility.yul\":3015:3037   */\n      add\n        /* \"#utility.yul\":2984:3047   */\n      tag_72\n      jump\t// in\n    tag_122:\n        /* \"#utility.yul\":2974:3047   */\n      swap2\n      pop\n        /* \"#utility.yul\":2770:3057   */\n      pop\n        /* \"#utility.yul\":2555:3064   */\n      swap3\n      swap2\n      pop\n      pop\n      jump\t// out\n        /* \"#utility.yul\":3070:3160   */\n    tag_73:\n        /* \"#utility.yul\":3104:3111   */\n      0x00\n        /* \"#utility.yul\":3147:3152   */\n      dup2\n        /* \"#utility.yul\":3140:3153   */\n      iszero\n        /* \"#utility.yul\":3133:3154   */\n      iszero\n        /* \"#utility.yul\":3122:3154   */\n      swap1\n      pop\n        /* \"#utility.yul\":3070:3160   */\n      swap2\n      swap1\n      pop\n      jump\t// out\n        /* \"#utility.yul\":3166:3275   */\n    tag_74:\n        /* \"#utility.yul\":3247:3268   */\n      tag_125\n        /* \"#utility.yul\":3262:3267   */\n      dup2\n        /* \"#utility.yul\":3247:3268   */\n      tag_73\n      jump\t// in\n    tag_125:\n        /* \"#utility.yul\":3242:3245   */\n      dup3\n        /* \"#utility.yul\":3235:3269   */\n      mstore\n        /* \"#utility.yul\":3166:3275   */\n      pop\n      pop\n      jump\t// out\n        /* \"#utility.yul\":3281:3491   */\n    tag_12:\n        /* \"#utility.yul\":3368:3372   */\n      0x00\n        /* \"#utility.yul\":3406:3408   */\n      0x20\n        /* \"#utility.yul\":3395:3404   */\n      dup3\n        /* \"#utility.yul\":3391:3409   */\n      add\n        /* \"#utility.yul\":3383:3409   */\n      swap1\n      pop\n        /* \"#utility.yul\":3419:3484   */\n      tag_127\n        /* \"#utility.yul\":3481:3482   */\n      0x00\n        /* \"#utility.yul\":3470:3479   */\n      dup4\n        /* \"#utility.yul\":3466:3483   */\n      add\n        /* \"#utility.yul\":3457:3463   */\n      dup5\n        /* \"#utility.yul\":3419:3484   */\n      tag_74\n      jump\t// in\n    tag_127:\n        /* \"#utility.yul\":3281:3491   */\n      swap3\n      swap2\n      pop\n      pop\n      jump\t// out\n        /* \"#utility.yul\":3497:3596   */\n    tag_75:\n        /* \"#utility.yul\":3549:3555   */\n      0x00\n        /* \"#utility.yul\":3583:3588   */\n      dup2\n        /* \"#utility.yul\":3577:3589   */\n      mload\n        /* \"#utility.yul\":3567:3589   */\n      swap1\n      pop\n        /* \"#utility.yul\":3497:3596   */\n      swap2\n      swap1\n      pop\n      jump\t// out\n        /* \"#utility.yul\":3602:3771   */\n    tag_76:\n        /* \"#utility.yul\":3686:3697   */\n      0x00\n        /* \"#utility.yul\":3720:3726   */\n      dup3\n        /* \"#utility.yul\":3715:3718   */\n      dup3\n        /* \"#utility.yul\":3708:3727   */\n      mstore\n        /* \"#utility.yul\":3760:3764   */\n      0x20\n        /* \"#utility.yul\":3755:3758   */\n      dup3\n        /* \"#utility.yul\":3751:3765   */\n      add\n        /* \"#utility.yul\":3736:3765   */\n      swap1\n      pop\n        /* \"#utility.yul\":3602:3771   */\n      swap3\n      swap2\n      pop\n      pop\n      jump\t// out\n        /* \"#utility.yul\":3777:3916   */\n    tag_77:\n        /* \"#utility.yul\":3866:3872   */\n      dup3\n        /* \"#utility.yul\":3861:3864   */\n      dup2\n        /* \"#utility.yul\":3856:3859   */\n      dup4\n        /* \"#utility.yul\":3850:3873   */\n      mcopy\n        /* \"#utility.yul\":3907:3908   */\n      0x00\n        /* \"#utility.yul\":3898:3904   */\n      dup4\n        /* \"#utility.yul\":3893:3896   */\n      dup4\n        /* \"#utility.yul\":3889:3905   */\n      add\n        /* \"#utility.yul\":3882:3909   */\n      mstore\n        /* \"#utility.yul\":3777:3916   */\n      pop\n      pop\n      pop\n      jump\t// out\n        /* \"#utility.yul\":3922:4299   */\n    tag_78:\n        /* \"#utility.yul\":4010:4013   */\n      0x00\n        /* \"#utility.yul\":4038:4077   */\n      tag_132\n        /* \"#utility.yul\":4071:4076   */\n      dup3\n        /* \"#utility.yul\":4038:4077   */\n      tag_75\n      jump\t// in\n    tag_132:\n        /* \"#utility.yul\":4093:4164   */\n      tag_133\n        /* \"#utility.yul\":4157:4163   */\n      dup2\n        /* \"#utility.yul\":4152:4155   */\n      dup6\n        /* \"#utility.yul\":4093:4164   */\n      tag_76\n      jump\t// in\n    tag_133:\n        /* \"#utility.yul\":4086:4164   */\n      swap4\n      pop\n        /* \"#utility.yul\":4173:4238   */\n      tag_134\n        /* \"#utility.yul\":4231:4237   */\n      dup2\n        /* \"#utility.yul\":4226:4229   */\n      dup6\n        /* \"#utility.yul\":4219:4223   */\n      0x20\n        /* \"#utility.yul\":4212:4217   */\n      dup7\n        /* \"#utility.yul\":4208:4224   */\n      add\n        /* \"#utility.yul\":4173:4238   */\n      tag_77\n      jump\t// in\n    tag_134:\n        /* \"#utility.yul\":4263:4292   */\n      tag_135\n        /* \"#utility.yul\":4285:4291   */\n      dup2\n        /* \"#utility.yul\":4263:4292   */\n      tag_65\n      jump\t// in\n    tag_135:\n        /* \"#utility.yul\":4258:4261   */\n      dup5\n        /* \"#utility.yul\":4254:4293   */\n      add\n        /* \"#utility.yul\":4247:4293   */\n      swap2\n      pop\n        /* \"#utility.yul\":4014:4299   */\n      pop\n        /* \"#utility.yul\":3922:4299   */\n      swap3\n      swap2\n      pop\n      pop\n      jump\t// out\n        /* \"#utility.yul\":4305:4618   */\n    tag_17:\n        /* \"#utility.yul\":4418:4422   */\n      0x00\n        /* \"#utility.yul\":4456:4458   */\n      0x20\n        /* \"#utility.yul\":4445:4454   */\n      dup3\n        /* \"#utility.yul\":4441:4459   */\n      add\n        /* \"#utility.yul\":4433:4459   */\n      swap1\n      pop\n        /* \"#utility.yul\":4505:4514   */\n      dup2\n        /* \"#utility.yul\":4499:4503   */\n      dup2\n        /* \"#utility.yul\":4495:4515   */\n      sub\n        /* \"#utility.yul\":4491:4492   */\n      0x00\n        /* \"#utility.yul\":4480:4489   */\n      dup4\n        /* \"#utility.yul\":4476:4493   */\n      add\n        /* \"#utility.yul\":4469:4516   */\n      mstore\n        /* \"#utility.yul\":4533:4611   */\n      tag_137\n        /* \"#utility.yul\":4606:4610   */\n      dup2\n        /* \"#utility.yul\":4597:4603   */\n      dup5\n        /* \"#utility.yul\":4533:4611   */\n      tag_78\n      jump\t// in\n    tag_137:\n        /* \"#utility.yul\":4525:4611   */\n      swap1\n      pop\n        /* \"#utility.yul\":4305:4618   */\n      swap3\n      swap2\n      pop\n      pop\n      jump\t// out\n        /* \"#utility.yul\":4624:4701   */\n    tag_79:\n        /* \"#utility.yul\":4661:4668   */\n      0x00\n        /* \"#utility.yul\":4690:4695   */\n      dup2\n        /* \"#utility.yul\":4679:4695   */\n      swap1\n      pop\n        /* \"#utility.yul\":4624:4701   */\n      swap2\n      swap1\n      pop\n      jump\t// out\n        /* \"#utility.yul\":4707:4829   */\n    tag_80:\n        /* \"#utility.yul\":4780:4804   */\n      tag_140\n        /* \"#utility.yul\":4798:4803   */\n      dup2\n        /* \"#utility.yul\":4780:4804   */\n      tag_79\n      jump\t// in\n    tag_140:\n        /* \"#utility.yul\":4773:4778   */\n      dup2\n        /* \"#utility.yul\":4770:4805   */\n      eq\n        /* \"#utility.yul\":4760:4823   */\n      tag_141\n      jumpi\n        /* \"#utility.yul\":4819:4820   */\n      0x00\n        /* \"#utility.yul\":4816:4817   */\n      dup1\n        /* \"#utility.yul\":4809:4821   */\n      revert\n        /* \"#utility.yul\":4760:4823   */\n    tag_141:\n        /* \"#utility.yul\":4707:4829   */\n      pop\n      jump\t// out\n        /* \"#utility.yul\":4835:4974   */\n    tag_81:\n        /* \"#utility.yul\":4881:4886   */\n      0x00\n        /* \"#utility.yul\":4919:4925   */\n      dup2\n        /* \"#utility.yul\":4906:4926   */\n      calldataload\n        /* \"#utility.yul\":4897:4926   */\n      swap1\n      pop\n        /* \"#utility.yul\":4935:4968   */\n      tag_143\n        /* \"#utility.yul\":4962:4967   */\n      dup2\n        /* \"#utility.yul\":4935:4968   */\n      tag_80\n      jump\t// in\n    tag_143:\n        /* \"#utility.yul\":4835:4974   */\n      swap3\n      swap2\n      pop\n      pop\n      jump\t// out\n        /* \"#utility.yul\":4980:5309   */\n    tag_24:\n        /* \"#utility.yul\":5039:5045   */\n      0x00\n        /* \"#utility.yul\":5088:5090   */\n      0x20\n        /* \"#utility.yul\":5076:5085   */\n      dup3\n        /* \"#utility.yul\":5067:5074   */\n      dup5\n        /* \"#utility.yul\":5063:5086   */\n      sub\n        /* \"#utility.yul\":5059:5091   */\n      slt\n        /* \"#utility.yul\":5056:5175   */\n      iszero\n      tag_145\n      jumpi\n        /* \"#utility.yul\":5094:5173   */\n      tag_146\n      tag_61\n      jump\t// in\n    tag_146:\n        /* \"#utility.yul\":5056:5175   */\n    tag_145:\n        /* \"#utility.yul\":5214:5215   */\n      0x00\n        /* \"#utility.yul\":5239:5292   */\n      tag_147\n        /* \"#utility.yul\":5284:5291   */\n      dup5\n        /* \"#utility.yul\":5275:5281   */\n      dup3\n        /* \"#utility.yul\":5264:5273   */\n      dup6\n        /* \"#utility.yul\":5260:5282   */\n      add\n        /* \"#utility.yul\":5239:5292   */\n      tag_81\n      jump\t// in\n    tag_147:\n        /* \"#utility.yul\":5229:5292   */\n      swap2\n      pop\n        /* \"#utility.yul\":5185:5302   */\n      pop\n        /* \"#utility.yul\":4980:5309   */\n      swap3\n      swap2\n      pop\n      pop\n      jump\t// out\n        /* \"#utility.yul\":5315:5463   */\n    tag_82:\n        /* \"#utility.yul\":5417:5428   */\n      0x00\n        /* \"#utility.yul\":5454:5457   */\n      dup2\n        /* \"#utility.yul\":5439:5457   */\n      swap1\n      pop\n        /* \"#utility.yul\":5315:5463   */\n      swap3\n      swap2\n      pop\n      pop\n      jump\t// out\n        /* \"#utility.yul\":5469:5859   */\n    tag_83:\n        /* \"#utility.yul\":5575:5578   */\n      0x00\n        /* \"#utility.yul\":5603:5642   */\n      tag_150\n        /* \"#utility.yul\":5636:5641   */\n      dup3\n        /* \"#utility.yul\":5603:5642   */\n      tag_75\n      jump\t// in\n    tag_150:\n        /* \"#utility.yul\":5658:5747   */\n      tag_151\n        /* \"#utility.yul\":5740:5746   */\n      dup2\n        /* \"#utility.yul\":5735:5738   */\n      dup6\n        /* \"#utility.yul\":5658:5747   */\n      tag_82\n      jump\t// in\n    tag_151:\n        /* \"#utility.yul\":5651:5747   */\n      swap4\n      pop\n        /* \"#utility.yul\":5756:5821   */\n      tag_152\n        /* \"#utility.yul\":5814:5820   */\n      dup2\n        /* \"#utility.yul\":5809:5812   */\n      dup6\n        /* \"#utility.yul\":5802:5806   */\n      0x20\n        /* \"#utility.yul\":5795:5800   */\n      dup7\n        /* \"#utility.yul\":5791:5807   */\n      add\n        /* \"#utility.yul\":5756:5821   */\n      tag_77\n      jump\t// in\n    tag_152:\n        /* \"#utility.yul\":5846:5852   */\n      dup1\n        /* \"#utility.yul\":5841:5844   */\n      dup5\n        /* \"#utility.yul\":5837:5853   */\n      add\n        /* \"#utility.yul\":5830:5853   */\n      swap2\n      pop\n        /* \"#utility.yul\":5579:5859   */\n      pop\n        /* \"#utility.yul\":5469:5859   */\n      swap3\n      swap2\n      pop\n      pop\n      jump\t// out\n        /* \"#utility.yul\":5865:6140   */\n    tag_32:\n        /* \"#utility.yul\":5997:6000   */\n      0x00\n        /* \"#utility.yul\":6019:6114   */\n      tag_154\n        /* \"#utility.yul\":6110:6113   */\n      dup3\n        /* \"#utility.yul\":6101:6107   */\n      dup5\n        /* \"#utility.yul\":6019:6114   */\n      tag_83\n      jump\t// in\n    tag_154:\n        /* \"#utility.yul\":6012:6114   */\n      swap2\n      pop\n        /* \"#utility.yul\":6131:6134   */\n      dup2\n        /* \"#utility.yul\":6124:6134   */\n      swap1\n      pop\n        /* \"#utility.yul\":5865:6140   */\n      swap3\n      swap2\n      pop\n      pop\n      jump\t// out\n        /* \"#utility.yul\":6146:6326   */\n    tag_35:\n        /* \"#utility.yul\":6194:6271   */\n      0x4e487b7100000000000000000000000000000000000000000000000000000000\n        /* \"#utility.yul\":6191:6192   */\n      0x00\n        /* \"#utility.yul\":6184:6272   */\n      mstore\n        /* \"#utility.yul\":6291:6295   */\n      0x32\n        /* \"#utility.yul\":6288:6289   */\n      0x04\n        /* \"#utility.yul\":6281:6296   */\n      mstore\n        /* \"#utility.yul\":6315:6319   */\n      0x24\n        /* \"#utility.yul\":6312:6313   */\n      0x00\n        /* \"#utility.yul\":6305:6320   */\n      revert\n        /* \"#utility.yul\":6332:6512   */\n    tag_84:\n        /* \"#utility.yul\":6380:6457   */\n      0x4e487b7100000000000000000000000000000000000000000000000000000000\n        /* \"#utility.yul\":6377:6378   */\n      0x00\n        /* \"#utility.yul\":6370:6458   */\n      mstore\n        /* \"#utility.yul\":6477:6481   */\n      0x22\n        /* \"#utility.yul\":6474:6475   */\n      0x04\n        /* \"#utility.yul\":6467:6482   */\n      mstore\n        /* \"#utility.yul\":6501:6505   */\n      0x24\n        /* \"#utility.yul\":6498:6499   */\n      0x00\n        /* \"#utility.yul\":6491:6506   */\n      revert\n        /* \"#utility.yul\":6518:6838   */\n    tag_41:\n        /* \"#utility.yul\":6562:6568   */\n      0x00\n        /* \"#utility.yul\":6599:6600   */\n      0x02\n        /* \"#utility.yul\":6593:6597   */\n      dup3\n        /* \"#utility.yul\":6589:6601   */\n      div\n        /* \"#utility.yul\":6579:6601   */\n      swap1\n      pop\n        /* \"#utility.yul\":6646:6647   */\n      0x01\n        /* \"#utility.yul\":6640:6644   */\n      dup3\n        /* \"#utility.yul\":6636:6648   */\n      and\n        /* \"#utility.yul\":6667:6685   */\n      dup1\n        /* \"#utility.yul\":6657:6738   */\n      tag_158\n      jumpi\n        /* \"#utility.yul\":6723:6727   */\n      0x7f\n        /* \"#utility.yul\":6715:6721   */\n      dup3\n        /* \"#utility.yul\":6711:6728   */\n      and\n        /* \"#utility.yul\":6701:6728   */\n      swap2\n      pop\n        /* \"#utility.yul\":6657:6738   */\n    tag_158:\n        /* \"#utility.yul\":6785:6787   */\n      0x20\n        /* \"#utility.yul\":6777:6783   */\n      dup3\n        /* \"#utility.yul\":6774:6788   */\n      lt\n        /* \"#utility.yul\":6754:6772   */\n      dup2\n        /* \"#utility.yul\":6751:6789   */\n      sub\n        /* \"#utility.yul\":6748:6832   */\n      tag_159\n      jumpi\n        /* \"#utility.yul\":6804:6822   */\n      tag_160\n      tag_84\n      jump\t// in\n    tag_160:\n        /* \"#utility.yul\":6748:6832   */\n    tag_159:\n        /* \"#utility.yul\":6569:6838   */\n      pop\n        /* \"#utility.yul\":6518:6838   */\n      swap2\n      swap1\n      pop\n      jump\t// out\n        /* \"#utility.yul\":6844:6985   */\n    tag_85:\n        /* \"#utility.yul\":6893:6897   */\n      0x00\n        /* \"#utility.yul\":6916:6919   */\n      dup2\n        /* \"#utility.yul\":6908:6919   */\n      swap1\n      pop\n        /* \"#utility.yul\":6939:6942   */\n      dup2\n        /* \"#utility.yul\":6936:6937   */\n      0x00\n        /* \"#utility.yul\":6929:6943   */\n      mstore\n        /* \"#utility.yul\":6973:6977   */\n      0x20\n        /* \"#utility.yul\":6970:6971   */\n      0x00\n        /* \"#utility.yul\":6960:6978   */\n      keccak256\n        /* \"#utility.yul\":6952:6978   */\n      swap1\n      pop\n        /* \"#utility.yul\":6844:6985   */\n      swap2\n      swap1\n      pop\n      jump\t// out\n        /* \"#utility.yul\":7015:7889   */\n    tag_86:\n        /* \"#utility.yul\":7118:7121   */\n      0x00\n        /* \"#utility.yul\":7155:7160   */\n      dup2\n        /* \"#utility.yul\":7149:7161   */\n      sload\n        /* \"#utility.yul\":7184:7220   */\n      tag_163\n        /* \"#utility.yul\":7210:7219   */\n      dup2\n        /* \"#utility.yul\":7184:7220   */\n      tag_41\n      jump\t// in\n    tag_163:\n        /* \"#utility.yul\":7236:7325   */\n      tag_164\n        /* \"#utility.yul\":7318:7324   */\n      dup2\n        /* \"#utility.yul\":7313:7316   */\n      dup7\n        /* \"#utility.yul\":7236:7325   */\n      tag_82\n      jump\t// in\n    tag_164:\n        /* \"#utility.yul\":7229:7325   */\n      swap5\n      pop\n        /* \"#utility.yul\":7356:7357   */\n      0x01\n        /* \"#utility.yul\":7345:7354   */\n      dup3\n        /* \"#utility.yul\":7341:7358   */\n      and\n        /* \"#utility.yul\":7372:7373   */\n      0x00\n        /* \"#utility.yul\":7367:7533   */\n      dup2\n      eq\n      tag_166\n      jumpi\n        /* \"#utility.yul\":7547:7548   */\n      0x01\n        /* \"#utility.yul\":7542:7883   */\n      dup2\n      eq\n      tag_167\n      jumpi\n        /* \"#utility.yul\":7334:7883   */\n      jump(tag_165)\n        /* \"#utility.yul\":7367:7533   */\n    tag_166:\n        /* \"#utility.yul\":7451:7455   */\n      0xff\n        /* \"#utility.yul\":7447:7456   */\n      not\n        /* \"#utility.yul\":7436:7445   */\n      dup4\n        /* \"#utility.yul\":7432:7457   */\n      and\n        /* \"#utility.yul\":7427:7430   */\n      dup7\n        /* \"#utility.yul\":7420:7458   */\n      mstore\n        /* \"#utility.yul\":7513:7519   */\n      dup2\n        /* \"#utility.yul\":7506:7520   */\n      iszero\n        /* \"#utility.yul\":7499:7521   */\n      iszero\n        /* \"#utility.yul\":7491:7497   */\n      dup3\n        /* \"#utility.yul\":7487:7522   */\n      mul\n        /* \"#utility.yul\":7482:7485   */\n      dup7\n        /* \"#utility.yul\":7478:7523   */\n      add\n        /* \"#utility.yul\":7471:7523   */\n      swap4\n      pop\n        /* \"#utility.yul\":7367:7533   */\n      jump(tag_165)\n        /* \"#utility.yul\":7542:7883   */\n    tag_167:\n        /* \"#utility.yul\":7609:7647   */\n      tag_168\n        /* \"#utility.yul\":7641:7646   */\n      dup6\n        /* \"#utility.yul\":7609:7647   */\n      tag_85\n      jump\t// in\n    tag_168:\n        /* \"#utility.yul\":7669:7670   */\n      0x00\n        /* \"#utility.yul\":7683:7837   */\n    tag_169:\n        /* \"#utility.yul\":7697:7703   */\n      dup4\n        /* \"#utility.yul\":7694:7695   */\n      dup2\n        /* \"#utility.yul\":7691:7704   */\n      lt\n        /* \"#utility.yul\":7683:7837   */\n      iszero\n      tag_171\n      jumpi\n        /* \"#utility.yul\":7771:7778   */\n      dup2\n        /* \"#utility.yul\":7765:7779   */\n      sload\n        /* \"#utility.yul\":7761:7762   */\n      dup2\n        /* \"#utility.yul\":7756:7759   */\n      dup10\n        /* \"#utility.yul\":7752:7763   */\n      add\n        /* \"#utility.yul\":7745:7780   */\n      mstore\n        /* \"#utility.yul\":7821:7822   */\n      0x01\n        /* \"#utility.yul\":7812:7819   */\n      dup3\n        /* \"#utility.yul\":7808:7823   */\n      add\n        /* \"#utility.yul\":7797:7823   */\n      swap2\n      pop\n        /* \"#utility.yul\":7719:7723   */\n      0x20\n        /* \"#utility.yul\":7716:7717   */\n      dup2\n        /* \"#utility.yul\":7712:7724   */\n      add\n        /* \"#utility.yul\":7707:7724   */\n      swap1\n      pop\n        /* \"#utility.yul\":7683:7837   */\n      jump(tag_169)\n    tag_171:\n        /* \"#utility.yul\":7866:7872   */\n      dup4\n        /* \"#utility.yul\":7861:7864   */\n      dup9\n        /* \"#utility.yul\":7857:7873   */\n      add\n        /* \"#utility.yul\":7850:7873   */\n      swap6\n      pop\n        /* \"#utility.yul\":7549:7883   */\n      pop\n      pop\n        /* \"#utility.yul\":7334:7883   */\n    tag_165:\n      pop\n        /* \"#utility.yul\":7122:7889   */\n      pop\n      pop\n        /* \"#utility.yul\":7015:7889   */\n      swap3\n      swap2\n      pop\n      pop\n      jump\t// out\n        /* \"#utility.yul\":7895:8164   */\n    tag_38:\n        /* \"#utility.yul\":8024:8027   */\n      0x00\n        /* \"#utility.yul\":8046:8138   */\n      tag_173\n        /* \"#utility.yul\":8134:8137   */\n      dup3\n        /* \"#utility.yul\":8125:8131   */\n      dup5\n        /* \"#utility.yul\":8046:8138   */\n      tag_86\n      jump\t// in\n    tag_173:\n        /* \"#utility.yul\":8039:8138   */\n      swap2\n      pop\n        /* \"#utility.yul\":8155:8158   */\n      dup2\n        /* \"#utility.yul\":8148:8158   */\n      swap1\n      pop\n        /* \"#utility.yul\":7895:8164   */\n      swap3\n      swap2\n      pop\n      pop\n      jump\t// out\n\n    auxdata: 0xa2646970667358221220f7d3e9587ab17ff0cda8e7579863511f390df6abf2d1d45b4d68a798517c20e464736f6c634300081a0033\n}\n",
				"bytecode": {
					"linkReferences": {},
					"object": "608060405234801561000f575f80fd5b505f60405180611840016040528060405180604001604052806040518060400160405280600b81526020017f41666768616e697374616e00000000000000000000000000000000000000000081525081526020016040518060400160405280600281526020017f4146000000000000000000000000000000000000000000000000000000000000815250815250815260200160405180604001604052806040518060400160405280600781526020017f416c62616e69610000000000000000000000000000000000000000000000000081525081526020016040518060400160405280600281526020017f414c000000000000000000000000000000000000000000000000000000000000815250815250815260200160405180604001604052806040518060400160405280600781526020017f416c67657269610000000000000000000000000000000000000000000000000081525081526020016040518060400160405280600281526020017f445a000000000000000000000000000000000000000000000000000000000000815250815250815260200160405180604001604052806040518060400160405280600781526020017f416e646f7272610000000000000000000000000000000000000000000000000081525081526020016040518060400160405280600281526020017f4144000000000000000000000000000000000000000000000000000000000000815250815250815260200160405180604001604052806040518060400160405280600681526020017f416e676f6c61000000000000000000000000000000000000000000000000000081525081526020016040518060400160405280600281526020017f414f000000000000000000000000000000000000000000000000000000000000815250815250815260200160405180604001604052806040518060400160405280601381526020017f416e746967756120616e6420426172627564610000000000000000000000000081525081526020016040518060400160405280600281526020017f4147000000000000000000000000000000000000000000000000000000000000815250815250815260200160405180604001604052806040518060400160405280600981526020017f417267656e74696e61000000000000000000000000000000000000000000000081525081526020016040518060400160405280600281526020017f4152000000000000000000000000000000000000000000000000000000000000815250815250815260200160405180604001604052806040518060400160405280600781526020017f41726d656e69610000000000000000000000000000000000000000000000000081525081526020016040518060400160405280600281526020017f414d000000000000000000000000000000000000000000000000000000000000815250815250815260200160405180604001604052806040518060400160405280600981526020017f4175737472616c6961000000000000000000000000000000000000000000000081525081526020016040518060400160405280600281526020017f4155000000000000000000000000000000000000000000000000000000000000815250815250815260200160405180604001604052806040518060400160405280600781526020017f417573747269610000000000000000000000000000000000000000000000000081525081526020016040518060400160405280600281526020017f4154000000000000000000000000000000000000000000000000000000000000815250815250815260200160405180604001604052806040518060400160405280600a81526020017f417a65726261696a616e0000000000000000000000000000000000000000000081525081526020016040518060400160405280600281526020017f415a000000000000000000000000000000000000000000000000000000000000815250815250815260200160405180604001604052806040518060400160405280600781526020017f426168616d61730000000000000000000000000000000000000000000000000081525081526020016040518060400160405280600281526020017f4253000000000000000000000000000000000000000000000000000000000000815250815250815260200160405180604001604052806040518060400160405280600781526020017f4261687261696e0000000000000000000000000000000000000000000000000081525081526020016040518060400160405280600281526020017f4248000000000000000000000000000000000000000000000000000000000000815250815250815260200160405180604001604052806040518060400160405280600a81526020017f42616e676c61646573680000000000000000000000000000000000000000000081525081526020016040518060400160405280600281526020017f4244000000000000000000000000000000000000000000000000000000000000815250815250815260200160405180604001604052806040518060400160405280600881526020017f4261726261646f7300000000000000000000000000000000000000000000000081525081526020016040518060400160405280600281526020017f4242000000000000000000000000000000000000000000000000000000000000815250815250815260200160405180604001604052806040518060400160405280600781526020017f42656c617275730000000000000000000000000000000000000000000000000081525081526020016040518060400160405280600281526020017f4259000000000000000000000000000000000000000000000000000000000000815250815250815260200160405180604001604052806040518060400160405280600781526020017f42656c6769756d0000000000000000000000000000000000000000000000000081525081526020016040518060400160405280600281526020017f4245000000000000000000000000000000000000000000000000000000000000815250815250815260200160405180604001604052806040518060400160405280600681526020017f42656c697a65000000000000000000000000000000000000000000000000000081525081526020016040518060400160405280600281526020017f425a000000000000000000000000000000000000000000000000000000000000815250815250815260200160405180604001604052806040518060400160405280600581526020017f42656e696e00000000000000000000000000000000000000000000000000000081525081526020016040518060400160405280600281526020017f424a000000000000000000000000000000000000000000000000000000000000815250815250815260200160405180604001604052806040518060400160405280600681526020017f42687574616e000000000000000000000000000000000000000000000000000081525081526020016040518060400160405280600281526020017f4254000000000000000000000000000000000000000000000000000000000000815250815250815260200160405180604001604052806040518060400160405280600781526020017f426f6c697669610000000000000000000000000000000000000000000000000081525081526020016040518060400160405280600281526020017f424f000000000000000000000000000000000000000000000000000000000000815250815250815260200160405180604001604052806040518060400160405280601681526020017f426f736e696120616e64204865727a65676f76696e610000000000000000000081525081526020016040518060400160405280600281526020017f4241000000000000000000000000000000000000000000000000000000000000815250815250815260200160405180604001604052806040518060400160405280600881526020017f426f747377616e6100000000000000000000000000000000000000000000000081525081526020016040518060400160405280600281526020017f4257000000000000000000000000000000000000000000000000000000000000815250815250815260200160405180604001604052806040518060400160405280600681526020017f4272617a696c000000000000000000000000000000000000000000000000000081525081526020016040518060400160405280600281526020017f4252000000000000000000000000000000000000000000000000000000000000815250815250815260200160405180604001604052806040518060400160405280600681526020017f4272756e6569000000000000000000000000000000000000000000000000000081525081526020016040518060400160405280600281526020017f424e000000000000000000000000000000000000000000000000000000000000815250815250815260200160405180604001604052806040518060400160405280600881526020017f42756c676172696100000000000000000000000000000000000000000000000081525081526020016040518060400160405280600281526020017f4247000000000000000000000000000000000000000000000000000000000000815250815250815260200160405180604001604052806040518060400160405280600c81526020017f4275726b696e61204661736f000000000000000000000000000000000000000081525081526020016040518060400160405280600281526020017f4246000000000000000000000000000000000000000000000000000000000000815250815250815260200160405180604001604052806040518060400160405280600781526020017f427572756e64690000000000000000000000000000000000000000000000000081525081526020016040518060400160405280600281526020017f4249000000000000000000000000000000000000000000000000000000000000815250815250815260200160405180604001604052806040518060400160405280600a81526020017f4361626f2056657264650000000000000000000000000000000000000000000081525081526020016040518060400160405280600281526020017f4356000000000000000000000000000000000000000000000000000000000000815250815250815260200160405180604001604052806040518060400160405280600881526020017f43616d626f64696100000000000000000000000000000000000000000000000081525081526020016040518060400160405280600281526020017f4b48000000000000000000000000000000000000000000000000000000000000815250815250815260200160405180604001604052806040518060400160405280600881526020017f43616d65726f6f6e00000000000000000000000000000000000000000000000081525081526020016040518060400160405280600281526020017f434d000000000000000000000000000000000000000000000000000000000000815250815250815260200160405180604001604052806040518060400160405280600681526020017f43616e616461000000000000000000000000000000000000000000000000000081525081526020016040518060400160405280600281526020017f4341000000000000000000000000000000000000000000000000000000000000815250815250815260200160405180604001604052806040518060400160405280601881526020017f43656e7472616c204166726963616e2052657075626c6963000000000000000081525081526020016040518060400160405280600281526020017f4346000000000000000000000000000000000000000000000000000000000000815250815250815260200160405180604001604052806040518060400160405280600481526020017f436861640000000000000000000000000000000000000000000000000000000081525081526020016040518060400160405280600281526020017f5444000000000000000000000000000000000000000000000000000000000000815250815250815260200160405180604001604052806040518060400160405280600581526020017f4368696c6500000000000000000000000000000000000000000000000000000081525081526020016040518060400160405280600281526020017f434c000000000000000000000000000000000000000000000000000000000000815250815250815260200160405180604001604052806040518060400160405280600581526020017f4368696e6100000000000000000000000000000000000000000000000000000081525081526020016040518060400160405280600281526020017f434e000000000000000000000000000000000000000000000000000000000000815250815250815260200160405180604001604052806040518060400160405280600881526020017f436f6c6f6d62696100000000000000000000000000000000000000000000000081525081526020016040518060400160405280600281526020017f434f000000000000000000000000000000000000000000000000000000000000815250815250815260200160405180604001604052806040518060400160405280600781526020017f436f6d6f726f730000000000000000000000000000000000000000000000000081525081526020016040518060400160405280600281526020017f4b4d000000000000000000000000000000000000000000000000000000000000815250815250815260200160405180604001604052806040518060400160405280601981526020017f436f6e676f2028436f6e676f2d4272617a7a6176696c6c65290000000000000081525081526020016040518060400160405280600281526020017f4347000000000000000000000000000000000000000000000000000000000000815250815250815260200160405180604001604052806040518060400160405280600b81526020017f436f6e676f20284452432900000000000000000000000000000000000000000081525081526020016040518060400160405280600281526020017f4344000000000000000000000000000000000000000000000000000000000000815250815250815260200160405180604001604052806040518060400160405280600a81526020017f436f73746120526963610000000000000000000000000000000000000000000081525081526020016040518060400160405280600281526020017f4352000000000000000000000000000000000000000000000000000000000000815250815250815260200160405180604001604052806040518060400160405280600781526020017f43726f617469610000000000000000000000000000000000000000000000000081525081526020016040518060400160405280600281526020017f4852000000000000000000000000000000000000000000000000000000000000815250815250815260200160405180604001604052806040518060400160405280600481526020017f437562610000000000000000000000000000000000000000000000000000000081525081526020016040518060400160405280600281526020017f4355000000000000000000000000000000000000000000000000000000000000815250815250815260200160405180604001604052806040518060400160405280600681526020017f437970727573000000000000000000000000000000000000000000000000000081525081526020016040518060400160405280600281526020017f4359000000000000000000000000000000000000000000000000000000000000815250815250815260200160405180604001604052806040518060400160405280600781526020017f437a65636869610000000000000000000000000000000000000000000000000081525081526020016040518060400160405280600281526020017f435a000000000000000000000000000000000000000000000000000000000000815250815250815260200160405180604001604052806040518060400160405280600781526020017f44656e6d61726b0000000000000000000000000000000000000000000000000081525081526020016040518060400160405280600281526020017f444b000000000000000000000000000000000000000000000000000000000000815250815250815260200160405180604001604052806040518060400160405280600881526020017f446a69626f75746900000000000000000000000000000000000000000000000081525081526020016040518060400160405280600281526020017f444a000000000000000000000000000000000000000000000000000000000000815250815250815260200160405180604001604052806040518060400160405280600881526020017f446f6d696e69636100000000000000000000000000000000000000000000000081525081526020016040518060400160405280600281526020017f444d000000000000000000000000000000000000000000000000000000000000815250815250815260200160405180604001604052806040518060400160405280601281526020017f446f6d696e6963616e2052657075626c6963000000000000000000000000000081525081526020016040518060400160405280600281526020017f444f000000000000000000000000000000000000000000000000000000000000815250815250815260200160405180604001604052806040518060400160405280600781526020017f45637561646f720000000000000000000000000000000000000000000000000081525081526020016040518060400160405280600281526020017f4543000000000000000000000000000000000000000000000000000000000000815250815250815260200160405180604001604052806040518060400160405280600581526020017f456779707400000000000000000000000000000000000000000000000000000081525081526020016040518060400160405280600281526020017f4547000000000000000000000000000000000000000000000000000000000000815250815250815260200160405180604001604052806040518060400160405280600b81526020017f456c2053616c7661646f7200000000000000000000000000000000000000000081525081526020016040518060400160405280600281526020017f5356000000000000000000000000000000000000000000000000000000000000815250815250815260200160405180604001604052806040518060400160405280601181526020017f45717561746f7269616c204775696e656100000000000000000000000000000081525081526020016040518060400160405280600281526020017f4751000000000000000000000000000000000000000000000000000000000000815250815250815260200160405180604001604052806040518060400160405280600781526020017f457269747265610000000000000000000000000000000000000000000000000081525081526020016040518060400160405280600281526020017f4552000000000000000000000000000000000000000000000000000000000000815250815250815260200160405180604001604052806040518060400160405280600781526020017f4573746f6e69610000000000000000000000000000000000000000000000000081525081526020016040518060400160405280600281526020017f4545000000000000000000000000000000000000000000000000000000000000815250815250815260200160405180604001604052806040518060400160405280600881526020017f4573776174696e6900000000000000000000000000000000000000000000000081525081526020016040518060400160405280600281526020017f535a000000000000000000000000000000000000000000000000000000000000815250815250815260200160405180604001604052806040518060400160405280600881526020017f457468696f70696100000000000000000000000000000000000000000000000081525081526020016040518060400160405280600281526020017f4554000000000000000000000000000000000000000000000000000000000000815250815250815260200160405180604001604052806040518060400160405280600481526020017f46696a690000000000000000000000000000000000000000000000000000000081525081526020016040518060400160405280600281526020017f464a000000000000000000000000000000000000000000000000000000000000815250815250815260200160405180604001604052806040518060400160405280600781526020017f46696e6c616e640000000000000000000000000000000000000000000000000081525081526020016040518060400160405280600281526020017f4649000000000000000000000000000000000000000000000000000000000000815250815250815260200160405180604001604052806040518060400160405280600681526020017f4672616e6365000000000000000000000000000000000000000000000000000081525081526020016040518060400160405280600281526020017f4652000000000000000000000000000000000000000000000000000000000000815250815250815260200160405180604001604052806040518060400160405280600581526020017f4761626f6e00000000000000000000000000000000000000000000000000000081525081526020016040518060400160405280600281526020017f4741000000000000000000000000000000000000000000000000000000000000815250815250815260200160405180604001604052806040518060400160405280600681526020017f47616d626961000000000000000000000000000000000000000000000000000081525081526020016040518060400160405280600281526020017f474d000000000000000000000000000000000000000000000000000000000000815250815250815260200160405180604001604052806040518060400160405280600781526020017f47656f726769610000000000000000000000000000000000000000000000000081525081526020016040518060400160405280600281526020017f4745000000000000000000000000000000000000000000000000000000000000815250815250815260200160405180604001604052806040518060400160405280600781526020017f4765726d616e790000000000000000000000000000000000000000000000000081525081526020016040518060400160405280600281526020017f4445000000000000000000000000000000000000000000000000000000000000815250815250815260200160405180604001604052806040518060400160405280600581526020017f4768616e6100000000000000000000000000000000000000000000000000000081525081526020016040518060400160405280600281526020017f4748000000000000000000000000000000000000000000000000000000000000815250815250815260200160405180604001604052806040518060400160405280600681526020017f477265656365000000000000000000000000000000000000000000000000000081525081526020016040518060400160405280600281526020017f4752000000000000000000000000000000000000000000000000000000000000815250815250815260200160405180604001604052806040518060400160405280600781526020017f4772656e6164610000000000000000000000000000000000000000000000000081525081526020016040518060400160405280600281526020017f4744000000000000000000000000000000000000000000000000000000000000815250815250815260200160405180604001604052806040518060400160405280600981526020017f47756174656d616c61000000000000000000000000000000000000000000000081525081526020016040518060400160405280600281526020017f4754000000000000000000000000000000000000000000000000000000000000815250815250815260200160405180604001604052806040518060400160405280600681526020017f4775696e6561000000000000000000000000000000000000000000000000000081525081526020016040518060400160405280600281526020017f474e000000000000000000000000000000000000000000000000000000000000815250815250815260200160405180604001604052806040518060400160405280600d81526020017f4775696e65612d4269737361750000000000000000000000000000000000000081525081526020016040518060400160405280600281526020017f4757000000000000000000000000000000000000000000000000000000000000815250815250815260200160405180604001604052806040518060400160405280600681526020017f477579616e61000000000000000000000000000000000000000000000000000081525081526020016040518060400160405280600281526020017f4759000000000000000000000000000000000000000000000000000000000000815250815250815260200160405180604001604052806040518060400160405280600581526020017f486169746900000000000000000000000000000000000000000000000000000081525081526020016040518060400160405280600281526020017f4854000000000000000000000000000000000000000000000000000000000000815250815250815260200160405180604001604052806040518060400160405280600881526020017f486f6e647572617300000000000000000000000000000000000000000000000081525081526020016040518060400160405280600281526020017f484e000000000000000000000000000000000000000000000000000000000000815250815250815260200160405180604001604052806040518060400160405280600781526020017f48756e676172790000000000000000000000000000000000000000000000000081525081526020016040518060400160405280600281526020017f4855000000000000000000000000000000000000000000000000000000000000815250815250815260200160405180604001604052806040518060400160405280600781526020017f4963656c616e640000000000000000000000000000000000000000000000000081525081526020016040518060400160405280600281526020017f4953000000000000000000000000000000000000000000000000000000000000815250815250815260200160405180604001604052806040518060400160405280600581526020017f496e64696100000000000000000000000000000000000000000000000000000081525081526020016040518060400160405280600281526020017f494e000000000000000000000000000000000000000000000000000000000000815250815250815260200160405180604001604052806040518060400160405280600981526020017f496e646f6e65736961000000000000000000000000000000000000000000000081525081526020016040518060400160405280600281526020017f4944000000000000000000000000000000000000000000000000000000000000815250815250815260200160405180604001604052806040518060400160405280600481526020017f4972616e0000000000000000000000000000000000000000000000000000000081525081526020016040518060400160405280600281526020017f4952000000000000000000000000000000000000000000000000000000000000815250815250815260200160405180604001604052806040518060400160405280600481526020017f497261710000000000000000000000000000000000000000000000000000000081525081526020016040518060400160405280600281526020017f4951000000000000000000000000000000000000000000000000000000000000815250815250815260200160405180604001604052806040518060400160405280600781526020017f4972656c616e640000000000000000000000000000000000000000000000000081525081526020016040518060400160405280600281526020017f4945000000000000000000000000000000000000000000000000000000000000815250815250815260200160405180604001604052806040518060400160405280600681526020017f49737261656c000000000000000000000000000000000000000000000000000081525081526020016040518060400160405280600281526020017f494c000000000000000000000000000000000000000000000000000000000000815250815250815260200160405180604001604052806040518060400160405280600581526020017f4974616c7900000000000000000000000000000000000000000000000000000081525081526020016040518060400160405280600281526020017f4954000000000000000000000000000000000000000000000000000000000000815250815250815260200160405180604001604052806040518060400160405280600781526020017f4a616d616963610000000000000000000000000000000000000000000000000081525081526020016040518060400160405280600281526020017f4a4d000000000000000000000000000000000000000000000000000000000000815250815250815260200160405180604001604052806040518060400160405280600581526020017f4a6170616e00000000000000000000000000000000000000000000000000000081525081526020016040518060400160405280600281526020017f4a50000000000000000000000000000000000000000000000000000000000000815250815250815260200160405180604001604052806040518060400160405280600681526020017f4a6f7264616e000000000000000000000000000000000000000000000000000081525081526020016040518060400160405280600281526020017f4a4f000000000000000000000000000000000000000000000000000000000000815250815250815260200160405180604001604052806040518060400160405280600a81526020017f4b617a616b687374616e0000000000000000000000000000000000000000000081525081526020016040518060400160405280600281526020017f4b5a000000000000000000000000000000000000000000000000000000000000815250815250815260200160405180604001604052806040518060400160405280600581526020017f4b656e796100000000000000000000000000000000000000000000000000000081525081526020016040518060400160405280600281526020017f4b45000000000000000000000000000000000000000000000000000000000000815250815250815260200160405180604001604052806040518060400160405280600881526020017f4b6972696261746900000000000000000000000000000000000000000000000081525081526020016040518060400160405280600281526020017f4b49000000000000000000000000000000000000000000000000000000000000815250815250815260200160405180604001604052806040518060400160405280600681526020017f4b7577616974000000000000000000000000000000000000000000000000000081525081526020016040518060400160405280600281526020017f4b57000000000000000000000000000000000000000000000000000000000000815250815250815260200160405180604001604052806040518060400160405280600a81526020017f4b797267797a7374616e0000000000000000000000000000000000000000000081525081526020016040518060400160405280600281526020017f4b47000000000000000000000000000000000000000000000000000000000000815250815250815260200160405180604001604052806040518060400160405280600481526020017f4c616f730000000000000000000000000000000000000000000000000000000081525081526020016040518060400160405280600281526020017f4c41000000000000000000000000000000000000000000000000000000000000815250815250815260200160405180604001604052806040518060400160405280600681526020017f4c6174766961000000000000000000000000000000000000000000000000000081525081526020016040518060400160405280600281526020017f4c56000000000000000000000000000000000000000000000000000000000000815250815250815260200160405180604001604052806040518060400160405280600781526020017f4c6562616e6f6e0000000000000000000000000000000000000000000000000081525081526020016040518060400160405280600281526020017f4c42000000000000000000000000000000000000000000000000000000000000815250815250815260200160405180604001604052806040518060400160405280600781526020017f4c65736f74686f0000000000000000000000000000000000000000000000000081525081526020016040518060400160405280600281526020017f4c53000000000000000000000000000000000000000000000000000000000000815250815250815260200160405180604001604052806040518060400160405280600781526020017f4c6962657269610000000000000000000000000000000000000000000000000081525081526020016040518060400160405280600281526020017f4c52000000000000000000000000000000000000000000000000000000000000815250815250815260200160405180604001604052806040518060400160405280600581526020017f4c6962796100000000000000000000000000000000000000000000000000000081525081526020016040518060400160405280600281526020017f4c59000000000000000000000000000000000000000000000000000000000000815250815250815260200160405180604001604052806040518060400160405280600d81526020017f4c6965636874656e737465696e0000000000000000000000000000000000000081525081526020016040518060400160405280600281526020017f4c49000000000000000000000000000000000000000000000000000000000000815250815250815260200160405180604001604052806040518060400160405280600981526020017f4c69746875616e6961000000000000000000000000000000000000000000000081525081526020016040518060400160405280600281526020017f4c54000000000000000000000000000000000000000000000000000000000000815250815250815260200160405180604001604052806040518060400160405280600a81526020017f4c7578656d626f7572670000000000000000000000000000000000000000000081525081526020016040518060400160405280600281526020017f4c55000000000000000000000000000000000000000000000000000000000000815250815250815260200160405180604001604052806040518060400160405280600a81526020017f4d6164616761736361720000000000000000000000000000000000000000000081525081526020016040518060400160405280600281526020017f4d47000000000000000000000000000000000000000000000000000000000000815250815250815260200160405180604001604052806040518060400160405280600681526020017f4d616c617769000000000000000000000000000000000000000000000000000081525081526020016040518060400160405280600281526020017f4d57000000000000000000000000000000000000000000000000000000000000815250815250815260200160405180604001604052806040518060400160405280600881526020017f4d616c617973696100000000000000000000000000000000000000000000000081525081526020016040518060400160405280600281526020017f4d59000000000000000000000000000000000000000000000000000000000000815250815250815260200160405180604001604052806040518060400160405280600881526020017f4d616c646976657300000000000000000000000000000000000000000000000081525081526020016040518060400160405280600281526020017f4d56000000000000000000000000000000000000000000000000000000000000815250815250815260200160405180604001604052806040518060400160405280600481526020017f4d616c690000000000000000000000000000000000000000000000000000000081525081526020016040518060400160405280600281526020017f4d4c000000000000000000000000000000000000000000000000000000000000815250815250815260200160405180604001604052806040518060400160405280600581526020017f4d616c746100000000000000000000000000000000000000000000000000000081525081526020016040518060400160405280600281526020017f4d54000000000000000000000000000000000000000000000000000000000000815250815250815260200160405180604001604052806040518060400160405280601081526020017f4d61727368616c6c2049736c616e64730000000000000000000000000000000081525081526020016040518060400160405280600281526020017f4d48000000000000000000000000000000000000000000000000000000000000815250815250815260200160405180604001604052806040518060400160405280600a81526020017f4d6175726974616e69610000000000000000000000000000000000000000000081525081526020016040518060400160405280600281526020017f4d52000000000000000000000000000000000000000000000000000000000000815250815250815260200160405180604001604052806040518060400160405280600981526020017f4d6175726974697573000000000000000000000000000000000000000000000081525081526020016040518060400160405280600281526020017f4d55000000000000000000000000000000000000000000000000000000000000815250815250815260200160405180604001604052806040518060400160405280600681526020017f4d657869636f000000000000000000000000000000000000000000000000000081525081526020016040518060400160405280600281526020017f4d58000000000000000000000000000000000000000000000000000000000000815250815250815260200160405180604001604052806040518060400160405280600a81526020017f4d6963726f6e657369610000000000000000000000000000000000000000000081525081526020016040518060400160405280600281526020017f464d000000000000000000000000000000000000000000000000000000000000815250815250815260200160405180604001604052806040518060400160405280600781526020017f4d6f6c646f76610000000000000000000000000000000000000000000000000081525081526020016040518060400160405280600281526020017f4d44000000000000000000000000000000000000000000000000000000000000815250815250815260200160405180604001604052806040518060400160405280600681526020017f4d6f6e61636f000000000000000000000000000000000000000000000000000081525081526020016040518060400160405280600281526020017f4d43000000000000000000000000000000000000000000000000000000000000815250815250815260200160405180604001604052806040518060400160405280600881526020017f4d6f6e676f6c696100000000000000000000000000000000000000000000000081525081526020016040518060400160405280600281526020017f4d4e000000000000000000000000000000000000000000000000000000000000815250815250815260200160405180604001604052806040518060400160405280600a81526020017f4d6f6e74656e6567726f0000000000000000000000000000000000000000000081525081526020016040518060400160405280600281526020017f4d45000000000000000000000000000000000000000000000000000000000000815250815250815260200160405180604001604052806040518060400160405280600781526020017f4d6f726f63636f0000000000000000000000000000000000000000000000000081525081526020016040518060400160405280600281526020017f4d41000000000000000000000000000000000000000000000000000000000000815250815250815260200160405180604001604052806040518060400160405280600a81526020017f4d6f7a616d62697175650000000000000000000000000000000000000000000081525081526020016040518060400160405280600281526020017f4d5a000000000000000000000000000000000000000000000000000000000000815250815250815260200160405180604001604052806040518060400160405280600781526020017f4d79616e6d61720000000000000000000000000000000000000000000000000081525081526020016040518060400160405280600281526020017f4d4d000000000000000000000000000000000000000000000000000000000000815250815250815260200160405180604001604052806040518060400160405280600781526020017f4e616d696269610000000000000000000000000000000000000000000000000081525081526020016040518060400160405280600281526020017f4e41000000000000000000000000000000000000000000000000000000000000815250815250815260200160405180604001604052806040518060400160405280600581526020017f4e6175727500000000000000000000000000000000000000000000000000000081525081526020016040518060400160405280600281526020017f4e52000000000000000000000000000000000000000000000000000000000000815250815250815260200160405180604001604052806040518060400160405280600581526020017f4e6570616c00000000000000000000000000000000000000000000000000000081525081526020016040518060400160405280600281526020017f4e50000000000000000000000000000000000000000000000000000000000000815250815250815260200160405180604001604052806040518060400160405280600b81526020017f4e65746865726c616e647300000000000000000000000000000000000000000081525081526020016040518060400160405280600281526020017f4e4c000000000000000000000000000000000000000000000000000000000000815250815250815260200160405180604001604052806040518060400160405280600b81526020017f4e6577205a65616c616e6400000000000000000000000000000000000000000081525081526020016040518060400160405280600281526020017f4e5a000000000000000000000000000000000000000000000000000000000000815250815250815260200160405180604001604052806040518060400160405280600981526020017f4e6963617261677561000000000000000000000000000000000000000000000081525081526020016040518060400160405280600281526020017f4e49000000000000000000000000000000000000000000000000000000000000815250815250815260200160405180604001604052806040518060400160405280600581526020017f4e6967657200000000000000000000000000000000000000000000000000000081525081526020016040518060400160405280600281526020017f4e45000000000000000000000000000000000000000000000000000000000000815250815250815260200160405180604001604052806040518060400160405280600781526020017f4e6967657269610000000000000000000000000000000000000000000000000081525081526020016040518060400160405280600281526020017f4e47000000000000000000000000000000000000000000000000000000000000815250815250815260200160405180604001604052806040518060400160405280600b81526020017f4e6f727468204b6f72656100000000000000000000000000000000000000000081525081526020016040518060400160405280600281526020017f4b50000000000000000000000000000000000000000000000000000000000000815250815250815260200160405180604001604052806040518060400160405280600f81526020017f4e6f727468204d616365646f6e6961000000000000000000000000000000000081525081526020016040518060400160405280600281526020017f4d4b000000000000000000000000000000000000000000000000000000000000815250815250815260200160405180604001604052806040518060400160405280600681526020017f4e6f72776179000000000000000000000000000000000000000000000000000081525081526020016040518060400160405280600281526020017f4e4f000000000000000000000000000000000000000000000000000000000000815250815250815260200160405180604001604052806040518060400160405280600481526020017f4f6d616e0000000000000000000000000000000000000000000000000000000081525081526020016040518060400160405280600281526020017f4f4d000000000000000000000000000000000000000000000000000000000000815250815250815260200160405180604001604052806040518060400160405280600881526020017f50616b697374616e00000000000000000000000000000000000000000000000081525081526020016040518060400160405280600281526020017f504b000000000000000000000000000000000000000000000000000000000000815250815250815260200160405180604001604052806040518060400160405280600581526020017f50616c617500000000000000000000000000000000000000000000000000000081525081526020016040518060400160405280600281526020017f5057000000000000000000000000000000000000000000000000000000000000815250815250815260200160405180604001604052806040518060400160405280600981526020017f50616c657374696e65000000000000000000000000000000000000000000000081525081526020016040518060400160405280600281526020017f5053000000000000000000000000000000000000000000000000000000000000815250815250815260200160405180604001604052806040518060400160405280600681526020017f50616e616d61000000000000000000000000000000000000000000000000000081525081526020016040518060400160405280600281526020017f5041000000000000000000000000000000000000000000000000000000000000815250815250815260200160405180604001604052806040518060400160405280601081526020017f5061707561204e6577204775696e65610000000000000000000000000000000081525081526020016040518060400160405280600281526020017f5047000000000000000000000000000000000000000000000000000000000000815250815250815260200160405180604001604052806040518060400160405280600881526020017f506172616775617900000000000000000000000000000000000000000000000081525081526020016040518060400160405280600281526020017f5059000000000000000000000000000000000000000000000000000000000000815250815250815260200160405180604001604052806040518060400160405280600481526020017f506572750000000000000000000000000000000000000000000000000000000081525081526020016040518060400160405280600281526020017f5045000000000000000000000000000000000000000000000000000000000000815250815250815260200160405180604001604052806040518060400160405280600b81526020017f5068696c697070696e657300000000000000000000000000000000000000000081525081526020016040518060400160405280600281526020017f5048000000000000000000000000000000000000000000000000000000000000815250815250815260200160405180604001604052806040518060400160405280600681526020017f506f6c616e64000000000000000000000000000000000000000000000000000081525081526020016040518060400160405280600281526020017f504c000000000000000000000000000000000000000000000000000000000000815250815250815260200160405180604001604052806040518060400160405280600881526020017f506f72747567616c00000000000000000000000000000000000000000000000081525081526020016040518060400160405280600281526020017f5054000000000000000000000000000000000000000000000000000000000000815250815250815260200160405180604001604052806040518060400160405280600581526020017f516174617200000000000000000000000000000000000000000000000000000081525081526020016040518060400160405280600281526020017f5141000000000000000000000000000000000000000000000000000000000000815250815250815260200160405180604001604052806040518060400160405280600781526020017f526f6d616e69610000000000000000000000000000000000000000000000000081525081526020016040518060400160405280600281526020017f524f000000000000000000000000000000000000000000000000000000000000815250815250815260200160405180604001604052806040518060400160405280600681526020017f527573736961000000000000000000000000000000000000000000000000000081525081526020016040518060400160405280600281526020017f5255000000000000000000000000000000000000000000000000000000000000815250815250815260200160405180604001604052806040518060400160405280600681526020017f5277616e6461000000000000000000000000000000000000000000000000000081525081526020016040518060400160405280600281526020017f5257000000000000000000000000000000000000000000000000000000000000815250815250815260200160405180604001604052806040518060400160405280601581526020017f5361696e74204b6974747320616e64204e65766973000000000000000000000081525081526020016040518060400160405280600281526020017f4b4e000000000000000000000000000000000000000000000000000000000000815250815250815260200160405180604001604052806040518060400160405280600b81526020017f5361696e74204c7563696100000000000000000000000000000000000000000081525081526020016040518060400160405280600281526020017f4c43000000000000000000000000000000000000000000000000000000000000815250815250815260200160405180604001604052806040518060400160405280602081526020017f5361696e742056696e63656e7420616e6420746865204772656e6164696e657381525081526020016040518060400160405280600281526020017f5643000000000000000000000000000000000000000000000000000000000000815250815250815260200160405180604001604052806040518060400160405280600581526020017f53616d6f6100000000000000000000000000000000000000000000000000000081525081526020016040518060400160405280600281526020017f5753000000000000000000000000000000000000000000000000000000000000815250815250815260200160405180604001604052806040518060400160405280600a81526020017f53616e204d6172696e6f0000000000000000000000000000000000000000000081525081526020016040518060400160405280600281526020017f534d000000000000000000000000000000000000000000000000000000000000815250815250815260200160405180604001604052806040518060400160405280601581526020017f53616f20546f6d6520616e64205072696e63697065000000000000000000000081525081526020016040518060400160405280600281526020017f5354000000000000000000000000000000000000000000000000000000000000815250815250815260200160405180604001604052806040518060400160405280600c81526020017f536175646920417261626961000000000000000000000000000000000000000081525081526020016040518060400160405280600281526020017f5341000000000000000000000000000000000000000000000000000000000000815250815250815260200160405180604001604052806040518060400160405280600781526020017f53656e6567616c0000000000000000000000000000000000000000000000000081525081526020016040518060400160405280600281526020017f534e000000000000000000000000000000000000000000000000000000000000815250815250815260200160405180604001604052806040518060400160405280600681526020017f536572626961000000000000000000000000000000000000000000000000000081525081526020016040518060400160405280600281526020017f5253000000000000000000000000000000000000000000000000000000000000815250815250815260200160405180604001604052806040518060400160405280600a81526020017f5365796368656c6c65730000000000000000000000000000000000000000000081525081526020016040518060400160405280600281526020017f5343000000000000000000000000000000000000000000000000000000000000815250815250815260200160405180604001604052806040518060400160405280600c81526020017f536965727261204c656f6e65000000000000000000000000000000000000000081525081526020016040518060400160405280600281526020017f534c000000000000000000000000000000000000000000000000000000000000815250815250815260200160405180604001604052806040518060400160405280600981526020017f53696e6761706f7265000000000000000000000000000000000000000000000081525081526020016040518060400160405280600281526020017f5347000000000000000000000000000000000000000000000000000000000000815250815250815260200160405180604001604052806040518060400160405280600881526020017f536c6f76616b696100000000000000000000000000000000000000000000000081525081526020016040518060400160405280600281526020017f534b000000000000000000000000000000000000000000000000000000000000815250815250815260200160405180604001604052806040518060400160405280600881526020017f536c6f76656e696100000000000000000000000000000000000000000000000081525081526020016040518060400160405280600281526020017f5349000000000000000000000000000000000000000000000000000000000000815250815250815260200160405180604001604052806040518060400160405280600f81526020017f536f6c6f6d6f6e2049736c616e6473000000000000000000000000000000000081525081526020016040518060400160405280600281526020017f5342000000000000000000000000000000000000000000000000000000000000815250815250815260200160405180604001604052806040518060400160405280600781526020017f536f6d616c69610000000000000000000000000000000000000000000000000081525081526020016040518060400160405280600281526020017f534f000000000000000000000000000000000000000000000000000000000000815250815250815260200160405180604001604052806040518060400160405280600c81526020017f536f75746820416672696361000000000000000000000000000000000000000081525081526020016040518060400160405280600281526020017f5a41000000000000000000000000000000000000000000000000000000000000815250815250815260200160405180604001604052806040518060400160405280600b81526020017f536f757468204b6f72656100000000000000000000000000000000000000000081525081526020016040518060400160405280600281526020017f4b52000000000000000000000000000000000000000000000000000000000000815250815250815260200160405180604001604052806040518060400160405280600b81526020017f536f75746820537564616e00000000000000000000000000000000000000000081525081526020016040518060400160405280600281526020017f5353000000000000000000000000000000000000000000000000000000000000815250815250815260200160405180604001604052806040518060400160405280600581526020017f537061696e00000000000000000000000000000000000000000000000000000081525081526020016040518060400160405280600281526020017f4553000000000000000000000000000000000000000000000000000000000000815250815250815260200160405180604001604052806040518060400160405280600981526020017f537269204c616e6b61000000000000000000000000000000000000000000000081525081526020016040518060400160405280600281526020017f4c4b000000000000000000000000000000000000000000000000000000000000815250815250815260200160405180604001604052806040518060400160405280600581526020017f537564616e00000000000000000000000000000000000000000000000000000081525081526020016040518060400160405280600281526020017f5344000000000000000000000000000000000000000000000000000000000000815250815250815260200160405180604001604052806040518060400160405280600881526020017f537572696e616d6500000000000000000000000000000000000000000000000081525081526020016040518060400160405280600281526020017f5352000000000000000000000000000000000000000000000000000000000000815250815250815260200160405180604001604052806040518060400160405280600681526020017f53776564656e000000000000000000000000000000000000000000000000000081525081526020016040518060400160405280600281526020017f5345000000000000000000000000000000000000000000000000000000000000815250815250815260200160405180604001604052806040518060400160405280600b81526020017f537769747a65726c616e6400000000000000000000000000000000000000000081525081526020016040518060400160405280600281526020017f4348000000000000000000000000000000000000000000000000000000000000815250815250815260200160405180604001604052806040518060400160405280600581526020017f537972696100000000000000000000000000000000000000000000000000000081525081526020016040518060400160405280600281526020017f5359000000000000000000000000000000000000000000000000000000000000815250815250815260200160405180604001604052806040518060400160405280600681526020017f54616977616e000000000000000000000000000000000000000000000000000081525081526020016040518060400160405280600281526020017f5457000000000000000000000000000000000000000000000000000000000000815250815250815260200160405180604001604052806040518060400160405280600a81526020017f54616a696b697374616e0000000000000000000000000000000000000000000081525081526020016040518060400160405280600281526020017f544a000000000000000000000000000000000000000000000000000000000000815250815250815260200160405180604001604052806040518060400160405280600881526020017f54616e7a616e696100000000000000000000000000000000000000000000000081525081526020016040518060400160405280600281526020017f545a000000000000000000000000000000000000000000000000000000000000815250815250815260200160405180604001604052806040518060400160405280600881526020017f546861696c616e6400000000000000000000000000000000000000000000000081525081526020016040518060400160405280600281526020017f5448000000000000000000000000000000000000000000000000000000000000815250815250815260200160405180604001604052806040518060400160405280600b81526020017f54696d6f722d4c6573746500000000000000000000000000000000000000000081525081526020016040518060400160405280600281526020017f544c000000000000000000000000000000000000000000000000000000000000815250815250815260200160405180604001604052806040518060400160405280600481526020017f546f676f0000000000000000000000000000000000000000000000000000000081525081526020016040518060400160405280600281526020017f5447000000000000000000000000000000000000000000000000000000000000815250815250815260200160405180604001604052806040518060400160405280601381526020017f5472696e6964616420616e6420546f6261676f0000000000000000000000000081525081526020016040518060400160405280600281526020017f5454000000000000000000000000000000000000000000000000000000000000815250815250815260200160405180604001604052806040518060400160405280600781526020017f54756e697369610000000000000000000000000000000000000000000000000081525081526020016040518060400160405280600281526020017f544e000000000000000000000000000000000000000000000000000000000000815250815250815260200160405180604001604052806040518060400160405280600681526020017f5475726b6579000000000000000000000000000000000000000000000000000081525081526020016040518060400160405280600281526020017f5452000000000000000000000000000000000000000000000000000000000000815250815250815260200160405180604001604052806040518060400160405280600c81526020017f5475726b6d656e697374616e000000000000000000000000000000000000000081525081526020016040518060400160405280600281526020017f544d000000000000000000000000000000000000000000000000000000000000815250815250815260200160405180604001604052806040518060400160405280600681526020017f547576616c75000000000000000000000000000000000000000000000000000081525081526020016040518060400160405280600281526020017f5456000000000000000000000000000000000000000000000000000000000000815250815250815260200160405180604001604052806040518060400160405280600681526020017f5567616e6461000000000000000000000000000000000000000000000000000081525081526020016040518060400160405280600281526020017f5547000000000000000000000000000000000000000000000000000000000000815250815250815260200160405180604001604052806040518060400160405280600781526020017f556b7261696e650000000000000000000000000000000000000000000000000081525081526020016040518060400160405280600281526020017f5541000000000000000000000000000000000000000000000000000000000000815250815250815260200160405180604001604052806040518060400160405280601481526020017f556e69746564204172616220456d69726174657300000000000000000000000081525081526020016040518060400160405280600281526020017f4145000000000000000000000000000000000000000000000000000000000000815250815250815260200160405180604001604052806040518060400160405280600e81526020017f556e69746564204b696e67646f6d00000000000000000000000000000000000081525081526020016040518060400160405280600281526020017f4742000000000000000000000000000000000000000000000000000000000000815250815250815260200160405180604001604052806040518060400160405280600d81526020017f556e69746564205374617465730000000000000000000000000000000000000081525081526020016040518060400160405280600281526020017f5553000000000000000000000000000000000000000000000000000000000000815250815250815260200160405180604001604052806040518060400160405280600781526020017f557275677561790000000000000000000000000000000000000000000000000081525081526020016040518060400160405280600281526020017f5559000000000000000000000000000000000000000000000000000000000000815250815250815260200160405180604001604052806040518060400160405280600a81526020017f557a62656b697374616e0000000000000000000000000000000000000000000081525081526020016040518060400160405280600281526020017f555a000000000000000000000000000000000000000000000000000000000000815250815250815260200160405180604001604052806040518060400160405280600781526020017f56616e756174750000000000000000000000000000000000000000000000000081525081526020016040518060400160405280600281526020017f5655000000000000000000000000000000000000000000000000000000000000815250815250815260200160405180604001604052806040518060400160405280600c81526020017f5661746963616e2043697479000000000000000000000000000000000000000081525081526020016040518060400160405280600281526020017f5641000000000000000000000000000000000000000000000000000000000000815250815250815260200160405180604001604052806040518060400160405280600981526020017f56656e657a75656c61000000000000000000000000000000000000000000000081525081526020016040518060400160405280600281526020017f5645000000000000000000000000000000000000000000000000000000000000815250815250815260200160405180604001604052806040518060400160405280600781526020017f566965746e616d0000000000000000000000000000000000000000000000000081525081526020016040518060400160405280600281526020017f564e000000000000000000000000000000000000000000000000000000000000815250815250815260200160405180604001604052806040518060400160405280600581526020017f59656d656e00000000000000000000000000000000000000000000000000000081525081526020016040518060400160405280600281526020017f5945000000000000000000000000000000000000000000000000000000000000815250815250815260200160405180604001604052806040518060400160405280600681526020017f5a616d626961000000000000000000000000000000000000000000000000000081525081526020016040518060400160405280600281526020017f5a4d000000000000000000000000000000000000000000000000000000000000815250815250815260200160405180604001604052806040518060400160405280600881526020017f5a696d626162776500000000000000000000000000000000000000000000000081525081526020016040518060400160405280600281526020017f5a5700000000000000000000000000000000000000000000000000000000000081525081525081525090505f5b60bc8110156164ea57818160c28110616443576164426164f1565b5b6020020151602001515f838360c281106164605761645f6164f1565b5b60200201515f01516040516164759190616570565b9081526020016040518091039020908161648f91906167b6565b506001828260c281106164a5576164a46164f1565b5b602002015160200151908060018154018082558091505060019003905f5260205f20015f9091909190915090816164dc91906167b6565b508080600101915050616427565b5050616885565b7f4e487b71000000000000000000000000000000000000000000000000000000005f52603260045260245ffd5b5f81519050919050565b5f81905092915050565b8281835e5f83830152505050565b5f61654a8261651e565b6165548185616528565b9350616564818560208601616532565b80840191505092915050565b5f61657b8284616540565b915081905092915050565b7f4e487b71000000000000000000000000000000000000000000000000000000005f52604160045260245ffd5b7f4e487b71000000000000000000000000000000000000000000000000000000005f52602260045260245ffd5b5f60028204905060018216806165f757607f821691505b60208210810361660a576166096165b3565b5b50919050565b5f819050815f5260205f209050919050565b5f6020601f8301049050919050565b5f82821b905092915050565b5f6008830261666c7fffffffffffffffffffffffffffffffffffffffffffffffffffffffffffffffff82616631565b6166768683616631565b95508019841693508086168417925050509392505050565b5f819050919050565b5f819050919050565b5f6166ba6166b56166b08461668e565b616697565b61668e565b9050919050565b5f819050919050565b6166d3836166a0565b6166e76166df826166c1565b84845461663d565b825550505050565b5f90565b6166fb6166ef565b6167068184846166ca565b505050565b5b818110156167295761671e5f826166f3565b60018101905061670c565b5050565b601f82111561676e5761673f81616610565b61674884616622565b81016020851015616757578190505b61676b61676385616622565b83018261670b565b50505b505050565b5f82821c905092915050565b5f61678e5f1984600802616773565b1980831691505092915050565b5f6167a6838361677f565b9150826002028217905092915050565b6167bf8261651e565b67ffffffffffffffff8111156167d8576167d7616586565b5b6167e282546165e0565b6167ed82828561672d565b5f60209050601f83116001811461681e575f841561680c578287015190505b616816858261679b565b86555061687d565b601f19841661682c86616610565b5f5b828110156168535784890151825560018201915060208501945060208101905061682e565b86831015616870578489015161686c601f89168261677f565b8355505b6001600288020188555050505b505050505050565b610812806168925f395ff3fe608060405234801561000f575f80fd5b506004361061004a575f3560e01c806303649e431461004e57806345d94c5d1461007e57806383b156c4146100ae578063c58b98fc146100de575b5f80fd5b61006860048036038101906100639190610502565b61010e565b6040516100759190610563565b60405180910390f35b61009860048036038101906100939190610502565b6101b0565b6040516100a591906105dc565b60405180910390f35b6100c860048036038101906100c39190610502565b610262565b6040516100d591906105dc565b60405180910390f35b6100f860048036038101906100f3919061062f565b61030f565b60405161010591906105dc565b60405180910390f35b5f805f90505b6001805490508110156101a657826040516020016101329190610694565b604051602081830303815290604052805190602001206001828154811061015c5761015b6106aa565b5b905f5260205f200160405160200161017491906107c6565b60405160208183030381529060405280519060200120036101995760019150506101ab565b8080600101915050610114565b505f90505b919050565b5f818051602081018201805184825260208301602085012081835280955050505050505f9150905080546101e390610704565b80601f016020809104026020016040519081016040528092919081815260200182805461020f90610704565b801561025a5780601f106102315761010080835404028352916020019161025a565b820191905f5260205f20905b81548152906001019060200180831161023d57829003601f168201915b505050505081565b60605f826040516102739190610694565b9081526020016040518091039020805461028c90610704565b80601f01602080910402602001604051908101604052809291908181526020018280546102b890610704565b80156103035780601f106102da57610100808354040283529160200191610303565b820191905f5260205f20905b8154815290600101906020018083116102e657829003601f168201915b50505050509050919050565b6001818154811061031e575f80fd5b905f5260205f20015f91509050805461033690610704565b80601f016020809104026020016040519081016040528092919081815260200182805461036290610704565b80156103ad5780601f10610384576101008083540402835291602001916103ad565b820191905f5260205f20905b81548152906001019060200180831161039057829003601f168201915b505050505081565b5f604051905090565b5f80fd5b5f80fd5b5f80fd5b5f80fd5b5f601f19601f8301169050919050565b7f4e487b71000000000000000000000000000000000000000000000000000000005f52604160045260245ffd5b610414826103ce565b810181811067ffffffffffffffff82111715610433576104326103de565b5b80604052505050565b5f6104456103b5565b9050610451828261040b565b919050565b5f67ffffffffffffffff8211156104705761046f6103de565b5b610479826103ce565b9050602081019050919050565b828183375f83830152505050565b5f6104a66104a184610456565b61043c565b9050828152602081018484840111156104c2576104c16103ca565b5b6104cd848285610486565b509392505050565b5f82601f8301126104e9576104e86103c6565b5b81356104f9848260208601610494565b91505092915050565b5f60208284031215610517576105166103be565b5b5f82013567ffffffffffffffff811115610534576105336103c2565b5b610540848285016104d5565b91505092915050565b5f8115159050919050565b61055d81610549565b82525050565b5f6020820190506105765f830184610554565b92915050565b5f81519050919050565b5f82825260208201905092915050565b8281835e5f83830152505050565b5f6105ae8261057c565b6105b88185610586565b93506105c8818560208601610596565b6105d1816103ce565b840191505092915050565b5f6020820190508181035f8301526105f481846105a4565b905092915050565b5f819050919050565b61060e816105fc565b8114610618575f80fd5b50565b5f8135905061062981610605565b92915050565b5f60208284031215610644576106436103be565b5b5f6106518482850161061b565b91505092915050565b5f81905092915050565b5f61066e8261057c565b610678818561065a565b9350610688818560208601610596565b80840191505092915050565b5f61069f8284610664565b915081905092915050565b7f4e487b71000000000000000000000000000000000000000000000000000000005f52603260045260245ffd5b7f4e487b71000000000000000000000000000000000000000000000000000000005f52602260045260245ffd5b5f600282049050600182168061071b57607f821691505b60208210810361072e5761072d6106d7565b5b50919050565b5f819050815f5260205f209050919050565b5f815461075281610704565b61075c818661065a565b9450600182165f8114610776576001811461078b576107bd565b60ff19831686528115158202860193506107bd565b61079485610734565b5f5b838110156107b557815481890152600182019150602081019050610796565b838801955050505b50505092915050565b5f6107d18284610746565b91508190509291505056fea2646970667358221220f7d3e9587ab17ff0cda8e7579863511f390df6abf2d1d45b4d68a798517c20e464736f6c634300081a0033",
					"opcodes": "PUSH1 0x80 PUSH1 0x40 MSTORE CALLVALUE DUP1 ISZERO PUSH2 0xF JUMPI PUSH0 DUP1 REVERT JUMPDEST POP PUSH0 PUSH1 0x40 MLOAD DUP1 PUSH2 0x1840 ADD PUSH1 0x40 MSTORE DUP1 PUSH1 0x40 MLOAD DUP1 PUSH1 0x40 ADD PUSH1 0x40 MSTORE DUP1 PUSH1 0x40 MLOAD DUP1 PUSH1 0x40 ADD PUSH1 0x40 MSTORE DUP1 PUSH1 0xB DUP2 MSTORE PUSH1 0x20 ADD PUSH32 0x41666768616E697374616E000000000000000000000000000000000000000000 DUP2 MSTORE POP DUP2 MSTORE PUSH1 0x20 ADD PUSH1 0x40 MLOAD DUP1 PUSH1 0x40 ADD PUSH1 0x40 MSTORE DUP1 PUSH1 0x2 DUP2 MSTORE PUSH1 0x20 ADD PUSH32 0x4146000000000000000000000000000000000000000000000000000000000000 DUP2 MSTORE POP DUP2 MSTORE POP DUP2 MSTORE PUSH1 0x20 ADD PUSH1 0x40 MLOAD DUP1 PUSH1 0x40 ADD PUSH1 0x40 MSTORE DUP1 PUSH1 0x40 MLOAD DUP1 PUSH1 0x40 ADD PUSH1 0x40 MSTORE DUP1 PUSH1 0x7 DUP2 MSTORE PUSH1 0x20 ADD PUSH32 0x416C62616E696100000000000000000000000000000000000000000000000000 DUP2 MSTORE POP DUP2 MSTORE PUSH1 0x20 ADD PUSH1 0x40 MLOAD DUP1 PUSH1 0x40 ADD PUSH1 0x40 MSTORE DUP1 PUSH1 0x2 DUP2 MSTORE PUSH1 0x20 ADD PUSH32 0x414C000000000000000000000000000000000000000000000000000000000000 DUP2 MSTORE POP DUP2 MSTORE POP DUP2 MSTORE PUSH1 0x20 ADD PUSH1 0x40 MLOAD DUP1 PUSH1 0x40 ADD PUSH1 0x40 MSTORE DUP1 PUSH1 0x40 MLOAD DUP1 PUSH1 0x40 ADD PUSH1 0x40 MSTORE DUP1 PUSH1 0x7 DUP2 MSTORE PUSH1 0x20 ADD PUSH32 0x416C676572696100000000000000000000000000000000000000000000000000 DUP2 MSTORE POP DUP2 MSTORE PUSH1 0x20 ADD PUSH1 0x40 MLOAD DUP1 PUSH1 0x40 ADD PUSH1 0x40 MSTORE DUP1 PUSH1 0x2 DUP2 MSTORE PUSH1 0x20 ADD PUSH32 0x445A000000000000000000000000000000000000000000000000000000000000 DUP2 MSTORE POP DUP2 MSTORE POP DUP2 MSTORE PUSH1 0x20 ADD PUSH1 0x40 MLOAD DUP1 PUSH1 0x40 ADD PUSH1 0x40 MSTORE DUP1 PUSH1 0x40 MLOAD DUP1 PUSH1 0x40 ADD PUSH1 0x40 MSTORE DUP1 PUSH1 0x7 DUP2 MSTORE PUSH1 0x20 ADD PUSH32 0x416E646F72726100000000000000000000000000000000000000000000000000 DUP2 MSTORE POP DUP2 MSTORE PUSH1 0x20 ADD PUSH1 0x40 MLOAD DUP1 PUSH1 0x40 ADD PUSH1 0x40 MSTORE DUP1 PUSH1 0x2 DUP2 MSTORE PUSH1 0x20 ADD PUSH32 0x4144000000000000000000000000000000000000000000000000000000000000 DUP2 MSTORE POP DUP2 MSTORE POP DUP2 MSTORE PUSH1 0x20 ADD PUSH1 0x40 MLOAD DUP1 PUSH1 0x40 ADD PUSH1 0x40 MSTORE DUP1 PUSH1 0x40 MLOAD DUP1 PUSH1 0x40 ADD PUSH1 0x40 MSTORE DUP1 PUSH1 0x6 DUP2 MSTORE PUSH1 0x20 ADD PUSH32 0x416E676F6C610000000000000000000000000000000000000000000000000000 DUP2 MSTORE POP DUP2 MSTORE PUSH1 0x20 ADD PUSH1 0x40 MLOAD DUP1 PUSH1 0x40 ADD PUSH1 0x40 MSTORE DUP1 PUSH1 0x2 DUP2 MSTORE PUSH1 0x20 ADD PUSH32 0x414F000000000000000000000000000000000000000000000000000000000000 DUP2 MSTORE POP DUP2 MSTORE POP DUP2 MSTORE PUSH1 0x20 ADD PUSH1 0x40 MLOAD DUP1 PUSH1 0x40 ADD PUSH1 0x40 MSTORE DUP1 PUSH1 0x40 MLOAD DUP1 PUSH1 0x40 ADD PUSH1 0x40 MSTORE DUP1 PUSH1 0x13 DUP2 MSTORE PUSH1 0x20 ADD PUSH32 0x416E746967756120616E64204261726275646100000000000000000000000000 DUP2 MSTORE POP DUP2 MSTORE PUSH1 0x20 ADD PUSH1 0x40 MLOAD DUP1 PUSH1 0x40 ADD PUSH1 0x40 MSTORE DUP1 PUSH1 0x2 DUP2 MSTORE PUSH1 0x20 ADD PUSH32 0x4147000000000000000000000000000000000000000000000000000000000000 DUP2 MSTORE POP DUP2 MSTORE POP DUP2 MSTORE PUSH1 0x20 ADD PUSH1 0x40 MLOAD DUP1 PUSH1 0x40 ADD PUSH1 0x40 MSTORE DUP1 PUSH1 0x40 MLOAD DUP1 PUSH1 0x40 ADD PUSH1 0x40 MSTORE DUP1 PUSH1 0x9 DUP2 MSTORE PUSH1 0x20 ADD PUSH32 0x417267656E74696E610000000000000000000000000000000000000000000000 DUP2 MSTORE POP DUP2 MSTORE PUSH1 0x20 ADD PUSH1 0x40 MLOAD DUP1 PUSH1 0x40 ADD PUSH1 0x40 MSTORE DUP1 PUSH1 0x2 DUP2 MSTORE PUSH1 0x20 ADD PUSH32 0x4152000000000000000000000000000000000000000000000000000000000000 DUP2 MSTORE POP DUP2 MSTORE POP DUP2 MSTORE PUSH1 0x20 ADD PUSH1 0x40 MLOAD DUP1 PUSH1 0x40 ADD PUSH1 0x40 MSTORE DUP1 PUSH1 0x40 MLOAD DUP1 PUSH1 0x40 ADD PUSH1 0x40 MSTORE DUP1 PUSH1 0x7 DUP2 MSTORE PUSH1 0x20 ADD PUSH32 0x41726D656E696100000000000000000000000000000000000000000000000000 DUP2 MSTORE POP DUP2 MSTORE PUSH1 0x20 ADD PUSH1 0x40 MLOAD DUP1 PUSH1 0x40 ADD PUSH1 0x40 MSTORE DUP1 PUSH1 0x2 DUP2 MSTORE PUSH1 0x20 ADD PUSH32 0x414D000000000000000000000000000000000000000000000000000000000000 DUP2 MSTORE POP DUP2 MSTORE POP DUP2 MSTORE PUSH1 0x20 ADD PUSH1 0x40 MLOAD DUP1 PUSH1 0x40 ADD PUSH1 0x40 MSTORE DUP1 PUSH1 0x40 MLOAD DUP1 PUSH1 0x40 ADD PUSH1 0x40 MSTORE DUP1 PUSH1 0x9 DUP2 MSTORE PUSH1 0x20 ADD PUSH32 0x4175737472616C69610000000000000000000000000000000000000000000000 DUP2 MSTORE POP DUP2 MSTORE PUSH1 0x20 ADD PUSH1 0x40 MLOAD DUP1 PUSH1 0x40 ADD PUSH1 0x40 MSTORE DUP1 PUSH1 0x2 DUP2 MSTORE PUSH1 0x20 ADD PUSH32 0x4155000000000000000000000000000000000000000000000000000000000000 DUP2 MSTORE POP DUP2 MSTORE POP DUP2 MSTORE PUSH1 0x20 ADD PUSH1 0x40 MLOAD DUP1 PUSH1 0x40 ADD PUSH1 0x40 MSTORE DUP1 PUSH1 0x40 MLOAD DUP1 PUSH1 0x40 ADD PUSH1 0x40 MSTORE DUP1 PUSH1 0x7 DUP2 MSTORE PUSH1 0x20 ADD PUSH32 0x4175737472696100000000000000000000000000000000000000000000000000 DUP2 MSTORE POP DUP2 MSTORE PUSH1 0x20 ADD PUSH1 0x40 MLOAD DUP1 PUSH1 0x40 ADD PUSH1 0x40 MSTORE DUP1 PUSH1 0x2 DUP2 MSTORE PUSH1 0x20 ADD PUSH32 0x4154000000000000000000000000000000000000000000000000000000000000 DUP2 MSTORE POP DUP2 MSTORE POP DUP2 MSTORE PUSH1 0x20 ADD PUSH1 0x40 MLOAD DUP1 PUSH1 0x40 ADD PUSH1 0x40 MSTORE DUP1 PUSH1 0x40 MLOAD DUP1 PUSH1 0x40 ADD PUSH1 0x40 MSTORE DUP1 PUSH1 0xA DUP2 MSTORE PUSH1 0x20 ADD PUSH32 0x417A65726261696A616E00000000000000000000000000000000000000000000 DUP2 MSTORE POP DUP2 MSTORE PUSH1 0x20 ADD PUSH1 0x40 MLOAD DUP1 PUSH1 0x40 ADD PUSH1 0x40 MSTORE DUP1 PUSH1 0x2 DUP2 MSTORE PUSH1 0x20 ADD PUSH32 0x415A000000000000000000000000000000000000000000000000000000000000 DUP2 MSTORE POP DUP2 MSTORE POP DUP2 MSTORE PUSH1 0x20 ADD PUSH1 0x40 MLOAD DUP1 PUSH1 0x40 ADD PUSH1 0x40 MSTORE DUP1 PUSH1 0x40 MLOAD DUP1 PUSH1 0x40 ADD PUSH1 0x40 MSTORE DUP1 PUSH1 0x7 DUP2 MSTORE PUSH1 0x20 ADD PUSH32 0x426168616D617300000000000000000000000000000000000000000000000000 DUP2 MSTORE POP DUP2 MSTORE PUSH1 0x20 ADD PUSH1 0x40 MLOAD DUP1 PUSH1 0x40 ADD PUSH1 0x40 MSTORE DUP1 PUSH1 0x2 DUP2 MSTORE PUSH1 0x20 ADD PUSH32 0x4253000000000000000000000000000000000000000000000000000000000000 DUP2 MSTORE POP DUP2 MSTORE POP DUP2 MSTORE PUSH1 0x20 ADD PUSH1 0x40 MLOAD DUP1 PUSH1 0x40 ADD PUSH1 0x40 MSTORE DUP1 PUSH1 0x40 MLOAD DUP1 PUSH1 0x40 ADD PUSH1 0x40 MSTORE DUP1 PUSH1 0x7 DUP2 MSTORE PUSH1 0x20 ADD PUSH32 0x4261687261696E00000000000000000000000000000000000000000000000000 DUP2 MSTORE POP DUP2 MSTORE PUSH1 0x20 ADD PUSH1 0x40 MLOAD DUP1 PUSH1 0x40 ADD PUSH1 0x40 MSTORE DUP1 PUSH1 0x2 DUP2 MSTORE PUSH1 0x20 ADD PUSH32 0x4248000000000000000000000000000000000000000000000000000000000000 DUP2 MSTORE POP DUP2 MSTORE POP DUP2 MSTORE PUSH1 0x20 ADD PUSH1 0x40 MLOAD DUP1 PUSH1 0x40 ADD PUSH1 0x40 MSTORE DUP1 PUSH1 0x40 MLOAD DUP1 PUSH1 0x40 ADD PUSH1 0x40 MSTORE DUP1 PUSH1 0xA DUP2 MSTORE PUSH1 0x20 ADD PUSH32 0x42616E676C616465736800000000000000000000000000000000000000000000 DUP2 MSTORE POP DUP2 MSTORE PUSH1 0x20 ADD PUSH1 0x40 MLOAD DUP1 PUSH1 0x40 ADD PUSH1 0x40 MSTORE DUP1 PUSH1 0x2 DUP2 MSTORE PUSH1 0x20 ADD PUSH32 0x4244000000000000000000000000000000000000000000000000000000000000 DUP2 MSTORE POP DUP2 MSTORE POP DUP2 MSTORE PUSH1 0x20 ADD PUSH1 0x40 MLOAD DUP1 PUSH1 0x40 ADD PUSH1 0x40 MSTORE DUP1 PUSH1 0x40 MLOAD DUP1 PUSH1 0x40 ADD PUSH1 0x40 MSTORE DUP1 PUSH1 0x8 DUP2 MSTORE PUSH1 0x20 ADD PUSH32 0x4261726261646F73000000000000000000000000000000000000000000000000 DUP2 MSTORE POP DUP2 MSTORE PUSH1 0x20 ADD PUSH1 0x40 MLOAD DUP1 PUSH1 0x40 ADD PUSH1 0x40 MSTORE DUP1 PUSH1 0x2 DUP2 MSTORE PUSH1 0x20 ADD PUSH32 0x4242000000000000000000000000000000000000000000000000000000000000 DUP2 MSTORE POP DUP2 MSTORE POP DUP2 MSTORE PUSH1 0x20 ADD PUSH1 0x40 MLOAD DUP1 PUSH1 0x40 ADD PUSH1 0x40 MSTORE DUP1 PUSH1 0x40 MLOAD DUP1 PUSH1 0x40 ADD PUSH1 0x40 MSTORE DUP1 PUSH1 0x7 DUP2 MSTORE PUSH1 0x20 ADD PUSH32 0x42656C6172757300000000000000000000000000000000000000000000000000 DUP2 MSTORE POP DUP2 MSTORE PUSH1 0x20 ADD PUSH1 0x40 MLOAD DUP1 PUSH1 0x40 ADD PUSH1 0x40 MSTORE DUP1 PUSH1 0x2 DUP2 MSTORE PUSH1 0x20 ADD PUSH32 0x4259000000000000000000000000000000000000000000000000000000000000 DUP2 MSTORE POP DUP2 MSTORE POP DUP2 MSTORE PUSH1 0x20 ADD PUSH1 0x40 MLOAD DUP1 PUSH1 0x40 ADD PUSH1 0x40 MSTORE DUP1 PUSH1 0x40 MLOAD DUP1 PUSH1 0x40 ADD PUSH1 0x40 MSTORE DUP1 PUSH1 0x7 DUP2 MSTORE PUSH1 0x20 ADD PUSH32 0x42656C6769756D00000000000000000000000000000000000000000000000000 DUP2 MSTORE POP DUP2 MSTORE PUSH1 0x20 ADD PUSH1 0x40 MLOAD DUP1 PUSH1 0x40 ADD PUSH1 0x40 MSTORE DUP1 PUSH1 0x2 DUP2 MSTORE PUSH1 0x20 ADD PUSH32 0x4245000000000000000000000000000000000000000000000000000000000000 DUP2 MSTORE POP DUP2 MSTORE POP DUP2 MSTORE PUSH1 0x20 ADD PUSH1 0x40 MLOAD DUP1 PUSH1 0x40 ADD PUSH1 0x40 MSTORE DUP1 PUSH1 0x40 MLOAD DUP1 PUSH1 0x40 ADD PUSH1 0x40 MSTORE DUP1 PUSH1 0x6 DUP2 MSTORE PUSH1 0x20 ADD PUSH32 0x42656C697A650000000000000000000000000000000000000000000000000000 DUP2 MSTORE POP DUP2 MSTORE PUSH1 0x20 ADD PUSH1 0x40 MLOAD DUP1 PUSH1 0x40 ADD PUSH1 0x40 MSTORE DUP1 PUSH1 0x2 DUP2 MSTORE PUSH1 0x20 ADD PUSH32 0x425A000000000000000000000000000000000000000000000000000000000000 DUP2 MSTORE POP DUP2 MSTORE POP DUP2 MSTORE PUSH1 0x20 ADD PUSH1 0x40 MLOAD DUP1 PUSH1 0x40 ADD PUSH1 0x40 MSTORE DUP1 PUSH1 0x40 MLOAD DUP1 PUSH1 0x40 ADD PUSH1 0x40 MSTORE DUP1 PUSH1 0x5 DUP2 MSTORE PUSH1 0x20 ADD PUSH32 0x42656E696E000000000000000000000000000000000000000000000000000000 DUP2 MSTORE POP DUP2 MSTORE PUSH1 0x20 ADD PUSH1 0x40 MLOAD DUP1 PUSH1 0x40 ADD PUSH1 0x40 MSTORE DUP1 PUSH1 0x2 DUP2 MSTORE PUSH1 0x20 ADD PUSH32 0x424A000000000000000000000000000000000000000000000000000000000000 DUP2 MSTORE POP DUP2 MSTORE POP DUP2 MSTORE PUSH1 0x20 ADD PUSH1 0x40 MLOAD DUP1 PUSH1 0x40 ADD PUSH1 0x40 MSTORE DUP1 PUSH1 0x40 MLOAD DUP1 PUSH1 0x40 ADD PUSH1 0x40 MSTORE DUP1 PUSH1 0x6 DUP2 MSTORE PUSH1 0x20 ADD PUSH32 0x42687574616E0000000000000000000000000000000000000000000000000000 DUP2 MSTORE POP DUP2 MSTORE PUSH1 0x20 ADD PUSH1 0x40 MLOAD DUP1 PUSH1 0x40 ADD PUSH1 0x40 MSTORE DUP1 PUSH1 0x2 DUP2 MSTORE PUSH1 0x20 ADD PUSH32 0x4254000000000000000000000000000000000000000000000000000000000000 DUP2 MSTORE POP DUP2 MSTORE POP DUP2 MSTORE PUSH1 0x20 ADD PUSH1 0x40 MLOAD DUP1 PUSH1 0x40 ADD PUSH1 0x40 MSTORE DUP1 PUSH1 0x40 MLOAD DUP1 PUSH1 0x40 ADD PUSH1 0x40 MSTORE DUP1 PUSH1 0x7 DUP2 MSTORE PUSH1 0x20 ADD PUSH32 0x426F6C6976696100000000000000000000000000000000000000000000000000 DUP2 MSTORE POP DUP2 MSTORE PUSH1 0x20 ADD PUSH1 0x40 MLOAD DUP1 PUSH1 0x40 ADD PUSH1 0x40 MSTORE DUP1 PUSH1 0x2 DUP2 MSTORE PUSH1 0x20 ADD PUSH32 0x424F000000000000000000000000000000000000000000000000000000000000 DUP2 MSTORE POP DUP2 MSTORE POP DUP2 MSTORE PUSH1 0x20 ADD PUSH1 0x40 MLOAD DUP1 PUSH1 0x40 ADD PUSH1 0x40 MSTORE DUP1 PUSH1 0x40 MLOAD DUP1 PUSH1 0x40 ADD PUSH1 0x40 MSTORE DUP1 PUSH1 0x16 DUP2 MSTORE PUSH1 0x20 ADD PUSH32 0x426F736E696120616E64204865727A65676F76696E6100000000000000000000 DUP2 MSTORE POP DUP2 MSTORE PUSH1 0x20 ADD PUSH1 0x40 MLOAD DUP1 PUSH1 0x40 ADD PUSH1 0x40 MSTORE DUP1 PUSH1 0x2 DUP2 MSTORE PUSH1 0x20 ADD PUSH32 0x4241000000000000000000000000000000000000000000000000000000000000 DUP2 MSTORE POP DUP2 MSTORE POP DUP2 MSTORE PUSH1 0x20 ADD PUSH1 0x40 MLOAD DUP1 PUSH1 0x40 ADD PUSH1 0x40 MSTORE DUP1 PUSH1 0x40 MLOAD DUP1 PUSH1 0x40 ADD PUSH1 0x40 MSTORE DUP1 PUSH1 0x8 DUP2 MSTORE PUSH1 0x20 ADD PUSH32 0x426F747377616E61000000000000000000000000000000000000000000000000 DUP2 MSTORE POP DUP2 MSTORE PUSH1 0x20 ADD PUSH1 0x40 MLOAD DUP1 PUSH1 0x40 ADD PUSH1 0x40 MSTORE DUP1 PUSH1 0x2 DUP2 MSTORE PUSH1 0x20 ADD PUSH32 0x4257000000000000000000000000000000000000000000000000000000000000 DUP2 MSTORE POP DUP2 MSTORE POP DUP2 MSTORE PUSH1 0x20 ADD PUSH1 0x40 MLOAD DUP1 PUSH1 0x40 ADD PUSH1 0x40 MSTORE DUP1 PUSH1 0x40 MLOAD DUP1 PUSH1 0x40 ADD PUSH1 0x40 MSTORE DUP1 PUSH1 0x6 DUP2 MSTORE PUSH1 0x20 ADD PUSH32 0x4272617A696C0000000000000000000000000000000000000000000000000000 DUP2 MSTORE POP DUP2 MSTORE PUSH1 0x20 ADD PUSH1 0x40 MLOAD DUP1 PUSH1 0x40 ADD PUSH1 0x40 MSTORE DUP1 PUSH1 0x2 DUP2 MSTORE PUSH1 0x20 ADD PUSH32 0x4252000000000000000000000000000000000000000000000000000000000000 DUP2 MSTORE POP DUP2 MSTORE POP DUP2 MSTORE PUSH1 0x20 ADD PUSH1 0x40 MLOAD DUP1 PUSH1 0x40 ADD PUSH1 0x40 MSTORE DUP1 PUSH1 0x40 MLOAD DUP1 PUSH1 0x40 ADD PUSH1 0x40 MSTORE DUP1 PUSH1 0x6 DUP2 MSTORE PUSH1 0x20 ADD PUSH32 0x4272756E65690000000000000000000000000000000000000000000000000000 DUP2 MSTORE POP DUP2 MSTORE PUSH1 0x20 ADD PUSH1 0x40 MLOAD DUP1 PUSH1 0x40 ADD PUSH1 0x40 MSTORE DUP1 PUSH1 0x2 DUP2 MSTORE PUSH1 0x20 ADD PUSH32 0x424E000000000000000000000000000000000000000000000000000000000000 DUP2 MSTORE POP DUP2 MSTORE POP DUP2 MSTORE PUSH1 0x20 ADD PUSH1 0x40 MLOAD DUP1 PUSH1 0x40 ADD PUSH1 0x40 MSTORE DUP1 PUSH1 0x40 MLOAD DUP1 PUSH1 0x40 ADD PUSH1 0x40 MSTORE DUP1 PUSH1 0x8 DUP2 MSTORE PUSH1 0x20 ADD PUSH32 0x42756C6761726961000000000000000000000000000000000000000000000000 DUP2 MSTORE POP DUP2 MSTORE PUSH1 0x20 ADD PUSH1 0x40 MLOAD DUP1 PUSH1 0x40 ADD PUSH1 0x40 MSTORE DUP1 PUSH1 0x2 DUP2 MSTORE PUSH1 0x20 ADD PUSH32 0x4247000000000000000000000000000000000000000000000000000000000000 DUP2 MSTORE POP DUP2 MSTORE POP DUP2 MSTORE PUSH1 0x20 ADD PUSH1 0x40 MLOAD DUP1 PUSH1 0x40 ADD PUSH1 0x40 MSTORE DUP1 PUSH1 0x40 MLOAD DUP1 PUSH1 0x40 ADD PUSH1 0x40 MSTORE DUP1 PUSH1 0xC DUP2 MSTORE PUSH1 0x20 ADD PUSH32 0x4275726B696E61204661736F0000000000000000000000000000000000000000 DUP2 MSTORE POP DUP2 MSTORE PUSH1 0x20 ADD PUSH1 0x40 MLOAD DUP1 PUSH1 0x40 ADD PUSH1 0x40 MSTORE DUP1 PUSH1 0x2 DUP2 MSTORE PUSH1 0x20 ADD PUSH32 0x4246000000000000000000000000000000000000000000000000000000000000 DUP2 MSTORE POP DUP2 MSTORE POP DUP2 MSTORE PUSH1 0x20 ADD PUSH1 0x40 MLOAD DUP1 PUSH1 0x40 ADD PUSH1 0x40 MSTORE DUP1 PUSH1 0x40 MLOAD DUP1 PUSH1 0x40 ADD PUSH1 0x40 MSTORE DUP1 PUSH1 0x7 DUP2 MSTORE PUSH1 0x20 ADD PUSH32 0x427572756E646900000000000000000000000000000000000000000000000000 DUP2 MSTORE POP DUP2 MSTORE PUSH1 0x20 ADD PUSH1 0x40 MLOAD DUP1 PUSH1 0x40 ADD PUSH1 0x40 MSTORE DUP1 PUSH1 0x2 DUP2 MSTORE PUSH1 0x20 ADD PUSH32 0x4249000000000000000000000000000000000000000000000000000000000000 DUP2 MSTORE POP DUP2 MSTORE POP DUP2 MSTORE PUSH1 0x20 ADD PUSH1 0x40 MLOAD DUP1 PUSH1 0x40 ADD PUSH1 0x40 MSTORE DUP1 PUSH1 0x40 MLOAD DUP1 PUSH1 0x40 ADD PUSH1 0x40 MSTORE DUP1 PUSH1 0xA DUP2 MSTORE PUSH1 0x20 ADD PUSH32 0x4361626F20566572646500000000000000000000000000000000000000000000 DUP2 MSTORE POP DUP2 MSTORE PUSH1 0x20 ADD PUSH1 0x40 MLOAD DUP1 PUSH1 0x40 ADD PUSH1 0x40 MSTORE DUP1 PUSH1 0x2 DUP2 MSTORE PUSH1 0x20 ADD PUSH32 0x4356000000000000000000000000000000000000000000000000000000000000 DUP2 MSTORE POP DUP2 MSTORE POP DUP2 MSTORE PUSH1 0x20 ADD PUSH1 0x40 MLOAD DUP1 PUSH1 0x40 ADD PUSH1 0x40 MSTORE DUP1 PUSH1 0x40 MLOAD DUP1 PUSH1 0x40 ADD PUSH1 0x40 MSTORE DUP1 PUSH1 0x8 DUP2 MSTORE PUSH1 0x20 ADD PUSH32 0x43616D626F646961000000000000000000000000000000000000000000000000 DUP2 MSTORE POP DUP2 MSTORE PUSH1 0x20 ADD PUSH1 0x40 MLOAD DUP1 PUSH1 0x40 ADD PUSH1 0x40 MSTORE DUP1 PUSH1 0x2 DUP2 MSTORE PUSH1 0x20 ADD PUSH32 0x4B48000000000000000000000000000000000000000000000000000000000000 DUP2 MSTORE POP DUP2 MSTORE POP DUP2 MSTORE PUSH1 0x20 ADD PUSH1 0x40 MLOAD DUP1 PUSH1 0x40 ADD PUSH1 0x40 MSTORE DUP1 PUSH1 0x40 MLOAD DUP1 PUSH1 0x40 ADD PUSH1 0x40 MSTORE DUP1 PUSH1 0x8 DUP2 MSTORE PUSH1 0x20 ADD PUSH32 0x43616D65726F6F6E000000000000000000000000000000000000000000000000 DUP2 MSTORE POP DUP2 MSTORE PUSH1 0x20 ADD PUSH1 0x40 MLOAD DUP1 PUSH1 0x40 ADD PUSH1 0x40 MSTORE DUP1 PUSH1 0x2 DUP2 MSTORE PUSH1 0x20 ADD PUSH32 0x434D000000000000000000000000000000000000000000000000000000000000 DUP2 MSTORE POP DUP2 MSTORE POP DUP2 MSTORE PUSH1 0x20 ADD PUSH1 0x40 MLOAD DUP1 PUSH1 0x40 ADD PUSH1 0x40 MSTORE DUP1 PUSH1 0x40 MLOAD DUP1 PUSH1 0x40 ADD PUSH1 0x40 MSTORE DUP1 PUSH1 0x6 DUP2 MSTORE PUSH1 0x20 ADD PUSH32 0x43616E6164610000000000000000000000000000000000000000000000000000 DUP2 MSTORE POP DUP2 MSTORE PUSH1 0x20 ADD PUSH1 0x40 MLOAD DUP1 PUSH1 0x40 ADD PUSH1 0x40 MSTORE DUP1 PUSH1 0x2 DUP2 MSTORE PUSH1 0x20 ADD PUSH32 0x4341000000000000000000000000000000000000000000000000000000000000 DUP2 MSTORE POP DUP2 MSTORE POP DUP2 MSTORE PUSH1 0x20 ADD PUSH1 0x40 MLOAD DUP1 PUSH1 0x40 ADD PUSH1 0x40 MSTORE DUP1 PUSH1 0x40 MLOAD DUP1 PUSH1 0x40 ADD PUSH1 0x40 MSTORE DUP1 PUSH1 0x18 DUP2 MSTORE PUSH1 0x20 ADD PUSH32 0x43656E7472616C204166726963616E2052657075626C69630000000000000000 DUP2 MSTORE POP DUP2 MSTORE PUSH1 0x20 ADD PUSH1 0x40 MLOAD DUP1 PUSH1 0x40 ADD PUSH1 0x40 MSTORE DUP1 PUSH1 0x2 DUP2 MSTORE PUSH1 0x20 ADD PUSH32 0x4346000000000000000000000000000000000000000000000000000000000000 DUP2 MSTORE POP DUP2 MSTORE POP DUP2 MSTORE PUSH1 0x20 ADD PUSH1 0x40 MLOAD DUP1 PUSH1 0x40 ADD PUSH1 0x40 MSTORE DUP1 PUSH1 0x40 MLOAD DUP1 PUSH1 0x40 ADD PUSH1 0x40 MSTORE DUP1 PUSH1 0x4 DUP2 MSTORE PUSH1 0x20 ADD PUSH32 0x4368616400000000000000000000000000000000000000000000000000000000 DUP2 MSTORE POP DUP2 MSTORE PUSH1 0x20 ADD PUSH1 0x40 MLOAD DUP1 PUSH1 0x40 ADD PUSH1 0x40 MSTORE DUP1 PUSH1 0x2 DUP2 MSTORE PUSH1 0x20 ADD PUSH32 0x5444000000000000000000000000000000000000000000000000000000000000 DUP2 MSTORE POP DUP2 MSTORE POP DUP2 MSTORE PUSH1 0x20 ADD PUSH1 0x40 MLOAD DUP1 PUSH1 0x40 ADD PUSH1 0x40 MSTORE DUP1 PUSH1 0x40 MLOAD DUP1 PUSH1 0x40 ADD PUSH1 0x40 MSTORE DUP1 PUSH1 0x5 DUP2 MSTORE PUSH1 0x20 ADD PUSH32 0x4368696C65000000000000000000000000000000000000000000000000000000 DUP2 MSTORE POP DUP2 MSTORE PUSH1 0x20 ADD PUSH1 0x40 MLOAD DUP1 PUSH1 0x40 ADD PUSH1 0x40 MSTORE DUP1 PUSH1 0x2 DUP2 MSTORE PUSH1 0x20 ADD PUSH32 0x434C000000000000000000000000000000000000000000000000000000000000 DUP2 MSTORE POP DUP2 MSTORE POP DUP2 MSTORE PUSH1 0x20 ADD PUSH1 0x40 MLOAD DUP1 PUSH1 0x40 ADD PUSH1 0x40 MSTORE DUP1 PUSH1 0x40 MLOAD DUP1 PUSH1 0x40 ADD PUSH1 0x40 MSTORE DUP1 PUSH1 0x5 DUP2 MSTORE PUSH1 0x20 ADD PUSH32 0x4368696E61000000000000000000000000000000000000000000000000000000 DUP2 MSTORE POP DUP2 MSTORE PUSH1 0x20 ADD PUSH1 0x40 MLOAD DUP1 PUSH1 0x40 ADD PUSH1 0x40 MSTORE DUP1 PUSH1 0x2 DUP2 MSTORE PUSH1 0x20 ADD PUSH32 0x434E000000000000000000000000000000000000000000000000000000000000 DUP2 MSTORE POP DUP2 MSTORE POP DUP2 MSTORE PUSH1 0x20 ADD PUSH1 0x40 MLOAD DUP1 PUSH1 0x40 ADD PUSH1 0x40 MSTORE DUP1 PUSH1 0x40 MLOAD DUP1 PUSH1 0x40 ADD PUSH1 0x40 MSTORE DUP1 PUSH1 0x8 DUP2 MSTORE PUSH1 0x20 ADD PUSH32 0x436F6C6F6D626961000000000000000000000000000000000000000000000000 DUP2 MSTORE POP DUP2 MSTORE PUSH1 0x20 ADD PUSH1 0x40 MLOAD DUP1 PUSH1 0x40 ADD PUSH1 0x40 MSTORE DUP1 PUSH1 0x2 DUP2 MSTORE PUSH1 0x20 ADD PUSH32 0x434F000000000000000000000000000000000000000000000000000000000000 DUP2 MSTORE POP DUP2 MSTORE POP DUP2 MSTORE PUSH1 0x20 ADD PUSH1 0x40 MLOAD DUP1 PUSH1 0x40 ADD PUSH1 0x40 MSTORE DUP1 PUSH1 0x40 MLOAD DUP1 PUSH1 0x40 ADD PUSH1 0x40 MSTORE DUP1 PUSH1 0x7 DUP2 MSTORE PUSH1 0x20 ADD PUSH32 0x436F6D6F726F7300000000000000000000000000000000000000000000000000 DUP2 MSTORE POP DUP2 MSTORE PUSH1 0x20 ADD PUSH1 0x40 MLOAD DUP1 PUSH1 0x40 ADD PUSH1 0x40 MSTORE DUP1 PUSH1 0x2 DUP2 MSTORE PUSH1 0x20 ADD PUSH32 0x4B4D000000000000000000000000000000000000000000000000000000000000 DUP2 MSTORE POP DUP2 MSTORE POP DUP2 MSTORE PUSH1 0x20 ADD PUSH1 0x40 MLOAD DUP1 PUSH1 0x40 ADD PUSH1 0x40 MSTORE DUP1 PUSH1 0x40 MLOAD DUP1 PUSH1 0x40 ADD PUSH1 0x40 MSTORE DUP1 PUSH1 0x19 DUP2 MSTORE PUSH1 0x20 ADD PUSH32 0x436F6E676F2028436F6E676F2D4272617A7A6176696C6C652900000000000000 DUP2 MSTORE POP DUP2 MSTORE PUSH1 0x20 ADD PUSH1 0x40 MLOAD DUP1 PUSH1 0x40 ADD PUSH1 0x40 MSTORE DUP1 PUSH1 0x2 DUP2 MSTORE PUSH1 0x20 ADD PUSH32 0x4347000000000000000000000000000000000000000000000000000000000000 DUP2 MSTORE POP DUP2 MSTORE POP DUP2 MSTORE PUSH1 0x20 ADD PUSH1 0x40 MLOAD DUP1 PUSH1 0x40 ADD PUSH1 0x40 MSTORE DUP1 PUSH1 0x40 MLOAD DUP1 PUSH1 0x40 ADD PUSH1 0x40 MSTORE DUP1 PUSH1 0xB DUP2 MSTORE PUSH1 0x20 ADD PUSH32 0x436F6E676F202844524329000000000000000000000000000000000000000000 DUP2 MSTORE POP DUP2 MSTORE PUSH1 0x20 ADD PUSH1 0x40 MLOAD DUP1 PUSH1 0x40 ADD PUSH1 0x40 MSTORE DUP1 PUSH1 0x2 DUP2 MSTORE PUSH1 0x20 ADD PUSH32 0x4344000000000000000000000000000000000000000000000000000000000000 DUP2 MSTORE POP DUP2 MSTORE POP DUP2 MSTORE PUSH1 0x20 ADD PUSH1 0x40 MLOAD DUP1 PUSH1 0x40 ADD PUSH1 0x40 MSTORE DUP1 PUSH1 0x40 MLOAD DUP1 PUSH1 0x40 ADD PUSH1 0x40 MSTORE DUP1 PUSH1 0xA DUP2 MSTORE PUSH1 0x20 ADD PUSH32 0x436F737461205269636100000000000000000000000000000000000000000000 DUP2 MSTORE POP DUP2 MSTORE PUSH1 0x20 ADD PUSH1 0x40 MLOAD DUP1 PUSH1 0x40 ADD PUSH1 0x40 MSTORE DUP1 PUSH1 0x2 DUP2 MSTORE PUSH1 0x20 ADD PUSH32 0x4352000000000000000000000000000000000000000000000000000000000000 DUP2 MSTORE POP DUP2 MSTORE POP DUP2 MSTORE PUSH1 0x20 ADD PUSH1 0x40 MLOAD DUP1 PUSH1 0x40 ADD PUSH1 0x40 MSTORE DUP1 PUSH1 0x40 MLOAD DUP1 PUSH1 0x40 ADD PUSH1 0x40 MSTORE DUP1 PUSH1 0x7 DUP2 MSTORE PUSH1 0x20 ADD PUSH32 0x43726F6174696100000000000000000000000000000000000000000000000000 DUP2 MSTORE POP DUP2 MSTORE PUSH1 0x20 ADD PUSH1 0x40 MLOAD DUP1 PUSH1 0x40 ADD PUSH1 0x40 MSTORE DUP1 PUSH1 0x2 DUP2 MSTORE PUSH1 0x20 ADD PUSH32 0x4852000000000000000000000000000000000000000000000000000000000000 DUP2 MSTORE POP DUP2 MSTORE POP DUP2 MSTORE PUSH1 0x20 ADD PUSH1 0x40 MLOAD DUP1 PUSH1 0x40 ADD PUSH1 0x40 MSTORE DUP1 PUSH1 0x40 MLOAD DUP1 PUSH1 0x40 ADD PUSH1 0x40 MSTORE DUP1 PUSH1 0x4 DUP2 MSTORE PUSH1 0x20 ADD PUSH32 0x4375626100000000000000000000000000000000000000000000000000000000 DUP2 MSTORE POP DUP2 MSTORE PUSH1 0x20 ADD PUSH1 0x40 MLOAD DUP1 PUSH1 0x40 ADD PUSH1 0x40 MSTORE DUP1 PUSH1 0x2 DUP2 MSTORE PUSH1 0x20 ADD PUSH32 0x4355000000000000000000000000000000000000000000000000000000000000 DUP2 MSTORE POP DUP2 MSTORE POP DUP2 MSTORE PUSH1 0x20 ADD PUSH1 0x40 MLOAD DUP1 PUSH1 0x40 ADD PUSH1 0x40 MSTORE DUP1 PUSH1 0x40 MLOAD DUP1 PUSH1 0x40 ADD PUSH1 0x40 MSTORE DUP1 PUSH1 0x6 DUP2 MSTORE PUSH1 0x20 ADD PUSH32 0x4379707275730000000000000000000000000000000000000000000000000000 DUP2 MSTORE POP DUP2 MSTORE PUSH1 0x20 ADD PUSH1 0x40 MLOAD DUP1 PUSH1 0x40 ADD PUSH1 0x40 MSTORE DUP1 PUSH1 0x2 DUP2 MSTORE PUSH1 0x20 ADD PUSH32 0x4359000000000000000000000000000000000000000000000000000000000000 DUP2 MSTORE POP DUP2 MSTORE POP DUP2 MSTORE PUSH1 0x20 ADD PUSH1 0x40 MLOAD DUP1 PUSH1 0x40 ADD PUSH1 0x40 MSTORE DUP1 PUSH1 0x40 MLOAD DUP1 PUSH1 0x40 ADD PUSH1 0x40 MSTORE DUP1 PUSH1 0x7 DUP2 MSTORE PUSH1 0x20 ADD PUSH32 0x437A656368696100000000000000000000000000000000000000000000000000 DUP2 MSTORE POP DUP2 MSTORE PUSH1 0x20 ADD PUSH1 0x40 MLOAD DUP1 PUSH1 0x40 ADD PUSH1 0x40 MSTORE DUP1 PUSH1 0x2 DUP2 MSTORE PUSH1 0x20 ADD PUSH32 0x435A000000000000000000000000000000000000000000000000000000000000 DUP2 MSTORE POP DUP2 MSTORE POP DUP2 MSTORE PUSH1 0x20 ADD PUSH1 0x40 MLOAD DUP1 PUSH1 0x40 ADD PUSH1 0x40 MSTORE DUP1 PUSH1 0x40 MLOAD DUP1 PUSH1 0x40 ADD PUSH1 0x40 MSTORE DUP1 PUSH1 0x7 DUP2 MSTORE PUSH1 0x20 ADD PUSH32 0x44656E6D61726B00000000000000000000000000000000000000000000000000 DUP2 MSTORE POP DUP2 MSTORE PUSH1 0x20 ADD PUSH1 0x40 MLOAD DUP1 PUSH1 0x40 ADD PUSH1 0x40 MSTORE DUP1 PUSH1 0x2 DUP2 MSTORE PUSH1 0x20 ADD PUSH32 0x444B000000000000000000000000000000000000000000000000000000000000 DUP2 MSTORE POP DUP2 MSTORE POP DUP2 MSTORE PUSH1 0x20 ADD PUSH1 0x40 MLOAD DUP1 PUSH1 0x40 ADD PUSH1 0x40 MSTORE DUP1 PUSH1 0x40 MLOAD DUP1 PUSH1 0x40 ADD PUSH1 0x40 MSTORE DUP1 PUSH1 0x8 DUP2 MSTORE PUSH1 0x20 ADD PUSH32 0x446A69626F757469000000000000000000000000000000000000000000000000 DUP2 MSTORE POP DUP2 MSTORE PUSH1 0x20 ADD PUSH1 0x40 MLOAD DUP1 PUSH1 0x40 ADD PUSH1 0x40 MSTORE DUP1 PUSH1 0x2 DUP2 MSTORE PUSH1 0x20 ADD PUSH32 0x444A000000000000000000000000000000000000000000000000000000000000 DUP2 MSTORE POP DUP2 MSTORE POP DUP2 MSTORE PUSH1 0x20 ADD PUSH1 0x40 MLOAD DUP1 PUSH1 0x40 ADD PUSH1 0x40 MSTORE DUP1 PUSH1 0x40 MLOAD DUP1 PUSH1 0x40 ADD PUSH1 0x40 MSTORE DUP1 PUSH1 0x8 DUP2 MSTORE PUSH1 0x20 ADD PUSH32 0x446F6D696E696361000000000000000000000000000000000000000000000000 DUP2 MSTORE POP DUP2 MSTORE PUSH1 0x20 ADD PUSH1 0x40 MLOAD DUP1 PUSH1 0x40 ADD PUSH1 0x40 MSTORE DUP1 PUSH1 0x2 DUP2 MSTORE PUSH1 0x20 ADD PUSH32 0x444D000000000000000000000000000000000000000000000000000000000000 DUP2 MSTORE POP DUP2 MSTORE POP DUP2 MSTORE PUSH1 0x20 ADD PUSH1 0x40 MLOAD DUP1 PUSH1 0x40 ADD PUSH1 0x40 MSTORE DUP1 PUSH1 0x40 MLOAD DUP1 PUSH1 0x40 ADD PUSH1 0x40 MSTORE DUP1 PUSH1 0x12 DUP2 MSTORE PUSH1 0x20 ADD PUSH32 0x446F6D696E6963616E2052657075626C69630000000000000000000000000000 DUP2 MSTORE POP DUP2 MSTORE PUSH1 0x20 ADD PUSH1 0x40 MLOAD DUP1 PUSH1 0x40 ADD PUSH1 0x40 MSTORE DUP1 PUSH1 0x2 DUP2 MSTORE PUSH1 0x20 ADD PUSH32 0x444F000000000000000000000000000000000000000000000000000000000000 DUP2 MSTORE POP DUP2 MSTORE POP DUP2 MSTORE PUSH1 0x20 ADD PUSH1 0x40 MLOAD DUP1 PUSH1 0x40 ADD PUSH1 0x40 MSTORE DUP1 PUSH1 0x40 MLOAD DUP1 PUSH1 0x40 ADD PUSH1 0x40 MSTORE DUP1 PUSH1 0x7 DUP2 MSTORE PUSH1 0x20 ADD PUSH32 0x45637561646F7200000000000000000000000000000000000000000000000000 DUP2 MSTORE POP DUP2 MSTORE PUSH1 0x20 ADD PUSH1 0x40 MLOAD DUP1 PUSH1 0x40 ADD PUSH1 0x40 MSTORE DUP1 PUSH1 0x2 DUP2 MSTORE PUSH1 0x20 ADD PUSH32 0x4543000000000000000000000000000000000000000000000000000000000000 DUP2 MSTORE POP DUP2 MSTORE POP DUP2 MSTORE PUSH1 0x20 ADD PUSH1 0x40 MLOAD DUP1 PUSH1 0x40 ADD PUSH1 0x40 MSTORE DUP1 PUSH1 0x40 MLOAD DUP1 PUSH1 0x40 ADD PUSH1 0x40 MSTORE DUP1 PUSH1 0x5 DUP2 MSTORE PUSH1 0x20 ADD PUSH32 0x4567797074000000000000000000000000000000000000000000000000000000 DUP2 MSTORE POP DUP2 MSTORE PUSH1 0x20 ADD PUSH1 0x40 MLOAD DUP1 PUSH1 0x40 ADD PUSH1 0x40 MSTORE DUP1 PUSH1 0x2 DUP2 MSTORE PUSH1 0x20 ADD PUSH32 0x4547000000000000000000000000000000000000000000000000000000000000 DUP2 MSTORE POP DUP2 MSTORE POP DUP2 MSTORE PUSH1 0x20 ADD PUSH1 0x40 MLOAD DUP1 PUSH1 0x40 ADD PUSH1 0x40 MSTORE DUP1 PUSH1 0x40 MLOAD DUP1 PUSH1 0x40 ADD PUSH1 0x40 MSTORE DUP1 PUSH1 0xB DUP2 MSTORE PUSH1 0x20 ADD PUSH32 0x456C2053616C7661646F72000000000000000000000000000000000000000000 DUP2 MSTORE POP DUP2 MSTORE PUSH1 0x20 ADD PUSH1 0x40 MLOAD DUP1 PUSH1 0x40 ADD PUSH1 0x40 MSTORE DUP1 PUSH1 0x2 DUP2 MSTORE PUSH1 0x20 ADD PUSH32 0x5356000000000000000000000000000000000000000000000000000000000000 DUP2 MSTORE POP DUP2 MSTORE POP DUP2 MSTORE PUSH1 0x20 ADD PUSH1 0x40 MLOAD DUP1 PUSH1 0x40 ADD PUSH1 0x40 MSTORE DUP1 PUSH1 0x40 MLOAD DUP1 PUSH1 0x40 ADD PUSH1 0x40 MSTORE DUP1 PUSH1 0x11 DUP2 MSTORE PUSH1 0x20 ADD PUSH32 0x45717561746F7269616C204775696E6561000000000000000000000000000000 DUP2 MSTORE POP DUP2 MSTORE PUSH1 0x20 ADD PUSH1 0x40 MLOAD DUP1 PUSH1 0x40 ADD PUSH1 0x40 MSTORE DUP1 PUSH1 0x2 DUP2 MSTORE PUSH1 0x20 ADD PUSH32 0x4751000000000000000000000000000000000000000000000000000000000000 DUP2 MSTORE POP DUP2 MSTORE POP DUP2 MSTORE PUSH1 0x20 ADD PUSH1 0x40 MLOAD DUP1 PUSH1 0x40 ADD PUSH1 0x40 MSTORE DUP1 PUSH1 0x40 MLOAD DUP1 PUSH1 0x40 ADD PUSH1 0x40 MSTORE DUP1 PUSH1 0x7 DUP2 MSTORE PUSH1 0x20 ADD PUSH32 0x4572697472656100000000000000000000000000000000000000000000000000 DUP2 MSTORE POP DUP2 MSTORE PUSH1 0x20 ADD PUSH1 0x40 MLOAD DUP1 PUSH1 0x40 ADD PUSH1 0x40 MSTORE DUP1 PUSH1 0x2 DUP2 MSTORE PUSH1 0x20 ADD PUSH32 0x4552000000000000000000000000000000000000000000000000000000000000 DUP2 MSTORE POP DUP2 MSTORE POP DUP2 MSTORE PUSH1 0x20 ADD PUSH1 0x40 MLOAD DUP1 PUSH1 0x40 ADD PUSH1 0x40 MSTORE DUP1 PUSH1 0x40 MLOAD DUP1 PUSH1 0x40 ADD PUSH1 0x40 MSTORE DUP1 PUSH1 0x7 DUP2 MSTORE PUSH1 0x20 ADD PUSH32 0x4573746F6E696100000000000000000000000000000000000000000000000000 DUP2 MSTORE POP DUP2 MSTORE PUSH1 0x20 ADD PUSH1 0x40 MLOAD DUP1 PUSH1 0x40 ADD PUSH1 0x40 MSTORE DUP1 PUSH1 0x2 DUP2 MSTORE PUSH1 0x20 ADD PUSH32 0x4545000000000000000000000000000000000000000000000000000000000000 DUP2 MSTORE POP DUP2 MSTORE POP DUP2 MSTORE PUSH1 0x20 ADD PUSH1 0x40 MLOAD DUP1 PUSH1 0x40 ADD PUSH1 0x40 MSTORE DUP1 PUSH1 0x40 MLOAD DUP1 PUSH1 0x40 ADD PUSH1 0x40 MSTORE DUP1 PUSH1 0x8 DUP2 MSTORE PUSH1 0x20 ADD PUSH32 0x4573776174696E69000000000000000000000000000000000000000000000000 DUP2 MSTORE POP DUP2 MSTORE PUSH1 0x20 ADD PUSH1 0x40 MLOAD DUP1 PUSH1 0x40 ADD PUSH1 0x40 MSTORE DUP1 PUSH1 0x2 DUP2 MSTORE PUSH1 0x20 ADD PUSH32 0x535A000000000000000000000000000000000000000000000000000000000000 DUP2 MSTORE POP DUP2 MSTORE POP DUP2 MSTORE PUSH1 0x20 ADD PUSH1 0x40 MLOAD DUP1 PUSH1 0x40 ADD PUSH1 0x40 MSTORE DUP1 PUSH1 0x40 MLOAD DUP1 PUSH1 0x40 ADD PUSH1 0x40 MSTORE DUP1 PUSH1 0x8 DUP2 MSTORE PUSH1 0x20 ADD PUSH32 0x457468696F706961000000000000000000000000000000000000000000000000 DUP2 MSTORE POP DUP2 MSTORE PUSH1 0x20 ADD PUSH1 0x40 MLOAD DUP1 PUSH1 0x40 ADD PUSH1 0x40 MSTORE DUP1 PUSH1 0x2 DUP2 MSTORE PUSH1 0x20 ADD PUSH32 0x4554000000000000000000000000000000000000000000000000000000000000 DUP2 MSTORE POP DUP2 MSTORE POP DUP2 MSTORE PUSH1 0x20 ADD PUSH1 0x40 MLOAD DUP1 PUSH1 0x40 ADD PUSH1 0x40 MSTORE DUP1 PUSH1 0x40 MLOAD DUP1 PUSH1 0x40 ADD PUSH1 0x40 MSTORE DUP1 PUSH1 0x4 DUP2 MSTORE PUSH1 0x20 ADD PUSH32 0x46696A6900000000000000000000000000000000000000000000000000000000 DUP2 MSTORE POP DUP2 MSTORE PUSH1 0x20 ADD PUSH1 0x40 MLOAD DUP1 PUSH1 0x40 ADD PUSH1 0x40 MSTORE DUP1 PUSH1 0x2 DUP2 MSTORE PUSH1 0x20 ADD PUSH32 0x464A000000000000000000000000000000000000000000000000000000000000 DUP2 MSTORE POP DUP2 MSTORE POP DUP2 MSTORE PUSH1 0x20 ADD PUSH1 0x40 MLOAD DUP1 PUSH1 0x40 ADD PUSH1 0x40 MSTORE DUP1 PUSH1 0x40 MLOAD DUP1 PUSH1 0x40 ADD PUSH1 0x40 MSTORE DUP1 PUSH1 0x7 DUP2 MSTORE PUSH1 0x20 ADD PUSH32 0x46696E6C616E6400000000000000000000000000000000000000000000000000 DUP2 MSTORE POP DUP2 MSTORE PUSH1 0x20 ADD PUSH1 0x40 MLOAD DUP1 PUSH1 0x40 ADD PUSH1 0x40 MSTORE DUP1 PUSH1 0x2 DUP2 MSTORE PUSH1 0x20 ADD PUSH32 0x4649000000000000000000000000000000000000000000000000000000000000 DUP2 MSTORE POP DUP2 MSTORE POP DUP2 MSTORE PUSH1 0x20 ADD PUSH1 0x40 MLOAD DUP1 PUSH1 0x40 ADD PUSH1 0x40 MSTORE DUP1 PUSH1 0x40 MLOAD DUP1 PUSH1 0x40 ADD PUSH1 0x40 MSTORE DUP1 PUSH1 0x6 DUP2 MSTORE PUSH1 0x20 ADD PUSH32 0x4672616E63650000000000000000000000000000000000000000000000000000 DUP2 MSTORE POP DUP2 MSTORE PUSH1 0x20 ADD PUSH1 0x40 MLOAD DUP1 PUSH1 0x40 ADD PUSH1 0x40 MSTORE DUP1 PUSH1 0x2 DUP2 MSTORE PUSH1 0x20 ADD PUSH32 0x4652000000000000000000000000000000000000000000000000000000000000 DUP2 MSTORE POP DUP2 MSTORE POP DUP2 MSTORE PUSH1 0x20 ADD PUSH1 0x40 MLOAD DUP1 PUSH1 0x40 ADD PUSH1 0x40 MSTORE DUP1 PUSH1 0x40 MLOAD DUP1 PUSH1 0x40 ADD PUSH1 0x40 MSTORE DUP1 PUSH1 0x5 DUP2 MSTORE PUSH1 0x20 ADD PUSH32 0x4761626F6E000000000000000000000000000000000000000000000000000000 DUP2 MSTORE POP DUP2 MSTORE PUSH1 0x20 ADD PUSH1 0x40 MLOAD DUP1 PUSH1 0x40 ADD PUSH1 0x40 MSTORE DUP1 PUSH1 0x2 DUP2 MSTORE PUSH1 0x20 ADD PUSH32 0x4741000000000000000000000000000000000000000000000000000000000000 DUP2 MSTORE POP DUP2 MSTORE POP DUP2 MSTORE PUSH1 0x20 ADD PUSH1 0x40 MLOAD DUP1 PUSH1 0x40 ADD PUSH1 0x40 MSTORE DUP1 PUSH1 0x40 MLOAD DUP1 PUSH1 0x40 ADD PUSH1 0x40 MSTORE DUP1 PUSH1 0x6 DUP2 MSTORE PUSH1 0x20 ADD PUSH32 0x47616D6269610000000000000000000000000000000000000000000000000000 DUP2 MSTORE POP DUP2 MSTORE PUSH1 0x20 ADD PUSH1 0x40 MLOAD DUP1 PUSH1 0x40 ADD PUSH1 0x40 MSTORE DUP1 PUSH1 0x2 DUP2 MSTORE PUSH1 0x20 ADD PUSH32 0x474D000000000000000000000000000000000000000000000000000000000000 DUP2 MSTORE POP DUP2 MSTORE POP DUP2 MSTORE PUSH1 0x20 ADD PUSH1 0x40 MLOAD DUP1 PUSH1 0x40 ADD PUSH1 0x40 MSTORE DUP1 PUSH1 0x40 MLOAD DUP1 PUSH1 0x40 ADD PUSH1 0x40 MSTORE DUP1 PUSH1 0x7 DUP2 MSTORE PUSH1 0x20 ADD PUSH32 0x47656F7267696100000000000000000000000000000000000000000000000000 DUP2 MSTORE POP DUP2 MSTORE PUSH1 0x20 ADD PUSH1 0x40 MLOAD DUP1 PUSH1 0x40 ADD PUSH1 0x40 MSTORE DUP1 PUSH1 0x2 DUP2 MSTORE PUSH1 0x20 ADD PUSH32 0x4745000000000000000000000000000000000000000000000000000000000000 DUP2 MSTORE POP DUP2 MSTORE POP DUP2 MSTORE PUSH1 0x20 ADD PUSH1 0x40 MLOAD DUP1 PUSH1 0x40 ADD PUSH1 0x40 MSTORE DUP1 PUSH1 0x40 MLOAD DUP1 PUSH1 0x40 ADD PUSH1 0x40 MSTORE DUP1 PUSH1 0x7 DUP2 MSTORE PUSH1 0x20 ADD PUSH32 0x4765726D616E7900000000000000000000000000000000000000000000000000 DUP2 MSTORE POP DUP2 MSTORE PUSH1 0x20 ADD PUSH1 0x40 MLOAD DUP1 PUSH1 0x40 ADD PUSH1 0x40 MSTORE DUP1 PUSH1 0x2 DUP2 MSTORE PUSH1 0x20 ADD PUSH32 0x4445000000000000000000000000000000000000000000000000000000000000 DUP2 MSTORE POP DUP2 MSTORE POP DUP2 MSTORE PUSH1 0x20 ADD PUSH1 0x40 MLOAD DUP1 PUSH1 0x40 ADD PUSH1 0x40 MSTORE DUP1 PUSH1 0x40 MLOAD DUP1 PUSH1 0x40 ADD PUSH1 0x40 MSTORE DUP1 PUSH1 0x5 DUP2 MSTORE PUSH1 0x20 ADD PUSH32 0x4768616E61000000000000000000000000000000000000000000000000000000 DUP2 MSTORE POP DUP2 MSTORE PUSH1 0x20 ADD PUSH1 0x40 MLOAD DUP1 PUSH1 0x40 ADD PUSH1 0x40 MSTORE DUP1 PUSH1 0x2 DUP2 MSTORE PUSH1 0x20 ADD PUSH32 0x4748000000000000000000000000000000000000000000000000000000000000 DUP2 MSTORE POP DUP2 MSTORE POP DUP2 MSTORE PUSH1 0x20 ADD PUSH1 0x40 MLOAD DUP1 PUSH1 0x40 ADD PUSH1 0x40 MSTORE DUP1 PUSH1 0x40 MLOAD DUP1 PUSH1 0x40 ADD PUSH1 0x40 MSTORE DUP1 PUSH1 0x6 DUP2 MSTORE PUSH1 0x20 ADD PUSH32 0x4772656563650000000000000000000000000000000000000000000000000000 DUP2 MSTORE POP DUP2 MSTORE PUSH1 0x20 ADD PUSH1 0x40 MLOAD DUP1 PUSH1 0x40 ADD PUSH1 0x40 MSTORE DUP1 PUSH1 0x2 DUP2 MSTORE PUSH1 0x20 ADD PUSH32 0x4752000000000000000000000000000000000000000000000000000000000000 DUP2 MSTORE POP DUP2 MSTORE POP DUP2 MSTORE PUSH1 0x20 ADD PUSH1 0x40 MLOAD DUP1 PUSH1 0x40 ADD PUSH1 0x40 MSTORE DUP1 PUSH1 0x40 MLOAD DUP1 PUSH1 0x40 ADD PUSH1 0x40 MSTORE DUP1 PUSH1 0x7 DUP2 MSTORE PUSH1 0x20 ADD PUSH32 0x4772656E61646100000000000000000000000000000000000000000000000000 DUP2 MSTORE POP DUP2 MSTORE PUSH1 0x20 ADD PUSH1 0x40 MLOAD DUP1 PUSH1 0x40 ADD PUSH1 0x40 MSTORE DUP1 PUSH1 0x2 DUP2 MSTORE PUSH1 0x20 ADD PUSH32 0x4744000000000000000000000000000000000000000000000000000000000000 DUP2 MSTORE POP DUP2 MSTORE POP DUP2 MSTORE PUSH1 0x20 ADD PUSH1 0x40 MLOAD DUP1 PUSH1 0x40 ADD PUSH1 0x40 MSTORE DUP1 PUSH1 0x40 MLOAD DUP1 PUSH1 0x40 ADD PUSH1 0x40 MSTORE DUP1 PUSH1 0x9 DUP2 MSTORE PUSH1 0x20 ADD PUSH32 0x47756174656D616C610000000000000000000000000000000000000000000000 DUP2 MSTORE POP DUP2 MSTORE PUSH1 0x20 ADD PUSH1 0x40 MLOAD DUP1 PUSH1 0x40 ADD PUSH1 0x40 MSTORE DUP1 PUSH1 0x2 DUP2 MSTORE PUSH1 0x20 ADD PUSH32 0x4754000000000000000000000000000000000000000000000000000000000000 DUP2 MSTORE POP DUP2 MSTORE POP DUP2 MSTORE PUSH1 0x20 ADD PUSH1 0x40 MLOAD DUP1 PUSH1 0x40 ADD PUSH1 0x40 MSTORE DUP1 PUSH1 0x40 MLOAD DUP1 PUSH1 0x40 ADD PUSH1 0x40 MSTORE DUP1 PUSH1 0x6 DUP2 MSTORE PUSH1 0x20 ADD PUSH32 0x4775696E65610000000000000000000000000000000000000000000000000000 DUP2 MSTORE POP DUP2 MSTORE PUSH1 0x20 ADD PUSH1 0x40 MLOAD DUP1 PUSH1 0x40 ADD PUSH1 0x40 MSTORE DUP1 PUSH1 0x2 DUP2 MSTORE PUSH1 0x20 ADD PUSH32 0x474E000000000000000000000000000000000000000000000000000000000000 DUP2 MSTORE POP DUP2 MSTORE POP DUP2 MSTORE PUSH1 0x20 ADD PUSH1 0x40 MLOAD DUP1 PUSH1 0x40 ADD PUSH1 0x40 MSTORE DUP1 PUSH1 0x40 MLOAD DUP1 PUSH1 0x40 ADD PUSH1 0x40 MSTORE DUP1 PUSH1 0xD DUP2 MSTORE PUSH1 0x20 ADD PUSH32 0x4775696E65612D42697373617500000000000000000000000000000000000000 DUP2 MSTORE POP DUP2 MSTORE PUSH1 0x20 ADD PUSH1 0x40 MLOAD DUP1 PUSH1 0x40 ADD PUSH1 0x40 MSTORE DUP1 PUSH1 0x2 DUP2 MSTORE PUSH1 0x20 ADD PUSH32 0x4757000000000000000000000000000000000000000000000000000000000000 DUP2 MSTORE POP DUP2 MSTORE POP DUP2 MSTORE PUSH1 0x20 ADD PUSH1 0x40 MLOAD DUP1 PUSH1 0x40 ADD PUSH1 0x40 MSTORE DUP1 PUSH1 0x40 MLOAD DUP1 PUSH1 0x40 ADD PUSH1 0x40 MSTORE DUP1 PUSH1 0x6 DUP2 MSTORE PUSH1 0x20 ADD PUSH32 0x477579616E610000000000000000000000000000000000000000000000000000 DUP2 MSTORE POP DUP2 MSTORE PUSH1 0x20 ADD PUSH1 0x40 MLOAD DUP1 PUSH1 0x40 ADD PUSH1 0x40 MSTORE DUP1 PUSH1 0x2 DUP2 MSTORE PUSH1 0x20 ADD PUSH32 0x4759000000000000000000000000000000000000000000000000000000000000 DUP2 MSTORE POP DUP2 MSTORE POP DUP2 MSTORE PUSH1 0x20 ADD PUSH1 0x40 MLOAD DUP1 PUSH1 0x40 ADD PUSH1 0x40 MSTORE DUP1 PUSH1 0x40 MLOAD DUP1 PUSH1 0x40 ADD PUSH1 0x40 MSTORE DUP1 PUSH1 0x5 DUP2 MSTORE PUSH1 0x20 ADD PUSH32 0x4861697469000000000000000000000000000000000000000000000000000000 DUP2 MSTORE POP DUP2 MSTORE PUSH1 0x20 ADD PUSH1 0x40 MLOAD DUP1 PUSH1 0x40 ADD PUSH1 0x40 MSTORE DUP1 PUSH1 0x2 DUP2 MSTORE PUSH1 0x20 ADD PUSH32 0x4854000000000000000000000000000000000000000000000000000000000000 DUP2 MSTORE POP DUP2 MSTORE POP DUP2 MSTORE PUSH1 0x20 ADD PUSH1 0x40 MLOAD DUP1 PUSH1 0x40 ADD PUSH1 0x40 MSTORE DUP1 PUSH1 0x40 MLOAD DUP1 PUSH1 0x40 ADD PUSH1 0x40 MSTORE DUP1 PUSH1 0x8 DUP2 MSTORE PUSH1 0x20 ADD PUSH32 0x486F6E6475726173000000000000000000000000000000000000000000000000 DUP2 MSTORE POP DUP2 MSTORE PUSH1 0x20 ADD PUSH1 0x40 MLOAD DUP1 PUSH1 0x40 ADD PUSH1 0x40 MSTORE DUP1 PUSH1 0x2 DUP2 MSTORE PUSH1 0x20 ADD PUSH32 0x484E000000000000000000000000000000000000000000000000000000000000 DUP2 MSTORE POP DUP2 MSTORE POP DUP2 MSTORE PUSH1 0x20 ADD PUSH1 0x40 MLOAD DUP1 PUSH1 0x40 ADD PUSH1 0x40 MSTORE DUP1 PUSH1 0x40 MLOAD DUP1 PUSH1 0x40 ADD PUSH1 0x40 MSTORE DUP1 PUSH1 0x7 DUP2 MSTORE PUSH1 0x20 ADD PUSH32 0x48756E6761727900000000000000000000000000000000000000000000000000 DUP2 MSTORE POP DUP2 MSTORE PUSH1 0x20 ADD PUSH1 0x40 MLOAD DUP1 PUSH1 0x40 ADD PUSH1 0x40 MSTORE DUP1 PUSH1 0x2 DUP2 MSTORE PUSH1 0x20 ADD PUSH32 0x4855000000000000000000000000000000000000000000000000000000000000 DUP2 MSTORE POP DUP2 MSTORE POP DUP2 MSTORE PUSH1 0x20 ADD PUSH1 0x40 MLOAD DUP1 PUSH1 0x40 ADD PUSH1 0x40 MSTORE DUP1 PUSH1 0x40 MLOAD DUP1 PUSH1 0x40 ADD PUSH1 0x40 MSTORE DUP1 PUSH1 0x7 DUP2 MSTORE PUSH1 0x20 ADD PUSH32 0x4963656C616E6400000000000000000000000000000000000000000000000000 DUP2 MSTORE POP DUP2 MSTORE PUSH1 0x20 ADD PUSH1 0x40 MLOAD DUP1 PUSH1 0x40 ADD PUSH1 0x40 MSTORE DUP1 PUSH1 0x2 DUP2 MSTORE PUSH1 0x20 ADD PUSH32 0x4953000000000000000000000000000000000000000000000000000000000000 DUP2 MSTORE POP DUP2 MSTORE POP DUP2 MSTORE PUSH1 0x20 ADD PUSH1 0x40 MLOAD DUP1 PUSH1 0x40 ADD PUSH1 0x40 MSTORE DUP1 PUSH1 0x40 MLOAD DUP1 PUSH1 0x40 ADD PUSH1 0x40 MSTORE DUP1 PUSH1 0x5 DUP2 MSTORE PUSH1 0x20 ADD PUSH32 0x496E646961000000000000000000000000000000000000000000000000000000 DUP2 MSTORE POP DUP2 MSTORE PUSH1 0x20 ADD PUSH1 0x40 MLOAD DUP1 PUSH1 0x40 ADD PUSH1 0x40 MSTORE DUP1 PUSH1 0x2 DUP2 MSTORE PUSH1 0x20 ADD PUSH32 0x494E000000000000000000000000000000000000000000000000000000000000 DUP2 MSTORE POP DUP2 MSTORE POP DUP2 MSTORE PUSH1 0x20 ADD PUSH1 0x40 MLOAD DUP1 PUSH1 0x40 ADD PUSH1 0x40 MSTORE DUP1 PUSH1 0x40 MLOAD DUP1 PUSH1 0x40 ADD PUSH1 0x40 MSTORE DUP1 PUSH1 0x9 DUP2 MSTORE PUSH1 0x20 ADD PUSH32 0x496E646F6E657369610000000000000000000000000000000000000000000000 DUP2 MSTORE POP DUP2 MSTORE PUSH1 0x20 ADD PUSH1 0x40 MLOAD DUP1 PUSH1 0x40 ADD PUSH1 0x40 MSTORE DUP1 PUSH1 0x2 DUP2 MSTORE PUSH1 0x20 ADD PUSH32 0x4944000000000000000000000000000000000000000000000000000000000000 DUP2 MSTORE POP DUP2 MSTORE POP DUP2 MSTORE PUSH1 0x20 ADD PUSH1 0x40 MLOAD DUP1 PUSH1 0x40 ADD PUSH1 0x40 MSTORE DUP1 PUSH1 0x40 MLOAD DUP1 PUSH1 0x40 ADD PUSH1 0x40 MSTORE DUP1 PUSH1 0x4 DUP2 MSTORE PUSH1 0x20 ADD PUSH32 0x4972616E00000000000000000000000000000000000000000000000000000000 DUP2 MSTORE POP DUP2 MSTORE PUSH1 0x20 ADD PUSH1 0x40 MLOAD DUP1 PUSH1 0x40 ADD PUSH1 0x40 MSTORE DUP1 PUSH1 0x2 DUP2 MSTORE PUSH1 0x20 ADD PUSH32 0x4952000000000000000000000000000000000000000000000000000000000000 DUP2 MSTORE POP DUP2 MSTORE POP DUP2 MSTORE PUSH1 0x20 ADD PUSH1 0x40 MLOAD DUP1 PUSH1 0x40 ADD PUSH1 0x40 MSTORE DUP1 PUSH1 0x40 MLOAD DUP1 PUSH1 0x40 ADD PUSH1 0x40 MSTORE DUP1 PUSH1 0x4 DUP2 MSTORE PUSH1 0x20 ADD PUSH32 0x4972617100000000000000000000000000000000000000000000000000000000 DUP2 MSTORE POP DUP2 MSTORE PUSH1 0x20 ADD PUSH1 0x40 MLOAD DUP1 PUSH1 0x40 ADD PUSH1 0x40 MSTORE DUP1 PUSH1 0x2 DUP2 MSTORE PUSH1 0x20 ADD PUSH32 0x4951000000000000000000000000000000000000000000000000000000000000 DUP2 MSTORE POP DUP2 MSTORE POP DUP2 MSTORE PUSH1 0x20 ADD PUSH1 0x40 MLOAD DUP1 PUSH1 0x40 ADD PUSH1 0x40 MSTORE DUP1 PUSH1 0x40 MLOAD DUP1 PUSH1 0x40 ADD PUSH1 0x40 MSTORE DUP1 PUSH1 0x7 DUP2 MSTORE PUSH1 0x20 ADD PUSH32 0x4972656C616E6400000000000000000000000000000000000000000000000000 DUP2 MSTORE POP DUP2 MSTORE PUSH1 0x20 ADD PUSH1 0x40 MLOAD DUP1 PUSH1 0x40 ADD PUSH1 0x40 MSTORE DUP1 PUSH1 0x2 DUP2 MSTORE PUSH1 0x20 ADD PUSH32 0x4945000000000000000000000000000000000000000000000000000000000000 DUP2 MSTORE POP DUP2 MSTORE POP DUP2 MSTORE PUSH1 0x20 ADD PUSH1 0x40 MLOAD DUP1 PUSH1 0x40 ADD PUSH1 0x40 MSTORE DUP1 PUSH1 0x40 MLOAD DUP1 PUSH1 0x40 ADD PUSH1 0x40 MSTORE DUP1 PUSH1 0x6 DUP2 MSTORE PUSH1 0x20 ADD PUSH32 0x49737261656C0000000000000000000000000000000000000000000000000000 DUP2 MSTORE POP DUP2 MSTORE PUSH1 0x20 ADD PUSH1 0x40 MLOAD DUP1 PUSH1 0x40 ADD PUSH1 0x40 MSTORE DUP1 PUSH1 0x2 DUP2 MSTORE PUSH1 0x20 ADD PUSH32 0x494C000000000000000000000000000000000000000000000000000000000000 DUP2 MSTORE POP DUP2 MSTORE POP DUP2 MSTORE PUSH1 0x20 ADD PUSH1 0x40 MLOAD DUP1 PUSH1 0x40 ADD PUSH1 0x40 MSTORE DUP1 PUSH1 0x40 MLOAD DUP1 PUSH1 0x40 ADD PUSH1 0x40 MSTORE DUP1 PUSH1 0x5 DUP2 MSTORE PUSH1 0x20 ADD PUSH32 0x4974616C79000000000000000000000000000000000000000000000000000000 DUP2 MSTORE POP DUP2 MSTORE PUSH1 0x20 ADD PUSH1 0x40 MLOAD DUP1 PUSH1 0x40 ADD PUSH1 0x40 MSTORE DUP1 PUSH1 0x2 DUP2 MSTORE PUSH1 0x20 ADD PUSH32 0x4954000000000000000000000000000000000000000000000000000000000000 DUP2 MSTORE POP DUP2 MSTORE POP DUP2 MSTORE PUSH1 0x20 ADD PUSH1 0x40 MLOAD DUP1 PUSH1 0x40 ADD PUSH1 0x40 MSTORE DUP1 PUSH1 0x40 MLOAD DUP1 PUSH1 0x40 ADD PUSH1 0x40 MSTORE DUP1 PUSH1 0x7 DUP2 MSTORE PUSH1 0x20 ADD PUSH32 0x4A616D6169636100000000000000000000000000000000000000000000000000 DUP2 MSTORE POP DUP2 MSTORE PUSH1 0x20 ADD PUSH1 0x40 MLOAD DUP1 PUSH1 0x40 ADD PUSH1 0x40 MSTORE DUP1 PUSH1 0x2 DUP2 MSTORE PUSH1 0x20 ADD PUSH32 0x4A4D000000000000000000000000000000000000000000000000000000000000 DUP2 MSTORE POP DUP2 MSTORE POP DUP2 MSTORE PUSH1 0x20 ADD PUSH1 0x40 MLOAD DUP1 PUSH1 0x40 ADD PUSH1 0x40 MSTORE DUP1 PUSH1 0x40 MLOAD DUP1 PUSH1 0x40 ADD PUSH1 0x40 MSTORE DUP1 PUSH1 0x5 DUP2 MSTORE PUSH1 0x20 ADD PUSH32 0x4A6170616E000000000000000000000000000000000000000000000000000000 DUP2 MSTORE POP DUP2 MSTORE PUSH1 0x20 ADD PUSH1 0x40 MLOAD DUP1 PUSH1 0x40 ADD PUSH1 0x40 MSTORE DUP1 PUSH1 0x2 DUP2 MSTORE PUSH1 0x20 ADD PUSH32 0x4A50000000000000000000000000000000000000000000000000000000000000 DUP2 MSTORE POP DUP2 MSTORE POP DUP2 MSTORE PUSH1 0x20 ADD PUSH1 0x40 MLOAD DUP1 PUSH1 0x40 ADD PUSH1 0x40 MSTORE DUP1 PUSH1 0x40 MLOAD DUP1 PUSH1 0x40 ADD PUSH1 0x40 MSTORE DUP1 PUSH1 0x6 DUP2 MSTORE PUSH1 0x20 ADD PUSH32 0x4A6F7264616E0000000000000000000000000000000000000000000000000000 DUP2 MSTORE POP DUP2 MSTORE PUSH1 0x20 ADD PUSH1 0x40 MLOAD DUP1 PUSH1 0x40 ADD PUSH1 0x40 MSTORE DUP1 PUSH1 0x2 DUP2 MSTORE PUSH1 0x20 ADD PUSH32 0x4A4F000000000000000000000000000000000000000000000000000000000000 DUP2 MSTORE POP DUP2 MSTORE POP DUP2 MSTORE PUSH1 0x20 ADD PUSH1 0x40 MLOAD DUP1 PUSH1 0x40 ADD PUSH1 0x40 MSTORE DUP1 PUSH1 0x40 MLOAD DUP1 PUSH1 0x40 ADD PUSH1 0x40 MSTORE DUP1 PUSH1 0xA DUP2 MSTORE PUSH1 0x20 ADD PUSH32 0x4B617A616B687374616E00000000000000000000000000000000000000000000 DUP2 MSTORE POP DUP2 MSTORE PUSH1 0x20 ADD PUSH1 0x40 MLOAD DUP1 PUSH1 0x40 ADD PUSH1 0x40 MSTORE DUP1 PUSH1 0x2 DUP2 MSTORE PUSH1 0x20 ADD PUSH32 0x4B5A000000000000000000000000000000000000000000000000000000000000 DUP2 MSTORE POP DUP2 MSTORE POP DUP2 MSTORE PUSH1 0x20 ADD PUSH1 0x40 MLOAD DUP1 PUSH1 0x40 ADD PUSH1 0x40 MSTORE DUP1 PUSH1 0x40 MLOAD DUP1 PUSH1 0x40 ADD PUSH1 0x40 MSTORE DUP1 PUSH1 0x5 DUP2 MSTORE PUSH1 0x20 ADD PUSH32 0x4B656E7961000000000000000000000000000000000000000000000000000000 DUP2 MSTORE POP DUP2 MSTORE PUSH1 0x20 ADD PUSH1 0x40 MLOAD DUP1 PUSH1 0x40 ADD PUSH1 0x40 MSTORE DUP1 PUSH1 0x2 DUP2 MSTORE PUSH1 0x20 ADD PUSH32 0x4B45000000000000000000000000000000000000000000000000000000000000 DUP2 MSTORE POP DUP2 MSTORE POP DUP2 MSTORE PUSH1 0x20 ADD PUSH1 0x40 MLOAD DUP1 PUSH1 0x40 ADD PUSH1 0x40 MSTORE DUP1 PUSH1 0x40 MLOAD DUP1 PUSH1 0x40 ADD PUSH1 0x40 MSTORE DUP1 PUSH1 0x8 DUP2 MSTORE PUSH1 0x20 ADD PUSH32 0x4B69726962617469000000000000000000000000000000000000000000000000 DUP2 MSTORE POP DUP2 MSTORE PUSH1 0x20 ADD PUSH1 0x40 MLOAD DUP1 PUSH1 0x40 ADD PUSH1 0x40 MSTORE DUP1 PUSH1 0x2 DUP2 MSTORE PUSH1 0x20 ADD PUSH32 0x4B49000000000000000000000000000000000000000000000000000000000000 DUP2 MSTORE POP DUP2 MSTORE POP DUP2 MSTORE PUSH1 0x20 ADD PUSH1 0x40 MLOAD DUP1 PUSH1 0x40 ADD PUSH1 0x40 MSTORE DUP1 PUSH1 0x40 MLOAD DUP1 PUSH1 0x40 ADD PUSH1 0x40 MSTORE DUP1 PUSH1 0x6 DUP2 MSTORE PUSH1 0x20 ADD PUSH32 0x4B75776169740000000000000000000000000000000000000000000000000000 DUP2 MSTORE POP DUP2 MSTORE PUSH1 0x20 ADD PUSH1 0x40 MLOAD DUP1 PUSH1 0x40 ADD PUSH1 0x40 MSTORE DUP1 PUSH1 0x2 DUP2 MSTORE PUSH1 0x20 ADD PUSH32 0x4B57000000000000000000000000000000000000000000000000000000000000 DUP2 MSTORE POP DUP2 MSTORE POP DUP2 MSTORE PUSH1 0x20 ADD PUSH1 0x40 MLOAD DUP1 PUSH1 0x40 ADD PUSH1 0x40 MSTORE DUP1 PUSH1 0x40 MLOAD DUP1 PUSH1 0x40 ADD PUSH1 0x40 MSTORE DUP1 PUSH1 0xA DUP2 MSTORE PUSH1 0x20 ADD PUSH32 0x4B797267797A7374616E00000000000000000000000000000000000000000000 DUP2 MSTORE POP DUP2 MSTORE PUSH1 0x20 ADD PUSH1 0x40 MLOAD DUP1 PUSH1 0x40 ADD PUSH1 0x40 MSTORE DUP1 PUSH1 0x2 DUP2 MSTORE PUSH1 0x20 ADD PUSH32 0x4B47000000000000000000000000000000000000000000000000000000000000 DUP2 MSTORE POP DUP2 MSTORE POP DUP2 MSTORE PUSH1 0x20 ADD PUSH1 0x40 MLOAD DUP1 PUSH1 0x40 ADD PUSH1 0x40 MSTORE DUP1 PUSH1 0x40 MLOAD DUP1 PUSH1 0x40 ADD PUSH1 0x40 MSTORE DUP1 PUSH1 0x4 DUP2 MSTORE PUSH1 0x20 ADD PUSH32 0x4C616F7300000000000000000000000000000000000000000000000000000000 DUP2 MSTORE POP DUP2 MSTORE PUSH1 0x20 ADD PUSH1 0x40 MLOAD DUP1 PUSH1 0x40 ADD PUSH1 0x40 MSTORE DUP1 PUSH1 0x2 DUP2 MSTORE PUSH1 0x20 ADD PUSH32 0x4C41000000000000000000000000000000000000000000000000000000000000 DUP2 MSTORE POP DUP2 MSTORE POP DUP2 MSTORE PUSH1 0x20 ADD PUSH1 0x40 MLOAD DUP1 PUSH1 0x40 ADD PUSH1 0x40 MSTORE DUP1 PUSH1 0x40 MLOAD DUP1 PUSH1 0x40 ADD PUSH1 0x40 MSTORE DUP1 PUSH1 0x6 DUP2 MSTORE PUSH1 0x20 ADD PUSH32 0x4C61747669610000000000000000000000000000000000000000000000000000 DUP2 MSTORE POP DUP2 MSTORE PUSH1 0x20 ADD PUSH1 0x40 MLOAD DUP1 PUSH1 0x40 ADD PUSH1 0x40 MSTORE DUP1 PUSH1 0x2 DUP2 MSTORE PUSH1 0x20 ADD PUSH32 0x4C56000000000000000000000000000000000000000000000000000000000000 DUP2 MSTORE POP DUP2 MSTORE POP DUP2 MSTORE PUSH1 0x20 ADD PUSH1 0x40 MLOAD DUP1 PUSH1 0x40 ADD PUSH1 0x40 MSTORE DUP1 PUSH1 0x40 MLOAD DUP1 PUSH1 0x40 ADD PUSH1 0x40 MSTORE DUP1 PUSH1 0x7 DUP2 MSTORE PUSH1 0x20 ADD PUSH32 0x4C6562616E6F6E00000000000000000000000000000000000000000000000000 DUP2 MSTORE POP DUP2 MSTORE PUSH1 0x20 ADD PUSH1 0x40 MLOAD DUP1 PUSH1 0x40 ADD PUSH1 0x40 MSTORE DUP1 PUSH1 0x2 DUP2 MSTORE PUSH1 0x20 ADD PUSH32 0x4C42000000000000000000000000000000000000000000000000000000000000 DUP2 MSTORE POP DUP2 MSTORE POP DUP2 MSTORE PUSH1 0x20 ADD PUSH1 0x40 MLOAD DUP1 PUSH1 0x40 ADD PUSH1 0x40 MSTORE DUP1 PUSH1 0x40 MLOAD DUP1 PUSH1 0x40 ADD PUSH1 0x40 MSTORE DUP1 PUSH1 0x7 DUP2 MSTORE PUSH1 0x20 ADD PUSH32 0x4C65736F74686F00000000000000000000000000000000000000000000000000 DUP2 MSTORE POP DUP2 MSTORE PUSH1 0x20 ADD PUSH1 0x40 MLOAD DUP1 PUSH1 0x40 ADD PUSH1 0x40 MSTORE DUP1 PUSH1 0x2 DUP2 MSTORE PUSH1 0x20 ADD PUSH32 0x4C53000000000000000000000000000000000000000000000000000000000000 DUP2 MSTORE POP DUP2 MSTORE POP DUP2 MSTORE PUSH1 0x20 ADD PUSH1 0x40 MLOAD DUP1 PUSH1 0x40 ADD PUSH1 0x40 MSTORE DUP1 PUSH1 0x40 MLOAD DUP1 PUSH1 0x40 ADD PUSH1 0x40 MSTORE DUP1 PUSH1 0x7 DUP2 MSTORE PUSH1 0x20 ADD PUSH32 0x4C69626572696100000000000000000000000000000000000000000000000000 DUP2 MSTORE POP DUP2 MSTORE PUSH1 0x20 ADD PUSH1 0x40 MLOAD DUP1 PUSH1 0x40 ADD PUSH1 0x40 MSTORE DUP1 PUSH1 0x2 DUP2 MSTORE PUSH1 0x20 ADD PUSH32 0x4C52000000000000000000000000000000000000000000000000000000000000 DUP2 MSTORE POP DUP2 MSTORE POP DUP2 MSTORE PUSH1 0x20 ADD PUSH1 0x40 MLOAD DUP1 PUSH1 0x40 ADD PUSH1 0x40 MSTORE DUP1 PUSH1 0x40 MLOAD DUP1 PUSH1 0x40 ADD PUSH1 0x40 MSTORE DUP1 PUSH1 0x5 DUP2 MSTORE PUSH1 0x20 ADD PUSH32 0x4C69627961000000000000000000000000000000000000000000000000000000 DUP2 MSTORE POP DUP2 MSTORE PUSH1 0x20 ADD PUSH1 0x40 MLOAD DUP1 PUSH1 0x40 ADD PUSH1 0x40 MSTORE DUP1 PUSH1 0x2 DUP2 MSTORE PUSH1 0x20 ADD PUSH32 0x4C59000000000000000000000000000000000000000000000000000000000000 DUP2 MSTORE POP DUP2 MSTORE POP DUP2 MSTORE PUSH1 0x20 ADD PUSH1 0x40 MLOAD DUP1 PUSH1 0x40 ADD PUSH1 0x40 MSTORE DUP1 PUSH1 0x40 MLOAD DUP1 PUSH1 0x40 ADD PUSH1 0x40 MSTORE DUP1 PUSH1 0xD DUP2 MSTORE PUSH1 0x20 ADD PUSH32 0x4C6965636874656E737465696E00000000000000000000000000000000000000 DUP2 MSTORE POP DUP2 MSTORE PUSH1 0x20 ADD PUSH1 0x40 MLOAD DUP1 PUSH1 0x40 ADD PUSH1 0x40 MSTORE DUP1 PUSH1 0x2 DUP2 MSTORE PUSH1 0x20 ADD PUSH32 0x4C49000000000000000000000000000000000000000000000000000000000000 DUP2 MSTORE POP DUP2 MSTORE POP DUP2 MSTORE PUSH1 0x20 ADD PUSH1 0x40 MLOAD DUP1 PUSH1 0x40 ADD PUSH1 0x40 MSTORE DUP1 PUSH1 0x40 MLOAD DUP1 PUSH1 0x40 ADD PUSH1 0x40 MSTORE DUP1 PUSH1 0x9 DUP2 MSTORE PUSH1 0x20 ADD PUSH32 0x4C69746875616E69610000000000000000000000000000000000000000000000 DUP2 MSTORE POP DUP2 MSTORE PUSH1 0x20 ADD PUSH1 0x40 MLOAD DUP1 PUSH1 0x40 ADD PUSH1 0x40 MSTORE DUP1 PUSH1 0x2 DUP2 MSTORE PUSH1 0x20 ADD PUSH32 0x4C54000000000000000000000000000000000000000000000000000000000000 DUP2 MSTORE POP DUP2 MSTORE POP DUP2 MSTORE PUSH1 0x20 ADD PUSH1 0x40 MLOAD DUP1 PUSH1 0x40 ADD PUSH1 0x40 MSTORE DUP1 PUSH1 0x40 MLOAD DUP1 PUSH1 0x40 ADD PUSH1 0x40 MSTORE DUP1 PUSH1 0xA DUP2 MSTORE PUSH1 0x20 ADD PUSH32 0x4C7578656D626F75726700000000000000000000000000000000000000000000 DUP2 MSTORE POP DUP2 MSTORE PUSH1 0x20 ADD PUSH1 0x40 MLOAD DUP1 PUSH1 0x40 ADD PUSH1 0x40 MSTORE DUP1 PUSH1 0x2 DUP2 MSTORE PUSH1 0x20 ADD PUSH32 0x4C55000000000000000000000000000000000000000000000000000000000000 DUP2 MSTORE POP DUP2 MSTORE POP DUP2 MSTORE PUSH1 0x20 ADD PUSH1 0x40 MLOAD DUP1 PUSH1 0x40 ADD PUSH1 0x40 MSTORE DUP1 PUSH1 0x40 MLOAD DUP1 PUSH1 0x40 ADD PUSH1 0x40 MSTORE DUP1 PUSH1 0xA DUP2 MSTORE PUSH1 0x20 ADD PUSH32 0x4D61646167617363617200000000000000000000000000000000000000000000 DUP2 MSTORE POP DUP2 MSTORE PUSH1 0x20 ADD PUSH1 0x40 MLOAD DUP1 PUSH1 0x40 ADD PUSH1 0x40 MSTORE DUP1 PUSH1 0x2 DUP2 MSTORE PUSH1 0x20 ADD PUSH32 0x4D47000000000000000000000000000000000000000000000000000000000000 DUP2 MSTORE POP DUP2 MSTORE POP DUP2 MSTORE PUSH1 0x20 ADD PUSH1 0x40 MLOAD DUP1 PUSH1 0x40 ADD PUSH1 0x40 MSTORE DUP1 PUSH1 0x40 MLOAD DUP1 PUSH1 0x40 ADD PUSH1 0x40 MSTORE DUP1 PUSH1 0x6 DUP2 MSTORE PUSH1 0x20 ADD PUSH32 0x4D616C6177690000000000000000000000000000000000000000000000000000 DUP2 MSTORE POP DUP2 MSTORE PUSH1 0x20 ADD PUSH1 0x40 MLOAD DUP1 PUSH1 0x40 ADD PUSH1 0x40 MSTORE DUP1 PUSH1 0x2 DUP2 MSTORE PUSH1 0x20 ADD PUSH32 0x4D57000000000000000000000000000000000000000000000000000000000000 DUP2 MSTORE POP DUP2 MSTORE POP DUP2 MSTORE PUSH1 0x20 ADD PUSH1 0x40 MLOAD DUP1 PUSH1 0x40 ADD PUSH1 0x40 MSTORE DUP1 PUSH1 0x40 MLOAD DUP1 PUSH1 0x40 ADD PUSH1 0x40 MSTORE DUP1 PUSH1 0x8 DUP2 MSTORE PUSH1 0x20 ADD PUSH32 0x4D616C6179736961000000000000000000000000000000000000000000000000 DUP2 MSTORE POP DUP2 MSTORE PUSH1 0x20 ADD PUSH1 0x40 MLOAD DUP1 PUSH1 0x40 ADD PUSH1 0x40 MSTORE DUP1 PUSH1 0x2 DUP2 MSTORE PUSH1 0x20 ADD PUSH32 0x4D59000000000000000000000000000000000000000000000000000000000000 DUP2 MSTORE POP DUP2 MSTORE POP DUP2 MSTORE PUSH1 0x20 ADD PUSH1 0x40 MLOAD DUP1 PUSH1 0x40 ADD PUSH1 0x40 MSTORE DUP1 PUSH1 0x40 MLOAD DUP1 PUSH1 0x40 ADD PUSH1 0x40 MSTORE DUP1 PUSH1 0x8 DUP2 MSTORE PUSH1 0x20 ADD PUSH32 0x4D616C6469766573000000000000000000000000000000000000000000000000 DUP2 MSTORE POP DUP2 MSTORE PUSH1 0x20 ADD PUSH1 0x40 MLOAD DUP1 PUSH1 0x40 ADD PUSH1 0x40 MSTORE DUP1 PUSH1 0x2 DUP2 MSTORE PUSH1 0x20 ADD PUSH32 0x4D56000000000000000000000000000000000000000000000000000000000000 DUP2 MSTORE POP DUP2 MSTORE POP DUP2 MSTORE PUSH1 0x20 ADD PUSH1 0x40 MLOAD DUP1 PUSH1 0x40 ADD PUSH1 0x40 MSTORE DUP1 PUSH1 0x40 MLOAD DUP1 PUSH1 0x40 ADD PUSH1 0x40 MSTORE DUP1 PUSH1 0x4 DUP2 MSTORE PUSH1 0x20 ADD PUSH32 0x4D616C6900000000000000000000000000000000000000000000000000000000 DUP2 MSTORE POP DUP2 MSTORE PUSH1 0x20 ADD PUSH1 0x40 MLOAD DUP1 PUSH1 0x40 ADD PUSH1 0x40 MSTORE DUP1 PUSH1 0x2 DUP2 MSTORE PUSH1 0x20 ADD PUSH32 0x4D4C000000000000000000000000000000000000000000000000000000000000 DUP2 MSTORE POP DUP2 MSTORE POP DUP2 MSTORE PUSH1 0x20 ADD PUSH1 0x40 MLOAD DUP1 PUSH1 0x40 ADD PUSH1 0x40 MSTORE DUP1 PUSH1 0x40 MLOAD DUP1 PUSH1 0x40 ADD PUSH1 0x40 MSTORE DUP1 PUSH1 0x5 DUP2 MSTORE PUSH1 0x20 ADD PUSH32 0x4D616C7461000000000000000000000000000000000000000000000000000000 DUP2 MSTORE POP DUP2 MSTORE PUSH1 0x20 ADD PUSH1 0x40 MLOAD DUP1 PUSH1 0x40 ADD PUSH1 0x40 MSTORE DUP1 PUSH1 0x2 DUP2 MSTORE PUSH1 0x20 ADD PUSH32 0x4D54000000000000000000000000000000000000000000000000000000000000 DUP2 MSTORE POP DUP2 MSTORE POP DUP2 MSTORE PUSH1 0x20 ADD PUSH1 0x40 MLOAD DUP1 PUSH1 0x40 ADD PUSH1 0x40 MSTORE DUP1 PUSH1 0x40 MLOAD DUP1 PUSH1 0x40 ADD PUSH1 0x40 MSTORE DUP1 PUSH1 0x10 DUP2 MSTORE PUSH1 0x20 ADD PUSH32 0x4D61727368616C6C2049736C616E647300000000000000000000000000000000 DUP2 MSTORE POP DUP2 MSTORE PUSH1 0x20 ADD PUSH1 0x40 MLOAD DUP1 PUSH1 0x40 ADD PUSH1 0x40 MSTORE DUP1 PUSH1 0x2 DUP2 MSTORE PUSH1 0x20 ADD PUSH32 0x4D48000000000000000000000000000000000000000000000000000000000000 DUP2 MSTORE POP DUP2 MSTORE POP DUP2 MSTORE PUSH1 0x20 ADD PUSH1 0x40 MLOAD DUP1 PUSH1 0x40 ADD PUSH1 0x40 MSTORE DUP1 PUSH1 0x40 MLOAD DUP1 PUSH1 0x40 ADD PUSH1 0x40 MSTORE DUP1 PUSH1 0xA DUP2 MSTORE PUSH1 0x20 ADD PUSH32 0x4D6175726974616E696100000000000000000000000000000000000000000000 DUP2 MSTORE POP DUP2 MSTORE PUSH1 0x20 ADD PUSH1 0x40 MLOAD DUP1 PUSH1 0x40 ADD PUSH1 0x40 MSTORE DUP1 PUSH1 0x2 DUP2 MSTORE PUSH1 0x20 ADD PUSH32 0x4D52000000000000000000000000000000000000000000000000000000000000 DUP2 MSTORE POP DUP2 MSTORE POP DUP2 MSTORE PUSH1 0x20 ADD PUSH1 0x40 MLOAD DUP1 PUSH1 0x40 ADD PUSH1 0x40 MSTORE DUP1 PUSH1 0x40 MLOAD DUP1 PUSH1 0x40 ADD PUSH1 0x40 MSTORE DUP1 PUSH1 0x9 DUP2 MSTORE PUSH1 0x20 ADD PUSH32 0x4D61757269746975730000000000000000000000000000000000000000000000 DUP2 MSTORE POP DUP2 MSTORE PUSH1 0x20 ADD PUSH1 0x40 MLOAD DUP1 PUSH1 0x40 ADD PUSH1 0x40 MSTORE DUP1 PUSH1 0x2 DUP2 MSTORE PUSH1 0x20 ADD PUSH32 0x4D55000000000000000000000000000000000000000000000000000000000000 DUP2 MSTORE POP DUP2 MSTORE POP DUP2 MSTORE PUSH1 0x20 ADD PUSH1 0x40 MLOAD DUP1 PUSH1 0x40 ADD PUSH1 0x40 MSTORE DUP1 PUSH1 0x40 MLOAD DUP1 PUSH1 0x40 ADD PUSH1 0x40 MSTORE DUP1 PUSH1 0x6 DUP2 MSTORE PUSH1 0x20 ADD PUSH32 0x4D657869636F0000000000000000000000000000000000000000000000000000 DUP2 MSTORE POP DUP2 MSTORE PUSH1 0x20 ADD PUSH1 0x40 MLOAD DUP1 PUSH1 0x40 ADD PUSH1 0x40 MSTORE DUP1 PUSH1 0x2 DUP2 MSTORE PUSH1 0x20 ADD PUSH32 0x4D58000000000000000000000000000000000000000000000000000000000000 DUP2 MSTORE POP DUP2 MSTORE POP DUP2 MSTORE PUSH1 0x20 ADD PUSH1 0x40 MLOAD DUP1 PUSH1 0x40 ADD PUSH1 0x40 MSTORE DUP1 PUSH1 0x40 MLOAD DUP1 PUSH1 0x40 ADD PUSH1 0x40 MSTORE DUP1 PUSH1 0xA DUP2 MSTORE PUSH1 0x20 ADD PUSH32 0x4D6963726F6E6573696100000000000000000000000000000000000000000000 DUP2 MSTORE POP DUP2 MSTORE PUSH1 0x20 ADD PUSH1 0x40 MLOAD DUP1 PUSH1 0x40 ADD PUSH1 0x40 MSTORE DUP1 PUSH1 0x2 DUP2 MSTORE PUSH1 0x20 ADD PUSH32 0x464D000000000000000000000000000000000000000000000000000000000000 DUP2 MSTORE POP DUP2 MSTORE POP DUP2 MSTORE PUSH1 0x20 ADD PUSH1 0x40 MLOAD DUP1 PUSH1 0x40 ADD PUSH1 0x40 MSTORE DUP1 PUSH1 0x40 MLOAD DUP1 PUSH1 0x40 ADD PUSH1 0x40 MSTORE DUP1 PUSH1 0x7 DUP2 MSTORE PUSH1 0x20 ADD PUSH32 0x4D6F6C646F766100000000000000000000000000000000000000000000000000 DUP2 MSTORE POP DUP2 MSTORE PUSH1 0x20 ADD PUSH1 0x40 MLOAD DUP1 PUSH1 0x40 ADD PUSH1 0x40 MSTORE DUP1 PUSH1 0x2 DUP2 MSTORE PUSH1 0x20 ADD PUSH32 0x4D44000000000000000000000000000000000000000000000000000000000000 DUP2 MSTORE POP DUP2 MSTORE POP DUP2 MSTORE PUSH1 0x20 ADD PUSH1 0x40 MLOAD DUP1 PUSH1 0x40 ADD PUSH1 0x40 MSTORE DUP1 PUSH1 0x40 MLOAD DUP1 PUSH1 0x40 ADD PUSH1 0x40 MSTORE DUP1 PUSH1 0x6 DUP2 MSTORE PUSH1 0x20 ADD PUSH32 0x4D6F6E61636F0000000000000000000000000000000000000000000000000000 DUP2 MSTORE POP DUP2 MSTORE PUSH1 0x20 ADD PUSH1 0x40 MLOAD DUP1 PUSH1 0x40 ADD PUSH1 0x40 MSTORE DUP1 PUSH1 0x2 DUP2 MSTORE PUSH1 0x20 ADD PUSH32 0x4D43000000000000000000000000000000000000000000000000000000000000 DUP2 MSTORE POP DUP2 MSTORE POP DUP2 MSTORE PUSH1 0x20 ADD PUSH1 0x40 MLOAD DUP1 PUSH1 0x40 ADD PUSH1 0x40 MSTORE DUP1 PUSH1 0x40 MLOAD DUP1 PUSH1 0x40 ADD PUSH1 0x40 MSTORE DUP1 PUSH1 0x8 DUP2 MSTORE PUSH1 0x20 ADD PUSH32 0x4D6F6E676F6C6961000000000000000000000000000000000000000000000000 DUP2 MSTORE POP DUP2 MSTORE PUSH1 0x20 ADD PUSH1 0x40 MLOAD DUP1 PUSH1 0x40 ADD PUSH1 0x40 MSTORE DUP1 PUSH1 0x2 DUP2 MSTORE PUSH1 0x20 ADD PUSH32 0x4D4E000000000000000000000000000000000000000000000000000000000000 DUP2 MSTORE POP DUP2 MSTORE POP DUP2 MSTORE PUSH1 0x20 ADD PUSH1 0x40 MLOAD DUP1 PUSH1 0x40 ADD PUSH1 0x40 MSTORE DUP1 PUSH1 0x40 MLOAD DUP1 PUSH1 0x40 ADD PUSH1 0x40 MSTORE DUP1 PUSH1 0xA DUP2 MSTORE PUSH1 0x20 ADD PUSH32 0x4D6F6E74656E6567726F00000000000000000000000000000000000000000000 DUP2 MSTORE POP DUP2 MSTORE PUSH1 0x20 ADD PUSH1 0x40 MLOAD DUP1 PUSH1 0x40 ADD PUSH1 0x40 MSTORE DUP1 PUSH1 0x2 DUP2 MSTORE PUSH1 0x20 ADD PUSH32 0x4D45000000000000000000000000000000000000000000000000000000000000 DUP2 MSTORE POP DUP2 MSTORE POP DUP2 MSTORE PUSH1 0x20 ADD PUSH1 0x40 MLOAD DUP1 PUSH1 0x40 ADD PUSH1 0x40 MSTORE DUP1 PUSH1 0x40 MLOAD DUP1 PUSH1 0x40 ADD PUSH1 0x40 MSTORE DUP1 PUSH1 0x7 DUP2 MSTORE PUSH1 0x20 ADD PUSH32 0x4D6F726F63636F00000000000000000000000000000000000000000000000000 DUP2 MSTORE POP DUP2 MSTORE PUSH1 0x20 ADD PUSH1 0x40 MLOAD DUP1 PUSH1 0x40 ADD PUSH1 0x40 MSTORE DUP1 PUSH1 0x2 DUP2 MSTORE PUSH1 0x20 ADD PUSH32 0x4D41000000000000000000000000000000000000000000000000000000000000 DUP2 MSTORE POP DUP2 MSTORE POP DUP2 MSTORE PUSH1 0x20 ADD PUSH1 0x40 MLOAD DUP1 PUSH1 0x40 ADD PUSH1 0x40 MSTORE DUP1 PUSH1 0x40 MLOAD DUP1 PUSH1 0x40 ADD PUSH1 0x40 MSTORE DUP1 PUSH1 0xA DUP2 MSTORE PUSH1 0x20 ADD PUSH32 0x4D6F7A616D626971756500000000000000000000000000000000000000000000 DUP2 MSTORE POP DUP2 MSTORE PUSH1 0x20 ADD PUSH1 0x40 MLOAD DUP1 PUSH1 0x40 ADD PUSH1 0x40 MSTORE DUP1 PUSH1 0x2 DUP2 MSTORE PUSH1 0x20 ADD PUSH32 0x4D5A000000000000000000000000000000000000000000000000000000000000 DUP2 MSTORE POP DUP2 MSTORE POP DUP2 MSTORE PUSH1 0x20 ADD PUSH1 0x40 MLOAD DUP1 PUSH1 0x40 ADD PUSH1 0x40 MSTORE DUP1 PUSH1 0x40 MLOAD DUP1 PUSH1 0x40 ADD PUSH1 0x40 MSTORE DUP1 PUSH1 0x7 DUP2 MSTORE PUSH1 0x20 ADD PUSH32 0x4D79616E6D617200000000000000000000000000000000000000000000000000 DUP2 MSTORE POP DUP2 MSTORE PUSH1 0x20 ADD PUSH1 0x40 MLOAD DUP1 PUSH1 0x40 ADD PUSH1 0x40 MSTORE DUP1 PUSH1 0x2 DUP2 MSTORE PUSH1 0x20 ADD PUSH32 0x4D4D000000000000000000000000000000000000000000000000000000000000 DUP2 MSTORE POP DUP2 MSTORE POP DUP2 MSTORE PUSH1 0x20 ADD PUSH1 0x40 MLOAD DUP1 PUSH1 0x40 ADD PUSH1 0x40 MSTORE DUP1 PUSH1 0x40 MLOAD DUP1 PUSH1 0x40 ADD PUSH1 0x40 MSTORE DUP1 PUSH1 0x7 DUP2 MSTORE PUSH1 0x20 ADD PUSH32 0x4E616D6962696100000000000000000000000000000000000000000000000000 DUP2 MSTORE POP DUP2 MSTORE PUSH1 0x20 ADD PUSH1 0x40 MLOAD DUP1 PUSH1 0x40 ADD PUSH1 0x40 MSTORE DUP1 PUSH1 0x2 DUP2 MSTORE PUSH1 0x20 ADD PUSH32 0x4E41000000000000000000000000000000000000000000000000000000000000 DUP2 MSTORE POP DUP2 MSTORE POP DUP2 MSTORE PUSH1 0x20 ADD PUSH1 0x40 MLOAD DUP1 PUSH1 0x40 ADD PUSH1 0x40 MSTORE DUP1 PUSH1 0x40 MLOAD DUP1 PUSH1 0x40 ADD PUSH1 0x40 MSTORE DUP1 PUSH1 0x5 DUP2 MSTORE PUSH1 0x20 ADD PUSH32 0x4E61757275000000000000000000000000000000000000000000000000000000 DUP2 MSTORE POP DUP2 MSTORE PUSH1 0x20 ADD PUSH1 0x40 MLOAD DUP1 PUSH1 0x40 ADD PUSH1 0x40 MSTORE DUP1 PUSH1 0x2 DUP2 MSTORE PUSH1 0x20 ADD PUSH32 0x4E52000000000000000000000000000000000000000000000000000000000000 DUP2 MSTORE POP DUP2 MSTORE POP DUP2 MSTORE PUSH1 0x20 ADD PUSH1 0x40 MLOAD DUP1 PUSH1 0x40 ADD PUSH1 0x40 MSTORE DUP1 PUSH1 0x40 MLOAD DUP1 PUSH1 0x40 ADD PUSH1 0x40 MSTORE DUP1 PUSH1 0x5 DUP2 MSTORE PUSH1 0x20 ADD PUSH32 0x4E6570616C000000000000000000000000000000000000000000000000000000 DUP2 MSTORE POP DUP2 MSTORE PUSH1 0x20 ADD PUSH1 0x40 MLOAD DUP1 PUSH1 0x40 ADD PUSH1 0x40 MSTORE DUP1 PUSH1 0x2 DUP2 MSTORE PUSH1 0x20 ADD PUSH32 0x4E50000000000000000000000000000000000000000000000000000000000000 DUP2 MSTORE POP DUP2 MSTORE POP DUP2 MSTORE PUSH1 0x20 ADD PUSH1 0x40 MLOAD DUP1 PUSH1 0x40 ADD PUSH1 0x40 MSTORE DUP1 PUSH1 0x40 MLOAD DUP1 PUSH1 0x40 ADD PUSH1 0x40 MSTORE DUP1 PUSH1 0xB DUP2 MSTORE PUSH1 0x20 ADD PUSH32 0x4E65746865726C616E6473000000000000000000000000000000000000000000 DUP2 MSTORE POP DUP2 MSTORE PUSH1 0x20 ADD PUSH1 0x40 MLOAD DUP1 PUSH1 0x40 ADD PUSH1 0x40 MSTORE DUP1 PUSH1 0x2 DUP2 MSTORE PUSH1 0x20 ADD PUSH32 0x4E4C000000000000000000000000000000000000000000000000000000000000 DUP2 MSTORE POP DUP2 MSTORE POP DUP2 MSTORE PUSH1 0x20 ADD PUSH1 0x40 MLOAD DUP1 PUSH1 0x40 ADD PUSH1 0x40 MSTORE DUP1 PUSH1 0x40 MLOAD DUP1 PUSH1 0x40 ADD PUSH1 0x40 MSTORE DUP1 PUSH1 0xB DUP2 MSTORE PUSH1 0x20 ADD PUSH32 0x4E6577205A65616C616E64000000000000000000000000000000000000000000 DUP2 MSTORE POP DUP2 MSTORE PUSH1 0x20 ADD PUSH1 0x40 MLOAD DUP1 PUSH1 0x40 ADD PUSH1 0x40 MSTORE DUP1 PUSH1 0x2 DUP2 MSTORE PUSH1 0x20 ADD PUSH32 0x4E5A000000000000000000000000000000000000000000000000000000000000 DUP2 MSTORE POP DUP2 MSTORE POP DUP2 MSTORE PUSH1 0x20 ADD PUSH1 0x40 MLOAD DUP1 PUSH1 0x40 ADD PUSH1 0x40 MSTORE DUP1 PUSH1 0x40 MLOAD DUP1 PUSH1 0x40 ADD PUSH1 0x40 MSTORE DUP1 PUSH1 0x9 DUP2 MSTORE PUSH1 0x20 ADD PUSH32 0x4E69636172616775610000000000000000000000000000000000000000000000 DUP2 MSTORE POP DUP2 MSTORE PUSH1 0x20 ADD PUSH1 0x40 MLOAD DUP1 PUSH1 0x40 ADD PUSH1 0x40 MSTORE DUP1 PUSH1 0x2 DUP2 MSTORE PUSH1 0x20 ADD PUSH32 0x4E49000000000000000000000000000000000000000000000000000000000000 DUP2 MSTORE POP DUP2 MSTORE POP DUP2 MSTORE PUSH1 0x20 ADD PUSH1 0x40 MLOAD DUP1 PUSH1 0x40 ADD PUSH1 0x40 MSTORE DUP1 PUSH1 0x40 MLOAD DUP1 PUSH1 0x40 ADD PUSH1 0x40 MSTORE DUP1 PUSH1 0x5 DUP2 MSTORE PUSH1 0x20 ADD PUSH32 0x4E69676572000000000000000000000000000000000000000000000000000000 DUP2 MSTORE POP DUP2 MSTORE PUSH1 0x20 ADD PUSH1 0x40 MLOAD DUP1 PUSH1 0x40 ADD PUSH1 0x40 MSTORE DUP1 PUSH1 0x2 DUP2 MSTORE PUSH1 0x20 ADD PUSH32 0x4E45000000000000000000000000000000000000000000000000000000000000 DUP2 MSTORE POP DUP2 MSTORE POP DUP2 MSTORE PUSH1 0x20 ADD PUSH1 0x40 MLOAD DUP1 PUSH1 0x40 ADD PUSH1 0x40 MSTORE DUP1 PUSH1 0x40 MLOAD DUP1 PUSH1 0x40 ADD PUSH1 0x40 MSTORE DUP1 PUSH1 0x7 DUP2 MSTORE PUSH1 0x20 ADD PUSH32 0x4E69676572696100000000000000000000000000000000000000000000000000 DUP2 MSTORE POP DUP2 MSTORE PUSH1 0x20 ADD PUSH1 0x40 MLOAD DUP1 PUSH1 0x40 ADD PUSH1 0x40 MSTORE DUP1 PUSH1 0x2 DUP2 MSTORE PUSH1 0x20 ADD PUSH32 0x4E47000000000000000000000000000000000000000000000000000000000000 DUP2 MSTORE POP DUP2 MSTORE POP DUP2 MSTORE PUSH1 0x20 ADD PUSH1 0x40 MLOAD DUP1 PUSH1 0x40 ADD PUSH1 0x40 MSTORE DUP1 PUSH1 0x40 MLOAD DUP1 PUSH1 0x40 ADD PUSH1 0x40 MSTORE DUP1 PUSH1 0xB DUP2 MSTORE PUSH1 0x20 ADD PUSH32 0x4E6F727468204B6F726561000000000000000000000000000000000000000000 DUP2 MSTORE POP DUP2 MSTORE PUSH1 0x20 ADD PUSH1 0x40 MLOAD DUP1 PUSH1 0x40 ADD PUSH1 0x40 MSTORE DUP1 PUSH1 0x2 DUP2 MSTORE PUSH1 0x20 ADD PUSH32 0x4B50000000000000000000000000000000000000000000000000000000000000 DUP2 MSTORE POP DUP2 MSTORE POP DUP2 MSTORE PUSH1 0x20 ADD PUSH1 0x40 MLOAD DUP1 PUSH1 0x40 ADD PUSH1 0x40 MSTORE DUP1 PUSH1 0x40 MLOAD DUP1 PUSH1 0x40 ADD PUSH1 0x40 MSTORE DUP1 PUSH1 0xF DUP2 MSTORE PUSH1 0x20 ADD PUSH32 0x4E6F727468204D616365646F6E69610000000000000000000000000000000000 DUP2 MSTORE POP DUP2 MSTORE PUSH1 0x20 ADD PUSH1 0x40 MLOAD DUP1 PUSH1 0x40 ADD PUSH1 0x40 MSTORE DUP1 PUSH1 0x2 DUP2 MSTORE PUSH1 0x20 ADD PUSH32 0x4D4B000000000000000000000000000000000000000000000000000000000000 DUP2 MSTORE POP DUP2 MSTORE POP DUP2 MSTORE PUSH1 0x20 ADD PUSH1 0x40 MLOAD DUP1 PUSH1 0x40 ADD PUSH1 0x40 MSTORE DUP1 PUSH1 0x40 MLOAD DUP1 PUSH1 0x40 ADD PUSH1 0x40 MSTORE DUP1 PUSH1 0x6 DUP2 MSTORE PUSH1 0x20 ADD PUSH32 0x4E6F727761790000000000000000000000000000000000000000000000000000 DUP2 MSTORE POP DUP2 MSTORE PUSH1 0x20 ADD PUSH1 0x40 MLOAD DUP1 PUSH1 0x40 ADD PUSH1 0x40 MSTORE DUP1 PUSH1 0x2 DUP2 MSTORE PUSH1 0x20 ADD PUSH32 0x4E4F000000000000000000000000000000000000000000000000000000000000 DUP2 MSTORE POP DUP2 MSTORE POP DUP2 MSTORE PUSH1 0x20 ADD PUSH1 0x40 MLOAD DUP1 PUSH1 0x40 ADD PUSH1 0x40 MSTORE DUP1 PUSH1 0x40 MLOAD DUP1 PUSH1 0x40 ADD PUSH1 0x40 MSTORE DUP1 PUSH1 0x4 DUP2 MSTORE PUSH1 0x20 ADD PUSH32 0x4F6D616E00000000000000000000000000000000000000000000000000000000 DUP2 MSTORE POP DUP2 MSTORE PUSH1 0x20 ADD PUSH1 0x40 MLOAD DUP1 PUSH1 0x40 ADD PUSH1 0x40 MSTORE DUP1 PUSH1 0x2 DUP2 MSTORE PUSH1 0x20 ADD PUSH32 0x4F4D000000000000000000000000000000000000000000000000000000000000 DUP2 MSTORE POP DUP2 MSTORE POP DUP2 MSTORE PUSH1 0x20 ADD PUSH1 0x40 MLOAD DUP1 PUSH1 0x40 ADD PUSH1 0x40 MSTORE DUP1 PUSH1 0x40 MLOAD DUP1 PUSH1 0x40 ADD PUSH1 0x40 MSTORE DUP1 PUSH1 0x8 DUP2 MSTORE PUSH1 0x20 ADD PUSH32 0x50616B697374616E000000000000000000000000000000000000000000000000 DUP2 MSTORE POP DUP2 MSTORE PUSH1 0x20 ADD PUSH1 0x40 MLOAD DUP1 PUSH1 0x40 ADD PUSH1 0x40 MSTORE DUP1 PUSH1 0x2 DUP2 MSTORE PUSH1 0x20 ADD PUSH32 0x504B000000000000000000000000000000000000000000000000000000000000 DUP2 MSTORE POP DUP2 MSTORE POP DUP2 MSTORE PUSH1 0x20 ADD PUSH1 0x40 MLOAD DUP1 PUSH1 0x40 ADD PUSH1 0x40 MSTORE DUP1 PUSH1 0x40 MLOAD DUP1 PUSH1 0x40 ADD PUSH1 0x40 MSTORE DUP1 PUSH1 0x5 DUP2 MSTORE PUSH1 0x20 ADD PUSH32 0x50616C6175000000000000000000000000000000000000000000000000000000 DUP2 MSTORE POP DUP2 MSTORE PUSH1 0x20 ADD PUSH1 0x40 MLOAD DUP1 PUSH1 0x40 ADD PUSH1 0x40 MSTORE DUP1 PUSH1 0x2 DUP2 MSTORE PUSH1 0x20 ADD PUSH32 0x5057000000000000000000000000000000000000000000000000000000000000 DUP2 MSTORE POP DUP2 MSTORE POP DUP2 MSTORE PUSH1 0x20 ADD PUSH1 0x40 MLOAD DUP1 PUSH1 0x40 ADD PUSH1 0x40 MSTORE DUP1 PUSH1 0x40 MLOAD DUP1 PUSH1 0x40 ADD PUSH1 0x40 MSTORE DUP1 PUSH1 0x9 DUP2 MSTORE PUSH1 0x20 ADD PUSH32 0x50616C657374696E650000000000000000000000000000000000000000000000 DUP2 MSTORE POP DUP2 MSTORE PUSH1 0x20 ADD PUSH1 0x40 MLOAD DUP1 PUSH1 0x40 ADD PUSH1 0x40 MSTORE DUP1 PUSH1 0x2 DUP2 MSTORE PUSH1 0x20 ADD PUSH32 0x5053000000000000000000000000000000000000000000000000000000000000 DUP2 MSTORE POP DUP2 MSTORE POP DUP2 MSTORE PUSH1 0x20 ADD PUSH1 0x40 MLOAD DUP1 PUSH1 0x40 ADD PUSH1 0x40 MSTORE DUP1 PUSH1 0x40 MLOAD DUP1 PUSH1 0x40 ADD PUSH1 0x40 MSTORE DUP1 PUSH1 0x6 DUP2 MSTORE PUSH1 0x20 ADD PUSH32 0x50616E616D610000000000000000000000000000000000000000000000000000 DUP2 MSTORE POP DUP2 MSTORE PUSH1 0x20 ADD PUSH1 0x40 MLOAD DUP1 PUSH1 0x40 ADD PUSH1 0x40 MSTORE DUP1 PUSH1 0x2 DUP2 MSTORE PUSH1 0x20 ADD PUSH32 0x5041000000000000000000000000000000000000000000000000000000000000 DUP2 MSTORE POP DUP2 MSTORE POP DUP2 MSTORE PUSH1 0x20 ADD PUSH1 0x40 MLOAD DUP1 PUSH1 0x40 ADD PUSH1 0x40 MSTORE DUP1 PUSH1 0x40 MLOAD DUP1 PUSH1 0x40 ADD PUSH1 0x40 MSTORE DUP1 PUSH1 0x10 DUP2 MSTORE PUSH1 0x20 ADD PUSH32 0x5061707561204E6577204775696E656100000000000000000000000000000000 DUP2 MSTORE POP DUP2 MSTORE PUSH1 0x20 ADD PUSH1 0x40 MLOAD DUP1 PUSH1 0x40 ADD PUSH1 0x40 MSTORE DUP1 PUSH1 0x2 DUP2 MSTORE PUSH1 0x20 ADD PUSH32 0x5047000000000000000000000000000000000000000000000000000000000000 DUP2 MSTORE POP DUP2 MSTORE POP DUP2 MSTORE PUSH1 0x20 ADD PUSH1 0x40 MLOAD DUP1 PUSH1 0x40 ADD PUSH1 0x40 MSTORE DUP1 PUSH1 0x40 MLOAD DUP1 PUSH1 0x40 ADD PUSH1 0x40 MSTORE DUP1 PUSH1 0x8 DUP2 MSTORE PUSH1 0x20 ADD PUSH32 0x5061726167756179000000000000000000000000000000000000000000000000 DUP2 MSTORE POP DUP2 MSTORE PUSH1 0x20 ADD PUSH1 0x40 MLOAD DUP1 PUSH1 0x40 ADD PUSH1 0x40 MSTORE DUP1 PUSH1 0x2 DUP2 MSTORE PUSH1 0x20 ADD PUSH32 0x5059000000000000000000000000000000000000000000000000000000000000 DUP2 MSTORE POP DUP2 MSTORE POP DUP2 MSTORE PUSH1 0x20 ADD PUSH1 0x40 MLOAD DUP1 PUSH1 0x40 ADD PUSH1 0x40 MSTORE DUP1 PUSH1 0x40 MLOAD DUP1 PUSH1 0x40 ADD PUSH1 0x40 MSTORE DUP1 PUSH1 0x4 DUP2 MSTORE PUSH1 0x20 ADD PUSH32 0x5065727500000000000000000000000000000000000000000000000000000000 DUP2 MSTORE POP DUP2 MSTORE PUSH1 0x20 ADD PUSH1 0x40 MLOAD DUP1 PUSH1 0x40 ADD PUSH1 0x40 MSTORE DUP1 PUSH1 0x2 DUP2 MSTORE PUSH1 0x20 ADD PUSH32 0x5045000000000000000000000000000000000000000000000000000000000000 DUP2 MSTORE POP DUP2 MSTORE POP DUP2 MSTORE PUSH1 0x20 ADD PUSH1 0x40 MLOAD DUP1 PUSH1 0x40 ADD PUSH1 0x40 MSTORE DUP1 PUSH1 0x40 MLOAD DUP1 PUSH1 0x40 ADD PUSH1 0x40 MSTORE DUP1 PUSH1 0xB DUP2 MSTORE PUSH1 0x20 ADD PUSH32 0x5068696C697070696E6573000000000000000000000000000000000000000000 DUP2 MSTORE POP DUP2 MSTORE PUSH1 0x20 ADD PUSH1 0x40 MLOAD DUP1 PUSH1 0x40 ADD PUSH1 0x40 MSTORE DUP1 PUSH1 0x2 DUP2 MSTORE PUSH1 0x20 ADD PUSH32 0x5048000000000000000000000000000000000000000000000000000000000000 DUP2 MSTORE POP DUP2 MSTORE POP DUP2 MSTORE PUSH1 0x20 ADD PUSH1 0x40 MLOAD DUP1 PUSH1 0x40 ADD PUSH1 0x40 MSTORE DUP1 PUSH1 0x40 MLOAD DUP1 PUSH1 0x40 ADD PUSH1 0x40 MSTORE DUP1 PUSH1 0x6 DUP2 MSTORE PUSH1 0x20 ADD PUSH32 0x506F6C616E640000000000000000000000000000000000000000000000000000 DUP2 MSTORE POP DUP2 MSTORE PUSH1 0x20 ADD PUSH1 0x40 MLOAD DUP1 PUSH1 0x40 ADD PUSH1 0x40 MSTORE DUP1 PUSH1 0x2 DUP2 MSTORE PUSH1 0x20 ADD PUSH32 0x504C000000000000000000000000000000000000000000000000000000000000 DUP2 MSTORE POP DUP2 MSTORE POP DUP2 MSTORE PUSH1 0x20 ADD PUSH1 0x40 MLOAD DUP1 PUSH1 0x40 ADD PUSH1 0x40 MSTORE DUP1 PUSH1 0x40 MLOAD DUP1 PUSH1 0x40 ADD PUSH1 0x40 MSTORE DUP1 PUSH1 0x8 DUP2 MSTORE PUSH1 0x20 ADD PUSH32 0x506F72747567616C000000000000000000000000000000000000000000000000 DUP2 MSTORE POP DUP2 MSTORE PUSH1 0x20 ADD PUSH1 0x40 MLOAD DUP1 PUSH1 0x40 ADD PUSH1 0x40 MSTORE DUP1 PUSH1 0x2 DUP2 MSTORE PUSH1 0x20 ADD PUSH32 0x5054000000000000000000000000000000000000000000000000000000000000 DUP2 MSTORE POP DUP2 MSTORE POP DUP2 MSTORE PUSH1 0x20 ADD PUSH1 0x40 MLOAD DUP1 PUSH1 0x40 ADD PUSH1 0x40 MSTORE DUP1 PUSH1 0x40 MLOAD DUP1 PUSH1 0x40 ADD PUSH1 0x40 MSTORE DUP1 PUSH1 0x5 DUP2 MSTORE PUSH1 0x20 ADD PUSH32 0x5161746172000000000000000000000000000000000000000000000000000000 DUP2 MSTORE POP DUP2 MSTORE PUSH1 0x20 ADD PUSH1 0x40 MLOAD DUP1 PUSH1 0x40 ADD PUSH1 0x40 MSTORE DUP1 PUSH1 0x2 DUP2 MSTORE PUSH1 0x20 ADD PUSH32 0x5141000000000000000000000000000000000000000000000000000000000000 DUP2 MSTORE POP DUP2 MSTORE POP DUP2 MSTORE PUSH1 0x20 ADD PUSH1 0x40 MLOAD DUP1 PUSH1 0x40 ADD PUSH1 0x40 MSTORE DUP1 PUSH1 0x40 MLOAD DUP1 PUSH1 0x40 ADD PUSH1 0x40 MSTORE DUP1 PUSH1 0x7 DUP2 MSTORE PUSH1 0x20 ADD PUSH32 0x526F6D616E696100000000000000000000000000000000000000000000000000 DUP2 MSTORE POP DUP2 MSTORE PUSH1 0x20 ADD PUSH1 0x40 MLOAD DUP1 PUSH1 0x40 ADD PUSH1 0x40 MSTORE DUP1 PUSH1 0x2 DUP2 MSTORE PUSH1 0x20 ADD PUSH32 0x524F000000000000000000000000000000000000000000000000000000000000 DUP2 MSTORE POP DUP2 MSTORE POP DUP2 MSTORE PUSH1 0x20 ADD PUSH1 0x40 MLOAD DUP1 PUSH1 0x40 ADD PUSH1 0x40 MSTORE DUP1 PUSH1 0x40 MLOAD DUP1 PUSH1 0x40 ADD PUSH1 0x40 MSTORE DUP1 PUSH1 0x6 DUP2 MSTORE PUSH1 0x20 ADD PUSH32 0x5275737369610000000000000000000000000000000000000000000000000000 DUP2 MSTORE POP DUP2 MSTORE PUSH1 0x20 ADD PUSH1 0x40 MLOAD DUP1 PUSH1 0x40 ADD PUSH1 0x40 MSTORE DUP1 PUSH1 0x2 DUP2 MSTORE PUSH1 0x20 ADD PUSH32 0x5255000000000000000000000000000000000000000000000000000000000000 DUP2 MSTORE POP DUP2 MSTORE POP DUP2 MSTORE PUSH1 0x20 ADD PUSH1 0x40 MLOAD DUP1 PUSH1 0x40 ADD PUSH1 0x40 MSTORE DUP1 PUSH1 0x40 MLOAD DUP1 PUSH1 0x40 ADD PUSH1 0x40 MSTORE DUP1 PUSH1 0x6 DUP2 MSTORE PUSH1 0x20 ADD PUSH32 0x5277616E64610000000000000000000000000000000000000000000000000000 DUP2 MSTORE POP DUP2 MSTORE PUSH1 0x20 ADD PUSH1 0x40 MLOAD DUP1 PUSH1 0x40 ADD PUSH1 0x40 MSTORE DUP1 PUSH1 0x2 DUP2 MSTORE PUSH1 0x20 ADD PUSH32 0x5257000000000000000000000000000000000000000000000000000000000000 DUP2 MSTORE POP DUP2 MSTORE POP DUP2 MSTORE PUSH1 0x20 ADD PUSH1 0x40 MLOAD DUP1 PUSH1 0x40 ADD PUSH1 0x40 MSTORE DUP1 PUSH1 0x40 MLOAD DUP1 PUSH1 0x40 ADD PUSH1 0x40 MSTORE DUP1 PUSH1 0x15 DUP2 MSTORE PUSH1 0x20 ADD PUSH32 0x5361696E74204B6974747320616E64204E657669730000000000000000000000 DUP2 MSTORE POP DUP2 MSTORE PUSH1 0x20 ADD PUSH1 0x40 MLOAD DUP1 PUSH1 0x40 ADD PUSH1 0x40 MSTORE DUP1 PUSH1 0x2 DUP2 MSTORE PUSH1 0x20 ADD PUSH32 0x4B4E000000000000000000000000000000000000000000000000000000000000 DUP2 MSTORE POP DUP2 MSTORE POP DUP2 MSTORE PUSH1 0x20 ADD PUSH1 0x40 MLOAD DUP1 PUSH1 0x40 ADD PUSH1 0x40 MSTORE DUP1 PUSH1 0x40 MLOAD DUP1 PUSH1 0x40 ADD PUSH1 0x40 MSTORE DUP1 PUSH1 0xB DUP2 MSTORE PUSH1 0x20 ADD PUSH32 0x5361696E74204C75636961000000000000000000000000000000000000000000 DUP2 MSTORE POP DUP2 MSTORE PUSH1 0x20 ADD PUSH1 0x40 MLOAD DUP1 PUSH1 0x40 ADD PUSH1 0x40 MSTORE DUP1 PUSH1 0x2 DUP2 MSTORE PUSH1 0x20 ADD PUSH32 0x4C43000000000000000000000000000000000000000000000000000000000000 DUP2 MSTORE POP DUP2 MSTORE POP DUP2 MSTORE PUSH1 0x20 ADD PUSH1 0x40 MLOAD DUP1 PUSH1 0x40 ADD PUSH1 0x40 MSTORE DUP1 PUSH1 0x40 MLOAD DUP1 PUSH1 0x40 ADD PUSH1 0x40 MSTORE DUP1 PUSH1 0x20 DUP2 MSTORE PUSH1 0x20 ADD PUSH32 0x5361696E742056696E63656E7420616E6420746865204772656E6164696E6573 DUP2 MSTORE POP DUP2 MSTORE PUSH1 0x20 ADD PUSH1 0x40 MLOAD DUP1 PUSH1 0x40 ADD PUSH1 0x40 MSTORE DUP1 PUSH1 0x2 DUP2 MSTORE PUSH1 0x20 ADD PUSH32 0x5643000000000000000000000000000000000000000000000000000000000000 DUP2 MSTORE POP DUP2 MSTORE POP DUP2 MSTORE PUSH1 0x20 ADD PUSH1 0x40 MLOAD DUP1 PUSH1 0x40 ADD PUSH1 0x40 MSTORE DUP1 PUSH1 0x40 MLOAD DUP1 PUSH1 0x40 ADD PUSH1 0x40 MSTORE DUP1 PUSH1 0x5 DUP2 MSTORE PUSH1 0x20 ADD PUSH32 0x53616D6F61000000000000000000000000000000000000000000000000000000 DUP2 MSTORE POP DUP2 MSTORE PUSH1 0x20 ADD PUSH1 0x40 MLOAD DUP1 PUSH1 0x40 ADD PUSH1 0x40 MSTORE DUP1 PUSH1 0x2 DUP2 MSTORE PUSH1 0x20 ADD PUSH32 0x5753000000000000000000000000000000000000000000000000000000000000 DUP2 MSTORE POP DUP2 MSTORE POP DUP2 MSTORE PUSH1 0x20 ADD PUSH1 0x40 MLOAD DUP1 PUSH1 0x40 ADD PUSH1 0x40 MSTORE DUP1 PUSH1 0x40 MLOAD DUP1 PUSH1 0x40 ADD PUSH1 0x40 MSTORE DUP1 PUSH1 0xA DUP2 MSTORE PUSH1 0x20 ADD PUSH32 0x53616E204D6172696E6F00000000000000000000000000000000000000000000 DUP2 MSTORE POP DUP2 MSTORE PUSH1 0x20 ADD PUSH1 0x40 MLOAD DUP1 PUSH1 0x40 ADD PUSH1 0x40 MSTORE DUP1 PUSH1 0x2 DUP2 MSTORE PUSH1 0x20 ADD PUSH32 0x534D000000000000000000000000000000000000000000000000000000000000 DUP2 MSTORE POP DUP2 MSTORE POP DUP2 MSTORE PUSH1 0x20 ADD PUSH1 0x40 MLOAD DUP1 PUSH1 0x40 ADD PUSH1 0x40 MSTORE DUP1 PUSH1 0x40 MLOAD DUP1 PUSH1 0x40 ADD PUSH1 0x40 MSTORE DUP1 PUSH1 0x15 DUP2 MSTORE PUSH1 0x20 ADD PUSH32 0x53616F20546F6D6520616E64205072696E636970650000000000000000000000 DUP2 MSTORE POP DUP2 MSTORE PUSH1 0x20 ADD PUSH1 0x40 MLOAD DUP1 PUSH1 0x40 ADD PUSH1 0x40 MSTORE DUP1 PUSH1 0x2 DUP2 MSTORE PUSH1 0x20 ADD PUSH32 0x5354000000000000000000000000000000000000000000000000000000000000 DUP2 MSTORE POP DUP2 MSTORE POP DUP2 MSTORE PUSH1 0x20 ADD PUSH1 0x40 MLOAD DUP1 PUSH1 0x40 ADD PUSH1 0x40 MSTORE DUP1 PUSH1 0x40 MLOAD DUP1 PUSH1 0x40 ADD PUSH1 0x40 MSTORE DUP1 PUSH1 0xC DUP2 MSTORE PUSH1 0x20 ADD PUSH32 0x5361756469204172616269610000000000000000000000000000000000000000 DUP2 MSTORE POP DUP2 MSTORE PUSH1 0x20 ADD PUSH1 0x40 MLOAD DUP1 PUSH1 0x40 ADD PUSH1 0x40 MSTORE DUP1 PUSH1 0x2 DUP2 MSTORE PUSH1 0x20 ADD PUSH32 0x5341000000000000000000000000000000000000000000000000000000000000 DUP2 MSTORE POP DUP2 MSTORE POP DUP2 MSTORE PUSH1 0x20 ADD PUSH1 0x40 MLOAD DUP1 PUSH1 0x40 ADD PUSH1 0x40 MSTORE DUP1 PUSH1 0x40 MLOAD DUP1 PUSH1 0x40 ADD PUSH1 0x40 MSTORE DUP1 PUSH1 0x7 DUP2 MSTORE PUSH1 0x20 ADD PUSH32 0x53656E6567616C00000000000000000000000000000000000000000000000000 DUP2 MSTORE POP DUP2 MSTORE PUSH1 0x20 ADD PUSH1 0x40 MLOAD DUP1 PUSH1 0x40 ADD PUSH1 0x40 MSTORE DUP1 PUSH1 0x2 DUP2 MSTORE PUSH1 0x20 ADD PUSH32 0x534E000000000000000000000000000000000000000000000000000000000000 DUP2 MSTORE POP DUP2 MSTORE POP DUP2 MSTORE PUSH1 0x20 ADD PUSH1 0x40 MLOAD DUP1 PUSH1 0x40 ADD PUSH1 0x40 MSTORE DUP1 PUSH1 0x40 MLOAD DUP1 PUSH1 0x40 ADD PUSH1 0x40 MSTORE DUP1 PUSH1 0x6 DUP2 MSTORE PUSH1 0x20 ADD PUSH32 0x5365726269610000000000000000000000000000000000000000000000000000 DUP2 MSTORE POP DUP2 MSTORE PUSH1 0x20 ADD PUSH1 0x40 MLOAD DUP1 PUSH1 0x40 ADD PUSH1 0x40 MSTORE DUP1 PUSH1 0x2 DUP2 MSTORE PUSH1 0x20 ADD PUSH32 0x5253000000000000000000000000000000000000000000000000000000000000 DUP2 MSTORE POP DUP2 MSTORE POP DUP2 MSTORE PUSH1 0x20 ADD PUSH1 0x40 MLOAD DUP1 PUSH1 0x40 ADD PUSH1 0x40 MSTORE DUP1 PUSH1 0x40 MLOAD DUP1 PUSH1 0x40 ADD PUSH1 0x40 MSTORE DUP1 PUSH1 0xA DUP2 MSTORE PUSH1 0x20 ADD PUSH32 0x5365796368656C6C657300000000000000000000000000000000000000000000 DUP2 MSTORE POP DUP2 MSTORE PUSH1 0x20 ADD PUSH1 0x40 MLOAD DUP1 PUSH1 0x40 ADD PUSH1 0x40 MSTORE DUP1 PUSH1 0x2 DUP2 MSTORE PUSH1 0x20 ADD PUSH32 0x5343000000000000000000000000000000000000000000000000000000000000 DUP2 MSTORE POP DUP2 MSTORE POP DUP2 MSTORE PUSH1 0x20 ADD PUSH1 0x40 MLOAD DUP1 PUSH1 0x40 ADD PUSH1 0x40 MSTORE DUP1 PUSH1 0x40 MLOAD DUP1 PUSH1 0x40 ADD PUSH1 0x40 MSTORE DUP1 PUSH1 0xC DUP2 MSTORE PUSH1 0x20 ADD PUSH32 0x536965727261204C656F6E650000000000000000000000000000000000000000 DUP2 MSTORE POP DUP2 MSTORE PUSH1 0x20 ADD PUSH1 0x40 MLOAD DUP1 PUSH1 0x40 ADD PUSH1 0x40 MSTORE DUP1 PUSH1 0x2 DUP2 MSTORE PUSH1 0x20 ADD PUSH32 0x534C000000000000000000000000000000000000000000000000000000000000 DUP2 MSTORE POP DUP2 MSTORE POP DUP2 MSTORE PUSH1 0x20 ADD PUSH1 0x40 MLOAD DUP1 PUSH1 0x40 ADD PUSH1 0x40 MSTORE DUP1 PUSH1 0x40 MLOAD DUP1 PUSH1 0x40 ADD PUSH1 0x40 MSTORE DUP1 PUSH1 0x9 DUP2 MSTORE PUSH1 0x20 ADD PUSH32 0x53696E6761706F72650000000000000000000000000000000000000000000000 DUP2 MSTORE POP DUP2 MSTORE PUSH1 0x20 ADD PUSH1 0x40 MLOAD DUP1 PUSH1 0x40 ADD PUSH1 0x40 MSTORE DUP1 PUSH1 0x2 DUP2 MSTORE PUSH1 0x20 ADD PUSH32 0x5347000000000000000000000000000000000000000000000000000000000000 DUP2 MSTORE POP DUP2 MSTORE POP DUP2 MSTORE PUSH1 0x20 ADD PUSH1 0x40 MLOAD DUP1 PUSH1 0x40 ADD PUSH1 0x40 MSTORE DUP1 PUSH1 0x40 MLOAD DUP1 PUSH1 0x40 ADD PUSH1 0x40 MSTORE DUP1 PUSH1 0x8 DUP2 MSTORE PUSH1 0x20 ADD PUSH32 0x536C6F76616B6961000000000000000000000000000000000000000000000000 DUP2 MSTORE POP DUP2 MSTORE PUSH1 0x20 ADD PUSH1 0x40 MLOAD DUP1 PUSH1 0x40 ADD PUSH1 0x40 MSTORE DUP1 PUSH1 0x2 DUP2 MSTORE PUSH1 0x20 ADD PUSH32 0x534B000000000000000000000000000000000000000000000000000000000000 DUP2 MSTORE POP DUP2 MSTORE POP DUP2 MSTORE PUSH1 0x20 ADD PUSH1 0x40 MLOAD DUP1 PUSH1 0x40 ADD PUSH1 0x40 MSTORE DUP1 PUSH1 0x40 MLOAD DUP1 PUSH1 0x40 ADD PUSH1 0x40 MSTORE DUP1 PUSH1 0x8 DUP2 MSTORE PUSH1 0x20 ADD PUSH32 0x536C6F76656E6961000000000000000000000000000000000000000000000000 DUP2 MSTORE POP DUP2 MSTORE PUSH1 0x20 ADD PUSH1 0x40 MLOAD DUP1 PUSH1 0x40 ADD PUSH1 0x40 MSTORE DUP1 PUSH1 0x2 DUP2 MSTORE PUSH1 0x20 ADD PUSH32 0x5349000000000000000000000000000000000000000000000000000000000000 DUP2 MSTORE POP DUP2 MSTORE POP DUP2 MSTORE PUSH1 0x20 ADD PUSH1 0x40 MLOAD DUP1 PUSH1 0x40 ADD PUSH1 0x40 MSTORE DUP1 PUSH1 0x40 MLOAD DUP1 PUSH1 0x40 ADD PUSH1 0x40 MSTORE DUP1 PUSH1 0xF DUP2 MSTORE PUSH1 0x20 ADD PUSH32 0x536F6C6F6D6F6E2049736C616E64730000000000000000000000000000000000 DUP2 MSTORE POP DUP2 MSTORE PUSH1 0x20 ADD PUSH1 0x40 MLOAD DUP1 PUSH1 0x40 ADD PUSH1 0x40 MSTORE DUP1 PUSH1 0x2 DUP2 MSTORE PUSH1 0x20 ADD PUSH32 0x5342000000000000000000000000000000000000000000000000000000000000 DUP2 MSTORE POP DUP2 MSTORE POP DUP2 MSTORE PUSH1 0x20 ADD PUSH1 0x40 MLOAD DUP1 PUSH1 0x40 ADD PUSH1 0x40 MSTORE DUP1 PUSH1 0x40 MLOAD DUP1 PUSH1 0x40 ADD PUSH1 0x40 MSTORE DUP1 PUSH1 0x7 DUP2 MSTORE PUSH1 0x20 ADD PUSH32 0x536F6D616C696100000000000000000000000000000000000000000000000000 DUP2 MSTORE POP DUP2 MSTORE PUSH1 0x20 ADD PUSH1 0x40 MLOAD DUP1 PUSH1 0x40 ADD PUSH1 0x40 MSTORE DUP1 PUSH1 0x2 DUP2 MSTORE PUSH1 0x20 ADD PUSH32 0x534F000000000000000000000000000000000000000000000000000000000000 DUP2 MSTORE POP DUP2 MSTORE POP DUP2 MSTORE PUSH1 0x20 ADD PUSH1 0x40 MLOAD DUP1 PUSH1 0x40 ADD PUSH1 0x40 MSTORE DUP1 PUSH1 0x40 MLOAD DUP1 PUSH1 0x40 ADD PUSH1 0x40 MSTORE DUP1 PUSH1 0xC DUP2 MSTORE PUSH1 0x20 ADD PUSH32 0x536F757468204166726963610000000000000000000000000000000000000000 DUP2 MSTORE POP DUP2 MSTORE PUSH1 0x20 ADD PUSH1 0x40 MLOAD DUP1 PUSH1 0x40 ADD PUSH1 0x40 MSTORE DUP1 PUSH1 0x2 DUP2 MSTORE PUSH1 0x20 ADD PUSH32 0x5A41000000000000000000000000000000000000000000000000000000000000 DUP2 MSTORE POP DUP2 MSTORE POP DUP2 MSTORE PUSH1 0x20 ADD PUSH1 0x40 MLOAD DUP1 PUSH1 0x40 ADD PUSH1 0x40 MSTORE DUP1 PUSH1 0x40 MLOAD DUP1 PUSH1 0x40 ADD PUSH1 0x40 MSTORE DUP1 PUSH1 0xB DUP2 MSTORE PUSH1 0x20 ADD PUSH32 0x536F757468204B6F726561000000000000000000000000000000000000000000 DUP2 MSTORE POP DUP2 MSTORE PUSH1 0x20 ADD PUSH1 0x40 MLOAD DUP1 PUSH1 0x40 ADD PUSH1 0x40 MSTORE DUP1 PUSH1 0x2 DUP2 MSTORE PUSH1 0x20 ADD PUSH32 0x4B52000000000000000000000000000000000000000000000000000000000000 DUP2 MSTORE POP DUP2 MSTORE POP DUP2 MSTORE PUSH1 0x20 ADD PUSH1 0x40 MLOAD DUP1 PUSH1 0x40 ADD PUSH1 0x40 MSTORE DUP1 PUSH1 0x40 MLOAD DUP1 PUSH1 0x40 ADD PUSH1 0x40 MSTORE DUP1 PUSH1 0xB DUP2 MSTORE PUSH1 0x20 ADD PUSH32 0x536F75746820537564616E000000000000000000000000000000000000000000 DUP2 MSTORE POP DUP2 MSTORE PUSH1 0x20 ADD PUSH1 0x40 MLOAD DUP1 PUSH1 0x40 ADD PUSH1 0x40 MSTORE DUP1 PUSH1 0x2 DUP2 MSTORE PUSH1 0x20 ADD PUSH32 0x5353000000000000000000000000000000000000000000000000000000000000 DUP2 MSTORE POP DUP2 MSTORE POP DUP2 MSTORE PUSH1 0x20 ADD PUSH1 0x40 MLOAD DUP1 PUSH1 0x40 ADD PUSH1 0x40 MSTORE DUP1 PUSH1 0x40 MLOAD DUP1 PUSH1 0x40 ADD PUSH1 0x40 MSTORE DUP1 PUSH1 0x5 DUP2 MSTORE PUSH1 0x20 ADD PUSH32 0x537061696E000000000000000000000000000000000000000000000000000000 DUP2 MSTORE POP DUP2 MSTORE PUSH1 0x20 ADD PUSH1 0x40 MLOAD DUP1 PUSH1 0x40 ADD PUSH1 0x40 MSTORE DUP1 PUSH1 0x2 DUP2 MSTORE PUSH1 0x20 ADD PUSH32 0x4553000000000000000000000000000000000000000000000000000000000000 DUP2 MSTORE POP DUP2 MSTORE POP DUP2 MSTORE PUSH1 0x20 ADD PUSH1 0x40 MLOAD DUP1 PUSH1 0x40 ADD PUSH1 0x40 MSTORE DUP1 PUSH1 0x40 MLOAD DUP1 PUSH1 0x40 ADD PUSH1 0x40 MSTORE DUP1 PUSH1 0x9 DUP2 MSTORE PUSH1 0x20 ADD PUSH32 0x537269204C616E6B610000000000000000000000000000000000000000000000 DUP2 MSTORE POP DUP2 MSTORE PUSH1 0x20 ADD PUSH1 0x40 MLOAD DUP1 PUSH1 0x40 ADD PUSH1 0x40 MSTORE DUP1 PUSH1 0x2 DUP2 MSTORE PUSH1 0x20 ADD PUSH32 0x4C4B000000000000000000000000000000000000000000000000000000000000 DUP2 MSTORE POP DUP2 MSTORE POP DUP2 MSTORE PUSH1 0x20 ADD PUSH1 0x40 MLOAD DUP1 PUSH1 0x40 ADD PUSH1 0x40 MSTORE DUP1 PUSH1 0x40 MLOAD DUP1 PUSH1 0x40 ADD PUSH1 0x40 MSTORE DUP1 PUSH1 0x5 DUP2 MSTORE PUSH1 0x20 ADD PUSH32 0x537564616E000000000000000000000000000000000000000000000000000000 DUP2 MSTORE POP DUP2 MSTORE PUSH1 0x20 ADD PUSH1 0x40 MLOAD DUP1 PUSH1 0x40 ADD PUSH1 0x40 MSTORE DUP1 PUSH1 0x2 DUP2 MSTORE PUSH1 0x20 ADD PUSH32 0x5344000000000000000000000000000000000000000000000000000000000000 DUP2 MSTORE POP DUP2 MSTORE POP DUP2 MSTORE PUSH1 0x20 ADD PUSH1 0x40 MLOAD DUP1 PUSH1 0x40 ADD PUSH1 0x40 MSTORE DUP1 PUSH1 0x40 MLOAD DUP1 PUSH1 0x40 ADD PUSH1 0x40 MSTORE DUP1 PUSH1 0x8 DUP2 MSTORE PUSH1 0x20 ADD PUSH32 0x537572696E616D65000000000000000000000000000000000000000000000000 DUP2 MSTORE POP DUP2 MSTORE PUSH1 0x20 ADD PUSH1 0x40 MLOAD DUP1 PUSH1 0x40 ADD PUSH1 0x40 MSTORE DUP1 PUSH1 0x2 DUP2 MSTORE PUSH1 0x20 ADD PUSH32 0x5352000000000000000000000000000000000000000000000000000000000000 DUP2 MSTORE POP DUP2 MSTORE POP DUP2 MSTORE PUSH1 0x20 ADD PUSH1 0x40 MLOAD DUP1 PUSH1 0x40 ADD PUSH1 0x40 MSTORE DUP1 PUSH1 0x40 MLOAD DUP1 PUSH1 0x40 ADD PUSH1 0x40 MSTORE DUP1 PUSH1 0x6 DUP2 MSTORE PUSH1 0x20 ADD PUSH32 0x53776564656E0000000000000000000000000000000000000000000000000000 DUP2 MSTORE POP DUP2 MSTORE PUSH1 0x20 ADD PUSH1 0x40 MLOAD DUP1 PUSH1 0x40 ADD PUSH1 0x40 MSTORE DUP1 PUSH1 0x2 DUP2 MSTORE PUSH1 0x20 ADD PUSH32 0x5345000000000000000000000000000000000000000000000000000000000000 DUP2 MSTORE POP DUP2 MSTORE POP DUP2 MSTORE PUSH1 0x20 ADD PUSH1 0x40 MLOAD DUP1 PUSH1 0x40 ADD PUSH1 0x40 MSTORE DUP1 PUSH1 0x40 MLOAD DUP1 PUSH1 0x40 ADD PUSH1 0x40 MSTORE DUP1 PUSH1 0xB DUP2 MSTORE PUSH1 0x20 ADD PUSH32 0x537769747A65726C616E64000000000000000000000000000000000000000000 DUP2 MSTORE POP DUP2 MSTORE PUSH1 0x20 ADD PUSH1 0x40 MLOAD DUP1 PUSH1 0x40 ADD PUSH1 0x40 MSTORE DUP1 PUSH1 0x2 DUP2 MSTORE PUSH1 0x20 ADD PUSH32 0x4348000000000000000000000000000000000000000000000000000000000000 DUP2 MSTORE POP DUP2 MSTORE POP DUP2 MSTORE PUSH1 0x20 ADD PUSH1 0x40 MLOAD DUP1 PUSH1 0x40 ADD PUSH1 0x40 MSTORE DUP1 PUSH1 0x40 MLOAD DUP1 PUSH1 0x40 ADD PUSH1 0x40 MSTORE DUP1 PUSH1 0x5 DUP2 MSTORE PUSH1 0x20 ADD PUSH32 0x5379726961000000000000000000000000000000000000000000000000000000 DUP2 MSTORE POP DUP2 MSTORE PUSH1 0x20 ADD PUSH1 0x40 MLOAD DUP1 PUSH1 0x40 ADD PUSH1 0x40 MSTORE DUP1 PUSH1 0x2 DUP2 MSTORE PUSH1 0x20 ADD PUSH32 0x5359000000000000000000000000000000000000000000000000000000000000 DUP2 MSTORE POP DUP2 MSTORE POP DUP2 MSTORE PUSH1 0x20 ADD PUSH1 0x40 MLOAD DUP1 PUSH1 0x40 ADD PUSH1 0x40 MSTORE DUP1 PUSH1 0x40 MLOAD DUP1 PUSH1 0x40 ADD PUSH1 0x40 MSTORE DUP1 PUSH1 0x6 DUP2 MSTORE PUSH1 0x20 ADD PUSH32 0x54616977616E0000000000000000000000000000000000000000000000000000 DUP2 MSTORE POP DUP2 MSTORE PUSH1 0x20 ADD PUSH1 0x40 MLOAD DUP1 PUSH1 0x40 ADD PUSH1 0x40 MSTORE DUP1 PUSH1 0x2 DUP2 MSTORE PUSH1 0x20 ADD PUSH32 0x5457000000000000000000000000000000000000000000000000000000000000 DUP2 MSTORE POP DUP2 MSTORE POP DUP2 MSTORE PUSH1 0x20 ADD PUSH1 0x40 MLOAD DUP1 PUSH1 0x40 ADD PUSH1 0x40 MSTORE DUP1 PUSH1 0x40 MLOAD DUP1 PUSH1 0x40 ADD PUSH1 0x40 MSTORE DUP1 PUSH1 0xA DUP2 MSTORE PUSH1 0x20 ADD PUSH32 0x54616A696B697374616E00000000000000000000000000000000000000000000 DUP2 MSTORE POP DUP2 MSTORE PUSH1 0x20 ADD PUSH1 0x40 MLOAD DUP1 PUSH1 0x40 ADD PUSH1 0x40 MSTORE DUP1 PUSH1 0x2 DUP2 MSTORE PUSH1 0x20 ADD PUSH32 0x544A000000000000000000000000000000000000000000000000000000000000 DUP2 MSTORE POP DUP2 MSTORE POP DUP2 MSTORE PUSH1 0x20 ADD PUSH1 0x40 MLOAD DUP1 PUSH1 0x40 ADD PUSH1 0x40 MSTORE DUP1 PUSH1 0x40 MLOAD DUP1 PUSH1 0x40 ADD PUSH1 0x40 MSTORE DUP1 PUSH1 0x8 DUP2 MSTORE PUSH1 0x20 ADD PUSH32 0x54616E7A616E6961000000000000000000000000000000000000000000000000 DUP2 MSTORE POP DUP2 MSTORE PUSH1 0x20 ADD PUSH1 0x40 MLOAD DUP1 PUSH1 0x40 ADD PUSH1 0x40 MSTORE DUP1 PUSH1 0x2 DUP2 MSTORE PUSH1 0x20 ADD PUSH32 0x545A000000000000000000000000000000000000000000000000000000000000 DUP2 MSTORE POP DUP2 MSTORE POP DUP2 MSTORE PUSH1 0x20 ADD PUSH1 0x40 MLOAD DUP1 PUSH1 0x40 ADD PUSH1 0x40 MSTORE DUP1 PUSH1 0x40 MLOAD DUP1 PUSH1 0x40 ADD PUSH1 0x40 MSTORE DUP1 PUSH1 0x8 DUP2 MSTORE PUSH1 0x20 ADD PUSH32 0x546861696C616E64000000000000000000000000000000000000000000000000 DUP2 MSTORE POP DUP2 MSTORE PUSH1 0x20 ADD PUSH1 0x40 MLOAD DUP1 PUSH1 0x40 ADD PUSH1 0x40 MSTORE DUP1 PUSH1 0x2 DUP2 MSTORE PUSH1 0x20 ADD PUSH32 0x5448000000000000000000000000000000000000000000000000000000000000 DUP2 MSTORE POP DUP2 MSTORE POP DUP2 MSTORE PUSH1 0x20 ADD PUSH1 0x40 MLOAD DUP1 PUSH1 0x40 ADD PUSH1 0x40 MSTORE DUP1 PUSH1 0x40 MLOAD DUP1 PUSH1 0x40 ADD PUSH1 0x40 MSTORE DUP1 PUSH1 0xB DUP2 MSTORE PUSH1 0x20 ADD PUSH32 0x54696D6F722D4C65737465000000000000000000000000000000000000000000 DUP2 MSTORE POP DUP2 MSTORE PUSH1 0x20 ADD PUSH1 0x40 MLOAD DUP1 PUSH1 0x40 ADD PUSH1 0x40 MSTORE DUP1 PUSH1 0x2 DUP2 MSTORE PUSH1 0x20 ADD PUSH32 0x544C000000000000000000000000000000000000000000000000000000000000 DUP2 MSTORE POP DUP2 MSTORE POP DUP2 MSTORE PUSH1 0x20 ADD PUSH1 0x40 MLOAD DUP1 PUSH1 0x40 ADD PUSH1 0x40 MSTORE DUP1 PUSH1 0x40 MLOAD DUP1 PUSH1 0x40 ADD PUSH1 0x40 MSTORE DUP1 PUSH1 0x4 DUP2 MSTORE PUSH1 0x20 ADD PUSH32 0x546F676F00000000000000000000000000000000000000000000000000000000 DUP2 MSTORE POP DUP2 MSTORE PUSH1 0x20 ADD PUSH1 0x40 MLOAD DUP1 PUSH1 0x40 ADD PUSH1 0x40 MSTORE DUP1 PUSH1 0x2 DUP2 MSTORE PUSH1 0x20 ADD PUSH32 0x5447000000000000000000000000000000000000000000000000000000000000 DUP2 MSTORE POP DUP2 MSTORE POP DUP2 MSTORE PUSH1 0x20 ADD PUSH1 0x40 MLOAD DUP1 PUSH1 0x40 ADD PUSH1 0x40 MSTORE DUP1 PUSH1 0x40 MLOAD DUP1 PUSH1 0x40 ADD PUSH1 0x40 MSTORE DUP1 PUSH1 0x13 DUP2 MSTORE PUSH1 0x20 ADD PUSH32 0x5472696E6964616420616E6420546F6261676F00000000000000000000000000 DUP2 MSTORE POP DUP2 MSTORE PUSH1 0x20 ADD PUSH1 0x40 MLOAD DUP1 PUSH1 0x40 ADD PUSH1 0x40 MSTORE DUP1 PUSH1 0x2 DUP2 MSTORE PUSH1 0x20 ADD PUSH32 0x5454000000000000000000000000000000000000000000000000000000000000 DUP2 MSTORE POP DUP2 MSTORE POP DUP2 MSTORE PUSH1 0x20 ADD PUSH1 0x40 MLOAD DUP1 PUSH1 0x40 ADD PUSH1 0x40 MSTORE DUP1 PUSH1 0x40 MLOAD DUP1 PUSH1 0x40 ADD PUSH1 0x40 MSTORE DUP1 PUSH1 0x7 DUP2 MSTORE PUSH1 0x20 ADD PUSH32 0x54756E6973696100000000000000000000000000000000000000000000000000 DUP2 MSTORE POP DUP2 MSTORE PUSH1 0x20 ADD PUSH1 0x40 MLOAD DUP1 PUSH1 0x40 ADD PUSH1 0x40 MSTORE DUP1 PUSH1 0x2 DUP2 MSTORE PUSH1 0x20 ADD PUSH32 0x544E000000000000000000000000000000000000000000000000000000000000 DUP2 MSTORE POP DUP2 MSTORE POP DUP2 MSTORE PUSH1 0x20 ADD PUSH1 0x40 MLOAD DUP1 PUSH1 0x40 ADD PUSH1 0x40 MSTORE DUP1 PUSH1 0x40 MLOAD DUP1 PUSH1 0x40 ADD PUSH1 0x40 MSTORE DUP1 PUSH1 0x6 DUP2 MSTORE PUSH1 0x20 ADD PUSH32 0x5475726B65790000000000000000000000000000000000000000000000000000 DUP2 MSTORE POP DUP2 MSTORE PUSH1 0x20 ADD PUSH1 0x40 MLOAD DUP1 PUSH1 0x40 ADD PUSH1 0x40 MSTORE DUP1 PUSH1 0x2 DUP2 MSTORE PUSH1 0x20 ADD PUSH32 0x5452000000000000000000000000000000000000000000000000000000000000 DUP2 MSTORE POP DUP2 MSTORE POP DUP2 MSTORE PUSH1 0x20 ADD PUSH1 0x40 MLOAD DUP1 PUSH1 0x40 ADD PUSH1 0x40 MSTORE DUP1 PUSH1 0x40 MLOAD DUP1 PUSH1 0x40 ADD PUSH1 0x40 MSTORE DUP1 PUSH1 0xC DUP2 MSTORE PUSH1 0x20 ADD PUSH32 0x5475726B6D656E697374616E0000000000000000000000000000000000000000 DUP2 MSTORE POP DUP2 MSTORE PUSH1 0x20 ADD PUSH1 0x40 MLOAD DUP1 PUSH1 0x40 ADD PUSH1 0x40 MSTORE DUP1 PUSH1 0x2 DUP2 MSTORE PUSH1 0x20 ADD PUSH32 0x544D000000000000000000000000000000000000000000000000000000000000 DUP2 MSTORE POP DUP2 MSTORE POP DUP2 MSTORE PUSH1 0x20 ADD PUSH1 0x40 MLOAD DUP1 PUSH1 0x40 ADD PUSH1 0x40 MSTORE DUP1 PUSH1 0x40 MLOAD DUP1 PUSH1 0x40 ADD PUSH1 0x40 MSTORE DUP1 PUSH1 0x6 DUP2 MSTORE PUSH1 0x20 ADD PUSH32 0x547576616C750000000000000000000000000000000000000000000000000000 DUP2 MSTORE POP DUP2 MSTORE PUSH1 0x20 ADD PUSH1 0x40 MLOAD DUP1 PUSH1 0x40 ADD PUSH1 0x40 MSTORE DUP1 PUSH1 0x2 DUP2 MSTORE PUSH1 0x20 ADD PUSH32 0x5456000000000000000000000000000000000000000000000000000000000000 DUP2 MSTORE POP DUP2 MSTORE POP DUP2 MSTORE PUSH1 0x20 ADD PUSH1 0x40 MLOAD DUP1 PUSH1 0x40 ADD PUSH1 0x40 MSTORE DUP1 PUSH1 0x40 MLOAD DUP1 PUSH1 0x40 ADD PUSH1 0x40 MSTORE DUP1 PUSH1 0x6 DUP2 MSTORE PUSH1 0x20 ADD PUSH32 0x5567616E64610000000000000000000000000000000000000000000000000000 DUP2 MSTORE POP DUP2 MSTORE PUSH1 0x20 ADD PUSH1 0x40 MLOAD DUP1 PUSH1 0x40 ADD PUSH1 0x40 MSTORE DUP1 PUSH1 0x2 DUP2 MSTORE PUSH1 0x20 ADD PUSH32 0x5547000000000000000000000000000000000000000000000000000000000000 DUP2 MSTORE POP DUP2 MSTORE POP DUP2 MSTORE PUSH1 0x20 ADD PUSH1 0x40 MLOAD DUP1 PUSH1 0x40 ADD PUSH1 0x40 MSTORE DUP1 PUSH1 0x40 MLOAD DUP1 PUSH1 0x40 ADD PUSH1 0x40 MSTORE DUP1 PUSH1 0x7 DUP2 MSTORE PUSH1 0x20 ADD PUSH32 0x556B7261696E6500000000000000000000000000000000000000000000000000 DUP2 MSTORE POP DUP2 MSTORE PUSH1 0x20 ADD PUSH1 0x40 MLOAD DUP1 PUSH1 0x40 ADD PUSH1 0x40 MSTORE DUP1 PUSH1 0x2 DUP2 MSTORE PUSH1 0x20 ADD PUSH32 0x5541000000000000000000000000000000000000000000000000000000000000 DUP2 MSTORE POP DUP2 MSTORE POP DUP2 MSTORE PUSH1 0x20 ADD PUSH1 0x40 MLOAD DUP1 PUSH1 0x40 ADD PUSH1 0x40 MSTORE DUP1 PUSH1 0x40 MLOAD DUP1 PUSH1 0x40 ADD PUSH1 0x40 MSTORE DUP1 PUSH1 0x14 DUP2 MSTORE PUSH1 0x20 ADD PUSH32 0x556E69746564204172616220456D697261746573000000000000000000000000 DUP2 MSTORE POP DUP2 MSTORE PUSH1 0x20 ADD PUSH1 0x40 MLOAD DUP1 PUSH1 0x40 ADD PUSH1 0x40 MSTORE DUP1 PUSH1 0x2 DUP2 MSTORE PUSH1 0x20 ADD PUSH32 0x4145000000000000000000000000000000000000000000000000000000000000 DUP2 MSTORE POP DUP2 MSTORE POP DUP2 MSTORE PUSH1 0x20 ADD PUSH1 0x40 MLOAD DUP1 PUSH1 0x40 ADD PUSH1 0x40 MSTORE DUP1 PUSH1 0x40 MLOAD DUP1 PUSH1 0x40 ADD PUSH1 0x40 MSTORE DUP1 PUSH1 0xE DUP2 MSTORE PUSH1 0x20 ADD PUSH32 0x556E69746564204B696E67646F6D000000000000000000000000000000000000 DUP2 MSTORE POP DUP2 MSTORE PUSH1 0x20 ADD PUSH1 0x40 MLOAD DUP1 PUSH1 0x40 ADD PUSH1 0x40 MSTORE DUP1 PUSH1 0x2 DUP2 MSTORE PUSH1 0x20 ADD PUSH32 0x4742000000000000000000000000000000000000000000000000000000000000 DUP2 MSTORE POP DUP2 MSTORE POP DUP2 MSTORE PUSH1 0x20 ADD PUSH1 0x40 MLOAD DUP1 PUSH1 0x40 ADD PUSH1 0x40 MSTORE DUP1 PUSH1 0x40 MLOAD DUP1 PUSH1 0x40 ADD PUSH1 0x40 MSTORE DUP1 PUSH1 0xD DUP2 MSTORE PUSH1 0x20 ADD PUSH32 0x556E697465642053746174657300000000000000000000000000000000000000 DUP2 MSTORE POP DUP2 MSTORE PUSH1 0x20 ADD PUSH1 0x40 MLOAD DUP1 PUSH1 0x40 ADD PUSH1 0x40 MSTORE DUP1 PUSH1 0x2 DUP2 MSTORE PUSH1 0x20 ADD PUSH32 0x5553000000000000000000000000000000000000000000000000000000000000 DUP2 MSTORE POP DUP2 MSTORE POP DUP2 MSTORE PUSH1 0x20 ADD PUSH1 0x40 MLOAD DUP1 PUSH1 0x40 ADD PUSH1 0x40 MSTORE DUP1 PUSH1 0x40 MLOAD DUP1 PUSH1 0x40 ADD PUSH1 0x40 MSTORE DUP1 PUSH1 0x7 DUP2 MSTORE PUSH1 0x20 ADD PUSH32 0x5572756775617900000000000000000000000000000000000000000000000000 DUP2 MSTORE POP DUP2 MSTORE PUSH1 0x20 ADD PUSH1 0x40 MLOAD DUP1 PUSH1 0x40 ADD PUSH1 0x40 MSTORE DUP1 PUSH1 0x2 DUP2 MSTORE PUSH1 0x20 ADD PUSH32 0x5559000000000000000000000000000000000000000000000000000000000000 DUP2 MSTORE POP DUP2 MSTORE POP DUP2 MSTORE PUSH1 0x20 ADD PUSH1 0x40 MLOAD DUP1 PUSH1 0x40 ADD PUSH1 0x40 MSTORE DUP1 PUSH1 0x40 MLOAD DUP1 PUSH1 0x40 ADD PUSH1 0x40 MSTORE DUP1 PUSH1 0xA DUP2 MSTORE PUSH1 0x20 ADD PUSH32 0x557A62656B697374616E00000000000000000000000000000000000000000000 DUP2 MSTORE POP DUP2 MSTORE PUSH1 0x20 ADD PUSH1 0x40 MLOAD DUP1 PUSH1 0x40 ADD PUSH1 0x40 MSTORE DUP1 PUSH1 0x2 DUP2 MSTORE PUSH1 0x20 ADD PUSH32 0x555A000000000000000000000000000000000000000000000000000000000000 DUP2 MSTORE POP DUP2 MSTORE POP DUP2 MSTORE PUSH1 0x20 ADD PUSH1 0x40 MLOAD DUP1 PUSH1 0x40 ADD PUSH1 0x40 MSTORE DUP1 PUSH1 0x40 MLOAD DUP1 PUSH1 0x40 ADD PUSH1 0x40 MSTORE DUP1 PUSH1 0x7 DUP2 MSTORE PUSH1 0x20 ADD PUSH32 0x56616E7561747500000000000000000000000000000000000000000000000000 DUP2 MSTORE POP DUP2 MSTORE PUSH1 0x20 ADD PUSH1 0x40 MLOAD DUP1 PUSH1 0x40 ADD PUSH1 0x40 MSTORE DUP1 PUSH1 0x2 DUP2 MSTORE PUSH1 0x20 ADD PUSH32 0x5655000000000000000000000000000000000000000000000000000000000000 DUP2 MSTORE POP DUP2 MSTORE POP DUP2 MSTORE PUSH1 0x20 ADD PUSH1 0x40 MLOAD DUP1 PUSH1 0x40 ADD PUSH1 0x40 MSTORE DUP1 PUSH1 0x40 MLOAD DUP1 PUSH1 0x40 ADD PUSH1 0x40 MSTORE DUP1 PUSH1 0xC DUP2 MSTORE PUSH1 0x20 ADD PUSH32 0x5661746963616E20436974790000000000000000000000000000000000000000 DUP2 MSTORE POP DUP2 MSTORE PUSH1 0x20 ADD PUSH1 0x40 MLOAD DUP1 PUSH1 0x40 ADD PUSH1 0x40 MSTORE DUP1 PUSH1 0x2 DUP2 MSTORE PUSH1 0x20 ADD PUSH32 0x5641000000000000000000000000000000000000000000000000000000000000 DUP2 MSTORE POP DUP2 MSTORE POP DUP2 MSTORE PUSH1 0x20 ADD PUSH1 0x40 MLOAD DUP1 PUSH1 0x40 ADD PUSH1 0x40 MSTORE DUP1 PUSH1 0x40 MLOAD DUP1 PUSH1 0x40 ADD PUSH1 0x40 MSTORE DUP1 PUSH1 0x9 DUP2 MSTORE PUSH1 0x20 ADD PUSH32 0x56656E657A75656C610000000000000000000000000000000000000000000000 DUP2 MSTORE POP DUP2 MSTORE PUSH1 0x20 ADD PUSH1 0x40 MLOAD DUP1 PUSH1 0x40 ADD PUSH1 0x40 MSTORE DUP1 PUSH1 0x2 DUP2 MSTORE PUSH1 0x20 ADD PUSH32 0x5645000000000000000000000000000000000000000000000000000000000000 DUP2 MSTORE POP DUP2 MSTORE POP DUP2 MSTORE PUSH1 0x20 ADD PUSH1 0x40 MLOAD DUP1 PUSH1 0x40 ADD PUSH1 0x40 MSTORE DUP1 PUSH1 0x40 MLOAD DUP1 PUSH1 0x40 ADD PUSH1 0x40 MSTORE DUP1 PUSH1 0x7 DUP2 MSTORE PUSH1 0x20 ADD PUSH32 0x566965746E616D00000000000000000000000000000000000000000000000000 DUP2 MSTORE POP DUP2 MSTORE PUSH1 0x20 ADD PUSH1 0x40 MLOAD DUP1 PUSH1 0x40 ADD PUSH1 0x40 MSTORE DUP1 PUSH1 0x2 DUP2 MSTORE PUSH1 0x20 ADD PUSH32 0x564E000000000000000000000000000000000000000000000000000000000000 DUP2 MSTORE POP DUP2 MSTORE POP DUP2 MSTORE PUSH1 0x20 ADD PUSH1 0x40 MLOAD DUP1 PUSH1 0x40 ADD PUSH1 0x40 MSTORE DUP1 PUSH1 0x40 MLOAD DUP1 PUSH1 0x40 ADD PUSH1 0x40 MSTORE DUP1 PUSH1 0x5 DUP2 MSTORE PUSH1 0x20 ADD PUSH32 0x59656D656E000000000000000000000000000000000000000000000000000000 DUP2 MSTORE POP DUP2 MSTORE PUSH1 0x20 ADD PUSH1 0x40 MLOAD DUP1 PUSH1 0x40 ADD PUSH1 0x40 MSTORE DUP1 PUSH1 0x2 DUP2 MSTORE PUSH1 0x20 ADD PUSH32 0x5945000000000000000000000000000000000000000000000000000000000000 DUP2 MSTORE POP DUP2 MSTORE POP DUP2 MSTORE PUSH1 0x20 ADD PUSH1 0x40 MLOAD DUP1 PUSH1 0x40 ADD PUSH1 0x40 MSTORE DUP1 PUSH1 0x40 MLOAD DUP1 PUSH1 0x40 ADD PUSH1 0x40 MSTORE DUP1 PUSH1 0x6 DUP2 MSTORE PUSH1 0x20 ADD PUSH32 0x5A616D6269610000000000000000000000000000000000000000000000000000 DUP2 MSTORE POP DUP2 MSTORE PUSH1 0x20 ADD PUSH1 0x40 MLOAD DUP1 PUSH1 0x40 ADD PUSH1 0x40 MSTORE DUP1 PUSH1 0x2 DUP2 MSTORE PUSH1 0x20 ADD PUSH32 0x5A4D000000000000000000000000000000000000000000000000000000000000 DUP2 MSTORE POP DUP2 MSTORE POP DUP2 MSTORE PUSH1 0x20 ADD PUSH1 0x40 MLOAD DUP1 PUSH1 0x40 ADD PUSH1 0x40 MSTORE DUP1 PUSH1 0x40 MLOAD DUP1 PUSH1 0x40 ADD PUSH1 0x40 MSTORE DUP1 PUSH1 0x8 DUP2 MSTORE PUSH1 0x20 ADD PUSH32 0x5A696D6261627765000000000000000000000000000000000000000000000000 DUP2 MSTORE POP DUP2 MSTORE PUSH1 0x20 ADD PUSH1 0x40 MLOAD DUP1 PUSH1 0x40 ADD PUSH1 0x40 MSTORE DUP1 PUSH1 0x2 DUP2 MSTORE PUSH1 0x20 ADD PUSH32 0x5A57000000000000000000000000000000000000000000000000000000000000 DUP2 MSTORE POP DUP2 MSTORE POP DUP2 MSTORE POP SWAP1 POP PUSH0 JUMPDEST PUSH1 0xBC DUP2 LT ISZERO PUSH2 0x64EA JUMPI DUP2 DUP2 PUSH1 0xC2 DUP2 LT PUSH2 0x6443 JUMPI PUSH2 0x6442 PUSH2 0x64F1 JUMP JUMPDEST JUMPDEST PUSH1 0x20 MUL ADD MLOAD PUSH1 0x20 ADD MLOAD PUSH0 DUP4 DUP4 PUSH1 0xC2 DUP2 LT PUSH2 0x6460 JUMPI PUSH2 0x645F PUSH2 0x64F1 JUMP JUMPDEST JUMPDEST PUSH1 0x20 MUL ADD MLOAD PUSH0 ADD MLOAD PUSH1 0x40 MLOAD PUSH2 0x6475 SWAP2 SWAP1 PUSH2 0x6570 JUMP JUMPDEST SWAP1 DUP2 MSTORE PUSH1 0x20 ADD PUSH1 0x40 MLOAD DUP1 SWAP2 SUB SWAP1 KECCAK256 SWAP1 DUP2 PUSH2 0x648F SWAP2 SWAP1 PUSH2 0x67B6 JUMP JUMPDEST POP PUSH1 0x1 DUP3 DUP3 PUSH1 0xC2 DUP2 LT PUSH2 0x64A5 JUMPI PUSH2 0x64A4 PUSH2 0x64F1 JUMP JUMPDEST JUMPDEST PUSH1 0x20 MUL ADD MLOAD PUSH1 0x20 ADD MLOAD SWAP1 DUP1 PUSH1 0x1 DUP2 SLOAD ADD DUP1 DUP3 SSTORE DUP1 SWAP2 POP POP PUSH1 0x1 SWAP1 SUB SWAP1 PUSH0 MSTORE PUSH1 0x20 PUSH0 KECCAK256 ADD PUSH0 SWAP1 SWAP2 SWAP1 SWAP2 SWAP1 SWAP2 POP SWAP1 DUP2 PUSH2 0x64DC SWAP2 SWAP1 PUSH2 0x67B6 JUMP JUMPDEST POP DUP1 DUP1 PUSH1 0x1 ADD SWAP2 POP POP PUSH2 0x6427 JUMP JUMPDEST POP POP PUSH2 0x6885 JUMP JUMPDEST PUSH32 0x4E487B7100000000000000000000000000000000000000000000000000000000 PUSH0 MSTORE PUSH1 0x32 PUSH1 0x4 MSTORE PUSH1 0x24 PUSH0 REVERT JUMPDEST PUSH0 DUP2 MLOAD SWAP1 POP SWAP2 SWAP1 POP JUMP JUMPDEST PUSH0 DUP2 SWAP1 POP SWAP3 SWAP2 POP POP JUMP JUMPDEST DUP3 DUP2 DUP4 MCOPY PUSH0 DUP4 DUP4 ADD MSTORE POP POP POP JUMP JUMPDEST PUSH0 PUSH2 0x654A DUP3 PUSH2 0x651E JUMP JUMPDEST PUSH2 0x6554 DUP2 DUP6 PUSH2 0x6528 JUMP JUMPDEST SWAP4 POP PUSH2 0x6564 DUP2 DUP6 PUSH1 0x20 DUP7 ADD PUSH2 0x6532 JUMP JUMPDEST DUP1 DUP5 ADD SWAP2 POP POP SWAP3 SWAP2 POP POP JUMP JUMPDEST PUSH0 PUSH2 0x657B DUP3 DUP5 PUSH2 0x6540 JUMP JUMPDEST SWAP2 POP DUP2 SWAP1 POP SWAP3 SWAP2 POP POP JUMP JUMPDEST PUSH32 0x4E487B7100000000000000000000000000000000000000000000000000000000 PUSH0 MSTORE PUSH1 0x41 PUSH1 0x4 MSTORE PUSH1 0x24 PUSH0 REVERT JUMPDEST PUSH32 0x4E487B7100000000000000000000000000000000000000000000000000000000 PUSH0 MSTORE PUSH1 0x22 PUSH1 0x4 MSTORE PUSH1 0x24 PUSH0 REVERT JUMPDEST PUSH0 PUSH1 0x2 DUP3 DIV SWAP1 POP PUSH1 0x1 DUP3 AND DUP1 PUSH2 0x65F7 JUMPI PUSH1 0x7F DUP3 AND SWAP2 POP JUMPDEST PUSH1 0x20 DUP3 LT DUP2 SUB PUSH2 0x660A JUMPI PUSH2 0x6609 PUSH2 0x65B3 JUMP JUMPDEST JUMPDEST POP SWAP2 SWAP1 POP JUMP JUMPDEST PUSH0 DUP2 SWAP1 POP DUP2 PUSH0 MSTORE PUSH1 0x20 PUSH0 KECCAK256 SWAP1 POP SWAP2 SWAP1 POP JUMP JUMPDEST PUSH0 PUSH1 0x20 PUSH1 0x1F DUP4 ADD DIV SWAP1 POP SWAP2 SWAP1 POP JUMP JUMPDEST PUSH0 DUP3 DUP3 SHL SWAP1 POP SWAP3 SWAP2 POP POP JUMP JUMPDEST PUSH0 PUSH1 0x8 DUP4 MUL PUSH2 0x666C PUSH32 0xFFFFFFFFFFFFFFFFFFFFFFFFFFFFFFFFFFFFFFFFFFFFFFFFFFFFFFFFFFFFFFFF DUP3 PUSH2 0x6631 JUMP JUMPDEST PUSH2 0x6676 DUP7 DUP4 PUSH2 0x6631 JUMP JUMPDEST SWAP6 POP DUP1 NOT DUP5 AND SWAP4 POP DUP1 DUP7 AND DUP5 OR SWAP3 POP POP POP SWAP4 SWAP3 POP POP POP JUMP JUMPDEST PUSH0 DUP2 SWAP1 POP SWAP2 SWAP1 POP JUMP JUMPDEST PUSH0 DUP2 SWAP1 POP SWAP2 SWAP1 POP JUMP JUMPDEST PUSH0 PUSH2 0x66BA PUSH2 0x66B5 PUSH2 0x66B0 DUP5 PUSH2 0x668E JUMP JUMPDEST PUSH2 0x6697 JUMP JUMPDEST PUSH2 0x668E JUMP JUMPDEST SWAP1 POP SWAP2 SWAP1 POP JUMP JUMPDEST PUSH0 DUP2 SWAP1 POP SWAP2 SWAP1 POP JUMP JUMPDEST PUSH2 0x66D3 DUP4 PUSH2 0x66A0 JUMP JUMPDEST PUSH2 0x66E7 PUSH2 0x66DF DUP3 PUSH2 0x66C1 JUMP JUMPDEST DUP5 DUP5 SLOAD PUSH2 0x663D JUMP JUMPDEST DUP3 SSTORE POP POP POP POP JUMP JUMPDEST PUSH0 SWAP1 JUMP JUMPDEST PUSH2 0x66FB PUSH2 0x66EF JUMP JUMPDEST PUSH2 0x6706 DUP2 DUP5 DUP5 PUSH2 0x66CA JUMP JUMPDEST POP POP POP JUMP JUMPDEST JUMPDEST DUP2 DUP2 LT ISZERO PUSH2 0x6729 JUMPI PUSH2 0x671E PUSH0 DUP3 PUSH2 0x66F3 JUMP JUMPDEST PUSH1 0x1 DUP2 ADD SWAP1 POP PUSH2 0x670C JUMP JUMPDEST POP POP JUMP JUMPDEST PUSH1 0x1F DUP3 GT ISZERO PUSH2 0x676E JUMPI PUSH2 0x673F DUP2 PUSH2 0x6610 JUMP JUMPDEST PUSH2 0x6748 DUP5 PUSH2 0x6622 JUMP JUMPDEST DUP2 ADD PUSH1 0x20 DUP6 LT ISZERO PUSH2 0x6757 JUMPI DUP2 SWAP1 POP JUMPDEST PUSH2 0x676B PUSH2 0x6763 DUP6 PUSH2 0x6622 JUMP JUMPDEST DUP4 ADD DUP3 PUSH2 0x670B JUMP JUMPDEST POP POP JUMPDEST POP POP POP JUMP JUMPDEST PUSH0 DUP3 DUP3 SHR SWAP1 POP SWAP3 SWAP2 POP POP JUMP JUMPDEST PUSH0 PUSH2 0x678E PUSH0 NOT DUP5 PUSH1 0x8 MUL PUSH2 0x6773 JUMP JUMPDEST NOT DUP1 DUP4 AND SWAP2 POP POP SWAP3 SWAP2 POP POP JUMP JUMPDEST PUSH0 PUSH2 0x67A6 DUP4 DUP4 PUSH2 0x677F JUMP JUMPDEST SWAP2 POP DUP3 PUSH1 0x2 MUL DUP3 OR SWAP1 POP SWAP3 SWAP2 POP POP JUMP JUMPDEST PUSH2 0x67BF DUP3 PUSH2 0x651E JUMP JUMPDEST PUSH8 0xFFFFFFFFFFFFFFFF DUP2 GT ISZERO PUSH2 0x67D8 JUMPI PUSH2 0x67D7 PUSH2 0x6586 JUMP JUMPDEST JUMPDEST PUSH2 0x67E2 DUP3 SLOAD PUSH2 0x65E0 JUMP JUMPDEST PUSH2 0x67ED DUP3 DUP3 DUP6 PUSH2 0x672D JUMP JUMPDEST PUSH0 PUSH1 0x20 SWAP1 POP PUSH1 0x1F DUP4 GT PUSH1 0x1 DUP2 EQ PUSH2 0x681E JUMPI PUSH0 DUP5 ISZERO PUSH2 0x680C JUMPI DUP3 DUP8 ADD MLOAD SWAP1 POP JUMPDEST PUSH2 0x6816 DUP6 DUP3 PUSH2 0x679B JUMP JUMPDEST DUP7 SSTORE POP PUSH2 0x687D JUMP JUMPDEST PUSH1 0x1F NOT DUP5 AND PUSH2 0x682C DUP7 PUSH2 0x6610 JUMP JUMPDEST PUSH0 JUMPDEST DUP3 DUP2 LT ISZERO PUSH2 0x6853 JUMPI DUP5 DUP10 ADD MLOAD DUP3 SSTORE PUSH1 0x1 DUP3 ADD SWAP2 POP PUSH1 0x20 DUP6 ADD SWAP5 POP PUSH1 0x20 DUP2 ADD SWAP1 POP PUSH2 0x682E JUMP JUMPDEST DUP7 DUP4 LT ISZERO PUSH2 0x6870 JUMPI DUP5 DUP10 ADD MLOAD PUSH2 0x686C PUSH1 0x1F DUP10 AND DUP3 PUSH2 0x677F JUMP JUMPDEST DUP4 SSTORE POP JUMPDEST PUSH1 0x1 PUSH1 0x2 DUP9 MUL ADD DUP9 SSTORE POP POP POP JUMPDEST POP POP POP POP POP POP JUMP JUMPDEST PUSH2 0x812 DUP1 PUSH2 0x6892 PUSH0 CODECOPY PUSH0 RETURN INVALID PUSH1 0x80 PUSH1 0x40 MSTORE CALLVALUE DUP1 ISZERO PUSH2 0xF JUMPI PUSH0 DUP1 REVERT JUMPDEST POP PUSH1 0x4 CALLDATASIZE LT PUSH2 0x4A JUMPI PUSH0 CALLDATALOAD PUSH1 0xE0 SHR DUP1 PUSH4 0x3649E43 EQ PUSH2 0x4E JUMPI DUP1 PUSH4 0x45D94C5D EQ PUSH2 0x7E JUMPI DUP1 PUSH4 0x83B156C4 EQ PUSH2 0xAE JUMPI DUP1 PUSH4 0xC58B98FC EQ PUSH2 0xDE JUMPI JUMPDEST PUSH0 DUP1 REVERT JUMPDEST PUSH2 0x68 PUSH1 0x4 DUP1 CALLDATASIZE SUB DUP2 ADD SWAP1 PUSH2 0x63 SWAP2 SWAP1 PUSH2 0x502 JUMP JUMPDEST PUSH2 0x10E JUMP JUMPDEST PUSH1 0x40 MLOAD PUSH2 0x75 SWAP2 SWAP1 PUSH2 0x563 JUMP JUMPDEST PUSH1 0x40 MLOAD DUP1 SWAP2 SUB SWAP1 RETURN JUMPDEST PUSH2 0x98 PUSH1 0x4 DUP1 CALLDATASIZE SUB DUP2 ADD SWAP1 PUSH2 0x93 SWAP2 SWAP1 PUSH2 0x502 JUMP JUMPDEST PUSH2 0x1B0 JUMP JUMPDEST PUSH1 0x40 MLOAD PUSH2 0xA5 SWAP2 SWAP1 PUSH2 0x5DC JUMP JUMPDEST PUSH1 0x40 MLOAD DUP1 SWAP2 SUB SWAP1 RETURN JUMPDEST PUSH2 0xC8 PUSH1 0x4 DUP1 CALLDATASIZE SUB DUP2 ADD SWAP1 PUSH2 0xC3 SWAP2 SWAP1 PUSH2 0x502 JUMP JUMPDEST PUSH2 0x262 JUMP JUMPDEST PUSH1 0x40 MLOAD PUSH2 0xD5 SWAP2 SWAP1 PUSH2 0x5DC JUMP JUMPDEST PUSH1 0x40 MLOAD DUP1 SWAP2 SUB SWAP1 RETURN JUMPDEST PUSH2 0xF8 PUSH1 0x4 DUP1 CALLDATASIZE SUB DUP2 ADD SWAP1 PUSH2 0xF3 SWAP2 SWAP1 PUSH2 0x62F JUMP JUMPDEST PUSH2 0x30F JUMP JUMPDEST PUSH1 0x40 MLOAD PUSH2 0x105 SWAP2 SWAP1 PUSH2 0x5DC JUMP JUMPDEST PUSH1 0x40 MLOAD DUP1 SWAP2 SUB SWAP1 RETURN JUMPDEST PUSH0 DUP1 PUSH0 SWAP1 POP JUMPDEST PUSH1 0x1 DUP1 SLOAD SWAP1 POP DUP2 LT ISZERO PUSH2 0x1A6 JUMPI DUP3 PUSH1 0x40 MLOAD PUSH1 0x20 ADD PUSH2 0x132 SWAP2 SWAP1 PUSH2 0x694 JUMP JUMPDEST PUSH1 0x40 MLOAD PUSH1 0x20 DUP2 DUP4 SUB SUB DUP2 MSTORE SWAP1 PUSH1 0x40 MSTORE DUP1 MLOAD SWAP1 PUSH1 0x20 ADD KECCAK256 PUSH1 0x1 DUP3 DUP2 SLOAD DUP2 LT PUSH2 0x15C JUMPI PUSH2 0x15B PUSH2 0x6AA JUMP JUMPDEST JUMPDEST SWAP1 PUSH0 MSTORE PUSH1 0x20 PUSH0 KECCAK256 ADD PUSH1 0x40 MLOAD PUSH1 0x20 ADD PUSH2 0x174 SWAP2 SWAP1 PUSH2 0x7C6 JUMP JUMPDEST PUSH1 0x40 MLOAD PUSH1 0x20 DUP2 DUP4 SUB SUB DUP2 MSTORE SWAP1 PUSH1 0x40 MSTORE DUP1 MLOAD SWAP1 PUSH1 0x20 ADD KECCAK256 SUB PUSH2 0x199 JUMPI PUSH1 0x1 SWAP2 POP POP PUSH2 0x1AB JUMP JUMPDEST DUP1 DUP1 PUSH1 0x1 ADD SWAP2 POP POP PUSH2 0x114 JUMP JUMPDEST POP PUSH0 SWAP1 POP JUMPDEST SWAP2 SWAP1 POP JUMP JUMPDEST PUSH0 DUP2 DUP1 MLOAD PUSH1 0x20 DUP2 ADD DUP3 ADD DUP1 MLOAD DUP5 DUP3 MSTORE PUSH1 0x20 DUP4 ADD PUSH1 0x20 DUP6 ADD KECCAK256 DUP2 DUP4 MSTORE DUP1 SWAP6 POP POP POP POP POP POP PUSH0 SWAP2 POP SWAP1 POP DUP1 SLOAD PUSH2 0x1E3 SWAP1 PUSH2 0x704 JUMP JUMPDEST DUP1 PUSH1 0x1F ADD PUSH1 0x20 DUP1 SWAP2 DIV MUL PUSH1 0x20 ADD PUSH1 0x40 MLOAD SWAP1 DUP2 ADD PUSH1 0x40 MSTORE DUP1 SWAP3 SWAP2 SWAP1 DUP2 DUP2 MSTORE PUSH1 0x20 ADD DUP3 DUP1 SLOAD PUSH2 0x20F SWAP1 PUSH2 0x704 JUMP JUMPDEST DUP1 ISZERO PUSH2 0x25A JUMPI DUP1 PUSH1 0x1F LT PUSH2 0x231 JUMPI PUSH2 0x100 DUP1 DUP4 SLOAD DIV MUL DUP4 MSTORE SWAP2 PUSH1 0x20 ADD SWAP2 PUSH2 0x25A JUMP JUMPDEST DUP3 ADD SWAP2 SWAP1 PUSH0 MSTORE PUSH1 0x20 PUSH0 KECCAK256 SWAP1 JUMPDEST DUP2 SLOAD DUP2 MSTORE SWAP1 PUSH1 0x1 ADD SWAP1 PUSH1 0x20 ADD DUP1 DUP4 GT PUSH2 0x23D JUMPI DUP3 SWAP1 SUB PUSH1 0x1F AND DUP3 ADD SWAP2 JUMPDEST POP POP POP POP POP DUP2 JUMP JUMPDEST PUSH1 0x60 PUSH0 DUP3 PUSH1 0x40 MLOAD PUSH2 0x273 SWAP2 SWAP1 PUSH2 0x694 JUMP JUMPDEST SWAP1 DUP2 MSTORE PUSH1 0x20 ADD PUSH1 0x40 MLOAD DUP1 SWAP2 SUB SWAP1 KECCAK256 DUP1 SLOAD PUSH2 0x28C SWAP1 PUSH2 0x704 JUMP JUMPDEST DUP1 PUSH1 0x1F ADD PUSH1 0x20 DUP1 SWAP2 DIV MUL PUSH1 0x20 ADD PUSH1 0x40 MLOAD SWAP1 DUP2 ADD PUSH1 0x40 MSTORE DUP1 SWAP3 SWAP2 SWAP1 DUP2 DUP2 MSTORE PUSH1 0x20 ADD DUP3 DUP1 SLOAD PUSH2 0x2B8 SWAP1 PUSH2 0x704 JUMP JUMPDEST DUP1 ISZERO PUSH2 0x303 JUMPI DUP1 PUSH1 0x1F LT PUSH2 0x2DA JUMPI PUSH2 0x100 DUP1 DUP4 SLOAD DIV MUL DUP4 MSTORE SWAP2 PUSH1 0x20 ADD SWAP2 PUSH2 0x303 JUMP JUMPDEST DUP3 ADD SWAP2 SWAP1 PUSH0 MSTORE PUSH1 0x20 PUSH0 KECCAK256 SWAP1 JUMPDEST DUP2 SLOAD DUP2 MSTORE SWAP1 PUSH1 0x1 ADD SWAP1 PUSH1 0x20 ADD DUP1 DUP4 GT PUSH2 0x2E6 JUMPI DUP3 SWAP1 SUB PUSH1 0x1F AND DUP3 ADD SWAP2 JUMPDEST POP POP POP POP POP SWAP1 POP SWAP2 SWAP1 POP JUMP JUMPDEST PUSH1 0x1 DUP2 DUP2 SLOAD DUP2 LT PUSH2 0x31E JUMPI PUSH0 DUP1 REVERT JUMPDEST SWAP1 PUSH0 MSTORE PUSH1 0x20 PUSH0 KECCAK256 ADD PUSH0 SWAP2 POP SWAP1 POP DUP1 SLOAD PUSH2 0x336 SWAP1 PUSH2 0x704 JUMP JUMPDEST DUP1 PUSH1 0x1F ADD PUSH1 0x20 DUP1 SWAP2 DIV MUL PUSH1 0x20 ADD PUSH1 0x40 MLOAD SWAP1 DUP2 ADD PUSH1 0x40 MSTORE DUP1 SWAP3 SWAP2 SWAP1 DUP2 DUP2 MSTORE PUSH1 0x20 ADD DUP3 DUP1 SLOAD PUSH2 0x362 SWAP1 PUSH2 0x704 JUMP JUMPDEST DUP1 ISZERO PUSH2 0x3AD JUMPI DUP1 PUSH1 0x1F LT PUSH2 0x384 JUMPI PUSH2 0x100 DUP1 DUP4 SLOAD DIV MUL DUP4 MSTORE SWAP2 PUSH1 0x20 ADD SWAP2 PUSH2 0x3AD JUMP JUMPDEST DUP3 ADD SWAP2 SWAP1 PUSH0 MSTORE PUSH1 0x20 PUSH0 KECCAK256 SWAP1 JUMPDEST DUP2 SLOAD DUP2 MSTORE SWAP1 PUSH1 0x1 ADD SWAP1 PUSH1 0x20 ADD DUP1 DUP4 GT PUSH2 0x390 JUMPI DUP3 SWAP1 SUB PUSH1 0x1F AND DUP3 ADD SWAP2 JUMPDEST POP POP POP POP POP DUP2 JUMP JUMPDEST PUSH0 PUSH1 0x40 MLOAD SWAP1 POP SWAP1 JUMP JUMPDEST PUSH0 DUP1 REVERT JUMPDEST PUSH0 DUP1 REVERT JUMPDEST PUSH0 DUP1 REVERT JUMPDEST PUSH0 DUP1 REVERT JUMPDEST PUSH0 PUSH1 0x1F NOT PUSH1 0x1F DUP4 ADD AND SWAP1 POP SWAP2 SWAP1 POP JUMP JUMPDEST PUSH32 0x4E487B7100000000000000000000000000000000000000000000000000000000 PUSH0 MSTORE PUSH1 0x41 PUSH1 0x4 MSTORE PUSH1 0x24 PUSH0 REVERT JUMPDEST PUSH2 0x414 DUP3 PUSH2 0x3CE JUMP JUMPDEST DUP2 ADD DUP2 DUP2 LT PUSH8 0xFFFFFFFFFFFFFFFF DUP3 GT OR ISZERO PUSH2 0x433 JUMPI PUSH2 0x432 PUSH2 0x3DE JUMP JUMPDEST JUMPDEST DUP1 PUSH1 0x40 MSTORE POP POP POP JUMP JUMPDEST PUSH0 PUSH2 0x445 PUSH2 0x3B5 JUMP JUMPDEST SWAP1 POP PUSH2 0x451 DUP3 DUP3 PUSH2 0x40B JUMP JUMPDEST SWAP2 SWAP1 POP JUMP JUMPDEST PUSH0 PUSH8 0xFFFFFFFFFFFFFFFF DUP3 GT ISZERO PUSH2 0x470 JUMPI PUSH2 0x46F PUSH2 0x3DE JUMP JUMPDEST JUMPDEST PUSH2 0x479 DUP3 PUSH2 0x3CE JUMP JUMPDEST SWAP1 POP PUSH1 0x20 DUP2 ADD SWAP1 POP SWAP2 SWAP1 POP JUMP JUMPDEST DUP3 DUP2 DUP4 CALLDATACOPY PUSH0 DUP4 DUP4 ADD MSTORE POP POP POP JUMP JUMPDEST PUSH0 PUSH2 0x4A6 PUSH2 0x4A1 DUP5 PUSH2 0x456 JUMP JUMPDEST PUSH2 0x43C JUMP JUMPDEST SWAP1 POP DUP3 DUP2 MSTORE PUSH1 0x20 DUP2 ADD DUP5 DUP5 DUP5 ADD GT ISZERO PUSH2 0x4C2 JUMPI PUSH2 0x4C1 PUSH2 0x3CA JUMP JUMPDEST JUMPDEST PUSH2 0x4CD DUP5 DUP3 DUP6 PUSH2 0x486 JUMP JUMPDEST POP SWAP4 SWAP3 POP POP POP JUMP JUMPDEST PUSH0 DUP3 PUSH1 0x1F DUP4 ADD SLT PUSH2 0x4E9 JUMPI PUSH2 0x4E8 PUSH2 0x3C6 JUMP JUMPDEST JUMPDEST DUP2 CALLDATALOAD PUSH2 0x4F9 DUP5 DUP3 PUSH1 0x20 DUP7 ADD PUSH2 0x494 JUMP JUMPDEST SWAP2 POP POP SWAP3 SWAP2 POP POP JUMP JUMPDEST PUSH0 PUSH1 0x20 DUP3 DUP5 SUB SLT ISZERO PUSH2 0x517 JUMPI PUSH2 0x516 PUSH2 0x3BE JUMP JUMPDEST JUMPDEST PUSH0 DUP3 ADD CALLDATALOAD PUSH8 0xFFFFFFFFFFFFFFFF DUP2 GT ISZERO PUSH2 0x534 JUMPI PUSH2 0x533 PUSH2 0x3C2 JUMP JUMPDEST JUMPDEST PUSH2 0x540 DUP5 DUP3 DUP6 ADD PUSH2 0x4D5 JUMP JUMPDEST SWAP2 POP POP SWAP3 SWAP2 POP POP JUMP JUMPDEST PUSH0 DUP2 ISZERO ISZERO SWAP1 POP SWAP2 SWAP1 POP JUMP JUMPDEST PUSH2 0x55D DUP2 PUSH2 0x549 JUMP JUMPDEST DUP3 MSTORE POP POP JUMP JUMPDEST PUSH0 PUSH1 0x20 DUP3 ADD SWAP1 POP PUSH2 0x576 PUSH0 DUP4 ADD DUP5 PUSH2 0x554 JUMP JUMPDEST SWAP3 SWAP2 POP POP JUMP JUMPDEST PUSH0 DUP2 MLOAD SWAP1 POP SWAP2 SWAP1 POP JUMP JUMPDEST PUSH0 DUP3 DUP3 MSTORE PUSH1 0x20 DUP3 ADD SWAP1 POP SWAP3 SWAP2 POP POP JUMP JUMPDEST DUP3 DUP2 DUP4 MCOPY PUSH0 DUP4 DUP4 ADD MSTORE POP POP POP JUMP JUMPDEST PUSH0 PUSH2 0x5AE DUP3 PUSH2 0x57C JUMP JUMPDEST PUSH2 0x5B8 DUP2 DUP6 PUSH2 0x586 JUMP JUMPDEST SWAP4 POP PUSH2 0x5C8 DUP2 DUP6 PUSH1 0x20 DUP7 ADD PUSH2 0x596 JUMP JUMPDEST PUSH2 0x5D1 DUP2 PUSH2 0x3CE JUMP JUMPDEST DUP5 ADD SWAP2 POP POP SWAP3 SWAP2 POP POP JUMP JUMPDEST PUSH0 PUSH1 0x20 DUP3 ADD SWAP1 POP DUP2 DUP2 SUB PUSH0 DUP4 ADD MSTORE PUSH2 0x5F4 DUP2 DUP5 PUSH2 0x5A4 JUMP JUMPDEST SWAP1 POP SWAP3 SWAP2 POP POP JUMP JUMPDEST PUSH0 DUP2 SWAP1 POP SWAP2 SWAP1 POP JUMP JUMPDEST PUSH2 0x60E DUP2 PUSH2 0x5FC JUMP JUMPDEST DUP2 EQ PUSH2 0x618 JUMPI PUSH0 DUP1 REVERT JUMPDEST POP JUMP JUMPDEST PUSH0 DUP2 CALLDATALOAD SWAP1 POP PUSH2 0x629 DUP2 PUSH2 0x605 JUMP JUMPDEST SWAP3 SWAP2 POP POP JUMP JUMPDEST PUSH0 PUSH1 0x20 DUP3 DUP5 SUB SLT ISZERO PUSH2 0x644 JUMPI PUSH2 0x643 PUSH2 0x3BE JUMP JUMPDEST JUMPDEST PUSH0 PUSH2 0x651 DUP5 DUP3 DUP6 ADD PUSH2 0x61B JUMP JUMPDEST SWAP2 POP POP SWAP3 SWAP2 POP POP JUMP JUMPDEST PUSH0 DUP2 SWAP1 POP SWAP3 SWAP2 POP POP JUMP JUMPDEST PUSH0 PUSH2 0x66E DUP3 PUSH2 0x57C JUMP JUMPDEST PUSH2 0x678 DUP2 DUP6 PUSH2 0x65A JUMP JUMPDEST SWAP4 POP PUSH2 0x688 DUP2 DUP6 PUSH1 0x20 DUP7 ADD PUSH2 0x596 JUMP JUMPDEST DUP1 DUP5 ADD SWAP2 POP POP SWAP3 SWAP2 POP POP JUMP JUMPDEST PUSH0 PUSH2 0x69F DUP3 DUP5 PUSH2 0x664 JUMP JUMPDEST SWAP2 POP DUP2 SWAP1 POP SWAP3 SWAP2 POP POP JUMP JUMPDEST PUSH32 0x4E487B7100000000000000000000000000000000000000000000000000000000 PUSH0 MSTORE PUSH1 0x32 PUSH1 0x4 MSTORE PUSH1 0x24 PUSH0 REVERT JUMPDEST PUSH32 0x4E487B7100000000000000000000000000000000000000000000000000000000 PUSH0 MSTORE PUSH1 0x22 PUSH1 0x4 MSTORE PUSH1 0x24 PUSH0 REVERT JUMPDEST PUSH0 PUSH1 0x2 DUP3 DIV SWAP1 POP PUSH1 0x1 DUP3 AND DUP1 PUSH2 0x71B JUMPI PUSH1 0x7F DUP3 AND SWAP2 POP JUMPDEST PUSH1 0x20 DUP3 LT DUP2 SUB PUSH2 0x72E JUMPI PUSH2 0x72D PUSH2 0x6D7 JUMP JUMPDEST JUMPDEST POP SWAP2 SWAP1 POP JUMP JUMPDEST PUSH0 DUP2 SWAP1 POP DUP2 PUSH0 MSTORE PUSH1 0x20 PUSH0 KECCAK256 SWAP1 POP SWAP2 SWAP1 POP JUMP JUMPDEST PUSH0 DUP2 SLOAD PUSH2 0x752 DUP2 PUSH2 0x704 JUMP JUMPDEST PUSH2 0x75C DUP2 DUP7 PUSH2 0x65A JUMP JUMPDEST SWAP5 POP PUSH1 0x1 DUP3 AND PUSH0 DUP2 EQ PUSH2 0x776 JUMPI PUSH1 0x1 DUP2 EQ PUSH2 0x78B JUMPI PUSH2 0x7BD JUMP JUMPDEST PUSH1 0xFF NOT DUP4 AND DUP7 MSTORE DUP2 ISZERO ISZERO DUP3 MUL DUP7 ADD SWAP4 POP PUSH2 0x7BD JUMP JUMPDEST PUSH2 0x794 DUP6 PUSH2 0x734 JUMP JUMPDEST PUSH0 JUMPDEST DUP4 DUP2 LT ISZERO PUSH2 0x7B5 JUMPI DUP2 SLOAD DUP2 DUP10 ADD MSTORE PUSH1 0x1 DUP3 ADD SWAP2 POP PUSH1 0x20 DUP2 ADD SWAP1 POP PUSH2 0x796 JUMP JUMPDEST DUP4 DUP9 ADD SWAP6 POP POP POP JUMPDEST POP POP POP SWAP3 SWAP2 POP POP JUMP JUMPDEST PUSH0 PUSH2 0x7D1 DUP3 DUP5 PUSH2 0x746 JUMP JUMPDEST SWAP2 POP DUP2 SWAP1 POP SWAP3 SWAP2 POP POP JUMP INVALID LOG2 PUSH5 0x6970667358 0x22 SLT KECCAK256 0xF7 0xD3 0xE9 PC PUSH27 0xB17FF0CDA8E7579863511F390DF6ABF2D1D45B4D68A798517C20E4 PUSH5 0x736F6C6343 STOP ADDMOD BYTE STOP CALLER "
				},
				"gasEstimates": {
					"creation": {
						"codeDepositCost": "413200",
						"executionCost": "infinite",
						"totalCost": "infinite"
					},
					"external": {
						"countryISOCodes(uint256)": "infinite",
						"countryToISO(string)": "infinite",
						"getISOCode(string)": "infinite",
						"isValidISOCode(string)": "infinite"
					}
				},
				"methodIdentifiers": {
					"countryISOCodes(uint256)": "c58b98fc",
					"countryToISO(string)": "45d94c5d",
					"getISOCode(string)": "83b156c4",
					"isValidISOCode(string)": "03649e43"
				}
			},
			"storageLayout": {
				"storage": [
					{
						"astId": 10,
						"contract": "Contracts/Countries.sol:Countries",
						"label": "countryToISO",
						"offset": 0,
						"slot": "0",
						"type": "t_mapping(t_string_memory_ptr,t_string_storage)"
					},
					{
						"astId": 13,
						"contract": "Contracts/Countries.sol:Countries",
						"label": "countryISOCodes",
						"offset": 0,
						"slot": "1",
						"type": "t_array(t_string_storage)dyn_storage"
					}
				],
				"types": {
					"t_array(t_string_storage)dyn_storage": {
						"base": "t_string_storage",
						"encoding": "dynamic_array",
						"label": "string[]",
						"numberOfBytes": "32"
					},
					"t_mapping(t_string_memory_ptr,t_string_storage)": {
						"encoding": "mapping",
						"key": "t_string_memory_ptr",
						"label": "mapping(string => string)",
						"numberOfBytes": "32",
						"value": "t_string_storage"
					},
					"t_string_memory_ptr": {
						"encoding": "bytes",
						"label": "string",
						"numberOfBytes": "32"
					},
					"t_string_storage": {
						"encoding": "bytes",
						"label": "string",
						"numberOfBytes": "32"
					}
				}
			},
			"userdoc": {
				"kind": "user",
				"methods": {},
				"version": 1
			}
		}
	}
}