{
	"data": {
		"bytecode": {
			"linkReferences": {},
			"object": "608060405234801561000f575f80fd5b506040518060400160405280600281526020017f41460000000000000000000000000000000000000000000000000000000000008152505f604051610053906147a5565b9081526020016040518091039020908161006d91906149f3565b506040518060400160405280600281526020017f414c0000000000000000000000000000000000000000000000000000000000008152505f6040516100b190614b0c565b908152602001604051809103902090816100cb91906149f3565b506040518060400160405280600281526020017f445a0000000000000000000000000000000000000000000000000000000000008152505f60405161010f90614b6a565b9081526020016040518091039020908161012991906149f3565b506040518060400160405280600281526020017f41440000000000000000000000000000000000000000000000000000000000008152505f60405161016d90614bc8565b9081526020016040518091039020908161018791906149f3565b506040518060400160405280600281526020017f414f0000000000000000000000000000000000000000000000000000000000008152505f6040516101cb90614c26565b908152602001604051809103902090816101e591906149f3565b506040518060400160405280600281526020017f41470000000000000000000000000000000000000000000000000000000000008152505f60405161022990614c84565b9081526020016040518091039020908161024391906149f3565b506040518060400160405280600281526020017f41520000000000000000000000000000000000000000000000000000000000008152505f60405161028790614ce2565b908152602001604051809103902090816102a191906149f3565b506040518060400160405280600281526020017f414d0000000000000000000000000000000000000000000000000000000000008152505f6040516102e590614d40565b908152602001604051809103902090816102ff91906149f3565b506040518060400160405280600281526020017f41550000000000000000000000000000000000000000000000000000000000008152505f60405161034390614d9e565b9081526020016040518091039020908161035d91906149f3565b506040518060400160405280600281526020017f41540000000000000000000000000000000000000000000000000000000000008152505f6040516103a190614dfc565b908152602001604051809103902090816103bb91906149f3565b506040518060400160405280600281526020017f415a0000000000000000000000000000000000000000000000000000000000008152505f6040516103ff90614e5a565b9081526020016040518091039020908161041991906149f3565b506040518060400160405280600281526020017f42530000000000000000000000000000000000000000000000000000000000008152505f60405161045d90614eb8565b9081526020016040518091039020908161047791906149f3565b506040518060400160405280600281526020017f42480000000000000000000000000000000000000000000000000000000000008152505f6040516104bb90614f16565b908152602001604051809103902090816104d591906149f3565b506040518060400160405280600281526020017f42440000000000000000000000000000000000000000000000000000000000008152505f60405161051990614f74565b9081526020016040518091039020908161053391906149f3565b506040518060400160405280600281526020017f42420000000000000000000000000000000000000000000000000000000000008152505f60405161057790614fd2565b9081526020016040518091039020908161059191906149f3565b506040518060400160405280600281526020017f42590000000000000000000000000000000000000000000000000000000000008152505f6040516105d590615030565b908152602001604051809103902090816105ef91906149f3565b506040518060400160405280600281526020017f42450000000000000000000000000000000000000000000000000000000000008152505f6040516106339061508e565b9081526020016040518091039020908161064d91906149f3565b506040518060400160405280600281526020017f425a0000000000000000000000000000000000000000000000000000000000008152505f604051610691906150ec565b908152602001604051809103902090816106ab91906149f3565b506040518060400160405280600281526020017f424a0000000000000000000000000000000000000000000000000000000000008152505f6040516106ef9061514a565b9081526020016040518091039020908161070991906149f3565b506040518060400160405280600281526020017f42540000000000000000000000000000000000000000000000000000000000008152505f60405161074d906151a8565b9081526020016040518091039020908161076791906149f3565b506040518060400160405280600281526020017f424f0000000000000000000000000000000000000000000000000000000000008152505f6040516107ab90615206565b908152602001604051809103902090816107c591906149f3565b506040518060400160405280600281526020017f42410000000000000000000000000000000000000000000000000000000000008152505f60405161080990615264565b9081526020016040518091039020908161082391906149f3565b506040518060400160405280600281526020017f42570000000000000000000000000000000000000000000000000000000000008152505f604051610867906152c2565b9081526020016040518091039020908161088191906149f3565b506040518060400160405280600281526020017f42520000000000000000000000000000000000000000000000000000000000008152505f6040516108c590615320565b908152602001604051809103902090816108df91906149f3565b506040518060400160405280600281526020017f424e0000000000000000000000000000000000000000000000000000000000008152505f6040516109239061537e565b9081526020016040518091039020908161093d91906149f3565b506040518060400160405280600281526020017f42470000000000000000000000000000000000000000000000000000000000008152505f604051610981906153dc565b9081526020016040518091039020908161099b91906149f3565b506040518060400160405280600281526020017f42460000000000000000000000000000000000000000000000000000000000008152505f6040516109df9061543a565b908152602001604051809103902090816109f991906149f3565b506040518060400160405280600281526020017f42490000000000000000000000000000000000000000000000000000000000008152505f604051610a3d90615498565b90815260200160405180910390209081610a5791906149f3565b506040518060400160405280600281526020017f4b480000000000000000000000000000000000000000000000000000000000008152505f604051610a9b906154f6565b90815260200160405180910390209081610ab591906149f3565b506040518060400160405280600281526020017f434d0000000000000000000000000000000000000000000000000000000000008152505f604051610af990615554565b90815260200160405180910390209081610b1391906149f3565b506040518060400160405280600281526020017f43410000000000000000000000000000000000000000000000000000000000008152505f604051610b57906155b2565b90815260200160405180910390209081610b7191906149f3565b506040518060400160405280600281526020017f43560000000000000000000000000000000000000000000000000000000000008152505f604051610bb590615610565b90815260200160405180910390209081610bcf91906149f3565b506040518060400160405280600281526020017f43460000000000000000000000000000000000000000000000000000000000008152505f604051610c139061566e565b90815260200160405180910390209081610c2d91906149f3565b506040518060400160405280600281526020017f54440000000000000000000000000000000000000000000000000000000000008152505f604051610c71906156cc565b90815260200160405180910390209081610c8b91906149f3565b506040518060400160405280600281526020017f434c0000000000000000000000000000000000000000000000000000000000008152505f604051610ccf9061572a565b90815260200160405180910390209081610ce991906149f3565b506040518060400160405280600281526020017f434e0000000000000000000000000000000000000000000000000000000000008152505f604051610d2d90615788565b90815260200160405180910390209081610d4791906149f3565b506040518060400160405280600281526020017f434f0000000000000000000000000000000000000000000000000000000000008152505f604051610d8b906157e6565b90815260200160405180910390209081610da591906149f3565b506040518060400160405280600281526020017f4b4d0000000000000000000000000000000000000000000000000000000000008152505f604051610de990615844565b90815260200160405180910390209081610e0391906149f3565b506040518060400160405280600281526020017f43470000000000000000000000000000000000000000000000000000000000008152505f604051610e47906158a2565b90815260200160405180910390209081610e6191906149f3565b506040518060400160405280600281526020017f43440000000000000000000000000000000000000000000000000000000000008152505f604051610ea590615900565b90815260200160405180910390209081610ebf91906149f3565b506040518060400160405280600281526020017f43520000000000000000000000000000000000000000000000000000000000008152505f604051610f039061595e565b90815260200160405180910390209081610f1d91906149f3565b506040518060400160405280600281526020017f48520000000000000000000000000000000000000000000000000000000000008152505f604051610f61906159bc565b90815260200160405180910390209081610f7b91906149f3565b506040518060400160405280600281526020017f43550000000000000000000000000000000000000000000000000000000000008152505f604051610fbf90615a1a565b90815260200160405180910390209081610fd991906149f3565b506040518060400160405280600281526020017f43590000000000000000000000000000000000000000000000000000000000008152505f60405161101d90615a78565b9081526020016040518091039020908161103791906149f3565b506040518060400160405280600281526020017f435a0000000000000000000000000000000000000000000000000000000000008152505f60405161107b90615ad6565b9081526020016040518091039020908161109591906149f3565b506040518060400160405280600281526020017f444b0000000000000000000000000000000000000000000000000000000000008152505f6040516110d990615b34565b908152602001604051809103902090816110f391906149f3565b506040518060400160405280600281526020017f444a0000000000000000000000000000000000000000000000000000000000008152505f60405161113790615b92565b9081526020016040518091039020908161115191906149f3565b506040518060400160405280600281526020017f444d0000000000000000000000000000000000000000000000000000000000008152505f60405161119590615bf0565b908152602001604051809103902090816111af91906149f3565b506040518060400160405280600281526020017f444f0000000000000000000000000000000000000000000000000000000000008152505f6040516111f390615c4e565b9081526020016040518091039020908161120d91906149f3565b506040518060400160405280600281526020017f45430000000000000000000000000000000000000000000000000000000000008152505f60405161125190615cac565b9081526020016040518091039020908161126b91906149f3565b506040518060400160405280600281526020017f45470000000000000000000000000000000000000000000000000000000000008152505f6040516112af90615d0a565b908152602001604051809103902090816112c991906149f3565b506040518060400160405280600281526020017f53560000000000000000000000000000000000000000000000000000000000008152505f60405161130d90615d68565b9081526020016040518091039020908161132791906149f3565b506040518060400160405280600281526020017f47510000000000000000000000000000000000000000000000000000000000008152505f60405161136b90615dc6565b9081526020016040518091039020908161138591906149f3565b506040518060400160405280600281526020017f45520000000000000000000000000000000000000000000000000000000000008152505f6040516113c990615e24565b908152602001604051809103902090816113e391906149f3565b506040518060400160405280600281526020017f45450000000000000000000000000000000000000000000000000000000000008152505f60405161142790615e82565b9081526020016040518091039020908161144191906149f3565b506040518060400160405280600281526020017f535a0000000000000000000000000000000000000000000000000000000000008152505f60405161148590615ee0565b9081526020016040518091039020908161149f91906149f3565b506040518060400160405280600281526020017f45540000000000000000000000000000000000000000000000000000000000008152505f6040516114e390615f3e565b908152602001604051809103902090816114fd91906149f3565b506040518060400160405280600281526020017f464a0000000000000000000000000000000000000000000000000000000000008152505f60405161154190615f9c565b9081526020016040518091039020908161155b91906149f3565b506040518060400160405280600281526020017f46490000000000000000000000000000000000000000000000000000000000008152505f60405161159f90615ffa565b908152602001604051809103902090816115b991906149f3565b506040518060400160405280600281526020017f46520000000000000000000000000000000000000000000000000000000000008152505f6040516115fd90616058565b9081526020016040518091039020908161161791906149f3565b506040518060400160405280600281526020017f47410000000000000000000000000000000000000000000000000000000000008152505f60405161165b906160b6565b9081526020016040518091039020908161167591906149f3565b506040518060400160405280600281526020017f474d0000000000000000000000000000000000000000000000000000000000008152505f6040516116b990616114565b908152602001604051809103902090816116d391906149f3565b506040518060400160405280600281526020017f47450000000000000000000000000000000000000000000000000000000000008152505f60405161171790616172565b9081526020016040518091039020908161173191906149f3565b506040518060400160405280600281526020017f44450000000000000000000000000000000000000000000000000000000000008152505f604051611775906161d0565b9081526020016040518091039020908161178f91906149f3565b506040518060400160405280600281526020017f47480000000000000000000000000000000000000000000000000000000000008152505f6040516117d39061622e565b908152602001604051809103902090816117ed91906149f3565b506040518060400160405280600281526020017f47520000000000000000000000000000000000000000000000000000000000008152505f6040516118319061628c565b9081526020016040518091039020908161184b91906149f3565b506040518060400160405280600281526020017f47440000000000000000000000000000000000000000000000000000000000008152505f60405161188f906162ea565b908152602001604051809103902090816118a991906149f3565b506040518060400160405280600281526020017f47540000000000000000000000000000000000000000000000000000000000008152505f6040516118ed90616348565b9081526020016040518091039020908161190791906149f3565b506040518060400160405280600281526020017f474e0000000000000000000000000000000000000000000000000000000000008152505f60405161194b906163a6565b9081526020016040518091039020908161196591906149f3565b506040518060400160405280600281526020017f47570000000000000000000000000000000000000000000000000000000000008152505f6040516119a990616404565b908152602001604051809103902090816119c391906149f3565b506040518060400160405280600281526020017f47590000000000000000000000000000000000000000000000000000000000008152505f604051611a0790616462565b90815260200160405180910390209081611a2191906149f3565b506040518060400160405280600281526020017f48540000000000000000000000000000000000000000000000000000000000008152505f604051611a65906164c0565b90815260200160405180910390209081611a7f91906149f3565b506040518060400160405280600281526020017f484e0000000000000000000000000000000000000000000000000000000000008152505f604051611ac39061651e565b90815260200160405180910390209081611add91906149f3565b506040518060400160405280600281526020017f48550000000000000000000000000000000000000000000000000000000000008152505f604051611b219061657c565b90815260200160405180910390209081611b3b91906149f3565b506040518060400160405280600281526020017f49530000000000000000000000000000000000000000000000000000000000008152505f604051611b7f906165da565b90815260200160405180910390209081611b9991906149f3565b506040518060400160405280600281526020017f494e0000000000000000000000000000000000000000000000000000000000008152505f604051611bdd90616638565b90815260200160405180910390209081611bf791906149f3565b506040518060400160405280600281526020017f49440000000000000000000000000000000000000000000000000000000000008152505f604051611c3b90616696565b90815260200160405180910390209081611c5591906149f3565b506040518060400160405280600281526020017f49520000000000000000000000000000000000000000000000000000000000008152505f604051611c99906166f4565b90815260200160405180910390209081611cb391906149f3565b506040518060400160405280600281526020017f49510000000000000000000000000000000000000000000000000000000000008152505f604051611cf790616752565b90815260200160405180910390209081611d1191906149f3565b506040518060400160405280600281526020017f49450000000000000000000000000000000000000000000000000000000000008152505f604051611d55906167b0565b90815260200160405180910390209081611d6f91906149f3565b506040518060400160405280600281526020017f494c0000000000000000000000000000000000000000000000000000000000008152505f604051611db39061680e565b90815260200160405180910390209081611dcd91906149f3565b506040518060400160405280600281526020017f49540000000000000000000000000000000000000000000000000000000000008152505f604051611e119061686c565b90815260200160405180910390209081611e2b91906149f3565b506040518060400160405280600281526020017f4a4d0000000000000000000000000000000000000000000000000000000000008152505f604051611e6f906168ca565b90815260200160405180910390209081611e8991906149f3565b506040518060400160405280600281526020017f4a500000000000000000000000000000000000000000000000000000000000008152505f604051611ecd90616928565b90815260200160405180910390209081611ee791906149f3565b506040518060400160405280600281526020017f4a4f0000000000000000000000000000000000000000000000000000000000008152505f604051611f2b90616986565b90815260200160405180910390209081611f4591906149f3565b506040518060400160405280600281526020017f4b5a0000000000000000000000000000000000000000000000000000000000008152505f604051611f89906169e4565b90815260200160405180910390209081611fa391906149f3565b506040518060400160405280600281526020017f4b450000000000000000000000000000000000000000000000000000000000008152505f604051611fe790616a42565b9081526020016040518091039020908161200191906149f3565b506040518060400160405280600281526020017f4b490000000000000000000000000000000000000000000000000000000000008152505f60405161204590616aa0565b9081526020016040518091039020908161205f91906149f3565b506040518060400160405280600281526020017f4b570000000000000000000000000000000000000000000000000000000000008152505f6040516120a390616afe565b908152602001604051809103902090816120bd91906149f3565b506040518060400160405280600281526020017f4b470000000000000000000000000000000000000000000000000000000000008152505f60405161210190616b5c565b9081526020016040518091039020908161211b91906149f3565b506040518060400160405280600281526020017f4c410000000000000000000000000000000000000000000000000000000000008152505f60405161215f90616bba565b9081526020016040518091039020908161217991906149f3565b506040518060400160405280600281526020017f4c560000000000000000000000000000000000000000000000000000000000008152505f6040516121bd90616c18565b908152602001604051809103902090816121d791906149f3565b506040518060400160405280600281526020017f4c420000000000000000000000000000000000000000000000000000000000008152505f60405161221b90616c76565b9081526020016040518091039020908161223591906149f3565b506040518060400160405280600281526020017f4c530000000000000000000000000000000000000000000000000000000000008152505f60405161227990616cd4565b9081526020016040518091039020908161229391906149f3565b506040518060400160405280600281526020017f4c520000000000000000000000000000000000000000000000000000000000008152505f6040516122d790616d32565b908152602001604051809103902090816122f191906149f3565b506040518060400160405280600281526020017f4c590000000000000000000000000000000000000000000000000000000000008152505f60405161233590616d90565b9081526020016040518091039020908161234f91906149f3565b506040518060400160405280600281526020017f4c490000000000000000000000000000000000000000000000000000000000008152505f60405161239390616dee565b908152602001604051809103902090816123ad91906149f3565b506040518060400160405280600281526020017f4c540000000000000000000000000000000000000000000000000000000000008152505f6040516123f190616e4c565b9081526020016040518091039020908161240b91906149f3565b506040518060400160405280600281526020017f4c550000000000000000000000000000000000000000000000000000000000008152505f60405161244f90616eaa565b9081526020016040518091039020908161246991906149f3565b506040518060400160405280600281526020017f4d470000000000000000000000000000000000000000000000000000000000008152505f6040516124ad90616f08565b908152602001604051809103902090816124c791906149f3565b506040518060400160405280600281526020017f4d570000000000000000000000000000000000000000000000000000000000008152505f60405161250b90616f66565b9081526020016040518091039020908161252591906149f3565b506040518060400160405280600281526020017f4d590000000000000000000000000000000000000000000000000000000000008152505f60405161256990616fc4565b9081526020016040518091039020908161258391906149f3565b506040518060400160405280600281526020017f4d560000000000000000000000000000000000000000000000000000000000008152505f6040516125c790617022565b908152602001604051809103902090816125e191906149f3565b506040518060400160405280600281526020017f4d4c0000000000000000000000000000000000000000000000000000000000008152505f60405161262590617080565b9081526020016040518091039020908161263f91906149f3565b506040518060400160405280600281526020017f4d540000000000000000000000000000000000000000000000000000000000008152505f604051612683906170de565b9081526020016040518091039020908161269d91906149f3565b506040518060400160405280600281526020017f4d480000000000000000000000000000000000000000000000000000000000008152505f6040516126e19061713c565b908152602001604051809103902090816126fb91906149f3565b506040518060400160405280600281526020017f4d520000000000000000000000000000000000000000000000000000000000008152505f60405161273f9061719a565b9081526020016040518091039020908161275991906149f3565b506040518060400160405280600281526020017f4d550000000000000000000000000000000000000000000000000000000000008152505f60405161279d906171f8565b908152602001604051809103902090816127b791906149f3565b506040518060400160405280600281526020017f4d580000000000000000000000000000000000000000000000000000000000008152505f6040516127fb90617256565b9081526020016040518091039020908161281591906149f3565b506040518060400160405280600281526020017f464d0000000000000000000000000000000000000000000000000000000000008152505f604051612859906172b4565b9081526020016040518091039020908161287391906149f3565b506040518060400160405280600281526020017f4d440000000000000000000000000000000000000000000000000000000000008152505f6040516128b790617312565b908152602001604051809103902090816128d191906149f3565b506040518060400160405280600281526020017f4d430000000000000000000000000000000000000000000000000000000000008152505f60405161291590617370565b9081526020016040518091039020908161292f91906149f3565b506040518060400160405280600281526020017f4d4e0000000000000000000000000000000000000000000000000000000000008152505f604051612973906173ce565b9081526020016040518091039020908161298d91906149f3565b506040518060400160405280600281526020017f4d450000000000000000000000000000000000000000000000000000000000008152505f6040516129d19061742c565b908152602001604051809103902090816129eb91906149f3565b506040518060400160405280600281526020017f4d410000000000000000000000000000000000000000000000000000000000008152505f604051612a2f9061748a565b90815260200160405180910390209081612a4991906149f3565b506040518060400160405280600281526020017f4d5a0000000000000000000000000000000000000000000000000000000000008152505f604051612a8d906174e8565b90815260200160405180910390209081612aa791906149f3565b506040518060400160405280600281526020017f4d4d0000000000000000000000000000000000000000000000000000000000008152505f604051612aeb90617546565b90815260200160405180910390209081612b0591906149f3565b506040518060400160405280600281526020017f4e410000000000000000000000000000000000000000000000000000000000008152505f604051612b49906175a4565b90815260200160405180910390209081612b6391906149f3565b506040518060400160405280600281526020017f4e520000000000000000000000000000000000000000000000000000000000008152505f604051612ba790617602565b90815260200160405180910390209081612bc191906149f3565b506040518060400160405280600281526020017f4e500000000000000000000000000000000000000000000000000000000000008152505f604051612c0590617660565b90815260200160405180910390209081612c1f91906149f3565b506040518060400160405280600281526020017f4e4c0000000000000000000000000000000000000000000000000000000000008152505f604051612c63906176be565b90815260200160405180910390209081612c7d91906149f3565b506040518060400160405280600281526020017f4e5a0000000000000000000000000000000000000000000000000000000000008152505f604051612cc19061771c565b90815260200160405180910390209081612cdb91906149f3565b506040518060400160405280600281526020017f4e490000000000000000000000000000000000000000000000000000000000008152505f604051612d1f9061777a565b90815260200160405180910390209081612d3991906149f3565b506040518060400160405280600281526020017f4e450000000000000000000000000000000000000000000000000000000000008152505f604051612d7d906177d8565b90815260200160405180910390209081612d9791906149f3565b506040518060400160405280600281526020017f4e470000000000000000000000000000000000000000000000000000000000008152505f604051612ddb90617836565b90815260200160405180910390209081612df591906149f3565b506040518060400160405280600281526020017f4b500000000000000000000000000000000000000000000000000000000000008152505f604051612e3990617894565b90815260200160405180910390209081612e5391906149f3565b506040518060400160405280600281526020017f4d4b0000000000000000000000000000000000000000000000000000000000008152505f604051612e97906178f2565b90815260200160405180910390209081612eb191906149f3565b506040518060400160405280600281526020017f4e4f0000000000000000000000000000000000000000000000000000000000008152505f604051612ef590617950565b90815260200160405180910390209081612f0f91906149f3565b506040518060400160405280600281526020017f4f4d0000000000000000000000000000000000000000000000000000000000008152505f604051612f53906179ae565b90815260200160405180910390209081612f6d91906149f3565b506040518060400160405280600281526020017f504b0000000000000000000000000000000000000000000000000000000000008152505f604051612fb190617a0c565b90815260200160405180910390209081612fcb91906149f3565b506040518060400160405280600281526020017f50570000000000000000000000000000000000000000000000000000000000008152505f60405161300f90617a6a565b9081526020016040518091039020908161302991906149f3565b506040518060400160405280600281526020017f50410000000000000000000000000000000000000000000000000000000000008152505f60405161306d90617ac8565b9081526020016040518091039020908161308791906149f3565b506040518060400160405280600281526020017f50470000000000000000000000000000000000000000000000000000000000008152505f6040516130cb90617b26565b908152602001604051809103902090816130e591906149f3565b506040518060400160405280600281526020017f50590000000000000000000000000000000000000000000000000000000000008152505f60405161312990617b84565b9081526020016040518091039020908161314391906149f3565b506040518060400160405280600281526020017f50450000000000000000000000000000000000000000000000000000000000008152505f60405161318790617be2565b908152602001604051809103902090816131a191906149f3565b506040518060400160405280600281526020017f50480000000000000000000000000000000000000000000000000000000000008152505f6040516131e590617c40565b908152602001604051809103902090816131ff91906149f3565b506040518060400160405280600281526020017f504c0000000000000000000000000000000000000000000000000000000000008152505f60405161324390617c9e565b9081526020016040518091039020908161325d91906149f3565b506040518060400160405280600281526020017f50540000000000000000000000000000000000000000000000000000000000008152505f6040516132a190617cfc565b908152602001604051809103902090816132bb91906149f3565b506040518060400160405280600281526020017f51410000000000000000000000000000000000000000000000000000000000008152505f6040516132ff90617d5a565b9081526020016040518091039020908161331991906149f3565b506040518060400160405280600281526020017f524f0000000000000000000000000000000000000000000000000000000000008152505f60405161335d90617db8565b9081526020016040518091039020908161337791906149f3565b506040518060400160405280600281526020017f52550000000000000000000000000000000000000000000000000000000000008152505f6040516133bb90617e16565b908152602001604051809103902090816133d591906149f3565b506040518060400160405280600281526020017f52570000000000000000000000000000000000000000000000000000000000008152505f60405161341990617e74565b9081526020016040518091039020908161343391906149f3565b506040518060400160405280600281526020017f4b4e0000000000000000000000000000000000000000000000000000000000008152505f60405161347790617ed2565b9081526020016040518091039020908161349191906149f3565b506040518060400160405280600281526020017f4c430000000000000000000000000000000000000000000000000000000000008152505f6040516134d590617f30565b908152602001604051809103902090816134ef91906149f3565b506040518060400160405280600281526020017f56430000000000000000000000000000000000000000000000000000000000008152505f60405161353390617f8e565b9081526020016040518091039020908161354d91906149f3565b506040518060400160405280600281526020017f57530000000000000000000000000000000000000000000000000000000000008152505f60405161359190617fec565b908152602001604051809103902090816135ab91906149f3565b506040518060400160405280600281526020017f534d0000000000000000000000000000000000000000000000000000000000008152505f6040516135ef9061804a565b9081526020016040518091039020908161360991906149f3565b506040518060400160405280600281526020017f53540000000000000000000000000000000000000000000000000000000000008152505f60405161364d906180a8565b9081526020016040518091039020908161366791906149f3565b506040518060400160405280600281526020017f53410000000000000000000000000000000000000000000000000000000000008152505f6040516136ab90618106565b908152602001604051809103902090816136c591906149f3565b506040518060400160405280600281526020017f534e0000000000000000000000000000000000000000000000000000000000008152505f60405161370990618164565b9081526020016040518091039020908161372391906149f3565b506040518060400160405280600281526020017f52530000000000000000000000000000000000000000000000000000000000008152505f604051613767906181c2565b9081526020016040518091039020908161378191906149f3565b506040518060400160405280600281526020017f53430000000000000000000000000000000000000000000000000000000000008152505f6040516137c590618220565b908152602001604051809103902090816137df91906149f3565b506040518060400160405280600281526020017f534c0000000000000000000000000000000000000000000000000000000000008152505f6040516138239061827e565b9081526020016040518091039020908161383d91906149f3565b506040518060400160405280600281526020017f53470000000000000000000000000000000000000000000000000000000000008152505f604051613881906182dc565b9081526020016040518091039020908161389b91906149f3565b506040518060400160405280600281526020017f534b0000000000000000000000000000000000000000000000000000000000008152505f6040516138df9061833a565b908152602001604051809103902090816138f991906149f3565b506040518060400160405280600281526020017f53490000000000000000000000000000000000000000000000000000000000008152505f60405161393d90618398565b9081526020016040518091039020908161395791906149f3565b506040518060400160405280600281526020017f53420000000000000000000000000000000000000000000000000000000000008152505f60405161399b906183f6565b908152602001604051809103902090816139b591906149f3565b506040518060400160405280600281526020017f534f0000000000000000000000000000000000000000000000000000000000008152505f6040516139f990618454565b90815260200160405180910390209081613a1391906149f3565b506040518060400160405280600281526020017f5a410000000000000000000000000000000000000000000000000000000000008152505f604051613a57906184b2565b90815260200160405180910390209081613a7191906149f3565b506040518060400160405280600281526020017f4b520000000000000000000000000000000000000000000000000000000000008152505f604051613ab590618510565b90815260200160405180910390209081613acf91906149f3565b506040518060400160405280600281526020017f53530000000000000000000000000000000000000000000000000000000000008152505f604051613b139061856e565b90815260200160405180910390209081613b2d91906149f3565b506040518060400160405280600281526020017f45530000000000000000000000000000000000000000000000000000000000008152505f604051613b71906185cc565b90815260200160405180910390209081613b8b91906149f3565b506040518060400160405280600281526020017f4c4b0000000000000000000000000000000000000000000000000000000000008152505f604051613bcf9061862a565b90815260200160405180910390209081613be991906149f3565b506040518060400160405280600281526020017f53440000000000000000000000000000000000000000000000000000000000008152505f604051613c2d90618688565b90815260200160405180910390209081613c4791906149f3565b506040518060400160405280600281526020017f53520000000000000000000000000000000000000000000000000000000000008152505f604051613c8b906186e6565b90815260200160405180910390209081613ca591906149f3565b506040518060400160405280600281526020017f53450000000000000000000000000000000000000000000000000000000000008152505f604051613ce990618744565b90815260200160405180910390209081613d0391906149f3565b506040518060400160405280600281526020017f43480000000000000000000000000000000000000000000000000000000000008152505f604051613d47906187a2565b90815260200160405180910390209081613d6191906149f3565b506040518060400160405280600281526020017f53590000000000000000000000000000000000000000000000000000000000008152505f604051613da590618800565b90815260200160405180910390209081613dbf91906149f3565b506040518060400160405280600281526020017f54570000000000000000000000000000000000000000000000000000000000008152505f604051613e039061885e565b90815260200160405180910390209081613e1d91906149f3565b506040518060400160405280600281526020017f544a0000000000000000000000000000000000000000000000000000000000008152505f604051613e61906188bc565b90815260200160405180910390209081613e7b91906149f3565b506040518060400160405280600281526020017f545a0000000000000000000000000000000000000000000000000000000000008152505f604051613ebf9061891a565b90815260200160405180910390209081613ed991906149f3565b506040518060400160405280600281526020017f54480000000000000000000000000000000000000000000000000000000000008152505f604051613f1d90618978565b90815260200160405180910390209081613f3791906149f3565b506040518060400160405280600281526020017f544c0000000000000000000000000000000000000000000000000000000000008152505f604051613f7b906189d6565b90815260200160405180910390209081613f9591906149f3565b506040518060400160405280600281526020017f54470000000000000000000000000000000000000000000000000000000000008152505f604051613fd990618a34565b90815260200160405180910390209081613ff391906149f3565b506040518060400160405280600281526020017f544f0000000000000000000000000000000000000000000000000000000000008152505f60405161403790618a92565b9081526020016040518091039020908161405191906149f3565b506040518060400160405280600281526020017f54540000000000000000000000000000000000000000000000000000000000008152505f60405161409590618af0565b908152602001604051809103902090816140af91906149f3565b506040518060400160405280600281526020017f544e0000000000000000000000000000000000000000000000000000000000008152505f6040516140f390618b4e565b9081526020016040518091039020908161410d91906149f3565b506040518060400160405280600281526020017f54520000000000000000000000000000000000000000000000000000000000008152505f60405161415190618bac565b9081526020016040518091039020908161416b91906149f3565b506040518060400160405280600281526020017f544d0000000000000000000000000000000000000000000000000000000000008152505f6040516141af90618c0a565b908152602001604051809103902090816141c991906149f3565b506040518060400160405280600281526020017f54560000000000000000000000000000000000000000000000000000000000008152505f60405161420d90618c68565b9081526020016040518091039020908161422791906149f3565b506040518060400160405280600281526020017f55470000000000000000000000000000000000000000000000000000000000008152505f60405161426b90618cc6565b9081526020016040518091039020908161428591906149f3565b506040518060400160405280600281526020017f55410000000000000000000000000000000000000000000000000000000000008152505f6040516142c990618d24565b908152602001604051809103902090816142e391906149f3565b506040518060400160405280600281526020017f41450000000000000000000000000000000000000000000000000000000000008152505f60405161432790618d82565b9081526020016040518091039020908161434191906149f3565b506040518060400160405280600281526020017f47420000000000000000000000000000000000000000000000000000000000008152505f60405161438590618de0565b9081526020016040518091039020908161439f91906149f3565b506040518060400160405280600281526020017f55530000000000000000000000000000000000000000000000000000000000008152505f6040516143e390618e3e565b908152602001604051809103902090816143fd91906149f3565b506040518060400160405280600281526020017f55590000000000000000000000000000000000000000000000000000000000008152505f60405161444190618e9c565b9081526020016040518091039020908161445b91906149f3565b506040518060400160405280600281526020017f555a0000000000000000000000000000000000000000000000000000000000008152505f60405161449f90618efa565b908152602001604051809103902090816144b991906149f3565b506040518060400160405280600281526020017f56550000000000000000000000000000000000000000000000000000000000008152505f6040516144fd90618f58565b9081526020016040518091039020908161451791906149f3565b506040518060400160405280600281526020017f56410000000000000000000000000000000000000000000000000000000000008152505f60405161455b90618fb6565b9081526020016040518091039020908161457591906149f3565b506040518060400160405280600281526020017f56450000000000000000000000000000000000000000000000000000000000008152505f6040516145b990619014565b908152602001604051809103902090816145d391906149f3565b506040518060400160405280600281526020017f564e0000000000000000000000000000000000000000000000000000000000008152505f60405161461790619072565b9081526020016040518091039020908161463191906149f3565b506040518060400160405280600281526020017f59450000000000000000000000000000000000000000000000000000000000008152505f604051614675906190d0565b9081526020016040518091039020908161468f91906149f3565b506040518060400160405280600281526020017f5a4d0000000000000000000000000000000000000000000000000000000000008152505f6040516146d39061912e565b908152602001604051809103902090816146ed91906149f3565b506040518060400160405280600281526020017f5a570000000000000000000000000000000000000000000000000000000000008152505f6040516147319061918c565b9081526020016040518091039020908161474b91906149f3565b506191a0565b5f81905092915050565b7f41666768616e697374616e0000000000000000000000000000000000000000005f82015250565b5f61478f600b83614751565b915061479a8261475b565b600b82019050919050565b5f6147af82614783565b9150819050919050565b5f81519050919050565b7f4e487b71000000000000000000000000000000000000000000000000000000005f52604160045260245ffd5b7f4e487b71000000000000000000000000000000000000000000000000000000005f52602260045260245ffd5b5f600282049050600182168061483457607f821691505b602082108103614847576148466147f0565b5b50919050565b5f819050815f5260205f209050919050565b5f6020601f8301049050919050565b5f82821b905092915050565b5f600883026148a97fffffffffffffffffffffffffffffffffffffffffffffffffffffffffffffffff8261486e565b6148b3868361486e565b95508019841693508086168417925050509392505050565b5f819050919050565b5f819050919050565b5f6148f76148f26148ed846148cb565b6148d4565b6148cb565b9050919050565b5f819050919050565b614910836148dd565b61492461491c826148fe565b84845461487a565b825550505050565b5f90565b61493861492c565b614943818484614907565b505050565b5b818110156149665761495b5f82614930565b600181019050614949565b5050565b601f8211156149ab5761497c8161484d565b6149858461485f565b81016020851015614994578190505b6149a86149a08561485f565b830182614948565b50505b505050565b5f82821c905092915050565b5f6149cb5f19846008026149b0565b1980831691505092915050565b5f6149e383836149bc565b9150826002028217905092915050565b6149fc826147b9565b67ffffffffffffffff811115614a1557614a146147c3565b5b614a1f825461481d565b614a2a82828561496a565b5f60209050601f831160018114614a5b575f8415614a49578287015190505b614a5385826149d8565b865550614aba565b601f198416614a698661484d565b5f5b82811015614a9057848901518255600182019150602085019450602081019050614a6b565b86831015614aad5784890151614aa9601f8916826149bc565b8355505b6001600288020188555050505b505050505050565b7f416c62616e6961000000000000000000000000000000000000000000000000005f82015250565b5f614af6600783614751565b9150614b0182614ac2565b600782019050919050565b5f614b1682614aea565b9150819050919050565b7f416c6765726961000000000000000000000000000000000000000000000000005f82015250565b5f614b54600783614751565b9150614b5f82614b20565b600782019050919050565b5f614b7482614b48565b9150819050919050565b7f416e646f727261000000000000000000000000000000000000000000000000005f82015250565b5f614bb2600783614751565b9150614bbd82614b7e565b600782019050919050565b5f614bd282614ba6565b9150819050919050565b7f416e676f6c6100000000000000000000000000000000000000000000000000005f82015250565b5f614c10600683614751565b9150614c1b82614bdc565b600682019050919050565b5f614c3082614c04565b9150819050919050565b7f416e746967756120616e642042617262756461000000000000000000000000005f82015250565b5f614c6e601383614751565b9150614c7982614c3a565b601382019050919050565b5f614c8e82614c62565b9150819050919050565b7f417267656e74696e6100000000000000000000000000000000000000000000005f82015250565b5f614ccc600983614751565b9150614cd782614c98565b600982019050919050565b5f614cec82614cc0565b9150819050919050565b7f41726d656e6961000000000000000000000000000000000000000000000000005f82015250565b5f614d2a600783614751565b9150614d3582614cf6565b600782019050919050565b5f614d4a82614d1e565b9150819050919050565b7f4175737472616c696100000000000000000000000000000000000000000000005f82015250565b5f614d88600983614751565b9150614d9382614d54565b600982019050919050565b5f614da882614d7c565b9150819050919050565b7f41757374726961000000000000000000000000000000000000000000000000005f82015250565b5f614de6600783614751565b9150614df182614db2565b600782019050919050565b5f614e0682614dda565b9150819050919050565b7f417a65726261696a616e000000000000000000000000000000000000000000005f82015250565b5f614e44600a83614751565b9150614e4f82614e10565b600a82019050919050565b5f614e6482614e38565b9150819050919050565b7f426168616d6173000000000000000000000000000000000000000000000000005f82015250565b5f614ea2600783614751565b9150614ead82614e6e565b600782019050919050565b5f614ec282614e96565b9150819050919050565b7f4261687261696e000000000000000000000000000000000000000000000000005f82015250565b5f614f00600783614751565b9150614f0b82614ecc565b600782019050919050565b5f614f2082614ef4565b9150819050919050565b7f42616e676c6164657368000000000000000000000000000000000000000000005f82015250565b5f614f5e600a83614751565b9150614f6982614f2a565b600a82019050919050565b5f614f7e82614f52565b9150819050919050565b7f4261726261646f730000000000000000000000000000000000000000000000005f82015250565b5f614fbc600883614751565b9150614fc782614f88565b600882019050919050565b5f614fdc82614fb0565b9150819050919050565b7f42656c61727573000000000000000000000000000000000000000000000000005f82015250565b5f61501a600783614751565b915061502582614fe6565b600782019050919050565b5f61503a8261500e565b9150819050919050565b7f42656c6769756d000000000000000000000000000000000000000000000000005f82015250565b5f615078600783614751565b915061508382615044565b600782019050919050565b5f6150988261506c565b9150819050919050565b7f42656c697a6500000000000000000000000000000000000000000000000000005f82015250565b5f6150d6600683614751565b91506150e1826150a2565b600682019050919050565b5f6150f6826150ca565b9150819050919050565b7f42656e696e0000000000000000000000000000000000000000000000000000005f82015250565b5f615134600583614751565b915061513f82615100565b600582019050919050565b5f61515482615128565b9150819050919050565b7f42687574616e00000000000000000000000000000000000000000000000000005f82015250565b5f615192600683614751565b915061519d8261515e565b600682019050919050565b5f6151b282615186565b9150819050919050565b7f426f6c69766961000000000000000000000000000000000000000000000000005f82015250565b5f6151f0600783614751565b91506151fb826151bc565b600782019050919050565b5f615210826151e4565b9150819050919050565b7f426f736e696120616e64204865727a65676f76696e61000000000000000000005f82015250565b5f61524e601683614751565b91506152598261521a565b601682019050919050565b5f61526e82615242565b9150819050919050565b7f426f747377616e610000000000000000000000000000000000000000000000005f82015250565b5f6152ac600883614751565b91506152b782615278565b600882019050919050565b5f6152cc826152a0565b9150819050919050565b7f4272617a696c00000000000000000000000000000000000000000000000000005f82015250565b5f61530a600683614751565b9150615315826152d6565b600682019050919050565b5f61532a826152fe565b9150819050919050565b7f4272756e656900000000000000000000000000000000000000000000000000005f82015250565b5f615368600683614751565b915061537382615334565b600682019050919050565b5f6153888261535c565b9150819050919050565b7f42756c67617269610000000000000000000000000000000000000000000000005f82015250565b5f6153c6600883614751565b91506153d182615392565b600882019050919050565b5f6153e6826153ba565b9150819050919050565b7f4275726b696e61204661736f00000000000000000000000000000000000000005f82015250565b5f615424600c83614751565b915061542f826153f0565b600c82019050919050565b5f61544482615418565b9150819050919050565b7f427572756e6469000000000000000000000000000000000000000000000000005f82015250565b5f615482600783614751565b915061548d8261544e565b600782019050919050565b5f6154a282615476565b9150819050919050565b7f43616d626f6469610000000000000000000000000000000000000000000000005f82015250565b5f6154e0600883614751565b91506154eb826154ac565b600882019050919050565b5f615500826154d4565b9150819050919050565b7f43616d65726f6f6e0000000000000000000000000000000000000000000000005f82015250565b5f61553e600883614751565b91506155498261550a565b600882019050919050565b5f61555e82615532565b9150819050919050565b7f43616e61646100000000000000000000000000000000000000000000000000005f82015250565b5f61559c600683614751565b91506155a782615568565b600682019050919050565b5f6155bc82615590565b9150819050919050565b7f43617065205665726465000000000000000000000000000000000000000000005f82015250565b5f6155fa600a83614751565b9150615605826155c6565b600a82019050919050565b5f61561a826155ee565b9150819050919050565b7f43656e7472616c204166726963616e2052657075626c696300000000000000005f82015250565b5f615658601883614751565b915061566382615624565b601882019050919050565b5f6156788261564c565b9150819050919050565b7f43686164000000000000000000000000000000000000000000000000000000005f82015250565b5f6156b6600483614751565b91506156c182615682565b600482019050919050565b5f6156d6826156aa565b9150819050919050565b7f4368696c650000000000000000000000000000000000000000000000000000005f82015250565b5f615714600583614751565b915061571f826156e0565b600582019050919050565b5f61573482615708565b9150819050919050565b7f4368696e610000000000000000000000000000000000000000000000000000005f82015250565b5f615772600583614751565b915061577d8261573e565b600582019050919050565b5f61579282615766565b9150819050919050565b7f436f6c6f6d6269610000000000000000000000000000000000000000000000005f82015250565b5f6157d0600883614751565b91506157db8261579c565b600882019050919050565b5f6157f0826157c4565b9150819050919050565b7f436f6d6f726f73000000000000000000000000000000000000000000000000005f82015250565b5f61582e600783614751565b9150615839826157fa565b600782019050919050565b5f61584e82615822565b9150819050919050565b7f436f6e676f2028436f6e676f2d4272617a7a6176696c6c6529000000000000005f82015250565b5f61588c601983614751565b915061589782615858565b601982019050919050565b5f6158ac82615880565b9150819050919050565b7f436f6e676f2028445243290000000000000000000000000000000000000000005f82015250565b5f6158ea600b83614751565b91506158f5826158b6565b600b82019050919050565b5f61590a826158de565b9150819050919050565b7f436f7374612052696361000000000000000000000000000000000000000000005f82015250565b5f615948600a83614751565b915061595382615914565b600a82019050919050565b5f6159688261593c565b9150819050919050565b7f43726f61746961000000000000000000000000000000000000000000000000005f82015250565b5f6159a6600783614751565b91506159b182615972565b600782019050919050565b5f6159c68261599a565b9150819050919050565b7f43756261000000000000000000000000000000000000000000000000000000005f82015250565b5f615a04600483614751565b9150615a0f826159d0565b600482019050919050565b5f615a24826159f8565b9150819050919050565b7f43797072757300000000000000000000000000000000000000000000000000005f82015250565b5f615a62600683614751565b9150615a6d82615a2e565b600682019050919050565b5f615a8282615a56565b9150819050919050565b7f437a6563686961000000000000000000000000000000000000000000000000005f82015250565b5f615ac0600783614751565b9150615acb82615a8c565b600782019050919050565b5f615ae082615ab4565b9150819050919050565b7f44656e6d61726b000000000000000000000000000000000000000000000000005f82015250565b5f615b1e600783614751565b9150615b2982615aea565b600782019050919050565b5f615b3e82615b12565b9150819050919050565b7f446a69626f7574690000000000000000000000000000000000000000000000005f82015250565b5f615b7c600883614751565b9150615b8782615b48565b600882019050919050565b5f615b9c82615b70565b9150819050919050565b7f446f6d696e6963610000000000000000000000000000000000000000000000005f82015250565b5f615bda600883614751565b9150615be582615ba6565b600882019050919050565b5f615bfa82615bce565b9150819050919050565b7f446f6d696e6963616e2052657075626c696300000000000000000000000000005f82015250565b5f615c38601283614751565b9150615c4382615c04565b601282019050919050565b5f615c5882615c2c565b9150819050919050565b7f45637561646f72000000000000000000000000000000000000000000000000005f82015250565b5f615c96600783614751565b9150615ca182615c62565b600782019050919050565b5f615cb682615c8a565b9150819050919050565b7f45677970740000000000000000000000000000000000000000000000000000005f82015250565b5f615cf4600583614751565b9150615cff82615cc0565b600582019050919050565b5f615d1482615ce8565b9150819050919050565b7f456c2053616c7661646f720000000000000000000000000000000000000000005f82015250565b5f615d52600b83614751565b9150615d5d82615d1e565b600b82019050919050565b5f615d7282615d46565b9150819050919050565b7f45717561746f7269616c204775696e65610000000000000000000000000000005f82015250565b5f615db0601183614751565b9150615dbb82615d7c565b601182019050919050565b5f615dd082615da4565b9150819050919050565b7f45726974726561000000000000000000000000000000000000000000000000005f82015250565b5f615e0e600783614751565b9150615e1982615dda565b600782019050919050565b5f615e2e82615e02565b9150819050919050565b7f4573746f6e6961000000000000000000000000000000000000000000000000005f82015250565b5f615e6c600783614751565b9150615e7782615e38565b600782019050919050565b5f615e8c82615e60565b9150819050919050565b7f4573776174696e690000000000000000000000000000000000000000000000005f82015250565b5f615eca600883614751565b9150615ed582615e96565b600882019050919050565b5f615eea82615ebe565b9150819050919050565b7f457468696f7069610000000000000000000000000000000000000000000000005f82015250565b5f615f28600883614751565b9150615f3382615ef4565b600882019050919050565b5f615f4882615f1c565b9150819050919050565b7f46696a69000000000000000000000000000000000000000000000000000000005f82015250565b5f615f86600483614751565b9150615f9182615f52565b600482019050919050565b5f615fa682615f7a565b9150819050919050565b7f46696e6c616e64000000000000000000000000000000000000000000000000005f82015250565b5f615fe4600783614751565b9150615fef82615fb0565b600782019050919050565b5f61600482615fd8565b9150819050919050565b7f4672616e636500000000000000000000000000000000000000000000000000005f82015250565b5f616042600683614751565b915061604d8261600e565b600682019050919050565b5f61606282616036565b9150819050919050565b7f4761626f6e0000000000000000000000000000000000000000000000000000005f82015250565b5f6160a0600583614751565b91506160ab8261606c565b600582019050919050565b5f6160c082616094565b9150819050919050565b7f47616d62696100000000000000000000000000000000000000000000000000005f82015250565b5f6160fe600683614751565b9150616109826160ca565b600682019050919050565b5f61611e826160f2565b9150819050919050565b7f47656f72676961000000000000000000000000000000000000000000000000005f82015250565b5f61615c600783614751565b915061616782616128565b600782019050919050565b5f61617c82616150565b9150819050919050565b7f4765726d616e79000000000000000000000000000000000000000000000000005f82015250565b5f6161ba600783614751565b91506161c582616186565b600782019050919050565b5f6161da826161ae565b9150819050919050565b7f4768616e610000000000000000000000000000000000000000000000000000005f82015250565b5f616218600583614751565b9150616223826161e4565b600582019050919050565b5f6162388261620c565b9150819050919050565b7f47726565636500000000000000000000000000000000000000000000000000005f82015250565b5f616276600683614751565b915061628182616242565b600682019050919050565b5f6162968261626a565b9150819050919050565b7f4772656e616461000000000000000000000000000000000000000000000000005f82015250565b5f6162d4600783614751565b91506162df826162a0565b600782019050919050565b5f6162f4826162c8565b9150819050919050565b7f47756174656d616c6100000000000000000000000000000000000000000000005f82015250565b5f616332600983614751565b915061633d826162fe565b600982019050919050565b5f61635282616326565b9150819050919050565b7f4775696e656100000000000000000000000000000000000000000000000000005f82015250565b5f616390600683614751565b915061639b8261635c565b600682019050919050565b5f6163b082616384565b9150819050919050565b7f4775696e65612d426973736175000000000000000000000000000000000000005f82015250565b5f6163ee600d83614751565b91506163f9826163ba565b600d82019050919050565b5f61640e826163e2565b9150819050919050565b7f477579616e6100000000000000000000000000000000000000000000000000005f82015250565b5f61644c600683614751565b915061645782616418565b600682019050919050565b5f61646c82616440565b9150819050919050565b7f48616974690000000000000000000000000000000000000000000000000000005f82015250565b5f6164aa600583614751565b91506164b582616476565b600582019050919050565b5f6164ca8261649e565b9150819050919050565b7f486f6e64757261730000000000000000000000000000000000000000000000005f82015250565b5f616508600883614751565b9150616513826164d4565b600882019050919050565b5f616528826164fc565b9150819050919050565b7f48756e67617279000000000000000000000000000000000000000000000000005f82015250565b5f616566600783614751565b915061657182616532565b600782019050919050565b5f6165868261655a565b9150819050919050565b7f4963656c616e64000000000000000000000000000000000000000000000000005f82015250565b5f6165c4600783614751565b91506165cf82616590565b600782019050919050565b5f6165e4826165b8565b9150819050919050565b7f496e6469610000000000000000000000000000000000000000000000000000005f82015250565b5f616622600583614751565b915061662d826165ee565b600582019050919050565b5f61664282616616565b9150819050919050565b7f496e646f6e6573696100000000000000000000000000000000000000000000005f82015250565b5f616680600983614751565b915061668b8261664c565b600982019050919050565b5f6166a082616674565b9150819050919050565b7f4972616e000000000000000000000000000000000000000000000000000000005f82015250565b5f6166de600483614751565b91506166e9826166aa565b600482019050919050565b5f6166fe826166d2565b9150819050919050565b7f49726171000000000000000000000000000000000000000000000000000000005f82015250565b5f61673c600483614751565b915061674782616708565b600482019050919050565b5f61675c82616730565b9150819050919050565b7f4972656c616e64000000000000000000000000000000000000000000000000005f82015250565b5f61679a600783614751565b91506167a582616766565b600782019050919050565b5f6167ba8261678e565b9150819050919050565b7f49737261656c00000000000000000000000000000000000000000000000000005f82015250565b5f6167f8600683614751565b9150616803826167c4565b600682019050919050565b5f616818826167ec565b9150819050919050565b7f4974616c790000000000000000000000000000000000000000000000000000005f82015250565b5f616856600583614751565b915061686182616822565b600582019050919050565b5f6168768261684a565b9150819050919050565b7f4a616d61696361000000000000000000000000000000000000000000000000005f82015250565b5f6168b4600783614751565b91506168bf82616880565b600782019050919050565b5f6168d4826168a8565b9150819050919050565b7f4a6170616e0000000000000000000000000000000000000000000000000000005f82015250565b5f616912600583614751565b915061691d826168de565b600582019050919050565b5f61693282616906565b9150819050919050565b7f4a6f7264616e00000000000000000000000000000000000000000000000000005f82015250565b5f616970600683614751565b915061697b8261693c565b600682019050919050565b5f61699082616964565b9150819050919050565b7f4b617a616b687374616e000000000000000000000000000000000000000000005f82015250565b5f6169ce600a83614751565b91506169d98261699a565b600a82019050919050565b5f6169ee826169c2565b9150819050919050565b7f4b656e79610000000000000000000000000000000000000000000000000000005f82015250565b5f616a2c600583614751565b9150616a37826169f8565b600582019050919050565b5f616a4c82616a20565b9150819050919050565b7f4b697269626174690000000000000000000000000000000000000000000000005f82015250565b5f616a8a600883614751565b9150616a9582616a56565b600882019050919050565b5f616aaa82616a7e565b9150819050919050565b7f4b757761697400000000000000000000000000000000000000000000000000005f82015250565b5f616ae8600683614751565b9150616af382616ab4565b600682019050919050565b5f616b0882616adc565b9150819050919050565b7f4b797267797a7374616e000000000000000000000000000000000000000000005f82015250565b5f616b46600a83614751565b9150616b5182616b12565b600a82019050919050565b5f616b6682616b3a565b9150819050919050565b7f4c616f73000000000000000000000000000000000000000000000000000000005f82015250565b5f616ba4600483614751565b9150616baf82616b70565b600482019050919050565b5f616bc482616b98565b9150819050919050565b7f4c617476696100000000000000000000000000000000000000000000000000005f82015250565b5f616c02600683614751565b9150616c0d82616bce565b600682019050919050565b5f616c2282616bf6565b9150819050919050565b7f4c6562616e6f6e000000000000000000000000000000000000000000000000005f82015250565b5f616c60600783614751565b9150616c6b82616c2c565b600782019050919050565b5f616c8082616c54565b9150819050919050565b7f4c65736f74686f000000000000000000000000000000000000000000000000005f82015250565b5f616cbe600783614751565b9150616cc982616c8a565b600782019050919050565b5f616cde82616cb2565b9150819050919050565b7f4c696265726961000000000000000000000000000000000000000000000000005f82015250565b5f616d1c600783614751565b9150616d2782616ce8565b600782019050919050565b5f616d3c82616d10565b9150819050919050565b7f4c696279610000000000000000000000000000000000000000000000000000005f82015250565b5f616d7a600583614751565b9150616d8582616d46565b600582019050919050565b5f616d9a82616d6e565b9150819050919050565b7f4c6965636874656e737465696e000000000000000000000000000000000000005f82015250565b5f616dd8600d83614751565b9150616de382616da4565b600d82019050919050565b5f616df882616dcc565b9150819050919050565b7f4c69746875616e696100000000000000000000000000000000000000000000005f82015250565b5f616e36600983614751565b9150616e4182616e02565b600982019050919050565b5f616e5682616e2a565b9150819050919050565b7f4c7578656d626f757267000000000000000000000000000000000000000000005f82015250565b5f616e94600a83614751565b9150616e9f82616e60565b600a82019050919050565b5f616eb482616e88565b9150819050919050565b7f4d616461676173636172000000000000000000000000000000000000000000005f82015250565b5f616ef2600a83614751565b9150616efd82616ebe565b600a82019050919050565b5f616f1282616ee6565b9150819050919050565b7f4d616c61776900000000000000000000000000000000000000000000000000005f82015250565b5f616f50600683614751565b9150616f5b82616f1c565b600682019050919050565b5f616f7082616f44565b9150819050919050565b7f4d616c61797369610000000000000000000000000000000000000000000000005f82015250565b5f616fae600883614751565b9150616fb982616f7a565b600882019050919050565b5f616fce82616fa2565b9150819050919050565b7f4d616c64697665730000000000000000000000000000000000000000000000005f82015250565b5f61700c600883614751565b915061701782616fd8565b600882019050919050565b5f61702c82617000565b9150819050919050565b7f4d616c69000000000000000000000000000000000000000000000000000000005f82015250565b5f61706a600483614751565b915061707582617036565b600482019050919050565b5f61708a8261705e565b9150819050919050565b7f4d616c74610000000000000000000000000000000000000000000000000000005f82015250565b5f6170c8600583614751565b91506170d382617094565b600582019050919050565b5f6170e8826170bc565b9150819050919050565b7f4d61727368616c6c2049736c616e6473000000000000000000000000000000005f82015250565b5f617126601083614751565b9150617131826170f2565b601082019050919050565b5f6171468261711a565b9150819050919050565b7f4d6175726974616e6961000000000000000000000000000000000000000000005f82015250565b5f617184600a83614751565b915061718f82617150565b600a82019050919050565b5f6171a482617178565b9150819050919050565b7f4d617572697469757300000000000000000000000000000000000000000000005f82015250565b5f6171e2600983614751565b91506171ed826171ae565b600982019050919050565b5f617202826171d6565b9150819050919050565b7f4d657869636f00000000000000000000000000000000000000000000000000005f82015250565b5f617240600683614751565b915061724b8261720c565b600682019050919050565b5f61726082617234565b9150819050919050565b7f4d6963726f6e65736961000000000000000000000000000000000000000000005f82015250565b5f61729e600a83614751565b91506172a98261726a565b600a82019050919050565b5f6172be82617292565b9150819050919050565b7f4d6f6c646f7661000000000000000000000000000000000000000000000000005f82015250565b5f6172fc600783614751565b9150617307826172c8565b600782019050919050565b5f61731c826172f0565b9150819050919050565b7f4d6f6e61636f00000000000000000000000000000000000000000000000000005f82015250565b5f61735a600683614751565b915061736582617326565b600682019050919050565b5f61737a8261734e565b9150819050919050565b7f4d6f6e676f6c69610000000000000000000000000000000000000000000000005f82015250565b5f6173b8600883614751565b91506173c382617384565b600882019050919050565b5f6173d8826173ac565b9150819050919050565b7f4d6f6e74656e6567726f000000000000000000000000000000000000000000005f82015250565b5f617416600a83614751565b9150617421826173e2565b600a82019050919050565b5f6174368261740a565b9150819050919050565b7f4d6f726f63636f000000000000000000000000000000000000000000000000005f82015250565b5f617474600783614751565b915061747f82617440565b600782019050919050565b5f61749482617468565b9150819050919050565b7f4d6f7a616d6269717565000000000000000000000000000000000000000000005f82015250565b5f6174d2600a83614751565b91506174dd8261749e565b600a82019050919050565b5f6174f2826174c6565b9150819050919050565b7f4d79616e6d6172000000000000000000000000000000000000000000000000005f82015250565b5f617530600783614751565b915061753b826174fc565b600782019050919050565b5f61755082617524565b9150819050919050565b7f4e616d69626961000000000000000000000000000000000000000000000000005f82015250565b5f61758e600783614751565b91506175998261755a565b600782019050919050565b5f6175ae82617582565b9150819050919050565b7f4e617572750000000000000000000000000000000000000000000000000000005f82015250565b5f6175ec600583614751565b91506175f7826175b8565b600582019050919050565b5f61760c826175e0565b9150819050919050565b7f4e6570616c0000000000000000000000000000000000000000000000000000005f82015250565b5f61764a600583614751565b915061765582617616565b600582019050919050565b5f61766a8261763e565b9150819050919050565b7f4e65746865726c616e64730000000000000000000000000000000000000000005f82015250565b5f6176a8600b83614751565b91506176b382617674565b600b82019050919050565b5f6176c88261769c565b9150819050919050565b7f4e6577205a65616c616e640000000000000000000000000000000000000000005f82015250565b5f617706600b83614751565b9150617711826176d2565b600b82019050919050565b5f617726826176fa565b9150819050919050565b7f4e696361726167756100000000000000000000000000000000000000000000005f82015250565b5f617764600983614751565b915061776f82617730565b600982019050919050565b5f61778482617758565b9150819050919050565b7f4e696765720000000000000000000000000000000000000000000000000000005f82015250565b5f6177c2600583614751565b91506177cd8261778e565b600582019050919050565b5f6177e2826177b6565b9150819050919050565b7f4e696765726961000000000000000000000000000000000000000000000000005f82015250565b5f617820600783614751565b915061782b826177ec565b600782019050919050565b5f61784082617814565b9150819050919050565b7f4e6f727468204b6f7265610000000000000000000000000000000000000000005f82015250565b5f61787e600b83614751565b91506178898261784a565b600b82019050919050565b5f61789e82617872565b9150819050919050565b7f4e6f727468204d616365646f6e696100000000000000000000000000000000005f82015250565b5f6178dc600f83614751565b91506178e7826178a8565b600f82019050919050565b5f6178fc826178d0565b9150819050919050565b7f4e6f7277617900000000000000000000000000000000000000000000000000005f82015250565b5f61793a600683614751565b915061794582617906565b600682019050919050565b5f61795a8261792e565b9150819050919050565b7f4f6d616e000000000000000000000000000000000000000000000000000000005f82015250565b5f617998600483614751565b91506179a382617964565b600482019050919050565b5f6179b88261798c565b9150819050919050565b7f50616b697374616e0000000000000000000000000000000000000000000000005f82015250565b5f6179f6600883614751565b9150617a01826179c2565b600882019050919050565b5f617a16826179ea565b9150819050919050565b7f50616c61750000000000000000000000000000000000000000000000000000005f82015250565b5f617a54600583614751565b9150617a5f82617a20565b600582019050919050565b5f617a7482617a48565b9150819050919050565b7f50616e616d6100000000000000000000000000000000000000000000000000005f82015250565b5f617ab2600683614751565b9150617abd82617a7e565b600682019050919050565b5f617ad282617aa6565b9150819050919050565b7f5061707561204e6577204775696e6561000000000000000000000000000000005f82015250565b5f617b10601083614751565b9150617b1b82617adc565b601082019050919050565b5f617b3082617b04565b9150819050919050565b7f50617261677561790000000000000000000000000000000000000000000000005f82015250565b5f617b6e600883614751565b9150617b7982617b3a565b600882019050919050565b5f617b8e82617b62565b9150819050919050565b7f50657275000000000000000000000000000000000000000000000000000000005f82015250565b5f617bcc600483614751565b9150617bd782617b98565b600482019050919050565b5f617bec82617bc0565b9150819050919050565b7f5068696c697070696e65730000000000000000000000000000000000000000005f82015250565b5f617c2a600b83614751565b9150617c3582617bf6565b600b82019050919050565b5f617c4a82617c1e565b9150819050919050565b7f506f6c616e6400000000000000000000000000000000000000000000000000005f82015250565b5f617c88600683614751565b9150617c9382617c54565b600682019050919050565b5f617ca882617c7c565b9150819050919050565b7f506f72747567616c0000000000000000000000000000000000000000000000005f82015250565b5f617ce6600883614751565b9150617cf182617cb2565b600882019050919050565b5f617d0682617cda565b9150819050919050565b7f51617461720000000000000000000000000000000000000000000000000000005f82015250565b5f617d44600583614751565b9150617d4f82617d10565b600582019050919050565b5f617d6482617d38565b9150819050919050565b7f526f6d616e6961000000000000000000000000000000000000000000000000005f82015250565b5f617da2600783614751565b9150617dad82617d6e565b600782019050919050565b5f617dc282617d96565b9150819050919050565b7f52757373696100000000000000000000000000000000000000000000000000005f82015250565b5f617e00600683614751565b9150617e0b82617dcc565b600682019050919050565b5f617e2082617df4565b9150819050919050565b7f5277616e646100000000000000000000000000000000000000000000000000005f82015250565b5f617e5e600683614751565b9150617e6982617e2a565b600682019050919050565b5f617e7e82617e52565b9150819050919050565b7f5361696e74204b6974747320616e64204e6576697300000000000000000000005f82015250565b5f617ebc601583614751565b9150617ec782617e88565b601582019050919050565b5f617edc82617eb0565b9150819050919050565b7f5361696e74204c756369610000000000000000000000000000000000000000005f82015250565b5f617f1a600b83614751565b9150617f2582617ee6565b600b82019050919050565b5f617f3a82617f0e565b9150819050919050565b7f5361696e742056696e63656e7420616e6420746865204772656e6164696e65735f82015250565b5f617f78602083614751565b9150617f8382617f44565b602082019050919050565b5f617f9882617f6c565b9150819050919050565b7f53616d6f610000000000000000000000000000000000000000000000000000005f82015250565b5f617fd6600583614751565b9150617fe182617fa2565b600582019050919050565b5f617ff682617fca565b9150819050919050565b7f53616e204d6172696e6f000000000000000000000000000000000000000000005f82015250565b5f618034600a83614751565b915061803f82618000565b600a82019050919050565b5f61805482618028565b9150819050919050565b7f53616f20546f6d6520616e64205072696e6369706500000000000000000000005f82015250565b5f618092601583614751565b915061809d8261805e565b601582019050919050565b5f6180b282618086565b9150819050919050565b7f53617564692041726162696100000000000000000000000000000000000000005f82015250565b5f6180f0600c83614751565b91506180fb826180bc565b600c82019050919050565b5f618110826180e4565b9150819050919050565b7f53656e6567616c000000000000000000000000000000000000000000000000005f82015250565b5f61814e600783614751565b91506181598261811a565b600782019050919050565b5f61816e82618142565b9150819050919050565b7f53657262696100000000000000000000000000000000000000000000000000005f82015250565b5f6181ac600683614751565b91506181b782618178565b600682019050919050565b5f6181cc826181a0565b9150819050919050565b7f5365796368656c6c6573000000000000000000000000000000000000000000005f82015250565b5f61820a600a83614751565b9150618215826181d6565b600a82019050919050565b5f61822a826181fe565b9150819050919050565b7f536965727261204c656f6e6500000000000000000000000000000000000000005f82015250565b5f618268600c83614751565b915061827382618234565b600c82019050919050565b5f6182888261825c565b9150819050919050565b7f53696e6761706f726500000000000000000000000000000000000000000000005f82015250565b5f6182c6600983614751565b91506182d182618292565b600982019050919050565b5f6182e6826182ba565b9150819050919050565b7f536c6f76616b69610000000000000000000000000000000000000000000000005f82015250565b5f618324600883614751565b915061832f826182f0565b600882019050919050565b5f61834482618318565b9150819050919050565b7f536c6f76656e69610000000000000000000000000000000000000000000000005f82015250565b5f618382600883614751565b915061838d8261834e565b600882019050919050565b5f6183a282618376565b9150819050919050565b7f536f6c6f6d6f6e2049736c616e647300000000000000000000000000000000005f82015250565b5f6183e0600f83614751565b91506183eb826183ac565b600f82019050919050565b5f618400826183d4565b9150819050919050565b7f536f6d616c6961000000000000000000000000000000000000000000000000005f82015250565b5f61843e600783614751565b91506184498261840a565b600782019050919050565b5f61845e82618432565b9150819050919050565b7f536f7574682041667269636100000000000000000000000000000000000000005f82015250565b5f61849c600c83614751565b91506184a782618468565b600c82019050919050565b5f6184bc82618490565b9150819050919050565b7f536f757468204b6f7265610000000000000000000000000000000000000000005f82015250565b5f6184fa600b83614751565b9150618505826184c6565b600b82019050919050565b5f61851a826184ee565b9150819050919050565b7f536f75746820537564616e0000000000000000000000000000000000000000005f82015250565b5f618558600b83614751565b915061856382618524565b600b82019050919050565b5f6185788261854c565b9150819050919050565b7f537061696e0000000000000000000000000000000000000000000000000000005f82015250565b5f6185b6600583614751565b91506185c182618582565b600582019050919050565b5f6185d6826185aa565b9150819050919050565b7f537269204c616e6b6100000000000000000000000000000000000000000000005f82015250565b5f618614600983614751565b915061861f826185e0565b600982019050919050565b5f61863482618608565b9150819050919050565b7f537564616e0000000000000000000000000000000000000000000000000000005f82015250565b5f618672600583614751565b915061867d8261863e565b600582019050919050565b5f61869282618666565b9150819050919050565b7f537572696e616d650000000000000000000000000000000000000000000000005f82015250565b5f6186d0600883614751565b91506186db8261869c565b600882019050919050565b5f6186f0826186c4565b9150819050919050565b7f53776564656e00000000000000000000000000000000000000000000000000005f82015250565b5f61872e600683614751565b9150618739826186fa565b600682019050919050565b5f61874e82618722565b9150819050919050565b7f537769747a65726c616e640000000000000000000000000000000000000000005f82015250565b5f61878c600b83614751565b915061879782618758565b600b82019050919050565b5f6187ac82618780565b9150819050919050565b7f53797269610000000000000000000000000000000000000000000000000000005f82015250565b5f6187ea600583614751565b91506187f5826187b6565b600582019050919050565b5f61880a826187de565b9150819050919050565b7f54616977616e00000000000000000000000000000000000000000000000000005f82015250565b5f618848600683614751565b915061885382618814565b600682019050919050565b5f6188688261883c565b9150819050919050565b7f54616a696b697374616e000000000000000000000000000000000000000000005f82015250565b5f6188a6600a83614751565b91506188b182618872565b600a82019050919050565b5f6188c68261889a565b9150819050919050565b7f54616e7a616e69610000000000000000000000000000000000000000000000005f82015250565b5f618904600883614751565b915061890f826188d0565b600882019050919050565b5f618924826188f8565b9150819050919050565b7f546861696c616e640000000000000000000000000000000000000000000000005f82015250565b5f618962600883614751565b915061896d8261892e565b600882019050919050565b5f61898282618956565b9150819050919050565b7f54696d6f722d4c657374650000000000000000000000000000000000000000005f82015250565b5f6189c0600b83614751565b91506189cb8261898c565b600b82019050919050565b5f6189e0826189b4565b9150819050919050565b7f546f676f000000000000000000000000000000000000000000000000000000005f82015250565b5f618a1e600483614751565b9150618a29826189ea565b600482019050919050565b5f618a3e82618a12565b9150819050919050565b7f546f6e67610000000000000000000000000000000000000000000000000000005f82015250565b5f618a7c600583614751565b9150618a8782618a48565b600582019050919050565b5f618a9c82618a70565b9150819050919050565b7f5472696e6964616420616e6420546f6261676f000000000000000000000000005f82015250565b5f618ada601383614751565b9150618ae582618aa6565b601382019050919050565b5f618afa82618ace565b9150819050919050565b7f54756e69736961000000000000000000000000000000000000000000000000005f82015250565b5f618b38600783614751565b9150618b4382618b04565b600782019050919050565b5f618b5882618b2c565b9150819050919050565b7f5475726b657900000000000000000000000000000000000000000000000000005f82015250565b5f618b96600683614751565b9150618ba182618b62565b600682019050919050565b5f618bb682618b8a565b9150819050919050565b7f5475726b6d656e697374616e00000000000000000000000000000000000000005f82015250565b5f618bf4600c83614751565b9150618bff82618bc0565b600c82019050919050565b5f618c1482618be8565b9150819050919050565b7f547576616c7500000000000000000000000000000000000000000000000000005f82015250565b5f618c52600683614751565b9150618c5d82618c1e565b600682019050919050565b5f618c7282618c46565b9150819050919050565b7f5567616e646100000000000000000000000000000000000000000000000000005f82015250565b5f618cb0600683614751565b9150618cbb82618c7c565b600682019050919050565b5f618cd082618ca4565b9150819050919050565b7f556b7261696e65000000000000000000000000000000000000000000000000005f82015250565b5f618d0e600783614751565b9150618d1982618cda565b600782019050919050565b5f618d2e82618d02565b9150819050919050565b7f556e69746564204172616220456d6972617465730000000000000000000000005f82015250565b5f618d6c601483614751565b9150618d7782618d38565b601482019050919050565b5f618d8c82618d60565b9150819050919050565b7f556e69746564204b696e67646f6d0000000000000000000000000000000000005f82015250565b5f618dca600e83614751565b9150618dd582618d96565b600e82019050919050565b5f618dea82618dbe565b9150819050919050565b7f556e6974656420537461746573000000000000000000000000000000000000005f82015250565b5f618e28600d83614751565b9150618e3382618df4565b600d82019050919050565b5f618e4882618e1c565b9150819050919050565b7f55727567756179000000000000000000000000000000000000000000000000005f82015250565b5f618e86600783614751565b9150618e9182618e52565b600782019050919050565b5f618ea682618e7a565b9150819050919050565b7f557a62656b697374616e000000000000000000000000000000000000000000005f82015250565b5f618ee4600a83614751565b9150618eef82618eb0565b600a82019050919050565b5f618f0482618ed8565b9150819050919050565b7f56616e75617475000000000000000000000000000000000000000000000000005f82015250565b5f618f42600783614751565b9150618f4d82618f0e565b600782019050919050565b5f618f6282618f36565b9150819050919050565b7f5661746963616e204369747900000000000000000000000000000000000000005f82015250565b5f618fa0600c83614751565b9150618fab82618f6c565b600c82019050919050565b5f618fc082618f94565b9150819050919050565b7f56656e657a75656c6100000000000000000000000000000000000000000000005f82015250565b5f618ffe600983614751565b915061900982618fca565b600982019050919050565b5f61901e82618ff2565b9150819050919050565b7f566965746e616d000000000000000000000000000000000000000000000000005f82015250565b5f61905c600783614751565b915061906782619028565b600782019050919050565b5f61907c82619050565b9150819050919050565b7f59656d656e0000000000000000000000000000000000000000000000000000005f82015250565b5f6190ba600583614751565b91506190c582619086565b600582019050919050565b5f6190da826190ae565b9150819050919050565b7f5a616d62696100000000000000000000000000000000000000000000000000005f82015250565b5f619118600683614751565b9150619123826190e4565b600682019050919050565b5f6191388261910c565b9150819050919050565b7f5a696d62616277650000000000000000000000000000000000000000000000005f82015250565b5f619176600883614751565b915061918182619142565b600882019050919050565b5f6191968261916a565b9150819050919050565b6104ee806191ad5f395ff3fe608060405234801561000f575f80fd5b5060043610610034575f3560e01c806345d94c5d1461003857806383b156c414610068575b5f80fd5b610052600480360381019061004d9190610344565b610098565b60405161005f91906103eb565b60405180910390f35b610082600480360381019061007d9190610344565b61014a565b60405161008f91906103eb565b60405180910390f35b5f818051602081018201805184825260208301602085012081835280955050505050505f9150905080546100cb90610438565b80601f01602080910402602001604051908101604052809291908181526020018280546100f790610438565b80156101425780601f1061011957610100808354040283529160200191610142565b820191905f5260205f20905b81548152906001019060200180831161012557829003601f168201915b505050505081565b60605f8260405161015b91906104a2565b9081526020016040518091039020805461017490610438565b80601f01602080910402602001604051908101604052809291908181526020018280546101a090610438565b80156101eb5780601f106101c2576101008083540402835291602001916101eb565b820191905f5260205f20905b8154815290600101906020018083116101ce57829003601f168201915b50505050509050919050565b5f604051905090565b5f80fd5b5f80fd5b5f80fd5b5f80fd5b5f601f19601f8301169050919050565b7f4e487b71000000000000000000000000000000000000000000000000000000005f52604160045260245ffd5b61025682610210565b810181811067ffffffffffffffff8211171561027557610274610220565b5b80604052505050565b5f6102876101f7565b9050610293828261024d565b919050565b5f67ffffffffffffffff8211156102b2576102b1610220565b5b6102bb82610210565b9050602081019050919050565b828183375f83830152505050565b5f6102e86102e384610298565b61027e565b9050828152602081018484840111156103045761030361020c565b5b61030f8482856102c8565b509392505050565b5f82601f83011261032b5761032a610208565b5b813561033b8482602086016102d6565b91505092915050565b5f6020828403121561035957610358610200565b5b5f82013567ffffffffffffffff81111561037657610375610204565b5b61038284828501610317565b91505092915050565b5f81519050919050565b5f82825260208201905092915050565b8281835e5f83830152505050565b5f6103bd8261038b565b6103c78185610395565b93506103d78185602086016103a5565b6103e081610210565b840191505092915050565b5f6020820190508181035f83015261040381846103b3565b905092915050565b7f4e487b71000000000000000000000000000000000000000000000000000000005f52602260045260245ffd5b5f600282049050600182168061044f57607f821691505b6020821081036104625761046161040b565b5b50919050565b5f81905092915050565b5f61047c8261038b565b6104868185610468565b93506104968185602086016103a5565b80840191505092915050565b5f6104ad8284610472565b91508190509291505056fea2646970667358221220975ae38c6f7c6d130f4d3783fe0d452baa1e14475bf012435083d2befd3179b664736f6c634300081a0033",
			"opcodes": "PUSH1 0x80 PUSH1 0x40 MSTORE CALLVALUE DUP1 ISZERO PUSH2 0xF JUMPI PUSH0 DUP1 REVERT JUMPDEST POP PUSH1 0x40 MLOAD DUP1 PUSH1 0x40 ADD PUSH1 0x40 MSTORE DUP1 PUSH1 0x2 DUP2 MSTORE PUSH1 0x20 ADD PUSH32 0x4146000000000000000000000000000000000000000000000000000000000000 DUP2 MSTORE POP PUSH0 PUSH1 0x40 MLOAD PUSH2 0x53 SWAP1 PUSH2 0x47A5 JUMP JUMPDEST SWAP1 DUP2 MSTORE PUSH1 0x20 ADD PUSH1 0x40 MLOAD DUP1 SWAP2 SUB SWAP1 KECCAK256 SWAP1 DUP2 PUSH2 0x6D SWAP2 SWAP1 PUSH2 0x49F3 JUMP JUMPDEST POP PUSH1 0x40 MLOAD DUP1 PUSH1 0x40 ADD PUSH1 0x40 MSTORE DUP1 PUSH1 0x2 DUP2 MSTORE PUSH1 0x20 ADD PUSH32 0x414C000000000000000000000000000000000000000000000000000000000000 DUP2 MSTORE POP PUSH0 PUSH1 0x40 MLOAD PUSH2 0xB1 SWAP1 PUSH2 0x4B0C JUMP JUMPDEST SWAP1 DUP2 MSTORE PUSH1 0x20 ADD PUSH1 0x40 MLOAD DUP1 SWAP2 SUB SWAP1 KECCAK256 SWAP1 DUP2 PUSH2 0xCB SWAP2 SWAP1 PUSH2 0x49F3 JUMP JUMPDEST POP PUSH1 0x40 MLOAD DUP1 PUSH1 0x40 ADD PUSH1 0x40 MSTORE DUP1 PUSH1 0x2 DUP2 MSTORE PUSH1 0x20 ADD PUSH32 0x445A000000000000000000000000000000000000000000000000000000000000 DUP2 MSTORE POP PUSH0 PUSH1 0x40 MLOAD PUSH2 0x10F SWAP1 PUSH2 0x4B6A JUMP JUMPDEST SWAP1 DUP2 MSTORE PUSH1 0x20 ADD PUSH1 0x40 MLOAD DUP1 SWAP2 SUB SWAP1 KECCAK256 SWAP1 DUP2 PUSH2 0x129 SWAP2 SWAP1 PUSH2 0x49F3 JUMP JUMPDEST POP PUSH1 0x40 MLOAD DUP1 PUSH1 0x40 ADD PUSH1 0x40 MSTORE DUP1 PUSH1 0x2 DUP2 MSTORE PUSH1 0x20 ADD PUSH32 0x4144000000000000000000000000000000000000000000000000000000000000 DUP2 MSTORE POP PUSH0 PUSH1 0x40 MLOAD PUSH2 0x16D SWAP1 PUSH2 0x4BC8 JUMP JUMPDEST SWAP1 DUP2 MSTORE PUSH1 0x20 ADD PUSH1 0x40 MLOAD DUP1 SWAP2 SUB SWAP1 KECCAK256 SWAP1 DUP2 PUSH2 0x187 SWAP2 SWAP1 PUSH2 0x49F3 JUMP JUMPDEST POP PUSH1 0x40 MLOAD DUP1 PUSH1 0x40 ADD PUSH1 0x40 MSTORE DUP1 PUSH1 0x2 DUP2 MSTORE PUSH1 0x20 ADD PUSH32 0x414F000000000000000000000000000000000000000000000000000000000000 DUP2 MSTORE POP PUSH0 PUSH1 0x40 MLOAD PUSH2 0x1CB SWAP1 PUSH2 0x4C26 JUMP JUMPDEST SWAP1 DUP2 MSTORE PUSH1 0x20 ADD PUSH1 0x40 MLOAD DUP1 SWAP2 SUB SWAP1 KECCAK256 SWAP1 DUP2 PUSH2 0x1E5 SWAP2 SWAP1 PUSH2 0x49F3 JUMP JUMPDEST POP PUSH1 0x40 MLOAD DUP1 PUSH1 0x40 ADD PUSH1 0x40 MSTORE DUP1 PUSH1 0x2 DUP2 MSTORE PUSH1 0x20 ADD PUSH32 0x4147000000000000000000000000000000000000000000000000000000000000 DUP2 MSTORE POP PUSH0 PUSH1 0x40 MLOAD PUSH2 0x229 SWAP1 PUSH2 0x4C84 JUMP JUMPDEST SWAP1 DUP2 MSTORE PUSH1 0x20 ADD PUSH1 0x40 MLOAD DUP1 SWAP2 SUB SWAP1 KECCAK256 SWAP1 DUP2 PUSH2 0x243 SWAP2 SWAP1 PUSH2 0x49F3 JUMP JUMPDEST POP PUSH1 0x40 MLOAD DUP1 PUSH1 0x40 ADD PUSH1 0x40 MSTORE DUP1 PUSH1 0x2 DUP2 MSTORE PUSH1 0x20 ADD PUSH32 0x4152000000000000000000000000000000000000000000000000000000000000 DUP2 MSTORE POP PUSH0 PUSH1 0x40 MLOAD PUSH2 0x287 SWAP1 PUSH2 0x4CE2 JUMP JUMPDEST SWAP1 DUP2 MSTORE PUSH1 0x20 ADD PUSH1 0x40 MLOAD DUP1 SWAP2 SUB SWAP1 KECCAK256 SWAP1 DUP2 PUSH2 0x2A1 SWAP2 SWAP1 PUSH2 0x49F3 JUMP JUMPDEST POP PUSH1 0x40 MLOAD DUP1 PUSH1 0x40 ADD PUSH1 0x40 MSTORE DUP1 PUSH1 0x2 DUP2 MSTORE PUSH1 0x20 ADD PUSH32 0x414D000000000000000000000000000000000000000000000000000000000000 DUP2 MSTORE POP PUSH0 PUSH1 0x40 MLOAD PUSH2 0x2E5 SWAP1 PUSH2 0x4D40 JUMP JUMPDEST SWAP1 DUP2 MSTORE PUSH1 0x20 ADD PUSH1 0x40 MLOAD DUP1 SWAP2 SUB SWAP1 KECCAK256 SWAP1 DUP2 PUSH2 0x2FF SWAP2 SWAP1 PUSH2 0x49F3 JUMP JUMPDEST POP PUSH1 0x40 MLOAD DUP1 PUSH1 0x40 ADD PUSH1 0x40 MSTORE DUP1 PUSH1 0x2 DUP2 MSTORE PUSH1 0x20 ADD PUSH32 0x4155000000000000000000000000000000000000000000000000000000000000 DUP2 MSTORE POP PUSH0 PUSH1 0x40 MLOAD PUSH2 0x343 SWAP1 PUSH2 0x4D9E JUMP JUMPDEST SWAP1 DUP2 MSTORE PUSH1 0x20 ADD PUSH1 0x40 MLOAD DUP1 SWAP2 SUB SWAP1 KECCAK256 SWAP1 DUP2 PUSH2 0x35D SWAP2 SWAP1 PUSH2 0x49F3 JUMP JUMPDEST POP PUSH1 0x40 MLOAD DUP1 PUSH1 0x40 ADD PUSH1 0x40 MSTORE DUP1 PUSH1 0x2 DUP2 MSTORE PUSH1 0x20 ADD PUSH32 0x4154000000000000000000000000000000000000000000000000000000000000 DUP2 MSTORE POP PUSH0 PUSH1 0x40 MLOAD PUSH2 0x3A1 SWAP1 PUSH2 0x4DFC JUMP JUMPDEST SWAP1 DUP2 MSTORE PUSH1 0x20 ADD PUSH1 0x40 MLOAD DUP1 SWAP2 SUB SWAP1 KECCAK256 SWAP1 DUP2 PUSH2 0x3BB SWAP2 SWAP1 PUSH2 0x49F3 JUMP JUMPDEST POP PUSH1 0x40 MLOAD DUP1 PUSH1 0x40 ADD PUSH1 0x40 MSTORE DUP1 PUSH1 0x2 DUP2 MSTORE PUSH1 0x20 ADD PUSH32 0x415A000000000000000000000000000000000000000000000000000000000000 DUP2 MSTORE POP PUSH0 PUSH1 0x40 MLOAD PUSH2 0x3FF SWAP1 PUSH2 0x4E5A JUMP JUMPDEST SWAP1 DUP2 MSTORE PUSH1 0x20 ADD PUSH1 0x40 MLOAD DUP1 SWAP2 SUB SWAP1 KECCAK256 SWAP1 DUP2 PUSH2 0x419 SWAP2 SWAP1 PUSH2 0x49F3 JUMP JUMPDEST POP PUSH1 0x40 MLOAD DUP1 PUSH1 0x40 ADD PUSH1 0x40 MSTORE DUP1 PUSH1 0x2 DUP2 MSTORE PUSH1 0x20 ADD PUSH32 0x4253000000000000000000000000000000000000000000000000000000000000 DUP2 MSTORE POP PUSH0 PUSH1 0x40 MLOAD PUSH2 0x45D SWAP1 PUSH2 0x4EB8 JUMP JUMPDEST SWAP1 DUP2 MSTORE PUSH1 0x20 ADD PUSH1 0x40 MLOAD DUP1 SWAP2 SUB SWAP1 KECCAK256 SWAP1 DUP2 PUSH2 0x477 SWAP2 SWAP1 PUSH2 0x49F3 JUMP JUMPDEST POP PUSH1 0x40 MLOAD DUP1 PUSH1 0x40 ADD PUSH1 0x40 MSTORE DUP1 PUSH1 0x2 DUP2 MSTORE PUSH1 0x20 ADD PUSH32 0x4248000000000000000000000000000000000000000000000000000000000000 DUP2 MSTORE POP PUSH0 PUSH1 0x40 MLOAD PUSH2 0x4BB SWAP1 PUSH2 0x4F16 JUMP JUMPDEST SWAP1 DUP2 MSTORE PUSH1 0x20 ADD PUSH1 0x40 MLOAD DUP1 SWAP2 SUB SWAP1 KECCAK256 SWAP1 DUP2 PUSH2 0x4D5 SWAP2 SWAP1 PUSH2 0x49F3 JUMP JUMPDEST POP PUSH1 0x40 MLOAD DUP1 PUSH1 0x40 ADD PUSH1 0x40 MSTORE DUP1 PUSH1 0x2 DUP2 MSTORE PUSH1 0x20 ADD PUSH32 0x4244000000000000000000000000000000000000000000000000000000000000 DUP2 MSTORE POP PUSH0 PUSH1 0x40 MLOAD PUSH2 0x519 SWAP1 PUSH2 0x4F74 JUMP JUMPDEST SWAP1 DUP2 MSTORE PUSH1 0x20 ADD PUSH1 0x40 MLOAD DUP1 SWAP2 SUB SWAP1 KECCAK256 SWAP1 DUP2 PUSH2 0x533 SWAP2 SWAP1 PUSH2 0x49F3 JUMP JUMPDEST POP PUSH1 0x40 MLOAD DUP1 PUSH1 0x40 ADD PUSH1 0x40 MSTORE DUP1 PUSH1 0x2 DUP2 MSTORE PUSH1 0x20 ADD PUSH32 0x4242000000000000000000000000000000000000000000000000000000000000 DUP2 MSTORE POP PUSH0 PUSH1 0x40 MLOAD PUSH2 0x577 SWAP1 PUSH2 0x4FD2 JUMP JUMPDEST SWAP1 DUP2 MSTORE PUSH1 0x20 ADD PUSH1 0x40 MLOAD DUP1 SWAP2 SUB SWAP1 KECCAK256 SWAP1 DUP2 PUSH2 0x591 SWAP2 SWAP1 PUSH2 0x49F3 JUMP JUMPDEST POP PUSH1 0x40 MLOAD DUP1 PUSH1 0x40 ADD PUSH1 0x40 MSTORE DUP1 PUSH1 0x2 DUP2 MSTORE PUSH1 0x20 ADD PUSH32 0x4259000000000000000000000000000000000000000000000000000000000000 DUP2 MSTORE POP PUSH0 PUSH1 0x40 MLOAD PUSH2 0x5D5 SWAP1 PUSH2 0x5030 JUMP JUMPDEST SWAP1 DUP2 MSTORE PUSH1 0x20 ADD PUSH1 0x40 MLOAD DUP1 SWAP2 SUB SWAP1 KECCAK256 SWAP1 DUP2 PUSH2 0x5EF SWAP2 SWAP1 PUSH2 0x49F3 JUMP JUMPDEST POP PUSH1 0x40 MLOAD DUP1 PUSH1 0x40 ADD PUSH1 0x40 MSTORE DUP1 PUSH1 0x2 DUP2 MSTORE PUSH1 0x20 ADD PUSH32 0x4245000000000000000000000000000000000000000000000000000000000000 DUP2 MSTORE POP PUSH0 PUSH1 0x40 MLOAD PUSH2 0x633 SWAP1 PUSH2 0x508E JUMP JUMPDEST SWAP1 DUP2 MSTORE PUSH1 0x20 ADD PUSH1 0x40 MLOAD DUP1 SWAP2 SUB SWAP1 KECCAK256 SWAP1 DUP2 PUSH2 0x64D SWAP2 SWAP1 PUSH2 0x49F3 JUMP JUMPDEST POP PUSH1 0x40 MLOAD DUP1 PUSH1 0x40 ADD PUSH1 0x40 MSTORE DUP1 PUSH1 0x2 DUP2 MSTORE PUSH1 0x20 ADD PUSH32 0x425A000000000000000000000000000000000000000000000000000000000000 DUP2 MSTORE POP PUSH0 PUSH1 0x40 MLOAD PUSH2 0x691 SWAP1 PUSH2 0x50EC JUMP JUMPDEST SWAP1 DUP2 MSTORE PUSH1 0x20 ADD PUSH1 0x40 MLOAD DUP1 SWAP2 SUB SWAP1 KECCAK256 SWAP1 DUP2 PUSH2 0x6AB SWAP2 SWAP1 PUSH2 0x49F3 JUMP JUMPDEST POP PUSH1 0x40 MLOAD DUP1 PUSH1 0x40 ADD PUSH1 0x40 MSTORE DUP1 PUSH1 0x2 DUP2 MSTORE PUSH1 0x20 ADD PUSH32 0x424A000000000000000000000000000000000000000000000000000000000000 DUP2 MSTORE POP PUSH0 PUSH1 0x40 MLOAD PUSH2 0x6EF SWAP1 PUSH2 0x514A JUMP JUMPDEST SWAP1 DUP2 MSTORE PUSH1 0x20 ADD PUSH1 0x40 MLOAD DUP1 SWAP2 SUB SWAP1 KECCAK256 SWAP1 DUP2 PUSH2 0x709 SWAP2 SWAP1 PUSH2 0x49F3 JUMP JUMPDEST POP PUSH1 0x40 MLOAD DUP1 PUSH1 0x40 ADD PUSH1 0x40 MSTORE DUP1 PUSH1 0x2 DUP2 MSTORE PUSH1 0x20 ADD PUSH32 0x4254000000000000000000000000000000000000000000000000000000000000 DUP2 MSTORE POP PUSH0 PUSH1 0x40 MLOAD PUSH2 0x74D SWAP1 PUSH2 0x51A8 JUMP JUMPDEST SWAP1 DUP2 MSTORE PUSH1 0x20 ADD PUSH1 0x40 MLOAD DUP1 SWAP2 SUB SWAP1 KECCAK256 SWAP1 DUP2 PUSH2 0x767 SWAP2 SWAP1 PUSH2 0x49F3 JUMP JUMPDEST POP PUSH1 0x40 MLOAD DUP1 PUSH1 0x40 ADD PUSH1 0x40 MSTORE DUP1 PUSH1 0x2 DUP2 MSTORE PUSH1 0x20 ADD PUSH32 0x424F000000000000000000000000000000000000000000000000000000000000 DUP2 MSTORE POP PUSH0 PUSH1 0x40 MLOAD PUSH2 0x7AB SWAP1 PUSH2 0x5206 JUMP JUMPDEST SWAP1 DUP2 MSTORE PUSH1 0x20 ADD PUSH1 0x40 MLOAD DUP1 SWAP2 SUB SWAP1 KECCAK256 SWAP1 DUP2 PUSH2 0x7C5 SWAP2 SWAP1 PUSH2 0x49F3 JUMP JUMPDEST POP PUSH1 0x40 MLOAD DUP1 PUSH1 0x40 ADD PUSH1 0x40 MSTORE DUP1 PUSH1 0x2 DUP2 MSTORE PUSH1 0x20 ADD PUSH32 0x4241000000000000000000000000000000000000000000000000000000000000 DUP2 MSTORE POP PUSH0 PUSH1 0x40 MLOAD PUSH2 0x809 SWAP1 PUSH2 0x5264 JUMP JUMPDEST SWAP1 DUP2 MSTORE PUSH1 0x20 ADD PUSH1 0x40 MLOAD DUP1 SWAP2 SUB SWAP1 KECCAK256 SWAP1 DUP2 PUSH2 0x823 SWAP2 SWAP1 PUSH2 0x49F3 JUMP JUMPDEST POP PUSH1 0x40 MLOAD DUP1 PUSH1 0x40 ADD PUSH1 0x40 MSTORE DUP1 PUSH1 0x2 DUP2 MSTORE PUSH1 0x20 ADD PUSH32 0x4257000000000000000000000000000000000000000000000000000000000000 DUP2 MSTORE POP PUSH0 PUSH1 0x40 MLOAD PUSH2 0x867 SWAP1 PUSH2 0x52C2 JUMP JUMPDEST SWAP1 DUP2 MSTORE PUSH1 0x20 ADD PUSH1 0x40 MLOAD DUP1 SWAP2 SUB SWAP1 KECCAK256 SWAP1 DUP2 PUSH2 0x881 SWAP2 SWAP1 PUSH2 0x49F3 JUMP JUMPDEST POP PUSH1 0x40 MLOAD DUP1 PUSH1 0x40 ADD PUSH1 0x40 MSTORE DUP1 PUSH1 0x2 DUP2 MSTORE PUSH1 0x20 ADD PUSH32 0x4252000000000000000000000000000000000000000000000000000000000000 DUP2 MSTORE POP PUSH0 PUSH1 0x40 MLOAD PUSH2 0x8C5 SWAP1 PUSH2 0x5320 JUMP JUMPDEST SWAP1 DUP2 MSTORE PUSH1 0x20 ADD PUSH1 0x40 MLOAD DUP1 SWAP2 SUB SWAP1 KECCAK256 SWAP1 DUP2 PUSH2 0x8DF SWAP2 SWAP1 PUSH2 0x49F3 JUMP JUMPDEST POP PUSH1 0x40 MLOAD DUP1 PUSH1 0x40 ADD PUSH1 0x40 MSTORE DUP1 PUSH1 0x2 DUP2 MSTORE PUSH1 0x20 ADD PUSH32 0x424E000000000000000000000000000000000000000000000000000000000000 DUP2 MSTORE POP PUSH0 PUSH1 0x40 MLOAD PUSH2 0x923 SWAP1 PUSH2 0x537E JUMP JUMPDEST SWAP1 DUP2 MSTORE PUSH1 0x20 ADD PUSH1 0x40 MLOAD DUP1 SWAP2 SUB SWAP1 KECCAK256 SWAP1 DUP2 PUSH2 0x93D SWAP2 SWAP1 PUSH2 0x49F3 JUMP JUMPDEST POP PUSH1 0x40 MLOAD DUP1 PUSH1 0x40 ADD PUSH1 0x40 MSTORE DUP1 PUSH1 0x2 DUP2 MSTORE PUSH1 0x20 ADD PUSH32 0x4247000000000000000000000000000000000000000000000000000000000000 DUP2 MSTORE POP PUSH0 PUSH1 0x40 MLOAD PUSH2 0x981 SWAP1 PUSH2 0x53DC JUMP JUMPDEST SWAP1 DUP2 MSTORE PUSH1 0x20 ADD PUSH1 0x40 MLOAD DUP1 SWAP2 SUB SWAP1 KECCAK256 SWAP1 DUP2 PUSH2 0x99B SWAP2 SWAP1 PUSH2 0x49F3 JUMP JUMPDEST POP PUSH1 0x40 MLOAD DUP1 PUSH1 0x40 ADD PUSH1 0x40 MSTORE DUP1 PUSH1 0x2 DUP2 MSTORE PUSH1 0x20 ADD PUSH32 0x4246000000000000000000000000000000000000000000000000000000000000 DUP2 MSTORE POP PUSH0 PUSH1 0x40 MLOAD PUSH2 0x9DF SWAP1 PUSH2 0x543A JUMP JUMPDEST SWAP1 DUP2 MSTORE PUSH1 0x20 ADD PUSH1 0x40 MLOAD DUP1 SWAP2 SUB SWAP1 KECCAK256 SWAP1 DUP2 PUSH2 0x9F9 SWAP2 SWAP1 PUSH2 0x49F3 JUMP JUMPDEST POP PUSH1 0x40 MLOAD DUP1 PUSH1 0x40 ADD PUSH1 0x40 MSTORE DUP1 PUSH1 0x2 DUP2 MSTORE PUSH1 0x20 ADD PUSH32 0x4249000000000000000000000000000000000000000000000000000000000000 DUP2 MSTORE POP PUSH0 PUSH1 0x40 MLOAD PUSH2 0xA3D SWAP1 PUSH2 0x5498 JUMP JUMPDEST SWAP1 DUP2 MSTORE PUSH1 0x20 ADD PUSH1 0x40 MLOAD DUP1 SWAP2 SUB SWAP1 KECCAK256 SWAP1 DUP2 PUSH2 0xA57 SWAP2 SWAP1 PUSH2 0x49F3 JUMP JUMPDEST POP PUSH1 0x40 MLOAD DUP1 PUSH1 0x40 ADD PUSH1 0x40 MSTORE DUP1 PUSH1 0x2 DUP2 MSTORE PUSH1 0x20 ADD PUSH32 0x4B48000000000000000000000000000000000000000000000000000000000000 DUP2 MSTORE POP PUSH0 PUSH1 0x40 MLOAD PUSH2 0xA9B SWAP1 PUSH2 0x54F6 JUMP JUMPDEST SWAP1 DUP2 MSTORE PUSH1 0x20 ADD PUSH1 0x40 MLOAD DUP1 SWAP2 SUB SWAP1 KECCAK256 SWAP1 DUP2 PUSH2 0xAB5 SWAP2 SWAP1 PUSH2 0x49F3 JUMP JUMPDEST POP PUSH1 0x40 MLOAD DUP1 PUSH1 0x40 ADD PUSH1 0x40 MSTORE DUP1 PUSH1 0x2 DUP2 MSTORE PUSH1 0x20 ADD PUSH32 0x434D000000000000000000000000000000000000000000000000000000000000 DUP2 MSTORE POP PUSH0 PUSH1 0x40 MLOAD PUSH2 0xAF9 SWAP1 PUSH2 0x5554 JUMP JUMPDEST SWAP1 DUP2 MSTORE PUSH1 0x20 ADD PUSH1 0x40 MLOAD DUP1 SWAP2 SUB SWAP1 KECCAK256 SWAP1 DUP2 PUSH2 0xB13 SWAP2 SWAP1 PUSH2 0x49F3 JUMP JUMPDEST POP PUSH1 0x40 MLOAD DUP1 PUSH1 0x40 ADD PUSH1 0x40 MSTORE DUP1 PUSH1 0x2 DUP2 MSTORE PUSH1 0x20 ADD PUSH32 0x4341000000000000000000000000000000000000000000000000000000000000 DUP2 MSTORE POP PUSH0 PUSH1 0x40 MLOAD PUSH2 0xB57 SWAP1 PUSH2 0x55B2 JUMP JUMPDEST SWAP1 DUP2 MSTORE PUSH1 0x20 ADD PUSH1 0x40 MLOAD DUP1 SWAP2 SUB SWAP1 KECCAK256 SWAP1 DUP2 PUSH2 0xB71 SWAP2 SWAP1 PUSH2 0x49F3 JUMP JUMPDEST POP PUSH1 0x40 MLOAD DUP1 PUSH1 0x40 ADD PUSH1 0x40 MSTORE DUP1 PUSH1 0x2 DUP2 MSTORE PUSH1 0x20 ADD PUSH32 0x4356000000000000000000000000000000000000000000000000000000000000 DUP2 MSTORE POP PUSH0 PUSH1 0x40 MLOAD PUSH2 0xBB5 SWAP1 PUSH2 0x5610 JUMP JUMPDEST SWAP1 DUP2 MSTORE PUSH1 0x20 ADD PUSH1 0x40 MLOAD DUP1 SWAP2 SUB SWAP1 KECCAK256 SWAP1 DUP2 PUSH2 0xBCF SWAP2 SWAP1 PUSH2 0x49F3 JUMP JUMPDEST POP PUSH1 0x40 MLOAD DUP1 PUSH1 0x40 ADD PUSH1 0x40 MSTORE DUP1 PUSH1 0x2 DUP2 MSTORE PUSH1 0x20 ADD PUSH32 0x4346000000000000000000000000000000000000000000000000000000000000 DUP2 MSTORE POP PUSH0 PUSH1 0x40 MLOAD PUSH2 0xC13 SWAP1 PUSH2 0x566E JUMP JUMPDEST SWAP1 DUP2 MSTORE PUSH1 0x20 ADD PUSH1 0x40 MLOAD DUP1 SWAP2 SUB SWAP1 KECCAK256 SWAP1 DUP2 PUSH2 0xC2D SWAP2 SWAP1 PUSH2 0x49F3 JUMP JUMPDEST POP PUSH1 0x40 MLOAD DUP1 PUSH1 0x40 ADD PUSH1 0x40 MSTORE DUP1 PUSH1 0x2 DUP2 MSTORE PUSH1 0x20 ADD PUSH32 0x5444000000000000000000000000000000000000000000000000000000000000 DUP2 MSTORE POP PUSH0 PUSH1 0x40 MLOAD PUSH2 0xC71 SWAP1 PUSH2 0x56CC JUMP JUMPDEST SWAP1 DUP2 MSTORE PUSH1 0x20 ADD PUSH1 0x40 MLOAD DUP1 SWAP2 SUB SWAP1 KECCAK256 SWAP1 DUP2 PUSH2 0xC8B SWAP2 SWAP1 PUSH2 0x49F3 JUMP JUMPDEST POP PUSH1 0x40 MLOAD DUP1 PUSH1 0x40 ADD PUSH1 0x40 MSTORE DUP1 PUSH1 0x2 DUP2 MSTORE PUSH1 0x20 ADD PUSH32 0x434C000000000000000000000000000000000000000000000000000000000000 DUP2 MSTORE POP PUSH0 PUSH1 0x40 MLOAD PUSH2 0xCCF SWAP1 PUSH2 0x572A JUMP JUMPDEST SWAP1 DUP2 MSTORE PUSH1 0x20 ADD PUSH1 0x40 MLOAD DUP1 SWAP2 SUB SWAP1 KECCAK256 SWAP1 DUP2 PUSH2 0xCE9 SWAP2 SWAP1 PUSH2 0x49F3 JUMP JUMPDEST POP PUSH1 0x40 MLOAD DUP1 PUSH1 0x40 ADD PUSH1 0x40 MSTORE DUP1 PUSH1 0x2 DUP2 MSTORE PUSH1 0x20 ADD PUSH32 0x434E000000000000000000000000000000000000000000000000000000000000 DUP2 MSTORE POP PUSH0 PUSH1 0x40 MLOAD PUSH2 0xD2D SWAP1 PUSH2 0x5788 JUMP JUMPDEST SWAP1 DUP2 MSTORE PUSH1 0x20 ADD PUSH1 0x40 MLOAD DUP1 SWAP2 SUB SWAP1 KECCAK256 SWAP1 DUP2 PUSH2 0xD47 SWAP2 SWAP1 PUSH2 0x49F3 JUMP JUMPDEST POP PUSH1 0x40 MLOAD DUP1 PUSH1 0x40 ADD PUSH1 0x40 MSTORE DUP1 PUSH1 0x2 DUP2 MSTORE PUSH1 0x20 ADD PUSH32 0x434F000000000000000000000000000000000000000000000000000000000000 DUP2 MSTORE POP PUSH0 PUSH1 0x40 MLOAD PUSH2 0xD8B SWAP1 PUSH2 0x57E6 JUMP JUMPDEST SWAP1 DUP2 MSTORE PUSH1 0x20 ADD PUSH1 0x40 MLOAD DUP1 SWAP2 SUB SWAP1 KECCAK256 SWAP1 DUP2 PUSH2 0xDA5 SWAP2 SWAP1 PUSH2 0x49F3 JUMP JUMPDEST POP PUSH1 0x40 MLOAD DUP1 PUSH1 0x40 ADD PUSH1 0x40 MSTORE DUP1 PUSH1 0x2 DUP2 MSTORE PUSH1 0x20 ADD PUSH32 0x4B4D000000000000000000000000000000000000000000000000000000000000 DUP2 MSTORE POP PUSH0 PUSH1 0x40 MLOAD PUSH2 0xDE9 SWAP1 PUSH2 0x5844 JUMP JUMPDEST SWAP1 DUP2 MSTORE PUSH1 0x20 ADD PUSH1 0x40 MLOAD DUP1 SWAP2 SUB SWAP1 KECCAK256 SWAP1 DUP2 PUSH2 0xE03 SWAP2 SWAP1 PUSH2 0x49F3 JUMP JUMPDEST POP PUSH1 0x40 MLOAD DUP1 PUSH1 0x40 ADD PUSH1 0x40 MSTORE DUP1 PUSH1 0x2 DUP2 MSTORE PUSH1 0x20 ADD PUSH32 0x4347000000000000000000000000000000000000000000000000000000000000 DUP2 MSTORE POP PUSH0 PUSH1 0x40 MLOAD PUSH2 0xE47 SWAP1 PUSH2 0x58A2 JUMP JUMPDEST SWAP1 DUP2 MSTORE PUSH1 0x20 ADD PUSH1 0x40 MLOAD DUP1 SWAP2 SUB SWAP1 KECCAK256 SWAP1 DUP2 PUSH2 0xE61 SWAP2 SWAP1 PUSH2 0x49F3 JUMP JUMPDEST POP PUSH1 0x40 MLOAD DUP1 PUSH1 0x40 ADD PUSH1 0x40 MSTORE DUP1 PUSH1 0x2 DUP2 MSTORE PUSH1 0x20 ADD PUSH32 0x4344000000000000000000000000000000000000000000000000000000000000 DUP2 MSTORE POP PUSH0 PUSH1 0x40 MLOAD PUSH2 0xEA5 SWAP1 PUSH2 0x5900 JUMP JUMPDEST SWAP1 DUP2 MSTORE PUSH1 0x20 ADD PUSH1 0x40 MLOAD DUP1 SWAP2 SUB SWAP1 KECCAK256 SWAP1 DUP2 PUSH2 0xEBF SWAP2 SWAP1 PUSH2 0x49F3 JUMP JUMPDEST POP PUSH1 0x40 MLOAD DUP1 PUSH1 0x40 ADD PUSH1 0x40 MSTORE DUP1 PUSH1 0x2 DUP2 MSTORE PUSH1 0x20 ADD PUSH32 0x4352000000000000000000000000000000000000000000000000000000000000 DUP2 MSTORE POP PUSH0 PUSH1 0x40 MLOAD PUSH2 0xF03 SWAP1 PUSH2 0x595E JUMP JUMPDEST SWAP1 DUP2 MSTORE PUSH1 0x20 ADD PUSH1 0x40 MLOAD DUP1 SWAP2 SUB SWAP1 KECCAK256 SWAP1 DUP2 PUSH2 0xF1D SWAP2 SWAP1 PUSH2 0x49F3 JUMP JUMPDEST POP PUSH1 0x40 MLOAD DUP1 PUSH1 0x40 ADD PUSH1 0x40 MSTORE DUP1 PUSH1 0x2 DUP2 MSTORE PUSH1 0x20 ADD PUSH32 0x4852000000000000000000000000000000000000000000000000000000000000 DUP2 MSTORE POP PUSH0 PUSH1 0x40 MLOAD PUSH2 0xF61 SWAP1 PUSH2 0x59BC JUMP JUMPDEST SWAP1 DUP2 MSTORE PUSH1 0x20 ADD PUSH1 0x40 MLOAD DUP1 SWAP2 SUB SWAP1 KECCAK256 SWAP1 DUP2 PUSH2 0xF7B SWAP2 SWAP1 PUSH2 0x49F3 JUMP JUMPDEST POP PUSH1 0x40 MLOAD DUP1 PUSH1 0x40 ADD PUSH1 0x40 MSTORE DUP1 PUSH1 0x2 DUP2 MSTORE PUSH1 0x20 ADD PUSH32 0x4355000000000000000000000000000000000000000000000000000000000000 DUP2 MSTORE POP PUSH0 PUSH1 0x40 MLOAD PUSH2 0xFBF SWAP1 PUSH2 0x5A1A JUMP JUMPDEST SWAP1 DUP2 MSTORE PUSH1 0x20 ADD PUSH1 0x40 MLOAD DUP1 SWAP2 SUB SWAP1 KECCAK256 SWAP1 DUP2 PUSH2 0xFD9 SWAP2 SWAP1 PUSH2 0x49F3 JUMP JUMPDEST POP PUSH1 0x40 MLOAD DUP1 PUSH1 0x40 ADD PUSH1 0x40 MSTORE DUP1 PUSH1 0x2 DUP2 MSTORE PUSH1 0x20 ADD PUSH32 0x4359000000000000000000000000000000000000000000000000000000000000 DUP2 MSTORE POP PUSH0 PUSH1 0x40 MLOAD PUSH2 0x101D SWAP1 PUSH2 0x5A78 JUMP JUMPDEST SWAP1 DUP2 MSTORE PUSH1 0x20 ADD PUSH1 0x40 MLOAD DUP1 SWAP2 SUB SWAP1 KECCAK256 SWAP1 DUP2 PUSH2 0x1037 SWAP2 SWAP1 PUSH2 0x49F3 JUMP JUMPDEST POP PUSH1 0x40 MLOAD DUP1 PUSH1 0x40 ADD PUSH1 0x40 MSTORE DUP1 PUSH1 0x2 DUP2 MSTORE PUSH1 0x20 ADD PUSH32 0x435A000000000000000000000000000000000000000000000000000000000000 DUP2 MSTORE POP PUSH0 PUSH1 0x40 MLOAD PUSH2 0x107B SWAP1 PUSH2 0x5AD6 JUMP JUMPDEST SWAP1 DUP2 MSTORE PUSH1 0x20 ADD PUSH1 0x40 MLOAD DUP1 SWAP2 SUB SWAP1 KECCAK256 SWAP1 DUP2 PUSH2 0x1095 SWAP2 SWAP1 PUSH2 0x49F3 JUMP JUMPDEST POP PUSH1 0x40 MLOAD DUP1 PUSH1 0x40 ADD PUSH1 0x40 MSTORE DUP1 PUSH1 0x2 DUP2 MSTORE PUSH1 0x20 ADD PUSH32 0x444B000000000000000000000000000000000000000000000000000000000000 DUP2 MSTORE POP PUSH0 PUSH1 0x40 MLOAD PUSH2 0x10D9 SWAP1 PUSH2 0x5B34 JUMP JUMPDEST SWAP1 DUP2 MSTORE PUSH1 0x20 ADD PUSH1 0x40 MLOAD DUP1 SWAP2 SUB SWAP1 KECCAK256 SWAP1 DUP2 PUSH2 0x10F3 SWAP2 SWAP1 PUSH2 0x49F3 JUMP JUMPDEST POP PUSH1 0x40 MLOAD DUP1 PUSH1 0x40 ADD PUSH1 0x40 MSTORE DUP1 PUSH1 0x2 DUP2 MSTORE PUSH1 0x20 ADD PUSH32 0x444A000000000000000000000000000000000000000000000000000000000000 DUP2 MSTORE POP PUSH0 PUSH1 0x40 MLOAD PUSH2 0x1137 SWAP1 PUSH2 0x5B92 JUMP JUMPDEST SWAP1 DUP2 MSTORE PUSH1 0x20 ADD PUSH1 0x40 MLOAD DUP1 SWAP2 SUB SWAP1 KECCAK256 SWAP1 DUP2 PUSH2 0x1151 SWAP2 SWAP1 PUSH2 0x49F3 JUMP JUMPDEST POP PUSH1 0x40 MLOAD DUP1 PUSH1 0x40 ADD PUSH1 0x40 MSTORE DUP1 PUSH1 0x2 DUP2 MSTORE PUSH1 0x20 ADD PUSH32 0x444D000000000000000000000000000000000000000000000000000000000000 DUP2 MSTORE POP PUSH0 PUSH1 0x40 MLOAD PUSH2 0x1195 SWAP1 PUSH2 0x5BF0 JUMP JUMPDEST SWAP1 DUP2 MSTORE PUSH1 0x20 ADD PUSH1 0x40 MLOAD DUP1 SWAP2 SUB SWAP1 KECCAK256 SWAP1 DUP2 PUSH2 0x11AF SWAP2 SWAP1 PUSH2 0x49F3 JUMP JUMPDEST POP PUSH1 0x40 MLOAD DUP1 PUSH1 0x40 ADD PUSH1 0x40 MSTORE DUP1 PUSH1 0x2 DUP2 MSTORE PUSH1 0x20 ADD PUSH32 0x444F000000000000000000000000000000000000000000000000000000000000 DUP2 MSTORE POP PUSH0 PUSH1 0x40 MLOAD PUSH2 0x11F3 SWAP1 PUSH2 0x5C4E JUMP JUMPDEST SWAP1 DUP2 MSTORE PUSH1 0x20 ADD PUSH1 0x40 MLOAD DUP1 SWAP2 SUB SWAP1 KECCAK256 SWAP1 DUP2 PUSH2 0x120D SWAP2 SWAP1 PUSH2 0x49F3 JUMP JUMPDEST POP PUSH1 0x40 MLOAD DUP1 PUSH1 0x40 ADD PUSH1 0x40 MSTORE DUP1 PUSH1 0x2 DUP2 MSTORE PUSH1 0x20 ADD PUSH32 0x4543000000000000000000000000000000000000000000000000000000000000 DUP2 MSTORE POP PUSH0 PUSH1 0x40 MLOAD PUSH2 0x1251 SWAP1 PUSH2 0x5CAC JUMP JUMPDEST SWAP1 DUP2 MSTORE PUSH1 0x20 ADD PUSH1 0x40 MLOAD DUP1 SWAP2 SUB SWAP1 KECCAK256 SWAP1 DUP2 PUSH2 0x126B SWAP2 SWAP1 PUSH2 0x49F3 JUMP JUMPDEST POP PUSH1 0x40 MLOAD DUP1 PUSH1 0x40 ADD PUSH1 0x40 MSTORE DUP1 PUSH1 0x2 DUP2 MSTORE PUSH1 0x20 ADD PUSH32 0x4547000000000000000000000000000000000000000000000000000000000000 DUP2 MSTORE POP PUSH0 PUSH1 0x40 MLOAD PUSH2 0x12AF SWAP1 PUSH2 0x5D0A JUMP JUMPDEST SWAP1 DUP2 MSTORE PUSH1 0x20 ADD PUSH1 0x40 MLOAD DUP1 SWAP2 SUB SWAP1 KECCAK256 SWAP1 DUP2 PUSH2 0x12C9 SWAP2 SWAP1 PUSH2 0x49F3 JUMP JUMPDEST POP PUSH1 0x40 MLOAD DUP1 PUSH1 0x40 ADD PUSH1 0x40 MSTORE DUP1 PUSH1 0x2 DUP2 MSTORE PUSH1 0x20 ADD PUSH32 0x5356000000000000000000000000000000000000000000000000000000000000 DUP2 MSTORE POP PUSH0 PUSH1 0x40 MLOAD PUSH2 0x130D SWAP1 PUSH2 0x5D68 JUMP JUMPDEST SWAP1 DUP2 MSTORE PUSH1 0x20 ADD PUSH1 0x40 MLOAD DUP1 SWAP2 SUB SWAP1 KECCAK256 SWAP1 DUP2 PUSH2 0x1327 SWAP2 SWAP1 PUSH2 0x49F3 JUMP JUMPDEST POP PUSH1 0x40 MLOAD DUP1 PUSH1 0x40 ADD PUSH1 0x40 MSTORE DUP1 PUSH1 0x2 DUP2 MSTORE PUSH1 0x20 ADD PUSH32 0x4751000000000000000000000000000000000000000000000000000000000000 DUP2 MSTORE POP PUSH0 PUSH1 0x40 MLOAD PUSH2 0x136B SWAP1 PUSH2 0x5DC6 JUMP JUMPDEST SWAP1 DUP2 MSTORE PUSH1 0x20 ADD PUSH1 0x40 MLOAD DUP1 SWAP2 SUB SWAP1 KECCAK256 SWAP1 DUP2 PUSH2 0x1385 SWAP2 SWAP1 PUSH2 0x49F3 JUMP JUMPDEST POP PUSH1 0x40 MLOAD DUP1 PUSH1 0x40 ADD PUSH1 0x40 MSTORE DUP1 PUSH1 0x2 DUP2 MSTORE PUSH1 0x20 ADD PUSH32 0x4552000000000000000000000000000000000000000000000000000000000000 DUP2 MSTORE POP PUSH0 PUSH1 0x40 MLOAD PUSH2 0x13C9 SWAP1 PUSH2 0x5E24 JUMP JUMPDEST SWAP1 DUP2 MSTORE PUSH1 0x20 ADD PUSH1 0x40 MLOAD DUP1 SWAP2 SUB SWAP1 KECCAK256 SWAP1 DUP2 PUSH2 0x13E3 SWAP2 SWAP1 PUSH2 0x49F3 JUMP JUMPDEST POP PUSH1 0x40 MLOAD DUP1 PUSH1 0x40 ADD PUSH1 0x40 MSTORE DUP1 PUSH1 0x2 DUP2 MSTORE PUSH1 0x20 ADD PUSH32 0x4545000000000000000000000000000000000000000000000000000000000000 DUP2 MSTORE POP PUSH0 PUSH1 0x40 MLOAD PUSH2 0x1427 SWAP1 PUSH2 0x5E82 JUMP JUMPDEST SWAP1 DUP2 MSTORE PUSH1 0x20 ADD PUSH1 0x40 MLOAD DUP1 SWAP2 SUB SWAP1 KECCAK256 SWAP1 DUP2 PUSH2 0x1441 SWAP2 SWAP1 PUSH2 0x49F3 JUMP JUMPDEST POP PUSH1 0x40 MLOAD DUP1 PUSH1 0x40 ADD PUSH1 0x40 MSTORE DUP1 PUSH1 0x2 DUP2 MSTORE PUSH1 0x20 ADD PUSH32 0x535A000000000000000000000000000000000000000000000000000000000000 DUP2 MSTORE POP PUSH0 PUSH1 0x40 MLOAD PUSH2 0x1485 SWAP1 PUSH2 0x5EE0 JUMP JUMPDEST SWAP1 DUP2 MSTORE PUSH1 0x20 ADD PUSH1 0x40 MLOAD DUP1 SWAP2 SUB SWAP1 KECCAK256 SWAP1 DUP2 PUSH2 0x149F SWAP2 SWAP1 PUSH2 0x49F3 JUMP JUMPDEST POP PUSH1 0x40 MLOAD DUP1 PUSH1 0x40 ADD PUSH1 0x40 MSTORE DUP1 PUSH1 0x2 DUP2 MSTORE PUSH1 0x20 ADD PUSH32 0x4554000000000000000000000000000000000000000000000000000000000000 DUP2 MSTORE POP PUSH0 PUSH1 0x40 MLOAD PUSH2 0x14E3 SWAP1 PUSH2 0x5F3E JUMP JUMPDEST SWAP1 DUP2 MSTORE PUSH1 0x20 ADD PUSH1 0x40 MLOAD DUP1 SWAP2 SUB SWAP1 KECCAK256 SWAP1 DUP2 PUSH2 0x14FD SWAP2 SWAP1 PUSH2 0x49F3 JUMP JUMPDEST POP PUSH1 0x40 MLOAD DUP1 PUSH1 0x40 ADD PUSH1 0x40 MSTORE DUP1 PUSH1 0x2 DUP2 MSTORE PUSH1 0x20 ADD PUSH32 0x464A000000000000000000000000000000000000000000000000000000000000 DUP2 MSTORE POP PUSH0 PUSH1 0x40 MLOAD PUSH2 0x1541 SWAP1 PUSH2 0x5F9C JUMP JUMPDEST SWAP1 DUP2 MSTORE PUSH1 0x20 ADD PUSH1 0x40 MLOAD DUP1 SWAP2 SUB SWAP1 KECCAK256 SWAP1 DUP2 PUSH2 0x155B SWAP2 SWAP1 PUSH2 0x49F3 JUMP JUMPDEST POP PUSH1 0x40 MLOAD DUP1 PUSH1 0x40 ADD PUSH1 0x40 MSTORE DUP1 PUSH1 0x2 DUP2 MSTORE PUSH1 0x20 ADD PUSH32 0x4649000000000000000000000000000000000000000000000000000000000000 DUP2 MSTORE POP PUSH0 PUSH1 0x40 MLOAD PUSH2 0x159F SWAP1 PUSH2 0x5FFA JUMP JUMPDEST SWAP1 DUP2 MSTORE PUSH1 0x20 ADD PUSH1 0x40 MLOAD DUP1 SWAP2 SUB SWAP1 KECCAK256 SWAP1 DUP2 PUSH2 0x15B9 SWAP2 SWAP1 PUSH2 0x49F3 JUMP JUMPDEST POP PUSH1 0x40 MLOAD DUP1 PUSH1 0x40 ADD PUSH1 0x40 MSTORE DUP1 PUSH1 0x2 DUP2 MSTORE PUSH1 0x20 ADD PUSH32 0x4652000000000000000000000000000000000000000000000000000000000000 DUP2 MSTORE POP PUSH0 PUSH1 0x40 MLOAD PUSH2 0x15FD SWAP1 PUSH2 0x6058 JUMP JUMPDEST SWAP1 DUP2 MSTORE PUSH1 0x20 ADD PUSH1 0x40 MLOAD DUP1 SWAP2 SUB SWAP1 KECCAK256 SWAP1 DUP2 PUSH2 0x1617 SWAP2 SWAP1 PUSH2 0x49F3 JUMP JUMPDEST POP PUSH1 0x40 MLOAD DUP1 PUSH1 0x40 ADD PUSH1 0x40 MSTORE DUP1 PUSH1 0x2 DUP2 MSTORE PUSH1 0x20 ADD PUSH32 0x4741000000000000000000000000000000000000000000000000000000000000 DUP2 MSTORE POP PUSH0 PUSH1 0x40 MLOAD PUSH2 0x165B SWAP1 PUSH2 0x60B6 JUMP JUMPDEST SWAP1 DUP2 MSTORE PUSH1 0x20 ADD PUSH1 0x40 MLOAD DUP1 SWAP2 SUB SWAP1 KECCAK256 SWAP1 DUP2 PUSH2 0x1675 SWAP2 SWAP1 PUSH2 0x49F3 JUMP JUMPDEST POP PUSH1 0x40 MLOAD DUP1 PUSH1 0x40 ADD PUSH1 0x40 MSTORE DUP1 PUSH1 0x2 DUP2 MSTORE PUSH1 0x20 ADD PUSH32 0x474D000000000000000000000000000000000000000000000000000000000000 DUP2 MSTORE POP PUSH0 PUSH1 0x40 MLOAD PUSH2 0x16B9 SWAP1 PUSH2 0x6114 JUMP JUMPDEST SWAP1 DUP2 MSTORE PUSH1 0x20 ADD PUSH1 0x40 MLOAD DUP1 SWAP2 SUB SWAP1 KECCAK256 SWAP1 DUP2 PUSH2 0x16D3 SWAP2 SWAP1 PUSH2 0x49F3 JUMP JUMPDEST POP PUSH1 0x40 MLOAD DUP1 PUSH1 0x40 ADD PUSH1 0x40 MSTORE DUP1 PUSH1 0x2 DUP2 MSTORE PUSH1 0x20 ADD PUSH32 0x4745000000000000000000000000000000000000000000000000000000000000 DUP2 MSTORE POP PUSH0 PUSH1 0x40 MLOAD PUSH2 0x1717 SWAP1 PUSH2 0x6172 JUMP JUMPDEST SWAP1 DUP2 MSTORE PUSH1 0x20 ADD PUSH1 0x40 MLOAD DUP1 SWAP2 SUB SWAP1 KECCAK256 SWAP1 DUP2 PUSH2 0x1731 SWAP2 SWAP1 PUSH2 0x49F3 JUMP JUMPDEST POP PUSH1 0x40 MLOAD DUP1 PUSH1 0x40 ADD PUSH1 0x40 MSTORE DUP1 PUSH1 0x2 DUP2 MSTORE PUSH1 0x20 ADD PUSH32 0x4445000000000000000000000000000000000000000000000000000000000000 DUP2 MSTORE POP PUSH0 PUSH1 0x40 MLOAD PUSH2 0x1775 SWAP1 PUSH2 0x61D0 JUMP JUMPDEST SWAP1 DUP2 MSTORE PUSH1 0x20 ADD PUSH1 0x40 MLOAD DUP1 SWAP2 SUB SWAP1 KECCAK256 SWAP1 DUP2 PUSH2 0x178F SWAP2 SWAP1 PUSH2 0x49F3 JUMP JUMPDEST POP PUSH1 0x40 MLOAD DUP1 PUSH1 0x40 ADD PUSH1 0x40 MSTORE DUP1 PUSH1 0x2 DUP2 MSTORE PUSH1 0x20 ADD PUSH32 0x4748000000000000000000000000000000000000000000000000000000000000 DUP2 MSTORE POP PUSH0 PUSH1 0x40 MLOAD PUSH2 0x17D3 SWAP1 PUSH2 0x622E JUMP JUMPDEST SWAP1 DUP2 MSTORE PUSH1 0x20 ADD PUSH1 0x40 MLOAD DUP1 SWAP2 SUB SWAP1 KECCAK256 SWAP1 DUP2 PUSH2 0x17ED SWAP2 SWAP1 PUSH2 0x49F3 JUMP JUMPDEST POP PUSH1 0x40 MLOAD DUP1 PUSH1 0x40 ADD PUSH1 0x40 MSTORE DUP1 PUSH1 0x2 DUP2 MSTORE PUSH1 0x20 ADD PUSH32 0x4752000000000000000000000000000000000000000000000000000000000000 DUP2 MSTORE POP PUSH0 PUSH1 0x40 MLOAD PUSH2 0x1831 SWAP1 PUSH2 0x628C JUMP JUMPDEST SWAP1 DUP2 MSTORE PUSH1 0x20 ADD PUSH1 0x40 MLOAD DUP1 SWAP2 SUB SWAP1 KECCAK256 SWAP1 DUP2 PUSH2 0x184B SWAP2 SWAP1 PUSH2 0x49F3 JUMP JUMPDEST POP PUSH1 0x40 MLOAD DUP1 PUSH1 0x40 ADD PUSH1 0x40 MSTORE DUP1 PUSH1 0x2 DUP2 MSTORE PUSH1 0x20 ADD PUSH32 0x4744000000000000000000000000000000000000000000000000000000000000 DUP2 MSTORE POP PUSH0 PUSH1 0x40 MLOAD PUSH2 0x188F SWAP1 PUSH2 0x62EA JUMP JUMPDEST SWAP1 DUP2 MSTORE PUSH1 0x20 ADD PUSH1 0x40 MLOAD DUP1 SWAP2 SUB SWAP1 KECCAK256 SWAP1 DUP2 PUSH2 0x18A9 SWAP2 SWAP1 PUSH2 0x49F3 JUMP JUMPDEST POP PUSH1 0x40 MLOAD DUP1 PUSH1 0x40 ADD PUSH1 0x40 MSTORE DUP1 PUSH1 0x2 DUP2 MSTORE PUSH1 0x20 ADD PUSH32 0x4754000000000000000000000000000000000000000000000000000000000000 DUP2 MSTORE POP PUSH0 PUSH1 0x40 MLOAD PUSH2 0x18ED SWAP1 PUSH2 0x6348 JUMP JUMPDEST SWAP1 DUP2 MSTORE PUSH1 0x20 ADD PUSH1 0x40 MLOAD DUP1 SWAP2 SUB SWAP1 KECCAK256 SWAP1 DUP2 PUSH2 0x1907 SWAP2 SWAP1 PUSH2 0x49F3 JUMP JUMPDEST POP PUSH1 0x40 MLOAD DUP1 PUSH1 0x40 ADD PUSH1 0x40 MSTORE DUP1 PUSH1 0x2 DUP2 MSTORE PUSH1 0x20 ADD PUSH32 0x474E000000000000000000000000000000000000000000000000000000000000 DUP2 MSTORE POP PUSH0 PUSH1 0x40 MLOAD PUSH2 0x194B SWAP1 PUSH2 0x63A6 JUMP JUMPDEST SWAP1 DUP2 MSTORE PUSH1 0x20 ADD PUSH1 0x40 MLOAD DUP1 SWAP2 SUB SWAP1 KECCAK256 SWAP1 DUP2 PUSH2 0x1965 SWAP2 SWAP1 PUSH2 0x49F3 JUMP JUMPDEST POP PUSH1 0x40 MLOAD DUP1 PUSH1 0x40 ADD PUSH1 0x40 MSTORE DUP1 PUSH1 0x2 DUP2 MSTORE PUSH1 0x20 ADD PUSH32 0x4757000000000000000000000000000000000000000000000000000000000000 DUP2 MSTORE POP PUSH0 PUSH1 0x40 MLOAD PUSH2 0x19A9 SWAP1 PUSH2 0x6404 JUMP JUMPDEST SWAP1 DUP2 MSTORE PUSH1 0x20 ADD PUSH1 0x40 MLOAD DUP1 SWAP2 SUB SWAP1 KECCAK256 SWAP1 DUP2 PUSH2 0x19C3 SWAP2 SWAP1 PUSH2 0x49F3 JUMP JUMPDEST POP PUSH1 0x40 MLOAD DUP1 PUSH1 0x40 ADD PUSH1 0x40 MSTORE DUP1 PUSH1 0x2 DUP2 MSTORE PUSH1 0x20 ADD PUSH32 0x4759000000000000000000000000000000000000000000000000000000000000 DUP2 MSTORE POP PUSH0 PUSH1 0x40 MLOAD PUSH2 0x1A07 SWAP1 PUSH2 0x6462 JUMP JUMPDEST SWAP1 DUP2 MSTORE PUSH1 0x20 ADD PUSH1 0x40 MLOAD DUP1 SWAP2 SUB SWAP1 KECCAK256 SWAP1 DUP2 PUSH2 0x1A21 SWAP2 SWAP1 PUSH2 0x49F3 JUMP JUMPDEST POP PUSH1 0x40 MLOAD DUP1 PUSH1 0x40 ADD PUSH1 0x40 MSTORE DUP1 PUSH1 0x2 DUP2 MSTORE PUSH1 0x20 ADD PUSH32 0x4854000000000000000000000000000000000000000000000000000000000000 DUP2 MSTORE POP PUSH0 PUSH1 0x40 MLOAD PUSH2 0x1A65 SWAP1 PUSH2 0x64C0 JUMP JUMPDEST SWAP1 DUP2 MSTORE PUSH1 0x20 ADD PUSH1 0x40 MLOAD DUP1 SWAP2 SUB SWAP1 KECCAK256 SWAP1 DUP2 PUSH2 0x1A7F SWAP2 SWAP1 PUSH2 0x49F3 JUMP JUMPDEST POP PUSH1 0x40 MLOAD DUP1 PUSH1 0x40 ADD PUSH1 0x40 MSTORE DUP1 PUSH1 0x2 DUP2 MSTORE PUSH1 0x20 ADD PUSH32 0x484E000000000000000000000000000000000000000000000000000000000000 DUP2 MSTORE POP PUSH0 PUSH1 0x40 MLOAD PUSH2 0x1AC3 SWAP1 PUSH2 0x651E JUMP JUMPDEST SWAP1 DUP2 MSTORE PUSH1 0x20 ADD PUSH1 0x40 MLOAD DUP1 SWAP2 SUB SWAP1 KECCAK256 SWAP1 DUP2 PUSH2 0x1ADD SWAP2 SWAP1 PUSH2 0x49F3 JUMP JUMPDEST POP PUSH1 0x40 MLOAD DUP1 PUSH1 0x40 ADD PUSH1 0x40 MSTORE DUP1 PUSH1 0x2 DUP2 MSTORE PUSH1 0x20 ADD PUSH32 0x4855000000000000000000000000000000000000000000000000000000000000 DUP2 MSTORE POP PUSH0 PUSH1 0x40 MLOAD PUSH2 0x1B21 SWAP1 PUSH2 0x657C JUMP JUMPDEST SWAP1 DUP2 MSTORE PUSH1 0x20 ADD PUSH1 0x40 MLOAD DUP1 SWAP2 SUB SWAP1 KECCAK256 SWAP1 DUP2 PUSH2 0x1B3B SWAP2 SWAP1 PUSH2 0x49F3 JUMP JUMPDEST POP PUSH1 0x40 MLOAD DUP1 PUSH1 0x40 ADD PUSH1 0x40 MSTORE DUP1 PUSH1 0x2 DUP2 MSTORE PUSH1 0x20 ADD PUSH32 0x4953000000000000000000000000000000000000000000000000000000000000 DUP2 MSTORE POP PUSH0 PUSH1 0x40 MLOAD PUSH2 0x1B7F SWAP1 PUSH2 0x65DA JUMP JUMPDEST SWAP1 DUP2 MSTORE PUSH1 0x20 ADD PUSH1 0x40 MLOAD DUP1 SWAP2 SUB SWAP1 KECCAK256 SWAP1 DUP2 PUSH2 0x1B99 SWAP2 SWAP1 PUSH2 0x49F3 JUMP JUMPDEST POP PUSH1 0x40 MLOAD DUP1 PUSH1 0x40 ADD PUSH1 0x40 MSTORE DUP1 PUSH1 0x2 DUP2 MSTORE PUSH1 0x20 ADD PUSH32 0x494E000000000000000000000000000000000000000000000000000000000000 DUP2 MSTORE POP PUSH0 PUSH1 0x40 MLOAD PUSH2 0x1BDD SWAP1 PUSH2 0x6638 JUMP JUMPDEST SWAP1 DUP2 MSTORE PUSH1 0x20 ADD PUSH1 0x40 MLOAD DUP1 SWAP2 SUB SWAP1 KECCAK256 SWAP1 DUP2 PUSH2 0x1BF7 SWAP2 SWAP1 PUSH2 0x49F3 JUMP JUMPDEST POP PUSH1 0x40 MLOAD DUP1 PUSH1 0x40 ADD PUSH1 0x40 MSTORE DUP1 PUSH1 0x2 DUP2 MSTORE PUSH1 0x20 ADD PUSH32 0x4944000000000000000000000000000000000000000000000000000000000000 DUP2 MSTORE POP PUSH0 PUSH1 0x40 MLOAD PUSH2 0x1C3B SWAP1 PUSH2 0x6696 JUMP JUMPDEST SWAP1 DUP2 MSTORE PUSH1 0x20 ADD PUSH1 0x40 MLOAD DUP1 SWAP2 SUB SWAP1 KECCAK256 SWAP1 DUP2 PUSH2 0x1C55 SWAP2 SWAP1 PUSH2 0x49F3 JUMP JUMPDEST POP PUSH1 0x40 MLOAD DUP1 PUSH1 0x40 ADD PUSH1 0x40 MSTORE DUP1 PUSH1 0x2 DUP2 MSTORE PUSH1 0x20 ADD PUSH32 0x4952000000000000000000000000000000000000000000000000000000000000 DUP2 MSTORE POP PUSH0 PUSH1 0x40 MLOAD PUSH2 0x1C99 SWAP1 PUSH2 0x66F4 JUMP JUMPDEST SWAP1 DUP2 MSTORE PUSH1 0x20 ADD PUSH1 0x40 MLOAD DUP1 SWAP2 SUB SWAP1 KECCAK256 SWAP1 DUP2 PUSH2 0x1CB3 SWAP2 SWAP1 PUSH2 0x49F3 JUMP JUMPDEST POP PUSH1 0x40 MLOAD DUP1 PUSH1 0x40 ADD PUSH1 0x40 MSTORE DUP1 PUSH1 0x2 DUP2 MSTORE PUSH1 0x20 ADD PUSH32 0x4951000000000000000000000000000000000000000000000000000000000000 DUP2 MSTORE POP PUSH0 PUSH1 0x40 MLOAD PUSH2 0x1CF7 SWAP1 PUSH2 0x6752 JUMP JUMPDEST SWAP1 DUP2 MSTORE PUSH1 0x20 ADD PUSH1 0x40 MLOAD DUP1 SWAP2 SUB SWAP1 KECCAK256 SWAP1 DUP2 PUSH2 0x1D11 SWAP2 SWAP1 PUSH2 0x49F3 JUMP JUMPDEST POP PUSH1 0x40 MLOAD DUP1 PUSH1 0x40 ADD PUSH1 0x40 MSTORE DUP1 PUSH1 0x2 DUP2 MSTORE PUSH1 0x20 ADD PUSH32 0x4945000000000000000000000000000000000000000000000000000000000000 DUP2 MSTORE POP PUSH0 PUSH1 0x40 MLOAD PUSH2 0x1D55 SWAP1 PUSH2 0x67B0 JUMP JUMPDEST SWAP1 DUP2 MSTORE PUSH1 0x20 ADD PUSH1 0x40 MLOAD DUP1 SWAP2 SUB SWAP1 KECCAK256 SWAP1 DUP2 PUSH2 0x1D6F SWAP2 SWAP1 PUSH2 0x49F3 JUMP JUMPDEST POP PUSH1 0x40 MLOAD DUP1 PUSH1 0x40 ADD PUSH1 0x40 MSTORE DUP1 PUSH1 0x2 DUP2 MSTORE PUSH1 0x20 ADD PUSH32 0x494C000000000000000000000000000000000000000000000000000000000000 DUP2 MSTORE POP PUSH0 PUSH1 0x40 MLOAD PUSH2 0x1DB3 SWAP1 PUSH2 0x680E JUMP JUMPDEST SWAP1 DUP2 MSTORE PUSH1 0x20 ADD PUSH1 0x40 MLOAD DUP1 SWAP2 SUB SWAP1 KECCAK256 SWAP1 DUP2 PUSH2 0x1DCD SWAP2 SWAP1 PUSH2 0x49F3 JUMP JUMPDEST POP PUSH1 0x40 MLOAD DUP1 PUSH1 0x40 ADD PUSH1 0x40 MSTORE DUP1 PUSH1 0x2 DUP2 MSTORE PUSH1 0x20 ADD PUSH32 0x4954000000000000000000000000000000000000000000000000000000000000 DUP2 MSTORE POP PUSH0 PUSH1 0x40 MLOAD PUSH2 0x1E11 SWAP1 PUSH2 0x686C JUMP JUMPDEST SWAP1 DUP2 MSTORE PUSH1 0x20 ADD PUSH1 0x40 MLOAD DUP1 SWAP2 SUB SWAP1 KECCAK256 SWAP1 DUP2 PUSH2 0x1E2B SWAP2 SWAP1 PUSH2 0x49F3 JUMP JUMPDEST POP PUSH1 0x40 MLOAD DUP1 PUSH1 0x40 ADD PUSH1 0x40 MSTORE DUP1 PUSH1 0x2 DUP2 MSTORE PUSH1 0x20 ADD PUSH32 0x4A4D000000000000000000000000000000000000000000000000000000000000 DUP2 MSTORE POP PUSH0 PUSH1 0x40 MLOAD PUSH2 0x1E6F SWAP1 PUSH2 0x68CA JUMP JUMPDEST SWAP1 DUP2 MSTORE PUSH1 0x20 ADD PUSH1 0x40 MLOAD DUP1 SWAP2 SUB SWAP1 KECCAK256 SWAP1 DUP2 PUSH2 0x1E89 SWAP2 SWAP1 PUSH2 0x49F3 JUMP JUMPDEST POP PUSH1 0x40 MLOAD DUP1 PUSH1 0x40 ADD PUSH1 0x40 MSTORE DUP1 PUSH1 0x2 DUP2 MSTORE PUSH1 0x20 ADD PUSH32 0x4A50000000000000000000000000000000000000000000000000000000000000 DUP2 MSTORE POP PUSH0 PUSH1 0x40 MLOAD PUSH2 0x1ECD SWAP1 PUSH2 0x6928 JUMP JUMPDEST SWAP1 DUP2 MSTORE PUSH1 0x20 ADD PUSH1 0x40 MLOAD DUP1 SWAP2 SUB SWAP1 KECCAK256 SWAP1 DUP2 PUSH2 0x1EE7 SWAP2 SWAP1 PUSH2 0x49F3 JUMP JUMPDEST POP PUSH1 0x40 MLOAD DUP1 PUSH1 0x40 ADD PUSH1 0x40 MSTORE DUP1 PUSH1 0x2 DUP2 MSTORE PUSH1 0x20 ADD PUSH32 0x4A4F000000000000000000000000000000000000000000000000000000000000 DUP2 MSTORE POP PUSH0 PUSH1 0x40 MLOAD PUSH2 0x1F2B SWAP1 PUSH2 0x6986 JUMP JUMPDEST SWAP1 DUP2 MSTORE PUSH1 0x20 ADD PUSH1 0x40 MLOAD DUP1 SWAP2 SUB SWAP1 KECCAK256 SWAP1 DUP2 PUSH2 0x1F45 SWAP2 SWAP1 PUSH2 0x49F3 JUMP JUMPDEST POP PUSH1 0x40 MLOAD DUP1 PUSH1 0x40 ADD PUSH1 0x40 MSTORE DUP1 PUSH1 0x2 DUP2 MSTORE PUSH1 0x20 ADD PUSH32 0x4B5A000000000000000000000000000000000000000000000000000000000000 DUP2 MSTORE POP PUSH0 PUSH1 0x40 MLOAD PUSH2 0x1F89 SWAP1 PUSH2 0x69E4 JUMP JUMPDEST SWAP1 DUP2 MSTORE PUSH1 0x20 ADD PUSH1 0x40 MLOAD DUP1 SWAP2 SUB SWAP1 KECCAK256 SWAP1 DUP2 PUSH2 0x1FA3 SWAP2 SWAP1 PUSH2 0x49F3 JUMP JUMPDEST POP PUSH1 0x40 MLOAD DUP1 PUSH1 0x40 ADD PUSH1 0x40 MSTORE DUP1 PUSH1 0x2 DUP2 MSTORE PUSH1 0x20 ADD PUSH32 0x4B45000000000000000000000000000000000000000000000000000000000000 DUP2 MSTORE POP PUSH0 PUSH1 0x40 MLOAD PUSH2 0x1FE7 SWAP1 PUSH2 0x6A42 JUMP JUMPDEST SWAP1 DUP2 MSTORE PUSH1 0x20 ADD PUSH1 0x40 MLOAD DUP1 SWAP2 SUB SWAP1 KECCAK256 SWAP1 DUP2 PUSH2 0x2001 SWAP2 SWAP1 PUSH2 0x49F3 JUMP JUMPDEST POP PUSH1 0x40 MLOAD DUP1 PUSH1 0x40 ADD PUSH1 0x40 MSTORE DUP1 PUSH1 0x2 DUP2 MSTORE PUSH1 0x20 ADD PUSH32 0x4B49000000000000000000000000000000000000000000000000000000000000 DUP2 MSTORE POP PUSH0 PUSH1 0x40 MLOAD PUSH2 0x2045 SWAP1 PUSH2 0x6AA0 JUMP JUMPDEST SWAP1 DUP2 MSTORE PUSH1 0x20 ADD PUSH1 0x40 MLOAD DUP1 SWAP2 SUB SWAP1 KECCAK256 SWAP1 DUP2 PUSH2 0x205F SWAP2 SWAP1 PUSH2 0x49F3 JUMP JUMPDEST POP PUSH1 0x40 MLOAD DUP1 PUSH1 0x40 ADD PUSH1 0x40 MSTORE DUP1 PUSH1 0x2 DUP2 MSTORE PUSH1 0x20 ADD PUSH32 0x4B57000000000000000000000000000000000000000000000000000000000000 DUP2 MSTORE POP PUSH0 PUSH1 0x40 MLOAD PUSH2 0x20A3 SWAP1 PUSH2 0x6AFE JUMP JUMPDEST SWAP1 DUP2 MSTORE PUSH1 0x20 ADD PUSH1 0x40 MLOAD DUP1 SWAP2 SUB SWAP1 KECCAK256 SWAP1 DUP2 PUSH2 0x20BD SWAP2 SWAP1 PUSH2 0x49F3 JUMP JUMPDEST POP PUSH1 0x40 MLOAD DUP1 PUSH1 0x40 ADD PUSH1 0x40 MSTORE DUP1 PUSH1 0x2 DUP2 MSTORE PUSH1 0x20 ADD PUSH32 0x4B47000000000000000000000000000000000000000000000000000000000000 DUP2 MSTORE POP PUSH0 PUSH1 0x40 MLOAD PUSH2 0x2101 SWAP1 PUSH2 0x6B5C JUMP JUMPDEST SWAP1 DUP2 MSTORE PUSH1 0x20 ADD PUSH1 0x40 MLOAD DUP1 SWAP2 SUB SWAP1 KECCAK256 SWAP1 DUP2 PUSH2 0x211B SWAP2 SWAP1 PUSH2 0x49F3 JUMP JUMPDEST POP PUSH1 0x40 MLOAD DUP1 PUSH1 0x40 ADD PUSH1 0x40 MSTORE DUP1 PUSH1 0x2 DUP2 MSTORE PUSH1 0x20 ADD PUSH32 0x4C41000000000000000000000000000000000000000000000000000000000000 DUP2 MSTORE POP PUSH0 PUSH1 0x40 MLOAD PUSH2 0x215F SWAP1 PUSH2 0x6BBA JUMP JUMPDEST SWAP1 DUP2 MSTORE PUSH1 0x20 ADD PUSH1 0x40 MLOAD DUP1 SWAP2 SUB SWAP1 KECCAK256 SWAP1 DUP2 PUSH2 0x2179 SWAP2 SWAP1 PUSH2 0x49F3 JUMP JUMPDEST POP PUSH1 0x40 MLOAD DUP1 PUSH1 0x40 ADD PUSH1 0x40 MSTORE DUP1 PUSH1 0x2 DUP2 MSTORE PUSH1 0x20 ADD PUSH32 0x4C56000000000000000000000000000000000000000000000000000000000000 DUP2 MSTORE POP PUSH0 PUSH1 0x40 MLOAD PUSH2 0x21BD SWAP1 PUSH2 0x6C18 JUMP JUMPDEST SWAP1 DUP2 MSTORE PUSH1 0x20 ADD PUSH1 0x40 MLOAD DUP1 SWAP2 SUB SWAP1 KECCAK256 SWAP1 DUP2 PUSH2 0x21D7 SWAP2 SWAP1 PUSH2 0x49F3 JUMP JUMPDEST POP PUSH1 0x40 MLOAD DUP1 PUSH1 0x40 ADD PUSH1 0x40 MSTORE DUP1 PUSH1 0x2 DUP2 MSTORE PUSH1 0x20 ADD PUSH32 0x4C42000000000000000000000000000000000000000000000000000000000000 DUP2 MSTORE POP PUSH0 PUSH1 0x40 MLOAD PUSH2 0x221B SWAP1 PUSH2 0x6C76 JUMP JUMPDEST SWAP1 DUP2 MSTORE PUSH1 0x20 ADD PUSH1 0x40 MLOAD DUP1 SWAP2 SUB SWAP1 KECCAK256 SWAP1 DUP2 PUSH2 0x2235 SWAP2 SWAP1 PUSH2 0x49F3 JUMP JUMPDEST POP PUSH1 0x40 MLOAD DUP1 PUSH1 0x40 ADD PUSH1 0x40 MSTORE DUP1 PUSH1 0x2 DUP2 MSTORE PUSH1 0x20 ADD PUSH32 0x4C53000000000000000000000000000000000000000000000000000000000000 DUP2 MSTORE POP PUSH0 PUSH1 0x40 MLOAD PUSH2 0x2279 SWAP1 PUSH2 0x6CD4 JUMP JUMPDEST SWAP1 DUP2 MSTORE PUSH1 0x20 ADD PUSH1 0x40 MLOAD DUP1 SWAP2 SUB SWAP1 KECCAK256 SWAP1 DUP2 PUSH2 0x2293 SWAP2 SWAP1 PUSH2 0x49F3 JUMP JUMPDEST POP PUSH1 0x40 MLOAD DUP1 PUSH1 0x40 ADD PUSH1 0x40 MSTORE DUP1 PUSH1 0x2 DUP2 MSTORE PUSH1 0x20 ADD PUSH32 0x4C52000000000000000000000000000000000000000000000000000000000000 DUP2 MSTORE POP PUSH0 PUSH1 0x40 MLOAD PUSH2 0x22D7 SWAP1 PUSH2 0x6D32 JUMP JUMPDEST SWAP1 DUP2 MSTORE PUSH1 0x20 ADD PUSH1 0x40 MLOAD DUP1 SWAP2 SUB SWAP1 KECCAK256 SWAP1 DUP2 PUSH2 0x22F1 SWAP2 SWAP1 PUSH2 0x49F3 JUMP JUMPDEST POP PUSH1 0x40 MLOAD DUP1 PUSH1 0x40 ADD PUSH1 0x40 MSTORE DUP1 PUSH1 0x2 DUP2 MSTORE PUSH1 0x20 ADD PUSH32 0x4C59000000000000000000000000000000000000000000000000000000000000 DUP2 MSTORE POP PUSH0 PUSH1 0x40 MLOAD PUSH2 0x2335 SWAP1 PUSH2 0x6D90 JUMP JUMPDEST SWAP1 DUP2 MSTORE PUSH1 0x20 ADD PUSH1 0x40 MLOAD DUP1 SWAP2 SUB SWAP1 KECCAK256 SWAP1 DUP2 PUSH2 0x234F SWAP2 SWAP1 PUSH2 0x49F3 JUMP JUMPDEST POP PUSH1 0x40 MLOAD DUP1 PUSH1 0x40 ADD PUSH1 0x40 MSTORE DUP1 PUSH1 0x2 DUP2 MSTORE PUSH1 0x20 ADD PUSH32 0x4C49000000000000000000000000000000000000000000000000000000000000 DUP2 MSTORE POP PUSH0 PUSH1 0x40 MLOAD PUSH2 0x2393 SWAP1 PUSH2 0x6DEE JUMP JUMPDEST SWAP1 DUP2 MSTORE PUSH1 0x20 ADD PUSH1 0x40 MLOAD DUP1 SWAP2 SUB SWAP1 KECCAK256 SWAP1 DUP2 PUSH2 0x23AD SWAP2 SWAP1 PUSH2 0x49F3 JUMP JUMPDEST POP PUSH1 0x40 MLOAD DUP1 PUSH1 0x40 ADD PUSH1 0x40 MSTORE DUP1 PUSH1 0x2 DUP2 MSTORE PUSH1 0x20 ADD PUSH32 0x4C54000000000000000000000000000000000000000000000000000000000000 DUP2 MSTORE POP PUSH0 PUSH1 0x40 MLOAD PUSH2 0x23F1 SWAP1 PUSH2 0x6E4C JUMP JUMPDEST SWAP1 DUP2 MSTORE PUSH1 0x20 ADD PUSH1 0x40 MLOAD DUP1 SWAP2 SUB SWAP1 KECCAK256 SWAP1 DUP2 PUSH2 0x240B SWAP2 SWAP1 PUSH2 0x49F3 JUMP JUMPDEST POP PUSH1 0x40 MLOAD DUP1 PUSH1 0x40 ADD PUSH1 0x40 MSTORE DUP1 PUSH1 0x2 DUP2 MSTORE PUSH1 0x20 ADD PUSH32 0x4C55000000000000000000000000000000000000000000000000000000000000 DUP2 MSTORE POP PUSH0 PUSH1 0x40 MLOAD PUSH2 0x244F SWAP1 PUSH2 0x6EAA JUMP JUMPDEST SWAP1 DUP2 MSTORE PUSH1 0x20 ADD PUSH1 0x40 MLOAD DUP1 SWAP2 SUB SWAP1 KECCAK256 SWAP1 DUP2 PUSH2 0x2469 SWAP2 SWAP1 PUSH2 0x49F3 JUMP JUMPDEST POP PUSH1 0x40 MLOAD DUP1 PUSH1 0x40 ADD PUSH1 0x40 MSTORE DUP1 PUSH1 0x2 DUP2 MSTORE PUSH1 0x20 ADD PUSH32 0x4D47000000000000000000000000000000000000000000000000000000000000 DUP2 MSTORE POP PUSH0 PUSH1 0x40 MLOAD PUSH2 0x24AD SWAP1 PUSH2 0x6F08 JUMP JUMPDEST SWAP1 DUP2 MSTORE PUSH1 0x20 ADD PUSH1 0x40 MLOAD DUP1 SWAP2 SUB SWAP1 KECCAK256 SWAP1 DUP2 PUSH2 0x24C7 SWAP2 SWAP1 PUSH2 0x49F3 JUMP JUMPDEST POP PUSH1 0x40 MLOAD DUP1 PUSH1 0x40 ADD PUSH1 0x40 MSTORE DUP1 PUSH1 0x2 DUP2 MSTORE PUSH1 0x20 ADD PUSH32 0x4D57000000000000000000000000000000000000000000000000000000000000 DUP2 MSTORE POP PUSH0 PUSH1 0x40 MLOAD PUSH2 0x250B SWAP1 PUSH2 0x6F66 JUMP JUMPDEST SWAP1 DUP2 MSTORE PUSH1 0x20 ADD PUSH1 0x40 MLOAD DUP1 SWAP2 SUB SWAP1 KECCAK256 SWAP1 DUP2 PUSH2 0x2525 SWAP2 SWAP1 PUSH2 0x49F3 JUMP JUMPDEST POP PUSH1 0x40 MLOAD DUP1 PUSH1 0x40 ADD PUSH1 0x40 MSTORE DUP1 PUSH1 0x2 DUP2 MSTORE PUSH1 0x20 ADD PUSH32 0x4D59000000000000000000000000000000000000000000000000000000000000 DUP2 MSTORE POP PUSH0 PUSH1 0x40 MLOAD PUSH2 0x2569 SWAP1 PUSH2 0x6FC4 JUMP JUMPDEST SWAP1 DUP2 MSTORE PUSH1 0x20 ADD PUSH1 0x40 MLOAD DUP1 SWAP2 SUB SWAP1 KECCAK256 SWAP1 DUP2 PUSH2 0x2583 SWAP2 SWAP1 PUSH2 0x49F3 JUMP JUMPDEST POP PUSH1 0x40 MLOAD DUP1 PUSH1 0x40 ADD PUSH1 0x40 MSTORE DUP1 PUSH1 0x2 DUP2 MSTORE PUSH1 0x20 ADD PUSH32 0x4D56000000000000000000000000000000000000000000000000000000000000 DUP2 MSTORE POP PUSH0 PUSH1 0x40 MLOAD PUSH2 0x25C7 SWAP1 PUSH2 0x7022 JUMP JUMPDEST SWAP1 DUP2 MSTORE PUSH1 0x20 ADD PUSH1 0x40 MLOAD DUP1 SWAP2 SUB SWAP1 KECCAK256 SWAP1 DUP2 PUSH2 0x25E1 SWAP2 SWAP1 PUSH2 0x49F3 JUMP JUMPDEST POP PUSH1 0x40 MLOAD DUP1 PUSH1 0x40 ADD PUSH1 0x40 MSTORE DUP1 PUSH1 0x2 DUP2 MSTORE PUSH1 0x20 ADD PUSH32 0x4D4C000000000000000000000000000000000000000000000000000000000000 DUP2 MSTORE POP PUSH0 PUSH1 0x40 MLOAD PUSH2 0x2625 SWAP1 PUSH2 0x7080 JUMP JUMPDEST SWAP1 DUP2 MSTORE PUSH1 0x20 ADD PUSH1 0x40 MLOAD DUP1 SWAP2 SUB SWAP1 KECCAK256 SWAP1 DUP2 PUSH2 0x263F SWAP2 SWAP1 PUSH2 0x49F3 JUMP JUMPDEST POP PUSH1 0x40 MLOAD DUP1 PUSH1 0x40 ADD PUSH1 0x40 MSTORE DUP1 PUSH1 0x2 DUP2 MSTORE PUSH1 0x20 ADD PUSH32 0x4D54000000000000000000000000000000000000000000000000000000000000 DUP2 MSTORE POP PUSH0 PUSH1 0x40 MLOAD PUSH2 0x2683 SWAP1 PUSH2 0x70DE JUMP JUMPDEST SWAP1 DUP2 MSTORE PUSH1 0x20 ADD PUSH1 0x40 MLOAD DUP1 SWAP2 SUB SWAP1 KECCAK256 SWAP1 DUP2 PUSH2 0x269D SWAP2 SWAP1 PUSH2 0x49F3 JUMP JUMPDEST POP PUSH1 0x40 MLOAD DUP1 PUSH1 0x40 ADD PUSH1 0x40 MSTORE DUP1 PUSH1 0x2 DUP2 MSTORE PUSH1 0x20 ADD PUSH32 0x4D48000000000000000000000000000000000000000000000000000000000000 DUP2 MSTORE POP PUSH0 PUSH1 0x40 MLOAD PUSH2 0x26E1 SWAP1 PUSH2 0x713C JUMP JUMPDEST SWAP1 DUP2 MSTORE PUSH1 0x20 ADD PUSH1 0x40 MLOAD DUP1 SWAP2 SUB SWAP1 KECCAK256 SWAP1 DUP2 PUSH2 0x26FB SWAP2 SWAP1 PUSH2 0x49F3 JUMP JUMPDEST POP PUSH1 0x40 MLOAD DUP1 PUSH1 0x40 ADD PUSH1 0x40 MSTORE DUP1 PUSH1 0x2 DUP2 MSTORE PUSH1 0x20 ADD PUSH32 0x4D52000000000000000000000000000000000000000000000000000000000000 DUP2 MSTORE POP PUSH0 PUSH1 0x40 MLOAD PUSH2 0x273F SWAP1 PUSH2 0x719A JUMP JUMPDEST SWAP1 DUP2 MSTORE PUSH1 0x20 ADD PUSH1 0x40 MLOAD DUP1 SWAP2 SUB SWAP1 KECCAK256 SWAP1 DUP2 PUSH2 0x2759 SWAP2 SWAP1 PUSH2 0x49F3 JUMP JUMPDEST POP PUSH1 0x40 MLOAD DUP1 PUSH1 0x40 ADD PUSH1 0x40 MSTORE DUP1 PUSH1 0x2 DUP2 MSTORE PUSH1 0x20 ADD PUSH32 0x4D55000000000000000000000000000000000000000000000000000000000000 DUP2 MSTORE POP PUSH0 PUSH1 0x40 MLOAD PUSH2 0x279D SWAP1 PUSH2 0x71F8 JUMP JUMPDEST SWAP1 DUP2 MSTORE PUSH1 0x20 ADD PUSH1 0x40 MLOAD DUP1 SWAP2 SUB SWAP1 KECCAK256 SWAP1 DUP2 PUSH2 0x27B7 SWAP2 SWAP1 PUSH2 0x49F3 JUMP JUMPDEST POP PUSH1 0x40 MLOAD DUP1 PUSH1 0x40 ADD PUSH1 0x40 MSTORE DUP1 PUSH1 0x2 DUP2 MSTORE PUSH1 0x20 ADD PUSH32 0x4D58000000000000000000000000000000000000000000000000000000000000 DUP2 MSTORE POP PUSH0 PUSH1 0x40 MLOAD PUSH2 0x27FB SWAP1 PUSH2 0x7256 JUMP JUMPDEST SWAP1 DUP2 MSTORE PUSH1 0x20 ADD PUSH1 0x40 MLOAD DUP1 SWAP2 SUB SWAP1 KECCAK256 SWAP1 DUP2 PUSH2 0x2815 SWAP2 SWAP1 PUSH2 0x49F3 JUMP JUMPDEST POP PUSH1 0x40 MLOAD DUP1 PUSH1 0x40 ADD PUSH1 0x40 MSTORE DUP1 PUSH1 0x2 DUP2 MSTORE PUSH1 0x20 ADD PUSH32 0x464D000000000000000000000000000000000000000000000000000000000000 DUP2 MSTORE POP PUSH0 PUSH1 0x40 MLOAD PUSH2 0x2859 SWAP1 PUSH2 0x72B4 JUMP JUMPDEST SWAP1 DUP2 MSTORE PUSH1 0x20 ADD PUSH1 0x40 MLOAD DUP1 SWAP2 SUB SWAP1 KECCAK256 SWAP1 DUP2 PUSH2 0x2873 SWAP2 SWAP1 PUSH2 0x49F3 JUMP JUMPDEST POP PUSH1 0x40 MLOAD DUP1 PUSH1 0x40 ADD PUSH1 0x40 MSTORE DUP1 PUSH1 0x2 DUP2 MSTORE PUSH1 0x20 ADD PUSH32 0x4D44000000000000000000000000000000000000000000000000000000000000 DUP2 MSTORE POP PUSH0 PUSH1 0x40 MLOAD PUSH2 0x28B7 SWAP1 PUSH2 0x7312 JUMP JUMPDEST SWAP1 DUP2 MSTORE PUSH1 0x20 ADD PUSH1 0x40 MLOAD DUP1 SWAP2 SUB SWAP1 KECCAK256 SWAP1 DUP2 PUSH2 0x28D1 SWAP2 SWAP1 PUSH2 0x49F3 JUMP JUMPDEST POP PUSH1 0x40 MLOAD DUP1 PUSH1 0x40 ADD PUSH1 0x40 MSTORE DUP1 PUSH1 0x2 DUP2 MSTORE PUSH1 0x20 ADD PUSH32 0x4D43000000000000000000000000000000000000000000000000000000000000 DUP2 MSTORE POP PUSH0 PUSH1 0x40 MLOAD PUSH2 0x2915 SWAP1 PUSH2 0x7370 JUMP JUMPDEST SWAP1 DUP2 MSTORE PUSH1 0x20 ADD PUSH1 0x40 MLOAD DUP1 SWAP2 SUB SWAP1 KECCAK256 SWAP1 DUP2 PUSH2 0x292F SWAP2 SWAP1 PUSH2 0x49F3 JUMP JUMPDEST POP PUSH1 0x40 MLOAD DUP1 PUSH1 0x40 ADD PUSH1 0x40 MSTORE DUP1 PUSH1 0x2 DUP2 MSTORE PUSH1 0x20 ADD PUSH32 0x4D4E000000000000000000000000000000000000000000000000000000000000 DUP2 MSTORE POP PUSH0 PUSH1 0x40 MLOAD PUSH2 0x2973 SWAP1 PUSH2 0x73CE JUMP JUMPDEST SWAP1 DUP2 MSTORE PUSH1 0x20 ADD PUSH1 0x40 MLOAD DUP1 SWAP2 SUB SWAP1 KECCAK256 SWAP1 DUP2 PUSH2 0x298D SWAP2 SWAP1 PUSH2 0x49F3 JUMP JUMPDEST POP PUSH1 0x40 MLOAD DUP1 PUSH1 0x40 ADD PUSH1 0x40 MSTORE DUP1 PUSH1 0x2 DUP2 MSTORE PUSH1 0x20 ADD PUSH32 0x4D45000000000000000000000000000000000000000000000000000000000000 DUP2 MSTORE POP PUSH0 PUSH1 0x40 MLOAD PUSH2 0x29D1 SWAP1 PUSH2 0x742C JUMP JUMPDEST SWAP1 DUP2 MSTORE PUSH1 0x20 ADD PUSH1 0x40 MLOAD DUP1 SWAP2 SUB SWAP1 KECCAK256 SWAP1 DUP2 PUSH2 0x29EB SWAP2 SWAP1 PUSH2 0x49F3 JUMP JUMPDEST POP PUSH1 0x40 MLOAD DUP1 PUSH1 0x40 ADD PUSH1 0x40 MSTORE DUP1 PUSH1 0x2 DUP2 MSTORE PUSH1 0x20 ADD PUSH32 0x4D41000000000000000000000000000000000000000000000000000000000000 DUP2 MSTORE POP PUSH0 PUSH1 0x40 MLOAD PUSH2 0x2A2F SWAP1 PUSH2 0x748A JUMP JUMPDEST SWAP1 DUP2 MSTORE PUSH1 0x20 ADD PUSH1 0x40 MLOAD DUP1 SWAP2 SUB SWAP1 KECCAK256 SWAP1 DUP2 PUSH2 0x2A49 SWAP2 SWAP1 PUSH2 0x49F3 JUMP JUMPDEST POP PUSH1 0x40 MLOAD DUP1 PUSH1 0x40 ADD PUSH1 0x40 MSTORE DUP1 PUSH1 0x2 DUP2 MSTORE PUSH1 0x20 ADD PUSH32 0x4D5A000000000000000000000000000000000000000000000000000000000000 DUP2 MSTORE POP PUSH0 PUSH1 0x40 MLOAD PUSH2 0x2A8D SWAP1 PUSH2 0x74E8 JUMP JUMPDEST SWAP1 DUP2 MSTORE PUSH1 0x20 ADD PUSH1 0x40 MLOAD DUP1 SWAP2 SUB SWAP1 KECCAK256 SWAP1 DUP2 PUSH2 0x2AA7 SWAP2 SWAP1 PUSH2 0x49F3 JUMP JUMPDEST POP PUSH1 0x40 MLOAD DUP1 PUSH1 0x40 ADD PUSH1 0x40 MSTORE DUP1 PUSH1 0x2 DUP2 MSTORE PUSH1 0x20 ADD PUSH32 0x4D4D000000000000000000000000000000000000000000000000000000000000 DUP2 MSTORE POP PUSH0 PUSH1 0x40 MLOAD PUSH2 0x2AEB SWAP1 PUSH2 0x7546 JUMP JUMPDEST SWAP1 DUP2 MSTORE PUSH1 0x20 ADD PUSH1 0x40 MLOAD DUP1 SWAP2 SUB SWAP1 KECCAK256 SWAP1 DUP2 PUSH2 0x2B05 SWAP2 SWAP1 PUSH2 0x49F3 JUMP JUMPDEST POP PUSH1 0x40 MLOAD DUP1 PUSH1 0x40 ADD PUSH1 0x40 MSTORE DUP1 PUSH1 0x2 DUP2 MSTORE PUSH1 0x20 ADD PUSH32 0x4E41000000000000000000000000000000000000000000000000000000000000 DUP2 MSTORE POP PUSH0 PUSH1 0x40 MLOAD PUSH2 0x2B49 SWAP1 PUSH2 0x75A4 JUMP JUMPDEST SWAP1 DUP2 MSTORE PUSH1 0x20 ADD PUSH1 0x40 MLOAD DUP1 SWAP2 SUB SWAP1 KECCAK256 SWAP1 DUP2 PUSH2 0x2B63 SWAP2 SWAP1 PUSH2 0x49F3 JUMP JUMPDEST POP PUSH1 0x40 MLOAD DUP1 PUSH1 0x40 ADD PUSH1 0x40 MSTORE DUP1 PUSH1 0x2 DUP2 MSTORE PUSH1 0x20 ADD PUSH32 0x4E52000000000000000000000000000000000000000000000000000000000000 DUP2 MSTORE POP PUSH0 PUSH1 0x40 MLOAD PUSH2 0x2BA7 SWAP1 PUSH2 0x7602 JUMP JUMPDEST SWAP1 DUP2 MSTORE PUSH1 0x20 ADD PUSH1 0x40 MLOAD DUP1 SWAP2 SUB SWAP1 KECCAK256 SWAP1 DUP2 PUSH2 0x2BC1 SWAP2 SWAP1 PUSH2 0x49F3 JUMP JUMPDEST POP PUSH1 0x40 MLOAD DUP1 PUSH1 0x40 ADD PUSH1 0x40 MSTORE DUP1 PUSH1 0x2 DUP2 MSTORE PUSH1 0x20 ADD PUSH32 0x4E50000000000000000000000000000000000000000000000000000000000000 DUP2 MSTORE POP PUSH0 PUSH1 0x40 MLOAD PUSH2 0x2C05 SWAP1 PUSH2 0x7660 JUMP JUMPDEST SWAP1 DUP2 MSTORE PUSH1 0x20 ADD PUSH1 0x40 MLOAD DUP1 SWAP2 SUB SWAP1 KECCAK256 SWAP1 DUP2 PUSH2 0x2C1F SWAP2 SWAP1 PUSH2 0x49F3 JUMP JUMPDEST POP PUSH1 0x40 MLOAD DUP1 PUSH1 0x40 ADD PUSH1 0x40 MSTORE DUP1 PUSH1 0x2 DUP2 MSTORE PUSH1 0x20 ADD PUSH32 0x4E4C000000000000000000000000000000000000000000000000000000000000 DUP2 MSTORE POP PUSH0 PUSH1 0x40 MLOAD PUSH2 0x2C63 SWAP1 PUSH2 0x76BE JUMP JUMPDEST SWAP1 DUP2 MSTORE PUSH1 0x20 ADD PUSH1 0x40 MLOAD DUP1 SWAP2 SUB SWAP1 KECCAK256 SWAP1 DUP2 PUSH2 0x2C7D SWAP2 SWAP1 PUSH2 0x49F3 JUMP JUMPDEST POP PUSH1 0x40 MLOAD DUP1 PUSH1 0x40 ADD PUSH1 0x40 MSTORE DUP1 PUSH1 0x2 DUP2 MSTORE PUSH1 0x20 ADD PUSH32 0x4E5A000000000000000000000000000000000000000000000000000000000000 DUP2 MSTORE POP PUSH0 PUSH1 0x40 MLOAD PUSH2 0x2CC1 SWAP1 PUSH2 0x771C JUMP JUMPDEST SWAP1 DUP2 MSTORE PUSH1 0x20 ADD PUSH1 0x40 MLOAD DUP1 SWAP2 SUB SWAP1 KECCAK256 SWAP1 DUP2 PUSH2 0x2CDB SWAP2 SWAP1 PUSH2 0x49F3 JUMP JUMPDEST POP PUSH1 0x40 MLOAD DUP1 PUSH1 0x40 ADD PUSH1 0x40 MSTORE DUP1 PUSH1 0x2 DUP2 MSTORE PUSH1 0x20 ADD PUSH32 0x4E49000000000000000000000000000000000000000000000000000000000000 DUP2 MSTORE POP PUSH0 PUSH1 0x40 MLOAD PUSH2 0x2D1F SWAP1 PUSH2 0x777A JUMP JUMPDEST SWAP1 DUP2 MSTORE PUSH1 0x20 ADD PUSH1 0x40 MLOAD DUP1 SWAP2 SUB SWAP1 KECCAK256 SWAP1 DUP2 PUSH2 0x2D39 SWAP2 SWAP1 PUSH2 0x49F3 JUMP JUMPDEST POP PUSH1 0x40 MLOAD DUP1 PUSH1 0x40 ADD PUSH1 0x40 MSTORE DUP1 PUSH1 0x2 DUP2 MSTORE PUSH1 0x20 ADD PUSH32 0x4E45000000000000000000000000000000000000000000000000000000000000 DUP2 MSTORE POP PUSH0 PUSH1 0x40 MLOAD PUSH2 0x2D7D SWAP1 PUSH2 0x77D8 JUMP JUMPDEST SWAP1 DUP2 MSTORE PUSH1 0x20 ADD PUSH1 0x40 MLOAD DUP1 SWAP2 SUB SWAP1 KECCAK256 SWAP1 DUP2 PUSH2 0x2D97 SWAP2 SWAP1 PUSH2 0x49F3 JUMP JUMPDEST POP PUSH1 0x40 MLOAD DUP1 PUSH1 0x40 ADD PUSH1 0x40 MSTORE DUP1 PUSH1 0x2 DUP2 MSTORE PUSH1 0x20 ADD PUSH32 0x4E47000000000000000000000000000000000000000000000000000000000000 DUP2 MSTORE POP PUSH0 PUSH1 0x40 MLOAD PUSH2 0x2DDB SWAP1 PUSH2 0x7836 JUMP JUMPDEST SWAP1 DUP2 MSTORE PUSH1 0x20 ADD PUSH1 0x40 MLOAD DUP1 SWAP2 SUB SWAP1 KECCAK256 SWAP1 DUP2 PUSH2 0x2DF5 SWAP2 SWAP1 PUSH2 0x49F3 JUMP JUMPDEST POP PUSH1 0x40 MLOAD DUP1 PUSH1 0x40 ADD PUSH1 0x40 MSTORE DUP1 PUSH1 0x2 DUP2 MSTORE PUSH1 0x20 ADD PUSH32 0x4B50000000000000000000000000000000000000000000000000000000000000 DUP2 MSTORE POP PUSH0 PUSH1 0x40 MLOAD PUSH2 0x2E39 SWAP1 PUSH2 0x7894 JUMP JUMPDEST SWAP1 DUP2 MSTORE PUSH1 0x20 ADD PUSH1 0x40 MLOAD DUP1 SWAP2 SUB SWAP1 KECCAK256 SWAP1 DUP2 PUSH2 0x2E53 SWAP2 SWAP1 PUSH2 0x49F3 JUMP JUMPDEST POP PUSH1 0x40 MLOAD DUP1 PUSH1 0x40 ADD PUSH1 0x40 MSTORE DUP1 PUSH1 0x2 DUP2 MSTORE PUSH1 0x20 ADD PUSH32 0x4D4B000000000000000000000000000000000000000000000000000000000000 DUP2 MSTORE POP PUSH0 PUSH1 0x40 MLOAD PUSH2 0x2E97 SWAP1 PUSH2 0x78F2 JUMP JUMPDEST SWAP1 DUP2 MSTORE PUSH1 0x20 ADD PUSH1 0x40 MLOAD DUP1 SWAP2 SUB SWAP1 KECCAK256 SWAP1 DUP2 PUSH2 0x2EB1 SWAP2 SWAP1 PUSH2 0x49F3 JUMP JUMPDEST POP PUSH1 0x40 MLOAD DUP1 PUSH1 0x40 ADD PUSH1 0x40 MSTORE DUP1 PUSH1 0x2 DUP2 MSTORE PUSH1 0x20 ADD PUSH32 0x4E4F000000000000000000000000000000000000000000000000000000000000 DUP2 MSTORE POP PUSH0 PUSH1 0x40 MLOAD PUSH2 0x2EF5 SWAP1 PUSH2 0x7950 JUMP JUMPDEST SWAP1 DUP2 MSTORE PUSH1 0x20 ADD PUSH1 0x40 MLOAD DUP1 SWAP2 SUB SWAP1 KECCAK256 SWAP1 DUP2 PUSH2 0x2F0F SWAP2 SWAP1 PUSH2 0x49F3 JUMP JUMPDEST POP PUSH1 0x40 MLOAD DUP1 PUSH1 0x40 ADD PUSH1 0x40 MSTORE DUP1 PUSH1 0x2 DUP2 MSTORE PUSH1 0x20 ADD PUSH32 0x4F4D000000000000000000000000000000000000000000000000000000000000 DUP2 MSTORE POP PUSH0 PUSH1 0x40 MLOAD PUSH2 0x2F53 SWAP1 PUSH2 0x79AE JUMP JUMPDEST SWAP1 DUP2 MSTORE PUSH1 0x20 ADD PUSH1 0x40 MLOAD DUP1 SWAP2 SUB SWAP1 KECCAK256 SWAP1 DUP2 PUSH2 0x2F6D SWAP2 SWAP1 PUSH2 0x49F3 JUMP JUMPDEST POP PUSH1 0x40 MLOAD DUP1 PUSH1 0x40 ADD PUSH1 0x40 MSTORE DUP1 PUSH1 0x2 DUP2 MSTORE PUSH1 0x20 ADD PUSH32 0x504B000000000000000000000000000000000000000000000000000000000000 DUP2 MSTORE POP PUSH0 PUSH1 0x40 MLOAD PUSH2 0x2FB1 SWAP1 PUSH2 0x7A0C JUMP JUMPDEST SWAP1 DUP2 MSTORE PUSH1 0x20 ADD PUSH1 0x40 MLOAD DUP1 SWAP2 SUB SWAP1 KECCAK256 SWAP1 DUP2 PUSH2 0x2FCB SWAP2 SWAP1 PUSH2 0x49F3 JUMP JUMPDEST POP PUSH1 0x40 MLOAD DUP1 PUSH1 0x40 ADD PUSH1 0x40 MSTORE DUP1 PUSH1 0x2 DUP2 MSTORE PUSH1 0x20 ADD PUSH32 0x5057000000000000000000000000000000000000000000000000000000000000 DUP2 MSTORE POP PUSH0 PUSH1 0x40 MLOAD PUSH2 0x300F SWAP1 PUSH2 0x7A6A JUMP JUMPDEST SWAP1 DUP2 MSTORE PUSH1 0x20 ADD PUSH1 0x40 MLOAD DUP1 SWAP2 SUB SWAP1 KECCAK256 SWAP1 DUP2 PUSH2 0x3029 SWAP2 SWAP1 PUSH2 0x49F3 JUMP JUMPDEST POP PUSH1 0x40 MLOAD DUP1 PUSH1 0x40 ADD PUSH1 0x40 MSTORE DUP1 PUSH1 0x2 DUP2 MSTORE PUSH1 0x20 ADD PUSH32 0x5041000000000000000000000000000000000000000000000000000000000000 DUP2 MSTORE POP PUSH0 PUSH1 0x40 MLOAD PUSH2 0x306D SWAP1 PUSH2 0x7AC8 JUMP JUMPDEST SWAP1 DUP2 MSTORE PUSH1 0x20 ADD PUSH1 0x40 MLOAD DUP1 SWAP2 SUB SWAP1 KECCAK256 SWAP1 DUP2 PUSH2 0x3087 SWAP2 SWAP1 PUSH2 0x49F3 JUMP JUMPDEST POP PUSH1 0x40 MLOAD DUP1 PUSH1 0x40 ADD PUSH1 0x40 MSTORE DUP1 PUSH1 0x2 DUP2 MSTORE PUSH1 0x20 ADD PUSH32 0x5047000000000000000000000000000000000000000000000000000000000000 DUP2 MSTORE POP PUSH0 PUSH1 0x40 MLOAD PUSH2 0x30CB SWAP1 PUSH2 0x7B26 JUMP JUMPDEST SWAP1 DUP2 MSTORE PUSH1 0x20 ADD PUSH1 0x40 MLOAD DUP1 SWAP2 SUB SWAP1 KECCAK256 SWAP1 DUP2 PUSH2 0x30E5 SWAP2 SWAP1 PUSH2 0x49F3 JUMP JUMPDEST POP PUSH1 0x40 MLOAD DUP1 PUSH1 0x40 ADD PUSH1 0x40 MSTORE DUP1 PUSH1 0x2 DUP2 MSTORE PUSH1 0x20 ADD PUSH32 0x5059000000000000000000000000000000000000000000000000000000000000 DUP2 MSTORE POP PUSH0 PUSH1 0x40 MLOAD PUSH2 0x3129 SWAP1 PUSH2 0x7B84 JUMP JUMPDEST SWAP1 DUP2 MSTORE PUSH1 0x20 ADD PUSH1 0x40 MLOAD DUP1 SWAP2 SUB SWAP1 KECCAK256 SWAP1 DUP2 PUSH2 0x3143 SWAP2 SWAP1 PUSH2 0x49F3 JUMP JUMPDEST POP PUSH1 0x40 MLOAD DUP1 PUSH1 0x40 ADD PUSH1 0x40 MSTORE DUP1 PUSH1 0x2 DUP2 MSTORE PUSH1 0x20 ADD PUSH32 0x5045000000000000000000000000000000000000000000000000000000000000 DUP2 MSTORE POP PUSH0 PUSH1 0x40 MLOAD PUSH2 0x3187 SWAP1 PUSH2 0x7BE2 JUMP JUMPDEST SWAP1 DUP2 MSTORE PUSH1 0x20 ADD PUSH1 0x40 MLOAD DUP1 SWAP2 SUB SWAP1 KECCAK256 SWAP1 DUP2 PUSH2 0x31A1 SWAP2 SWAP1 PUSH2 0x49F3 JUMP JUMPDEST POP PUSH1 0x40 MLOAD DUP1 PUSH1 0x40 ADD PUSH1 0x40 MSTORE DUP1 PUSH1 0x2 DUP2 MSTORE PUSH1 0x20 ADD PUSH32 0x5048000000000000000000000000000000000000000000000000000000000000 DUP2 MSTORE POP PUSH0 PUSH1 0x40 MLOAD PUSH2 0x31E5 SWAP1 PUSH2 0x7C40 JUMP JUMPDEST SWAP1 DUP2 MSTORE PUSH1 0x20 ADD PUSH1 0x40 MLOAD DUP1 SWAP2 SUB SWAP1 KECCAK256 SWAP1 DUP2 PUSH2 0x31FF SWAP2 SWAP1 PUSH2 0x49F3 JUMP JUMPDEST POP PUSH1 0x40 MLOAD DUP1 PUSH1 0x40 ADD PUSH1 0x40 MSTORE DUP1 PUSH1 0x2 DUP2 MSTORE PUSH1 0x20 ADD PUSH32 0x504C000000000000000000000000000000000000000000000000000000000000 DUP2 MSTORE POP PUSH0 PUSH1 0x40 MLOAD PUSH2 0x3243 SWAP1 PUSH2 0x7C9E JUMP JUMPDEST SWAP1 DUP2 MSTORE PUSH1 0x20 ADD PUSH1 0x40 MLOAD DUP1 SWAP2 SUB SWAP1 KECCAK256 SWAP1 DUP2 PUSH2 0x325D SWAP2 SWAP1 PUSH2 0x49F3 JUMP JUMPDEST POP PUSH1 0x40 MLOAD DUP1 PUSH1 0x40 ADD PUSH1 0x40 MSTORE DUP1 PUSH1 0x2 DUP2 MSTORE PUSH1 0x20 ADD PUSH32 0x5054000000000000000000000000000000000000000000000000000000000000 DUP2 MSTORE POP PUSH0 PUSH1 0x40 MLOAD PUSH2 0x32A1 SWAP1 PUSH2 0x7CFC JUMP JUMPDEST SWAP1 DUP2 MSTORE PUSH1 0x20 ADD PUSH1 0x40 MLOAD DUP1 SWAP2 SUB SWAP1 KECCAK256 SWAP1 DUP2 PUSH2 0x32BB SWAP2 SWAP1 PUSH2 0x49F3 JUMP JUMPDEST POP PUSH1 0x40 MLOAD DUP1 PUSH1 0x40 ADD PUSH1 0x40 MSTORE DUP1 PUSH1 0x2 DUP2 MSTORE PUSH1 0x20 ADD PUSH32 0x5141000000000000000000000000000000000000000000000000000000000000 DUP2 MSTORE POP PUSH0 PUSH1 0x40 MLOAD PUSH2 0x32FF SWAP1 PUSH2 0x7D5A JUMP JUMPDEST SWAP1 DUP2 MSTORE PUSH1 0x20 ADD PUSH1 0x40 MLOAD DUP1 SWAP2 SUB SWAP1 KECCAK256 SWAP1 DUP2 PUSH2 0x3319 SWAP2 SWAP1 PUSH2 0x49F3 JUMP JUMPDEST POP PUSH1 0x40 MLOAD DUP1 PUSH1 0x40 ADD PUSH1 0x40 MSTORE DUP1 PUSH1 0x2 DUP2 MSTORE PUSH1 0x20 ADD PUSH32 0x524F000000000000000000000000000000000000000000000000000000000000 DUP2 MSTORE POP PUSH0 PUSH1 0x40 MLOAD PUSH2 0x335D SWAP1 PUSH2 0x7DB8 JUMP JUMPDEST SWAP1 DUP2 MSTORE PUSH1 0x20 ADD PUSH1 0x40 MLOAD DUP1 SWAP2 SUB SWAP1 KECCAK256 SWAP1 DUP2 PUSH2 0x3377 SWAP2 SWAP1 PUSH2 0x49F3 JUMP JUMPDEST POP PUSH1 0x40 MLOAD DUP1 PUSH1 0x40 ADD PUSH1 0x40 MSTORE DUP1 PUSH1 0x2 DUP2 MSTORE PUSH1 0x20 ADD PUSH32 0x5255000000000000000000000000000000000000000000000000000000000000 DUP2 MSTORE POP PUSH0 PUSH1 0x40 MLOAD PUSH2 0x33BB SWAP1 PUSH2 0x7E16 JUMP JUMPDEST SWAP1 DUP2 MSTORE PUSH1 0x20 ADD PUSH1 0x40 MLOAD DUP1 SWAP2 SUB SWAP1 KECCAK256 SWAP1 DUP2 PUSH2 0x33D5 SWAP2 SWAP1 PUSH2 0x49F3 JUMP JUMPDEST POP PUSH1 0x40 MLOAD DUP1 PUSH1 0x40 ADD PUSH1 0x40 MSTORE DUP1 PUSH1 0x2 DUP2 MSTORE PUSH1 0x20 ADD PUSH32 0x5257000000000000000000000000000000000000000000000000000000000000 DUP2 MSTORE POP PUSH0 PUSH1 0x40 MLOAD PUSH2 0x3419 SWAP1 PUSH2 0x7E74 JUMP JUMPDEST SWAP1 DUP2 MSTORE PUSH1 0x20 ADD PUSH1 0x40 MLOAD DUP1 SWAP2 SUB SWAP1 KECCAK256 SWAP1 DUP2 PUSH2 0x3433 SWAP2 SWAP1 PUSH2 0x49F3 JUMP JUMPDEST POP PUSH1 0x40 MLOAD DUP1 PUSH1 0x40 ADD PUSH1 0x40 MSTORE DUP1 PUSH1 0x2 DUP2 MSTORE PUSH1 0x20 ADD PUSH32 0x4B4E000000000000000000000000000000000000000000000000000000000000 DUP2 MSTORE POP PUSH0 PUSH1 0x40 MLOAD PUSH2 0x3477 SWAP1 PUSH2 0x7ED2 JUMP JUMPDEST SWAP1 DUP2 MSTORE PUSH1 0x20 ADD PUSH1 0x40 MLOAD DUP1 SWAP2 SUB SWAP1 KECCAK256 SWAP1 DUP2 PUSH2 0x3491 SWAP2 SWAP1 PUSH2 0x49F3 JUMP JUMPDEST POP PUSH1 0x40 MLOAD DUP1 PUSH1 0x40 ADD PUSH1 0x40 MSTORE DUP1 PUSH1 0x2 DUP2 MSTORE PUSH1 0x20 ADD PUSH32 0x4C43000000000000000000000000000000000000000000000000000000000000 DUP2 MSTORE POP PUSH0 PUSH1 0x40 MLOAD PUSH2 0x34D5 SWAP1 PUSH2 0x7F30 JUMP JUMPDEST SWAP1 DUP2 MSTORE PUSH1 0x20 ADD PUSH1 0x40 MLOAD DUP1 SWAP2 SUB SWAP1 KECCAK256 SWAP1 DUP2 PUSH2 0x34EF SWAP2 SWAP1 PUSH2 0x49F3 JUMP JUMPDEST POP PUSH1 0x40 MLOAD DUP1 PUSH1 0x40 ADD PUSH1 0x40 MSTORE DUP1 PUSH1 0x2 DUP2 MSTORE PUSH1 0x20 ADD PUSH32 0x5643000000000000000000000000000000000000000000000000000000000000 DUP2 MSTORE POP PUSH0 PUSH1 0x40 MLOAD PUSH2 0x3533 SWAP1 PUSH2 0x7F8E JUMP JUMPDEST SWAP1 DUP2 MSTORE PUSH1 0x20 ADD PUSH1 0x40 MLOAD DUP1 SWAP2 SUB SWAP1 KECCAK256 SWAP1 DUP2 PUSH2 0x354D SWAP2 SWAP1 PUSH2 0x49F3 JUMP JUMPDEST POP PUSH1 0x40 MLOAD DUP1 PUSH1 0x40 ADD PUSH1 0x40 MSTORE DUP1 PUSH1 0x2 DUP2 MSTORE PUSH1 0x20 ADD PUSH32 0x5753000000000000000000000000000000000000000000000000000000000000 DUP2 MSTORE POP PUSH0 PUSH1 0x40 MLOAD PUSH2 0x3591 SWAP1 PUSH2 0x7FEC JUMP JUMPDEST SWAP1 DUP2 MSTORE PUSH1 0x20 ADD PUSH1 0x40 MLOAD DUP1 SWAP2 SUB SWAP1 KECCAK256 SWAP1 DUP2 PUSH2 0x35AB SWAP2 SWAP1 PUSH2 0x49F3 JUMP JUMPDEST POP PUSH1 0x40 MLOAD DUP1 PUSH1 0x40 ADD PUSH1 0x40 MSTORE DUP1 PUSH1 0x2 DUP2 MSTORE PUSH1 0x20 ADD PUSH32 0x534D000000000000000000000000000000000000000000000000000000000000 DUP2 MSTORE POP PUSH0 PUSH1 0x40 MLOAD PUSH2 0x35EF SWAP1 PUSH2 0x804A JUMP JUMPDEST SWAP1 DUP2 MSTORE PUSH1 0x20 ADD PUSH1 0x40 MLOAD DUP1 SWAP2 SUB SWAP1 KECCAK256 SWAP1 DUP2 PUSH2 0x3609 SWAP2 SWAP1 PUSH2 0x49F3 JUMP JUMPDEST POP PUSH1 0x40 MLOAD DUP1 PUSH1 0x40 ADD PUSH1 0x40 MSTORE DUP1 PUSH1 0x2 DUP2 MSTORE PUSH1 0x20 ADD PUSH32 0x5354000000000000000000000000000000000000000000000000000000000000 DUP2 MSTORE POP PUSH0 PUSH1 0x40 MLOAD PUSH2 0x364D SWAP1 PUSH2 0x80A8 JUMP JUMPDEST SWAP1 DUP2 MSTORE PUSH1 0x20 ADD PUSH1 0x40 MLOAD DUP1 SWAP2 SUB SWAP1 KECCAK256 SWAP1 DUP2 PUSH2 0x3667 SWAP2 SWAP1 PUSH2 0x49F3 JUMP JUMPDEST POP PUSH1 0x40 MLOAD DUP1 PUSH1 0x40 ADD PUSH1 0x40 MSTORE DUP1 PUSH1 0x2 DUP2 MSTORE PUSH1 0x20 ADD PUSH32 0x5341000000000000000000000000000000000000000000000000000000000000 DUP2 MSTORE POP PUSH0 PUSH1 0x40 MLOAD PUSH2 0x36AB SWAP1 PUSH2 0x8106 JUMP JUMPDEST SWAP1 DUP2 MSTORE PUSH1 0x20 ADD PUSH1 0x40 MLOAD DUP1 SWAP2 SUB SWAP1 KECCAK256 SWAP1 DUP2 PUSH2 0x36C5 SWAP2 SWAP1 PUSH2 0x49F3 JUMP JUMPDEST POP PUSH1 0x40 MLOAD DUP1 PUSH1 0x40 ADD PUSH1 0x40 MSTORE DUP1 PUSH1 0x2 DUP2 MSTORE PUSH1 0x20 ADD PUSH32 0x534E000000000000000000000000000000000000000000000000000000000000 DUP2 MSTORE POP PUSH0 PUSH1 0x40 MLOAD PUSH2 0x3709 SWAP1 PUSH2 0x8164 JUMP JUMPDEST SWAP1 DUP2 MSTORE PUSH1 0x20 ADD PUSH1 0x40 MLOAD DUP1 SWAP2 SUB SWAP1 KECCAK256 SWAP1 DUP2 PUSH2 0x3723 SWAP2 SWAP1 PUSH2 0x49F3 JUMP JUMPDEST POP PUSH1 0x40 MLOAD DUP1 PUSH1 0x40 ADD PUSH1 0x40 MSTORE DUP1 PUSH1 0x2 DUP2 MSTORE PUSH1 0x20 ADD PUSH32 0x5253000000000000000000000000000000000000000000000000000000000000 DUP2 MSTORE POP PUSH0 PUSH1 0x40 MLOAD PUSH2 0x3767 SWAP1 PUSH2 0x81C2 JUMP JUMPDEST SWAP1 DUP2 MSTORE PUSH1 0x20 ADD PUSH1 0x40 MLOAD DUP1 SWAP2 SUB SWAP1 KECCAK256 SWAP1 DUP2 PUSH2 0x3781 SWAP2 SWAP1 PUSH2 0x49F3 JUMP JUMPDEST POP PUSH1 0x40 MLOAD DUP1 PUSH1 0x40 ADD PUSH1 0x40 MSTORE DUP1 PUSH1 0x2 DUP2 MSTORE PUSH1 0x20 ADD PUSH32 0x5343000000000000000000000000000000000000000000000000000000000000 DUP2 MSTORE POP PUSH0 PUSH1 0x40 MLOAD PUSH2 0x37C5 SWAP1 PUSH2 0x8220 JUMP JUMPDEST SWAP1 DUP2 MSTORE PUSH1 0x20 ADD PUSH1 0x40 MLOAD DUP1 SWAP2 SUB SWAP1 KECCAK256 SWAP1 DUP2 PUSH2 0x37DF SWAP2 SWAP1 PUSH2 0x49F3 JUMP JUMPDEST POP PUSH1 0x40 MLOAD DUP1 PUSH1 0x40 ADD PUSH1 0x40 MSTORE DUP1 PUSH1 0x2 DUP2 MSTORE PUSH1 0x20 ADD PUSH32 0x534C000000000000000000000000000000000000000000000000000000000000 DUP2 MSTORE POP PUSH0 PUSH1 0x40 MLOAD PUSH2 0x3823 SWAP1 PUSH2 0x827E JUMP JUMPDEST SWAP1 DUP2 MSTORE PUSH1 0x20 ADD PUSH1 0x40 MLOAD DUP1 SWAP2 SUB SWAP1 KECCAK256 SWAP1 DUP2 PUSH2 0x383D SWAP2 SWAP1 PUSH2 0x49F3 JUMP JUMPDEST POP PUSH1 0x40 MLOAD DUP1 PUSH1 0x40 ADD PUSH1 0x40 MSTORE DUP1 PUSH1 0x2 DUP2 MSTORE PUSH1 0x20 ADD PUSH32 0x5347000000000000000000000000000000000000000000000000000000000000 DUP2 MSTORE POP PUSH0 PUSH1 0x40 MLOAD PUSH2 0x3881 SWAP1 PUSH2 0x82DC JUMP JUMPDEST SWAP1 DUP2 MSTORE PUSH1 0x20 ADD PUSH1 0x40 MLOAD DUP1 SWAP2 SUB SWAP1 KECCAK256 SWAP1 DUP2 PUSH2 0x389B SWAP2 SWAP1 PUSH2 0x49F3 JUMP JUMPDEST POP PUSH1 0x40 MLOAD DUP1 PUSH1 0x40 ADD PUSH1 0x40 MSTORE DUP1 PUSH1 0x2 DUP2 MSTORE PUSH1 0x20 ADD PUSH32 0x534B000000000000000000000000000000000000000000000000000000000000 DUP2 MSTORE POP PUSH0 PUSH1 0x40 MLOAD PUSH2 0x38DF SWAP1 PUSH2 0x833A JUMP JUMPDEST SWAP1 DUP2 MSTORE PUSH1 0x20 ADD PUSH1 0x40 MLOAD DUP1 SWAP2 SUB SWAP1 KECCAK256 SWAP1 DUP2 PUSH2 0x38F9 SWAP2 SWAP1 PUSH2 0x49F3 JUMP JUMPDEST POP PUSH1 0x40 MLOAD DUP1 PUSH1 0x40 ADD PUSH1 0x40 MSTORE DUP1 PUSH1 0x2 DUP2 MSTORE PUSH1 0x20 ADD PUSH32 0x5349000000000000000000000000000000000000000000000000000000000000 DUP2 MSTORE POP PUSH0 PUSH1 0x40 MLOAD PUSH2 0x393D SWAP1 PUSH2 0x8398 JUMP JUMPDEST SWAP1 DUP2 MSTORE PUSH1 0x20 ADD PUSH1 0x40 MLOAD DUP1 SWAP2 SUB SWAP1 KECCAK256 SWAP1 DUP2 PUSH2 0x3957 SWAP2 SWAP1 PUSH2 0x49F3 JUMP JUMPDEST POP PUSH1 0x40 MLOAD DUP1 PUSH1 0x40 ADD PUSH1 0x40 MSTORE DUP1 PUSH1 0x2 DUP2 MSTORE PUSH1 0x20 ADD PUSH32 0x5342000000000000000000000000000000000000000000000000000000000000 DUP2 MSTORE POP PUSH0 PUSH1 0x40 MLOAD PUSH2 0x399B SWAP1 PUSH2 0x83F6 JUMP JUMPDEST SWAP1 DUP2 MSTORE PUSH1 0x20 ADD PUSH1 0x40 MLOAD DUP1 SWAP2 SUB SWAP1 KECCAK256 SWAP1 DUP2 PUSH2 0x39B5 SWAP2 SWAP1 PUSH2 0x49F3 JUMP JUMPDEST POP PUSH1 0x40 MLOAD DUP1 PUSH1 0x40 ADD PUSH1 0x40 MSTORE DUP1 PUSH1 0x2 DUP2 MSTORE PUSH1 0x20 ADD PUSH32 0x534F000000000000000000000000000000000000000000000000000000000000 DUP2 MSTORE POP PUSH0 PUSH1 0x40 MLOAD PUSH2 0x39F9 SWAP1 PUSH2 0x8454 JUMP JUMPDEST SWAP1 DUP2 MSTORE PUSH1 0x20 ADD PUSH1 0x40 MLOAD DUP1 SWAP2 SUB SWAP1 KECCAK256 SWAP1 DUP2 PUSH2 0x3A13 SWAP2 SWAP1 PUSH2 0x49F3 JUMP JUMPDEST POP PUSH1 0x40 MLOAD DUP1 PUSH1 0x40 ADD PUSH1 0x40 MSTORE DUP1 PUSH1 0x2 DUP2 MSTORE PUSH1 0x20 ADD PUSH32 0x5A41000000000000000000000000000000000000000000000000000000000000 DUP2 MSTORE POP PUSH0 PUSH1 0x40 MLOAD PUSH2 0x3A57 SWAP1 PUSH2 0x84B2 JUMP JUMPDEST SWAP1 DUP2 MSTORE PUSH1 0x20 ADD PUSH1 0x40 MLOAD DUP1 SWAP2 SUB SWAP1 KECCAK256 SWAP1 DUP2 PUSH2 0x3A71 SWAP2 SWAP1 PUSH2 0x49F3 JUMP JUMPDEST POP PUSH1 0x40 MLOAD DUP1 PUSH1 0x40 ADD PUSH1 0x40 MSTORE DUP1 PUSH1 0x2 DUP2 MSTORE PUSH1 0x20 ADD PUSH32 0x4B52000000000000000000000000000000000000000000000000000000000000 DUP2 MSTORE POP PUSH0 PUSH1 0x40 MLOAD PUSH2 0x3AB5 SWAP1 PUSH2 0x8510 JUMP JUMPDEST SWAP1 DUP2 MSTORE PUSH1 0x20 ADD PUSH1 0x40 MLOAD DUP1 SWAP2 SUB SWAP1 KECCAK256 SWAP1 DUP2 PUSH2 0x3ACF SWAP2 SWAP1 PUSH2 0x49F3 JUMP JUMPDEST POP PUSH1 0x40 MLOAD DUP1 PUSH1 0x40 ADD PUSH1 0x40 MSTORE DUP1 PUSH1 0x2 DUP2 MSTORE PUSH1 0x20 ADD PUSH32 0x5353000000000000000000000000000000000000000000000000000000000000 DUP2 MSTORE POP PUSH0 PUSH1 0x40 MLOAD PUSH2 0x3B13 SWAP1 PUSH2 0x856E JUMP JUMPDEST SWAP1 DUP2 MSTORE PUSH1 0x20 ADD PUSH1 0x40 MLOAD DUP1 SWAP2 SUB SWAP1 KECCAK256 SWAP1 DUP2 PUSH2 0x3B2D SWAP2 SWAP1 PUSH2 0x49F3 JUMP JUMPDEST POP PUSH1 0x40 MLOAD DUP1 PUSH1 0x40 ADD PUSH1 0x40 MSTORE DUP1 PUSH1 0x2 DUP2 MSTORE PUSH1 0x20 ADD PUSH32 0x4553000000000000000000000000000000000000000000000000000000000000 DUP2 MSTORE POP PUSH0 PUSH1 0x40 MLOAD PUSH2 0x3B71 SWAP1 PUSH2 0x85CC JUMP JUMPDEST SWAP1 DUP2 MSTORE PUSH1 0x20 ADD PUSH1 0x40 MLOAD DUP1 SWAP2 SUB SWAP1 KECCAK256 SWAP1 DUP2 PUSH2 0x3B8B SWAP2 SWAP1 PUSH2 0x49F3 JUMP JUMPDEST POP PUSH1 0x40 MLOAD DUP1 PUSH1 0x40 ADD PUSH1 0x40 MSTORE DUP1 PUSH1 0x2 DUP2 MSTORE PUSH1 0x20 ADD PUSH32 0x4C4B000000000000000000000000000000000000000000000000000000000000 DUP2 MSTORE POP PUSH0 PUSH1 0x40 MLOAD PUSH2 0x3BCF SWAP1 PUSH2 0x862A JUMP JUMPDEST SWAP1 DUP2 MSTORE PUSH1 0x20 ADD PUSH1 0x40 MLOAD DUP1 SWAP2 SUB SWAP1 KECCAK256 SWAP1 DUP2 PUSH2 0x3BE9 SWAP2 SWAP1 PUSH2 0x49F3 JUMP JUMPDEST POP PUSH1 0x40 MLOAD DUP1 PUSH1 0x40 ADD PUSH1 0x40 MSTORE DUP1 PUSH1 0x2 DUP2 MSTORE PUSH1 0x20 ADD PUSH32 0x5344000000000000000000000000000000000000000000000000000000000000 DUP2 MSTORE POP PUSH0 PUSH1 0x40 MLOAD PUSH2 0x3C2D SWAP1 PUSH2 0x8688 JUMP JUMPDEST SWAP1 DUP2 MSTORE PUSH1 0x20 ADD PUSH1 0x40 MLOAD DUP1 SWAP2 SUB SWAP1 KECCAK256 SWAP1 DUP2 PUSH2 0x3C47 SWAP2 SWAP1 PUSH2 0x49F3 JUMP JUMPDEST POP PUSH1 0x40 MLOAD DUP1 PUSH1 0x40 ADD PUSH1 0x40 MSTORE DUP1 PUSH1 0x2 DUP2 MSTORE PUSH1 0x20 ADD PUSH32 0x5352000000000000000000000000000000000000000000000000000000000000 DUP2 MSTORE POP PUSH0 PUSH1 0x40 MLOAD PUSH2 0x3C8B SWAP1 PUSH2 0x86E6 JUMP JUMPDEST SWAP1 DUP2 MSTORE PUSH1 0x20 ADD PUSH1 0x40 MLOAD DUP1 SWAP2 SUB SWAP1 KECCAK256 SWAP1 DUP2 PUSH2 0x3CA5 SWAP2 SWAP1 PUSH2 0x49F3 JUMP JUMPDEST POP PUSH1 0x40 MLOAD DUP1 PUSH1 0x40 ADD PUSH1 0x40 MSTORE DUP1 PUSH1 0x2 DUP2 MSTORE PUSH1 0x20 ADD PUSH32 0x5345000000000000000000000000000000000000000000000000000000000000 DUP2 MSTORE POP PUSH0 PUSH1 0x40 MLOAD PUSH2 0x3CE9 SWAP1 PUSH2 0x8744 JUMP JUMPDEST SWAP1 DUP2 MSTORE PUSH1 0x20 ADD PUSH1 0x40 MLOAD DUP1 SWAP2 SUB SWAP1 KECCAK256 SWAP1 DUP2 PUSH2 0x3D03 SWAP2 SWAP1 PUSH2 0x49F3 JUMP JUMPDEST POP PUSH1 0x40 MLOAD DUP1 PUSH1 0x40 ADD PUSH1 0x40 MSTORE DUP1 PUSH1 0x2 DUP2 MSTORE PUSH1 0x20 ADD PUSH32 0x4348000000000000000000000000000000000000000000000000000000000000 DUP2 MSTORE POP PUSH0 PUSH1 0x40 MLOAD PUSH2 0x3D47 SWAP1 PUSH2 0x87A2 JUMP JUMPDEST SWAP1 DUP2 MSTORE PUSH1 0x20 ADD PUSH1 0x40 MLOAD DUP1 SWAP2 SUB SWAP1 KECCAK256 SWAP1 DUP2 PUSH2 0x3D61 SWAP2 SWAP1 PUSH2 0x49F3 JUMP JUMPDEST POP PUSH1 0x40 MLOAD DUP1 PUSH1 0x40 ADD PUSH1 0x40 MSTORE DUP1 PUSH1 0x2 DUP2 MSTORE PUSH1 0x20 ADD PUSH32 0x5359000000000000000000000000000000000000000000000000000000000000 DUP2 MSTORE POP PUSH0 PUSH1 0x40 MLOAD PUSH2 0x3DA5 SWAP1 PUSH2 0x8800 JUMP JUMPDEST SWAP1 DUP2 MSTORE PUSH1 0x20 ADD PUSH1 0x40 MLOAD DUP1 SWAP2 SUB SWAP1 KECCAK256 SWAP1 DUP2 PUSH2 0x3DBF SWAP2 SWAP1 PUSH2 0x49F3 JUMP JUMPDEST POP PUSH1 0x40 MLOAD DUP1 PUSH1 0x40 ADD PUSH1 0x40 MSTORE DUP1 PUSH1 0x2 DUP2 MSTORE PUSH1 0x20 ADD PUSH32 0x5457000000000000000000000000000000000000000000000000000000000000 DUP2 MSTORE POP PUSH0 PUSH1 0x40 MLOAD PUSH2 0x3E03 SWAP1 PUSH2 0x885E JUMP JUMPDEST SWAP1 DUP2 MSTORE PUSH1 0x20 ADD PUSH1 0x40 MLOAD DUP1 SWAP2 SUB SWAP1 KECCAK256 SWAP1 DUP2 PUSH2 0x3E1D SWAP2 SWAP1 PUSH2 0x49F3 JUMP JUMPDEST POP PUSH1 0x40 MLOAD DUP1 PUSH1 0x40 ADD PUSH1 0x40 MSTORE DUP1 PUSH1 0x2 DUP2 MSTORE PUSH1 0x20 ADD PUSH32 0x544A000000000000000000000000000000000000000000000000000000000000 DUP2 MSTORE POP PUSH0 PUSH1 0x40 MLOAD PUSH2 0x3E61 SWAP1 PUSH2 0x88BC JUMP JUMPDEST SWAP1 DUP2 MSTORE PUSH1 0x20 ADD PUSH1 0x40 MLOAD DUP1 SWAP2 SUB SWAP1 KECCAK256 SWAP1 DUP2 PUSH2 0x3E7B SWAP2 SWAP1 PUSH2 0x49F3 JUMP JUMPDEST POP PUSH1 0x40 MLOAD DUP1 PUSH1 0x40 ADD PUSH1 0x40 MSTORE DUP1 PUSH1 0x2 DUP2 MSTORE PUSH1 0x20 ADD PUSH32 0x545A000000000000000000000000000000000000000000000000000000000000 DUP2 MSTORE POP PUSH0 PUSH1 0x40 MLOAD PUSH2 0x3EBF SWAP1 PUSH2 0x891A JUMP JUMPDEST SWAP1 DUP2 MSTORE PUSH1 0x20 ADD PUSH1 0x40 MLOAD DUP1 SWAP2 SUB SWAP1 KECCAK256 SWAP1 DUP2 PUSH2 0x3ED9 SWAP2 SWAP1 PUSH2 0x49F3 JUMP JUMPDEST POP PUSH1 0x40 MLOAD DUP1 PUSH1 0x40 ADD PUSH1 0x40 MSTORE DUP1 PUSH1 0x2 DUP2 MSTORE PUSH1 0x20 ADD PUSH32 0x5448000000000000000000000000000000000000000000000000000000000000 DUP2 MSTORE POP PUSH0 PUSH1 0x40 MLOAD PUSH2 0x3F1D SWAP1 PUSH2 0x8978 JUMP JUMPDEST SWAP1 DUP2 MSTORE PUSH1 0x20 ADD PUSH1 0x40 MLOAD DUP1 SWAP2 SUB SWAP1 KECCAK256 SWAP1 DUP2 PUSH2 0x3F37 SWAP2 SWAP1 PUSH2 0x49F3 JUMP JUMPDEST POP PUSH1 0x40 MLOAD DUP1 PUSH1 0x40 ADD PUSH1 0x40 MSTORE DUP1 PUSH1 0x2 DUP2 MSTORE PUSH1 0x20 ADD PUSH32 0x544C000000000000000000000000000000000000000000000000000000000000 DUP2 MSTORE POP PUSH0 PUSH1 0x40 MLOAD PUSH2 0x3F7B SWAP1 PUSH2 0x89D6 JUMP JUMPDEST SWAP1 DUP2 MSTORE PUSH1 0x20 ADD PUSH1 0x40 MLOAD DUP1 SWAP2 SUB SWAP1 KECCAK256 SWAP1 DUP2 PUSH2 0x3F95 SWAP2 SWAP1 PUSH2 0x49F3 JUMP JUMPDEST POP PUSH1 0x40 MLOAD DUP1 PUSH1 0x40 ADD PUSH1 0x40 MSTORE DUP1 PUSH1 0x2 DUP2 MSTORE PUSH1 0x20 ADD PUSH32 0x5447000000000000000000000000000000000000000000000000000000000000 DUP2 MSTORE POP PUSH0 PUSH1 0x40 MLOAD PUSH2 0x3FD9 SWAP1 PUSH2 0x8A34 JUMP JUMPDEST SWAP1 DUP2 MSTORE PUSH1 0x20 ADD PUSH1 0x40 MLOAD DUP1 SWAP2 SUB SWAP1 KECCAK256 SWAP1 DUP2 PUSH2 0x3FF3 SWAP2 SWAP1 PUSH2 0x49F3 JUMP JUMPDEST POP PUSH1 0x40 MLOAD DUP1 PUSH1 0x40 ADD PUSH1 0x40 MSTORE DUP1 PUSH1 0x2 DUP2 MSTORE PUSH1 0x20 ADD PUSH32 0x544F000000000000000000000000000000000000000000000000000000000000 DUP2 MSTORE POP PUSH0 PUSH1 0x40 MLOAD PUSH2 0x4037 SWAP1 PUSH2 0x8A92 JUMP JUMPDEST SWAP1 DUP2 MSTORE PUSH1 0x20 ADD PUSH1 0x40 MLOAD DUP1 SWAP2 SUB SWAP1 KECCAK256 SWAP1 DUP2 PUSH2 0x4051 SWAP2 SWAP1 PUSH2 0x49F3 JUMP JUMPDEST POP PUSH1 0x40 MLOAD DUP1 PUSH1 0x40 ADD PUSH1 0x40 MSTORE DUP1 PUSH1 0x2 DUP2 MSTORE PUSH1 0x20 ADD PUSH32 0x5454000000000000000000000000000000000000000000000000000000000000 DUP2 MSTORE POP PUSH0 PUSH1 0x40 MLOAD PUSH2 0x4095 SWAP1 PUSH2 0x8AF0 JUMP JUMPDEST SWAP1 DUP2 MSTORE PUSH1 0x20 ADD PUSH1 0x40 MLOAD DUP1 SWAP2 SUB SWAP1 KECCAK256 SWAP1 DUP2 PUSH2 0x40AF SWAP2 SWAP1 PUSH2 0x49F3 JUMP JUMPDEST POP PUSH1 0x40 MLOAD DUP1 PUSH1 0x40 ADD PUSH1 0x40 MSTORE DUP1 PUSH1 0x2 DUP2 MSTORE PUSH1 0x20 ADD PUSH32 0x544E000000000000000000000000000000000000000000000000000000000000 DUP2 MSTORE POP PUSH0 PUSH1 0x40 MLOAD PUSH2 0x40F3 SWAP1 PUSH2 0x8B4E JUMP JUMPDEST SWAP1 DUP2 MSTORE PUSH1 0x20 ADD PUSH1 0x40 MLOAD DUP1 SWAP2 SUB SWAP1 KECCAK256 SWAP1 DUP2 PUSH2 0x410D SWAP2 SWAP1 PUSH2 0x49F3 JUMP JUMPDEST POP PUSH1 0x40 MLOAD DUP1 PUSH1 0x40 ADD PUSH1 0x40 MSTORE DUP1 PUSH1 0x2 DUP2 MSTORE PUSH1 0x20 ADD PUSH32 0x5452000000000000000000000000000000000000000000000000000000000000 DUP2 MSTORE POP PUSH0 PUSH1 0x40 MLOAD PUSH2 0x4151 SWAP1 PUSH2 0x8BAC JUMP JUMPDEST SWAP1 DUP2 MSTORE PUSH1 0x20 ADD PUSH1 0x40 MLOAD DUP1 SWAP2 SUB SWAP1 KECCAK256 SWAP1 DUP2 PUSH2 0x416B SWAP2 SWAP1 PUSH2 0x49F3 JUMP JUMPDEST POP PUSH1 0x40 MLOAD DUP1 PUSH1 0x40 ADD PUSH1 0x40 MSTORE DUP1 PUSH1 0x2 DUP2 MSTORE PUSH1 0x20 ADD PUSH32 0x544D000000000000000000000000000000000000000000000000000000000000 DUP2 MSTORE POP PUSH0 PUSH1 0x40 MLOAD PUSH2 0x41AF SWAP1 PUSH2 0x8C0A JUMP JUMPDEST SWAP1 DUP2 MSTORE PUSH1 0x20 ADD PUSH1 0x40 MLOAD DUP1 SWAP2 SUB SWAP1 KECCAK256 SWAP1 DUP2 PUSH2 0x41C9 SWAP2 SWAP1 PUSH2 0x49F3 JUMP JUMPDEST POP PUSH1 0x40 MLOAD DUP1 PUSH1 0x40 ADD PUSH1 0x40 MSTORE DUP1 PUSH1 0x2 DUP2 MSTORE PUSH1 0x20 ADD PUSH32 0x5456000000000000000000000000000000000000000000000000000000000000 DUP2 MSTORE POP PUSH0 PUSH1 0x40 MLOAD PUSH2 0x420D SWAP1 PUSH2 0x8C68 JUMP JUMPDEST SWAP1 DUP2 MSTORE PUSH1 0x20 ADD PUSH1 0x40 MLOAD DUP1 SWAP2 SUB SWAP1 KECCAK256 SWAP1 DUP2 PUSH2 0x4227 SWAP2 SWAP1 PUSH2 0x49F3 JUMP JUMPDEST POP PUSH1 0x40 MLOAD DUP1 PUSH1 0x40 ADD PUSH1 0x40 MSTORE DUP1 PUSH1 0x2 DUP2 MSTORE PUSH1 0x20 ADD PUSH32 0x5547000000000000000000000000000000000000000000000000000000000000 DUP2 MSTORE POP PUSH0 PUSH1 0x40 MLOAD PUSH2 0x426B SWAP1 PUSH2 0x8CC6 JUMP JUMPDEST SWAP1 DUP2 MSTORE PUSH1 0x20 ADD PUSH1 0x40 MLOAD DUP1 SWAP2 SUB SWAP1 KECCAK256 SWAP1 DUP2 PUSH2 0x4285 SWAP2 SWAP1 PUSH2 0x49F3 JUMP JUMPDEST POP PUSH1 0x40 MLOAD DUP1 PUSH1 0x40 ADD PUSH1 0x40 MSTORE DUP1 PUSH1 0x2 DUP2 MSTORE PUSH1 0x20 ADD PUSH32 0x5541000000000000000000000000000000000000000000000000000000000000 DUP2 MSTORE POP PUSH0 PUSH1 0x40 MLOAD PUSH2 0x42C9 SWAP1 PUSH2 0x8D24 JUMP JUMPDEST SWAP1 DUP2 MSTORE PUSH1 0x20 ADD PUSH1 0x40 MLOAD DUP1 SWAP2 SUB SWAP1 KECCAK256 SWAP1 DUP2 PUSH2 0x42E3 SWAP2 SWAP1 PUSH2 0x49F3 JUMP JUMPDEST POP PUSH1 0x40 MLOAD DUP1 PUSH1 0x40 ADD PUSH1 0x40 MSTORE DUP1 PUSH1 0x2 DUP2 MSTORE PUSH1 0x20 ADD PUSH32 0x4145000000000000000000000000000000000000000000000000000000000000 DUP2 MSTORE POP PUSH0 PUSH1 0x40 MLOAD PUSH2 0x4327 SWAP1 PUSH2 0x8D82 JUMP JUMPDEST SWAP1 DUP2 MSTORE PUSH1 0x20 ADD PUSH1 0x40 MLOAD DUP1 SWAP2 SUB SWAP1 KECCAK256 SWAP1 DUP2 PUSH2 0x4341 SWAP2 SWAP1 PUSH2 0x49F3 JUMP JUMPDEST POP PUSH1 0x40 MLOAD DUP1 PUSH1 0x40 ADD PUSH1 0x40 MSTORE DUP1 PUSH1 0x2 DUP2 MSTORE PUSH1 0x20 ADD PUSH32 0x4742000000000000000000000000000000000000000000000000000000000000 DUP2 MSTORE POP PUSH0 PUSH1 0x40 MLOAD PUSH2 0x4385 SWAP1 PUSH2 0x8DE0 JUMP JUMPDEST SWAP1 DUP2 MSTORE PUSH1 0x20 ADD PUSH1 0x40 MLOAD DUP1 SWAP2 SUB SWAP1 KECCAK256 SWAP1 DUP2 PUSH2 0x439F SWAP2 SWAP1 PUSH2 0x49F3 JUMP JUMPDEST POP PUSH1 0x40 MLOAD DUP1 PUSH1 0x40 ADD PUSH1 0x40 MSTORE DUP1 PUSH1 0x2 DUP2 MSTORE PUSH1 0x20 ADD PUSH32 0x5553000000000000000000000000000000000000000000000000000000000000 DUP2 MSTORE POP PUSH0 PUSH1 0x40 MLOAD PUSH2 0x43E3 SWAP1 PUSH2 0x8E3E JUMP JUMPDEST SWAP1 DUP2 MSTORE PUSH1 0x20 ADD PUSH1 0x40 MLOAD DUP1 SWAP2 SUB SWAP1 KECCAK256 SWAP1 DUP2 PUSH2 0x43FD SWAP2 SWAP1 PUSH2 0x49F3 JUMP JUMPDEST POP PUSH1 0x40 MLOAD DUP1 PUSH1 0x40 ADD PUSH1 0x40 MSTORE DUP1 PUSH1 0x2 DUP2 MSTORE PUSH1 0x20 ADD PUSH32 0x5559000000000000000000000000000000000000000000000000000000000000 DUP2 MSTORE POP PUSH0 PUSH1 0x40 MLOAD PUSH2 0x4441 SWAP1 PUSH2 0x8E9C JUMP JUMPDEST SWAP1 DUP2 MSTORE PUSH1 0x20 ADD PUSH1 0x40 MLOAD DUP1 SWAP2 SUB SWAP1 KECCAK256 SWAP1 DUP2 PUSH2 0x445B SWAP2 SWAP1 PUSH2 0x49F3 JUMP JUMPDEST POP PUSH1 0x40 MLOAD DUP1 PUSH1 0x40 ADD PUSH1 0x40 MSTORE DUP1 PUSH1 0x2 DUP2 MSTORE PUSH1 0x20 ADD PUSH32 0x555A000000000000000000000000000000000000000000000000000000000000 DUP2 MSTORE POP PUSH0 PUSH1 0x40 MLOAD PUSH2 0x449F SWAP1 PUSH2 0x8EFA JUMP JUMPDEST SWAP1 DUP2 MSTORE PUSH1 0x20 ADD PUSH1 0x40 MLOAD DUP1 SWAP2 SUB SWAP1 KECCAK256 SWAP1 DUP2 PUSH2 0x44B9 SWAP2 SWAP1 PUSH2 0x49F3 JUMP JUMPDEST POP PUSH1 0x40 MLOAD DUP1 PUSH1 0x40 ADD PUSH1 0x40 MSTORE DUP1 PUSH1 0x2 DUP2 MSTORE PUSH1 0x20 ADD PUSH32 0x5655000000000000000000000000000000000000000000000000000000000000 DUP2 MSTORE POP PUSH0 PUSH1 0x40 MLOAD PUSH2 0x44FD SWAP1 PUSH2 0x8F58 JUMP JUMPDEST SWAP1 DUP2 MSTORE PUSH1 0x20 ADD PUSH1 0x40 MLOAD DUP1 SWAP2 SUB SWAP1 KECCAK256 SWAP1 DUP2 PUSH2 0x4517 SWAP2 SWAP1 PUSH2 0x49F3 JUMP JUMPDEST POP PUSH1 0x40 MLOAD DUP1 PUSH1 0x40 ADD PUSH1 0x40 MSTORE DUP1 PUSH1 0x2 DUP2 MSTORE PUSH1 0x20 ADD PUSH32 0x5641000000000000000000000000000000000000000000000000000000000000 DUP2 MSTORE POP PUSH0 PUSH1 0x40 MLOAD PUSH2 0x455B SWAP1 PUSH2 0x8FB6 JUMP JUMPDEST SWAP1 DUP2 MSTORE PUSH1 0x20 ADD PUSH1 0x40 MLOAD DUP1 SWAP2 SUB SWAP1 KECCAK256 SWAP1 DUP2 PUSH2 0x4575 SWAP2 SWAP1 PUSH2 0x49F3 JUMP JUMPDEST POP PUSH1 0x40 MLOAD DUP1 PUSH1 0x40 ADD PUSH1 0x40 MSTORE DUP1 PUSH1 0x2 DUP2 MSTORE PUSH1 0x20 ADD PUSH32 0x5645000000000000000000000000000000000000000000000000000000000000 DUP2 MSTORE POP PUSH0 PUSH1 0x40 MLOAD PUSH2 0x45B9 SWAP1 PUSH2 0x9014 JUMP JUMPDEST SWAP1 DUP2 MSTORE PUSH1 0x20 ADD PUSH1 0x40 MLOAD DUP1 SWAP2 SUB SWAP1 KECCAK256 SWAP1 DUP2 PUSH2 0x45D3 SWAP2 SWAP1 PUSH2 0x49F3 JUMP JUMPDEST POP PUSH1 0x40 MLOAD DUP1 PUSH1 0x40 ADD PUSH1 0x40 MSTORE DUP1 PUSH1 0x2 DUP2 MSTORE PUSH1 0x20 ADD PUSH32 0x564E000000000000000000000000000000000000000000000000000000000000 DUP2 MSTORE POP PUSH0 PUSH1 0x40 MLOAD PUSH2 0x4617 SWAP1 PUSH2 0x9072 JUMP JUMPDEST SWAP1 DUP2 MSTORE PUSH1 0x20 ADD PUSH1 0x40 MLOAD DUP1 SWAP2 SUB SWAP1 KECCAK256 SWAP1 DUP2 PUSH2 0x4631 SWAP2 SWAP1 PUSH2 0x49F3 JUMP JUMPDEST POP PUSH1 0x40 MLOAD DUP1 PUSH1 0x40 ADD PUSH1 0x40 MSTORE DUP1 PUSH1 0x2 DUP2 MSTORE PUSH1 0x20 ADD PUSH32 0x5945000000000000000000000000000000000000000000000000000000000000 DUP2 MSTORE POP PUSH0 PUSH1 0x40 MLOAD PUSH2 0x4675 SWAP1 PUSH2 0x90D0 JUMP JUMPDEST SWAP1 DUP2 MSTORE PUSH1 0x20 ADD PUSH1 0x40 MLOAD DUP1 SWAP2 SUB SWAP1 KECCAK256 SWAP1 DUP2 PUSH2 0x468F SWAP2 SWAP1 PUSH2 0x49F3 JUMP JUMPDEST POP PUSH1 0x40 MLOAD DUP1 PUSH1 0x40 ADD PUSH1 0x40 MSTORE DUP1 PUSH1 0x2 DUP2 MSTORE PUSH1 0x20 ADD PUSH32 0x5A4D000000000000000000000000000000000000000000000000000000000000 DUP2 MSTORE POP PUSH0 PUSH1 0x40 MLOAD PUSH2 0x46D3 SWAP1 PUSH2 0x912E JUMP JUMPDEST SWAP1 DUP2 MSTORE PUSH1 0x20 ADD PUSH1 0x40 MLOAD DUP1 SWAP2 SUB SWAP1 KECCAK256 SWAP1 DUP2 PUSH2 0x46ED SWAP2 SWAP1 PUSH2 0x49F3 JUMP JUMPDEST POP PUSH1 0x40 MLOAD DUP1 PUSH1 0x40 ADD PUSH1 0x40 MSTORE DUP1 PUSH1 0x2 DUP2 MSTORE PUSH1 0x20 ADD PUSH32 0x5A57000000000000000000000000000000000000000000000000000000000000 DUP2 MSTORE POP PUSH0 PUSH1 0x40 MLOAD PUSH2 0x4731 SWAP1 PUSH2 0x918C JUMP JUMPDEST SWAP1 DUP2 MSTORE PUSH1 0x20 ADD PUSH1 0x40 MLOAD DUP1 SWAP2 SUB SWAP1 KECCAK256 SWAP1 DUP2 PUSH2 0x474B SWAP2 SWAP1 PUSH2 0x49F3 JUMP JUMPDEST POP PUSH2 0x91A0 JUMP JUMPDEST PUSH0 DUP2 SWAP1 POP SWAP3 SWAP2 POP POP JUMP JUMPDEST PUSH32 0x41666768616E697374616E000000000000000000000000000000000000000000 PUSH0 DUP3 ADD MSTORE POP JUMP JUMPDEST PUSH0 PUSH2 0x478F PUSH1 0xB DUP4 PUSH2 0x4751 JUMP JUMPDEST SWAP2 POP PUSH2 0x479A DUP3 PUSH2 0x475B JUMP JUMPDEST PUSH1 0xB DUP3 ADD SWAP1 POP SWAP2 SWAP1 POP JUMP JUMPDEST PUSH0 PUSH2 0x47AF DUP3 PUSH2 0x4783 JUMP JUMPDEST SWAP2 POP DUP2 SWAP1 POP SWAP2 SWAP1 POP JUMP JUMPDEST PUSH0 DUP2 MLOAD SWAP1 POP SWAP2 SWAP1 POP JUMP JUMPDEST PUSH32 0x4E487B7100000000000000000000000000000000000000000000000000000000 PUSH0 MSTORE PUSH1 0x41 PUSH1 0x4 MSTORE PUSH1 0x24 PUSH0 REVERT JUMPDEST PUSH32 0x4E487B7100000000000000000000000000000000000000000000000000000000 PUSH0 MSTORE PUSH1 0x22 PUSH1 0x4 MSTORE PUSH1 0x24 PUSH0 REVERT JUMPDEST PUSH0 PUSH1 0x2 DUP3 DIV SWAP1 POP PUSH1 0x1 DUP3 AND DUP1 PUSH2 0x4834 JUMPI PUSH1 0x7F DUP3 AND SWAP2 POP JUMPDEST PUSH1 0x20 DUP3 LT DUP2 SUB PUSH2 0x4847 JUMPI PUSH2 0x4846 PUSH2 0x47F0 JUMP JUMPDEST JUMPDEST POP SWAP2 SWAP1 POP JUMP JUMPDEST PUSH0 DUP2 SWAP1 POP DUP2 PUSH0 MSTORE PUSH1 0x20 PUSH0 KECCAK256 SWAP1 POP SWAP2 SWAP1 POP JUMP JUMPDEST PUSH0 PUSH1 0x20 PUSH1 0x1F DUP4 ADD DIV SWAP1 POP SWAP2 SWAP1 POP JUMP JUMPDEST PUSH0 DUP3 DUP3 SHL SWAP1 POP SWAP3 SWAP2 POP POP JUMP JUMPDEST PUSH0 PUSH1 0x8 DUP4 MUL PUSH2 0x48A9 PUSH32 0xFFFFFFFFFFFFFFFFFFFFFFFFFFFFFFFFFFFFFFFFFFFFFFFFFFFFFFFFFFFFFFFF DUP3 PUSH2 0x486E JUMP JUMPDEST PUSH2 0x48B3 DUP7 DUP4 PUSH2 0x486E JUMP JUMPDEST SWAP6 POP DUP1 NOT DUP5 AND SWAP4 POP DUP1 DUP7 AND DUP5 OR SWAP3 POP POP POP SWAP4 SWAP3 POP POP POP JUMP JUMPDEST PUSH0 DUP2 SWAP1 POP SWAP2 SWAP1 POP JUMP JUMPDEST PUSH0 DUP2 SWAP1 POP SWAP2 SWAP1 POP JUMP JUMPDEST PUSH0 PUSH2 0x48F7 PUSH2 0x48F2 PUSH2 0x48ED DUP5 PUSH2 0x48CB JUMP JUMPDEST PUSH2 0x48D4 JUMP JUMPDEST PUSH2 0x48CB JUMP JUMPDEST SWAP1 POP SWAP2 SWAP1 POP JUMP JUMPDEST PUSH0 DUP2 SWAP1 POP SWAP2 SWAP1 POP JUMP JUMPDEST PUSH2 0x4910 DUP4 PUSH2 0x48DD JUMP JUMPDEST PUSH2 0x4924 PUSH2 0x491C DUP3 PUSH2 0x48FE JUMP JUMPDEST DUP5 DUP5 SLOAD PUSH2 0x487A JUMP JUMPDEST DUP3 SSTORE POP POP POP POP JUMP JUMPDEST PUSH0 SWAP1 JUMP JUMPDEST PUSH2 0x4938 PUSH2 0x492C JUMP JUMPDEST PUSH2 0x4943 DUP2 DUP5 DUP5 PUSH2 0x4907 JUMP JUMPDEST POP POP POP JUMP JUMPDEST JUMPDEST DUP2 DUP2 LT ISZERO PUSH2 0x4966 JUMPI PUSH2 0x495B PUSH0 DUP3 PUSH2 0x4930 JUMP JUMPDEST PUSH1 0x1 DUP2 ADD SWAP1 POP PUSH2 0x4949 JUMP JUMPDEST POP POP JUMP JUMPDEST PUSH1 0x1F DUP3 GT ISZERO PUSH2 0x49AB JUMPI PUSH2 0x497C DUP2 PUSH2 0x484D JUMP JUMPDEST PUSH2 0x4985 DUP5 PUSH2 0x485F JUMP JUMPDEST DUP2 ADD PUSH1 0x20 DUP6 LT ISZERO PUSH2 0x4994 JUMPI DUP2 SWAP1 POP JUMPDEST PUSH2 0x49A8 PUSH2 0x49A0 DUP6 PUSH2 0x485F JUMP JUMPDEST DUP4 ADD DUP3 PUSH2 0x4948 JUMP JUMPDEST POP POP JUMPDEST POP POP POP JUMP JUMPDEST PUSH0 DUP3 DUP3 SHR SWAP1 POP SWAP3 SWAP2 POP POP JUMP JUMPDEST PUSH0 PUSH2 0x49CB PUSH0 NOT DUP5 PUSH1 0x8 MUL PUSH2 0x49B0 JUMP JUMPDEST NOT DUP1 DUP4 AND SWAP2 POP POP SWAP3 SWAP2 POP POP JUMP JUMPDEST PUSH0 PUSH2 0x49E3 DUP4 DUP4 PUSH2 0x49BC JUMP JUMPDEST SWAP2 POP DUP3 PUSH1 0x2 MUL DUP3 OR SWAP1 POP SWAP3 SWAP2 POP POP JUMP JUMPDEST PUSH2 0x49FC DUP3 PUSH2 0x47B9 JUMP JUMPDEST PUSH8 0xFFFFFFFFFFFFFFFF DUP2 GT ISZERO PUSH2 0x4A15 JUMPI PUSH2 0x4A14 PUSH2 0x47C3 JUMP JUMPDEST JUMPDEST PUSH2 0x4A1F DUP3 SLOAD PUSH2 0x481D JUMP JUMPDEST PUSH2 0x4A2A DUP3 DUP3 DUP6 PUSH2 0x496A JUMP JUMPDEST PUSH0 PUSH1 0x20 SWAP1 POP PUSH1 0x1F DUP4 GT PUSH1 0x1 DUP2 EQ PUSH2 0x4A5B JUMPI PUSH0 DUP5 ISZERO PUSH2 0x4A49 JUMPI DUP3 DUP8 ADD MLOAD SWAP1 POP JUMPDEST PUSH2 0x4A53 DUP6 DUP3 PUSH2 0x49D8 JUMP JUMPDEST DUP7 SSTORE POP PUSH2 0x4ABA JUMP JUMPDEST PUSH1 0x1F NOT DUP5 AND PUSH2 0x4A69 DUP7 PUSH2 0x484D JUMP JUMPDEST PUSH0 JUMPDEST DUP3 DUP2 LT ISZERO PUSH2 0x4A90 JUMPI DUP5 DUP10 ADD MLOAD DUP3 SSTORE PUSH1 0x1 DUP3 ADD SWAP2 POP PUSH1 0x20 DUP6 ADD SWAP5 POP PUSH1 0x20 DUP2 ADD SWAP1 POP PUSH2 0x4A6B JUMP JUMPDEST DUP7 DUP4 LT ISZERO PUSH2 0x4AAD JUMPI DUP5 DUP10 ADD MLOAD PUSH2 0x4AA9 PUSH1 0x1F DUP10 AND DUP3 PUSH2 0x49BC JUMP JUMPDEST DUP4 SSTORE POP JUMPDEST PUSH1 0x1 PUSH1 0x2 DUP9 MUL ADD DUP9 SSTORE POP POP POP JUMPDEST POP POP POP POP POP POP JUMP JUMPDEST PUSH32 0x416C62616E696100000000000000000000000000000000000000000000000000 PUSH0 DUP3 ADD MSTORE POP JUMP JUMPDEST PUSH0 PUSH2 0x4AF6 PUSH1 0x7 DUP4 PUSH2 0x4751 JUMP JUMPDEST SWAP2 POP PUSH2 0x4B01 DUP3 PUSH2 0x4AC2 JUMP JUMPDEST PUSH1 0x7 DUP3 ADD SWAP1 POP SWAP2 SWAP1 POP JUMP JUMPDEST PUSH0 PUSH2 0x4B16 DUP3 PUSH2 0x4AEA JUMP JUMPDEST SWAP2 POP DUP2 SWAP1 POP SWAP2 SWAP1 POP JUMP JUMPDEST PUSH32 0x416C676572696100000000000000000000000000000000000000000000000000 PUSH0 DUP3 ADD MSTORE POP JUMP JUMPDEST PUSH0 PUSH2 0x4B54 PUSH1 0x7 DUP4 PUSH2 0x4751 JUMP JUMPDEST SWAP2 POP PUSH2 0x4B5F DUP3 PUSH2 0x4B20 JUMP JUMPDEST PUSH1 0x7 DUP3 ADD SWAP1 POP SWAP2 SWAP1 POP JUMP JUMPDEST PUSH0 PUSH2 0x4B74 DUP3 PUSH2 0x4B48 JUMP JUMPDEST SWAP2 POP DUP2 SWAP1 POP SWAP2 SWAP1 POP JUMP JUMPDEST PUSH32 0x416E646F72726100000000000000000000000000000000000000000000000000 PUSH0 DUP3 ADD MSTORE POP JUMP JUMPDEST PUSH0 PUSH2 0x4BB2 PUSH1 0x7 DUP4 PUSH2 0x4751 JUMP JUMPDEST SWAP2 POP PUSH2 0x4BBD DUP3 PUSH2 0x4B7E JUMP JUMPDEST PUSH1 0x7 DUP3 ADD SWAP1 POP SWAP2 SWAP1 POP JUMP JUMPDEST PUSH0 PUSH2 0x4BD2 DUP3 PUSH2 0x4BA6 JUMP JUMPDEST SWAP2 POP DUP2 SWAP1 POP SWAP2 SWAP1 POP JUMP JUMPDEST PUSH32 0x416E676F6C610000000000000000000000000000000000000000000000000000 PUSH0 DUP3 ADD MSTORE POP JUMP JUMPDEST PUSH0 PUSH2 0x4C10 PUSH1 0x6 DUP4 PUSH2 0x4751 JUMP JUMPDEST SWAP2 POP PUSH2 0x4C1B DUP3 PUSH2 0x4BDC JUMP JUMPDEST PUSH1 0x6 DUP3 ADD SWAP1 POP SWAP2 SWAP1 POP JUMP JUMPDEST PUSH0 PUSH2 0x4C30 DUP3 PUSH2 0x4C04 JUMP JUMPDEST SWAP2 POP DUP2 SWAP1 POP SWAP2 SWAP1 POP JUMP JUMPDEST PUSH32 0x416E746967756120616E64204261726275646100000000000000000000000000 PUSH0 DUP3 ADD MSTORE POP JUMP JUMPDEST PUSH0 PUSH2 0x4C6E PUSH1 0x13 DUP4 PUSH2 0x4751 JUMP JUMPDEST SWAP2 POP PUSH2 0x4C79 DUP3 PUSH2 0x4C3A JUMP JUMPDEST PUSH1 0x13 DUP3 ADD SWAP1 POP SWAP2 SWAP1 POP JUMP JUMPDEST PUSH0 PUSH2 0x4C8E DUP3 PUSH2 0x4C62 JUMP JUMPDEST SWAP2 POP DUP2 SWAP1 POP SWAP2 SWAP1 POP JUMP JUMPDEST PUSH32 0x417267656E74696E610000000000000000000000000000000000000000000000 PUSH0 DUP3 ADD MSTORE POP JUMP JUMPDEST PUSH0 PUSH2 0x4CCC PUSH1 0x9 DUP4 PUSH2 0x4751 JUMP JUMPDEST SWAP2 POP PUSH2 0x4CD7 DUP3 PUSH2 0x4C98 JUMP JUMPDEST PUSH1 0x9 DUP3 ADD SWAP1 POP SWAP2 SWAP1 POP JUMP JUMPDEST PUSH0 PUSH2 0x4CEC DUP3 PUSH2 0x4CC0 JUMP JUMPDEST SWAP2 POP DUP2 SWAP1 POP SWAP2 SWAP1 POP JUMP JUMPDEST PUSH32 0x41726D656E696100000000000000000000000000000000000000000000000000 PUSH0 DUP3 ADD MSTORE POP JUMP JUMPDEST PUSH0 PUSH2 0x4D2A PUSH1 0x7 DUP4 PUSH2 0x4751 JUMP JUMPDEST SWAP2 POP PUSH2 0x4D35 DUP3 PUSH2 0x4CF6 JUMP JUMPDEST PUSH1 0x7 DUP3 ADD SWAP1 POP SWAP2 SWAP1 POP JUMP JUMPDEST PUSH0 PUSH2 0x4D4A DUP3 PUSH2 0x4D1E JUMP JUMPDEST SWAP2 POP DUP2 SWAP1 POP SWAP2 SWAP1 POP JUMP JUMPDEST PUSH32 0x4175737472616C69610000000000000000000000000000000000000000000000 PUSH0 DUP3 ADD MSTORE POP JUMP JUMPDEST PUSH0 PUSH2 0x4D88 PUSH1 0x9 DUP4 PUSH2 0x4751 JUMP JUMPDEST SWAP2 POP PUSH2 0x4D93 DUP3 PUSH2 0x4D54 JUMP JUMPDEST PUSH1 0x9 DUP3 ADD SWAP1 POP SWAP2 SWAP1 POP JUMP JUMPDEST PUSH0 PUSH2 0x4DA8 DUP3 PUSH2 0x4D7C JUMP JUMPDEST SWAP2 POP DUP2 SWAP1 POP SWAP2 SWAP1 POP JUMP JUMPDEST PUSH32 0x4175737472696100000000000000000000000000000000000000000000000000 PUSH0 DUP3 ADD MSTORE POP JUMP JUMPDEST PUSH0 PUSH2 0x4DE6 PUSH1 0x7 DUP4 PUSH2 0x4751 JUMP JUMPDEST SWAP2 POP PUSH2 0x4DF1 DUP3 PUSH2 0x4DB2 JUMP JUMPDEST PUSH1 0x7 DUP3 ADD SWAP1 POP SWAP2 SWAP1 POP JUMP JUMPDEST PUSH0 PUSH2 0x4E06 DUP3 PUSH2 0x4DDA JUMP JUMPDEST SWAP2 POP DUP2 SWAP1 POP SWAP2 SWAP1 POP JUMP JUMPDEST PUSH32 0x417A65726261696A616E00000000000000000000000000000000000000000000 PUSH0 DUP3 ADD MSTORE POP JUMP JUMPDEST PUSH0 PUSH2 0x4E44 PUSH1 0xA DUP4 PUSH2 0x4751 JUMP JUMPDEST SWAP2 POP PUSH2 0x4E4F DUP3 PUSH2 0x4E10 JUMP JUMPDEST PUSH1 0xA DUP3 ADD SWAP1 POP SWAP2 SWAP1 POP JUMP JUMPDEST PUSH0 PUSH2 0x4E64 DUP3 PUSH2 0x4E38 JUMP JUMPDEST SWAP2 POP DUP2 SWAP1 POP SWAP2 SWAP1 POP JUMP JUMPDEST PUSH32 0x426168616D617300000000000000000000000000000000000000000000000000 PUSH0 DUP3 ADD MSTORE POP JUMP JUMPDEST PUSH0 PUSH2 0x4EA2 PUSH1 0x7 DUP4 PUSH2 0x4751 JUMP JUMPDEST SWAP2 POP PUSH2 0x4EAD DUP3 PUSH2 0x4E6E JUMP JUMPDEST PUSH1 0x7 DUP3 ADD SWAP1 POP SWAP2 SWAP1 POP JUMP JUMPDEST PUSH0 PUSH2 0x4EC2 DUP3 PUSH2 0x4E96 JUMP JUMPDEST SWAP2 POP DUP2 SWAP1 POP SWAP2 SWAP1 POP JUMP JUMPDEST PUSH32 0x4261687261696E00000000000000000000000000000000000000000000000000 PUSH0 DUP3 ADD MSTORE POP JUMP JUMPDEST PUSH0 PUSH2 0x4F00 PUSH1 0x7 DUP4 PUSH2 0x4751 JUMP JUMPDEST SWAP2 POP PUSH2 0x4F0B DUP3 PUSH2 0x4ECC JUMP JUMPDEST PUSH1 0x7 DUP3 ADD SWAP1 POP SWAP2 SWAP1 POP JUMP JUMPDEST PUSH0 PUSH2 0x4F20 DUP3 PUSH2 0x4EF4 JUMP JUMPDEST SWAP2 POP DUP2 SWAP1 POP SWAP2 SWAP1 POP JUMP JUMPDEST PUSH32 0x42616E676C616465736800000000000000000000000000000000000000000000 PUSH0 DUP3 ADD MSTORE POP JUMP JUMPDEST PUSH0 PUSH2 0x4F5E PUSH1 0xA DUP4 PUSH2 0x4751 JUMP JUMPDEST SWAP2 POP PUSH2 0x4F69 DUP3 PUSH2 0x4F2A JUMP JUMPDEST PUSH1 0xA DUP3 ADD SWAP1 POP SWAP2 SWAP1 POP JUMP JUMPDEST PUSH0 PUSH2 0x4F7E DUP3 PUSH2 0x4F52 JUMP JUMPDEST SWAP2 POP DUP2 SWAP1 POP SWAP2 SWAP1 POP JUMP JUMPDEST PUSH32 0x4261726261646F73000000000000000000000000000000000000000000000000 PUSH0 DUP3 ADD MSTORE POP JUMP JUMPDEST PUSH0 PUSH2 0x4FBC PUSH1 0x8 DUP4 PUSH2 0x4751 JUMP JUMPDEST SWAP2 POP PUSH2 0x4FC7 DUP3 PUSH2 0x4F88 JUMP JUMPDEST PUSH1 0x8 DUP3 ADD SWAP1 POP SWAP2 SWAP1 POP JUMP JUMPDEST PUSH0 PUSH2 0x4FDC DUP3 PUSH2 0x4FB0 JUMP JUMPDEST SWAP2 POP DUP2 SWAP1 POP SWAP2 SWAP1 POP JUMP JUMPDEST PUSH32 0x42656C6172757300000000000000000000000000000000000000000000000000 PUSH0 DUP3 ADD MSTORE POP JUMP JUMPDEST PUSH0 PUSH2 0x501A PUSH1 0x7 DUP4 PUSH2 0x4751 JUMP JUMPDEST SWAP2 POP PUSH2 0x5025 DUP3 PUSH2 0x4FE6 JUMP JUMPDEST PUSH1 0x7 DUP3 ADD SWAP1 POP SWAP2 SWAP1 POP JUMP JUMPDEST PUSH0 PUSH2 0x503A DUP3 PUSH2 0x500E JUMP JUMPDEST SWAP2 POP DUP2 SWAP1 POP SWAP2 SWAP1 POP JUMP JUMPDEST PUSH32 0x42656C6769756D00000000000000000000000000000000000000000000000000 PUSH0 DUP3 ADD MSTORE POP JUMP JUMPDEST PUSH0 PUSH2 0x5078 PUSH1 0x7 DUP4 PUSH2 0x4751 JUMP JUMPDEST SWAP2 POP PUSH2 0x5083 DUP3 PUSH2 0x5044 JUMP JUMPDEST PUSH1 0x7 DUP3 ADD SWAP1 POP SWAP2 SWAP1 POP JUMP JUMPDEST PUSH0 PUSH2 0x5098 DUP3 PUSH2 0x506C JUMP JUMPDEST SWAP2 POP DUP2 SWAP1 POP SWAP2 SWAP1 POP JUMP JUMPDEST PUSH32 0x42656C697A650000000000000000000000000000000000000000000000000000 PUSH0 DUP3 ADD MSTORE POP JUMP JUMPDEST PUSH0 PUSH2 0x50D6 PUSH1 0x6 DUP4 PUSH2 0x4751 JUMP JUMPDEST SWAP2 POP PUSH2 0x50E1 DUP3 PUSH2 0x50A2 JUMP JUMPDEST PUSH1 0x6 DUP3 ADD SWAP1 POP SWAP2 SWAP1 POP JUMP JUMPDEST PUSH0 PUSH2 0x50F6 DUP3 PUSH2 0x50CA JUMP JUMPDEST SWAP2 POP DUP2 SWAP1 POP SWAP2 SWAP1 POP JUMP JUMPDEST PUSH32 0x42656E696E000000000000000000000000000000000000000000000000000000 PUSH0 DUP3 ADD MSTORE POP JUMP JUMPDEST PUSH0 PUSH2 0x5134 PUSH1 0x5 DUP4 PUSH2 0x4751 JUMP JUMPDEST SWAP2 POP PUSH2 0x513F DUP3 PUSH2 0x5100 JUMP JUMPDEST PUSH1 0x5 DUP3 ADD SWAP1 POP SWAP2 SWAP1 POP JUMP JUMPDEST PUSH0 PUSH2 0x5154 DUP3 PUSH2 0x5128 JUMP JUMPDEST SWAP2 POP DUP2 SWAP1 POP SWAP2 SWAP1 POP JUMP JUMPDEST PUSH32 0x42687574616E0000000000000000000000000000000000000000000000000000 PUSH0 DUP3 ADD MSTORE POP JUMP JUMPDEST PUSH0 PUSH2 0x5192 PUSH1 0x6 DUP4 PUSH2 0x4751 JUMP JUMPDEST SWAP2 POP PUSH2 0x519D DUP3 PUSH2 0x515E JUMP JUMPDEST PUSH1 0x6 DUP3 ADD SWAP1 POP SWAP2 SWAP1 POP JUMP JUMPDEST PUSH0 PUSH2 0x51B2 DUP3 PUSH2 0x5186 JUMP JUMPDEST SWAP2 POP DUP2 SWAP1 POP SWAP2 SWAP1 POP JUMP JUMPDEST PUSH32 0x426F6C6976696100000000000000000000000000000000000000000000000000 PUSH0 DUP3 ADD MSTORE POP JUMP JUMPDEST PUSH0 PUSH2 0x51F0 PUSH1 0x7 DUP4 PUSH2 0x4751 JUMP JUMPDEST SWAP2 POP PUSH2 0x51FB DUP3 PUSH2 0x51BC JUMP JUMPDEST PUSH1 0x7 DUP3 ADD SWAP1 POP SWAP2 SWAP1 POP JUMP JUMPDEST PUSH0 PUSH2 0x5210 DUP3 PUSH2 0x51E4 JUMP JUMPDEST SWAP2 POP DUP2 SWAP1 POP SWAP2 SWAP1 POP JUMP JUMPDEST PUSH32 0x426F736E696120616E64204865727A65676F76696E6100000000000000000000 PUSH0 DUP3 ADD MSTORE POP JUMP JUMPDEST PUSH0 PUSH2 0x524E PUSH1 0x16 DUP4 PUSH2 0x4751 JUMP JUMPDEST SWAP2 POP PUSH2 0x5259 DUP3 PUSH2 0x521A JUMP JUMPDEST PUSH1 0x16 DUP3 ADD SWAP1 POP SWAP2 SWAP1 POP JUMP JUMPDEST PUSH0 PUSH2 0x526E DUP3 PUSH2 0x5242 JUMP JUMPDEST SWAP2 POP DUP2 SWAP1 POP SWAP2 SWAP1 POP JUMP JUMPDEST PUSH32 0x426F747377616E61000000000000000000000000000000000000000000000000 PUSH0 DUP3 ADD MSTORE POP JUMP JUMPDEST PUSH0 PUSH2 0x52AC PUSH1 0x8 DUP4 PUSH2 0x4751 JUMP JUMPDEST SWAP2 POP PUSH2 0x52B7 DUP3 PUSH2 0x5278 JUMP JUMPDEST PUSH1 0x8 DUP3 ADD SWAP1 POP SWAP2 SWAP1 POP JUMP JUMPDEST PUSH0 PUSH2 0x52CC DUP3 PUSH2 0x52A0 JUMP JUMPDEST SWAP2 POP DUP2 SWAP1 POP SWAP2 SWAP1 POP JUMP JUMPDEST PUSH32 0x4272617A696C0000000000000000000000000000000000000000000000000000 PUSH0 DUP3 ADD MSTORE POP JUMP JUMPDEST PUSH0 PUSH2 0x530A PUSH1 0x6 DUP4 PUSH2 0x4751 JUMP JUMPDEST SWAP2 POP PUSH2 0x5315 DUP3 PUSH2 0x52D6 JUMP JUMPDEST PUSH1 0x6 DUP3 ADD SWAP1 POP SWAP2 SWAP1 POP JUMP JUMPDEST PUSH0 PUSH2 0x532A DUP3 PUSH2 0x52FE JUMP JUMPDEST SWAP2 POP DUP2 SWAP1 POP SWAP2 SWAP1 POP JUMP JUMPDEST PUSH32 0x4272756E65690000000000000000000000000000000000000000000000000000 PUSH0 DUP3 ADD MSTORE POP JUMP JUMPDEST PUSH0 PUSH2 0x5368 PUSH1 0x6 DUP4 PUSH2 0x4751 JUMP JUMPDEST SWAP2 POP PUSH2 0x5373 DUP3 PUSH2 0x5334 JUMP JUMPDEST PUSH1 0x6 DUP3 ADD SWAP1 POP SWAP2 SWAP1 POP JUMP JUMPDEST PUSH0 PUSH2 0x5388 DUP3 PUSH2 0x535C JUMP JUMPDEST SWAP2 POP DUP2 SWAP1 POP SWAP2 SWAP1 POP JUMP JUMPDEST PUSH32 0x42756C6761726961000000000000000000000000000000000000000000000000 PUSH0 DUP3 ADD MSTORE POP JUMP JUMPDEST PUSH0 PUSH2 0x53C6 PUSH1 0x8 DUP4 PUSH2 0x4751 JUMP JUMPDEST SWAP2 POP PUSH2 0x53D1 DUP3 PUSH2 0x5392 JUMP JUMPDEST PUSH1 0x8 DUP3 ADD SWAP1 POP SWAP2 SWAP1 POP JUMP JUMPDEST PUSH0 PUSH2 0x53E6 DUP3 PUSH2 0x53BA JUMP JUMPDEST SWAP2 POP DUP2 SWAP1 POP SWAP2 SWAP1 POP JUMP JUMPDEST PUSH32 0x4275726B696E61204661736F0000000000000000000000000000000000000000 PUSH0 DUP3 ADD MSTORE POP JUMP JUMPDEST PUSH0 PUSH2 0x5424 PUSH1 0xC DUP4 PUSH2 0x4751 JUMP JUMPDEST SWAP2 POP PUSH2 0x542F DUP3 PUSH2 0x53F0 JUMP JUMPDEST PUSH1 0xC DUP3 ADD SWAP1 POP SWAP2 SWAP1 POP JUMP JUMPDEST PUSH0 PUSH2 0x5444 DUP3 PUSH2 0x5418 JUMP JUMPDEST SWAP2 POP DUP2 SWAP1 POP SWAP2 SWAP1 POP JUMP JUMPDEST PUSH32 0x427572756E646900000000000000000000000000000000000000000000000000 PUSH0 DUP3 ADD MSTORE POP JUMP JUMPDEST PUSH0 PUSH2 0x5482 PUSH1 0x7 DUP4 PUSH2 0x4751 JUMP JUMPDEST SWAP2 POP PUSH2 0x548D DUP3 PUSH2 0x544E JUMP JUMPDEST PUSH1 0x7 DUP3 ADD SWAP1 POP SWAP2 SWAP1 POP JUMP JUMPDEST PUSH0 PUSH2 0x54A2 DUP3 PUSH2 0x5476 JUMP JUMPDEST SWAP2 POP DUP2 SWAP1 POP SWAP2 SWAP1 POP JUMP JUMPDEST PUSH32 0x43616D626F646961000000000000000000000000000000000000000000000000 PUSH0 DUP3 ADD MSTORE POP JUMP JUMPDEST PUSH0 PUSH2 0x54E0 PUSH1 0x8 DUP4 PUSH2 0x4751 JUMP JUMPDEST SWAP2 POP PUSH2 0x54EB DUP3 PUSH2 0x54AC JUMP JUMPDEST PUSH1 0x8 DUP3 ADD SWAP1 POP SWAP2 SWAP1 POP JUMP JUMPDEST PUSH0 PUSH2 0x5500 DUP3 PUSH2 0x54D4 JUMP JUMPDEST SWAP2 POP DUP2 SWAP1 POP SWAP2 SWAP1 POP JUMP JUMPDEST PUSH32 0x43616D65726F6F6E000000000000000000000000000000000000000000000000 PUSH0 DUP3 ADD MSTORE POP JUMP JUMPDEST PUSH0 PUSH2 0x553E PUSH1 0x8 DUP4 PUSH2 0x4751 JUMP JUMPDEST SWAP2 POP PUSH2 0x5549 DUP3 PUSH2 0x550A JUMP JUMPDEST PUSH1 0x8 DUP3 ADD SWAP1 POP SWAP2 SWAP1 POP JUMP JUMPDEST PUSH0 PUSH2 0x555E DUP3 PUSH2 0x5532 JUMP JUMPDEST SWAP2 POP DUP2 SWAP1 POP SWAP2 SWAP1 POP JUMP JUMPDEST PUSH32 0x43616E6164610000000000000000000000000000000000000000000000000000 PUSH0 DUP3 ADD MSTORE POP JUMP JUMPDEST PUSH0 PUSH2 0x559C PUSH1 0x6 DUP4 PUSH2 0x4751 JUMP JUMPDEST SWAP2 POP PUSH2 0x55A7 DUP3 PUSH2 0x5568 JUMP JUMPDEST PUSH1 0x6 DUP3 ADD SWAP1 POP SWAP2 SWAP1 POP JUMP JUMPDEST PUSH0 PUSH2 0x55BC DUP3 PUSH2 0x5590 JUMP JUMPDEST SWAP2 POP DUP2 SWAP1 POP SWAP2 SWAP1 POP JUMP JUMPDEST PUSH32 0x4361706520566572646500000000000000000000000000000000000000000000 PUSH0 DUP3 ADD MSTORE POP JUMP JUMPDEST PUSH0 PUSH2 0x55FA PUSH1 0xA DUP4 PUSH2 0x4751 JUMP JUMPDEST SWAP2 POP PUSH2 0x5605 DUP3 PUSH2 0x55C6 JUMP JUMPDEST PUSH1 0xA DUP3 ADD SWAP1 POP SWAP2 SWAP1 POP JUMP JUMPDEST PUSH0 PUSH2 0x561A DUP3 PUSH2 0x55EE JUMP JUMPDEST SWAP2 POP DUP2 SWAP1 POP SWAP2 SWAP1 POP JUMP JUMPDEST PUSH32 0x43656E7472616C204166726963616E2052657075626C69630000000000000000 PUSH0 DUP3 ADD MSTORE POP JUMP JUMPDEST PUSH0 PUSH2 0x5658 PUSH1 0x18 DUP4 PUSH2 0x4751 JUMP JUMPDEST SWAP2 POP PUSH2 0x5663 DUP3 PUSH2 0x5624 JUMP JUMPDEST PUSH1 0x18 DUP3 ADD SWAP1 POP SWAP2 SWAP1 POP JUMP JUMPDEST PUSH0 PUSH2 0x5678 DUP3 PUSH2 0x564C JUMP JUMPDEST SWAP2 POP DUP2 SWAP1 POP SWAP2 SWAP1 POP JUMP JUMPDEST PUSH32 0x4368616400000000000000000000000000000000000000000000000000000000 PUSH0 DUP3 ADD MSTORE POP JUMP JUMPDEST PUSH0 PUSH2 0x56B6 PUSH1 0x4 DUP4 PUSH2 0x4751 JUMP JUMPDEST SWAP2 POP PUSH2 0x56C1 DUP3 PUSH2 0x5682 JUMP JUMPDEST PUSH1 0x4 DUP3 ADD SWAP1 POP SWAP2 SWAP1 POP JUMP JUMPDEST PUSH0 PUSH2 0x56D6 DUP3 PUSH2 0x56AA JUMP JUMPDEST SWAP2 POP DUP2 SWAP1 POP SWAP2 SWAP1 POP JUMP JUMPDEST PUSH32 0x4368696C65000000000000000000000000000000000000000000000000000000 PUSH0 DUP3 ADD MSTORE POP JUMP JUMPDEST PUSH0 PUSH2 0x5714 PUSH1 0x5 DUP4 PUSH2 0x4751 JUMP JUMPDEST SWAP2 POP PUSH2 0x571F DUP3 PUSH2 0x56E0 JUMP JUMPDEST PUSH1 0x5 DUP3 ADD SWAP1 POP SWAP2 SWAP1 POP JUMP JUMPDEST PUSH0 PUSH2 0x5734 DUP3 PUSH2 0x5708 JUMP JUMPDEST SWAP2 POP DUP2 SWAP1 POP SWAP2 SWAP1 POP JUMP JUMPDEST PUSH32 0x4368696E61000000000000000000000000000000000000000000000000000000 PUSH0 DUP3 ADD MSTORE POP JUMP JUMPDEST PUSH0 PUSH2 0x5772 PUSH1 0x5 DUP4 PUSH2 0x4751 JUMP JUMPDEST SWAP2 POP PUSH2 0x577D DUP3 PUSH2 0x573E JUMP JUMPDEST PUSH1 0x5 DUP3 ADD SWAP1 POP SWAP2 SWAP1 POP JUMP JUMPDEST PUSH0 PUSH2 0x5792 DUP3 PUSH2 0x5766 JUMP JUMPDEST SWAP2 POP DUP2 SWAP1 POP SWAP2 SWAP1 POP JUMP JUMPDEST PUSH32 0x436F6C6F6D626961000000000000000000000000000000000000000000000000 PUSH0 DUP3 ADD MSTORE POP JUMP JUMPDEST PUSH0 PUSH2 0x57D0 PUSH1 0x8 DUP4 PUSH2 0x4751 JUMP JUMPDEST SWAP2 POP PUSH2 0x57DB DUP3 PUSH2 0x579C JUMP JUMPDEST PUSH1 0x8 DUP3 ADD SWAP1 POP SWAP2 SWAP1 POP JUMP JUMPDEST PUSH0 PUSH2 0x57F0 DUP3 PUSH2 0x57C4 JUMP JUMPDEST SWAP2 POP DUP2 SWAP1 POP SWAP2 SWAP1 POP JUMP JUMPDEST PUSH32 0x436F6D6F726F7300000000000000000000000000000000000000000000000000 PUSH0 DUP3 ADD MSTORE POP JUMP JUMPDEST PUSH0 PUSH2 0x582E PUSH1 0x7 DUP4 PUSH2 0x4751 JUMP JUMPDEST SWAP2 POP PUSH2 0x5839 DUP3 PUSH2 0x57FA JUMP JUMPDEST PUSH1 0x7 DUP3 ADD SWAP1 POP SWAP2 SWAP1 POP JUMP JUMPDEST PUSH0 PUSH2 0x584E DUP3 PUSH2 0x5822 JUMP JUMPDEST SWAP2 POP DUP2 SWAP1 POP SWAP2 SWAP1 POP JUMP JUMPDEST PUSH32 0x436F6E676F2028436F6E676F2D4272617A7A6176696C6C652900000000000000 PUSH0 DUP3 ADD MSTORE POP JUMP JUMPDEST PUSH0 PUSH2 0x588C PUSH1 0x19 DUP4 PUSH2 0x4751 JUMP JUMPDEST SWAP2 POP PUSH2 0x5897 DUP3 PUSH2 0x5858 JUMP JUMPDEST PUSH1 0x19 DUP3 ADD SWAP1 POP SWAP2 SWAP1 POP JUMP JUMPDEST PUSH0 PUSH2 0x58AC DUP3 PUSH2 0x5880 JUMP JUMPDEST SWAP2 POP DUP2 SWAP1 POP SWAP2 SWAP1 POP JUMP JUMPDEST PUSH32 0x436F6E676F202844524329000000000000000000000000000000000000000000 PUSH0 DUP3 ADD MSTORE POP JUMP JUMPDEST PUSH0 PUSH2 0x58EA PUSH1 0xB DUP4 PUSH2 0x4751 JUMP JUMPDEST SWAP2 POP PUSH2 0x58F5 DUP3 PUSH2 0x58B6 JUMP JUMPDEST PUSH1 0xB DUP3 ADD SWAP1 POP SWAP2 SWAP1 POP JUMP JUMPDEST PUSH0 PUSH2 0x590A DUP3 PUSH2 0x58DE JUMP JUMPDEST SWAP2 POP DUP2 SWAP1 POP SWAP2 SWAP1 POP JUMP JUMPDEST PUSH32 0x436F737461205269636100000000000000000000000000000000000000000000 PUSH0 DUP3 ADD MSTORE POP JUMP JUMPDEST PUSH0 PUSH2 0x5948 PUSH1 0xA DUP4 PUSH2 0x4751 JUMP JUMPDEST SWAP2 POP PUSH2 0x5953 DUP3 PUSH2 0x5914 JUMP JUMPDEST PUSH1 0xA DUP3 ADD SWAP1 POP SWAP2 SWAP1 POP JUMP JUMPDEST PUSH0 PUSH2 0x5968 DUP3 PUSH2 0x593C JUMP JUMPDEST SWAP2 POP DUP2 SWAP1 POP SWAP2 SWAP1 POP JUMP JUMPDEST PUSH32 0x43726F6174696100000000000000000000000000000000000000000000000000 PUSH0 DUP3 ADD MSTORE POP JUMP JUMPDEST PUSH0 PUSH2 0x59A6 PUSH1 0x7 DUP4 PUSH2 0x4751 JUMP JUMPDEST SWAP2 POP PUSH2 0x59B1 DUP3 PUSH2 0x5972 JUMP JUMPDEST PUSH1 0x7 DUP3 ADD SWAP1 POP SWAP2 SWAP1 POP JUMP JUMPDEST PUSH0 PUSH2 0x59C6 DUP3 PUSH2 0x599A JUMP JUMPDEST SWAP2 POP DUP2 SWAP1 POP SWAP2 SWAP1 POP JUMP JUMPDEST PUSH32 0x4375626100000000000000000000000000000000000000000000000000000000 PUSH0 DUP3 ADD MSTORE POP JUMP JUMPDEST PUSH0 PUSH2 0x5A04 PUSH1 0x4 DUP4 PUSH2 0x4751 JUMP JUMPDEST SWAP2 POP PUSH2 0x5A0F DUP3 PUSH2 0x59D0 JUMP JUMPDEST PUSH1 0x4 DUP3 ADD SWAP1 POP SWAP2 SWAP1 POP JUMP JUMPDEST PUSH0 PUSH2 0x5A24 DUP3 PUSH2 0x59F8 JUMP JUMPDEST SWAP2 POP DUP2 SWAP1 POP SWAP2 SWAP1 POP JUMP JUMPDEST PUSH32 0x4379707275730000000000000000000000000000000000000000000000000000 PUSH0 DUP3 ADD MSTORE POP JUMP JUMPDEST PUSH0 PUSH2 0x5A62 PUSH1 0x6 DUP4 PUSH2 0x4751 JUMP JUMPDEST SWAP2 POP PUSH2 0x5A6D DUP3 PUSH2 0x5A2E JUMP JUMPDEST PUSH1 0x6 DUP3 ADD SWAP1 POP SWAP2 SWAP1 POP JUMP JUMPDEST PUSH0 PUSH2 0x5A82 DUP3 PUSH2 0x5A56 JUMP JUMPDEST SWAP2 POP DUP2 SWAP1 POP SWAP2 SWAP1 POP JUMP JUMPDEST PUSH32 0x437A656368696100000000000000000000000000000000000000000000000000 PUSH0 DUP3 ADD MSTORE POP JUMP JUMPDEST PUSH0 PUSH2 0x5AC0 PUSH1 0x7 DUP4 PUSH2 0x4751 JUMP JUMPDEST SWAP2 POP PUSH2 0x5ACB DUP3 PUSH2 0x5A8C JUMP JUMPDEST PUSH1 0x7 DUP3 ADD SWAP1 POP SWAP2 SWAP1 POP JUMP JUMPDEST PUSH0 PUSH2 0x5AE0 DUP3 PUSH2 0x5AB4 JUMP JUMPDEST SWAP2 POP DUP2 SWAP1 POP SWAP2 SWAP1 POP JUMP JUMPDEST PUSH32 0x44656E6D61726B00000000000000000000000000000000000000000000000000 PUSH0 DUP3 ADD MSTORE POP JUMP JUMPDEST PUSH0 PUSH2 0x5B1E PUSH1 0x7 DUP4 PUSH2 0x4751 JUMP JUMPDEST SWAP2 POP PUSH2 0x5B29 DUP3 PUSH2 0x5AEA JUMP JUMPDEST PUSH1 0x7 DUP3 ADD SWAP1 POP SWAP2 SWAP1 POP JUMP JUMPDEST PUSH0 PUSH2 0x5B3E DUP3 PUSH2 0x5B12 JUMP JUMPDEST SWAP2 POP DUP2 SWAP1 POP SWAP2 SWAP1 POP JUMP JUMPDEST PUSH32 0x446A69626F757469000000000000000000000000000000000000000000000000 PUSH0 DUP3 ADD MSTORE POP JUMP JUMPDEST PUSH0 PUSH2 0x5B7C PUSH1 0x8 DUP4 PUSH2 0x4751 JUMP JUMPDEST SWAP2 POP PUSH2 0x5B87 DUP3 PUSH2 0x5B48 JUMP JUMPDEST PUSH1 0x8 DUP3 ADD SWAP1 POP SWAP2 SWAP1 POP JUMP JUMPDEST PUSH0 PUSH2 0x5B9C DUP3 PUSH2 0x5B70 JUMP JUMPDEST SWAP2 POP DUP2 SWAP1 POP SWAP2 SWAP1 POP JUMP JUMPDEST PUSH32 0x446F6D696E696361000000000000000000000000000000000000000000000000 PUSH0 DUP3 ADD MSTORE POP JUMP JUMPDEST PUSH0 PUSH2 0x5BDA PUSH1 0x8 DUP4 PUSH2 0x4751 JUMP JUMPDEST SWAP2 POP PUSH2 0x5BE5 DUP3 PUSH2 0x5BA6 JUMP JUMPDEST PUSH1 0x8 DUP3 ADD SWAP1 POP SWAP2 SWAP1 POP JUMP JUMPDEST PUSH0 PUSH2 0x5BFA DUP3 PUSH2 0x5BCE JUMP JUMPDEST SWAP2 POP DUP2 SWAP1 POP SWAP2 SWAP1 POP JUMP JUMPDEST PUSH32 0x446F6D696E6963616E2052657075626C69630000000000000000000000000000 PUSH0 DUP3 ADD MSTORE POP JUMP JUMPDEST PUSH0 PUSH2 0x5C38 PUSH1 0x12 DUP4 PUSH2 0x4751 JUMP JUMPDEST SWAP2 POP PUSH2 0x5C43 DUP3 PUSH2 0x5C04 JUMP JUMPDEST PUSH1 0x12 DUP3 ADD SWAP1 POP SWAP2 SWAP1 POP JUMP JUMPDEST PUSH0 PUSH2 0x5C58 DUP3 PUSH2 0x5C2C JUMP JUMPDEST SWAP2 POP DUP2 SWAP1 POP SWAP2 SWAP1 POP JUMP JUMPDEST PUSH32 0x45637561646F7200000000000000000000000000000000000000000000000000 PUSH0 DUP3 ADD MSTORE POP JUMP JUMPDEST PUSH0 PUSH2 0x5C96 PUSH1 0x7 DUP4 PUSH2 0x4751 JUMP JUMPDEST SWAP2 POP PUSH2 0x5CA1 DUP3 PUSH2 0x5C62 JUMP JUMPDEST PUSH1 0x7 DUP3 ADD SWAP1 POP SWAP2 SWAP1 POP JUMP JUMPDEST PUSH0 PUSH2 0x5CB6 DUP3 PUSH2 0x5C8A JUMP JUMPDEST SWAP2 POP DUP2 SWAP1 POP SWAP2 SWAP1 POP JUMP JUMPDEST PUSH32 0x4567797074000000000000000000000000000000000000000000000000000000 PUSH0 DUP3 ADD MSTORE POP JUMP JUMPDEST PUSH0 PUSH2 0x5CF4 PUSH1 0x5 DUP4 PUSH2 0x4751 JUMP JUMPDEST SWAP2 POP PUSH2 0x5CFF DUP3 PUSH2 0x5CC0 JUMP JUMPDEST PUSH1 0x5 DUP3 ADD SWAP1 POP SWAP2 SWAP1 POP JUMP JUMPDEST PUSH0 PUSH2 0x5D14 DUP3 PUSH2 0x5CE8 JUMP JUMPDEST SWAP2 POP DUP2 SWAP1 POP SWAP2 SWAP1 POP JUMP JUMPDEST PUSH32 0x456C2053616C7661646F72000000000000000000000000000000000000000000 PUSH0 DUP3 ADD MSTORE POP JUMP JUMPDEST PUSH0 PUSH2 0x5D52 PUSH1 0xB DUP4 PUSH2 0x4751 JUMP JUMPDEST SWAP2 POP PUSH2 0x5D5D DUP3 PUSH2 0x5D1E JUMP JUMPDEST PUSH1 0xB DUP3 ADD SWAP1 POP SWAP2 SWAP1 POP JUMP JUMPDEST PUSH0 PUSH2 0x5D72 DUP3 PUSH2 0x5D46 JUMP JUMPDEST SWAP2 POP DUP2 SWAP1 POP SWAP2 SWAP1 POP JUMP JUMPDEST PUSH32 0x45717561746F7269616C204775696E6561000000000000000000000000000000 PUSH0 DUP3 ADD MSTORE POP JUMP JUMPDEST PUSH0 PUSH2 0x5DB0 PUSH1 0x11 DUP4 PUSH2 0x4751 JUMP JUMPDEST SWAP2 POP PUSH2 0x5DBB DUP3 PUSH2 0x5D7C JUMP JUMPDEST PUSH1 0x11 DUP3 ADD SWAP1 POP SWAP2 SWAP1 POP JUMP JUMPDEST PUSH0 PUSH2 0x5DD0 DUP3 PUSH2 0x5DA4 JUMP JUMPDEST SWAP2 POP DUP2 SWAP1 POP SWAP2 SWAP1 POP JUMP JUMPDEST PUSH32 0x4572697472656100000000000000000000000000000000000000000000000000 PUSH0 DUP3 ADD MSTORE POP JUMP JUMPDEST PUSH0 PUSH2 0x5E0E PUSH1 0x7 DUP4 PUSH2 0x4751 JUMP JUMPDEST SWAP2 POP PUSH2 0x5E19 DUP3 PUSH2 0x5DDA JUMP JUMPDEST PUSH1 0x7 DUP3 ADD SWAP1 POP SWAP2 SWAP1 POP JUMP JUMPDEST PUSH0 PUSH2 0x5E2E DUP3 PUSH2 0x5E02 JUMP JUMPDEST SWAP2 POP DUP2 SWAP1 POP SWAP2 SWAP1 POP JUMP JUMPDEST PUSH32 0x4573746F6E696100000000000000000000000000000000000000000000000000 PUSH0 DUP3 ADD MSTORE POP JUMP JUMPDEST PUSH0 PUSH2 0x5E6C PUSH1 0x7 DUP4 PUSH2 0x4751 JUMP JUMPDEST SWAP2 POP PUSH2 0x5E77 DUP3 PUSH2 0x5E38 JUMP JUMPDEST PUSH1 0x7 DUP3 ADD SWAP1 POP SWAP2 SWAP1 POP JUMP JUMPDEST PUSH0 PUSH2 0x5E8C DUP3 PUSH2 0x5E60 JUMP JUMPDEST SWAP2 POP DUP2 SWAP1 POP SWAP2 SWAP1 POP JUMP JUMPDEST PUSH32 0x4573776174696E69000000000000000000000000000000000000000000000000 PUSH0 DUP3 ADD MSTORE POP JUMP JUMPDEST PUSH0 PUSH2 0x5ECA PUSH1 0x8 DUP4 PUSH2 0x4751 JUMP JUMPDEST SWAP2 POP PUSH2 0x5ED5 DUP3 PUSH2 0x5E96 JUMP JUMPDEST PUSH1 0x8 DUP3 ADD SWAP1 POP SWAP2 SWAP1 POP JUMP JUMPDEST PUSH0 PUSH2 0x5EEA DUP3 PUSH2 0x5EBE JUMP JUMPDEST SWAP2 POP DUP2 SWAP1 POP SWAP2 SWAP1 POP JUMP JUMPDEST PUSH32 0x457468696F706961000000000000000000000000000000000000000000000000 PUSH0 DUP3 ADD MSTORE POP JUMP JUMPDEST PUSH0 PUSH2 0x5F28 PUSH1 0x8 DUP4 PUSH2 0x4751 JUMP JUMPDEST SWAP2 POP PUSH2 0x5F33 DUP3 PUSH2 0x5EF4 JUMP JUMPDEST PUSH1 0x8 DUP3 ADD SWAP1 POP SWAP2 SWAP1 POP JUMP JUMPDEST PUSH0 PUSH2 0x5F48 DUP3 PUSH2 0x5F1C JUMP JUMPDEST SWAP2 POP DUP2 SWAP1 POP SWAP2 SWAP1 POP JUMP JUMPDEST PUSH32 0x46696A6900000000000000000000000000000000000000000000000000000000 PUSH0 DUP3 ADD MSTORE POP JUMP JUMPDEST PUSH0 PUSH2 0x5F86 PUSH1 0x4 DUP4 PUSH2 0x4751 JUMP JUMPDEST SWAP2 POP PUSH2 0x5F91 DUP3 PUSH2 0x5F52 JUMP JUMPDEST PUSH1 0x4 DUP3 ADD SWAP1 POP SWAP2 SWAP1 POP JUMP JUMPDEST PUSH0 PUSH2 0x5FA6 DUP3 PUSH2 0x5F7A JUMP JUMPDEST SWAP2 POP DUP2 SWAP1 POP SWAP2 SWAP1 POP JUMP JUMPDEST PUSH32 0x46696E6C616E6400000000000000000000000000000000000000000000000000 PUSH0 DUP3 ADD MSTORE POP JUMP JUMPDEST PUSH0 PUSH2 0x5FE4 PUSH1 0x7 DUP4 PUSH2 0x4751 JUMP JUMPDEST SWAP2 POP PUSH2 0x5FEF DUP3 PUSH2 0x5FB0 JUMP JUMPDEST PUSH1 0x7 DUP3 ADD SWAP1 POP SWAP2 SWAP1 POP JUMP JUMPDEST PUSH0 PUSH2 0x6004 DUP3 PUSH2 0x5FD8 JUMP JUMPDEST SWAP2 POP DUP2 SWAP1 POP SWAP2 SWAP1 POP JUMP JUMPDEST PUSH32 0x4672616E63650000000000000000000000000000000000000000000000000000 PUSH0 DUP3 ADD MSTORE POP JUMP JUMPDEST PUSH0 PUSH2 0x6042 PUSH1 0x6 DUP4 PUSH2 0x4751 JUMP JUMPDEST SWAP2 POP PUSH2 0x604D DUP3 PUSH2 0x600E JUMP JUMPDEST PUSH1 0x6 DUP3 ADD SWAP1 POP SWAP2 SWAP1 POP JUMP JUMPDEST PUSH0 PUSH2 0x6062 DUP3 PUSH2 0x6036 JUMP JUMPDEST SWAP2 POP DUP2 SWAP1 POP SWAP2 SWAP1 POP JUMP JUMPDEST PUSH32 0x4761626F6E000000000000000000000000000000000000000000000000000000 PUSH0 DUP3 ADD MSTORE POP JUMP JUMPDEST PUSH0 PUSH2 0x60A0 PUSH1 0x5 DUP4 PUSH2 0x4751 JUMP JUMPDEST SWAP2 POP PUSH2 0x60AB DUP3 PUSH2 0x606C JUMP JUMPDEST PUSH1 0x5 DUP3 ADD SWAP1 POP SWAP2 SWAP1 POP JUMP JUMPDEST PUSH0 PUSH2 0x60C0 DUP3 PUSH2 0x6094 JUMP JUMPDEST SWAP2 POP DUP2 SWAP1 POP SWAP2 SWAP1 POP JUMP JUMPDEST PUSH32 0x47616D6269610000000000000000000000000000000000000000000000000000 PUSH0 DUP3 ADD MSTORE POP JUMP JUMPDEST PUSH0 PUSH2 0x60FE PUSH1 0x6 DUP4 PUSH2 0x4751 JUMP JUMPDEST SWAP2 POP PUSH2 0x6109 DUP3 PUSH2 0x60CA JUMP JUMPDEST PUSH1 0x6 DUP3 ADD SWAP1 POP SWAP2 SWAP1 POP JUMP JUMPDEST PUSH0 PUSH2 0x611E DUP3 PUSH2 0x60F2 JUMP JUMPDEST SWAP2 POP DUP2 SWAP1 POP SWAP2 SWAP1 POP JUMP JUMPDEST PUSH32 0x47656F7267696100000000000000000000000000000000000000000000000000 PUSH0 DUP3 ADD MSTORE POP JUMP JUMPDEST PUSH0 PUSH2 0x615C PUSH1 0x7 DUP4 PUSH2 0x4751 JUMP JUMPDEST SWAP2 POP PUSH2 0x6167 DUP3 PUSH2 0x6128 JUMP JUMPDEST PUSH1 0x7 DUP3 ADD SWAP1 POP SWAP2 SWAP1 POP JUMP JUMPDEST PUSH0 PUSH2 0x617C DUP3 PUSH2 0x6150 JUMP JUMPDEST SWAP2 POP DUP2 SWAP1 POP SWAP2 SWAP1 POP JUMP JUMPDEST PUSH32 0x4765726D616E7900000000000000000000000000000000000000000000000000 PUSH0 DUP3 ADD MSTORE POP JUMP JUMPDEST PUSH0 PUSH2 0x61BA PUSH1 0x7 DUP4 PUSH2 0x4751 JUMP JUMPDEST SWAP2 POP PUSH2 0x61C5 DUP3 PUSH2 0x6186 JUMP JUMPDEST PUSH1 0x7 DUP3 ADD SWAP1 POP SWAP2 SWAP1 POP JUMP JUMPDEST PUSH0 PUSH2 0x61DA DUP3 PUSH2 0x61AE JUMP JUMPDEST SWAP2 POP DUP2 SWAP1 POP SWAP2 SWAP1 POP JUMP JUMPDEST PUSH32 0x4768616E61000000000000000000000000000000000000000000000000000000 PUSH0 DUP3 ADD MSTORE POP JUMP JUMPDEST PUSH0 PUSH2 0x6218 PUSH1 0x5 DUP4 PUSH2 0x4751 JUMP JUMPDEST SWAP2 POP PUSH2 0x6223 DUP3 PUSH2 0x61E4 JUMP JUMPDEST PUSH1 0x5 DUP3 ADD SWAP1 POP SWAP2 SWAP1 POP JUMP JUMPDEST PUSH0 PUSH2 0x6238 DUP3 PUSH2 0x620C JUMP JUMPDEST SWAP2 POP DUP2 SWAP1 POP SWAP2 SWAP1 POP JUMP JUMPDEST PUSH32 0x4772656563650000000000000000000000000000000000000000000000000000 PUSH0 DUP3 ADD MSTORE POP JUMP JUMPDEST PUSH0 PUSH2 0x6276 PUSH1 0x6 DUP4 PUSH2 0x4751 JUMP JUMPDEST SWAP2 POP PUSH2 0x6281 DUP3 PUSH2 0x6242 JUMP JUMPDEST PUSH1 0x6 DUP3 ADD SWAP1 POP SWAP2 SWAP1 POP JUMP JUMPDEST PUSH0 PUSH2 0x6296 DUP3 PUSH2 0x626A JUMP JUMPDEST SWAP2 POP DUP2 SWAP1 POP SWAP2 SWAP1 POP JUMP JUMPDEST PUSH32 0x4772656E61646100000000000000000000000000000000000000000000000000 PUSH0 DUP3 ADD MSTORE POP JUMP JUMPDEST PUSH0 PUSH2 0x62D4 PUSH1 0x7 DUP4 PUSH2 0x4751 JUMP JUMPDEST SWAP2 POP PUSH2 0x62DF DUP3 PUSH2 0x62A0 JUMP JUMPDEST PUSH1 0x7 DUP3 ADD SWAP1 POP SWAP2 SWAP1 POP JUMP JUMPDEST PUSH0 PUSH2 0x62F4 DUP3 PUSH2 0x62C8 JUMP JUMPDEST SWAP2 POP DUP2 SWAP1 POP SWAP2 SWAP1 POP JUMP JUMPDEST PUSH32 0x47756174656D616C610000000000000000000000000000000000000000000000 PUSH0 DUP3 ADD MSTORE POP JUMP JUMPDEST PUSH0 PUSH2 0x6332 PUSH1 0x9 DUP4 PUSH2 0x4751 JUMP JUMPDEST SWAP2 POP PUSH2 0x633D DUP3 PUSH2 0x62FE JUMP JUMPDEST PUSH1 0x9 DUP3 ADD SWAP1 POP SWAP2 SWAP1 POP JUMP JUMPDEST PUSH0 PUSH2 0x6352 DUP3 PUSH2 0x6326 JUMP JUMPDEST SWAP2 POP DUP2 SWAP1 POP SWAP2 SWAP1 POP JUMP JUMPDEST PUSH32 0x4775696E65610000000000000000000000000000000000000000000000000000 PUSH0 DUP3 ADD MSTORE POP JUMP JUMPDEST PUSH0 PUSH2 0x6390 PUSH1 0x6 DUP4 PUSH2 0x4751 JUMP JUMPDEST SWAP2 POP PUSH2 0x639B DUP3 PUSH2 0x635C JUMP JUMPDEST PUSH1 0x6 DUP3 ADD SWAP1 POP SWAP2 SWAP1 POP JUMP JUMPDEST PUSH0 PUSH2 0x63B0 DUP3 PUSH2 0x6384 JUMP JUMPDEST SWAP2 POP DUP2 SWAP1 POP SWAP2 SWAP1 POP JUMP JUMPDEST PUSH32 0x4775696E65612D42697373617500000000000000000000000000000000000000 PUSH0 DUP3 ADD MSTORE POP JUMP JUMPDEST PUSH0 PUSH2 0x63EE PUSH1 0xD DUP4 PUSH2 0x4751 JUMP JUMPDEST SWAP2 POP PUSH2 0x63F9 DUP3 PUSH2 0x63BA JUMP JUMPDEST PUSH1 0xD DUP3 ADD SWAP1 POP SWAP2 SWAP1 POP JUMP JUMPDEST PUSH0 PUSH2 0x640E DUP3 PUSH2 0x63E2 JUMP JUMPDEST SWAP2 POP DUP2 SWAP1 POP SWAP2 SWAP1 POP JUMP JUMPDEST PUSH32 0x477579616E610000000000000000000000000000000000000000000000000000 PUSH0 DUP3 ADD MSTORE POP JUMP JUMPDEST PUSH0 PUSH2 0x644C PUSH1 0x6 DUP4 PUSH2 0x4751 JUMP JUMPDEST SWAP2 POP PUSH2 0x6457 DUP3 PUSH2 0x6418 JUMP JUMPDEST PUSH1 0x6 DUP3 ADD SWAP1 POP SWAP2 SWAP1 POP JUMP JUMPDEST PUSH0 PUSH2 0x646C DUP3 PUSH2 0x6440 JUMP JUMPDEST SWAP2 POP DUP2 SWAP1 POP SWAP2 SWAP1 POP JUMP JUMPDEST PUSH32 0x4861697469000000000000000000000000000000000000000000000000000000 PUSH0 DUP3 ADD MSTORE POP JUMP JUMPDEST PUSH0 PUSH2 0x64AA PUSH1 0x5 DUP4 PUSH2 0x4751 JUMP JUMPDEST SWAP2 POP PUSH2 0x64B5 DUP3 PUSH2 0x6476 JUMP JUMPDEST PUSH1 0x5 DUP3 ADD SWAP1 POP SWAP2 SWAP1 POP JUMP JUMPDEST PUSH0 PUSH2 0x64CA DUP3 PUSH2 0x649E JUMP JUMPDEST SWAP2 POP DUP2 SWAP1 POP SWAP2 SWAP1 POP JUMP JUMPDEST PUSH32 0x486F6E6475726173000000000000000000000000000000000000000000000000 PUSH0 DUP3 ADD MSTORE POP JUMP JUMPDEST PUSH0 PUSH2 0x6508 PUSH1 0x8 DUP4 PUSH2 0x4751 JUMP JUMPDEST SWAP2 POP PUSH2 0x6513 DUP3 PUSH2 0x64D4 JUMP JUMPDEST PUSH1 0x8 DUP3 ADD SWAP1 POP SWAP2 SWAP1 POP JUMP JUMPDEST PUSH0 PUSH2 0x6528 DUP3 PUSH2 0x64FC JUMP JUMPDEST SWAP2 POP DUP2 SWAP1 POP SWAP2 SWAP1 POP JUMP JUMPDEST PUSH32 0x48756E6761727900000000000000000000000000000000000000000000000000 PUSH0 DUP3 ADD MSTORE POP JUMP JUMPDEST PUSH0 PUSH2 0x6566 PUSH1 0x7 DUP4 PUSH2 0x4751 JUMP JUMPDEST SWAP2 POP PUSH2 0x6571 DUP3 PUSH2 0x6532 JUMP JUMPDEST PUSH1 0x7 DUP3 ADD SWAP1 POP SWAP2 SWAP1 POP JUMP JUMPDEST PUSH0 PUSH2 0x6586 DUP3 PUSH2 0x655A JUMP JUMPDEST SWAP2 POP DUP2 SWAP1 POP SWAP2 SWAP1 POP JUMP JUMPDEST PUSH32 0x4963656C616E6400000000000000000000000000000000000000000000000000 PUSH0 DUP3 ADD MSTORE POP JUMP JUMPDEST PUSH0 PUSH2 0x65C4 PUSH1 0x7 DUP4 PUSH2 0x4751 JUMP JUMPDEST SWAP2 POP PUSH2 0x65CF DUP3 PUSH2 0x6590 JUMP JUMPDEST PUSH1 0x7 DUP3 ADD SWAP1 POP SWAP2 SWAP1 POP JUMP JUMPDEST PUSH0 PUSH2 0x65E4 DUP3 PUSH2 0x65B8 JUMP JUMPDEST SWAP2 POP DUP2 SWAP1 POP SWAP2 SWAP1 POP JUMP JUMPDEST PUSH32 0x496E646961000000000000000000000000000000000000000000000000000000 PUSH0 DUP3 ADD MSTORE POP JUMP JUMPDEST PUSH0 PUSH2 0x6622 PUSH1 0x5 DUP4 PUSH2 0x4751 JUMP JUMPDEST SWAP2 POP PUSH2 0x662D DUP3 PUSH2 0x65EE JUMP JUMPDEST PUSH1 0x5 DUP3 ADD SWAP1 POP SWAP2 SWAP1 POP JUMP JUMPDEST PUSH0 PUSH2 0x6642 DUP3 PUSH2 0x6616 JUMP JUMPDEST SWAP2 POP DUP2 SWAP1 POP SWAP2 SWAP1 POP JUMP JUMPDEST PUSH32 0x496E646F6E657369610000000000000000000000000000000000000000000000 PUSH0 DUP3 ADD MSTORE POP JUMP JUMPDEST PUSH0 PUSH2 0x6680 PUSH1 0x9 DUP4 PUSH2 0x4751 JUMP JUMPDEST SWAP2 POP PUSH2 0x668B DUP3 PUSH2 0x664C JUMP JUMPDEST PUSH1 0x9 DUP3 ADD SWAP1 POP SWAP2 SWAP1 POP JUMP JUMPDEST PUSH0 PUSH2 0x66A0 DUP3 PUSH2 0x6674 JUMP JUMPDEST SWAP2 POP DUP2 SWAP1 POP SWAP2 SWAP1 POP JUMP JUMPDEST PUSH32 0x4972616E00000000000000000000000000000000000000000000000000000000 PUSH0 DUP3 ADD MSTORE POP JUMP JUMPDEST PUSH0 PUSH2 0x66DE PUSH1 0x4 DUP4 PUSH2 0x4751 JUMP JUMPDEST SWAP2 POP PUSH2 0x66E9 DUP3 PUSH2 0x66AA JUMP JUMPDEST PUSH1 0x4 DUP3 ADD SWAP1 POP SWAP2 SWAP1 POP JUMP JUMPDEST PUSH0 PUSH2 0x66FE DUP3 PUSH2 0x66D2 JUMP JUMPDEST SWAP2 POP DUP2 SWAP1 POP SWAP2 SWAP1 POP JUMP JUMPDEST PUSH32 0x4972617100000000000000000000000000000000000000000000000000000000 PUSH0 DUP3 ADD MSTORE POP JUMP JUMPDEST PUSH0 PUSH2 0x673C PUSH1 0x4 DUP4 PUSH2 0x4751 JUMP JUMPDEST SWAP2 POP PUSH2 0x6747 DUP3 PUSH2 0x6708 JUMP JUMPDEST PUSH1 0x4 DUP3 ADD SWAP1 POP SWAP2 SWAP1 POP JUMP JUMPDEST PUSH0 PUSH2 0x675C DUP3 PUSH2 0x6730 JUMP JUMPDEST SWAP2 POP DUP2 SWAP1 POP SWAP2 SWAP1 POP JUMP JUMPDEST PUSH32 0x4972656C616E6400000000000000000000000000000000000000000000000000 PUSH0 DUP3 ADD MSTORE POP JUMP JUMPDEST PUSH0 PUSH2 0x679A PUSH1 0x7 DUP4 PUSH2 0x4751 JUMP JUMPDEST SWAP2 POP PUSH2 0x67A5 DUP3 PUSH2 0x6766 JUMP JUMPDEST PUSH1 0x7 DUP3 ADD SWAP1 POP SWAP2 SWAP1 POP JUMP JUMPDEST PUSH0 PUSH2 0x67BA DUP3 PUSH2 0x678E JUMP JUMPDEST SWAP2 POP DUP2 SWAP1 POP SWAP2 SWAP1 POP JUMP JUMPDEST PUSH32 0x49737261656C0000000000000000000000000000000000000000000000000000 PUSH0 DUP3 ADD MSTORE POP JUMP JUMPDEST PUSH0 PUSH2 0x67F8 PUSH1 0x6 DUP4 PUSH2 0x4751 JUMP JUMPDEST SWAP2 POP PUSH2 0x6803 DUP3 PUSH2 0x67C4 JUMP JUMPDEST PUSH1 0x6 DUP3 ADD SWAP1 POP SWAP2 SWAP1 POP JUMP JUMPDEST PUSH0 PUSH2 0x6818 DUP3 PUSH2 0x67EC JUMP JUMPDEST SWAP2 POP DUP2 SWAP1 POP SWAP2 SWAP1 POP JUMP JUMPDEST PUSH32 0x4974616C79000000000000000000000000000000000000000000000000000000 PUSH0 DUP3 ADD MSTORE POP JUMP JUMPDEST PUSH0 PUSH2 0x6856 PUSH1 0x5 DUP4 PUSH2 0x4751 JUMP JUMPDEST SWAP2 POP PUSH2 0x6861 DUP3 PUSH2 0x6822 JUMP JUMPDEST PUSH1 0x5 DUP3 ADD SWAP1 POP SWAP2 SWAP1 POP JUMP JUMPDEST PUSH0 PUSH2 0x6876 DUP3 PUSH2 0x684A JUMP JUMPDEST SWAP2 POP DUP2 SWAP1 POP SWAP2 SWAP1 POP JUMP JUMPDEST PUSH32 0x4A616D6169636100000000000000000000000000000000000000000000000000 PUSH0 DUP3 ADD MSTORE POP JUMP JUMPDEST PUSH0 PUSH2 0x68B4 PUSH1 0x7 DUP4 PUSH2 0x4751 JUMP JUMPDEST SWAP2 POP PUSH2 0x68BF DUP3 PUSH2 0x6880 JUMP JUMPDEST PUSH1 0x7 DUP3 ADD SWAP1 POP SWAP2 SWAP1 POP JUMP JUMPDEST PUSH0 PUSH2 0x68D4 DUP3 PUSH2 0x68A8 JUMP JUMPDEST SWAP2 POP DUP2 SWAP1 POP SWAP2 SWAP1 POP JUMP JUMPDEST PUSH32 0x4A6170616E000000000000000000000000000000000000000000000000000000 PUSH0 DUP3 ADD MSTORE POP JUMP JUMPDEST PUSH0 PUSH2 0x6912 PUSH1 0x5 DUP4 PUSH2 0x4751 JUMP JUMPDEST SWAP2 POP PUSH2 0x691D DUP3 PUSH2 0x68DE JUMP JUMPDEST PUSH1 0x5 DUP3 ADD SWAP1 POP SWAP2 SWAP1 POP JUMP JUMPDEST PUSH0 PUSH2 0x6932 DUP3 PUSH2 0x6906 JUMP JUMPDEST SWAP2 POP DUP2 SWAP1 POP SWAP2 SWAP1 POP JUMP JUMPDEST PUSH32 0x4A6F7264616E0000000000000000000000000000000000000000000000000000 PUSH0 DUP3 ADD MSTORE POP JUMP JUMPDEST PUSH0 PUSH2 0x6970 PUSH1 0x6 DUP4 PUSH2 0x4751 JUMP JUMPDEST SWAP2 POP PUSH2 0x697B DUP3 PUSH2 0x693C JUMP JUMPDEST PUSH1 0x6 DUP3 ADD SWAP1 POP SWAP2 SWAP1 POP JUMP JUMPDEST PUSH0 PUSH2 0x6990 DUP3 PUSH2 0x6964 JUMP JUMPDEST SWAP2 POP DUP2 SWAP1 POP SWAP2 SWAP1 POP JUMP JUMPDEST PUSH32 0x4B617A616B687374616E00000000000000000000000000000000000000000000 PUSH0 DUP3 ADD MSTORE POP JUMP JUMPDEST PUSH0 PUSH2 0x69CE PUSH1 0xA DUP4 PUSH2 0x4751 JUMP JUMPDEST SWAP2 POP PUSH2 0x69D9 DUP3 PUSH2 0x699A JUMP JUMPDEST PUSH1 0xA DUP3 ADD SWAP1 POP SWAP2 SWAP1 POP JUMP JUMPDEST PUSH0 PUSH2 0x69EE DUP3 PUSH2 0x69C2 JUMP JUMPDEST SWAP2 POP DUP2 SWAP1 POP SWAP2 SWAP1 POP JUMP JUMPDEST PUSH32 0x4B656E7961000000000000000000000000000000000000000000000000000000 PUSH0 DUP3 ADD MSTORE POP JUMP JUMPDEST PUSH0 PUSH2 0x6A2C PUSH1 0x5 DUP4 PUSH2 0x4751 JUMP JUMPDEST SWAP2 POP PUSH2 0x6A37 DUP3 PUSH2 0x69F8 JUMP JUMPDEST PUSH1 0x5 DUP3 ADD SWAP1 POP SWAP2 SWAP1 POP JUMP JUMPDEST PUSH0 PUSH2 0x6A4C DUP3 PUSH2 0x6A20 JUMP JUMPDEST SWAP2 POP DUP2 SWAP1 POP SWAP2 SWAP1 POP JUMP JUMPDEST PUSH32 0x4B69726962617469000000000000000000000000000000000000000000000000 PUSH0 DUP3 ADD MSTORE POP JUMP JUMPDEST PUSH0 PUSH2 0x6A8A PUSH1 0x8 DUP4 PUSH2 0x4751 JUMP JUMPDEST SWAP2 POP PUSH2 0x6A95 DUP3 PUSH2 0x6A56 JUMP JUMPDEST PUSH1 0x8 DUP3 ADD SWAP1 POP SWAP2 SWAP1 POP JUMP JUMPDEST PUSH0 PUSH2 0x6AAA DUP3 PUSH2 0x6A7E JUMP JUMPDEST SWAP2 POP DUP2 SWAP1 POP SWAP2 SWAP1 POP JUMP JUMPDEST PUSH32 0x4B75776169740000000000000000000000000000000000000000000000000000 PUSH0 DUP3 ADD MSTORE POP JUMP JUMPDEST PUSH0 PUSH2 0x6AE8 PUSH1 0x6 DUP4 PUSH2 0x4751 JUMP JUMPDEST SWAP2 POP PUSH2 0x6AF3 DUP3 PUSH2 0x6AB4 JUMP JUMPDEST PUSH1 0x6 DUP3 ADD SWAP1 POP SWAP2 SWAP1 POP JUMP JUMPDEST PUSH0 PUSH2 0x6B08 DUP3 PUSH2 0x6ADC JUMP JUMPDEST SWAP2 POP DUP2 SWAP1 POP SWAP2 SWAP1 POP JUMP JUMPDEST PUSH32 0x4B797267797A7374616E00000000000000000000000000000000000000000000 PUSH0 DUP3 ADD MSTORE POP JUMP JUMPDEST PUSH0 PUSH2 0x6B46 PUSH1 0xA DUP4 PUSH2 0x4751 JUMP JUMPDEST SWAP2 POP PUSH2 0x6B51 DUP3 PUSH2 0x6B12 JUMP JUMPDEST PUSH1 0xA DUP3 ADD SWAP1 POP SWAP2 SWAP1 POP JUMP JUMPDEST PUSH0 PUSH2 0x6B66 DUP3 PUSH2 0x6B3A JUMP JUMPDEST SWAP2 POP DUP2 SWAP1 POP SWAP2 SWAP1 POP JUMP JUMPDEST PUSH32 0x4C616F7300000000000000000000000000000000000000000000000000000000 PUSH0 DUP3 ADD MSTORE POP JUMP JUMPDEST PUSH0 PUSH2 0x6BA4 PUSH1 0x4 DUP4 PUSH2 0x4751 JUMP JUMPDEST SWAP2 POP PUSH2 0x6BAF DUP3 PUSH2 0x6B70 JUMP JUMPDEST PUSH1 0x4 DUP3 ADD SWAP1 POP SWAP2 SWAP1 POP JUMP JUMPDEST PUSH0 PUSH2 0x6BC4 DUP3 PUSH2 0x6B98 JUMP JUMPDEST SWAP2 POP DUP2 SWAP1 POP SWAP2 SWAP1 POP JUMP JUMPDEST PUSH32 0x4C61747669610000000000000000000000000000000000000000000000000000 PUSH0 DUP3 ADD MSTORE POP JUMP JUMPDEST PUSH0 PUSH2 0x6C02 PUSH1 0x6 DUP4 PUSH2 0x4751 JUMP JUMPDEST SWAP2 POP PUSH2 0x6C0D DUP3 PUSH2 0x6BCE JUMP JUMPDEST PUSH1 0x6 DUP3 ADD SWAP1 POP SWAP2 SWAP1 POP JUMP JUMPDEST PUSH0 PUSH2 0x6C22 DUP3 PUSH2 0x6BF6 JUMP JUMPDEST SWAP2 POP DUP2 SWAP1 POP SWAP2 SWAP1 POP JUMP JUMPDEST PUSH32 0x4C6562616E6F6E00000000000000000000000000000000000000000000000000 PUSH0 DUP3 ADD MSTORE POP JUMP JUMPDEST PUSH0 PUSH2 0x6C60 PUSH1 0x7 DUP4 PUSH2 0x4751 JUMP JUMPDEST SWAP2 POP PUSH2 0x6C6B DUP3 PUSH2 0x6C2C JUMP JUMPDEST PUSH1 0x7 DUP3 ADD SWAP1 POP SWAP2 SWAP1 POP JUMP JUMPDEST PUSH0 PUSH2 0x6C80 DUP3 PUSH2 0x6C54 JUMP JUMPDEST SWAP2 POP DUP2 SWAP1 POP SWAP2 SWAP1 POP JUMP JUMPDEST PUSH32 0x4C65736F74686F00000000000000000000000000000000000000000000000000 PUSH0 DUP3 ADD MSTORE POP JUMP JUMPDEST PUSH0 PUSH2 0x6CBE PUSH1 0x7 DUP4 PUSH2 0x4751 JUMP JUMPDEST SWAP2 POP PUSH2 0x6CC9 DUP3 PUSH2 0x6C8A JUMP JUMPDEST PUSH1 0x7 DUP3 ADD SWAP1 POP SWAP2 SWAP1 POP JUMP JUMPDEST PUSH0 PUSH2 0x6CDE DUP3 PUSH2 0x6CB2 JUMP JUMPDEST SWAP2 POP DUP2 SWAP1 POP SWAP2 SWAP1 POP JUMP JUMPDEST PUSH32 0x4C69626572696100000000000000000000000000000000000000000000000000 PUSH0 DUP3 ADD MSTORE POP JUMP JUMPDEST PUSH0 PUSH2 0x6D1C PUSH1 0x7 DUP4 PUSH2 0x4751 JUMP JUMPDEST SWAP2 POP PUSH2 0x6D27 DUP3 PUSH2 0x6CE8 JUMP JUMPDEST PUSH1 0x7 DUP3 ADD SWAP1 POP SWAP2 SWAP1 POP JUMP JUMPDEST PUSH0 PUSH2 0x6D3C DUP3 PUSH2 0x6D10 JUMP JUMPDEST SWAP2 POP DUP2 SWAP1 POP SWAP2 SWAP1 POP JUMP JUMPDEST PUSH32 0x4C69627961000000000000000000000000000000000000000000000000000000 PUSH0 DUP3 ADD MSTORE POP JUMP JUMPDEST PUSH0 PUSH2 0x6D7A PUSH1 0x5 DUP4 PUSH2 0x4751 JUMP JUMPDEST SWAP2 POP PUSH2 0x6D85 DUP3 PUSH2 0x6D46 JUMP JUMPDEST PUSH1 0x5 DUP3 ADD SWAP1 POP SWAP2 SWAP1 POP JUMP JUMPDEST PUSH0 PUSH2 0x6D9A DUP3 PUSH2 0x6D6E JUMP JUMPDEST SWAP2 POP DUP2 SWAP1 POP SWAP2 SWAP1 POP JUMP JUMPDEST PUSH32 0x4C6965636874656E737465696E00000000000000000000000000000000000000 PUSH0 DUP3 ADD MSTORE POP JUMP JUMPDEST PUSH0 PUSH2 0x6DD8 PUSH1 0xD DUP4 PUSH2 0x4751 JUMP JUMPDEST SWAP2 POP PUSH2 0x6DE3 DUP3 PUSH2 0x6DA4 JUMP JUMPDEST PUSH1 0xD DUP3 ADD SWAP1 POP SWAP2 SWAP1 POP JUMP JUMPDEST PUSH0 PUSH2 0x6DF8 DUP3 PUSH2 0x6DCC JUMP JUMPDEST SWAP2 POP DUP2 SWAP1 POP SWAP2 SWAP1 POP JUMP JUMPDEST PUSH32 0x4C69746875616E69610000000000000000000000000000000000000000000000 PUSH0 DUP3 ADD MSTORE POP JUMP JUMPDEST PUSH0 PUSH2 0x6E36 PUSH1 0x9 DUP4 PUSH2 0x4751 JUMP JUMPDEST SWAP2 POP PUSH2 0x6E41 DUP3 PUSH2 0x6E02 JUMP JUMPDEST PUSH1 0x9 DUP3 ADD SWAP1 POP SWAP2 SWAP1 POP JUMP JUMPDEST PUSH0 PUSH2 0x6E56 DUP3 PUSH2 0x6E2A JUMP JUMPDEST SWAP2 POP DUP2 SWAP1 POP SWAP2 SWAP1 POP JUMP JUMPDEST PUSH32 0x4C7578656D626F75726700000000000000000000000000000000000000000000 PUSH0 DUP3 ADD MSTORE POP JUMP JUMPDEST PUSH0 PUSH2 0x6E94 PUSH1 0xA DUP4 PUSH2 0x4751 JUMP JUMPDEST SWAP2 POP PUSH2 0x6E9F DUP3 PUSH2 0x6E60 JUMP JUMPDEST PUSH1 0xA DUP3 ADD SWAP1 POP SWAP2 SWAP1 POP JUMP JUMPDEST PUSH0 PUSH2 0x6EB4 DUP3 PUSH2 0x6E88 JUMP JUMPDEST SWAP2 POP DUP2 SWAP1 POP SWAP2 SWAP1 POP JUMP JUMPDEST PUSH32 0x4D61646167617363617200000000000000000000000000000000000000000000 PUSH0 DUP3 ADD MSTORE POP JUMP JUMPDEST PUSH0 PUSH2 0x6EF2 PUSH1 0xA DUP4 PUSH2 0x4751 JUMP JUMPDEST SWAP2 POP PUSH2 0x6EFD DUP3 PUSH2 0x6EBE JUMP JUMPDEST PUSH1 0xA DUP3 ADD SWAP1 POP SWAP2 SWAP1 POP JUMP JUMPDEST PUSH0 PUSH2 0x6F12 DUP3 PUSH2 0x6EE6 JUMP JUMPDEST SWAP2 POP DUP2 SWAP1 POP SWAP2 SWAP1 POP JUMP JUMPDEST PUSH32 0x4D616C6177690000000000000000000000000000000000000000000000000000 PUSH0 DUP3 ADD MSTORE POP JUMP JUMPDEST PUSH0 PUSH2 0x6F50 PUSH1 0x6 DUP4 PUSH2 0x4751 JUMP JUMPDEST SWAP2 POP PUSH2 0x6F5B DUP3 PUSH2 0x6F1C JUMP JUMPDEST PUSH1 0x6 DUP3 ADD SWAP1 POP SWAP2 SWAP1 POP JUMP JUMPDEST PUSH0 PUSH2 0x6F70 DUP3 PUSH2 0x6F44 JUMP JUMPDEST SWAP2 POP DUP2 SWAP1 POP SWAP2 SWAP1 POP JUMP JUMPDEST PUSH32 0x4D616C6179736961000000000000000000000000000000000000000000000000 PUSH0 DUP3 ADD MSTORE POP JUMP JUMPDEST PUSH0 PUSH2 0x6FAE PUSH1 0x8 DUP4 PUSH2 0x4751 JUMP JUMPDEST SWAP2 POP PUSH2 0x6FB9 DUP3 PUSH2 0x6F7A JUMP JUMPDEST PUSH1 0x8 DUP3 ADD SWAP1 POP SWAP2 SWAP1 POP JUMP JUMPDEST PUSH0 PUSH2 0x6FCE DUP3 PUSH2 0x6FA2 JUMP JUMPDEST SWAP2 POP DUP2 SWAP1 POP SWAP2 SWAP1 POP JUMP JUMPDEST PUSH32 0x4D616C6469766573000000000000000000000000000000000000000000000000 PUSH0 DUP3 ADD MSTORE POP JUMP JUMPDEST PUSH0 PUSH2 0x700C PUSH1 0x8 DUP4 PUSH2 0x4751 JUMP JUMPDEST SWAP2 POP PUSH2 0x7017 DUP3 PUSH2 0x6FD8 JUMP JUMPDEST PUSH1 0x8 DUP3 ADD SWAP1 POP SWAP2 SWAP1 POP JUMP JUMPDEST PUSH0 PUSH2 0x702C DUP3 PUSH2 0x7000 JUMP JUMPDEST SWAP2 POP DUP2 SWAP1 POP SWAP2 SWAP1 POP JUMP JUMPDEST PUSH32 0x4D616C6900000000000000000000000000000000000000000000000000000000 PUSH0 DUP3 ADD MSTORE POP JUMP JUMPDEST PUSH0 PUSH2 0x706A PUSH1 0x4 DUP4 PUSH2 0x4751 JUMP JUMPDEST SWAP2 POP PUSH2 0x7075 DUP3 PUSH2 0x7036 JUMP JUMPDEST PUSH1 0x4 DUP3 ADD SWAP1 POP SWAP2 SWAP1 POP JUMP JUMPDEST PUSH0 PUSH2 0x708A DUP3 PUSH2 0x705E JUMP JUMPDEST SWAP2 POP DUP2 SWAP1 POP SWAP2 SWAP1 POP JUMP JUMPDEST PUSH32 0x4D616C7461000000000000000000000000000000000000000000000000000000 PUSH0 DUP3 ADD MSTORE POP JUMP JUMPDEST PUSH0 PUSH2 0x70C8 PUSH1 0x5 DUP4 PUSH2 0x4751 JUMP JUMPDEST SWAP2 POP PUSH2 0x70D3 DUP3 PUSH2 0x7094 JUMP JUMPDEST PUSH1 0x5 DUP3 ADD SWAP1 POP SWAP2 SWAP1 POP JUMP JUMPDEST PUSH0 PUSH2 0x70E8 DUP3 PUSH2 0x70BC JUMP JUMPDEST SWAP2 POP DUP2 SWAP1 POP SWAP2 SWAP1 POP JUMP JUMPDEST PUSH32 0x4D61727368616C6C2049736C616E647300000000000000000000000000000000 PUSH0 DUP3 ADD MSTORE POP JUMP JUMPDEST PUSH0 PUSH2 0x7126 PUSH1 0x10 DUP4 PUSH2 0x4751 JUMP JUMPDEST SWAP2 POP PUSH2 0x7131 DUP3 PUSH2 0x70F2 JUMP JUMPDEST PUSH1 0x10 DUP3 ADD SWAP1 POP SWAP2 SWAP1 POP JUMP JUMPDEST PUSH0 PUSH2 0x7146 DUP3 PUSH2 0x711A JUMP JUMPDEST SWAP2 POP DUP2 SWAP1 POP SWAP2 SWAP1 POP JUMP JUMPDEST PUSH32 0x4D6175726974616E696100000000000000000000000000000000000000000000 PUSH0 DUP3 ADD MSTORE POP JUMP JUMPDEST PUSH0 PUSH2 0x7184 PUSH1 0xA DUP4 PUSH2 0x4751 JUMP JUMPDEST SWAP2 POP PUSH2 0x718F DUP3 PUSH2 0x7150 JUMP JUMPDEST PUSH1 0xA DUP3 ADD SWAP1 POP SWAP2 SWAP1 POP JUMP JUMPDEST PUSH0 PUSH2 0x71A4 DUP3 PUSH2 0x7178 JUMP JUMPDEST SWAP2 POP DUP2 SWAP1 POP SWAP2 SWAP1 POP JUMP JUMPDEST PUSH32 0x4D61757269746975730000000000000000000000000000000000000000000000 PUSH0 DUP3 ADD MSTORE POP JUMP JUMPDEST PUSH0 PUSH2 0x71E2 PUSH1 0x9 DUP4 PUSH2 0x4751 JUMP JUMPDEST SWAP2 POP PUSH2 0x71ED DUP3 PUSH2 0x71AE JUMP JUMPDEST PUSH1 0x9 DUP3 ADD SWAP1 POP SWAP2 SWAP1 POP JUMP JUMPDEST PUSH0 PUSH2 0x7202 DUP3 PUSH2 0x71D6 JUMP JUMPDEST SWAP2 POP DUP2 SWAP1 POP SWAP2 SWAP1 POP JUMP JUMPDEST PUSH32 0x4D657869636F0000000000000000000000000000000000000000000000000000 PUSH0 DUP3 ADD MSTORE POP JUMP JUMPDEST PUSH0 PUSH2 0x7240 PUSH1 0x6 DUP4 PUSH2 0x4751 JUMP JUMPDEST SWAP2 POP PUSH2 0x724B DUP3 PUSH2 0x720C JUMP JUMPDEST PUSH1 0x6 DUP3 ADD SWAP1 POP SWAP2 SWAP1 POP JUMP JUMPDEST PUSH0 PUSH2 0x7260 DUP3 PUSH2 0x7234 JUMP JUMPDEST SWAP2 POP DUP2 SWAP1 POP SWAP2 SWAP1 POP JUMP JUMPDEST PUSH32 0x4D6963726F6E6573696100000000000000000000000000000000000000000000 PUSH0 DUP3 ADD MSTORE POP JUMP JUMPDEST PUSH0 PUSH2 0x729E PUSH1 0xA DUP4 PUSH2 0x4751 JUMP JUMPDEST SWAP2 POP PUSH2 0x72A9 DUP3 PUSH2 0x726A JUMP JUMPDEST PUSH1 0xA DUP3 ADD SWAP1 POP SWAP2 SWAP1 POP JUMP JUMPDEST PUSH0 PUSH2 0x72BE DUP3 PUSH2 0x7292 JUMP JUMPDEST SWAP2 POP DUP2 SWAP1 POP SWAP2 SWAP1 POP JUMP JUMPDEST PUSH32 0x4D6F6C646F766100000000000000000000000000000000000000000000000000 PUSH0 DUP3 ADD MSTORE POP JUMP JUMPDEST PUSH0 PUSH2 0x72FC PUSH1 0x7 DUP4 PUSH2 0x4751 JUMP JUMPDEST SWAP2 POP PUSH2 0x7307 DUP3 PUSH2 0x72C8 JUMP JUMPDEST PUSH1 0x7 DUP3 ADD SWAP1 POP SWAP2 SWAP1 POP JUMP JUMPDEST PUSH0 PUSH2 0x731C DUP3 PUSH2 0x72F0 JUMP JUMPDEST SWAP2 POP DUP2 SWAP1 POP SWAP2 SWAP1 POP JUMP JUMPDEST PUSH32 0x4D6F6E61636F0000000000000000000000000000000000000000000000000000 PUSH0 DUP3 ADD MSTORE POP JUMP JUMPDEST PUSH0 PUSH2 0x735A PUSH1 0x6 DUP4 PUSH2 0x4751 JUMP JUMPDEST SWAP2 POP PUSH2 0x7365 DUP3 PUSH2 0x7326 JUMP JUMPDEST PUSH1 0x6 DUP3 ADD SWAP1 POP SWAP2 SWAP1 POP JUMP JUMPDEST PUSH0 PUSH2 0x737A DUP3 PUSH2 0x734E JUMP JUMPDEST SWAP2 POP DUP2 SWAP1 POP SWAP2 SWAP1 POP JUMP JUMPDEST PUSH32 0x4D6F6E676F6C6961000000000000000000000000000000000000000000000000 PUSH0 DUP3 ADD MSTORE POP JUMP JUMPDEST PUSH0 PUSH2 0x73B8 PUSH1 0x8 DUP4 PUSH2 0x4751 JUMP JUMPDEST SWAP2 POP PUSH2 0x73C3 DUP3 PUSH2 0x7384 JUMP JUMPDEST PUSH1 0x8 DUP3 ADD SWAP1 POP SWAP2 SWAP1 POP JUMP JUMPDEST PUSH0 PUSH2 0x73D8 DUP3 PUSH2 0x73AC JUMP JUMPDEST SWAP2 POP DUP2 SWAP1 POP SWAP2 SWAP1 POP JUMP JUMPDEST PUSH32 0x4D6F6E74656E6567726F00000000000000000000000000000000000000000000 PUSH0 DUP3 ADD MSTORE POP JUMP JUMPDEST PUSH0 PUSH2 0x7416 PUSH1 0xA DUP4 PUSH2 0x4751 JUMP JUMPDEST SWAP2 POP PUSH2 0x7421 DUP3 PUSH2 0x73E2 JUMP JUMPDEST PUSH1 0xA DUP3 ADD SWAP1 POP SWAP2 SWAP1 POP JUMP JUMPDEST PUSH0 PUSH2 0x7436 DUP3 PUSH2 0x740A JUMP JUMPDEST SWAP2 POP DUP2 SWAP1 POP SWAP2 SWAP1 POP JUMP JUMPDEST PUSH32 0x4D6F726F63636F00000000000000000000000000000000000000000000000000 PUSH0 DUP3 ADD MSTORE POP JUMP JUMPDEST PUSH0 PUSH2 0x7474 PUSH1 0x7 DUP4 PUSH2 0x4751 JUMP JUMPDEST SWAP2 POP PUSH2 0x747F DUP3 PUSH2 0x7440 JUMP JUMPDEST PUSH1 0x7 DUP3 ADD SWAP1 POP SWAP2 SWAP1 POP JUMP JUMPDEST PUSH0 PUSH2 0x7494 DUP3 PUSH2 0x7468 JUMP JUMPDEST SWAP2 POP DUP2 SWAP1 POP SWAP2 SWAP1 POP JUMP JUMPDEST PUSH32 0x4D6F7A616D626971756500000000000000000000000000000000000000000000 PUSH0 DUP3 ADD MSTORE POP JUMP JUMPDEST PUSH0 PUSH2 0x74D2 PUSH1 0xA DUP4 PUSH2 0x4751 JUMP JUMPDEST SWAP2 POP PUSH2 0x74DD DUP3 PUSH2 0x749E JUMP JUMPDEST PUSH1 0xA DUP3 ADD SWAP1 POP SWAP2 SWAP1 POP JUMP JUMPDEST PUSH0 PUSH2 0x74F2 DUP3 PUSH2 0x74C6 JUMP JUMPDEST SWAP2 POP DUP2 SWAP1 POP SWAP2 SWAP1 POP JUMP JUMPDEST PUSH32 0x4D79616E6D617200000000000000000000000000000000000000000000000000 PUSH0 DUP3 ADD MSTORE POP JUMP JUMPDEST PUSH0 PUSH2 0x7530 PUSH1 0x7 DUP4 PUSH2 0x4751 JUMP JUMPDEST SWAP2 POP PUSH2 0x753B DUP3 PUSH2 0x74FC JUMP JUMPDEST PUSH1 0x7 DUP3 ADD SWAP1 POP SWAP2 SWAP1 POP JUMP JUMPDEST PUSH0 PUSH2 0x7550 DUP3 PUSH2 0x7524 JUMP JUMPDEST SWAP2 POP DUP2 SWAP1 POP SWAP2 SWAP1 POP JUMP JUMPDEST PUSH32 0x4E616D6962696100000000000000000000000000000000000000000000000000 PUSH0 DUP3 ADD MSTORE POP JUMP JUMPDEST PUSH0 PUSH2 0x758E PUSH1 0x7 DUP4 PUSH2 0x4751 JUMP JUMPDEST SWAP2 POP PUSH2 0x7599 DUP3 PUSH2 0x755A JUMP JUMPDEST PUSH1 0x7 DUP3 ADD SWAP1 POP SWAP2 SWAP1 POP JUMP JUMPDEST PUSH0 PUSH2 0x75AE DUP3 PUSH2 0x7582 JUMP JUMPDEST SWAP2 POP DUP2 SWAP1 POP SWAP2 SWAP1 POP JUMP JUMPDEST PUSH32 0x4E61757275000000000000000000000000000000000000000000000000000000 PUSH0 DUP3 ADD MSTORE POP JUMP JUMPDEST PUSH0 PUSH2 0x75EC PUSH1 0x5 DUP4 PUSH2 0x4751 JUMP JUMPDEST SWAP2 POP PUSH2 0x75F7 DUP3 PUSH2 0x75B8 JUMP JUMPDEST PUSH1 0x5 DUP3 ADD SWAP1 POP SWAP2 SWAP1 POP JUMP JUMPDEST PUSH0 PUSH2 0x760C DUP3 PUSH2 0x75E0 JUMP JUMPDEST SWAP2 POP DUP2 SWAP1 POP SWAP2 SWAP1 POP JUMP JUMPDEST PUSH32 0x4E6570616C000000000000000000000000000000000000000000000000000000 PUSH0 DUP3 ADD MSTORE POP JUMP JUMPDEST PUSH0 PUSH2 0x764A PUSH1 0x5 DUP4 PUSH2 0x4751 JUMP JUMPDEST SWAP2 POP PUSH2 0x7655 DUP3 PUSH2 0x7616 JUMP JUMPDEST PUSH1 0x5 DUP3 ADD SWAP1 POP SWAP2 SWAP1 POP JUMP JUMPDEST PUSH0 PUSH2 0x766A DUP3 PUSH2 0x763E JUMP JUMPDEST SWAP2 POP DUP2 SWAP1 POP SWAP2 SWAP1 POP JUMP JUMPDEST PUSH32 0x4E65746865726C616E6473000000000000000000000000000000000000000000 PUSH0 DUP3 ADD MSTORE POP JUMP JUMPDEST PUSH0 PUSH2 0x76A8 PUSH1 0xB DUP4 PUSH2 0x4751 JUMP JUMPDEST SWAP2 POP PUSH2 0x76B3 DUP3 PUSH2 0x7674 JUMP JUMPDEST PUSH1 0xB DUP3 ADD SWAP1 POP SWAP2 SWAP1 POP JUMP JUMPDEST PUSH0 PUSH2 0x76C8 DUP3 PUSH2 0x769C JUMP JUMPDEST SWAP2 POP DUP2 SWAP1 POP SWAP2 SWAP1 POP JUMP JUMPDEST PUSH32 0x4E6577205A65616C616E64000000000000000000000000000000000000000000 PUSH0 DUP3 ADD MSTORE POP JUMP JUMPDEST PUSH0 PUSH2 0x7706 PUSH1 0xB DUP4 PUSH2 0x4751 JUMP JUMPDEST SWAP2 POP PUSH2 0x7711 DUP3 PUSH2 0x76D2 JUMP JUMPDEST PUSH1 0xB DUP3 ADD SWAP1 POP SWAP2 SWAP1 POP JUMP JUMPDEST PUSH0 PUSH2 0x7726 DUP3 PUSH2 0x76FA JUMP JUMPDEST SWAP2 POP DUP2 SWAP1 POP SWAP2 SWAP1 POP JUMP JUMPDEST PUSH32 0x4E69636172616775610000000000000000000000000000000000000000000000 PUSH0 DUP3 ADD MSTORE POP JUMP JUMPDEST PUSH0 PUSH2 0x7764 PUSH1 0x9 DUP4 PUSH2 0x4751 JUMP JUMPDEST SWAP2 POP PUSH2 0x776F DUP3 PUSH2 0x7730 JUMP JUMPDEST PUSH1 0x9 DUP3 ADD SWAP1 POP SWAP2 SWAP1 POP JUMP JUMPDEST PUSH0 PUSH2 0x7784 DUP3 PUSH2 0x7758 JUMP JUMPDEST SWAP2 POP DUP2 SWAP1 POP SWAP2 SWAP1 POP JUMP JUMPDEST PUSH32 0x4E69676572000000000000000000000000000000000000000000000000000000 PUSH0 DUP3 ADD MSTORE POP JUMP JUMPDEST PUSH0 PUSH2 0x77C2 PUSH1 0x5 DUP4 PUSH2 0x4751 JUMP JUMPDEST SWAP2 POP PUSH2 0x77CD DUP3 PUSH2 0x778E JUMP JUMPDEST PUSH1 0x5 DUP3 ADD SWAP1 POP SWAP2 SWAP1 POP JUMP JUMPDEST PUSH0 PUSH2 0x77E2 DUP3 PUSH2 0x77B6 JUMP JUMPDEST SWAP2 POP DUP2 SWAP1 POP SWAP2 SWAP1 POP JUMP JUMPDEST PUSH32 0x4E69676572696100000000000000000000000000000000000000000000000000 PUSH0 DUP3 ADD MSTORE POP JUMP JUMPDEST PUSH0 PUSH2 0x7820 PUSH1 0x7 DUP4 PUSH2 0x4751 JUMP JUMPDEST SWAP2 POP PUSH2 0x782B DUP3 PUSH2 0x77EC JUMP JUMPDEST PUSH1 0x7 DUP3 ADD SWAP1 POP SWAP2 SWAP1 POP JUMP JUMPDEST PUSH0 PUSH2 0x7840 DUP3 PUSH2 0x7814 JUMP JUMPDEST SWAP2 POP DUP2 SWAP1 POP SWAP2 SWAP1 POP JUMP JUMPDEST PUSH32 0x4E6F727468204B6F726561000000000000000000000000000000000000000000 PUSH0 DUP3 ADD MSTORE POP JUMP JUMPDEST PUSH0 PUSH2 0x787E PUSH1 0xB DUP4 PUSH2 0x4751 JUMP JUMPDEST SWAP2 POP PUSH2 0x7889 DUP3 PUSH2 0x784A JUMP JUMPDEST PUSH1 0xB DUP3 ADD SWAP1 POP SWAP2 SWAP1 POP JUMP JUMPDEST PUSH0 PUSH2 0x789E DUP3 PUSH2 0x7872 JUMP JUMPDEST SWAP2 POP DUP2 SWAP1 POP SWAP2 SWAP1 POP JUMP JUMPDEST PUSH32 0x4E6F727468204D616365646F6E69610000000000000000000000000000000000 PUSH0 DUP3 ADD MSTORE POP JUMP JUMPDEST PUSH0 PUSH2 0x78DC PUSH1 0xF DUP4 PUSH2 0x4751 JUMP JUMPDEST SWAP2 POP PUSH2 0x78E7 DUP3 PUSH2 0x78A8 JUMP JUMPDEST PUSH1 0xF DUP3 ADD SWAP1 POP SWAP2 SWAP1 POP JUMP JUMPDEST PUSH0 PUSH2 0x78FC DUP3 PUSH2 0x78D0 JUMP JUMPDEST SWAP2 POP DUP2 SWAP1 POP SWAP2 SWAP1 POP JUMP JUMPDEST PUSH32 0x4E6F727761790000000000000000000000000000000000000000000000000000 PUSH0 DUP3 ADD MSTORE POP JUMP JUMPDEST PUSH0 PUSH2 0x793A PUSH1 0x6 DUP4 PUSH2 0x4751 JUMP JUMPDEST SWAP2 POP PUSH2 0x7945 DUP3 PUSH2 0x7906 JUMP JUMPDEST PUSH1 0x6 DUP3 ADD SWAP1 POP SWAP2 SWAP1 POP JUMP JUMPDEST PUSH0 PUSH2 0x795A DUP3 PUSH2 0x792E JUMP JUMPDEST SWAP2 POP DUP2 SWAP1 POP SWAP2 SWAP1 POP JUMP JUMPDEST PUSH32 0x4F6D616E00000000000000000000000000000000000000000000000000000000 PUSH0 DUP3 ADD MSTORE POP JUMP JUMPDEST PUSH0 PUSH2 0x7998 PUSH1 0x4 DUP4 PUSH2 0x4751 JUMP JUMPDEST SWAP2 POP PUSH2 0x79A3 DUP3 PUSH2 0x7964 JUMP JUMPDEST PUSH1 0x4 DUP3 ADD SWAP1 POP SWAP2 SWAP1 POP JUMP JUMPDEST PUSH0 PUSH2 0x79B8 DUP3 PUSH2 0x798C JUMP JUMPDEST SWAP2 POP DUP2 SWAP1 POP SWAP2 SWAP1 POP JUMP JUMPDEST PUSH32 0x50616B697374616E000000000000000000000000000000000000000000000000 PUSH0 DUP3 ADD MSTORE POP JUMP JUMPDEST PUSH0 PUSH2 0x79F6 PUSH1 0x8 DUP4 PUSH2 0x4751 JUMP JUMPDEST SWAP2 POP PUSH2 0x7A01 DUP3 PUSH2 0x79C2 JUMP JUMPDEST PUSH1 0x8 DUP3 ADD SWAP1 POP SWAP2 SWAP1 POP JUMP JUMPDEST PUSH0 PUSH2 0x7A16 DUP3 PUSH2 0x79EA JUMP JUMPDEST SWAP2 POP DUP2 SWAP1 POP SWAP2 SWAP1 POP JUMP JUMPDEST PUSH32 0x50616C6175000000000000000000000000000000000000000000000000000000 PUSH0 DUP3 ADD MSTORE POP JUMP JUMPDEST PUSH0 PUSH2 0x7A54 PUSH1 0x5 DUP4 PUSH2 0x4751 JUMP JUMPDEST SWAP2 POP PUSH2 0x7A5F DUP3 PUSH2 0x7A20 JUMP JUMPDEST PUSH1 0x5 DUP3 ADD SWAP1 POP SWAP2 SWAP1 POP JUMP JUMPDEST PUSH0 PUSH2 0x7A74 DUP3 PUSH2 0x7A48 JUMP JUMPDEST SWAP2 POP DUP2 SWAP1 POP SWAP2 SWAP1 POP JUMP JUMPDEST PUSH32 0x50616E616D610000000000000000000000000000000000000000000000000000 PUSH0 DUP3 ADD MSTORE POP JUMP JUMPDEST PUSH0 PUSH2 0x7AB2 PUSH1 0x6 DUP4 PUSH2 0x4751 JUMP JUMPDEST SWAP2 POP PUSH2 0x7ABD DUP3 PUSH2 0x7A7E JUMP JUMPDEST PUSH1 0x6 DUP3 ADD SWAP1 POP SWAP2 SWAP1 POP JUMP JUMPDEST PUSH0 PUSH2 0x7AD2 DUP3 PUSH2 0x7AA6 JUMP JUMPDEST SWAP2 POP DUP2 SWAP1 POP SWAP2 SWAP1 POP JUMP JUMPDEST PUSH32 0x5061707561204E6577204775696E656100000000000000000000000000000000 PUSH0 DUP3 ADD MSTORE POP JUMP JUMPDEST PUSH0 PUSH2 0x7B10 PUSH1 0x10 DUP4 PUSH2 0x4751 JUMP JUMPDEST SWAP2 POP PUSH2 0x7B1B DUP3 PUSH2 0x7ADC JUMP JUMPDEST PUSH1 0x10 DUP3 ADD SWAP1 POP SWAP2 SWAP1 POP JUMP JUMPDEST PUSH0 PUSH2 0x7B30 DUP3 PUSH2 0x7B04 JUMP JUMPDEST SWAP2 POP DUP2 SWAP1 POP SWAP2 SWAP1 POP JUMP JUMPDEST PUSH32 0x5061726167756179000000000000000000000000000000000000000000000000 PUSH0 DUP3 ADD MSTORE POP JUMP JUMPDEST PUSH0 PUSH2 0x7B6E PUSH1 0x8 DUP4 PUSH2 0x4751 JUMP JUMPDEST SWAP2 POP PUSH2 0x7B79 DUP3 PUSH2 0x7B3A JUMP JUMPDEST PUSH1 0x8 DUP3 ADD SWAP1 POP SWAP2 SWAP1 POP JUMP JUMPDEST PUSH0 PUSH2 0x7B8E DUP3 PUSH2 0x7B62 JUMP JUMPDEST SWAP2 POP DUP2 SWAP1 POP SWAP2 SWAP1 POP JUMP JUMPDEST PUSH32 0x5065727500000000000000000000000000000000000000000000000000000000 PUSH0 DUP3 ADD MSTORE POP JUMP JUMPDEST PUSH0 PUSH2 0x7BCC PUSH1 0x4 DUP4 PUSH2 0x4751 JUMP JUMPDEST SWAP2 POP PUSH2 0x7BD7 DUP3 PUSH2 0x7B98 JUMP JUMPDEST PUSH1 0x4 DUP3 ADD SWAP1 POP SWAP2 SWAP1 POP JUMP JUMPDEST PUSH0 PUSH2 0x7BEC DUP3 PUSH2 0x7BC0 JUMP JUMPDEST SWAP2 POP DUP2 SWAP1 POP SWAP2 SWAP1 POP JUMP JUMPDEST PUSH32 0x5068696C697070696E6573000000000000000000000000000000000000000000 PUSH0 DUP3 ADD MSTORE POP JUMP JUMPDEST PUSH0 PUSH2 0x7C2A PUSH1 0xB DUP4 PUSH2 0x4751 JUMP JUMPDEST SWAP2 POP PUSH2 0x7C35 DUP3 PUSH2 0x7BF6 JUMP JUMPDEST PUSH1 0xB DUP3 ADD SWAP1 POP SWAP2 SWAP1 POP JUMP JUMPDEST PUSH0 PUSH2 0x7C4A DUP3 PUSH2 0x7C1E JUMP JUMPDEST SWAP2 POP DUP2 SWAP1 POP SWAP2 SWAP1 POP JUMP JUMPDEST PUSH32 0x506F6C616E640000000000000000000000000000000000000000000000000000 PUSH0 DUP3 ADD MSTORE POP JUMP JUMPDEST PUSH0 PUSH2 0x7C88 PUSH1 0x6 DUP4 PUSH2 0x4751 JUMP JUMPDEST SWAP2 POP PUSH2 0x7C93 DUP3 PUSH2 0x7C54 JUMP JUMPDEST PUSH1 0x6 DUP3 ADD SWAP1 POP SWAP2 SWAP1 POP JUMP JUMPDEST PUSH0 PUSH2 0x7CA8 DUP3 PUSH2 0x7C7C JUMP JUMPDEST SWAP2 POP DUP2 SWAP1 POP SWAP2 SWAP1 POP JUMP JUMPDEST PUSH32 0x506F72747567616C000000000000000000000000000000000000000000000000 PUSH0 DUP3 ADD MSTORE POP JUMP JUMPDEST PUSH0 PUSH2 0x7CE6 PUSH1 0x8 DUP4 PUSH2 0x4751 JUMP JUMPDEST SWAP2 POP PUSH2 0x7CF1 DUP3 PUSH2 0x7CB2 JUMP JUMPDEST PUSH1 0x8 DUP3 ADD SWAP1 POP SWAP2 SWAP1 POP JUMP JUMPDEST PUSH0 PUSH2 0x7D06 DUP3 PUSH2 0x7CDA JUMP JUMPDEST SWAP2 POP DUP2 SWAP1 POP SWAP2 SWAP1 POP JUMP JUMPDEST PUSH32 0x5161746172000000000000000000000000000000000000000000000000000000 PUSH0 DUP3 ADD MSTORE POP JUMP JUMPDEST PUSH0 PUSH2 0x7D44 PUSH1 0x5 DUP4 PUSH2 0x4751 JUMP JUMPDEST SWAP2 POP PUSH2 0x7D4F DUP3 PUSH2 0x7D10 JUMP JUMPDEST PUSH1 0x5 DUP3 ADD SWAP1 POP SWAP2 SWAP1 POP JUMP JUMPDEST PUSH0 PUSH2 0x7D64 DUP3 PUSH2 0x7D38 JUMP JUMPDEST SWAP2 POP DUP2 SWAP1 POP SWAP2 SWAP1 POP JUMP JUMPDEST PUSH32 0x526F6D616E696100000000000000000000000000000000000000000000000000 PUSH0 DUP3 ADD MSTORE POP JUMP JUMPDEST PUSH0 PUSH2 0x7DA2 PUSH1 0x7 DUP4 PUSH2 0x4751 JUMP JUMPDEST SWAP2 POP PUSH2 0x7DAD DUP3 PUSH2 0x7D6E JUMP JUMPDEST PUSH1 0x7 DUP3 ADD SWAP1 POP SWAP2 SWAP1 POP JUMP JUMPDEST PUSH0 PUSH2 0x7DC2 DUP3 PUSH2 0x7D96 JUMP JUMPDEST SWAP2 POP DUP2 SWAP1 POP SWAP2 SWAP1 POP JUMP JUMPDEST PUSH32 0x5275737369610000000000000000000000000000000000000000000000000000 PUSH0 DUP3 ADD MSTORE POP JUMP JUMPDEST PUSH0 PUSH2 0x7E00 PUSH1 0x6 DUP4 PUSH2 0x4751 JUMP JUMPDEST SWAP2 POP PUSH2 0x7E0B DUP3 PUSH2 0x7DCC JUMP JUMPDEST PUSH1 0x6 DUP3 ADD SWAP1 POP SWAP2 SWAP1 POP JUMP JUMPDEST PUSH0 PUSH2 0x7E20 DUP3 PUSH2 0x7DF4 JUMP JUMPDEST SWAP2 POP DUP2 SWAP1 POP SWAP2 SWAP1 POP JUMP JUMPDEST PUSH32 0x5277616E64610000000000000000000000000000000000000000000000000000 PUSH0 DUP3 ADD MSTORE POP JUMP JUMPDEST PUSH0 PUSH2 0x7E5E PUSH1 0x6 DUP4 PUSH2 0x4751 JUMP JUMPDEST SWAP2 POP PUSH2 0x7E69 DUP3 PUSH2 0x7E2A JUMP JUMPDEST PUSH1 0x6 DUP3 ADD SWAP1 POP SWAP2 SWAP1 POP JUMP JUMPDEST PUSH0 PUSH2 0x7E7E DUP3 PUSH2 0x7E52 JUMP JUMPDEST SWAP2 POP DUP2 SWAP1 POP SWAP2 SWAP1 POP JUMP JUMPDEST PUSH32 0x5361696E74204B6974747320616E64204E657669730000000000000000000000 PUSH0 DUP3 ADD MSTORE POP JUMP JUMPDEST PUSH0 PUSH2 0x7EBC PUSH1 0x15 DUP4 PUSH2 0x4751 JUMP JUMPDEST SWAP2 POP PUSH2 0x7EC7 DUP3 PUSH2 0x7E88 JUMP JUMPDEST PUSH1 0x15 DUP3 ADD SWAP1 POP SWAP2 SWAP1 POP JUMP JUMPDEST PUSH0 PUSH2 0x7EDC DUP3 PUSH2 0x7EB0 JUMP JUMPDEST SWAP2 POP DUP2 SWAP1 POP SWAP2 SWAP1 POP JUMP JUMPDEST PUSH32 0x5361696E74204C75636961000000000000000000000000000000000000000000 PUSH0 DUP3 ADD MSTORE POP JUMP JUMPDEST PUSH0 PUSH2 0x7F1A PUSH1 0xB DUP4 PUSH2 0x4751 JUMP JUMPDEST SWAP2 POP PUSH2 0x7F25 DUP3 PUSH2 0x7EE6 JUMP JUMPDEST PUSH1 0xB DUP3 ADD SWAP1 POP SWAP2 SWAP1 POP JUMP JUMPDEST PUSH0 PUSH2 0x7F3A DUP3 PUSH2 0x7F0E JUMP JUMPDEST SWAP2 POP DUP2 SWAP1 POP SWAP2 SWAP1 POP JUMP JUMPDEST PUSH32 0x5361696E742056696E63656E7420616E6420746865204772656E6164696E6573 PUSH0 DUP3 ADD MSTORE POP JUMP JUMPDEST PUSH0 PUSH2 0x7F78 PUSH1 0x20 DUP4 PUSH2 0x4751 JUMP JUMPDEST SWAP2 POP PUSH2 0x7F83 DUP3 PUSH2 0x7F44 JUMP JUMPDEST PUSH1 0x20 DUP3 ADD SWAP1 POP SWAP2 SWAP1 POP JUMP JUMPDEST PUSH0 PUSH2 0x7F98 DUP3 PUSH2 0x7F6C JUMP JUMPDEST SWAP2 POP DUP2 SWAP1 POP SWAP2 SWAP1 POP JUMP JUMPDEST PUSH32 0x53616D6F61000000000000000000000000000000000000000000000000000000 PUSH0 DUP3 ADD MSTORE POP JUMP JUMPDEST PUSH0 PUSH2 0x7FD6 PUSH1 0x5 DUP4 PUSH2 0x4751 JUMP JUMPDEST SWAP2 POP PUSH2 0x7FE1 DUP3 PUSH2 0x7FA2 JUMP JUMPDEST PUSH1 0x5 DUP3 ADD SWAP1 POP SWAP2 SWAP1 POP JUMP JUMPDEST PUSH0 PUSH2 0x7FF6 DUP3 PUSH2 0x7FCA JUMP JUMPDEST SWAP2 POP DUP2 SWAP1 POP SWAP2 SWAP1 POP JUMP JUMPDEST PUSH32 0x53616E204D6172696E6F00000000000000000000000000000000000000000000 PUSH0 DUP3 ADD MSTORE POP JUMP JUMPDEST PUSH0 PUSH2 0x8034 PUSH1 0xA DUP4 PUSH2 0x4751 JUMP JUMPDEST SWAP2 POP PUSH2 0x803F DUP3 PUSH2 0x8000 JUMP JUMPDEST PUSH1 0xA DUP3 ADD SWAP1 POP SWAP2 SWAP1 POP JUMP JUMPDEST PUSH0 PUSH2 0x8054 DUP3 PUSH2 0x8028 JUMP JUMPDEST SWAP2 POP DUP2 SWAP1 POP SWAP2 SWAP1 POP JUMP JUMPDEST PUSH32 0x53616F20546F6D6520616E64205072696E636970650000000000000000000000 PUSH0 DUP3 ADD MSTORE POP JUMP JUMPDEST PUSH0 PUSH2 0x8092 PUSH1 0x15 DUP4 PUSH2 0x4751 JUMP JUMPDEST SWAP2 POP PUSH2 0x809D DUP3 PUSH2 0x805E JUMP JUMPDEST PUSH1 0x15 DUP3 ADD SWAP1 POP SWAP2 SWAP1 POP JUMP JUMPDEST PUSH0 PUSH2 0x80B2 DUP3 PUSH2 0x8086 JUMP JUMPDEST SWAP2 POP DUP2 SWAP1 POP SWAP2 SWAP1 POP JUMP JUMPDEST PUSH32 0x5361756469204172616269610000000000000000000000000000000000000000 PUSH0 DUP3 ADD MSTORE POP JUMP JUMPDEST PUSH0 PUSH2 0x80F0 PUSH1 0xC DUP4 PUSH2 0x4751 JUMP JUMPDEST SWAP2 POP PUSH2 0x80FB DUP3 PUSH2 0x80BC JUMP JUMPDEST PUSH1 0xC DUP3 ADD SWAP1 POP SWAP2 SWAP1 POP JUMP JUMPDEST PUSH0 PUSH2 0x8110 DUP3 PUSH2 0x80E4 JUMP JUMPDEST SWAP2 POP DUP2 SWAP1 POP SWAP2 SWAP1 POP JUMP JUMPDEST PUSH32 0x53656E6567616C00000000000000000000000000000000000000000000000000 PUSH0 DUP3 ADD MSTORE POP JUMP JUMPDEST PUSH0 PUSH2 0x814E PUSH1 0x7 DUP4 PUSH2 0x4751 JUMP JUMPDEST SWAP2 POP PUSH2 0x8159 DUP3 PUSH2 0x811A JUMP JUMPDEST PUSH1 0x7 DUP3 ADD SWAP1 POP SWAP2 SWAP1 POP JUMP JUMPDEST PUSH0 PUSH2 0x816E DUP3 PUSH2 0x8142 JUMP JUMPDEST SWAP2 POP DUP2 SWAP1 POP SWAP2 SWAP1 POP JUMP JUMPDEST PUSH32 0x5365726269610000000000000000000000000000000000000000000000000000 PUSH0 DUP3 ADD MSTORE POP JUMP JUMPDEST PUSH0 PUSH2 0x81AC PUSH1 0x6 DUP4 PUSH2 0x4751 JUMP JUMPDEST SWAP2 POP PUSH2 0x81B7 DUP3 PUSH2 0x8178 JUMP JUMPDEST PUSH1 0x6 DUP3 ADD SWAP1 POP SWAP2 SWAP1 POP JUMP JUMPDEST PUSH0 PUSH2 0x81CC DUP3 PUSH2 0x81A0 JUMP JUMPDEST SWAP2 POP DUP2 SWAP1 POP SWAP2 SWAP1 POP JUMP JUMPDEST PUSH32 0x5365796368656C6C657300000000000000000000000000000000000000000000 PUSH0 DUP3 ADD MSTORE POP JUMP JUMPDEST PUSH0 PUSH2 0x820A PUSH1 0xA DUP4 PUSH2 0x4751 JUMP JUMPDEST SWAP2 POP PUSH2 0x8215 DUP3 PUSH2 0x81D6 JUMP JUMPDEST PUSH1 0xA DUP3 ADD SWAP1 POP SWAP2 SWAP1 POP JUMP JUMPDEST PUSH0 PUSH2 0x822A DUP3 PUSH2 0x81FE JUMP JUMPDEST SWAP2 POP DUP2 SWAP1 POP SWAP2 SWAP1 POP JUMP JUMPDEST PUSH32 0x536965727261204C656F6E650000000000000000000000000000000000000000 PUSH0 DUP3 ADD MSTORE POP JUMP JUMPDEST PUSH0 PUSH2 0x8268 PUSH1 0xC DUP4 PUSH2 0x4751 JUMP JUMPDEST SWAP2 POP PUSH2 0x8273 DUP3 PUSH2 0x8234 JUMP JUMPDEST PUSH1 0xC DUP3 ADD SWAP1 POP SWAP2 SWAP1 POP JUMP JUMPDEST PUSH0 PUSH2 0x8288 DUP3 PUSH2 0x825C JUMP JUMPDEST SWAP2 POP DUP2 SWAP1 POP SWAP2 SWAP1 POP JUMP JUMPDEST PUSH32 0x53696E6761706F72650000000000000000000000000000000000000000000000 PUSH0 DUP3 ADD MSTORE POP JUMP JUMPDEST PUSH0 PUSH2 0x82C6 PUSH1 0x9 DUP4 PUSH2 0x4751 JUMP JUMPDEST SWAP2 POP PUSH2 0x82D1 DUP3 PUSH2 0x8292 JUMP JUMPDEST PUSH1 0x9 DUP3 ADD SWAP1 POP SWAP2 SWAP1 POP JUMP JUMPDEST PUSH0 PUSH2 0x82E6 DUP3 PUSH2 0x82BA JUMP JUMPDEST SWAP2 POP DUP2 SWAP1 POP SWAP2 SWAP1 POP JUMP JUMPDEST PUSH32 0x536C6F76616B6961000000000000000000000000000000000000000000000000 PUSH0 DUP3 ADD MSTORE POP JUMP JUMPDEST PUSH0 PUSH2 0x8324 PUSH1 0x8 DUP4 PUSH2 0x4751 JUMP JUMPDEST SWAP2 POP PUSH2 0x832F DUP3 PUSH2 0x82F0 JUMP JUMPDEST PUSH1 0x8 DUP3 ADD SWAP1 POP SWAP2 SWAP1 POP JUMP JUMPDEST PUSH0 PUSH2 0x8344 DUP3 PUSH2 0x8318 JUMP JUMPDEST SWAP2 POP DUP2 SWAP1 POP SWAP2 SWAP1 POP JUMP JUMPDEST PUSH32 0x536C6F76656E6961000000000000000000000000000000000000000000000000 PUSH0 DUP3 ADD MSTORE POP JUMP JUMPDEST PUSH0 PUSH2 0x8382 PUSH1 0x8 DUP4 PUSH2 0x4751 JUMP JUMPDEST SWAP2 POP PUSH2 0x838D DUP3 PUSH2 0x834E JUMP JUMPDEST PUSH1 0x8 DUP3 ADD SWAP1 POP SWAP2 SWAP1 POP JUMP JUMPDEST PUSH0 PUSH2 0x83A2 DUP3 PUSH2 0x8376 JUMP JUMPDEST SWAP2 POP DUP2 SWAP1 POP SWAP2 SWAP1 POP JUMP JUMPDEST PUSH32 0x536F6C6F6D6F6E2049736C616E64730000000000000000000000000000000000 PUSH0 DUP3 ADD MSTORE POP JUMP JUMPDEST PUSH0 PUSH2 0x83E0 PUSH1 0xF DUP4 PUSH2 0x4751 JUMP JUMPDEST SWAP2 POP PUSH2 0x83EB DUP3 PUSH2 0x83AC JUMP JUMPDEST PUSH1 0xF DUP3 ADD SWAP1 POP SWAP2 SWAP1 POP JUMP JUMPDEST PUSH0 PUSH2 0x8400 DUP3 PUSH2 0x83D4 JUMP JUMPDEST SWAP2 POP DUP2 SWAP1 POP SWAP2 SWAP1 POP JUMP JUMPDEST PUSH32 0x536F6D616C696100000000000000000000000000000000000000000000000000 PUSH0 DUP3 ADD MSTORE POP JUMP JUMPDEST PUSH0 PUSH2 0x843E PUSH1 0x7 DUP4 PUSH2 0x4751 JUMP JUMPDEST SWAP2 POP PUSH2 0x8449 DUP3 PUSH2 0x840A JUMP JUMPDEST PUSH1 0x7 DUP3 ADD SWAP1 POP SWAP2 SWAP1 POP JUMP JUMPDEST PUSH0 PUSH2 0x845E DUP3 PUSH2 0x8432 JUMP JUMPDEST SWAP2 POP DUP2 SWAP1 POP SWAP2 SWAP1 POP JUMP JUMPDEST PUSH32 0x536F757468204166726963610000000000000000000000000000000000000000 PUSH0 DUP3 ADD MSTORE POP JUMP JUMPDEST PUSH0 PUSH2 0x849C PUSH1 0xC DUP4 PUSH2 0x4751 JUMP JUMPDEST SWAP2 POP PUSH2 0x84A7 DUP3 PUSH2 0x8468 JUMP JUMPDEST PUSH1 0xC DUP3 ADD SWAP1 POP SWAP2 SWAP1 POP JUMP JUMPDEST PUSH0 PUSH2 0x84BC DUP3 PUSH2 0x8490 JUMP JUMPDEST SWAP2 POP DUP2 SWAP1 POP SWAP2 SWAP1 POP JUMP JUMPDEST PUSH32 0x536F757468204B6F726561000000000000000000000000000000000000000000 PUSH0 DUP3 ADD MSTORE POP JUMP JUMPDEST PUSH0 PUSH2 0x84FA PUSH1 0xB DUP4 PUSH2 0x4751 JUMP JUMPDEST SWAP2 POP PUSH2 0x8505 DUP3 PUSH2 0x84C6 JUMP JUMPDEST PUSH1 0xB DUP3 ADD SWAP1 POP SWAP2 SWAP1 POP JUMP JUMPDEST PUSH0 PUSH2 0x851A DUP3 PUSH2 0x84EE JUMP JUMPDEST SWAP2 POP DUP2 SWAP1 POP SWAP2 SWAP1 POP JUMP JUMPDEST PUSH32 0x536F75746820537564616E000000000000000000000000000000000000000000 PUSH0 DUP3 ADD MSTORE POP JUMP JUMPDEST PUSH0 PUSH2 0x8558 PUSH1 0xB DUP4 PUSH2 0x4751 JUMP JUMPDEST SWAP2 POP PUSH2 0x8563 DUP3 PUSH2 0x8524 JUMP JUMPDEST PUSH1 0xB DUP3 ADD SWAP1 POP SWAP2 SWAP1 POP JUMP JUMPDEST PUSH0 PUSH2 0x8578 DUP3 PUSH2 0x854C JUMP JUMPDEST SWAP2 POP DUP2 SWAP1 POP SWAP2 SWAP1 POP JUMP JUMPDEST PUSH32 0x537061696E000000000000000000000000000000000000000000000000000000 PUSH0 DUP3 ADD MSTORE POP JUMP JUMPDEST PUSH0 PUSH2 0x85B6 PUSH1 0x5 DUP4 PUSH2 0x4751 JUMP JUMPDEST SWAP2 POP PUSH2 0x85C1 DUP3 PUSH2 0x8582 JUMP JUMPDEST PUSH1 0x5 DUP3 ADD SWAP1 POP SWAP2 SWAP1 POP JUMP JUMPDEST PUSH0 PUSH2 0x85D6 DUP3 PUSH2 0x85AA JUMP JUMPDEST SWAP2 POP DUP2 SWAP1 POP SWAP2 SWAP1 POP JUMP JUMPDEST PUSH32 0x537269204C616E6B610000000000000000000000000000000000000000000000 PUSH0 DUP3 ADD MSTORE POP JUMP JUMPDEST PUSH0 PUSH2 0x8614 PUSH1 0x9 DUP4 PUSH2 0x4751 JUMP JUMPDEST SWAP2 POP PUSH2 0x861F DUP3 PUSH2 0x85E0 JUMP JUMPDEST PUSH1 0x9 DUP3 ADD SWAP1 POP SWAP2 SWAP1 POP JUMP JUMPDEST PUSH0 PUSH2 0x8634 DUP3 PUSH2 0x8608 JUMP JUMPDEST SWAP2 POP DUP2 SWAP1 POP SWAP2 SWAP1 POP JUMP JUMPDEST PUSH32 0x537564616E000000000000000000000000000000000000000000000000000000 PUSH0 DUP3 ADD MSTORE POP JUMP JUMPDEST PUSH0 PUSH2 0x8672 PUSH1 0x5 DUP4 PUSH2 0x4751 JUMP JUMPDEST SWAP2 POP PUSH2 0x867D DUP3 PUSH2 0x863E JUMP JUMPDEST PUSH1 0x5 DUP3 ADD SWAP1 POP SWAP2 SWAP1 POP JUMP JUMPDEST PUSH0 PUSH2 0x8692 DUP3 PUSH2 0x8666 JUMP JUMPDEST SWAP2 POP DUP2 SWAP1 POP SWAP2 SWAP1 POP JUMP JUMPDEST PUSH32 0x537572696E616D65000000000000000000000000000000000000000000000000 PUSH0 DUP3 ADD MSTORE POP JUMP JUMPDEST PUSH0 PUSH2 0x86D0 PUSH1 0x8 DUP4 PUSH2 0x4751 JUMP JUMPDEST SWAP2 POP PUSH2 0x86DB DUP3 PUSH2 0x869C JUMP JUMPDEST PUSH1 0x8 DUP3 ADD SWAP1 POP SWAP2 SWAP1 POP JUMP JUMPDEST PUSH0 PUSH2 0x86F0 DUP3 PUSH2 0x86C4 JUMP JUMPDEST SWAP2 POP DUP2 SWAP1 POP SWAP2 SWAP1 POP JUMP JUMPDEST PUSH32 0x53776564656E0000000000000000000000000000000000000000000000000000 PUSH0 DUP3 ADD MSTORE POP JUMP JUMPDEST PUSH0 PUSH2 0x872E PUSH1 0x6 DUP4 PUSH2 0x4751 JUMP JUMPDEST SWAP2 POP PUSH2 0x8739 DUP3 PUSH2 0x86FA JUMP JUMPDEST PUSH1 0x6 DUP3 ADD SWAP1 POP SWAP2 SWAP1 POP JUMP JUMPDEST PUSH0 PUSH2 0x874E DUP3 PUSH2 0x8722 JUMP JUMPDEST SWAP2 POP DUP2 SWAP1 POP SWAP2 SWAP1 POP JUMP JUMPDEST PUSH32 0x537769747A65726C616E64000000000000000000000000000000000000000000 PUSH0 DUP3 ADD MSTORE POP JUMP JUMPDEST PUSH0 PUSH2 0x878C PUSH1 0xB DUP4 PUSH2 0x4751 JUMP JUMPDEST SWAP2 POP PUSH2 0x8797 DUP3 PUSH2 0x8758 JUMP JUMPDEST PUSH1 0xB DUP3 ADD SWAP1 POP SWAP2 SWAP1 POP JUMP JUMPDEST PUSH0 PUSH2 0x87AC DUP3 PUSH2 0x8780 JUMP JUMPDEST SWAP2 POP DUP2 SWAP1 POP SWAP2 SWAP1 POP JUMP JUMPDEST PUSH32 0x5379726961000000000000000000000000000000000000000000000000000000 PUSH0 DUP3 ADD MSTORE POP JUMP JUMPDEST PUSH0 PUSH2 0x87EA PUSH1 0x5 DUP4 PUSH2 0x4751 JUMP JUMPDEST SWAP2 POP PUSH2 0x87F5 DUP3 PUSH2 0x87B6 JUMP JUMPDEST PUSH1 0x5 DUP3 ADD SWAP1 POP SWAP2 SWAP1 POP JUMP JUMPDEST PUSH0 PUSH2 0x880A DUP3 PUSH2 0x87DE JUMP JUMPDEST SWAP2 POP DUP2 SWAP1 POP SWAP2 SWAP1 POP JUMP JUMPDEST PUSH32 0x54616977616E0000000000000000000000000000000000000000000000000000 PUSH0 DUP3 ADD MSTORE POP JUMP JUMPDEST PUSH0 PUSH2 0x8848 PUSH1 0x6 DUP4 PUSH2 0x4751 JUMP JUMPDEST SWAP2 POP PUSH2 0x8853 DUP3 PUSH2 0x8814 JUMP JUMPDEST PUSH1 0x6 DUP3 ADD SWAP1 POP SWAP2 SWAP1 POP JUMP JUMPDEST PUSH0 PUSH2 0x8868 DUP3 PUSH2 0x883C JUMP JUMPDEST SWAP2 POP DUP2 SWAP1 POP SWAP2 SWAP1 POP JUMP JUMPDEST PUSH32 0x54616A696B697374616E00000000000000000000000000000000000000000000 PUSH0 DUP3 ADD MSTORE POP JUMP JUMPDEST PUSH0 PUSH2 0x88A6 PUSH1 0xA DUP4 PUSH2 0x4751 JUMP JUMPDEST SWAP2 POP PUSH2 0x88B1 DUP3 PUSH2 0x8872 JUMP JUMPDEST PUSH1 0xA DUP3 ADD SWAP1 POP SWAP2 SWAP1 POP JUMP JUMPDEST PUSH0 PUSH2 0x88C6 DUP3 PUSH2 0x889A JUMP JUMPDEST SWAP2 POP DUP2 SWAP1 POP SWAP2 SWAP1 POP JUMP JUMPDEST PUSH32 0x54616E7A616E6961000000000000000000000000000000000000000000000000 PUSH0 DUP3 ADD MSTORE POP JUMP JUMPDEST PUSH0 PUSH2 0x8904 PUSH1 0x8 DUP4 PUSH2 0x4751 JUMP JUMPDEST SWAP2 POP PUSH2 0x890F DUP3 PUSH2 0x88D0 JUMP JUMPDEST PUSH1 0x8 DUP3 ADD SWAP1 POP SWAP2 SWAP1 POP JUMP JUMPDEST PUSH0 PUSH2 0x8924 DUP3 PUSH2 0x88F8 JUMP JUMPDEST SWAP2 POP DUP2 SWAP1 POP SWAP2 SWAP1 POP JUMP JUMPDEST PUSH32 0x546861696C616E64000000000000000000000000000000000000000000000000 PUSH0 DUP3 ADD MSTORE POP JUMP JUMPDEST PUSH0 PUSH2 0x8962 PUSH1 0x8 DUP4 PUSH2 0x4751 JUMP JUMPDEST SWAP2 POP PUSH2 0x896D DUP3 PUSH2 0x892E JUMP JUMPDEST PUSH1 0x8 DUP3 ADD SWAP1 POP SWAP2 SWAP1 POP JUMP JUMPDEST PUSH0 PUSH2 0x8982 DUP3 PUSH2 0x8956 JUMP JUMPDEST SWAP2 POP DUP2 SWAP1 POP SWAP2 SWAP1 POP JUMP JUMPDEST PUSH32 0x54696D6F722D4C65737465000000000000000000000000000000000000000000 PUSH0 DUP3 ADD MSTORE POP JUMP JUMPDEST PUSH0 PUSH2 0x89C0 PUSH1 0xB DUP4 PUSH2 0x4751 JUMP JUMPDEST SWAP2 POP PUSH2 0x89CB DUP3 PUSH2 0x898C JUMP JUMPDEST PUSH1 0xB DUP3 ADD SWAP1 POP SWAP2 SWAP1 POP JUMP JUMPDEST PUSH0 PUSH2 0x89E0 DUP3 PUSH2 0x89B4 JUMP JUMPDEST SWAP2 POP DUP2 SWAP1 POP SWAP2 SWAP1 POP JUMP JUMPDEST PUSH32 0x546F676F00000000000000000000000000000000000000000000000000000000 PUSH0 DUP3 ADD MSTORE POP JUMP JUMPDEST PUSH0 PUSH2 0x8A1E PUSH1 0x4 DUP4 PUSH2 0x4751 JUMP JUMPDEST SWAP2 POP PUSH2 0x8A29 DUP3 PUSH2 0x89EA JUMP JUMPDEST PUSH1 0x4 DUP3 ADD SWAP1 POP SWAP2 SWAP1 POP JUMP JUMPDEST PUSH0 PUSH2 0x8A3E DUP3 PUSH2 0x8A12 JUMP JUMPDEST SWAP2 POP DUP2 SWAP1 POP SWAP2 SWAP1 POP JUMP JUMPDEST PUSH32 0x546F6E6761000000000000000000000000000000000000000000000000000000 PUSH0 DUP3 ADD MSTORE POP JUMP JUMPDEST PUSH0 PUSH2 0x8A7C PUSH1 0x5 DUP4 PUSH2 0x4751 JUMP JUMPDEST SWAP2 POP PUSH2 0x8A87 DUP3 PUSH2 0x8A48 JUMP JUMPDEST PUSH1 0x5 DUP3 ADD SWAP1 POP SWAP2 SWAP1 POP JUMP JUMPDEST PUSH0 PUSH2 0x8A9C DUP3 PUSH2 0x8A70 JUMP JUMPDEST SWAP2 POP DUP2 SWAP1 POP SWAP2 SWAP1 POP JUMP JUMPDEST PUSH32 0x5472696E6964616420616E6420546F6261676F00000000000000000000000000 PUSH0 DUP3 ADD MSTORE POP JUMP JUMPDEST PUSH0 PUSH2 0x8ADA PUSH1 0x13 DUP4 PUSH2 0x4751 JUMP JUMPDEST SWAP2 POP PUSH2 0x8AE5 DUP3 PUSH2 0x8AA6 JUMP JUMPDEST PUSH1 0x13 DUP3 ADD SWAP1 POP SWAP2 SWAP1 POP JUMP JUMPDEST PUSH0 PUSH2 0x8AFA DUP3 PUSH2 0x8ACE JUMP JUMPDEST SWAP2 POP DUP2 SWAP1 POP SWAP2 SWAP1 POP JUMP JUMPDEST PUSH32 0x54756E6973696100000000000000000000000000000000000000000000000000 PUSH0 DUP3 ADD MSTORE POP JUMP JUMPDEST PUSH0 PUSH2 0x8B38 PUSH1 0x7 DUP4 PUSH2 0x4751 JUMP JUMPDEST SWAP2 POP PUSH2 0x8B43 DUP3 PUSH2 0x8B04 JUMP JUMPDEST PUSH1 0x7 DUP3 ADD SWAP1 POP SWAP2 SWAP1 POP JUMP JUMPDEST PUSH0 PUSH2 0x8B58 DUP3 PUSH2 0x8B2C JUMP JUMPDEST SWAP2 POP DUP2 SWAP1 POP SWAP2 SWAP1 POP JUMP JUMPDEST PUSH32 0x5475726B65790000000000000000000000000000000000000000000000000000 PUSH0 DUP3 ADD MSTORE POP JUMP JUMPDEST PUSH0 PUSH2 0x8B96 PUSH1 0x6 DUP4 PUSH2 0x4751 JUMP JUMPDEST SWAP2 POP PUSH2 0x8BA1 DUP3 PUSH2 0x8B62 JUMP JUMPDEST PUSH1 0x6 DUP3 ADD SWAP1 POP SWAP2 SWAP1 POP JUMP JUMPDEST PUSH0 PUSH2 0x8BB6 DUP3 PUSH2 0x8B8A JUMP JUMPDEST SWAP2 POP DUP2 SWAP1 POP SWAP2 SWAP1 POP JUMP JUMPDEST PUSH32 0x5475726B6D656E697374616E0000000000000000000000000000000000000000 PUSH0 DUP3 ADD MSTORE POP JUMP JUMPDEST PUSH0 PUSH2 0x8BF4 PUSH1 0xC DUP4 PUSH2 0x4751 JUMP JUMPDEST SWAP2 POP PUSH2 0x8BFF DUP3 PUSH2 0x8BC0 JUMP JUMPDEST PUSH1 0xC DUP3 ADD SWAP1 POP SWAP2 SWAP1 POP JUMP JUMPDEST PUSH0 PUSH2 0x8C14 DUP3 PUSH2 0x8BE8 JUMP JUMPDEST SWAP2 POP DUP2 SWAP1 POP SWAP2 SWAP1 POP JUMP JUMPDEST PUSH32 0x547576616C750000000000000000000000000000000000000000000000000000 PUSH0 DUP3 ADD MSTORE POP JUMP JUMPDEST PUSH0 PUSH2 0x8C52 PUSH1 0x6 DUP4 PUSH2 0x4751 JUMP JUMPDEST SWAP2 POP PUSH2 0x8C5D DUP3 PUSH2 0x8C1E JUMP JUMPDEST PUSH1 0x6 DUP3 ADD SWAP1 POP SWAP2 SWAP1 POP JUMP JUMPDEST PUSH0 PUSH2 0x8C72 DUP3 PUSH2 0x8C46 JUMP JUMPDEST SWAP2 POP DUP2 SWAP1 POP SWAP2 SWAP1 POP JUMP JUMPDEST PUSH32 0x5567616E64610000000000000000000000000000000000000000000000000000 PUSH0 DUP3 ADD MSTORE POP JUMP JUMPDEST PUSH0 PUSH2 0x8CB0 PUSH1 0x6 DUP4 PUSH2 0x4751 JUMP JUMPDEST SWAP2 POP PUSH2 0x8CBB DUP3 PUSH2 0x8C7C JUMP JUMPDEST PUSH1 0x6 DUP3 ADD SWAP1 POP SWAP2 SWAP1 POP JUMP JUMPDEST PUSH0 PUSH2 0x8CD0 DUP3 PUSH2 0x8CA4 JUMP JUMPDEST SWAP2 POP DUP2 SWAP1 POP SWAP2 SWAP1 POP JUMP JUMPDEST PUSH32 0x556B7261696E6500000000000000000000000000000000000000000000000000 PUSH0 DUP3 ADD MSTORE POP JUMP JUMPDEST PUSH0 PUSH2 0x8D0E PUSH1 0x7 DUP4 PUSH2 0x4751 JUMP JUMPDEST SWAP2 POP PUSH2 0x8D19 DUP3 PUSH2 0x8CDA JUMP JUMPDEST PUSH1 0x7 DUP3 ADD SWAP1 POP SWAP2 SWAP1 POP JUMP JUMPDEST PUSH0 PUSH2 0x8D2E DUP3 PUSH2 0x8D02 JUMP JUMPDEST SWAP2 POP DUP2 SWAP1 POP SWAP2 SWAP1 POP JUMP JUMPDEST PUSH32 0x556E69746564204172616220456D697261746573000000000000000000000000 PUSH0 DUP3 ADD MSTORE POP JUMP JUMPDEST PUSH0 PUSH2 0x8D6C PUSH1 0x14 DUP4 PUSH2 0x4751 JUMP JUMPDEST SWAP2 POP PUSH2 0x8D77 DUP3 PUSH2 0x8D38 JUMP JUMPDEST PUSH1 0x14 DUP3 ADD SWAP1 POP SWAP2 SWAP1 POP JUMP JUMPDEST PUSH0 PUSH2 0x8D8C DUP3 PUSH2 0x8D60 JUMP JUMPDEST SWAP2 POP DUP2 SWAP1 POP SWAP2 SWAP1 POP JUMP JUMPDEST PUSH32 0x556E69746564204B696E67646F6D000000000000000000000000000000000000 PUSH0 DUP3 ADD MSTORE POP JUMP JUMPDEST PUSH0 PUSH2 0x8DCA PUSH1 0xE DUP4 PUSH2 0x4751 JUMP JUMPDEST SWAP2 POP PUSH2 0x8DD5 DUP3 PUSH2 0x8D96 JUMP JUMPDEST PUSH1 0xE DUP3 ADD SWAP1 POP SWAP2 SWAP1 POP JUMP JUMPDEST PUSH0 PUSH2 0x8DEA DUP3 PUSH2 0x8DBE JUMP JUMPDEST SWAP2 POP DUP2 SWAP1 POP SWAP2 SWAP1 POP JUMP JUMPDEST PUSH32 0x556E697465642053746174657300000000000000000000000000000000000000 PUSH0 DUP3 ADD MSTORE POP JUMP JUMPDEST PUSH0 PUSH2 0x8E28 PUSH1 0xD DUP4 PUSH2 0x4751 JUMP JUMPDEST SWAP2 POP PUSH2 0x8E33 DUP3 PUSH2 0x8DF4 JUMP JUMPDEST PUSH1 0xD DUP3 ADD SWAP1 POP SWAP2 SWAP1 POP JUMP JUMPDEST PUSH0 PUSH2 0x8E48 DUP3 PUSH2 0x8E1C JUMP JUMPDEST SWAP2 POP DUP2 SWAP1 POP SWAP2 SWAP1 POP JUMP JUMPDEST PUSH32 0x5572756775617900000000000000000000000000000000000000000000000000 PUSH0 DUP3 ADD MSTORE POP JUMP JUMPDEST PUSH0 PUSH2 0x8E86 PUSH1 0x7 DUP4 PUSH2 0x4751 JUMP JUMPDEST SWAP2 POP PUSH2 0x8E91 DUP3 PUSH2 0x8E52 JUMP JUMPDEST PUSH1 0x7 DUP3 ADD SWAP1 POP SWAP2 SWAP1 POP JUMP JUMPDEST PUSH0 PUSH2 0x8EA6 DUP3 PUSH2 0x8E7A JUMP JUMPDEST SWAP2 POP DUP2 SWAP1 POP SWAP2 SWAP1 POP JUMP JUMPDEST PUSH32 0x557A62656B697374616E00000000000000000000000000000000000000000000 PUSH0 DUP3 ADD MSTORE POP JUMP JUMPDEST PUSH0 PUSH2 0x8EE4 PUSH1 0xA DUP4 PUSH2 0x4751 JUMP JUMPDEST SWAP2 POP PUSH2 0x8EEF DUP3 PUSH2 0x8EB0 JUMP JUMPDEST PUSH1 0xA DUP3 ADD SWAP1 POP SWAP2 SWAP1 POP JUMP JUMPDEST PUSH0 PUSH2 0x8F04 DUP3 PUSH2 0x8ED8 JUMP JUMPDEST SWAP2 POP DUP2 SWAP1 POP SWAP2 SWAP1 POP JUMP JUMPDEST PUSH32 0x56616E7561747500000000000000000000000000000000000000000000000000 PUSH0 DUP3 ADD MSTORE POP JUMP JUMPDEST PUSH0 PUSH2 0x8F42 PUSH1 0x7 DUP4 PUSH2 0x4751 JUMP JUMPDEST SWAP2 POP PUSH2 0x8F4D DUP3 PUSH2 0x8F0E JUMP JUMPDEST PUSH1 0x7 DUP3 ADD SWAP1 POP SWAP2 SWAP1 POP JUMP JUMPDEST PUSH0 PUSH2 0x8F62 DUP3 PUSH2 0x8F36 JUMP JUMPDEST SWAP2 POP DUP2 SWAP1 POP SWAP2 SWAP1 POP JUMP JUMPDEST PUSH32 0x5661746963616E20436974790000000000000000000000000000000000000000 PUSH0 DUP3 ADD MSTORE POP JUMP JUMPDEST PUSH0 PUSH2 0x8FA0 PUSH1 0xC DUP4 PUSH2 0x4751 JUMP JUMPDEST SWAP2 POP PUSH2 0x8FAB DUP3 PUSH2 0x8F6C JUMP JUMPDEST PUSH1 0xC DUP3 ADD SWAP1 POP SWAP2 SWAP1 POP JUMP JUMPDEST PUSH0 PUSH2 0x8FC0 DUP3 PUSH2 0x8F94 JUMP JUMPDEST SWAP2 POP DUP2 SWAP1 POP SWAP2 SWAP1 POP JUMP JUMPDEST PUSH32 0x56656E657A75656C610000000000000000000000000000000000000000000000 PUSH0 DUP3 ADD MSTORE POP JUMP JUMPDEST PUSH0 PUSH2 0x8FFE PUSH1 0x9 DUP4 PUSH2 0x4751 JUMP JUMPDEST SWAP2 POP PUSH2 0x9009 DUP3 PUSH2 0x8FCA JUMP JUMPDEST PUSH1 0x9 DUP3 ADD SWAP1 POP SWAP2 SWAP1 POP JUMP JUMPDEST PUSH0 PUSH2 0x901E DUP3 PUSH2 0x8FF2 JUMP JUMPDEST SWAP2 POP DUP2 SWAP1 POP SWAP2 SWAP1 POP JUMP JUMPDEST PUSH32 0x566965746E616D00000000000000000000000000000000000000000000000000 PUSH0 DUP3 ADD MSTORE POP JUMP JUMPDEST PUSH0 PUSH2 0x905C PUSH1 0x7 DUP4 PUSH2 0x4751 JUMP JUMPDEST SWAP2 POP PUSH2 0x9067 DUP3 PUSH2 0x9028 JUMP JUMPDEST PUSH1 0x7 DUP3 ADD SWAP1 POP SWAP2 SWAP1 POP JUMP JUMPDEST PUSH0 PUSH2 0x907C DUP3 PUSH2 0x9050 JUMP JUMPDEST SWAP2 POP DUP2 SWAP1 POP SWAP2 SWAP1 POP JUMP JUMPDEST PUSH32 0x59656D656E000000000000000000000000000000000000000000000000000000 PUSH0 DUP3 ADD MSTORE POP JUMP JUMPDEST PUSH0 PUSH2 0x90BA PUSH1 0x5 DUP4 PUSH2 0x4751 JUMP JUMPDEST SWAP2 POP PUSH2 0x90C5 DUP3 PUSH2 0x9086 JUMP JUMPDEST PUSH1 0x5 DUP3 ADD SWAP1 POP SWAP2 SWAP1 POP JUMP JUMPDEST PUSH0 PUSH2 0x90DA DUP3 PUSH2 0x90AE JUMP JUMPDEST SWAP2 POP DUP2 SWAP1 POP SWAP2 SWAP1 POP JUMP JUMPDEST PUSH32 0x5A616D6269610000000000000000000000000000000000000000000000000000 PUSH0 DUP3 ADD MSTORE POP JUMP JUMPDEST PUSH0 PUSH2 0x9118 PUSH1 0x6 DUP4 PUSH2 0x4751 JUMP JUMPDEST SWAP2 POP PUSH2 0x9123 DUP3 PUSH2 0x90E4 JUMP JUMPDEST PUSH1 0x6 DUP3 ADD SWAP1 POP SWAP2 SWAP1 POP JUMP JUMPDEST PUSH0 PUSH2 0x9138 DUP3 PUSH2 0x910C JUMP JUMPDEST SWAP2 POP DUP2 SWAP1 POP SWAP2 SWAP1 POP JUMP JUMPDEST PUSH32 0x5A696D6261627765000000000000000000000000000000000000000000000000 PUSH0 DUP3 ADD MSTORE POP JUMP JUMPDEST PUSH0 PUSH2 0x9176 PUSH1 0x8 DUP4 PUSH2 0x4751 JUMP JUMPDEST SWAP2 POP PUSH2 0x9181 DUP3 PUSH2 0x9142 JUMP JUMPDEST PUSH1 0x8 DUP3 ADD SWAP1 POP SWAP2 SWAP1 POP JUMP JUMPDEST PUSH0 PUSH2 0x9196 DUP3 PUSH2 0x916A JUMP JUMPDEST SWAP2 POP DUP2 SWAP1 POP SWAP2 SWAP1 POP JUMP JUMPDEST PUSH2 0x4EE DUP1 PUSH2 0x91AD PUSH0 CODECOPY PUSH0 RETURN INVALID PUSH1 0x80 PUSH1 0x40 MSTORE CALLVALUE DUP1 ISZERO PUSH2 0xF JUMPI PUSH0 DUP1 REVERT JUMPDEST POP PUSH1 0x4 CALLDATASIZE LT PUSH2 0x34 JUMPI PUSH0 CALLDATALOAD PUSH1 0xE0 SHR DUP1 PUSH4 0x45D94C5D EQ PUSH2 0x38 JUMPI DUP1 PUSH4 0x83B156C4 EQ PUSH2 0x68 JUMPI JUMPDEST PUSH0 DUP1 REVERT JUMPDEST PUSH2 0x52 PUSH1 0x4 DUP1 CALLDATASIZE SUB DUP2 ADD SWAP1 PUSH2 0x4D SWAP2 SWAP1 PUSH2 0x344 JUMP JUMPDEST PUSH2 0x98 JUMP JUMPDEST PUSH1 0x40 MLOAD PUSH2 0x5F SWAP2 SWAP1 PUSH2 0x3EB JUMP JUMPDEST PUSH1 0x40 MLOAD DUP1 SWAP2 SUB SWAP1 RETURN JUMPDEST PUSH2 0x82 PUSH1 0x4 DUP1 CALLDATASIZE SUB DUP2 ADD SWAP1 PUSH2 0x7D SWAP2 SWAP1 PUSH2 0x344 JUMP JUMPDEST PUSH2 0x14A JUMP JUMPDEST PUSH1 0x40 MLOAD PUSH2 0x8F SWAP2 SWAP1 PUSH2 0x3EB JUMP JUMPDEST PUSH1 0x40 MLOAD DUP1 SWAP2 SUB SWAP1 RETURN JUMPDEST PUSH0 DUP2 DUP1 MLOAD PUSH1 0x20 DUP2 ADD DUP3 ADD DUP1 MLOAD DUP5 DUP3 MSTORE PUSH1 0x20 DUP4 ADD PUSH1 0x20 DUP6 ADD KECCAK256 DUP2 DUP4 MSTORE DUP1 SWAP6 POP POP POP POP POP POP PUSH0 SWAP2 POP SWAP1 POP DUP1 SLOAD PUSH2 0xCB SWAP1 PUSH2 0x438 JUMP JUMPDEST DUP1 PUSH1 0x1F ADD PUSH1 0x20 DUP1 SWAP2 DIV MUL PUSH1 0x20 ADD PUSH1 0x40 MLOAD SWAP1 DUP2 ADD PUSH1 0x40 MSTORE DUP1 SWAP3 SWAP2 SWAP1 DUP2 DUP2 MSTORE PUSH1 0x20 ADD DUP3 DUP1 SLOAD PUSH2 0xF7 SWAP1 PUSH2 0x438 JUMP JUMPDEST DUP1 ISZERO PUSH2 0x142 JUMPI DUP1 PUSH1 0x1F LT PUSH2 0x119 JUMPI PUSH2 0x100 DUP1 DUP4 SLOAD DIV MUL DUP4 MSTORE SWAP2 PUSH1 0x20 ADD SWAP2 PUSH2 0x142 JUMP JUMPDEST DUP3 ADD SWAP2 SWAP1 PUSH0 MSTORE PUSH1 0x20 PUSH0 KECCAK256 SWAP1 JUMPDEST DUP2 SLOAD DUP2 MSTORE SWAP1 PUSH1 0x1 ADD SWAP1 PUSH1 0x20 ADD DUP1 DUP4 GT PUSH2 0x125 JUMPI DUP3 SWAP1 SUB PUSH1 0x1F AND DUP3 ADD SWAP2 JUMPDEST POP POP POP POP POP DUP2 JUMP JUMPDEST PUSH1 0x60 PUSH0 DUP3 PUSH1 0x40 MLOAD PUSH2 0x15B SWAP2 SWAP1 PUSH2 0x4A2 JUMP JUMPDEST SWAP1 DUP2 MSTORE PUSH1 0x20 ADD PUSH1 0x40 MLOAD DUP1 SWAP2 SUB SWAP1 KECCAK256 DUP1 SLOAD PUSH2 0x174 SWAP1 PUSH2 0x438 JUMP JUMPDEST DUP1 PUSH1 0x1F ADD PUSH1 0x20 DUP1 SWAP2 DIV MUL PUSH1 0x20 ADD PUSH1 0x40 MLOAD SWAP1 DUP2 ADD PUSH1 0x40 MSTORE DUP1 SWAP3 SWAP2 SWAP1 DUP2 DUP2 MSTORE PUSH1 0x20 ADD DUP3 DUP1 SLOAD PUSH2 0x1A0 SWAP1 PUSH2 0x438 JUMP JUMPDEST DUP1 ISZERO PUSH2 0x1EB JUMPI DUP1 PUSH1 0x1F LT PUSH2 0x1C2 JUMPI PUSH2 0x100 DUP1 DUP4 SLOAD DIV MUL DUP4 MSTORE SWAP2 PUSH1 0x20 ADD SWAP2 PUSH2 0x1EB JUMP JUMPDEST DUP3 ADD SWAP2 SWAP1 PUSH0 MSTORE PUSH1 0x20 PUSH0 KECCAK256 SWAP1 JUMPDEST DUP2 SLOAD DUP2 MSTORE SWAP1 PUSH1 0x1 ADD SWAP1 PUSH1 0x20 ADD DUP1 DUP4 GT PUSH2 0x1CE JUMPI DUP3 SWAP1 SUB PUSH1 0x1F AND DUP3 ADD SWAP2 JUMPDEST POP POP POP POP POP SWAP1 POP SWAP2 SWAP1 POP JUMP JUMPDEST PUSH0 PUSH1 0x40 MLOAD SWAP1 POP SWAP1 JUMP JUMPDEST PUSH0 DUP1 REVERT JUMPDEST PUSH0 DUP1 REVERT JUMPDEST PUSH0 DUP1 REVERT JUMPDEST PUSH0 DUP1 REVERT JUMPDEST PUSH0 PUSH1 0x1F NOT PUSH1 0x1F DUP4 ADD AND SWAP1 POP SWAP2 SWAP1 POP JUMP JUMPDEST PUSH32 0x4E487B7100000000000000000000000000000000000000000000000000000000 PUSH0 MSTORE PUSH1 0x41 PUSH1 0x4 MSTORE PUSH1 0x24 PUSH0 REVERT JUMPDEST PUSH2 0x256 DUP3 PUSH2 0x210 JUMP JUMPDEST DUP2 ADD DUP2 DUP2 LT PUSH8 0xFFFFFFFFFFFFFFFF DUP3 GT OR ISZERO PUSH2 0x275 JUMPI PUSH2 0x274 PUSH2 0x220 JUMP JUMPDEST JUMPDEST DUP1 PUSH1 0x40 MSTORE POP POP POP JUMP JUMPDEST PUSH0 PUSH2 0x287 PUSH2 0x1F7 JUMP JUMPDEST SWAP1 POP PUSH2 0x293 DUP3 DUP3 PUSH2 0x24D JUMP JUMPDEST SWAP2 SWAP1 POP JUMP JUMPDEST PUSH0 PUSH8 0xFFFFFFFFFFFFFFFF DUP3 GT ISZERO PUSH2 0x2B2 JUMPI PUSH2 0x2B1 PUSH2 0x220 JUMP JUMPDEST JUMPDEST PUSH2 0x2BB DUP3 PUSH2 0x210 JUMP JUMPDEST SWAP1 POP PUSH1 0x20 DUP2 ADD SWAP1 POP SWAP2 SWAP1 POP JUMP JUMPDEST DUP3 DUP2 DUP4 CALLDATACOPY PUSH0 DUP4 DUP4 ADD MSTORE POP POP POP JUMP JUMPDEST PUSH0 PUSH2 0x2E8 PUSH2 0x2E3 DUP5 PUSH2 0x298 JUMP JUMPDEST PUSH2 0x27E JUMP JUMPDEST SWAP1 POP DUP3 DUP2 MSTORE PUSH1 0x20 DUP2 ADD DUP5 DUP5 DUP5 ADD GT ISZERO PUSH2 0x304 JUMPI PUSH2 0x303 PUSH2 0x20C JUMP JUMPDEST JUMPDEST PUSH2 0x30F DUP5 DUP3 DUP6 PUSH2 0x2C8 JUMP JUMPDEST POP SWAP4 SWAP3 POP POP POP JUMP JUMPDEST PUSH0 DUP3 PUSH1 0x1F DUP4 ADD SLT PUSH2 0x32B JUMPI PUSH2 0x32A PUSH2 0x208 JUMP JUMPDEST JUMPDEST DUP2 CALLDATALOAD PUSH2 0x33B DUP5 DUP3 PUSH1 0x20 DUP7 ADD PUSH2 0x2D6 JUMP JUMPDEST SWAP2 POP POP SWAP3 SWAP2 POP POP JUMP JUMPDEST PUSH0 PUSH1 0x20 DUP3 DUP5 SUB SLT ISZERO PUSH2 0x359 JUMPI PUSH2 0x358 PUSH2 0x200 JUMP JUMPDEST JUMPDEST PUSH0 DUP3 ADD CALLDATALOAD PUSH8 0xFFFFFFFFFFFFFFFF DUP2 GT ISZERO PUSH2 0x376 JUMPI PUSH2 0x375 PUSH2 0x204 JUMP JUMPDEST JUMPDEST PUSH2 0x382 DUP5 DUP3 DUP6 ADD PUSH2 0x317 JUMP JUMPDEST SWAP2 POP POP SWAP3 SWAP2 POP POP JUMP JUMPDEST PUSH0 DUP2 MLOAD SWAP1 POP SWAP2 SWAP1 POP JUMP JUMPDEST PUSH0 DUP3 DUP3 MSTORE PUSH1 0x20 DUP3 ADD SWAP1 POP SWAP3 SWAP2 POP POP JUMP JUMPDEST DUP3 DUP2 DUP4 MCOPY PUSH0 DUP4 DUP4 ADD MSTORE POP POP POP JUMP JUMPDEST PUSH0 PUSH2 0x3BD DUP3 PUSH2 0x38B JUMP JUMPDEST PUSH2 0x3C7 DUP2 DUP6 PUSH2 0x395 JUMP JUMPDEST SWAP4 POP PUSH2 0x3D7 DUP2 DUP6 PUSH1 0x20 DUP7 ADD PUSH2 0x3A5 JUMP JUMPDEST PUSH2 0x3E0 DUP2 PUSH2 0x210 JUMP JUMPDEST DUP5 ADD SWAP2 POP POP SWAP3 SWAP2 POP POP JUMP JUMPDEST PUSH0 PUSH1 0x20 DUP3 ADD SWAP1 POP DUP2 DUP2 SUB PUSH0 DUP4 ADD MSTORE PUSH2 0x403 DUP2 DUP5 PUSH2 0x3B3 JUMP JUMPDEST SWAP1 POP SWAP3 SWAP2 POP POP JUMP JUMPDEST PUSH32 0x4E487B7100000000000000000000000000000000000000000000000000000000 PUSH0 MSTORE PUSH1 0x22 PUSH1 0x4 MSTORE PUSH1 0x24 PUSH0 REVERT JUMPDEST PUSH0 PUSH1 0x2 DUP3 DIV SWAP1 POP PUSH1 0x1 DUP3 AND DUP1 PUSH2 0x44F JUMPI PUSH1 0x7F DUP3 AND SWAP2 POP JUMPDEST PUSH1 0x20 DUP3 LT DUP2 SUB PUSH2 0x462 JUMPI PUSH2 0x461 PUSH2 0x40B JUMP JUMPDEST JUMPDEST POP SWAP2 SWAP1 POP JUMP JUMPDEST PUSH0 DUP2 SWAP1 POP SWAP3 SWAP2 POP POP JUMP JUMPDEST PUSH0 PUSH2 0x47C DUP3 PUSH2 0x38B JUMP JUMPDEST PUSH2 0x486 DUP2 DUP6 PUSH2 0x468 JUMP JUMPDEST SWAP4 POP PUSH2 0x496 DUP2 DUP6 PUSH1 0x20 DUP7 ADD PUSH2 0x3A5 JUMP JUMPDEST DUP1 DUP5 ADD SWAP2 POP POP SWAP3 SWAP2 POP POP JUMP JUMPDEST PUSH0 PUSH2 0x4AD DUP3 DUP5 PUSH2 0x472 JUMP JUMPDEST SWAP2 POP DUP2 SWAP1 POP SWAP3 SWAP2 POP POP JUMP INVALID LOG2 PUSH5 0x6970667358 0x22 SLT KECCAK256 SWAP8 GAS 0xE3 DUP13 PUSH16 0x7C6D130F4D3783FE0D452BAA1E14475B CREATE SLT NUMBER POP DUP4 0xD2 0xBE REVERT BALANCE PUSH26 0xB664736F6C634300081A00330000000000000000000000000000 "
		},
		"gasEstimates": {
			"creation": {
				"codeDepositCost": "252400",
				"executionCost": "infinite",
				"totalCost": "infinite"
			},
			"external": {
				"countryToISO(string)": "infinite",
				"getISOCode(string)": "infinite"
			}
		},
		"methodIdentifiers": {
			"countryToISO(string)": "45d94c5d",
			"getISOCode(string)": "83b156c4"
		}
	},
	"abi": [
		{
			"inputs": [],
			"stateMutability": "nonpayable",
			"type": "constructor"
		},
		{
			"inputs": [
				{
					"internalType": "string",
					"name": "",
					"type": "string"
				}
			],
			"name": "countryToISO",
			"outputs": [
				{
					"internalType": "string",
					"name": "",
					"type": "string"
				}
			],
			"stateMutability": "view",
			"type": "function"
		},
		{
			"inputs": [
				{
					"internalType": "string",
					"name": "countryName",
					"type": "string"
				}
			],
			"name": "getISOCode",
			"outputs": [
				{
					"internalType": "string",
					"name": "",
					"type": "string"
				}
			],
			"stateMutability": "view",
			"type": "function"
		}
	]
}