{
	"data": {
		"bytecode": {
			"linkReferences": {},
			"object": "608060405234801561000f575f80fd5b506040516131fa3803806131fa83398181016040528101906100319190610390565b5f73ffffffffffffffffffffffffffffffffffffffff168273ffffffffffffffffffffffffffffffffffffffff160361009f576040517f08c379a00000000000000000000000000000000000000000000000000000000081526004016100969061044e565b60405180910390fd5b815f806101000a81548173ffffffffffffffffffffffffffffffffffffffff021916908373ffffffffffffffffffffffffffffffffffffffff1602179055505f73ffffffffffffffffffffffffffffffffffffffff168173ffffffffffffffffffffffffffffffffffffffff160361014c576040517f08c379a0000000000000000000000000000000000000000000000000000000008152600401610143906104b6565b60405180910390fd5b8060015f6101000a81548173ffffffffffffffffffffffffffffffffffffffff021916908373ffffffffffffffffffffffffffffffffffffffff1602179055506040518060400160405280600681526020017f4661696c6564000000000000000000000000000000000000000000000000000081525060085f8060ff1681526020019081526020015f2090816101e2919061070e565b506040518060400160405280602081526020017f4d616e75616c20436f6d706c69616e636520436865636b20526571756972656481525060085f600160ff1681526020019081526020015f20908161023a919061070e565b506040518060400160405280601481526020017f526561647920666f722050726f63657373696e6700000000000000000000000081525060085f600260ff1681526020019081526020015f209081610292919061070e565b506040518060400160405280600781526020017f537563636573730000000000000000000000000000000000000000000000000081525060085f600360ff1681526020019081526020015f2090816102ea919061070e565b503360025f6101000a81548173ffffffffffffffffffffffffffffffffffffffff021916908373ffffffffffffffffffffffffffffffffffffffff16021790555050506107dd565b5f80fd5b5f73ffffffffffffffffffffffffffffffffffffffff82169050919050565b5f61035f82610336565b9050919050565b61036f81610355565b8114610379575f80fd5b50565b5f8151905061038a81610366565b92915050565b5f80604083850312156103a6576103a5610332565b5b5f6103b38582860161037c565b92505060206103c48582860161037c565b9150509250929050565b5f82825260208201905092915050565b7f496e76616c696420436f756e747269657320636f6e74726163742061646472655f8201527f7373000000000000000000000000000000000000000000000000000000000000602082015250565b5f6104386022836103ce565b9150610443826103de565b604082019050919050565b5f6020820190508181035f8301526104658161042c565b9050919050565b7f496e76616c696420455243323020636f6e7472616374206164647265737300005f82015250565b5f6104a0601e836103ce565b91506104ab8261046c565b602082019050919050565b5f6020820190508181035f8301526104cd81610494565b9050919050565b5f81519050919050565b7f4e487b71000000000000000000000000000000000000000000000000000000005f52604160045260245ffd5b7f4e487b71000000000000000000000000000000000000000000000000000000005f52602260045260245ffd5b5f600282049050600182168061054f57607f821691505b6020821081036105625761056161050b565b5b50919050565b5f819050815f5260205f209050919050565b5f6020601f8301049050919050565b5f82821b905092915050565b5f600883026105c47fffffffffffffffffffffffffffffffffffffffffffffffffffffffffffffffff82610589565b6105ce8683610589565b95508019841693508086168417925050509392505050565b5f819050919050565b5f819050919050565b5f61061261060d610608846105e6565b6105ef565b6105e6565b9050919050565b5f819050919050565b61062b836105f8565b61063f61063782610619565b848454610595565b825550505050565b5f90565b610653610647565b61065e818484610622565b505050565b5b81811015610681576106765f8261064b565b600181019050610664565b5050565b601f8211156106c65761069781610568565b6106a08461057a565b810160208510156106af578190505b6106c36106bb8561057a565b830182610663565b50505b505050565b5f82821c905092915050565b5f6106e65f19846008026106cb565b1980831691505092915050565b5f6106fe83836106d7565b9150826002028217905092915050565b610717826104d4565b67ffffffffffffffff8111156107305761072f6104de565b5b61073a8254610538565b610745828285610685565b5f60209050601f831160018114610776575f8415610764578287015190505b61076e85826106f3565b8655506107d5565b601f19841661078486610568565b5f5b828110156107ab57848901518255600182019150602085019450602081019050610786565b868310156107c857848901516107c4601f8916826106d7565b8355505b6001600288020188555050505b505050505050565b612a10806107ea5f395ff3fe608060405234801561000f575f80fd5b506004361061007b575f3560e01c80637996f571116100595780637996f571146100af5780638da5cb5b146100cd578063aa7eae57146100eb578063b220ff911461011b5761007b565b806319efdc171461007f5780632dc3eb771461008957806342e53255146100a5575b5f80fd5b610087610139565b005b6100a3600480360381019061009e9190610ec1565b61026f565b005b6100ad610765565b005b6100b7610b99565b6040516100c49190610f7f565b60405180910390f35b6100d5610bbe565b6040516100e29190610f7f565b60405180910390f35b61010560048036038101906101009190610fce565b610be3565b6040516101129190611059565b60405180910390f35b610123610c7e565b6040516101309190610f7f565b60405180910390f35b60025f9054906101000a900473ffffffffffffffffffffffffffffffffffffffff1673ffffffffffffffffffffffffffffffffffffffff163373ffffffffffffffffffffffffffffffffffffffff16146101c8576040517f08c379a00000000000000000000000000000000000000000000000000000000081526004016101bf906110e9565b60405180910390fd5b5f5b60038054905081101561025f5760065f600383815481106101ee576101ed611107565b5b905f5260205f20015f9054906101000a900473ffffffffffffffffffffffffffffffffffffffff1673ffffffffffffffffffffffffffffffffffffffff1673ffffffffffffffffffffffffffffffffffffffff1681526020019081526020015f205f905580806001019150506101ca565b5060035f61026d9190610ca1565b565b60025f9054906101000a900473ffffffffffffffffffffffffffffffffffffffff1673ffffffffffffffffffffffffffffffffffffffff163373ffffffffffffffffffffffffffffffffffffffff16146102fe576040517f08c379a00000000000000000000000000000000000000000000000000000000081526004016102f5906110e9565b60405180910390fd5b5f805f9054906101000a900473ffffffffffffffffffffffffffffffffffffffff1690508073ffffffffffffffffffffffffffffffffffffffff166303649e43846040518263ffffffff1660e01b815260040161035b9190611059565b602060405180830381865afa158015610376573d5f803e3d5ffd5b505050506040513d601f19601f8201168201806040525081019061039a9190611169565b6103d9576040517f08c379a00000000000000000000000000000000000000000000000000000000081526004016103d0906111de565b60405180910390fd5b8073ffffffffffffffffffffffffffffffffffffffff166303649e43836040518263ffffffff1660e01b81526004016104129190611059565b602060405180830381865afa15801561042d573d5f803e3d5ffd5b505050506040513d601f19601f820116820180604052508101906104519190611169565b610490576040517f08c379a00000000000000000000000000000000000000000000000000000000081526004016104879061126c565b60405180910390fd5b5f86868686865f8054906101000a900473ffffffffffffffffffffffffffffffffffffffff1660015f9054906101000a900473ffffffffffffffffffffffffffffffffffffffff166040516104e490610cbf565b6104f49796959493929190611299565b604051809103905ff08015801561050d573d5f803e3d5ffd5b5090505f600290505f8290508160075f8373ffffffffffffffffffffffffffffffffffffffff1673ffffffffffffffffffffffffffffffffffffffff1681526020019081526020015f205f6101000a81548160ff021916908360ff160217905550600481908060018154018082558091505060019003905f5260205f20015f9091909190916101000a81548173ffffffffffffffffffffffffffffffffffffffff021916908373ffffffffffffffffffffffffffffffffffffffff1602179055505f60065f8b73ffffffffffffffffffffffffffffffffffffffff1673ffffffffffffffffffffffffffffffffffffffff1681526020019081526020015f20540361067357600389908060018154018082558091505060019003905f5260205f20015f9091909190916101000a81548173ffffffffffffffffffffffffffffffffffffffff021916908373ffffffffffffffffffffffffffffffffffffffff1602179055505b8660065f8b73ffffffffffffffffffffffffffffffffffffffff1673ffffffffffffffffffffffffffffffffffffffff1681526020019081526020015f205f8282546106bf9190611341565b925050819055508073ffffffffffffffffffffffffffffffffffffffff168873ffffffffffffffffffffffffffffffffffffffff168a73ffffffffffffffffffffffffffffffffffffffff167f5839776b73db7badf65b7f2c97562f6735ab7dffb743deffa1c6967b7bd6ca6b8a60085f8860ff1660ff1681526020019081526020015f20604051610752929190611464565b60405180910390a4505050505050505050565b60025f9054906101000a900473ffffffffffffffffffffffffffffffffffffffff1673ffffffffffffffffffffffffffffffffffffffff163373ffffffffffffffffffffffffffffffffffffffff16146107f4576040517f08c379a00000000000000000000000000000000000000000000000000000000081526004016107eb906110e9565b60405180910390fd5b5f5b60048054905081101561090a575f6004828154811061081857610817611107565b5b905f5260205f20015f9054906101000a900473ffffffffffffffffffffffffffffffffffffffff1690505f60075f8373ffffffffffffffffffffffffffffffffffffffff1673ffffffffffffffffffffffffffffffffffffffff1681526020019081526020015f205f9054906101000a900460ff16905060028160ff16036108fb57600582908060018154018082558091505060019003905f5260205f20015f9091909190916101000a81548173ffffffffffffffffffffffffffffffffffffffff021916908373ffffffffffffffffffffffffffffffffffffffff1602179055505b505080806001019150506107f6565b505f5b600580549050811015610b89575f6005828154811061092f5761092e611107565b5b905f5260205f20015f9054906101000a900473ffffffffffffffffffffffffffffffffffffffff16905060075f8273ffffffffffffffffffffffffffffffffffffffff1673ffffffffffffffffffffffffffffffffffffffff1681526020019081526020015f205f6101000a81549060ff02191690555f5b600480549050811015610b1a578173ffffffffffffffffffffffffffffffffffffffff16600482815481106109df576109de611107565b5b905f5260205f20015f9054906101000a900473ffffffffffffffffffffffffffffffffffffffff1673ffffffffffffffffffffffffffffffffffffffff1603610b0d5760046001600480549050610a369190611492565b81548110610a4757610a46611107565b5b905f5260205f20015f9054906101000a900473ffffffffffffffffffffffffffffffffffffffff1660048281548110610a8357610a82611107565b5b905f5260205f20015f6101000a81548173ffffffffffffffffffffffffffffffffffffffff021916908373ffffffffffffffffffffffffffffffffffffffff1602179055506004805480610ada57610ad96114c5565b5b600190038181905f5260205f20015f6101000a81549073ffffffffffffffffffffffffffffffffffffffff021916905590555b80806001019150506109a7565b505f8190508073ffffffffffffffffffffffffffffffffffffffff16631b9265b86040518163ffffffff1660e01b81526004015f604051808303815f87803b158015610b64575f80fd5b505af1158015610b76573d5f803e3d5ffd5b505050505050808060010191505061090d565b5060055f610b979190610ca1565b565b60015f9054906101000a900473ffffffffffffffffffffffffffffffffffffffff1681565b60025f9054906101000a900473ffffffffffffffffffffffffffffffffffffffff1681565b6008602052805f5260405f205f915090508054610bff906113a1565b80601f0160208091040260200160405190810160405280929190818152602001828054610c2b906113a1565b8015610c765780601f10610c4d57610100808354040283529160200191610c76565b820191905f5260205f20905b815481529060010190602001808311610c5957829003601f168201915b505050505081565b5f8054906101000a900473ffffffffffffffffffffffffffffffffffffffff1681565b5080545f8255905f5260205f2090810190610cbc9190610ccc565b50565b6114e8806114f383390190565b5b80821115610ce3575f815f905550600101610ccd565b5090565b5f604051905090565b5f80fd5b5f80fd5b5f73ffffffffffffffffffffffffffffffffffffffff82169050919050565b5f610d2182610cf8565b9050919050565b610d3181610d17565b8114610d3b575f80fd5b50565b5f81359050610d4c81610d28565b92915050565b5f819050919050565b610d6481610d52565b8114610d6e575f80fd5b50565b5f81359050610d7f81610d5b565b92915050565b5f80fd5b5f80fd5b5f601f19601f8301169050919050565b7f4e487b71000000000000000000000000000000000000000000000000000000005f52604160045260245ffd5b610dd382610d8d565b810181811067ffffffffffffffff82111715610df257610df1610d9d565b5b80604052505050565b5f610e04610ce7565b9050610e108282610dca565b919050565b5f67ffffffffffffffff821115610e2f57610e2e610d9d565b5b610e3882610d8d565b9050602081019050919050565b828183375f83830152505050565b5f610e65610e6084610e15565b610dfb565b905082815260208101848484011115610e8157610e80610d89565b5b610e8c848285610e45565b509392505050565b5f82601f830112610ea857610ea7610d85565b5b8135610eb8848260208601610e53565b91505092915050565b5f805f805f60a08688031215610eda57610ed9610cf0565b5b5f610ee788828901610d3e565b9550506020610ef888828901610d3e565b9450506040610f0988828901610d71565b935050606086013567ffffffffffffffff811115610f2a57610f29610cf4565b5b610f3688828901610e94565b925050608086013567ffffffffffffffff811115610f5757610f56610cf4565b5b610f6388828901610e94565b9150509295509295909350565b610f7981610d17565b82525050565b5f602082019050610f925f830184610f70565b92915050565b5f60ff82169050919050565b610fad81610f98565b8114610fb7575f80fd5b50565b5f81359050610fc881610fa4565b92915050565b5f60208284031215610fe357610fe2610cf0565b5b5f610ff084828501610fba565b91505092915050565b5f81519050919050565b5f82825260208201905092915050565b8281835e5f83830152505050565b5f61102b82610ff9565b6110358185611003565b9350611045818560208601611013565b61104e81610d8d565b840191505092915050565b5f6020820190508181035f8301526110718184611021565b905092915050565b7f4f6e6c7920746865206f776e65722063616e20706572666f726d2074686973205f8201527f616374696f6e0000000000000000000000000000000000000000000000000000602082015250565b5f6110d3602683611003565b91506110de82611079565b604082019050919050565b5f6020820190508181035f830152611100816110c7565b9050919050565b7f4e487b71000000000000000000000000000000000000000000000000000000005f52603260045260245ffd5b5f8115159050919050565b61114881611134565b8114611152575f80fd5b50565b5f815190506111638161113f565b92915050565b5f6020828403121561117e5761117d610cf0565b5b5f61118b84828501611155565b91505092915050565b7f496e76616c696420706179657220636f756e7472792049534f20636f646500005f82015250565b5f6111c8601e83611003565b91506111d382611194565b602082019050919050565b5f6020820190508181035f8301526111f5816111bc565b9050919050565b7f496e76616c696420726563697069656e7420636f756e7472792049534f20636f5f8201527f6465000000000000000000000000000000000000000000000000000000000000602082015250565b5f611256602283611003565b9150611261826111fc565b604082019050919050565b5f6020820190508181035f8301526112838161124a565b9050919050565b61129381610d52565b82525050565b5f60e0820190506112ac5f83018a610f70565b6112b96020830189610f70565b6112c6604083018861128a565b81810360608301526112d88187611021565b905081810360808301526112ec8186611021565b90506112fb60a0830185610f70565b61130860c0830184610f70565b98975050505050505050565b7f4e487b71000000000000000000000000000000000000000000000000000000005f52601160045260245ffd5b5f61134b82610d52565b915061135683610d52565b925082820190508082111561136e5761136d611314565b5b92915050565b7f4e487b71000000000000000000000000000000000000000000000000000000005f52602260045260245ffd5b5f60028204905060018216806113b857607f821691505b6020821081036113cb576113ca611374565b5b50919050565b5f819050815f5260205f209050919050565b5f81546113ef816113a1565b6113f98186611003565b9450600182165f811461141357600181146114295761145b565b60ff19831686528115156020028601935061145b565b611432856113d1565b5f5b8381101561145357815481890152600182019150602081019050611434565b808801955050505b50505092915050565b5f6040820190506114775f83018561128a565b818103602083015261148981846113e3565b90509392505050565b5f61149c82610d52565b91506114a783610d52565b92508282039050818111156114bf576114be611314565b5b92915050565b7f4e487b71000000000000000000000000000000000000000000000000000000005f52603160045260245ffdfe608060405234801561000f575f80fd5b506040516114e83803806114e8833981810160405281019061003191906105ad565b5f73ffffffffffffffffffffffffffffffffffffffff168273ffffffffffffffffffffffffffffffffffffffff160361009f576040517f08c379a000000000000000000000000000000000000000000000000000000000815260040161009690610702565b60405180910390fd5b8160055f6101000a81548173ffffffffffffffffffffffffffffffffffffffff021916908373ffffffffffffffffffffffffffffffffffffffff1602179055505f73ffffffffffffffffffffffffffffffffffffffff168173ffffffffffffffffffffffffffffffffffffffff160361014d576040517f08c379a00000000000000000000000000000000000000000000000000000000081526004016101449061076a565b60405180910390fd5b8060065f6101000a81548173ffffffffffffffffffffffffffffffffffffffff021916908373ffffffffffffffffffffffffffffffffffffffff1602179055505f60055f9054906101000a900473ffffffffffffffffffffffffffffffffffffffff1690508073ffffffffffffffffffffffffffffffffffffffff166303649e43866040518263ffffffff1660e01b81526004016101eb91906107ca565b602060405180830381865afa158015610206573d5f803e3d5ffd5b505050506040513d601f19601f8201168201806040525081019061022a919061081f565b610269576040517f08c379a000000000000000000000000000000000000000000000000000000000815260040161026090610894565b60405180910390fd5b8073ffffffffffffffffffffffffffffffffffffffff166303649e43856040518263ffffffff1660e01b81526004016102a291906107ca565b602060405180830381865afa1580156102bd573d5f803e3d5ffd5b505050506040513d601f19601f820116820180604052508101906102e1919061081f565b610320576040517f08c379a000000000000000000000000000000000000000000000000000000000815260040161031790610922565b60405180910390fd5b875f806101000a81548173ffffffffffffffffffffffffffffffffffffffff021916908373ffffffffffffffffffffffffffffffffffffffff1602179055508660015f6101000a81548173ffffffffffffffffffffffffffffffffffffffff021916908373ffffffffffffffffffffffffffffffffffffffff1602179055508560028190555084600390816103b59190610b3a565b5083600490816103c59190610b3a565b505050505050505050610c09565b5f604051905090565b5f80fd5b5f80fd5b5f73ffffffffffffffffffffffffffffffffffffffff82169050919050565b5f61040d826103e4565b9050919050565b61041d81610403565b8114610427575f80fd5b50565b5f8151905061043881610414565b92915050565b5f819050919050565b6104508161043e565b811461045a575f80fd5b50565b5f8151905061046b81610447565b92915050565b5f80fd5b5f80fd5b5f601f19601f8301169050919050565b7f4e487b71000000000000000000000000000000000000000000000000000000005f52604160045260245ffd5b6104bf82610479565b810181811067ffffffffffffffff821117156104de576104dd610489565b5b80604052505050565b5f6104f06103d3565b90506104fc82826104b6565b919050565b5f67ffffffffffffffff82111561051b5761051a610489565b5b61052482610479565b9050602081019050919050565b8281835e5f83830152505050565b5f61055161054c84610501565b6104e7565b90508281526020810184848401111561056d5761056c610475565b5b610578848285610531565b509392505050565b5f82601f83011261059457610593610471565b5b81516105a484826020860161053f565b91505092915050565b5f805f805f805f60e0888a0312156105c8576105c76103dc565b5b5f6105d58a828b0161042a565b97505060206105e68a828b0161042a565b96505060406105f78a828b0161045d565b955050606088015167ffffffffffffffff811115610618576106176103e0565b5b6106248a828b01610580565b945050608088015167ffffffffffffffff811115610645576106446103e0565b5b6106518a828b01610580565b93505060a06106628a828b0161042a565b92505060c06106738a828b0161042a565b91505092959891949750929550565b5f82825260208201905092915050565b7f496e76616c696420436f756e747269657320636f6e74726163742061646472655f8201527f7373000000000000000000000000000000000000000000000000000000000000602082015250565b5f6106ec602283610682565b91506106f782610692565b604082019050919050565b5f6020820190508181035f830152610719816106e0565b9050919050565b7f496e76616c696420455243323020636f6e7472616374206164647265737300005f82015250565b5f610754601e83610682565b915061075f82610720565b602082019050919050565b5f6020820190508181035f83015261078181610748565b9050919050565b5f81519050919050565b5f61079c82610788565b6107a68185610682565b93506107b6818560208601610531565b6107bf81610479565b840191505092915050565b5f6020820190508181035f8301526107e28184610792565b905092915050565b5f8115159050919050565b6107fe816107ea565b8114610808575f80fd5b50565b5f81519050610819816107f5565b92915050565b5f60208284031215610834576108336103dc565b5b5f6108418482850161080b565b91505092915050565b7f496e76616c696420706179657220636f756e7472792049534f20636f646500005f82015250565b5f61087e601e83610682565b91506108898261084a565b602082019050919050565b5f6020820190508181035f8301526108ab81610872565b9050919050565b7f496e76616c696420726563697069656e7420636f756e7472792049534f20636f5f8201527f6465000000000000000000000000000000000000000000000000000000000000602082015250565b5f61090c602283610682565b9150610917826108b2565b604082019050919050565b5f6020820190508181035f83015261093981610900565b9050919050565b7f4e487b71000000000000000000000000000000000000000000000000000000005f52602260045260245ffd5b5f600282049050600182168061098457607f821691505b60208210810361099757610996610940565b5b50919050565b5f819050815f5260205f209050919050565b5f6020601f8301049050919050565b5f82821b905092915050565b5f600883026109f97fffffffffffffffffffffffffffffffffffffffffffffffffffffffffffffffff826109be565b610a0386836109be565b95508019841693508086168417925050509392505050565b5f819050919050565b5f610a3e610a39610a348461043e565b610a1b565b61043e565b9050919050565b5f819050919050565b610a5783610a24565b610a6b610a6382610a45565b8484546109ca565b825550505050565b5f90565b610a7f610a73565b610a8a818484610a4e565b505050565b5b81811015610aad57610aa25f82610a77565b600181019050610a90565b5050565b601f821115610af257610ac38161099d565b610acc846109af565b81016020851015610adb578190505b610aef610ae7856109af565b830182610a8f565b50505b505050565b5f82821c905092915050565b5f610b125f1984600802610af7565b1980831691505092915050565b5f610b2a8383610b03565b9150826002028217905092915050565b610b4382610788565b67ffffffffffffffff811115610b5c57610b5b610489565b5b610b66825461096d565b610b71828285610ab1565b5f60209050601f831160018114610ba2575f8415610b90578287015190505b610b9a8582610b1f565b865550610c01565b601f198416610bb08661099d565b5f5b82811015610bd757848901518255600182019150602085019450602081019050610bb2565b86831015610bf45784890151610bf0601f891682610b03565b8355505b6001600288020188555050505b505050505050565b6108d280610c165f395ff3fe608060405234801561000f575f80fd5b5060043610610086575f3560e01c80637996f571116100595780637996f571146100ee578063aa8c217c1461010c578063b220ff911461012a578063e76800e51461014857610086565b8063123119cd1461008a5780631b9265b8146100a8578063214ad5f1146100b257806366d003ac146100d0575b5f80fd5b610092610166565b60405161009f91906105a7565b60405180910390f35b6100b0610189565b005b6100ba6103db565b6040516100c79190610630565b60405180910390f35b6100d8610467565b6040516100e591906105a7565b60405180910390f35b6100f661048c565b60405161010391906105a7565b60405180910390f35b6101146104b1565b6040516101219190610668565b60405180910390f35b6101326104b7565b60405161013f91906105a7565b60405180910390f35b6101506104dc565b60405161015d9190610630565b60405180910390f35b5f8054906101000a900473ffffffffffffffffffffffffffffffffffffffff1681565b5f60065f9054906101000a900473ffffffffffffffffffffffffffffffffffffffff1690506002548173ffffffffffffffffffffffffffffffffffffffff16635f5152265f8054906101000a900473ffffffffffffffffffffffffffffffffffffffff166040518263ffffffff1660e01b815260040161020991906105a7565b602060405180830381865afa158015610224573d5f803e3d5ffd5b505050506040513d601f19601f8201168201806040525081019061024891906106af565b1015610289576040517f08c379a000000000000000000000000000000000000000000000000000000000815260040161028090610724565b60405180910390fd5b5f73ffffffffffffffffffffffffffffffffffffffff1660015f9054906101000a900473ffffffffffffffffffffffffffffffffffffffff1673ffffffffffffffffffffffffffffffffffffffff1603610318576040517f08c379a000000000000000000000000000000000000000000000000000000000815260040161030f9061078c565b60405180910390fd5b8073ffffffffffffffffffffffffffffffffffffffff166323b872dd5f8054906101000a900473ffffffffffffffffffffffffffffffffffffffff1660015f9054906101000a900473ffffffffffffffffffffffffffffffffffffffff166002546040518463ffffffff1660e01b8152600401610397939291906107aa565b6020604051808303815f875af11580156103b3573d5f803e3d5ffd5b505050506040513d601f19601f820116820180604052508101906103d79190610814565b5050565b600480546103e89061086c565b80601f01602080910402602001604051908101604052809291908181526020018280546104149061086c565b801561045f5780601f106104365761010080835404028352916020019161045f565b820191905f5260205f20905b81548152906001019060200180831161044257829003601f168201915b505050505081565b60015f9054906101000a900473ffffffffffffffffffffffffffffffffffffffff1681565b60065f9054906101000a900473ffffffffffffffffffffffffffffffffffffffff1681565b60025481565b60055f9054906101000a900473ffffffffffffffffffffffffffffffffffffffff1681565b600380546104e99061086c565b80601f01602080910402602001604051908101604052809291908181526020018280546105159061086c565b80156105605780601f1061053757610100808354040283529160200191610560565b820191905f5260205f20905b81548152906001019060200180831161054357829003601f168201915b505050505081565b5f73ffffffffffffffffffffffffffffffffffffffff82169050919050565b5f61059182610568565b9050919050565b6105a181610587565b82525050565b5f6020820190506105ba5f830184610598565b92915050565b5f81519050919050565b5f82825260208201905092915050565b8281835e5f83830152505050565b5f601f19601f8301169050919050565b5f610602826105c0565b61060c81856105ca565b935061061c8185602086016105da565b610625816105e8565b840191505092915050565b5f6020820190508181035f83015261064881846105f8565b905092915050565b5f819050919050565b61066281610650565b82525050565b5f60208201905061067b5f830184610659565b92915050565b5f80fd5b61068e81610650565b8114610698575f80fd5b50565b5f815190506106a981610685565b92915050565b5f602082840312156106c4576106c3610681565b5b5f6106d18482850161069b565b91505092915050565b7f496e73756666696369656e742062616c616e63650000000000000000000000005f82015250565b5f61070e6014836105ca565b9150610719826106da565b602082019050919050565b5f6020820190508181035f83015261073b81610702565b9050919050565b7f496e76616c696420726563697069656e742061646472657373000000000000005f82015250565b5f6107766019836105ca565b915061078182610742565b602082019050919050565b5f6020820190508181035f8301526107a38161076a565b9050919050565b5f6060820190506107bd5f830186610598565b6107ca6020830185610598565b6107d76040830184610659565b949350505050565b5f8115159050919050565b6107f3816107df565b81146107fd575f80fd5b50565b5f8151905061080e816107ea565b92915050565b5f6020828403121561082957610828610681565b5b5f61083684828501610800565b91505092915050565b7f4e487b71000000000000000000000000000000000000000000000000000000005f52602260045260245ffd5b5f600282049050600182168061088357607f821691505b6020821081036108965761089561083f565b5b5091905056fea26469706673582212209711ef9ed6250d773d44932d3984707068bd52dc41940f9fd886f65e46d2cc7c64736f6c634300081a0033a264697066735822122041cc1b8f14f32e2428980ce5086fa0f46edaea7257a6c927259df6593559c79264736f6c634300081a0033",
			"opcodes": "PUSH1 0x80 PUSH1 0x40 MSTORE CALLVALUE DUP1 ISZERO PUSH2 0xF JUMPI PUSH0 DUP1 REVERT JUMPDEST POP PUSH1 0x40 MLOAD PUSH2 0x31FA CODESIZE SUB DUP1 PUSH2 0x31FA DUP4 CODECOPY DUP2 DUP2 ADD PUSH1 0x40 MSTORE DUP2 ADD SWAP1 PUSH2 0x31 SWAP2 SWAP1 PUSH2 0x390 JUMP JUMPDEST PUSH0 PUSH20 0xFFFFFFFFFFFFFFFFFFFFFFFFFFFFFFFFFFFFFFFF AND DUP3 PUSH20 0xFFFFFFFFFFFFFFFFFFFFFFFFFFFFFFFFFFFFFFFF AND SUB PUSH2 0x9F JUMPI PUSH1 0x40 MLOAD PUSH32 0x8C379A000000000000000000000000000000000000000000000000000000000 DUP2 MSTORE PUSH1 0x4 ADD PUSH2 0x96 SWAP1 PUSH2 0x44E JUMP JUMPDEST PUSH1 0x40 MLOAD DUP1 SWAP2 SUB SWAP1 REVERT JUMPDEST DUP2 PUSH0 DUP1 PUSH2 0x100 EXP DUP2 SLOAD DUP2 PUSH20 0xFFFFFFFFFFFFFFFFFFFFFFFFFFFFFFFFFFFFFFFF MUL NOT AND SWAP1 DUP4 PUSH20 0xFFFFFFFFFFFFFFFFFFFFFFFFFFFFFFFFFFFFFFFF AND MUL OR SWAP1 SSTORE POP PUSH0 PUSH20 0xFFFFFFFFFFFFFFFFFFFFFFFFFFFFFFFFFFFFFFFF AND DUP2 PUSH20 0xFFFFFFFFFFFFFFFFFFFFFFFFFFFFFFFFFFFFFFFF AND SUB PUSH2 0x14C JUMPI PUSH1 0x40 MLOAD PUSH32 0x8C379A000000000000000000000000000000000000000000000000000000000 DUP2 MSTORE PUSH1 0x4 ADD PUSH2 0x143 SWAP1 PUSH2 0x4B6 JUMP JUMPDEST PUSH1 0x40 MLOAD DUP1 SWAP2 SUB SWAP1 REVERT JUMPDEST DUP1 PUSH1 0x1 PUSH0 PUSH2 0x100 EXP DUP2 SLOAD DUP2 PUSH20 0xFFFFFFFFFFFFFFFFFFFFFFFFFFFFFFFFFFFFFFFF MUL NOT AND SWAP1 DUP4 PUSH20 0xFFFFFFFFFFFFFFFFFFFFFFFFFFFFFFFFFFFFFFFF AND MUL OR SWAP1 SSTORE POP PUSH1 0x40 MLOAD DUP1 PUSH1 0x40 ADD PUSH1 0x40 MSTORE DUP1 PUSH1 0x6 DUP2 MSTORE PUSH1 0x20 ADD PUSH32 0x4661696C65640000000000000000000000000000000000000000000000000000 DUP2 MSTORE POP PUSH1 0x8 PUSH0 DUP1 PUSH1 0xFF AND DUP2 MSTORE PUSH1 0x20 ADD SWAP1 DUP2 MSTORE PUSH1 0x20 ADD PUSH0 KECCAK256 SWAP1 DUP2 PUSH2 0x1E2 SWAP2 SWAP1 PUSH2 0x70E JUMP JUMPDEST POP PUSH1 0x40 MLOAD DUP1 PUSH1 0x40 ADD PUSH1 0x40 MSTORE DUP1 PUSH1 0x20 DUP2 MSTORE PUSH1 0x20 ADD PUSH32 0x4D616E75616C20436F6D706C69616E636520436865636B205265717569726564 DUP2 MSTORE POP PUSH1 0x8 PUSH0 PUSH1 0x1 PUSH1 0xFF AND DUP2 MSTORE PUSH1 0x20 ADD SWAP1 DUP2 MSTORE PUSH1 0x20 ADD PUSH0 KECCAK256 SWAP1 DUP2 PUSH2 0x23A SWAP2 SWAP1 PUSH2 0x70E JUMP JUMPDEST POP PUSH1 0x40 MLOAD DUP1 PUSH1 0x40 ADD PUSH1 0x40 MSTORE DUP1 PUSH1 0x14 DUP2 MSTORE PUSH1 0x20 ADD PUSH32 0x526561647920666F722050726F63657373696E67000000000000000000000000 DUP2 MSTORE POP PUSH1 0x8 PUSH0 PUSH1 0x2 PUSH1 0xFF AND DUP2 MSTORE PUSH1 0x20 ADD SWAP1 DUP2 MSTORE PUSH1 0x20 ADD PUSH0 KECCAK256 SWAP1 DUP2 PUSH2 0x292 SWAP2 SWAP1 PUSH2 0x70E JUMP JUMPDEST POP PUSH1 0x40 MLOAD DUP1 PUSH1 0x40 ADD PUSH1 0x40 MSTORE DUP1 PUSH1 0x7 DUP2 MSTORE PUSH1 0x20 ADD PUSH32 0x5375636365737300000000000000000000000000000000000000000000000000 DUP2 MSTORE POP PUSH1 0x8 PUSH0 PUSH1 0x3 PUSH1 0xFF AND DUP2 MSTORE PUSH1 0x20 ADD SWAP1 DUP2 MSTORE PUSH1 0x20 ADD PUSH0 KECCAK256 SWAP1 DUP2 PUSH2 0x2EA SWAP2 SWAP1 PUSH2 0x70E JUMP JUMPDEST POP CALLER PUSH1 0x2 PUSH0 PUSH2 0x100 EXP DUP2 SLOAD DUP2 PUSH20 0xFFFFFFFFFFFFFFFFFFFFFFFFFFFFFFFFFFFFFFFF MUL NOT AND SWAP1 DUP4 PUSH20 0xFFFFFFFFFFFFFFFFFFFFFFFFFFFFFFFFFFFFFFFF AND MUL OR SWAP1 SSTORE POP POP POP PUSH2 0x7DD JUMP JUMPDEST PUSH0 DUP1 REVERT JUMPDEST PUSH0 PUSH20 0xFFFFFFFFFFFFFFFFFFFFFFFFFFFFFFFFFFFFFFFF DUP3 AND SWAP1 POP SWAP2 SWAP1 POP JUMP JUMPDEST PUSH0 PUSH2 0x35F DUP3 PUSH2 0x336 JUMP JUMPDEST SWAP1 POP SWAP2 SWAP1 POP JUMP JUMPDEST PUSH2 0x36F DUP2 PUSH2 0x355 JUMP JUMPDEST DUP2 EQ PUSH2 0x379 JUMPI PUSH0 DUP1 REVERT JUMPDEST POP JUMP JUMPDEST PUSH0 DUP2 MLOAD SWAP1 POP PUSH2 0x38A DUP2 PUSH2 0x366 JUMP JUMPDEST SWAP3 SWAP2 POP POP JUMP JUMPDEST PUSH0 DUP1 PUSH1 0x40 DUP4 DUP6 SUB SLT ISZERO PUSH2 0x3A6 JUMPI PUSH2 0x3A5 PUSH2 0x332 JUMP JUMPDEST JUMPDEST PUSH0 PUSH2 0x3B3 DUP6 DUP3 DUP7 ADD PUSH2 0x37C JUMP JUMPDEST SWAP3 POP POP PUSH1 0x20 PUSH2 0x3C4 DUP6 DUP3 DUP7 ADD PUSH2 0x37C JUMP JUMPDEST SWAP2 POP POP SWAP3 POP SWAP3 SWAP1 POP JUMP JUMPDEST PUSH0 DUP3 DUP3 MSTORE PUSH1 0x20 DUP3 ADD SWAP1 POP SWAP3 SWAP2 POP POP JUMP JUMPDEST PUSH32 0x496E76616C696420436F756E747269657320636F6E7472616374206164647265 PUSH0 DUP3 ADD MSTORE PUSH32 0x7373000000000000000000000000000000000000000000000000000000000000 PUSH1 0x20 DUP3 ADD MSTORE POP JUMP JUMPDEST PUSH0 PUSH2 0x438 PUSH1 0x22 DUP4 PUSH2 0x3CE JUMP JUMPDEST SWAP2 POP PUSH2 0x443 DUP3 PUSH2 0x3DE JUMP JUMPDEST PUSH1 0x40 DUP3 ADD SWAP1 POP SWAP2 SWAP1 POP JUMP JUMPDEST PUSH0 PUSH1 0x20 DUP3 ADD SWAP1 POP DUP2 DUP2 SUB PUSH0 DUP4 ADD MSTORE PUSH2 0x465 DUP2 PUSH2 0x42C JUMP JUMPDEST SWAP1 POP SWAP2 SWAP1 POP JUMP JUMPDEST PUSH32 0x496E76616C696420455243323020636F6E747261637420616464726573730000 PUSH0 DUP3 ADD MSTORE POP JUMP JUMPDEST PUSH0 PUSH2 0x4A0 PUSH1 0x1E DUP4 PUSH2 0x3CE JUMP JUMPDEST SWAP2 POP PUSH2 0x4AB DUP3 PUSH2 0x46C JUMP JUMPDEST PUSH1 0x20 DUP3 ADD SWAP1 POP SWAP2 SWAP1 POP JUMP JUMPDEST PUSH0 PUSH1 0x20 DUP3 ADD SWAP1 POP DUP2 DUP2 SUB PUSH0 DUP4 ADD MSTORE PUSH2 0x4CD DUP2 PUSH2 0x494 JUMP JUMPDEST SWAP1 POP SWAP2 SWAP1 POP JUMP JUMPDEST PUSH0 DUP2 MLOAD SWAP1 POP SWAP2 SWAP1 POP JUMP JUMPDEST PUSH32 0x4E487B7100000000000000000000000000000000000000000000000000000000 PUSH0 MSTORE PUSH1 0x41 PUSH1 0x4 MSTORE PUSH1 0x24 PUSH0 REVERT JUMPDEST PUSH32 0x4E487B7100000000000000000000000000000000000000000000000000000000 PUSH0 MSTORE PUSH1 0x22 PUSH1 0x4 MSTORE PUSH1 0x24 PUSH0 REVERT JUMPDEST PUSH0 PUSH1 0x2 DUP3 DIV SWAP1 POP PUSH1 0x1 DUP3 AND DUP1 PUSH2 0x54F JUMPI PUSH1 0x7F DUP3 AND SWAP2 POP JUMPDEST PUSH1 0x20 DUP3 LT DUP2 SUB PUSH2 0x562 JUMPI PUSH2 0x561 PUSH2 0x50B JUMP JUMPDEST JUMPDEST POP SWAP2 SWAP1 POP JUMP JUMPDEST PUSH0 DUP2 SWAP1 POP DUP2 PUSH0 MSTORE PUSH1 0x20 PUSH0 KECCAK256 SWAP1 POP SWAP2 SWAP1 POP JUMP JUMPDEST PUSH0 PUSH1 0x20 PUSH1 0x1F DUP4 ADD DIV SWAP1 POP SWAP2 SWAP1 POP JUMP JUMPDEST PUSH0 DUP3 DUP3 SHL SWAP1 POP SWAP3 SWAP2 POP POP JUMP JUMPDEST PUSH0 PUSH1 0x8 DUP4 MUL PUSH2 0x5C4 PUSH32 0xFFFFFFFFFFFFFFFFFFFFFFFFFFFFFFFFFFFFFFFFFFFFFFFFFFFFFFFFFFFFFFFF DUP3 PUSH2 0x589 JUMP JUMPDEST PUSH2 0x5CE DUP7 DUP4 PUSH2 0x589 JUMP JUMPDEST SWAP6 POP DUP1 NOT DUP5 AND SWAP4 POP DUP1 DUP7 AND DUP5 OR SWAP3 POP POP POP SWAP4 SWAP3 POP POP POP JUMP JUMPDEST PUSH0 DUP2 SWAP1 POP SWAP2 SWAP1 POP JUMP JUMPDEST PUSH0 DUP2 SWAP1 POP SWAP2 SWAP1 POP JUMP JUMPDEST PUSH0 PUSH2 0x612 PUSH2 0x60D PUSH2 0x608 DUP5 PUSH2 0x5E6 JUMP JUMPDEST PUSH2 0x5EF JUMP JUMPDEST PUSH2 0x5E6 JUMP JUMPDEST SWAP1 POP SWAP2 SWAP1 POP JUMP JUMPDEST PUSH0 DUP2 SWAP1 POP SWAP2 SWAP1 POP JUMP JUMPDEST PUSH2 0x62B DUP4 PUSH2 0x5F8 JUMP JUMPDEST PUSH2 0x63F PUSH2 0x637 DUP3 PUSH2 0x619 JUMP JUMPDEST DUP5 DUP5 SLOAD PUSH2 0x595 JUMP JUMPDEST DUP3 SSTORE POP POP POP POP JUMP JUMPDEST PUSH0 SWAP1 JUMP JUMPDEST PUSH2 0x653 PUSH2 0x647 JUMP JUMPDEST PUSH2 0x65E DUP2 DUP5 DUP5 PUSH2 0x622 JUMP JUMPDEST POP POP POP JUMP JUMPDEST JUMPDEST DUP2 DUP2 LT ISZERO PUSH2 0x681 JUMPI PUSH2 0x676 PUSH0 DUP3 PUSH2 0x64B JUMP JUMPDEST PUSH1 0x1 DUP2 ADD SWAP1 POP PUSH2 0x664 JUMP JUMPDEST POP POP JUMP JUMPDEST PUSH1 0x1F DUP3 GT ISZERO PUSH2 0x6C6 JUMPI PUSH2 0x697 DUP2 PUSH2 0x568 JUMP JUMPDEST PUSH2 0x6A0 DUP5 PUSH2 0x57A JUMP JUMPDEST DUP2 ADD PUSH1 0x20 DUP6 LT ISZERO PUSH2 0x6AF JUMPI DUP2 SWAP1 POP JUMPDEST PUSH2 0x6C3 PUSH2 0x6BB DUP6 PUSH2 0x57A JUMP JUMPDEST DUP4 ADD DUP3 PUSH2 0x663 JUMP JUMPDEST POP POP JUMPDEST POP POP POP JUMP JUMPDEST PUSH0 DUP3 DUP3 SHR SWAP1 POP SWAP3 SWAP2 POP POP JUMP JUMPDEST PUSH0 PUSH2 0x6E6 PUSH0 NOT DUP5 PUSH1 0x8 MUL PUSH2 0x6CB JUMP JUMPDEST NOT DUP1 DUP4 AND SWAP2 POP POP SWAP3 SWAP2 POP POP JUMP JUMPDEST PUSH0 PUSH2 0x6FE DUP4 DUP4 PUSH2 0x6D7 JUMP JUMPDEST SWAP2 POP DUP3 PUSH1 0x2 MUL DUP3 OR SWAP1 POP SWAP3 SWAP2 POP POP JUMP JUMPDEST PUSH2 0x717 DUP3 PUSH2 0x4D4 JUMP JUMPDEST PUSH8 0xFFFFFFFFFFFFFFFF DUP2 GT ISZERO PUSH2 0x730 JUMPI PUSH2 0x72F PUSH2 0x4DE JUMP JUMPDEST JUMPDEST PUSH2 0x73A DUP3 SLOAD PUSH2 0x538 JUMP JUMPDEST PUSH2 0x745 DUP3 DUP3 DUP6 PUSH2 0x685 JUMP JUMPDEST PUSH0 PUSH1 0x20 SWAP1 POP PUSH1 0x1F DUP4 GT PUSH1 0x1 DUP2 EQ PUSH2 0x776 JUMPI PUSH0 DUP5 ISZERO PUSH2 0x764 JUMPI DUP3 DUP8 ADD MLOAD SWAP1 POP JUMPDEST PUSH2 0x76E DUP6 DUP3 PUSH2 0x6F3 JUMP JUMPDEST DUP7 SSTORE POP PUSH2 0x7D5 JUMP JUMPDEST PUSH1 0x1F NOT DUP5 AND PUSH2 0x784 DUP7 PUSH2 0x568 JUMP JUMPDEST PUSH0 JUMPDEST DUP3 DUP2 LT ISZERO PUSH2 0x7AB JUMPI DUP5 DUP10 ADD MLOAD DUP3 SSTORE PUSH1 0x1 DUP3 ADD SWAP2 POP PUSH1 0x20 DUP6 ADD SWAP5 POP PUSH1 0x20 DUP2 ADD SWAP1 POP PUSH2 0x786 JUMP JUMPDEST DUP7 DUP4 LT ISZERO PUSH2 0x7C8 JUMPI DUP5 DUP10 ADD MLOAD PUSH2 0x7C4 PUSH1 0x1F DUP10 AND DUP3 PUSH2 0x6D7 JUMP JUMPDEST DUP4 SSTORE POP JUMPDEST PUSH1 0x1 PUSH1 0x2 DUP9 MUL ADD DUP9 SSTORE POP POP POP JUMPDEST POP POP POP POP POP POP JUMP JUMPDEST PUSH2 0x2A10 DUP1 PUSH2 0x7EA PUSH0 CODECOPY PUSH0 RETURN INVALID PUSH1 0x80 PUSH1 0x40 MSTORE CALLVALUE DUP1 ISZERO PUSH2 0xF JUMPI PUSH0 DUP1 REVERT JUMPDEST POP PUSH1 0x4 CALLDATASIZE LT PUSH2 0x7B JUMPI PUSH0 CALLDATALOAD PUSH1 0xE0 SHR DUP1 PUSH4 0x7996F571 GT PUSH2 0x59 JUMPI DUP1 PUSH4 0x7996F571 EQ PUSH2 0xAF JUMPI DUP1 PUSH4 0x8DA5CB5B EQ PUSH2 0xCD JUMPI DUP1 PUSH4 0xAA7EAE57 EQ PUSH2 0xEB JUMPI DUP1 PUSH4 0xB220FF91 EQ PUSH2 0x11B JUMPI PUSH2 0x7B JUMP JUMPDEST DUP1 PUSH4 0x19EFDC17 EQ PUSH2 0x7F JUMPI DUP1 PUSH4 0x2DC3EB77 EQ PUSH2 0x89 JUMPI DUP1 PUSH4 0x42E53255 EQ PUSH2 0xA5 JUMPI JUMPDEST PUSH0 DUP1 REVERT JUMPDEST PUSH2 0x87 PUSH2 0x139 JUMP JUMPDEST STOP JUMPDEST PUSH2 0xA3 PUSH1 0x4 DUP1 CALLDATASIZE SUB DUP2 ADD SWAP1 PUSH2 0x9E SWAP2 SWAP1 PUSH2 0xEC1 JUMP JUMPDEST PUSH2 0x26F JUMP JUMPDEST STOP JUMPDEST PUSH2 0xAD PUSH2 0x765 JUMP JUMPDEST STOP JUMPDEST PUSH2 0xB7 PUSH2 0xB99 JUMP JUMPDEST PUSH1 0x40 MLOAD PUSH2 0xC4 SWAP2 SWAP1 PUSH2 0xF7F JUMP JUMPDEST PUSH1 0x40 MLOAD DUP1 SWAP2 SUB SWAP1 RETURN JUMPDEST PUSH2 0xD5 PUSH2 0xBBE JUMP JUMPDEST PUSH1 0x40 MLOAD PUSH2 0xE2 SWAP2 SWAP1 PUSH2 0xF7F JUMP JUMPDEST PUSH1 0x40 MLOAD DUP1 SWAP2 SUB SWAP1 RETURN JUMPDEST PUSH2 0x105 PUSH1 0x4 DUP1 CALLDATASIZE SUB DUP2 ADD SWAP1 PUSH2 0x100 SWAP2 SWAP1 PUSH2 0xFCE JUMP JUMPDEST PUSH2 0xBE3 JUMP JUMPDEST PUSH1 0x40 MLOAD PUSH2 0x112 SWAP2 SWAP1 PUSH2 0x1059 JUMP JUMPDEST PUSH1 0x40 MLOAD DUP1 SWAP2 SUB SWAP1 RETURN JUMPDEST PUSH2 0x123 PUSH2 0xC7E JUMP JUMPDEST PUSH1 0x40 MLOAD PUSH2 0x130 SWAP2 SWAP1 PUSH2 0xF7F JUMP JUMPDEST PUSH1 0x40 MLOAD DUP1 SWAP2 SUB SWAP1 RETURN JUMPDEST PUSH1 0x2 PUSH0 SWAP1 SLOAD SWAP1 PUSH2 0x100 EXP SWAP1 DIV PUSH20 0xFFFFFFFFFFFFFFFFFFFFFFFFFFFFFFFFFFFFFFFF AND PUSH20 0xFFFFFFFFFFFFFFFFFFFFFFFFFFFFFFFFFFFFFFFF AND CALLER PUSH20 0xFFFFFFFFFFFFFFFFFFFFFFFFFFFFFFFFFFFFFFFF AND EQ PUSH2 0x1C8 JUMPI PUSH1 0x40 MLOAD PUSH32 0x8C379A000000000000000000000000000000000000000000000000000000000 DUP2 MSTORE PUSH1 0x4 ADD PUSH2 0x1BF SWAP1 PUSH2 0x10E9 JUMP JUMPDEST PUSH1 0x40 MLOAD DUP1 SWAP2 SUB SWAP1 REVERT JUMPDEST PUSH0 JUMPDEST PUSH1 0x3 DUP1 SLOAD SWAP1 POP DUP2 LT ISZERO PUSH2 0x25F JUMPI PUSH1 0x6 PUSH0 PUSH1 0x3 DUP4 DUP2 SLOAD DUP2 LT PUSH2 0x1EE JUMPI PUSH2 0x1ED PUSH2 0x1107 JUMP JUMPDEST JUMPDEST SWAP1 PUSH0 MSTORE PUSH1 0x20 PUSH0 KECCAK256 ADD PUSH0 SWAP1 SLOAD SWAP1 PUSH2 0x100 EXP SWAP1 DIV PUSH20 0xFFFFFFFFFFFFFFFFFFFFFFFFFFFFFFFFFFFFFFFF AND PUSH20 0xFFFFFFFFFFFFFFFFFFFFFFFFFFFFFFFFFFFFFFFF AND PUSH20 0xFFFFFFFFFFFFFFFFFFFFFFFFFFFFFFFFFFFFFFFF AND DUP2 MSTORE PUSH1 0x20 ADD SWAP1 DUP2 MSTORE PUSH1 0x20 ADD PUSH0 KECCAK256 PUSH0 SWAP1 SSTORE DUP1 DUP1 PUSH1 0x1 ADD SWAP2 POP POP PUSH2 0x1CA JUMP JUMPDEST POP PUSH1 0x3 PUSH0 PUSH2 0x26D SWAP2 SWAP1 PUSH2 0xCA1 JUMP JUMPDEST JUMP JUMPDEST PUSH1 0x2 PUSH0 SWAP1 SLOAD SWAP1 PUSH2 0x100 EXP SWAP1 DIV PUSH20 0xFFFFFFFFFFFFFFFFFFFFFFFFFFFFFFFFFFFFFFFF AND PUSH20 0xFFFFFFFFFFFFFFFFFFFFFFFFFFFFFFFFFFFFFFFF AND CALLER PUSH20 0xFFFFFFFFFFFFFFFFFFFFFFFFFFFFFFFFFFFFFFFF AND EQ PUSH2 0x2FE JUMPI PUSH1 0x40 MLOAD PUSH32 0x8C379A000000000000000000000000000000000000000000000000000000000 DUP2 MSTORE PUSH1 0x4 ADD PUSH2 0x2F5 SWAP1 PUSH2 0x10E9 JUMP JUMPDEST PUSH1 0x40 MLOAD DUP1 SWAP2 SUB SWAP1 REVERT JUMPDEST PUSH0 DUP1 PUSH0 SWAP1 SLOAD SWAP1 PUSH2 0x100 EXP SWAP1 DIV PUSH20 0xFFFFFFFFFFFFFFFFFFFFFFFFFFFFFFFFFFFFFFFF AND SWAP1 POP DUP1 PUSH20 0xFFFFFFFFFFFFFFFFFFFFFFFFFFFFFFFFFFFFFFFF AND PUSH4 0x3649E43 DUP5 PUSH1 0x40 MLOAD DUP3 PUSH4 0xFFFFFFFF AND PUSH1 0xE0 SHL DUP2 MSTORE PUSH1 0x4 ADD PUSH2 0x35B SWAP2 SWAP1 PUSH2 0x1059 JUMP JUMPDEST PUSH1 0x20 PUSH1 0x40 MLOAD DUP1 DUP4 SUB DUP2 DUP7 GAS STATICCALL ISZERO DUP1 ISZERO PUSH2 0x376 JUMPI RETURNDATASIZE PUSH0 DUP1 RETURNDATACOPY RETURNDATASIZE PUSH0 REVERT JUMPDEST POP POP POP POP PUSH1 0x40 MLOAD RETURNDATASIZE PUSH1 0x1F NOT PUSH1 0x1F DUP3 ADD AND DUP3 ADD DUP1 PUSH1 0x40 MSTORE POP DUP2 ADD SWAP1 PUSH2 0x39A SWAP2 SWAP1 PUSH2 0x1169 JUMP JUMPDEST PUSH2 0x3D9 JUMPI PUSH1 0x40 MLOAD PUSH32 0x8C379A000000000000000000000000000000000000000000000000000000000 DUP2 MSTORE PUSH1 0x4 ADD PUSH2 0x3D0 SWAP1 PUSH2 0x11DE JUMP JUMPDEST PUSH1 0x40 MLOAD DUP1 SWAP2 SUB SWAP1 REVERT JUMPDEST DUP1 PUSH20 0xFFFFFFFFFFFFFFFFFFFFFFFFFFFFFFFFFFFFFFFF AND PUSH4 0x3649E43 DUP4 PUSH1 0x40 MLOAD DUP3 PUSH4 0xFFFFFFFF AND PUSH1 0xE0 SHL DUP2 MSTORE PUSH1 0x4 ADD PUSH2 0x412 SWAP2 SWAP1 PUSH2 0x1059 JUMP JUMPDEST PUSH1 0x20 PUSH1 0x40 MLOAD DUP1 DUP4 SUB DUP2 DUP7 GAS STATICCALL ISZERO DUP1 ISZERO PUSH2 0x42D JUMPI RETURNDATASIZE PUSH0 DUP1 RETURNDATACOPY RETURNDATASIZE PUSH0 REVERT JUMPDEST POP POP POP POP PUSH1 0x40 MLOAD RETURNDATASIZE PUSH1 0x1F NOT PUSH1 0x1F DUP3 ADD AND DUP3 ADD DUP1 PUSH1 0x40 MSTORE POP DUP2 ADD SWAP1 PUSH2 0x451 SWAP2 SWAP1 PUSH2 0x1169 JUMP JUMPDEST PUSH2 0x490 JUMPI PUSH1 0x40 MLOAD PUSH32 0x8C379A000000000000000000000000000000000000000000000000000000000 DUP2 MSTORE PUSH1 0x4 ADD PUSH2 0x487 SWAP1 PUSH2 0x126C JUMP JUMPDEST PUSH1 0x40 MLOAD DUP1 SWAP2 SUB SWAP1 REVERT JUMPDEST PUSH0 DUP7 DUP7 DUP7 DUP7 DUP7 PUSH0 DUP1 SLOAD SWAP1 PUSH2 0x100 EXP SWAP1 DIV PUSH20 0xFFFFFFFFFFFFFFFFFFFFFFFFFFFFFFFFFFFFFFFF AND PUSH1 0x1 PUSH0 SWAP1 SLOAD SWAP1 PUSH2 0x100 EXP SWAP1 DIV PUSH20 0xFFFFFFFFFFFFFFFFFFFFFFFFFFFFFFFFFFFFFFFF AND PUSH1 0x40 MLOAD PUSH2 0x4E4 SWAP1 PUSH2 0xCBF JUMP JUMPDEST PUSH2 0x4F4 SWAP8 SWAP7 SWAP6 SWAP5 SWAP4 SWAP3 SWAP2 SWAP1 PUSH2 0x1299 JUMP JUMPDEST PUSH1 0x40 MLOAD DUP1 SWAP2 SUB SWAP1 PUSH0 CREATE DUP1 ISZERO DUP1 ISZERO PUSH2 0x50D JUMPI RETURNDATASIZE PUSH0 DUP1 RETURNDATACOPY RETURNDATASIZE PUSH0 REVERT JUMPDEST POP SWAP1 POP PUSH0 PUSH1 0x2 SWAP1 POP PUSH0 DUP3 SWAP1 POP DUP2 PUSH1 0x7 PUSH0 DUP4 PUSH20 0xFFFFFFFFFFFFFFFFFFFFFFFFFFFFFFFFFFFFFFFF AND PUSH20 0xFFFFFFFFFFFFFFFFFFFFFFFFFFFFFFFFFFFFFFFF AND DUP2 MSTORE PUSH1 0x20 ADD SWAP1 DUP2 MSTORE PUSH1 0x20 ADD PUSH0 KECCAK256 PUSH0 PUSH2 0x100 EXP DUP2 SLOAD DUP2 PUSH1 0xFF MUL NOT AND SWAP1 DUP4 PUSH1 0xFF AND MUL OR SWAP1 SSTORE POP PUSH1 0x4 DUP2 SWAP1 DUP1 PUSH1 0x1 DUP2 SLOAD ADD DUP1 DUP3 SSTORE DUP1 SWAP2 POP POP PUSH1 0x1 SWAP1 SUB SWAP1 PUSH0 MSTORE PUSH1 0x20 PUSH0 KECCAK256 ADD PUSH0 SWAP1 SWAP2 SWAP1 SWAP2 SWAP1 SWAP2 PUSH2 0x100 EXP DUP2 SLOAD DUP2 PUSH20 0xFFFFFFFFFFFFFFFFFFFFFFFFFFFFFFFFFFFFFFFF MUL NOT AND SWAP1 DUP4 PUSH20 0xFFFFFFFFFFFFFFFFFFFFFFFFFFFFFFFFFFFFFFFF AND MUL OR SWAP1 SSTORE POP PUSH0 PUSH1 0x6 PUSH0 DUP12 PUSH20 0xFFFFFFFFFFFFFFFFFFFFFFFFFFFFFFFFFFFFFFFF AND PUSH20 0xFFFFFFFFFFFFFFFFFFFFFFFFFFFFFFFFFFFFFFFF AND DUP2 MSTORE PUSH1 0x20 ADD SWAP1 DUP2 MSTORE PUSH1 0x20 ADD PUSH0 KECCAK256 SLOAD SUB PUSH2 0x673 JUMPI PUSH1 0x3 DUP10 SWAP1 DUP1 PUSH1 0x1 DUP2 SLOAD ADD DUP1 DUP3 SSTORE DUP1 SWAP2 POP POP PUSH1 0x1 SWAP1 SUB SWAP1 PUSH0 MSTORE PUSH1 0x20 PUSH0 KECCAK256 ADD PUSH0 SWAP1 SWAP2 SWAP1 SWAP2 SWAP1 SWAP2 PUSH2 0x100 EXP DUP2 SLOAD DUP2 PUSH20 0xFFFFFFFFFFFFFFFFFFFFFFFFFFFFFFFFFFFFFFFF MUL NOT AND SWAP1 DUP4 PUSH20 0xFFFFFFFFFFFFFFFFFFFFFFFFFFFFFFFFFFFFFFFF AND MUL OR SWAP1 SSTORE POP JUMPDEST DUP7 PUSH1 0x6 PUSH0 DUP12 PUSH20 0xFFFFFFFFFFFFFFFFFFFFFFFFFFFFFFFFFFFFFFFF AND PUSH20 0xFFFFFFFFFFFFFFFFFFFFFFFFFFFFFFFFFFFFFFFF AND DUP2 MSTORE PUSH1 0x20 ADD SWAP1 DUP2 MSTORE PUSH1 0x20 ADD PUSH0 KECCAK256 PUSH0 DUP3 DUP3 SLOAD PUSH2 0x6BF SWAP2 SWAP1 PUSH2 0x1341 JUMP JUMPDEST SWAP3 POP POP DUP2 SWAP1 SSTORE POP DUP1 PUSH20 0xFFFFFFFFFFFFFFFFFFFFFFFFFFFFFFFFFFFFFFFF AND DUP9 PUSH20 0xFFFFFFFFFFFFFFFFFFFFFFFFFFFFFFFFFFFFFFFF AND DUP11 PUSH20 0xFFFFFFFFFFFFFFFFFFFFFFFFFFFFFFFFFFFFFFFF AND PUSH32 0x5839776B73DB7BADF65B7F2C97562F6735AB7DFFB743DEFFA1C6967B7BD6CA6B DUP11 PUSH1 0x8 PUSH0 DUP9 PUSH1 0xFF AND PUSH1 0xFF AND DUP2 MSTORE PUSH1 0x20 ADD SWAP1 DUP2 MSTORE PUSH1 0x20 ADD PUSH0 KECCAK256 PUSH1 0x40 MLOAD PUSH2 0x752 SWAP3 SWAP2 SWAP1 PUSH2 0x1464 JUMP JUMPDEST PUSH1 0x40 MLOAD DUP1 SWAP2 SUB SWAP1 LOG4 POP POP POP POP POP POP POP POP POP JUMP JUMPDEST PUSH1 0x2 PUSH0 SWAP1 SLOAD SWAP1 PUSH2 0x100 EXP SWAP1 DIV PUSH20 0xFFFFFFFFFFFFFFFFFFFFFFFFFFFFFFFFFFFFFFFF AND PUSH20 0xFFFFFFFFFFFFFFFFFFFFFFFFFFFFFFFFFFFFFFFF AND CALLER PUSH20 0xFFFFFFFFFFFFFFFFFFFFFFFFFFFFFFFFFFFFFFFF AND EQ PUSH2 0x7F4 JUMPI PUSH1 0x40 MLOAD PUSH32 0x8C379A000000000000000000000000000000000000000000000000000000000 DUP2 MSTORE PUSH1 0x4 ADD PUSH2 0x7EB SWAP1 PUSH2 0x10E9 JUMP JUMPDEST PUSH1 0x40 MLOAD DUP1 SWAP2 SUB SWAP1 REVERT JUMPDEST PUSH0 JUMPDEST PUSH1 0x4 DUP1 SLOAD SWAP1 POP DUP2 LT ISZERO PUSH2 0x90A JUMPI PUSH0 PUSH1 0x4 DUP3 DUP2 SLOAD DUP2 LT PUSH2 0x818 JUMPI PUSH2 0x817 PUSH2 0x1107 JUMP JUMPDEST JUMPDEST SWAP1 PUSH0 MSTORE PUSH1 0x20 PUSH0 KECCAK256 ADD PUSH0 SWAP1 SLOAD SWAP1 PUSH2 0x100 EXP SWAP1 DIV PUSH20 0xFFFFFFFFFFFFFFFFFFFFFFFFFFFFFFFFFFFFFFFF AND SWAP1 POP PUSH0 PUSH1 0x7 PUSH0 DUP4 PUSH20 0xFFFFFFFFFFFFFFFFFFFFFFFFFFFFFFFFFFFFFFFF AND PUSH20 0xFFFFFFFFFFFFFFFFFFFFFFFFFFFFFFFFFFFFFFFF AND DUP2 MSTORE PUSH1 0x20 ADD SWAP1 DUP2 MSTORE PUSH1 0x20 ADD PUSH0 KECCAK256 PUSH0 SWAP1 SLOAD SWAP1 PUSH2 0x100 EXP SWAP1 DIV PUSH1 0xFF AND SWAP1 POP PUSH1 0x2 DUP2 PUSH1 0xFF AND SUB PUSH2 0x8FB JUMPI PUSH1 0x5 DUP3 SWAP1 DUP1 PUSH1 0x1 DUP2 SLOAD ADD DUP1 DUP3 SSTORE DUP1 SWAP2 POP POP PUSH1 0x1 SWAP1 SUB SWAP1 PUSH0 MSTORE PUSH1 0x20 PUSH0 KECCAK256 ADD PUSH0 SWAP1 SWAP2 SWAP1 SWAP2 SWAP1 SWAP2 PUSH2 0x100 EXP DUP2 SLOAD DUP2 PUSH20 0xFFFFFFFFFFFFFFFFFFFFFFFFFFFFFFFFFFFFFFFF MUL NOT AND SWAP1 DUP4 PUSH20 0xFFFFFFFFFFFFFFFFFFFFFFFFFFFFFFFFFFFFFFFF AND MUL OR SWAP1 SSTORE POP JUMPDEST POP POP DUP1 DUP1 PUSH1 0x1 ADD SWAP2 POP POP PUSH2 0x7F6 JUMP JUMPDEST POP PUSH0 JUMPDEST PUSH1 0x5 DUP1 SLOAD SWAP1 POP DUP2 LT ISZERO PUSH2 0xB89 JUMPI PUSH0 PUSH1 0x5 DUP3 DUP2 SLOAD DUP2 LT PUSH2 0x92F JUMPI PUSH2 0x92E PUSH2 0x1107 JUMP JUMPDEST JUMPDEST SWAP1 PUSH0 MSTORE PUSH1 0x20 PUSH0 KECCAK256 ADD PUSH0 SWAP1 SLOAD SWAP1 PUSH2 0x100 EXP SWAP1 DIV PUSH20 0xFFFFFFFFFFFFFFFFFFFFFFFFFFFFFFFFFFFFFFFF AND SWAP1 POP PUSH1 0x7 PUSH0 DUP3 PUSH20 0xFFFFFFFFFFFFFFFFFFFFFFFFFFFFFFFFFFFFFFFF AND PUSH20 0xFFFFFFFFFFFFFFFFFFFFFFFFFFFFFFFFFFFFFFFF AND DUP2 MSTORE PUSH1 0x20 ADD SWAP1 DUP2 MSTORE PUSH1 0x20 ADD PUSH0 KECCAK256 PUSH0 PUSH2 0x100 EXP DUP2 SLOAD SWAP1 PUSH1 0xFF MUL NOT AND SWAP1 SSTORE PUSH0 JUMPDEST PUSH1 0x4 DUP1 SLOAD SWAP1 POP DUP2 LT ISZERO PUSH2 0xB1A JUMPI DUP2 PUSH20 0xFFFFFFFFFFFFFFFFFFFFFFFFFFFFFFFFFFFFFFFF AND PUSH1 0x4 DUP3 DUP2 SLOAD DUP2 LT PUSH2 0x9DF JUMPI PUSH2 0x9DE PUSH2 0x1107 JUMP JUMPDEST JUMPDEST SWAP1 PUSH0 MSTORE PUSH1 0x20 PUSH0 KECCAK256 ADD PUSH0 SWAP1 SLOAD SWAP1 PUSH2 0x100 EXP SWAP1 DIV PUSH20 0xFFFFFFFFFFFFFFFFFFFFFFFFFFFFFFFFFFFFFFFF AND PUSH20 0xFFFFFFFFFFFFFFFFFFFFFFFFFFFFFFFFFFFFFFFF AND SUB PUSH2 0xB0D JUMPI PUSH1 0x4 PUSH1 0x1 PUSH1 0x4 DUP1 SLOAD SWAP1 POP PUSH2 0xA36 SWAP2 SWAP1 PUSH2 0x1492 JUMP JUMPDEST DUP2 SLOAD DUP2 LT PUSH2 0xA47 JUMPI PUSH2 0xA46 PUSH2 0x1107 JUMP JUMPDEST JUMPDEST SWAP1 PUSH0 MSTORE PUSH1 0x20 PUSH0 KECCAK256 ADD PUSH0 SWAP1 SLOAD SWAP1 PUSH2 0x100 EXP SWAP1 DIV PUSH20 0xFFFFFFFFFFFFFFFFFFFFFFFFFFFFFFFFFFFFFFFF AND PUSH1 0x4 DUP3 DUP2 SLOAD DUP2 LT PUSH2 0xA83 JUMPI PUSH2 0xA82 PUSH2 0x1107 JUMP JUMPDEST JUMPDEST SWAP1 PUSH0 MSTORE PUSH1 0x20 PUSH0 KECCAK256 ADD PUSH0 PUSH2 0x100 EXP DUP2 SLOAD DUP2 PUSH20 0xFFFFFFFFFFFFFFFFFFFFFFFFFFFFFFFFFFFFFFFF MUL NOT AND SWAP1 DUP4 PUSH20 0xFFFFFFFFFFFFFFFFFFFFFFFFFFFFFFFFFFFFFFFF AND MUL OR SWAP1 SSTORE POP PUSH1 0x4 DUP1 SLOAD DUP1 PUSH2 0xADA JUMPI PUSH2 0xAD9 PUSH2 0x14C5 JUMP JUMPDEST JUMPDEST PUSH1 0x1 SWAP1 SUB DUP2 DUP2 SWAP1 PUSH0 MSTORE PUSH1 0x20 PUSH0 KECCAK256 ADD PUSH0 PUSH2 0x100 EXP DUP2 SLOAD SWAP1 PUSH20 0xFFFFFFFFFFFFFFFFFFFFFFFFFFFFFFFFFFFFFFFF MUL NOT AND SWAP1 SSTORE SWAP1 SSTORE JUMPDEST DUP1 DUP1 PUSH1 0x1 ADD SWAP2 POP POP PUSH2 0x9A7 JUMP JUMPDEST POP PUSH0 DUP2 SWAP1 POP DUP1 PUSH20 0xFFFFFFFFFFFFFFFFFFFFFFFFFFFFFFFFFFFFFFFF AND PUSH4 0x1B9265B8 PUSH1 0x40 MLOAD DUP2 PUSH4 0xFFFFFFFF AND PUSH1 0xE0 SHL DUP2 MSTORE PUSH1 0x4 ADD PUSH0 PUSH1 0x40 MLOAD DUP1 DUP4 SUB DUP2 PUSH0 DUP8 DUP1 EXTCODESIZE ISZERO DUP1 ISZERO PUSH2 0xB64 JUMPI PUSH0 DUP1 REVERT JUMPDEST POP GAS CALL ISZERO DUP1 ISZERO PUSH2 0xB76 JUMPI RETURNDATASIZE PUSH0 DUP1 RETURNDATACOPY RETURNDATASIZE PUSH0 REVERT JUMPDEST POP POP POP POP POP POP DUP1 DUP1 PUSH1 0x1 ADD SWAP2 POP POP PUSH2 0x90D JUMP JUMPDEST POP PUSH1 0x5 PUSH0 PUSH2 0xB97 SWAP2 SWAP1 PUSH2 0xCA1 JUMP JUMPDEST JUMP JUMPDEST PUSH1 0x1 PUSH0 SWAP1 SLOAD SWAP1 PUSH2 0x100 EXP SWAP1 DIV PUSH20 0xFFFFFFFFFFFFFFFFFFFFFFFFFFFFFFFFFFFFFFFF AND DUP2 JUMP JUMPDEST PUSH1 0x2 PUSH0 SWAP1 SLOAD SWAP1 PUSH2 0x100 EXP SWAP1 DIV PUSH20 0xFFFFFFFFFFFFFFFFFFFFFFFFFFFFFFFFFFFFFFFF AND DUP2 JUMP JUMPDEST PUSH1 0x8 PUSH1 0x20 MSTORE DUP1 PUSH0 MSTORE PUSH1 0x40 PUSH0 KECCAK256 PUSH0 SWAP2 POP SWAP1 POP DUP1 SLOAD PUSH2 0xBFF SWAP1 PUSH2 0x13A1 JUMP JUMPDEST DUP1 PUSH1 0x1F ADD PUSH1 0x20 DUP1 SWAP2 DIV MUL PUSH1 0x20 ADD PUSH1 0x40 MLOAD SWAP1 DUP2 ADD PUSH1 0x40 MSTORE DUP1 SWAP3 SWAP2 SWAP1 DUP2 DUP2 MSTORE PUSH1 0x20 ADD DUP3 DUP1 SLOAD PUSH2 0xC2B SWAP1 PUSH2 0x13A1 JUMP JUMPDEST DUP1 ISZERO PUSH2 0xC76 JUMPI DUP1 PUSH1 0x1F LT PUSH2 0xC4D JUMPI PUSH2 0x100 DUP1 DUP4 SLOAD DIV MUL DUP4 MSTORE SWAP2 PUSH1 0x20 ADD SWAP2 PUSH2 0xC76 JUMP JUMPDEST DUP3 ADD SWAP2 SWAP1 PUSH0 MSTORE PUSH1 0x20 PUSH0 KECCAK256 SWAP1 JUMPDEST DUP2 SLOAD DUP2 MSTORE SWAP1 PUSH1 0x1 ADD SWAP1 PUSH1 0x20 ADD DUP1 DUP4 GT PUSH2 0xC59 JUMPI DUP3 SWAP1 SUB PUSH1 0x1F AND DUP3 ADD SWAP2 JUMPDEST POP POP POP POP POP DUP2 JUMP JUMPDEST PUSH0 DUP1 SLOAD SWAP1 PUSH2 0x100 EXP SWAP1 DIV PUSH20 0xFFFFFFFFFFFFFFFFFFFFFFFFFFFFFFFFFFFFFFFF AND DUP2 JUMP JUMPDEST POP DUP1 SLOAD PUSH0 DUP3 SSTORE SWAP1 PUSH0 MSTORE PUSH1 0x20 PUSH0 KECCAK256 SWAP1 DUP2 ADD SWAP1 PUSH2 0xCBC SWAP2 SWAP1 PUSH2 0xCCC JUMP JUMPDEST POP JUMP JUMPDEST PUSH2 0x14E8 DUP1 PUSH2 0x14F3 DUP4 CODECOPY ADD SWAP1 JUMP JUMPDEST JUMPDEST DUP1 DUP3 GT ISZERO PUSH2 0xCE3 JUMPI PUSH0 DUP2 PUSH0 SWAP1 SSTORE POP PUSH1 0x1 ADD PUSH2 0xCCD JUMP JUMPDEST POP SWAP1 JUMP JUMPDEST PUSH0 PUSH1 0x40 MLOAD SWAP1 POP SWAP1 JUMP JUMPDEST PUSH0 DUP1 REVERT JUMPDEST PUSH0 DUP1 REVERT JUMPDEST PUSH0 PUSH20 0xFFFFFFFFFFFFFFFFFFFFFFFFFFFFFFFFFFFFFFFF DUP3 AND SWAP1 POP SWAP2 SWAP1 POP JUMP JUMPDEST PUSH0 PUSH2 0xD21 DUP3 PUSH2 0xCF8 JUMP JUMPDEST SWAP1 POP SWAP2 SWAP1 POP JUMP JUMPDEST PUSH2 0xD31 DUP2 PUSH2 0xD17 JUMP JUMPDEST DUP2 EQ PUSH2 0xD3B JUMPI PUSH0 DUP1 REVERT JUMPDEST POP JUMP JUMPDEST PUSH0 DUP2 CALLDATALOAD SWAP1 POP PUSH2 0xD4C DUP2 PUSH2 0xD28 JUMP JUMPDEST SWAP3 SWAP2 POP POP JUMP JUMPDEST PUSH0 DUP2 SWAP1 POP SWAP2 SWAP1 POP JUMP JUMPDEST PUSH2 0xD64 DUP2 PUSH2 0xD52 JUMP JUMPDEST DUP2 EQ PUSH2 0xD6E JUMPI PUSH0 DUP1 REVERT JUMPDEST POP JUMP JUMPDEST PUSH0 DUP2 CALLDATALOAD SWAP1 POP PUSH2 0xD7F DUP2 PUSH2 0xD5B JUMP JUMPDEST SWAP3 SWAP2 POP POP JUMP JUMPDEST PUSH0 DUP1 REVERT JUMPDEST PUSH0 DUP1 REVERT JUMPDEST PUSH0 PUSH1 0x1F NOT PUSH1 0x1F DUP4 ADD AND SWAP1 POP SWAP2 SWAP1 POP JUMP JUMPDEST PUSH32 0x4E487B7100000000000000000000000000000000000000000000000000000000 PUSH0 MSTORE PUSH1 0x41 PUSH1 0x4 MSTORE PUSH1 0x24 PUSH0 REVERT JUMPDEST PUSH2 0xDD3 DUP3 PUSH2 0xD8D JUMP JUMPDEST DUP2 ADD DUP2 DUP2 LT PUSH8 0xFFFFFFFFFFFFFFFF DUP3 GT OR ISZERO PUSH2 0xDF2 JUMPI PUSH2 0xDF1 PUSH2 0xD9D JUMP JUMPDEST JUMPDEST DUP1 PUSH1 0x40 MSTORE POP POP POP JUMP JUMPDEST PUSH0 PUSH2 0xE04 PUSH2 0xCE7 JUMP JUMPDEST SWAP1 POP PUSH2 0xE10 DUP3 DUP3 PUSH2 0xDCA JUMP JUMPDEST SWAP2 SWAP1 POP JUMP JUMPDEST PUSH0 PUSH8 0xFFFFFFFFFFFFFFFF DUP3 GT ISZERO PUSH2 0xE2F JUMPI PUSH2 0xE2E PUSH2 0xD9D JUMP JUMPDEST JUMPDEST PUSH2 0xE38 DUP3 PUSH2 0xD8D JUMP JUMPDEST SWAP1 POP PUSH1 0x20 DUP2 ADD SWAP1 POP SWAP2 SWAP1 POP JUMP JUMPDEST DUP3 DUP2 DUP4 CALLDATACOPY PUSH0 DUP4 DUP4 ADD MSTORE POP POP POP JUMP JUMPDEST PUSH0 PUSH2 0xE65 PUSH2 0xE60 DUP5 PUSH2 0xE15 JUMP JUMPDEST PUSH2 0xDFB JUMP JUMPDEST SWAP1 POP DUP3 DUP2 MSTORE PUSH1 0x20 DUP2 ADD DUP5 DUP5 DUP5 ADD GT ISZERO PUSH2 0xE81 JUMPI PUSH2 0xE80 PUSH2 0xD89 JUMP JUMPDEST JUMPDEST PUSH2 0xE8C DUP5 DUP3 DUP6 PUSH2 0xE45 JUMP JUMPDEST POP SWAP4 SWAP3 POP POP POP JUMP JUMPDEST PUSH0 DUP3 PUSH1 0x1F DUP4 ADD SLT PUSH2 0xEA8 JUMPI PUSH2 0xEA7 PUSH2 0xD85 JUMP JUMPDEST JUMPDEST DUP2 CALLDATALOAD PUSH2 0xEB8 DUP5 DUP3 PUSH1 0x20 DUP7 ADD PUSH2 0xE53 JUMP JUMPDEST SWAP2 POP POP SWAP3 SWAP2 POP POP JUMP JUMPDEST PUSH0 DUP1 PUSH0 DUP1 PUSH0 PUSH1 0xA0 DUP7 DUP9 SUB SLT ISZERO PUSH2 0xEDA JUMPI PUSH2 0xED9 PUSH2 0xCF0 JUMP JUMPDEST JUMPDEST PUSH0 PUSH2 0xEE7 DUP9 DUP3 DUP10 ADD PUSH2 0xD3E JUMP JUMPDEST SWAP6 POP POP PUSH1 0x20 PUSH2 0xEF8 DUP9 DUP3 DUP10 ADD PUSH2 0xD3E JUMP JUMPDEST SWAP5 POP POP PUSH1 0x40 PUSH2 0xF09 DUP9 DUP3 DUP10 ADD PUSH2 0xD71 JUMP JUMPDEST SWAP4 POP POP PUSH1 0x60 DUP7 ADD CALLDATALOAD PUSH8 0xFFFFFFFFFFFFFFFF DUP2 GT ISZERO PUSH2 0xF2A JUMPI PUSH2 0xF29 PUSH2 0xCF4 JUMP JUMPDEST JUMPDEST PUSH2 0xF36 DUP9 DUP3 DUP10 ADD PUSH2 0xE94 JUMP JUMPDEST SWAP3 POP POP PUSH1 0x80 DUP7 ADD CALLDATALOAD PUSH8 0xFFFFFFFFFFFFFFFF DUP2 GT ISZERO PUSH2 0xF57 JUMPI PUSH2 0xF56 PUSH2 0xCF4 JUMP JUMPDEST JUMPDEST PUSH2 0xF63 DUP9 DUP3 DUP10 ADD PUSH2 0xE94 JUMP JUMPDEST SWAP2 POP POP SWAP3 SWAP6 POP SWAP3 SWAP6 SWAP1 SWAP4 POP JUMP JUMPDEST PUSH2 0xF79 DUP2 PUSH2 0xD17 JUMP JUMPDEST DUP3 MSTORE POP POP JUMP JUMPDEST PUSH0 PUSH1 0x20 DUP3 ADD SWAP1 POP PUSH2 0xF92 PUSH0 DUP4 ADD DUP5 PUSH2 0xF70 JUMP JUMPDEST SWAP3 SWAP2 POP POP JUMP JUMPDEST PUSH0 PUSH1 0xFF DUP3 AND SWAP1 POP SWAP2 SWAP1 POP JUMP JUMPDEST PUSH2 0xFAD DUP2 PUSH2 0xF98 JUMP JUMPDEST DUP2 EQ PUSH2 0xFB7 JUMPI PUSH0 DUP1 REVERT JUMPDEST POP JUMP JUMPDEST PUSH0 DUP2 CALLDATALOAD SWAP1 POP PUSH2 0xFC8 DUP2 PUSH2 0xFA4 JUMP JUMPDEST SWAP3 SWAP2 POP POP JUMP JUMPDEST PUSH0 PUSH1 0x20 DUP3 DUP5 SUB SLT ISZERO PUSH2 0xFE3 JUMPI PUSH2 0xFE2 PUSH2 0xCF0 JUMP JUMPDEST JUMPDEST PUSH0 PUSH2 0xFF0 DUP5 DUP3 DUP6 ADD PUSH2 0xFBA JUMP JUMPDEST SWAP2 POP POP SWAP3 SWAP2 POP POP JUMP JUMPDEST PUSH0 DUP2 MLOAD SWAP1 POP SWAP2 SWAP1 POP JUMP JUMPDEST PUSH0 DUP3 DUP3 MSTORE PUSH1 0x20 DUP3 ADD SWAP1 POP SWAP3 SWAP2 POP POP JUMP JUMPDEST DUP3 DUP2 DUP4 MCOPY PUSH0 DUP4 DUP4 ADD MSTORE POP POP POP JUMP JUMPDEST PUSH0 PUSH2 0x102B DUP3 PUSH2 0xFF9 JUMP JUMPDEST PUSH2 0x1035 DUP2 DUP6 PUSH2 0x1003 JUMP JUMPDEST SWAP4 POP PUSH2 0x1045 DUP2 DUP6 PUSH1 0x20 DUP7 ADD PUSH2 0x1013 JUMP JUMPDEST PUSH2 0x104E DUP2 PUSH2 0xD8D JUMP JUMPDEST DUP5 ADD SWAP2 POP POP SWAP3 SWAP2 POP POP JUMP JUMPDEST PUSH0 PUSH1 0x20 DUP3 ADD SWAP1 POP DUP2 DUP2 SUB PUSH0 DUP4 ADD MSTORE PUSH2 0x1071 DUP2 DUP5 PUSH2 0x1021 JUMP JUMPDEST SWAP1 POP SWAP3 SWAP2 POP POP JUMP JUMPDEST PUSH32 0x4F6E6C7920746865206F776E65722063616E20706572666F726D207468697320 PUSH0 DUP3 ADD MSTORE PUSH32 0x616374696F6E0000000000000000000000000000000000000000000000000000 PUSH1 0x20 DUP3 ADD MSTORE POP JUMP JUMPDEST PUSH0 PUSH2 0x10D3 PUSH1 0x26 DUP4 PUSH2 0x1003 JUMP JUMPDEST SWAP2 POP PUSH2 0x10DE DUP3 PUSH2 0x1079 JUMP JUMPDEST PUSH1 0x40 DUP3 ADD SWAP1 POP SWAP2 SWAP1 POP JUMP JUMPDEST PUSH0 PUSH1 0x20 DUP3 ADD SWAP1 POP DUP2 DUP2 SUB PUSH0 DUP4 ADD MSTORE PUSH2 0x1100 DUP2 PUSH2 0x10C7 JUMP JUMPDEST SWAP1 POP SWAP2 SWAP1 POP JUMP JUMPDEST PUSH32 0x4E487B7100000000000000000000000000000000000000000000000000000000 PUSH0 MSTORE PUSH1 0x32 PUSH1 0x4 MSTORE PUSH1 0x24 PUSH0 REVERT JUMPDEST PUSH0 DUP2 ISZERO ISZERO SWAP1 POP SWAP2 SWAP1 POP JUMP JUMPDEST PUSH2 0x1148 DUP2 PUSH2 0x1134 JUMP JUMPDEST DUP2 EQ PUSH2 0x1152 JUMPI PUSH0 DUP1 REVERT JUMPDEST POP JUMP JUMPDEST PUSH0 DUP2 MLOAD SWAP1 POP PUSH2 0x1163 DUP2 PUSH2 0x113F JUMP JUMPDEST SWAP3 SWAP2 POP POP JUMP JUMPDEST PUSH0 PUSH1 0x20 DUP3 DUP5 SUB SLT ISZERO PUSH2 0x117E JUMPI PUSH2 0x117D PUSH2 0xCF0 JUMP JUMPDEST JUMPDEST PUSH0 PUSH2 0x118B DUP5 DUP3 DUP6 ADD PUSH2 0x1155 JUMP JUMPDEST SWAP2 POP POP SWAP3 SWAP2 POP POP JUMP JUMPDEST PUSH32 0x496E76616C696420706179657220636F756E7472792049534F20636F64650000 PUSH0 DUP3 ADD MSTORE POP JUMP JUMPDEST PUSH0 PUSH2 0x11C8 PUSH1 0x1E DUP4 PUSH2 0x1003 JUMP JUMPDEST SWAP2 POP PUSH2 0x11D3 DUP3 PUSH2 0x1194 JUMP JUMPDEST PUSH1 0x20 DUP3 ADD SWAP1 POP SWAP2 SWAP1 POP JUMP JUMPDEST PUSH0 PUSH1 0x20 DUP3 ADD SWAP1 POP DUP2 DUP2 SUB PUSH0 DUP4 ADD MSTORE PUSH2 0x11F5 DUP2 PUSH2 0x11BC JUMP JUMPDEST SWAP1 POP SWAP2 SWAP1 POP JUMP JUMPDEST PUSH32 0x496E76616C696420726563697069656E7420636F756E7472792049534F20636F PUSH0 DUP3 ADD MSTORE PUSH32 0x6465000000000000000000000000000000000000000000000000000000000000 PUSH1 0x20 DUP3 ADD MSTORE POP JUMP JUMPDEST PUSH0 PUSH2 0x1256 PUSH1 0x22 DUP4 PUSH2 0x1003 JUMP JUMPDEST SWAP2 POP PUSH2 0x1261 DUP3 PUSH2 0x11FC JUMP JUMPDEST PUSH1 0x40 DUP3 ADD SWAP1 POP SWAP2 SWAP1 POP JUMP JUMPDEST PUSH0 PUSH1 0x20 DUP3 ADD SWAP1 POP DUP2 DUP2 SUB PUSH0 DUP4 ADD MSTORE PUSH2 0x1283 DUP2 PUSH2 0x124A JUMP JUMPDEST SWAP1 POP SWAP2 SWAP1 POP JUMP JUMPDEST PUSH2 0x1293 DUP2 PUSH2 0xD52 JUMP JUMPDEST DUP3 MSTORE POP POP JUMP JUMPDEST PUSH0 PUSH1 0xE0 DUP3 ADD SWAP1 POP PUSH2 0x12AC PUSH0 DUP4 ADD DUP11 PUSH2 0xF70 JUMP JUMPDEST PUSH2 0x12B9 PUSH1 0x20 DUP4 ADD DUP10 PUSH2 0xF70 JUMP JUMPDEST PUSH2 0x12C6 PUSH1 0x40 DUP4 ADD DUP9 PUSH2 0x128A JUMP JUMPDEST DUP2 DUP2 SUB PUSH1 0x60 DUP4 ADD MSTORE PUSH2 0x12D8 DUP2 DUP8 PUSH2 0x1021 JUMP JUMPDEST SWAP1 POP DUP2 DUP2 SUB PUSH1 0x80 DUP4 ADD MSTORE PUSH2 0x12EC DUP2 DUP7 PUSH2 0x1021 JUMP JUMPDEST SWAP1 POP PUSH2 0x12FB PUSH1 0xA0 DUP4 ADD DUP6 PUSH2 0xF70 JUMP JUMPDEST PUSH2 0x1308 PUSH1 0xC0 DUP4 ADD DUP5 PUSH2 0xF70 JUMP JUMPDEST SWAP9 SWAP8 POP POP POP POP POP POP POP POP JUMP JUMPDEST PUSH32 0x4E487B7100000000000000000000000000000000000000000000000000000000 PUSH0 MSTORE PUSH1 0x11 PUSH1 0x4 MSTORE PUSH1 0x24 PUSH0 REVERT JUMPDEST PUSH0 PUSH2 0x134B DUP3 PUSH2 0xD52 JUMP JUMPDEST SWAP2 POP PUSH2 0x1356 DUP4 PUSH2 0xD52 JUMP JUMPDEST SWAP3 POP DUP3 DUP3 ADD SWAP1 POP DUP1 DUP3 GT ISZERO PUSH2 0x136E JUMPI PUSH2 0x136D PUSH2 0x1314 JUMP JUMPDEST JUMPDEST SWAP3 SWAP2 POP POP JUMP JUMPDEST PUSH32 0x4E487B7100000000000000000000000000000000000000000000000000000000 PUSH0 MSTORE PUSH1 0x22 PUSH1 0x4 MSTORE PUSH1 0x24 PUSH0 REVERT JUMPDEST PUSH0 PUSH1 0x2 DUP3 DIV SWAP1 POP PUSH1 0x1 DUP3 AND DUP1 PUSH2 0x13B8 JUMPI PUSH1 0x7F DUP3 AND SWAP2 POP JUMPDEST PUSH1 0x20 DUP3 LT DUP2 SUB PUSH2 0x13CB JUMPI PUSH2 0x13CA PUSH2 0x1374 JUMP JUMPDEST JUMPDEST POP SWAP2 SWAP1 POP JUMP JUMPDEST PUSH0 DUP2 SWAP1 POP DUP2 PUSH0 MSTORE PUSH1 0x20 PUSH0 KECCAK256 SWAP1 POP SWAP2 SWAP1 POP JUMP JUMPDEST PUSH0 DUP2 SLOAD PUSH2 0x13EF DUP2 PUSH2 0x13A1 JUMP JUMPDEST PUSH2 0x13F9 DUP2 DUP7 PUSH2 0x1003 JUMP JUMPDEST SWAP5 POP PUSH1 0x1 DUP3 AND PUSH0 DUP2 EQ PUSH2 0x1413 JUMPI PUSH1 0x1 DUP2 EQ PUSH2 0x1429 JUMPI PUSH2 0x145B JUMP JUMPDEST PUSH1 0xFF NOT DUP4 AND DUP7 MSTORE DUP2 ISZERO ISZERO PUSH1 0x20 MUL DUP7 ADD SWAP4 POP PUSH2 0x145B JUMP JUMPDEST PUSH2 0x1432 DUP6 PUSH2 0x13D1 JUMP JUMPDEST PUSH0 JUMPDEST DUP4 DUP2 LT ISZERO PUSH2 0x1453 JUMPI DUP2 SLOAD DUP2 DUP10 ADD MSTORE PUSH1 0x1 DUP3 ADD SWAP2 POP PUSH1 0x20 DUP2 ADD SWAP1 POP PUSH2 0x1434 JUMP JUMPDEST DUP1 DUP9 ADD SWAP6 POP POP POP JUMPDEST POP POP POP SWAP3 SWAP2 POP POP JUMP JUMPDEST PUSH0 PUSH1 0x40 DUP3 ADD SWAP1 POP PUSH2 0x1477 PUSH0 DUP4 ADD DUP6 PUSH2 0x128A JUMP JUMPDEST DUP2 DUP2 SUB PUSH1 0x20 DUP4 ADD MSTORE PUSH2 0x1489 DUP2 DUP5 PUSH2 0x13E3 JUMP JUMPDEST SWAP1 POP SWAP4 SWAP3 POP POP POP JUMP JUMPDEST PUSH0 PUSH2 0x149C DUP3 PUSH2 0xD52 JUMP JUMPDEST SWAP2 POP PUSH2 0x14A7 DUP4 PUSH2 0xD52 JUMP JUMPDEST SWAP3 POP DUP3 DUP3 SUB SWAP1 POP DUP2 DUP2 GT ISZERO PUSH2 0x14BF JUMPI PUSH2 0x14BE PUSH2 0x1314 JUMP JUMPDEST JUMPDEST SWAP3 SWAP2 POP POP JUMP JUMPDEST PUSH32 0x4E487B7100000000000000000000000000000000000000000000000000000000 PUSH0 MSTORE PUSH1 0x31 PUSH1 0x4 MSTORE PUSH1 0x24 PUSH0 REVERT INVALID PUSH1 0x80 PUSH1 0x40 MSTORE CALLVALUE DUP1 ISZERO PUSH2 0xF JUMPI PUSH0 DUP1 REVERT JUMPDEST POP PUSH1 0x40 MLOAD PUSH2 0x14E8 CODESIZE SUB DUP1 PUSH2 0x14E8 DUP4 CODECOPY DUP2 DUP2 ADD PUSH1 0x40 MSTORE DUP2 ADD SWAP1 PUSH2 0x31 SWAP2 SWAP1 PUSH2 0x5AD JUMP JUMPDEST PUSH0 PUSH20 0xFFFFFFFFFFFFFFFFFFFFFFFFFFFFFFFFFFFFFFFF AND DUP3 PUSH20 0xFFFFFFFFFFFFFFFFFFFFFFFFFFFFFFFFFFFFFFFF AND SUB PUSH2 0x9F JUMPI PUSH1 0x40 MLOAD PUSH32 0x8C379A000000000000000000000000000000000000000000000000000000000 DUP2 MSTORE PUSH1 0x4 ADD PUSH2 0x96 SWAP1 PUSH2 0x702 JUMP JUMPDEST PUSH1 0x40 MLOAD DUP1 SWAP2 SUB SWAP1 REVERT JUMPDEST DUP2 PUSH1 0x5 PUSH0 PUSH2 0x100 EXP DUP2 SLOAD DUP2 PUSH20 0xFFFFFFFFFFFFFFFFFFFFFFFFFFFFFFFFFFFFFFFF MUL NOT AND SWAP1 DUP4 PUSH20 0xFFFFFFFFFFFFFFFFFFFFFFFFFFFFFFFFFFFFFFFF AND MUL OR SWAP1 SSTORE POP PUSH0 PUSH20 0xFFFFFFFFFFFFFFFFFFFFFFFFFFFFFFFFFFFFFFFF AND DUP2 PUSH20 0xFFFFFFFFFFFFFFFFFFFFFFFFFFFFFFFFFFFFFFFF AND SUB PUSH2 0x14D JUMPI PUSH1 0x40 MLOAD PUSH32 0x8C379A000000000000000000000000000000000000000000000000000000000 DUP2 MSTORE PUSH1 0x4 ADD PUSH2 0x144 SWAP1 PUSH2 0x76A JUMP JUMPDEST PUSH1 0x40 MLOAD DUP1 SWAP2 SUB SWAP1 REVERT JUMPDEST DUP1 PUSH1 0x6 PUSH0 PUSH2 0x100 EXP DUP2 SLOAD DUP2 PUSH20 0xFFFFFFFFFFFFFFFFFFFFFFFFFFFFFFFFFFFFFFFF MUL NOT AND SWAP1 DUP4 PUSH20 0xFFFFFFFFFFFFFFFFFFFFFFFFFFFFFFFFFFFFFFFF AND MUL OR SWAP1 SSTORE POP PUSH0 PUSH1 0x5 PUSH0 SWAP1 SLOAD SWAP1 PUSH2 0x100 EXP SWAP1 DIV PUSH20 0xFFFFFFFFFFFFFFFFFFFFFFFFFFFFFFFFFFFFFFFF AND SWAP1 POP DUP1 PUSH20 0xFFFFFFFFFFFFFFFFFFFFFFFFFFFFFFFFFFFFFFFF AND PUSH4 0x3649E43 DUP7 PUSH1 0x40 MLOAD DUP3 PUSH4 0xFFFFFFFF AND PUSH1 0xE0 SHL DUP2 MSTORE PUSH1 0x4 ADD PUSH2 0x1EB SWAP2 SWAP1 PUSH2 0x7CA JUMP JUMPDEST PUSH1 0x20 PUSH1 0x40 MLOAD DUP1 DUP4 SUB DUP2 DUP7 GAS STATICCALL ISZERO DUP1 ISZERO PUSH2 0x206 JUMPI RETURNDATASIZE PUSH0 DUP1 RETURNDATACOPY RETURNDATASIZE PUSH0 REVERT JUMPDEST POP POP POP POP PUSH1 0x40 MLOAD RETURNDATASIZE PUSH1 0x1F NOT PUSH1 0x1F DUP3 ADD AND DUP3 ADD DUP1 PUSH1 0x40 MSTORE POP DUP2 ADD SWAP1 PUSH2 0x22A SWAP2 SWAP1 PUSH2 0x81F JUMP JUMPDEST PUSH2 0x269 JUMPI PUSH1 0x40 MLOAD PUSH32 0x8C379A000000000000000000000000000000000000000000000000000000000 DUP2 MSTORE PUSH1 0x4 ADD PUSH2 0x260 SWAP1 PUSH2 0x894 JUMP JUMPDEST PUSH1 0x40 MLOAD DUP1 SWAP2 SUB SWAP1 REVERT JUMPDEST DUP1 PUSH20 0xFFFFFFFFFFFFFFFFFFFFFFFFFFFFFFFFFFFFFFFF AND PUSH4 0x3649E43 DUP6 PUSH1 0x40 MLOAD DUP3 PUSH4 0xFFFFFFFF AND PUSH1 0xE0 SHL DUP2 MSTORE PUSH1 0x4 ADD PUSH2 0x2A2 SWAP2 SWAP1 PUSH2 0x7CA JUMP JUMPDEST PUSH1 0x20 PUSH1 0x40 MLOAD DUP1 DUP4 SUB DUP2 DUP7 GAS STATICCALL ISZERO DUP1 ISZERO PUSH2 0x2BD JUMPI RETURNDATASIZE PUSH0 DUP1 RETURNDATACOPY RETURNDATASIZE PUSH0 REVERT JUMPDEST POP POP POP POP PUSH1 0x40 MLOAD RETURNDATASIZE PUSH1 0x1F NOT PUSH1 0x1F DUP3 ADD AND DUP3 ADD DUP1 PUSH1 0x40 MSTORE POP DUP2 ADD SWAP1 PUSH2 0x2E1 SWAP2 SWAP1 PUSH2 0x81F JUMP JUMPDEST PUSH2 0x320 JUMPI PUSH1 0x40 MLOAD PUSH32 0x8C379A000000000000000000000000000000000000000000000000000000000 DUP2 MSTORE PUSH1 0x4 ADD PUSH2 0x317 SWAP1 PUSH2 0x922 JUMP JUMPDEST PUSH1 0x40 MLOAD DUP1 SWAP2 SUB SWAP1 REVERT JUMPDEST DUP8 PUSH0 DUP1 PUSH2 0x100 EXP DUP2 SLOAD DUP2 PUSH20 0xFFFFFFFFFFFFFFFFFFFFFFFFFFFFFFFFFFFFFFFF MUL NOT AND SWAP1 DUP4 PUSH20 0xFFFFFFFFFFFFFFFFFFFFFFFFFFFFFFFFFFFFFFFF AND MUL OR SWAP1 SSTORE POP DUP7 PUSH1 0x1 PUSH0 PUSH2 0x100 EXP DUP2 SLOAD DUP2 PUSH20 0xFFFFFFFFFFFFFFFFFFFFFFFFFFFFFFFFFFFFFFFF MUL NOT AND SWAP1 DUP4 PUSH20 0xFFFFFFFFFFFFFFFFFFFFFFFFFFFFFFFFFFFFFFFF AND MUL OR SWAP1 SSTORE POP DUP6 PUSH1 0x2 DUP2 SWAP1 SSTORE POP DUP5 PUSH1 0x3 SWAP1 DUP2 PUSH2 0x3B5 SWAP2 SWAP1 PUSH2 0xB3A JUMP JUMPDEST POP DUP4 PUSH1 0x4 SWAP1 DUP2 PUSH2 0x3C5 SWAP2 SWAP1 PUSH2 0xB3A JUMP JUMPDEST POP POP POP POP POP POP POP POP POP PUSH2 0xC09 JUMP JUMPDEST PUSH0 PUSH1 0x40 MLOAD SWAP1 POP SWAP1 JUMP JUMPDEST PUSH0 DUP1 REVERT JUMPDEST PUSH0 DUP1 REVERT JUMPDEST PUSH0 PUSH20 0xFFFFFFFFFFFFFFFFFFFFFFFFFFFFFFFFFFFFFFFF DUP3 AND SWAP1 POP SWAP2 SWAP1 POP JUMP JUMPDEST PUSH0 PUSH2 0x40D DUP3 PUSH2 0x3E4 JUMP JUMPDEST SWAP1 POP SWAP2 SWAP1 POP JUMP JUMPDEST PUSH2 0x41D DUP2 PUSH2 0x403 JUMP JUMPDEST DUP2 EQ PUSH2 0x427 JUMPI PUSH0 DUP1 REVERT JUMPDEST POP JUMP JUMPDEST PUSH0 DUP2 MLOAD SWAP1 POP PUSH2 0x438 DUP2 PUSH2 0x414 JUMP JUMPDEST SWAP3 SWAP2 POP POP JUMP JUMPDEST PUSH0 DUP2 SWAP1 POP SWAP2 SWAP1 POP JUMP JUMPDEST PUSH2 0x450 DUP2 PUSH2 0x43E JUMP JUMPDEST DUP2 EQ PUSH2 0x45A JUMPI PUSH0 DUP1 REVERT JUMPDEST POP JUMP JUMPDEST PUSH0 DUP2 MLOAD SWAP1 POP PUSH2 0x46B DUP2 PUSH2 0x447 JUMP JUMPDEST SWAP3 SWAP2 POP POP JUMP JUMPDEST PUSH0 DUP1 REVERT JUMPDEST PUSH0 DUP1 REVERT JUMPDEST PUSH0 PUSH1 0x1F NOT PUSH1 0x1F DUP4 ADD AND SWAP1 POP SWAP2 SWAP1 POP JUMP JUMPDEST PUSH32 0x4E487B7100000000000000000000000000000000000000000000000000000000 PUSH0 MSTORE PUSH1 0x41 PUSH1 0x4 MSTORE PUSH1 0x24 PUSH0 REVERT JUMPDEST PUSH2 0x4BF DUP3 PUSH2 0x479 JUMP JUMPDEST DUP2 ADD DUP2 DUP2 LT PUSH8 0xFFFFFFFFFFFFFFFF DUP3 GT OR ISZERO PUSH2 0x4DE JUMPI PUSH2 0x4DD PUSH2 0x489 JUMP JUMPDEST JUMPDEST DUP1 PUSH1 0x40 MSTORE POP POP POP JUMP JUMPDEST PUSH0 PUSH2 0x4F0 PUSH2 0x3D3 JUMP JUMPDEST SWAP1 POP PUSH2 0x4FC DUP3 DUP3 PUSH2 0x4B6 JUMP JUMPDEST SWAP2 SWAP1 POP JUMP JUMPDEST PUSH0 PUSH8 0xFFFFFFFFFFFFFFFF DUP3 GT ISZERO PUSH2 0x51B JUMPI PUSH2 0x51A PUSH2 0x489 JUMP JUMPDEST JUMPDEST PUSH2 0x524 DUP3 PUSH2 0x479 JUMP JUMPDEST SWAP1 POP PUSH1 0x20 DUP2 ADD SWAP1 POP SWAP2 SWAP1 POP JUMP JUMPDEST DUP3 DUP2 DUP4 MCOPY PUSH0 DUP4 DUP4 ADD MSTORE POP POP POP JUMP JUMPDEST PUSH0 PUSH2 0x551 PUSH2 0x54C DUP5 PUSH2 0x501 JUMP JUMPDEST PUSH2 0x4E7 JUMP JUMPDEST SWAP1 POP DUP3 DUP2 MSTORE PUSH1 0x20 DUP2 ADD DUP5 DUP5 DUP5 ADD GT ISZERO PUSH2 0x56D JUMPI PUSH2 0x56C PUSH2 0x475 JUMP JUMPDEST JUMPDEST PUSH2 0x578 DUP5 DUP3 DUP6 PUSH2 0x531 JUMP JUMPDEST POP SWAP4 SWAP3 POP POP POP JUMP JUMPDEST PUSH0 DUP3 PUSH1 0x1F DUP4 ADD SLT PUSH2 0x594 JUMPI PUSH2 0x593 PUSH2 0x471 JUMP JUMPDEST JUMPDEST DUP2 MLOAD PUSH2 0x5A4 DUP5 DUP3 PUSH1 0x20 DUP7 ADD PUSH2 0x53F JUMP JUMPDEST SWAP2 POP POP SWAP3 SWAP2 POP POP JUMP JUMPDEST PUSH0 DUP1 PUSH0 DUP1 PUSH0 DUP1 PUSH0 PUSH1 0xE0 DUP9 DUP11 SUB SLT ISZERO PUSH2 0x5C8 JUMPI PUSH2 0x5C7 PUSH2 0x3DC JUMP JUMPDEST JUMPDEST PUSH0 PUSH2 0x5D5 DUP11 DUP3 DUP12 ADD PUSH2 0x42A JUMP JUMPDEST SWAP8 POP POP PUSH1 0x20 PUSH2 0x5E6 DUP11 DUP3 DUP12 ADD PUSH2 0x42A JUMP JUMPDEST SWAP7 POP POP PUSH1 0x40 PUSH2 0x5F7 DUP11 DUP3 DUP12 ADD PUSH2 0x45D JUMP JUMPDEST SWAP6 POP POP PUSH1 0x60 DUP9 ADD MLOAD PUSH8 0xFFFFFFFFFFFFFFFF DUP2 GT ISZERO PUSH2 0x618 JUMPI PUSH2 0x617 PUSH2 0x3E0 JUMP JUMPDEST JUMPDEST PUSH2 0x624 DUP11 DUP3 DUP12 ADD PUSH2 0x580 JUMP JUMPDEST SWAP5 POP POP PUSH1 0x80 DUP9 ADD MLOAD PUSH8 0xFFFFFFFFFFFFFFFF DUP2 GT ISZERO PUSH2 0x645 JUMPI PUSH2 0x644 PUSH2 0x3E0 JUMP JUMPDEST JUMPDEST PUSH2 0x651 DUP11 DUP3 DUP12 ADD PUSH2 0x580 JUMP JUMPDEST SWAP4 POP POP PUSH1 0xA0 PUSH2 0x662 DUP11 DUP3 DUP12 ADD PUSH2 0x42A JUMP JUMPDEST SWAP3 POP POP PUSH1 0xC0 PUSH2 0x673 DUP11 DUP3 DUP12 ADD PUSH2 0x42A JUMP JUMPDEST SWAP2 POP POP SWAP3 SWAP6 SWAP9 SWAP2 SWAP5 SWAP8 POP SWAP3 SWAP6 POP JUMP JUMPDEST PUSH0 DUP3 DUP3 MSTORE PUSH1 0x20 DUP3 ADD SWAP1 POP SWAP3 SWAP2 POP POP JUMP JUMPDEST PUSH32 0x496E76616C696420436F756E747269657320636F6E7472616374206164647265 PUSH0 DUP3 ADD MSTORE PUSH32 0x7373000000000000000000000000000000000000000000000000000000000000 PUSH1 0x20 DUP3 ADD MSTORE POP JUMP JUMPDEST PUSH0 PUSH2 0x6EC PUSH1 0x22 DUP4 PUSH2 0x682 JUMP JUMPDEST SWAP2 POP PUSH2 0x6F7 DUP3 PUSH2 0x692 JUMP JUMPDEST PUSH1 0x40 DUP3 ADD SWAP1 POP SWAP2 SWAP1 POP JUMP JUMPDEST PUSH0 PUSH1 0x20 DUP3 ADD SWAP1 POP DUP2 DUP2 SUB PUSH0 DUP4 ADD MSTORE PUSH2 0x719 DUP2 PUSH2 0x6E0 JUMP JUMPDEST SWAP1 POP SWAP2 SWAP1 POP JUMP JUMPDEST PUSH32 0x496E76616C696420455243323020636F6E747261637420616464726573730000 PUSH0 DUP3 ADD MSTORE POP JUMP JUMPDEST PUSH0 PUSH2 0x754 PUSH1 0x1E DUP4 PUSH2 0x682 JUMP JUMPDEST SWAP2 POP PUSH2 0x75F DUP3 PUSH2 0x720 JUMP JUMPDEST PUSH1 0x20 DUP3 ADD SWAP1 POP SWAP2 SWAP1 POP JUMP JUMPDEST PUSH0 PUSH1 0x20 DUP3 ADD SWAP1 POP DUP2 DUP2 SUB PUSH0 DUP4 ADD MSTORE PUSH2 0x781 DUP2 PUSH2 0x748 JUMP JUMPDEST SWAP1 POP SWAP2 SWAP1 POP JUMP JUMPDEST PUSH0 DUP2 MLOAD SWAP1 POP SWAP2 SWAP1 POP JUMP JUMPDEST PUSH0 PUSH2 0x79C DUP3 PUSH2 0x788 JUMP JUMPDEST PUSH2 0x7A6 DUP2 DUP6 PUSH2 0x682 JUMP JUMPDEST SWAP4 POP PUSH2 0x7B6 DUP2 DUP6 PUSH1 0x20 DUP7 ADD PUSH2 0x531 JUMP JUMPDEST PUSH2 0x7BF DUP2 PUSH2 0x479 JUMP JUMPDEST DUP5 ADD SWAP2 POP POP SWAP3 SWAP2 POP POP JUMP JUMPDEST PUSH0 PUSH1 0x20 DUP3 ADD SWAP1 POP DUP2 DUP2 SUB PUSH0 DUP4 ADD MSTORE PUSH2 0x7E2 DUP2 DUP5 PUSH2 0x792 JUMP JUMPDEST SWAP1 POP SWAP3 SWAP2 POP POP JUMP JUMPDEST PUSH0 DUP2 ISZERO ISZERO SWAP1 POP SWAP2 SWAP1 POP JUMP JUMPDEST PUSH2 0x7FE DUP2 PUSH2 0x7EA JUMP JUMPDEST DUP2 EQ PUSH2 0x808 JUMPI PUSH0 DUP1 REVERT JUMPDEST POP JUMP JUMPDEST PUSH0 DUP2 MLOAD SWAP1 POP PUSH2 0x819 DUP2 PUSH2 0x7F5 JUMP JUMPDEST SWAP3 SWAP2 POP POP JUMP JUMPDEST PUSH0 PUSH1 0x20 DUP3 DUP5 SUB SLT ISZERO PUSH2 0x834 JUMPI PUSH2 0x833 PUSH2 0x3DC JUMP JUMPDEST JUMPDEST PUSH0 PUSH2 0x841 DUP5 DUP3 DUP6 ADD PUSH2 0x80B JUMP JUMPDEST SWAP2 POP POP SWAP3 SWAP2 POP POP JUMP JUMPDEST PUSH32 0x496E76616C696420706179657220636F756E7472792049534F20636F64650000 PUSH0 DUP3 ADD MSTORE POP JUMP JUMPDEST PUSH0 PUSH2 0x87E PUSH1 0x1E DUP4 PUSH2 0x682 JUMP JUMPDEST SWAP2 POP PUSH2 0x889 DUP3 PUSH2 0x84A JUMP JUMPDEST PUSH1 0x20 DUP3 ADD SWAP1 POP SWAP2 SWAP1 POP JUMP JUMPDEST PUSH0 PUSH1 0x20 DUP3 ADD SWAP1 POP DUP2 DUP2 SUB PUSH0 DUP4 ADD MSTORE PUSH2 0x8AB DUP2 PUSH2 0x872 JUMP JUMPDEST SWAP1 POP SWAP2 SWAP1 POP JUMP JUMPDEST PUSH32 0x496E76616C696420726563697069656E7420636F756E7472792049534F20636F PUSH0 DUP3 ADD MSTORE PUSH32 0x6465000000000000000000000000000000000000000000000000000000000000 PUSH1 0x20 DUP3 ADD MSTORE POP JUMP JUMPDEST PUSH0 PUSH2 0x90C PUSH1 0x22 DUP4 PUSH2 0x682 JUMP JUMPDEST SWAP2 POP PUSH2 0x917 DUP3 PUSH2 0x8B2 JUMP JUMPDEST PUSH1 0x40 DUP3 ADD SWAP1 POP SWAP2 SWAP1 POP JUMP JUMPDEST PUSH0 PUSH1 0x20 DUP3 ADD SWAP1 POP DUP2 DUP2 SUB PUSH0 DUP4 ADD MSTORE PUSH2 0x939 DUP2 PUSH2 0x900 JUMP JUMPDEST SWAP1 POP SWAP2 SWAP1 POP JUMP JUMPDEST PUSH32 0x4E487B7100000000000000000000000000000000000000000000000000000000 PUSH0 MSTORE PUSH1 0x22 PUSH1 0x4 MSTORE PUSH1 0x24 PUSH0 REVERT JUMPDEST PUSH0 PUSH1 0x2 DUP3 DIV SWAP1 POP PUSH1 0x1 DUP3 AND DUP1 PUSH2 0x984 JUMPI PUSH1 0x7F DUP3 AND SWAP2 POP JUMPDEST PUSH1 0x20 DUP3 LT DUP2 SUB PUSH2 0x997 JUMPI PUSH2 0x996 PUSH2 0x940 JUMP JUMPDEST JUMPDEST POP SWAP2 SWAP1 POP JUMP JUMPDEST PUSH0 DUP2 SWAP1 POP DUP2 PUSH0 MSTORE PUSH1 0x20 PUSH0 KECCAK256 SWAP1 POP SWAP2 SWAP1 POP JUMP JUMPDEST PUSH0 PUSH1 0x20 PUSH1 0x1F DUP4 ADD DIV SWAP1 POP SWAP2 SWAP1 POP JUMP JUMPDEST PUSH0 DUP3 DUP3 SHL SWAP1 POP SWAP3 SWAP2 POP POP JUMP JUMPDEST PUSH0 PUSH1 0x8 DUP4 MUL PUSH2 0x9F9 PUSH32 0xFFFFFFFFFFFFFFFFFFFFFFFFFFFFFFFFFFFFFFFFFFFFFFFFFFFFFFFFFFFFFFFF DUP3 PUSH2 0x9BE JUMP JUMPDEST PUSH2 0xA03 DUP7 DUP4 PUSH2 0x9BE JUMP JUMPDEST SWAP6 POP DUP1 NOT DUP5 AND SWAP4 POP DUP1 DUP7 AND DUP5 OR SWAP3 POP POP POP SWAP4 SWAP3 POP POP POP JUMP JUMPDEST PUSH0 DUP2 SWAP1 POP SWAP2 SWAP1 POP JUMP JUMPDEST PUSH0 PUSH2 0xA3E PUSH2 0xA39 PUSH2 0xA34 DUP5 PUSH2 0x43E JUMP JUMPDEST PUSH2 0xA1B JUMP JUMPDEST PUSH2 0x43E JUMP JUMPDEST SWAP1 POP SWAP2 SWAP1 POP JUMP JUMPDEST PUSH0 DUP2 SWAP1 POP SWAP2 SWAP1 POP JUMP JUMPDEST PUSH2 0xA57 DUP4 PUSH2 0xA24 JUMP JUMPDEST PUSH2 0xA6B PUSH2 0xA63 DUP3 PUSH2 0xA45 JUMP JUMPDEST DUP5 DUP5 SLOAD PUSH2 0x9CA JUMP JUMPDEST DUP3 SSTORE POP POP POP POP JUMP JUMPDEST PUSH0 SWAP1 JUMP JUMPDEST PUSH2 0xA7F PUSH2 0xA73 JUMP JUMPDEST PUSH2 0xA8A DUP2 DUP5 DUP5 PUSH2 0xA4E JUMP JUMPDEST POP POP POP JUMP JUMPDEST JUMPDEST DUP2 DUP2 LT ISZERO PUSH2 0xAAD JUMPI PUSH2 0xAA2 PUSH0 DUP3 PUSH2 0xA77 JUMP JUMPDEST PUSH1 0x1 DUP2 ADD SWAP1 POP PUSH2 0xA90 JUMP JUMPDEST POP POP JUMP JUMPDEST PUSH1 0x1F DUP3 GT ISZERO PUSH2 0xAF2 JUMPI PUSH2 0xAC3 DUP2 PUSH2 0x99D JUMP JUMPDEST PUSH2 0xACC DUP5 PUSH2 0x9AF JUMP JUMPDEST DUP2 ADD PUSH1 0x20 DUP6 LT ISZERO PUSH2 0xADB JUMPI DUP2 SWAP1 POP JUMPDEST PUSH2 0xAEF PUSH2 0xAE7 DUP6 PUSH2 0x9AF JUMP JUMPDEST DUP4 ADD DUP3 PUSH2 0xA8F JUMP JUMPDEST POP POP JUMPDEST POP POP POP JUMP JUMPDEST PUSH0 DUP3 DUP3 SHR SWAP1 POP SWAP3 SWAP2 POP POP JUMP JUMPDEST PUSH0 PUSH2 0xB12 PUSH0 NOT DUP5 PUSH1 0x8 MUL PUSH2 0xAF7 JUMP JUMPDEST NOT DUP1 DUP4 AND SWAP2 POP POP SWAP3 SWAP2 POP POP JUMP JUMPDEST PUSH0 PUSH2 0xB2A DUP4 DUP4 PUSH2 0xB03 JUMP JUMPDEST SWAP2 POP DUP3 PUSH1 0x2 MUL DUP3 OR SWAP1 POP SWAP3 SWAP2 POP POP JUMP JUMPDEST PUSH2 0xB43 DUP3 PUSH2 0x788 JUMP JUMPDEST PUSH8 0xFFFFFFFFFFFFFFFF DUP2 GT ISZERO PUSH2 0xB5C JUMPI PUSH2 0xB5B PUSH2 0x489 JUMP JUMPDEST JUMPDEST PUSH2 0xB66 DUP3 SLOAD PUSH2 0x96D JUMP JUMPDEST PUSH2 0xB71 DUP3 DUP3 DUP6 PUSH2 0xAB1 JUMP JUMPDEST PUSH0 PUSH1 0x20 SWAP1 POP PUSH1 0x1F DUP4 GT PUSH1 0x1 DUP2 EQ PUSH2 0xBA2 JUMPI PUSH0 DUP5 ISZERO PUSH2 0xB90 JUMPI DUP3 DUP8 ADD MLOAD SWAP1 POP JUMPDEST PUSH2 0xB9A DUP6 DUP3 PUSH2 0xB1F JUMP JUMPDEST DUP7 SSTORE POP PUSH2 0xC01 JUMP JUMPDEST PUSH1 0x1F NOT DUP5 AND PUSH2 0xBB0 DUP7 PUSH2 0x99D JUMP JUMPDEST PUSH0 JUMPDEST DUP3 DUP2 LT ISZERO PUSH2 0xBD7 JUMPI DUP5 DUP10 ADD MLOAD DUP3 SSTORE PUSH1 0x1 DUP3 ADD SWAP2 POP PUSH1 0x20 DUP6 ADD SWAP5 POP PUSH1 0x20 DUP2 ADD SWAP1 POP PUSH2 0xBB2 JUMP JUMPDEST DUP7 DUP4 LT ISZERO PUSH2 0xBF4 JUMPI DUP5 DUP10 ADD MLOAD PUSH2 0xBF0 PUSH1 0x1F DUP10 AND DUP3 PUSH2 0xB03 JUMP JUMPDEST DUP4 SSTORE POP JUMPDEST PUSH1 0x1 PUSH1 0x2 DUP9 MUL ADD DUP9 SSTORE POP POP POP JUMPDEST POP POP POP POP POP POP JUMP JUMPDEST PUSH2 0x8D2 DUP1 PUSH2 0xC16 PUSH0 CODECOPY PUSH0 RETURN INVALID PUSH1 0x80 PUSH1 0x40 MSTORE CALLVALUE DUP1 ISZERO PUSH2 0xF JUMPI PUSH0 DUP1 REVERT JUMPDEST POP PUSH1 0x4 CALLDATASIZE LT PUSH2 0x86 JUMPI PUSH0 CALLDATALOAD PUSH1 0xE0 SHR DUP1 PUSH4 0x7996F571 GT PUSH2 0x59 JUMPI DUP1 PUSH4 0x7996F571 EQ PUSH2 0xEE JUMPI DUP1 PUSH4 0xAA8C217C EQ PUSH2 0x10C JUMPI DUP1 PUSH4 0xB220FF91 EQ PUSH2 0x12A JUMPI DUP1 PUSH4 0xE76800E5 EQ PUSH2 0x148 JUMPI PUSH2 0x86 JUMP JUMPDEST DUP1 PUSH4 0x123119CD EQ PUSH2 0x8A JUMPI DUP1 PUSH4 0x1B9265B8 EQ PUSH2 0xA8 JUMPI DUP1 PUSH4 0x214AD5F1 EQ PUSH2 0xB2 JUMPI DUP1 PUSH4 0x66D003AC EQ PUSH2 0xD0 JUMPI JUMPDEST PUSH0 DUP1 REVERT JUMPDEST PUSH2 0x92 PUSH2 0x166 JUMP JUMPDEST PUSH1 0x40 MLOAD PUSH2 0x9F SWAP2 SWAP1 PUSH2 0x5A7 JUMP JUMPDEST PUSH1 0x40 MLOAD DUP1 SWAP2 SUB SWAP1 RETURN JUMPDEST PUSH2 0xB0 PUSH2 0x189 JUMP JUMPDEST STOP JUMPDEST PUSH2 0xBA PUSH2 0x3DB JUMP JUMPDEST PUSH1 0x40 MLOAD PUSH2 0xC7 SWAP2 SWAP1 PUSH2 0x630 JUMP JUMPDEST PUSH1 0x40 MLOAD DUP1 SWAP2 SUB SWAP1 RETURN JUMPDEST PUSH2 0xD8 PUSH2 0x467 JUMP JUMPDEST PUSH1 0x40 MLOAD PUSH2 0xE5 SWAP2 SWAP1 PUSH2 0x5A7 JUMP JUMPDEST PUSH1 0x40 MLOAD DUP1 SWAP2 SUB SWAP1 RETURN JUMPDEST PUSH2 0xF6 PUSH2 0x48C JUMP JUMPDEST PUSH1 0x40 MLOAD PUSH2 0x103 SWAP2 SWAP1 PUSH2 0x5A7 JUMP JUMPDEST PUSH1 0x40 MLOAD DUP1 SWAP2 SUB SWAP1 RETURN JUMPDEST PUSH2 0x114 PUSH2 0x4B1 JUMP JUMPDEST PUSH1 0x40 MLOAD PUSH2 0x121 SWAP2 SWAP1 PUSH2 0x668 JUMP JUMPDEST PUSH1 0x40 MLOAD DUP1 SWAP2 SUB SWAP1 RETURN JUMPDEST PUSH2 0x132 PUSH2 0x4B7 JUMP JUMPDEST PUSH1 0x40 MLOAD PUSH2 0x13F SWAP2 SWAP1 PUSH2 0x5A7 JUMP JUMPDEST PUSH1 0x40 MLOAD DUP1 SWAP2 SUB SWAP1 RETURN JUMPDEST PUSH2 0x150 PUSH2 0x4DC JUMP JUMPDEST PUSH1 0x40 MLOAD PUSH2 0x15D SWAP2 SWAP1 PUSH2 0x630 JUMP JUMPDEST PUSH1 0x40 MLOAD DUP1 SWAP2 SUB SWAP1 RETURN JUMPDEST PUSH0 DUP1 SLOAD SWAP1 PUSH2 0x100 EXP SWAP1 DIV PUSH20 0xFFFFFFFFFFFFFFFFFFFFFFFFFFFFFFFFFFFFFFFF AND DUP2 JUMP JUMPDEST PUSH0 PUSH1 0x6 PUSH0 SWAP1 SLOAD SWAP1 PUSH2 0x100 EXP SWAP1 DIV PUSH20 0xFFFFFFFFFFFFFFFFFFFFFFFFFFFFFFFFFFFFFFFF AND SWAP1 POP PUSH1 0x2 SLOAD DUP2 PUSH20 0xFFFFFFFFFFFFFFFFFFFFFFFFFFFFFFFFFFFFFFFF AND PUSH4 0x5F515226 PUSH0 DUP1 SLOAD SWAP1 PUSH2 0x100 EXP SWAP1 DIV PUSH20 0xFFFFFFFFFFFFFFFFFFFFFFFFFFFFFFFFFFFFFFFF AND PUSH1 0x40 MLOAD DUP3 PUSH4 0xFFFFFFFF AND PUSH1 0xE0 SHL DUP2 MSTORE PUSH1 0x4 ADD PUSH2 0x209 SWAP2 SWAP1 PUSH2 0x5A7 JUMP JUMPDEST PUSH1 0x20 PUSH1 0x40 MLOAD DUP1 DUP4 SUB DUP2 DUP7 GAS STATICCALL ISZERO DUP1 ISZERO PUSH2 0x224 JUMPI RETURNDATASIZE PUSH0 DUP1 RETURNDATACOPY RETURNDATASIZE PUSH0 REVERT JUMPDEST POP POP POP POP PUSH1 0x40 MLOAD RETURNDATASIZE PUSH1 0x1F NOT PUSH1 0x1F DUP3 ADD AND DUP3 ADD DUP1 PUSH1 0x40 MSTORE POP DUP2 ADD SWAP1 PUSH2 0x248 SWAP2 SWAP1 PUSH2 0x6AF JUMP JUMPDEST LT ISZERO PUSH2 0x289 JUMPI PUSH1 0x40 MLOAD PUSH32 0x8C379A000000000000000000000000000000000000000000000000000000000 DUP2 MSTORE PUSH1 0x4 ADD PUSH2 0x280 SWAP1 PUSH2 0x724 JUMP JUMPDEST PUSH1 0x40 MLOAD DUP1 SWAP2 SUB SWAP1 REVERT JUMPDEST PUSH0 PUSH20 0xFFFFFFFFFFFFFFFFFFFFFFFFFFFFFFFFFFFFFFFF AND PUSH1 0x1 PUSH0 SWAP1 SLOAD SWAP1 PUSH2 0x100 EXP SWAP1 DIV PUSH20 0xFFFFFFFFFFFFFFFFFFFFFFFFFFFFFFFFFFFFFFFF AND PUSH20 0xFFFFFFFFFFFFFFFFFFFFFFFFFFFFFFFFFFFFFFFF AND SUB PUSH2 0x318 JUMPI PUSH1 0x40 MLOAD PUSH32 0x8C379A000000000000000000000000000000000000000000000000000000000 DUP2 MSTORE PUSH1 0x4 ADD PUSH2 0x30F SWAP1 PUSH2 0x78C JUMP JUMPDEST PUSH1 0x40 MLOAD DUP1 SWAP2 SUB SWAP1 REVERT JUMPDEST DUP1 PUSH20 0xFFFFFFFFFFFFFFFFFFFFFFFFFFFFFFFFFFFFFFFF AND PUSH4 0x23B872DD PUSH0 DUP1 SLOAD SWAP1 PUSH2 0x100 EXP SWAP1 DIV PUSH20 0xFFFFFFFFFFFFFFFFFFFFFFFFFFFFFFFFFFFFFFFF AND PUSH1 0x1 PUSH0 SWAP1 SLOAD SWAP1 PUSH2 0x100 EXP SWAP1 DIV PUSH20 0xFFFFFFFFFFFFFFFFFFFFFFFFFFFFFFFFFFFFFFFF AND PUSH1 0x2 SLOAD PUSH1 0x40 MLOAD DUP5 PUSH4 0xFFFFFFFF AND PUSH1 0xE0 SHL DUP2 MSTORE PUSH1 0x4 ADD PUSH2 0x397 SWAP4 SWAP3 SWAP2 SWAP1 PUSH2 0x7AA JUMP JUMPDEST PUSH1 0x20 PUSH1 0x40 MLOAD DUP1 DUP4 SUB DUP2 PUSH0 DUP8 GAS CALL ISZERO DUP1 ISZERO PUSH2 0x3B3 JUMPI RETURNDATASIZE PUSH0 DUP1 RETURNDATACOPY RETURNDATASIZE PUSH0 REVERT JUMPDEST POP POP POP POP PUSH1 0x40 MLOAD RETURNDATASIZE PUSH1 0x1F NOT PUSH1 0x1F DUP3 ADD AND DUP3 ADD DUP1 PUSH1 0x40 MSTORE POP DUP2 ADD SWAP1 PUSH2 0x3D7 SWAP2 SWAP1 PUSH2 0x814 JUMP JUMPDEST POP POP JUMP JUMPDEST PUSH1 0x4 DUP1 SLOAD PUSH2 0x3E8 SWAP1 PUSH2 0x86C JUMP JUMPDEST DUP1 PUSH1 0x1F ADD PUSH1 0x20 DUP1 SWAP2 DIV MUL PUSH1 0x20 ADD PUSH1 0x40 MLOAD SWAP1 DUP2 ADD PUSH1 0x40 MSTORE DUP1 SWAP3 SWAP2 SWAP1 DUP2 DUP2 MSTORE PUSH1 0x20 ADD DUP3 DUP1 SLOAD PUSH2 0x414 SWAP1 PUSH2 0x86C JUMP JUMPDEST DUP1 ISZERO PUSH2 0x45F JUMPI DUP1 PUSH1 0x1F LT PUSH2 0x436 JUMPI PUSH2 0x100 DUP1 DUP4 SLOAD DIV MUL DUP4 MSTORE SWAP2 PUSH1 0x20 ADD SWAP2 PUSH2 0x45F JUMP JUMPDEST DUP3 ADD SWAP2 SWAP1 PUSH0 MSTORE PUSH1 0x20 PUSH0 KECCAK256 SWAP1 JUMPDEST DUP2 SLOAD DUP2 MSTORE SWAP1 PUSH1 0x1 ADD SWAP1 PUSH1 0x20 ADD DUP1 DUP4 GT PUSH2 0x442 JUMPI DUP3 SWAP1 SUB PUSH1 0x1F AND DUP3 ADD SWAP2 JUMPDEST POP POP POP POP POP DUP2 JUMP JUMPDEST PUSH1 0x1 PUSH0 SWAP1 SLOAD SWAP1 PUSH2 0x100 EXP SWAP1 DIV PUSH20 0xFFFFFFFFFFFFFFFFFFFFFFFFFFFFFFFFFFFFFFFF AND DUP2 JUMP JUMPDEST PUSH1 0x6 PUSH0 SWAP1 SLOAD SWAP1 PUSH2 0x100 EXP SWAP1 DIV PUSH20 0xFFFFFFFFFFFFFFFFFFFFFFFFFFFFFFFFFFFFFFFF AND DUP2 JUMP JUMPDEST PUSH1 0x2 SLOAD DUP2 JUMP JUMPDEST PUSH1 0x5 PUSH0 SWAP1 SLOAD SWAP1 PUSH2 0x100 EXP SWAP1 DIV PUSH20 0xFFFFFFFFFFFFFFFFFFFFFFFFFFFFFFFFFFFFFFFF AND DUP2 JUMP JUMPDEST PUSH1 0x3 DUP1 SLOAD PUSH2 0x4E9 SWAP1 PUSH2 0x86C JUMP JUMPDEST DUP1 PUSH1 0x1F ADD PUSH1 0x20 DUP1 SWAP2 DIV MUL PUSH1 0x20 ADD PUSH1 0x40 MLOAD SWAP1 DUP2 ADD PUSH1 0x40 MSTORE DUP1 SWAP3 SWAP2 SWAP1 DUP2 DUP2 MSTORE PUSH1 0x20 ADD DUP3 DUP1 SLOAD PUSH2 0x515 SWAP1 PUSH2 0x86C JUMP JUMPDEST DUP1 ISZERO PUSH2 0x560 JUMPI DUP1 PUSH1 0x1F LT PUSH2 0x537 JUMPI PUSH2 0x100 DUP1 DUP4 SLOAD DIV MUL DUP4 MSTORE SWAP2 PUSH1 0x20 ADD SWAP2 PUSH2 0x560 JUMP JUMPDEST DUP3 ADD SWAP2 SWAP1 PUSH0 MSTORE PUSH1 0x20 PUSH0 KECCAK256 SWAP1 JUMPDEST DUP2 SLOAD DUP2 MSTORE SWAP1 PUSH1 0x1 ADD SWAP1 PUSH1 0x20 ADD DUP1 DUP4 GT PUSH2 0x543 JUMPI DUP3 SWAP1 SUB PUSH1 0x1F AND DUP3 ADD SWAP2 JUMPDEST POP POP POP POP POP DUP2 JUMP JUMPDEST PUSH0 PUSH20 0xFFFFFFFFFFFFFFFFFFFFFFFFFFFFFFFFFFFFFFFF DUP3 AND SWAP1 POP SWAP2 SWAP1 POP JUMP JUMPDEST PUSH0 PUSH2 0x591 DUP3 PUSH2 0x568 JUMP JUMPDEST SWAP1 POP SWAP2 SWAP1 POP JUMP JUMPDEST PUSH2 0x5A1 DUP2 PUSH2 0x587 JUMP JUMPDEST DUP3 MSTORE POP POP JUMP JUMPDEST PUSH0 PUSH1 0x20 DUP3 ADD SWAP1 POP PUSH2 0x5BA PUSH0 DUP4 ADD DUP5 PUSH2 0x598 JUMP JUMPDEST SWAP3 SWAP2 POP POP JUMP JUMPDEST PUSH0 DUP2 MLOAD SWAP1 POP SWAP2 SWAP1 POP JUMP JUMPDEST PUSH0 DUP3 DUP3 MSTORE PUSH1 0x20 DUP3 ADD SWAP1 POP SWAP3 SWAP2 POP POP JUMP JUMPDEST DUP3 DUP2 DUP4 MCOPY PUSH0 DUP4 DUP4 ADD MSTORE POP POP POP JUMP JUMPDEST PUSH0 PUSH1 0x1F NOT PUSH1 0x1F DUP4 ADD AND SWAP1 POP SWAP2 SWAP1 POP JUMP JUMPDEST PUSH0 PUSH2 0x602 DUP3 PUSH2 0x5C0 JUMP JUMPDEST PUSH2 0x60C DUP2 DUP6 PUSH2 0x5CA JUMP JUMPDEST SWAP4 POP PUSH2 0x61C DUP2 DUP6 PUSH1 0x20 DUP7 ADD PUSH2 0x5DA JUMP JUMPDEST PUSH2 0x625 DUP2 PUSH2 0x5E8 JUMP JUMPDEST DUP5 ADD SWAP2 POP POP SWAP3 SWAP2 POP POP JUMP JUMPDEST PUSH0 PUSH1 0x20 DUP3 ADD SWAP1 POP DUP2 DUP2 SUB PUSH0 DUP4 ADD MSTORE PUSH2 0x648 DUP2 DUP5 PUSH2 0x5F8 JUMP JUMPDEST SWAP1 POP SWAP3 SWAP2 POP POP JUMP JUMPDEST PUSH0 DUP2 SWAP1 POP SWAP2 SWAP1 POP JUMP JUMPDEST PUSH2 0x662 DUP2 PUSH2 0x650 JUMP JUMPDEST DUP3 MSTORE POP POP JUMP JUMPDEST PUSH0 PUSH1 0x20 DUP3 ADD SWAP1 POP PUSH2 0x67B PUSH0 DUP4 ADD DUP5 PUSH2 0x659 JUMP JUMPDEST SWAP3 SWAP2 POP POP JUMP JUMPDEST PUSH0 DUP1 REVERT JUMPDEST PUSH2 0x68E DUP2 PUSH2 0x650 JUMP JUMPDEST DUP2 EQ PUSH2 0x698 JUMPI PUSH0 DUP1 REVERT JUMPDEST POP JUMP JUMPDEST PUSH0 DUP2 MLOAD SWAP1 POP PUSH2 0x6A9 DUP2 PUSH2 0x685 JUMP JUMPDEST SWAP3 SWAP2 POP POP JUMP JUMPDEST PUSH0 PUSH1 0x20 DUP3 DUP5 SUB SLT ISZERO PUSH2 0x6C4 JUMPI PUSH2 0x6C3 PUSH2 0x681 JUMP JUMPDEST JUMPDEST PUSH0 PUSH2 0x6D1 DUP5 DUP3 DUP6 ADD PUSH2 0x69B JUMP JUMPDEST SWAP2 POP POP SWAP3 SWAP2 POP POP JUMP JUMPDEST PUSH32 0x496E73756666696369656E742062616C616E6365000000000000000000000000 PUSH0 DUP3 ADD MSTORE POP JUMP JUMPDEST PUSH0 PUSH2 0x70E PUSH1 0x14 DUP4 PUSH2 0x5CA JUMP JUMPDEST SWAP2 POP PUSH2 0x719 DUP3 PUSH2 0x6DA JUMP JUMPDEST PUSH1 0x20 DUP3 ADD SWAP1 POP SWAP2 SWAP1 POP JUMP JUMPDEST PUSH0 PUSH1 0x20 DUP3 ADD SWAP1 POP DUP2 DUP2 SUB PUSH0 DUP4 ADD MSTORE PUSH2 0x73B DUP2 PUSH2 0x702 JUMP JUMPDEST SWAP1 POP SWAP2 SWAP1 POP JUMP JUMPDEST PUSH32 0x496E76616C696420726563697069656E74206164647265737300000000000000 PUSH0 DUP3 ADD MSTORE POP JUMP JUMPDEST PUSH0 PUSH2 0x776 PUSH1 0x19 DUP4 PUSH2 0x5CA JUMP JUMPDEST SWAP2 POP PUSH2 0x781 DUP3 PUSH2 0x742 JUMP JUMPDEST PUSH1 0x20 DUP3 ADD SWAP1 POP SWAP2 SWAP1 POP JUMP JUMPDEST PUSH0 PUSH1 0x20 DUP3 ADD SWAP1 POP DUP2 DUP2 SUB PUSH0 DUP4 ADD MSTORE PUSH2 0x7A3 DUP2 PUSH2 0x76A JUMP JUMPDEST SWAP1 POP SWAP2 SWAP1 POP JUMP JUMPDEST PUSH0 PUSH1 0x60 DUP3 ADD SWAP1 POP PUSH2 0x7BD PUSH0 DUP4 ADD DUP7 PUSH2 0x598 JUMP JUMPDEST PUSH2 0x7CA PUSH1 0x20 DUP4 ADD DUP6 PUSH2 0x598 JUMP JUMPDEST PUSH2 0x7D7 PUSH1 0x40 DUP4 ADD DUP5 PUSH2 0x659 JUMP JUMPDEST SWAP5 SWAP4 POP POP POP POP JUMP JUMPDEST PUSH0 DUP2 ISZERO ISZERO SWAP1 POP SWAP2 SWAP1 POP JUMP JUMPDEST PUSH2 0x7F3 DUP2 PUSH2 0x7DF JUMP JUMPDEST DUP2 EQ PUSH2 0x7FD JUMPI PUSH0 DUP1 REVERT JUMPDEST POP JUMP JUMPDEST PUSH0 DUP2 MLOAD SWAP1 POP PUSH2 0x80E DUP2 PUSH2 0x7EA JUMP JUMPDEST SWAP3 SWAP2 POP POP JUMP JUMPDEST PUSH0 PUSH1 0x20 DUP3 DUP5 SUB SLT ISZERO PUSH2 0x829 JUMPI PUSH2 0x828 PUSH2 0x681 JUMP JUMPDEST JUMPDEST PUSH0 PUSH2 0x836 DUP5 DUP3 DUP6 ADD PUSH2 0x800 JUMP JUMPDEST SWAP2 POP POP SWAP3 SWAP2 POP POP JUMP JUMPDEST PUSH32 0x4E487B7100000000000000000000000000000000000000000000000000000000 PUSH0 MSTORE PUSH1 0x22 PUSH1 0x4 MSTORE PUSH1 0x24 PUSH0 REVERT JUMPDEST PUSH0 PUSH1 0x2 DUP3 DIV SWAP1 POP PUSH1 0x1 DUP3 AND DUP1 PUSH2 0x883 JUMPI PUSH1 0x7F DUP3 AND SWAP2 POP JUMPDEST PUSH1 0x20 DUP3 LT DUP2 SUB PUSH2 0x896 JUMPI PUSH2 0x895 PUSH2 0x83F JUMP JUMPDEST JUMPDEST POP SWAP2 SWAP1 POP JUMP INVALID LOG2 PUSH5 0x6970667358 0x22 SLT KECCAK256 SWAP8 GT 0xEF SWAP15 0xD6 0x25 0xD PUSH24 0x3D44932D3984707068BD52DC41940F9FD886F65E46D2CC7C PUSH5 0x736F6C6343 STOP ADDMOD BYTE STOP CALLER LOG2 PUSH5 0x6970667358 0x22 SLT KECCAK256 COINBASE 0xCC SHL DUP16 EQ RETURN 0x2E 0x24 0x28 SWAP9 0xC 0xE5 ADDMOD PUSH16 0xA0F46EDAEA7257A6C927259DF6593559 0xC7 SWAP3 PUSH5 0x736F6C6343 STOP ADDMOD BYTE STOP CALLER "
		},
		"gasEstimates": {
			"creation": {
				"codeDepositCost": "2153600",
				"executionCost": "infinite",
				"totalCost": "infinite"
			},
			"external": {
				"ERC20Contract()": "2508",
				"clearCumulativeTxns()": "infinite",
				"countriesContract()": "2571",
				"executeStagedPayments()": "infinite",
				"owner()": "2530",
				"stagePayment(address,address,uint256,string,string)": "infinite",
				"statusMapping(uint8)": "infinite"
			}
		},
		"methodIdentifiers": {
			"ERC20Contract()": "7996f571",
			"clearCumulativeTxns()": "19efdc17",
			"countriesContract()": "b220ff91",
			"executeStagedPayments()": "42e53255",
			"owner()": "8da5cb5b",
			"stagePayment(address,address,uint256,string,string)": "2dc3eb77",
			"statusMapping(uint8)": "aa7eae57"
		}
	},
	"abi": [
		{
			"inputs": [
				{
					"internalType": "address",
					"name": "_countriesContract",
					"type": "address"
				},
				{
					"internalType": "address",
					"name": "_ERC20Contract",
					"type": "address"
				}
			],
			"stateMutability": "nonpayable",
			"type": "constructor"
		},
		{
			"anonymous": false,
			"inputs": [
				{
					"indexed": true,
					"internalType": "address",
					"name": "payer",
					"type": "address"
				},
				{
					"indexed": true,
					"internalType": "address",
					"name": "recipient",
					"type": "address"
				},
				{
					"indexed": false,
					"internalType": "uint256",
					"name": "amount",
					"type": "uint256"
				},
				{
					"indexed": false,
					"internalType": "string",
					"name": "status",
					"type": "string"
				},
				{
					"indexed": true,
					"internalType": "address",
					"name": "paymentContract",
					"type": "address"
				}
			],
			"name": "PaymentStaged",
			"type": "event"
		},
		{
			"inputs": [],
			"name": "ERC20Contract",
			"outputs": [
				{
					"internalType": "address",
					"name": "",
					"type": "address"
				}
			],
			"stateMutability": "view",
			"type": "function"
		},
		{
			"inputs": [],
			"name": "clearCumulativeTxns",
			"outputs": [],
			"stateMutability": "nonpayable",
			"type": "function"
		},
		{
			"inputs": [],
			"name": "countriesContract",
			"outputs": [
				{
					"internalType": "address",
					"name": "",
					"type": "address"
				}
			],
			"stateMutability": "view",
			"type": "function"
		},
		{
			"inputs": [],
			"name": "executeStagedPayments",
			"outputs": [],
			"stateMutability": "nonpayable",
			"type": "function"
		},
		{
			"inputs": [],
			"name": "owner",
			"outputs": [
				{
					"internalType": "address",
					"name": "",
					"type": "address"
				}
			],
			"stateMutability": "view",
			"type": "function"
		},
		{
			"inputs": [
				{
					"internalType": "address",
					"name": "_payer",
					"type": "address"
				},
				{
					"internalType": "address",
					"name": "_recipient",
					"type": "address"
				},
				{
					"internalType": "uint256",
					"name": "_amount",
					"type": "uint256"
				},
				{
					"internalType": "string",
					"name": "_payerCountry",
					"type": "string"
				},
				{
					"internalType": "string",
					"name": "_recipientCountry",
					"type": "string"
				}
			],
			"name": "stagePayment",
			"outputs": [],
			"stateMutability": "nonpayable",
			"type": "function"
		},
		{
			"inputs": [
				{
					"internalType": "uint8",
					"name": "",
					"type": "uint8"
				}
			],
			"name": "statusMapping",
			"outputs": [
				{
					"internalType": "string",
					"name": "",
					"type": "string"
				}
			],
			"stateMutability": "view",
			"type": "function"
		}
	]
}